:020000040000fa
:080000000001040000000000f3
:020000040000fa
:04000800d4300000f0
:020000040000fa
:04000c00dc0f000005
:020000040000fa
:040010001c100000c0
:020000040000fa
:040014004410000094
:020000040000fa
:040018006c10000068
:020000040000fa
:04001c00d4300000dc
:020000040000fa
:04002000d4300000d8
:020000040000fa
:040024009410000034
:020000040000fa
:04002800c80100000b
:020000040000fa
:04002c00d4300000cc
:020000040000fa
:04003000d4300000c8
:020000040000fa
:04003400c6080000fa
:020000040000fa
:04003800d4300000c0
:020000040000fa
:04003c00d4300000bc
:020000040000fa
:04004000640d00004b
:020000040000fa
:04004400d4300000b4
:020000040000fa
:04004800d4300000b0
:020000040000fa
:04004c005205000059
:020000040000fa
:04005000d4300000a8
:020000040000fa
:04005400fe020000a8
:020000040000fa
:04005800d4300000a0
:020000040000fa
:04005c00d43000009c
:020000040000fa
:04006000d430000098
:020000040000fa
:04006400d430000094
:020000040000fa
:04006800ea020000a8
:020000040000fa
:04006c00d43000008c
:020000040000fa
:04007000d430000088
:020000040000fa
:04007400d430000084
:020000040000fa
:04007800d430000080
:020000040000fa
:04007c00d43000007c
:020000040000fa
:04008000d430000078
:020000040000fa
:04008400f402000082
:020000040000fa
:0400880088080000e4
:020000040000fa
:04008c0092080000d6
:020000040000fa
:04009000d430000068
:020000040000fa
:04009400d430000064
:020000040000fa
:04009800d430000060
:020000040000fa
:04009c00d43000005c
:020000040000fa
:0400a000d430000058
:020000040000fa
:0400a400d430000054
:020000040000fa
:0400a800d430000050
:020000040000fa
:0400ac00d43000004c
:020000040000fa
:0400b000d430000048
:020000040000fa
:0400b400d430000044
:020000040000fa
:0400b800d430000040
:020000040000fa
:0400bc00d43000003c
:020000040000fa
:0400c000d430000038
:020000040000fa
:0400c400d430000034
:020000040000fa
:0400c800d430000030
:020000040000fa
:0400cc00d43000002c
:020000040000fa
:0400d000d430000028
:020000040000fa
:0400d400bc0f00005d
:020000040000fa
:0400d800d430000020
:020000040000fa
:04010800d4300000ef
:020000040000fa
:04010c00d4300000eb
:020000040000fa
:04011000d4300000e7
:020000040000fa
:04011400d4300000e3
:020000040000fa
:04011800d4300000df
:020000040000fa
:04011c00d4300000db
:020000040000fa
:04012000d4300000d7
:020000040000fa
:04012400d4300000d3
:020000040000fa
:04012800d4300000cf
:020000040000fa
:04012c00d4300000cb
:020000040000fa
:04013000d4300000c7
:020000040000fa
:04013400d4300000c3
:020000040000fa
:04013800d4300000bf
:020000040000fa
:04013c00d4300000bb
:020000040000fa
:04014000d4300000b7
:020000040000fa
:04014400d4300000b3
:020000040000fa
:04014800d4300000af
:020000040000fa
:04014c00d4300000ab
:020000040000fa
:04015000d4300000a7
:020000040000fa
:04015400d4300000a3
:020000040000fa
:04015800d43000009f
:020000040000fa
:04015c00d43000009b
:020000040000fa
:04016000d430000097
:020000040000fa
:04016400d430000093
:020000040000fa
:04016800d43000008f
:020000040000fa
:04016c00d43000008b
:020000040000fa
:04017000d430000087
:020000040000fa
:04017400d430000083
:020000040000fa
:04017800d43000007f
:020000040000fa
:04017c00d43000007b
:020000040000fa
:04018000d430000077
:020000040000fa
:04018400d430000073
:020000040000fa
:04018800d43000006f
:020000040000fa
:04018c00d43000006b
:020000040000fa
:04019000d430000067
:020000040000fa
:04019400d430000063
:020000040000fa
:04019800d43000005f
:020000040000fa
:04019c00d43000005b
:020000040000fa
:0401a000d430000057
:020000040000fa
:0401a400d430000053
:020000040000fa
:0401a800d43000004f
:020000040000fa
:0401ac00d43000004b
:020000040000fa
:0401b000d430000047
:020000040000fa
:0401b400d430000043
:020000040000fa
:0401b800d43000003f
:020000040000fa
:0401bc00d43000003b
:020000040000fa
:0401c000d430000037
:020000040000fa
:0401c400d430000033
:020000040000fa
:0401c800d43000002f
:020000040000fa
:0401cc00d43000002b
:020000040000fa
:0401d000d430000027
:020000040000fa
:0401d400d430000023
:020000040000fa
:0401d800d43000001f
:020000040000fa
:100200008fa120000ebf20000e018800000000001a
:10021000000020000000e000020032000001200089
:100220002002880014000700e11707000000e0002a
:1002300003003a0000ab2300010020000200370059
:100240000000200001002000810f7000010032003a
:1002500014000700000020000000e000020032004f
:100260000000020000000000483002000000000012
:100270000040da000000fe004440a900a064200015
:100280000000e0000300320000002000a001880010
:100290004440a800000006008a1f78008b1f7800e9
:1002a0000000060091018800800478000000eb0047
:1002b0001a003700e284440032a0b4009905ba0065
:1002c000e284440032a0b4009906ba00e2844400fb
:1002d00032a0b4000006eb00476fde00fd07b2005d
:1002e000636ce10003003a00ebff07000000eb0045
:1002f0000a003700606ce10004003a00005deb008a
:100300008b05e900fdff3e00040037006168e10055
:10031000010032000086eb000b00070019c7ba008d
:100320001905ba000e04e00003003a000a00e000dc
:10033000e0ff3a0000000600fe07b2009e018800c0
:100340008a047800f5ff3700395dba008b05e900b3
:100350000c003200295dba008b05e900080032006c
:100360000c00e00003003a00e284440032a0b40034
:10037000f5ff370019ddba008b05e900faff3a00f6
:100380008904e800e184440032a0b40000000600c3
:100390003600f800809fbe00829fbe00849fbe0092
:1003a000869fbe00881f78000000fa00c8c2a8001f
:1003b0006000b800c0478800d147880070408000c6
:1003c0008140800018c0b3000200200003f8230021
:1003d0001a1807000000e00001003c000044eb0098
:1003e0000804e000060032000000200001f82300ad
:1003f0007040880081408800c00120004f0f070036
:1004000070408000814080006011b800091807002a
:100410000000e00009003a00b0408000c1408000c8
:1004200030478800414788002829ef00120020004b
:1004300061462b0030002000db130700804b80005a
:10044000e10f50002200320010458000e90f5000fb
:100450001f003c00104580000000e80010458800a7
:100460001000200040498800b4408000c540800052
:10047000d0408000e14080000001be000400be00ca
:100480004c1707000002be007040800081408000d1
:100490000001be000400be007e1807000002be007e
:1004a000d0408000e14080000001be000400be009a
:1004b000411707003047880041478800120020009c
:1004c00061472b0030002000b713070010003700f1
:1004d000804b8000e10f50000d003200104580007d
:1004e000e90f50000a003400a228ef002829ef008d
:1004f000b0408000c14080003047880041478800fc
:100500001200200061482b0030002000a6130700d5
:10051000a0478000e20f5000160032000017800054
:10052000620060000000e00012003200604b8000ba
:100530000000e0000f003a00804b80000000e00067
:100540000c003a00504b80000000e00009003a0027
:1005500010002000404b8800a0478000e50f5000ad
:100560000200320010002000a04788001000200088
:10057000804b880000178000620060000000e000ef
:1005800009003200604b80000000e00006003a00e5
:100590006000b80040458800514588006000b80000
:1005a000604588007145880010002000404c88009c
:1005b0008400a9000080fa004f0478004f03be00b9
:1005c0004f02be004f01be004f00be003600f900d2
:1005d000004006000000fa00c8c2a8008600a9007a
:1005e0000080fa00004006000000fa00c8c2a8001f
:1005f00086e0a9000080fa00004006003600f800fe
:10060000809fbe00829fbe00849fbe00869fbe006a
:100610000000fa00c8c2a800d0498000e70f5000cf
:10062000c6003400e0498000f149800002c02c007f
:10063000c37c24003d170700e0498800f149880089
:10064000e4498000f5498000f045800001468000c3
:100650000001be000400be00341707000002be0007
:1006600050408000614080000001be000400be00d8
:10067000d116070080488800914888006000b800c3
:10068000e0498800f1498800004a8000114a800052
:10069000020020000310240024170700004a8800ed
:1006a000114a8800004a8000114a800002002000a0
:1006b00003702400bf160700004a8800114a880012
:1006c000004a8000114a80000200200003702400cc
:1006d00016170700004a8800114a8800004a800067
:1006e000114a80000200200003022400e9170700dd
:1006f000004a8800114a8800004a8000114a8000a0
:10070000a2702d0033d22300081707000002be009c
:1007100080478000914780000001be000400be00b9
:10072000a5160700e0488800f14888006000b8007e
:10073000004a8800114a8800204a8000314a80001f
:1007400002c02c00c37c2400f8160700204a880051
:10075000314a8800204a8000314a8000f2282c006b
:1007600053ef230093160700204a8800314a88007f
:10077000204a8000314a800042722900f3c72300da
:10078000ea16070020488800314888006000b80059
:10079000204a8800314a8800404a8000514a80003f
:1007a00002c02c00c37c2400e0160700404a8800e9
:1007b000514a8800404a8000514a8000f2282c00ab
:1007c00053ef23007b160700404a8800514a8800f7
:1007d000404a8000514a800042722900f3c723003a
:1007e000d216070060488800714888006000b80091
:1007f000404a8800514a8800604a8000714a80005f
:1008000002c02c00c37c2400c8160700604a880080
:10081000714a8800604a8000714a8000f2282c00ea
:1008200053ef230063160700604a8800714a88006e
:10083000604a8000714a800042722900f3c7230099
:10084000ba16070040488800514888006000b80088
:10085000604a8800714a8800404880005148800002
:1008600060488800714888003a29ef0001508000f4
:10087000f05f2500808f500007003200204b800081
:10088000e10f500004003a00504b80000000e000ef
:1008900001003a00b00e0700c04980000000e000ef
:1008a00017003a00504b80000000e00014003a00ae
:1008b000340e0700a0478000e20f500003003c0008
:1008c000a04780000000e00008003a008049800056
:1008d000e10f500005003a00404b8000e50f50004a
:1008e00002003a000e080700080037008049800027
:1008f0000000e00004003a00360f07000300370054
:10090000340f07000100370000000000804980001c
:100910000000e00006003a00204b8000e10f50008c
:1009200003003a00a1e2a9006429ef005500370056
:1009300010002000204b880052003700204b800020
:10094000e10f50003d003a00001480008000eb00f1
:10095000fb1607000002be00e0498000f14980005c
:100960000001be000400be0013160700e049880025
:10097000f1498800101480008000eb00f016070099
:100980000002be00004a8000114a80000001be0043
:100990000400be0008160700004a8800114a8800bb
:1009a000201480008000eb00e51607000002be0066
:1009b000204a8000314a80000001be000400be00d1
:1009c000fd150700204a8800314a88003014800055
:1009d0008000eb00da1607000002be00404a8000eb
:1009e000514a80000001be000400be00f21507005d
:1009f000404a8800514a8800401480008000eb0083
:100a0000cf1607000002be00604a8000714a8000d5
:100a10000001be000400be00e7150700604a880020
:100a2000714a880001508000f05f2500808f5000df
:100a300011003200d70607000f0037006000b80031
:100a4000e0498800f14988006000b800004a880049
:100a5000114a88006000b800204a8800314a8800a6
:100a60006000b800404a8800514a88006000b80021
:100a7000604a8800714a8800d04980000000e80080
:100a8000d04988008560a9000080fa004f03be00ad
:100a90004f02be004f01be004f00be003600f900fd
:100aa000004006003600f800809fbe00829fbe0016
:100ab000849fbe00869fbe000200fa00c8c2a80044
:100ac0002c003700124d800090108000804078008c
:100ad000809920000000410001487800b05080005b
:100ae0000000e00006003200114d800080992000d7
:100af00000804000104078000000fb00801088005b
:100b0000114d800080992000008040001040780046
:100b1000ed4f50000b003a00b05080000000e000a4
:100b200002003200a000200080108800104d8000dc
:100b3000504d8800a229ef0010002000204d8800b1
:100b40000c003700a050800080007800104d80001d
:100b5000808f500004003100a229ef001000200017
:100b6000304d880003003700104d80000000e80081
:100b7000104d880070108000610060000000e000ef
:100b800003003200204d80000000e000cdff320065
:100b9000204d8000e10f500055013a000000eb00ad
:100ba000000f78001006200080108800c0448000ec
:100bb0000000e0003c01340010022000801088009a
:100bc0003a013700809920001e0040001040780054
:100bd000ed4f500006003a00b05080000000e000e9
:100be00037013200a0002000801088003501370056
:100bf000809920001e0040009040780030c2b30071
:100c000080cf500004003a00a229ef00a429ef0091
:100c10000000fe0025013700809920001e004000e2
:100c20009040780080c4b30080cf500004003a00a8
:100c30001e0fe80010002000a04788001b013700ad
:100c4000809920001e0040009040780050c4b300fe
:100c500080cf500015003a001e0fe8008099200058
:100c60001e0040009040780090c7b30080cf500035
:100c700003003a0010002000b05088000b0137003c
:100c8000809920001e00400090407800e0c6b3002c
:100c900080cf500002003a00162aef00030137000f
:100ca0000080eb00404d8800000137008099200053
:100cb0001e0040009040780020c5b30080cf500057
:100cc00009003a001e0fe800304b80000000e000f1
:100cd00003003a0040062000304b8800f300370044
:100ce0006629ef00f1003700809920001e004000c7
:100cf0009040780030c5b30080cf500004003a0027
:100d00001e0fe80010002000c0498800e7003700ef
:100d1000809920001e0040009040780020c7b3005a
:100d200080cf500009003a001e0fe800304b8000d1
:100d30000000e00003003a0010002000304b880063
:100d4000da0037006629ef00d800370080992000cc
:100d50001e0040009040780060c4b30080cf500077
:100d600005003a001e0fe800110020000000eb0013
:100d7000020b0700cd003700809920001e004000c4
:100d80009040780000c5b30080cf500011003a00b9
:100d90001e0fe800604b80000000e00007003a00f2
:100da0001200200031492b00300020007e11070086
:100db00010002000604b8800bc00370012002000ab
:100dc000c1492b0030002000771107006c29ef008b
:100dd000b6003700809920001e0040009040780047
:100de000d0c4b30080cf500012003a001e0fe800bc
:100df00001508000f05f2500808f500006003a000f
:100e0000002aef0012002000614a2b003000200071
:100e100065110700a5003700f05f2500005088002d
:100e200012002000914b2b00300020005e110700c3
:100e30009e003700809920001e00400090407800fe
:100e400030c4b30080cf500006003a001e0fe80007
:100e50009828ef006a29ef00f428ef007a29ef00c4
:100e600092003700809920001e00400090407800da
:100e7000a0c5b30080cf500010003a001e0fe8005c
:100e80002829ef00b0408000c14080003047880032
:100e900041478800d11680000010200000806000cb
:100ea0000000e00002003200a228ef007f003700bf
:100eb000a0002000104588007c00370080992000a9
:100ec0001e0040009040780080c6b30080cf5000e4
:100ed00004003a001e0fe80050002000a0478800e0
:100ee00072003700809920001e004000904078007a
:100ef00060c5b30080cf50000e003a001e0fe8001e
:100f000012002000d14c2b001000200026110700f9
:100f1000c0488000d1488000120020007f110700e7
:100f200012002000b14e2b00200020001e110700ef
:100f30005e003700809920001e004000904078003d
:100f400020c4b30080cf500026003a001e0fe800f6
:100f500012002000f14e2b0010002000121107009b
:100f60007041800081418000120020006b11070059
:100f70001200200071502b00200020000a110700f1
:100f800012002000c1502b001000200006110700a5
:100f9000d0448000e1448000120020005f1107006f
:100fa0001200200071502b0020002000fe100700ce
:100fb0001200200091522b0010002000fa100700b0
:100fc00080458000914580001200200053110700e9
:100fd0001200200071502b0020002000f2100700aa
:100fe00032003700809920001e00400090407800b9
:100ff000f0c4b30080cf500004003a001e0fe80098
:1010000010002000f04f8800280037008099200051
:101010001e00400090407800f0c6b30080cf500022
:1010200003003a001e0fe800fe29ef001f00370002
:10103000809920001e0040009040780050c7b30007
:1010400080cf500009003a001e0fe800814c80005c
:1010500020062000808f500014003c00804c80004f
:101060000000e800804c88001000370080992000c4
:101070001e0040009040780000c2b30080cf5000b6
:1010800002003a001e0fe80008003700120020009e
:1010900051542b0010002000c31007000080eb000b
:1010a000404d88000700370000000000504d8000d0
:1010b0009e007800808f5000c2fe3500010037008e
:1010c00000000000a229ef00a429ef00404d80009d
:1010d000e10f400006003a00a829ef00a229ef0026
:1010e0000000eb00000f7800500420008010880002
:1010f0008520a9000080fa004f03be004f02be0009
:101100004f01be004f00be003600f900004006004f
:101110000000fa00c8c2a8008700a9000080fa00f9
:1011200000400600809fbe000000fa00c8c2a80070
:1011300009003700c14d8000a09b200000804000c6
:10114000104078000000fb00d0108800c04d8000e7
:101150000000e800c04d8800c11080000020200081
:10116000008060000000e00004003a00c14d8000f3
:10117000b04d8000808f5000eeff34008720a90022
:101180000080fa004f00be00004006003600f80064
:10119000809fbe00829fbe00849fbe00869fbe00cf
:1011a000889fbe000200fa00c8c2a800a1e2a80001
:1011b000804980000000e00006003200f04380001b
:1011c000504c8800b003200030508800d442a80062
:1011d00011003700305080000000e0000b003c00a0
:1011e000b003200030508800504c80000000e00028
:1011f00002003c007f04070007003700504c8000cd
:101200000000e900504c8800030037003050800097
:101210000000e90030508800104980000000e00024
:10122000100034002449800035498000904180003e
:10123000a141800018c0b3000001be000400be0040
:101240007c1407000000e000010035000044eb00c2
:101250000804e00003003200104980000000e900ab
:1012600010498800d1168000001020000080600026
:101270000000e00003003a00c882a9009429ef00b2
:101280007629ef00204c8000e80f50000400340065
:1012900010002000104c88008429ef000b0037005c
:1012a000204c80000000e00004003400204c80004e
:1012b0000000e900204c88000400370080498000cd
:1012c0000000e00001003a008229ef00f04f8000aa
:1012d0000000e0000b003200804980000000e000c8
:1012e000080032005e0d0700104c80000000e00096
:1012f00002003200280e0700030037006f0d0700c0
:10130000010037007e29ef00804980000000e000e6
:101310002900320024488000354880007043800056
:101320008143800018c0b3000001be000400be006d
:10133000421407000000e00001003c000044eb0004
:101340000804e0001a003a00444880005548800034
:10135000504380006143800018c0b3000001be000c
:101360000400be00351407000000e00001003c004e
:101370000044eb000804e0000d003a0064488000df
:1013800075488000504380006143800018c0b3005e
:101390000001be000400be00281407000000e000a9
:1013a00001003c000044eb000804e00002003200b1
:1013b000e002a80037003700804980000000e0000c
:1013c000330032007043800081438000020020001f
:1013d000030a2400771307000002be0020488000a3
:1013e0003148800018c0b3000001be000400be00f8
:1013f000121407000000e00001003c000044eb0074
:101400000804e00023003200504380006143800064
:1014100002002000030a2400661307000002be0039
:10142000404880005148800018c0b3000001be0051
:101430000400be00011407000000e00001003c00b1
:101440000044eb000804e00012003200504380002a
:101450006143800002002000030a240055130700a6
:101460000002be00604880007148800018c0b300d0
:101470000001be000400be00f01307000000e00001
:1014800001003c000044eb000804e00001003200d1
:10149000e002a900f7030700304b80000000e000e5
:1014a00005003400304b80000000e900304b88001c
:1014b000100020005a0c0700d116800000102000f8
:1014c000008060000000e0000f003a00001780007c
:1014d000620060000000e0000b00320070498000f4
:1014e0000000e00008003a00604b80000000e000cf
:1014f00005003a00904b80000000e00002003a0036
:1015000010002000904b8800904980000000e0000f
:101510000d003200704b8000e10f500003003a00d4
:101520006e29ef00c8a2a9000800370010002000b3
:10153000704b8800c04480000000e00003003200cf
:10154000c8a2a80001003700c8a2a900a04b8000d3
:101550000000e0000a003a00404b80000000e0007c
:1015600007003a0010002000404b880010002000c7
:101570007049880010002000a04b880068003700e8
:10158000a04b8000e70f500004003c00a04b8000ff
:101590000000e800a04b880061003700a04b8000ed
:1015a000e80f50005e003a0000498000e10f500053
:1015b0005b003a00614c80002000200000017800b0
:1015c000110009008200d8000000e800b50e0700f5
:1015d00041652700810f500031003a00244580000a
:1015e00035458000c0488000d14880000001be0021
:1015f0000400be00ef12070002002000832c24002c
:101600004a1307000002be00d0448000e14480007d
:101610000001be000400be001e140700891307006d
:10162000000f780088458000994580001e007800f2
:10163000cf80de00bf1307000001be000800be001f
:10164000dc1207008045880091458800f84480003e
:10165000094580001e007800cf80de00b51307002a
:101660000001be000800be00d2120700f04488004e
:101670000145880048458000594580001e007800db
:10168000cf80de00ab1307000001be000800be00e3
:10169000c8120700404588005145880011003700f6
:1016a0007041800081418000d0448800e14488007e
:1016b000c0488000d148800002002000832c240014
:1016c0001a1307000002be007041800081418000b3
:1016d0000001be000400be00ee1307008045880034
:1016e0009145880090002000a04b88002e29ef0033
:1016f0008400a900ff3ffc008c00a800d1168000e8
:1017000000102000008060000000e00004003200b3
:10171000404c80000000e00001003a008400a80076
:101720000c040700404580005145800018c0b300fc
:101730006011b8003f1307000000e0000100350011
:101740000044eb000804e000060032004045800041
:101750005145800001f0a200f04488000145880056
:10176000040037004045800051458000f044880067
:1017700001458800c0488000d148800018c0b300ef
:1017800002002000632c24002c1307000000e0005e
:1017900001003c000044eb000804e00010003200af
:1017a00010508000e40f50000d003200d044800043
:1017b000e144800080458800914588004000200079
:1017c000105088006000b8004045880051458800ee
:1017d0006000b80060458800714588004800370007
:1017e000c0488000d148800018c0b300020020002b
:1017f000632a24000f1307000000e00001003500f9
:101800000044eb000804e0001e003200c0488000e5
:10181000d148800018c0b30002002000232a240011
:10182000061307000000e00001003c000044eb004c
:101830000804e0001300320010508000e40f500054
:1018400003003200105080000000e0000d003a005c
:10185000f044800001458000d0448800e1448800c5
:10186000d0448000e14480000001be005212070015
:10187000d0448800e14488002000200010508800f7
:101880001f003700c0488000d148800018c0b30056
:101890000200200003f82300e61207000000e00029
:1018a000010035000044eb000804e00014003200a1
:1018b000105080000000e00011003200f044800071
:1018c00001458000d0448800e14488006000b800f1
:1018d00080458800914588006000b800a0458800d8
:1018e000b1458800022aef006000b800404588003a
:1018f000514588006000b800604588007145880047
:10190000804580009145800018c0b3006011b80088
:10191000c81207000000e000010035000044eb00a1
:101920000804e000060032006000b800804588002e
:10193000914588006000b800a0458800b145880046
:10194000d0448000e1448000a2702d0033ba23000f
:10195000191207000002be008045800091458000fa
:1019600018c0b3000001be000400be00b1120700a1
:101970000000e000010035000044eb000804e00036
:1019800007003200d0448000e1448000a2702d00a6
:1019900033ba23000812070080458800914588006b
:1019a0007440800085408000b0408000c1408000cd
:1019b0000001be000400be00361307000002be0096
:1019c000804880009148800018c0b3000001be002c
:1019d0000400be00991207000000e00001003c0076
:1019e0000044eb000804e0001f0032004049800082
:1019f0000000e0001c003200d4448000e544800078
:101a000070408000814080000001be000400be00e4
:101a1000201307000002be00804580009145800031
:101a200018c0b3000001be000400be008112070010
:101a30000000e000010035000044eb000804e00075
:101a400009003200d4448000e544800070408000ea
:101a5000814080000001be000400be000d1307009d
:101a60008045880091458800804980000000e000a2
:101a70000c003a008845800099458000d0438000e2
:101a8000e1438000328429001399230001130700e9
:101a90000001be000800be00c61107008045880096
:101aa000914588008460a9000080fa004f04be00c0
:101ab0004f03be004f02be004f01be004f00be00ec
:101ac0003600f900004006003600f800809fbe0096
:101ad000829fbe00849fbe00869fbe00881f780044
:101ae0000800fa00c8c2a80000002000011024006d
:101af00020079800310798006000b800008fbe00f2
:101b0000804a8000cf80de008a12070018c0b30030
:101b10002e019000be019000481207000000e00076
:101b200001003d000044eb000804e0001100320019
:101b3000e04a8000f14a80002e019000be01900032
:101b4000fa110700e04a8800f14a8800e04a800064
:101b5000f14a8000a04a8800b14a88006000b800bd
:101b6000e04a8800f14a88005029ef004603070048
:101b70000c003700e44a8000f54a8000e04880000d
:101b8000f14880000001be000400be008a11070079
:101b9000e04a8800f14a8800804a80000000e8009e
:101ba000804a8800904a8000cf80de0061120700e2
:101bb00018c0b3002e019000be0190001f12070054
:101bc0000000e00001003d000044eb000804e000dc
:101bd00010003200004b8000114b80002e0190005d
:101be000be019000d1110700004b8800114b880006
:101bf000004b8000114b8000c04a8800d14a880009
:101c00006000b800004b8800114b88005229ef009b
:101c10000c003700044b8000154b8000804880008a
:101c2000914880000001be000400be006211070060
:101c3000004b8800114b8800904a80000000e800ab
:101c4000904a8800a44a8000b54a8000c04a8000bb
:101c5000d14a80000001be000400be008d120700c2
:101c6000008fbe0018c0b3006011b8001e00be0097
:101c7000f01107000000e000010035000044eb0017
:101c80000804e000030032001e00be0001f0a200c4
:101c9000008fbe00c0478000d147800018c0b3004d
:101ca0000001be001e00be00e41107000000e000bd
:101cb00001003c000044eb000804e0000b0032008f
:101cc0001e01be00c2478800d3478800c04a80007a
:101cd000d14a8000e0478800f1478800a04a800090
:101ce000b14a80000048880011488800e048800020
:101cf000f148800018c0b300f226210033b0230061
:101d0000ce1107000000e00001003c000044eb00a1
:101d10000804e0000b003a00e0488000f148800031
:101d200018c0b300f226210033b02b00c111070008
:101d30000000e000010035000044eb000804e00072
:101d400084003200744f8000854f8000e04880009e
:101d5000f14880000001be000400be004d120700e3
:101d60000002be0060458000714580000001be0099
:101d70000400be001011070060458800714588000e
:101d8000744f8000854f8000e0488000f14880005b
:101d90000001be000400be003e1207000002be00ab
:101da000a0458000b14580000001be000400be00d7
:101db00001110700a0458800b145880060458000fa
:101dc0007145800018c0b300f226210033a823001b
:101dd0009a1107000000e00001003c000044eb0005
:101de0000804e0000f00320060458000714580006b
:101df000f226210033a82300ee100700604588007a
:101e0000714588004045800051458000f226210040
:101e100033a82300e810070040458800514588009a
:101e200019003700604580007145800018c0b3007c
:101e3000f226210033a82b007e1107000000e000ed
:101e4000010035000044eb000804e0000e00320001
:101e50006045800071458000f226210033a82300f0
:101e6000d510070060458800714588004045800016
:101e700051458000f226210033a82300cd10070031
:101e80004045880051458800a0458000b14580004c
:101e900018c0b300f226210033a823006711070001
:101ea0000000e00001003c000044eb000804e000fa
:101eb0000f003200a0458000b1458000f2262100cd
:101ec00033a82300bb100700a0458800b145880057
:101ed0008045800091458000f226210033a8230030
:101ee000b51007008045880091458800190037002b
:101ef000a0458000b145800018c0b300f226210043
:101f000033a82b004b1107000000e0000100350052
:101f10000044eb000804e0000e003200a045800001
:101f2000b1458000f226210033a82300a21007004b
:101f3000a0458800b145880080458000914580001b
:101f4000f226210033a823009a100700804588005c
:101f50009145880084c0a9000080fa004f047800f1
:101f60004f03be004f02be004f01be004f00be0037
:101f70003600f900004006003600f800809fbe00e1
:101f8000829fbe00849fbe00869fbe000000fa00b4
:101f9000c8c2a800c0002000680807000080fa003e
:101fa0004f03be004f02be004f01be004f00be00f7
:101fb0003600f900004006003600f800809fbe00a1
:101fc000829fbe00849fbe00869fbe000000fa0074
:101fd000113a800000022000008060000000e00054
:101fe00005003a00d04b80000000e00002003a00fb
:101ff0002001200051080700c8c2a800d04b800073
:102000000000e00002003a00d00020004b0807006a
:1020100010002000d04b88008020a9000080fa002a
:102020004f03be004f02be004f01be004f00be0076
:102030003600f900004006003600f800809fbe0020
:10204000829fbe00849fbe00869fbe000000fa00f3
:10205000c8c2a8005f09070010002000504b88008c
:10206000e0002000350807008060a9000080fa0029
:102070004f03be004f02be004f01be004f00be0026
:102080003600f900004006003600f800809fbe00d0
:10209000829fbe00849fbe00869fbe000000fa00a3
:1020a000c8c2a8004b09070010002000504b880050
:1020b000f0002000210807008040a9000080fa00fd
:1020c0004f03be004f02be004f01be004f00be00d6
:1020d0003600f900004006003600f800809fbe0080
:1020e000829fbe00849fbe00869fbe000000fa0053
:1020f000c8c2a8003709070010002000504b880014
:10210000000120000d0807008080a9000080fa006f
:102110004f03be004f02be004f01be004f00be0085
:102120003600f900004006003600f800809fbe002f
:10213000829fbe00849fbe00869fbe000000fa0002
:10214000c8c2a8002309070010002000504b8800d7
:1021500010012000f90707000080fa004f03be00bd
:102160004f02be004f01be004f00be003600f90016
:10217000004006000400fa00100798000000eb0081
:10218000000f7800180037001e0090001e0040006d
:102190007d0b070000000000013b800000002800cc
:1021a000008060000000e000fbff3a001e007800a5
:1021b00080004000008020000080400090007800f7
:1021c0001e0090001e004000900b07000000000061
:1021d000013b800000002800008060000000e0005b
:1021e000fbff3a001e0fe800614c80002000200039
:1021f00000017800110009008200d8009e0f5000f5
:10220000e1ff3d001e0078000080fa00000006009b
:102210000400fa00100798000000eb00000f78009f
:102220000a0037001e0090001e0040009d0b0700b2
:10223000800078001e00780000014000008020002f
:1022400000004100010878001e0fe800614c80008a
:102250002000200000017800110009008200d80051
:102260009e0f5000efff3d000080fa0000000600c6
:102270000400fa00100798000000eb00000f78003f
:10228000200037001e0090001e0040003e0b07009b
:1022900000000000013b800000002800008060007a
:1022a0000000e000fbff3a001e0078000000e000a4
:1022b00005003a001e0090001e0040004165270006
:1022c000520b0700090037001e0078008000400014
:1022d0002088200000804000900078001e009000c0
:1022e0001e004000490b070000000000013b800079
:1022f00000002800008060000000e000fbff3a00c2
:102300001e0fe800714c80002000200000017800c2
:10231000110009008200d8009e0f5000d9ff3d0037
:102320001e0078000080fa00000006000400fa0099
:10233000100798000000eb00000f78000a0037003b
:102340001e0090001e004000560b07008000780021
:102350001e0078000001400020882000000041009d
:10236000010878001e0fe800714c8000200020005a
:1023700000017800110009008200d8009e0f500073
:10238000efff3d000080fa00000006000400fa00a4
:102390000000eb00000f78000000eb001007980031
:1023a00000802000000f78000088200010079800af
:1023b0001e0090001e0050000080fa000000060081
:1023c0000400fa000000eb00000f78000000eb00b2
:1023d0001007980020882000000f7800808b2000d4
:1023e000100798001e0090001e0050000080fa00a8
:1023f000000006000000fa00c0488000d1488000bc
:102400002045880031458800614c80002000200074
:1024100000017800110009008200d8000000e800e7
:1024200093ff0700d442a9000080fa0000000600d4
:102430000000fa0003003700c04b80000000e800f5
:10244000c04b8800c04b8000e30f4000faff36000d
:10245000614f800050a52a00808f500001003a0093
:102460008900070050a52a00604f88000080fa000c
:10247000000006000000fa00d116800000102000c5
:10248000008060000000e0000d003a0000178000ae
:10249000620060000000e000090032007049800026
:1024a000e10f500006003200604b8000e10f500049
:1024b00003003200804b8000e10f500023003a00ff
:1024c0001000200090498800304c80000000e0009f
:1024d00004003200204c800065004000204c880041
:1024e0008629ef00904b8000e10f500003003a0076
:1024f0006a29ef007a29ef007229ef00504b800023
:102500000000e00007003a00100020008049880029
:10251000a04980000000e00019003a00e80d070023
:102520001a0037002b0807003029ef009629ef002a
:102530009429ef009229ef00b04980000000e000ec
:1025400011003a00a80e070010003700100020000c
:10255000304c88001f0807003229ef003029ef00b7
:102560009629ef009429ef009229ef00b0498000ee
:102570000000e00005003a009b0e07000300370052
:102580000000000001003700000000000080fa0099
:10259000000006000000fa0000148000e30f400075
:1025a00003003600d0012000e4060700fe07070004
:1025b00000148000e10f500003003e00e001200005
:1025c000de060700f807070010148000e30f400044
:1025d00003003600f0012000d8060700f2070700cc
:1025e00010148000e10f500003003e0000022000a4
:1025f000d2060700ec07070020148000e30f40001c
:102600000400360010022000cc0607005000200015
:10261000a047880020148000e10f500004003e0015
:1026200020022000c506070050002000a0478800b7
:1026300030148000e30f400002003600300220001a
:10264000be06070030148000e10f500002003e007b
:1026500040022000b906070040148000e30f40004c
:102660000200360050022000b4060700401480002b
:10267000e10f500002003e0060022000af0607009c
:102680000080fa00000006000000fa00003a800016
:10269000620060000000e000030032004027a90053
:1026a00030012000a5060700003a8000700060009d
:1026b0000000e000030032004087a9004001200034
:1026c0009e060700013a800000002800008060009c
:1026d0000000e0000300320041e7a90050012000a3
:1026e00096060700013a8000000024000080600088
:1026f0000000e0000300320041c7a9006001200093
:102700008e060700013a800000082000008060006b
:102710000000e0000300320040e7a9007001200043
:1027200086060700013a8000000420000080600057
:102730000000e0000300320040c7a9008001200033
:102740007e060700900120007c0607000080fa004a
:10275000000006000000fa00889fbe00d040800004
:10276000e14080000200200003002400910e0700d9
:102770000002be00804880009148800018c0b3006d
:102780000001be000400be002c0f07000000e000a6
:1027900001003d000044eb000804e00004003200aa
:1027a0006000b800c0488800d14888003300370076
:1027b000e0488000f148800018c0b300d2cc2c0063
:1027c000c3d423001b0f07000000e0000100350008
:1027d0000044eb000804e00028003200e0488000dc
:1027e000f148800018c0b300d2cc2c00c3d42b0019
:1027f000120f07000000e00001003c000044eb0065
:102800000804e0001d0032008048800091488000ec
:10281000a0488800b1488800a4488000b5488000de
:10282000d0408000e14080000001be000400be00f6
:10283000600e07000004be00b4408000c540800068
:10284000d0408000e14080000001be000400be00d6
:10285000580e07000001be000800be00b30e0700be
:1028600002002000832c24008a0f0700c048880043
:10287000d148880010002000004988004f04be00a5
:102880000080fa00000006000400fa006000b800b2
:10289000008fbe00a04a8000b14a800001f0a20073
:1028a000008fbe00404b8000e40f50000f003a0044
:1028b000d0438000e14380000001be001e00be0046
:1028c0003c0e070080478800914788005000200098
:1028d000404b8800a0478000e50f50000200320006
:1028e00010002000a04788002e29ef00404b8000f8
:1028f000e10f500008003a006000b80080478800ef
:10290000914788003307070040002000404b8800b3
:1029100010002000704988000080fa0000000600c6
:102920002000fa00881f78006000b800008fbe0009
:102930006000b80020079800310798006000b800d8
:1029400040079800510798006000b80060079800a1
:1029500071079800e2488000f34880004207980021
:1029600053079800e2488000f3488000620798000f
:10297000730798000000200001f82300f04688004b
:10298000014788002448800035488000d0428000fc
:10299000e142800018c0b3000001be000400be0088
:1029a000a60e07000000e00001003c000044eb0020
:1029b0000804e0000d003a002448800035488000fb
:1029c00090428000a142800018c0b3000001be0008
:1029d0000400be00970e07000000e0000100350073
:1029e0000044eb000804e00004003200d0cc2c00ce
:1029f000c1f42300f0468800014788002448800085
:102a000035488000704280008142800018c0b300c9
:102a10000001be000400be00860e07000000e000ba
:102a2000010035000044eb000804e000040032001f
:102a30000000200001f02300f046880001478800d4
:102a40001441800025418000804580009145800030
:102a50000001be000400be000e0f07000002be0011
:102a6000f0468000014780000001be000400be0067
:102a7000080f0700008fbe003041800041418000f8
:102a800018c0b3000001be001e00be00690e0700a2
:102a90000000e000010035000044eb000804e00005
:102aa0000d003a00244880003548800070428000c4
:102ab0008142800018c0b3000001be000400be00c7
:102ac0005c0e07000000e000010035000044eb0050
:102ad0000804e000030032003241800043418000de
:102ae000028fbe0018c0b3006011b8004e00900005
:102af000de0090004f0e07000000e00001003500ee
:102b00000044eb000804e000060032004e00900094
:102b1000de00900001f0a2004007980051079800e5
:102b2000030037006000b800400798005107980084
:102b30000000200001f82300f046880001478800cb
:102b400024488000354880003042800041428000a7
:102b500018c0b3000001be000400be00370e07001d
:102b60000000e00001003c000044eb000804e0002d
:102b70000d003a002448800035488000f041800074
:102b80000142800018c0b3000001be000400be0076
:102b9000280e07000000e000010035000044eb00b3
:102ba0000804e00004003200d0cc2c00c1f4230063
:102bb000f04688000147880054418000654180004c
:102bc00070418000814180000001be000400be0011
:102bd000b00e07000002be00f046800001478000f2
:102be0000001be000400be00aa0e070020079800e6
:102bf000310798002448800035488000104280004a
:102c00002142800018c0b3000001be000400be00d5
:102c10000a0e07000000e00001003c000044eb0049
:102c20000804e0000d003a00244880003548800088
:102c3000d0418000e141800018c0b3000001be0017
:102c40000400be00fb0d07000000e000010035009d
:102c50000044eb000804e000030032006000b8000c
:102c6000200798003107980018c0b3006011b80021
:102c70006e009000fe009000ee0d07000000e000e6
:102c8000010035000044eb000804e00003003200be
:102c90006000b80060079800710798007029ef0085
:102ca000d116800000102000008060000000e000cd
:102cb00005013200a04b8000e90f500002013a00ec
:102cc000c882a8006000b800200f9800310f98005b
:102cd00030478000414780000200200003f02300bd
:102ce000340d0700200f9800310f9800b14b800081
:102cf000f0e12400808f500019003c006011b80002
:102d00006e009000fe009000ca0d07000000e00079
:102d100013003a0000178000620060000000e0002d
:102d20000f003200804880009148800018c0b30036
:102d30002e099000be099000be0d07000000e000c3
:102d4000010035000044eb000804e00004003200fc
:102d5000b04b80000000e800b04b88001400370042
:102d6000b14b8000f0e12400808f50000a00340055
:102d700000178000620060000000e00006003200e2
:102d8000b0012000ed04070010002000504b880027
:102d90007629ef0006003700b04b80000000e0000d
:102da00003003400b04b80000000e900b04b880005
:102db00018c0b300a2702d0033c223006e00900033
:102dc000fe0090009d0d07000000e00001003c00a7
:102dd0000044eb000804e00011003a003047800096
:102de00041478000a299290093e12300f10c0700dc
:102df0000002be00804880009148800018c0b300e7
:102e00000001be000400be008a0d07000000e000c3
:102e1000010034000044eb000804e000040032002c
:102e200050428000614280009d020700240037006c
:102e30006011b8006e009000fe0090007d0d07004c
:102e40000000e00007003a00b04c80000000e00005
:102e500004003400b04c80000000e900b04c880051
:102e600017003700504280006142800002002000bd
:102e700003f02300d00c07000002be0020488000b1
:102e80003148800018c0b3000001be000400be003d
:102e9000680d07000000e000010035000044eb0071
:102ea0000804e00006003200b04c80000000e000a2
:102eb00003003400b04c80000000e900b04c8800f2
:102ec0006000b800000f9800110f98003047800094
:102ed00041478000d2cc2c00c3d42300b60c07009d
:102ee0000002be00804880009148800018c0b300f6
:102ef0000001be000400be004e0d07000000e0000f
:102f0000010035000044eb000804e000020032003c
:102f1000f628ef001300370030478000414780005b
:102f2000d2cc2c00c3d42300a20c07000002be00a8
:102f3000804880009148800018c0b3000001be00a6
:102f40000400be003d0d07000000e00001003c0051
:102f50000044eb000804e0000200320010002000f2
:102f6000b0478800b04780000000e0000500320054
:102f70002e019000be019000020f9800130f9800e0
:102f8000030037006000b800000f9800110f980090
:102f9000b0408000c1408000a2702d0033c22300e9
:102fa000840c07000002be00804880009148800029
:102fb00018c0b3000001be000400be001d0d0700d4
:102fc0000000e000010034000044eb000804e000d1
:102fd0000e003a00a2702d0033c223000e089000ac
:102fe0009e089000740c070018c0b3006e0190009a
:102ff000fe0190000f0d07000000e0000100350009
:103000000044eb000804e00007003200a04c800000
:103010000000e00027003400a04c80000000e90020
:10302000a04c880023003700b0408000c1408000e1
:1030300092c22500f3d823005e0c07000002be00f8
:10304000804880009148800018c0b3000001be0095
:103050000400be00f90c07000000e00001003c0085
:103060000044eb000804e0000b003a0018c0b30075
:103070000e0990009e0990006e009000fe009000e6
:10308000ec0c07000000e000010035000044eb00fc
:103090000804e00007003200a14c80004006200038
:1030a000808f500003003c00a04c80000000e8002e
:1030b000a04c8800a0478000e20f500006003a00b4
:1030c0009429ef0005003700c882a9009429ef0079
:1030d0007629ef0001003700000000000017800093
:1030e000620060000000e00003003200604b8000de
:1030f000e10f500081013a00a04b8000e90f500021
:103100000400320001508000f05f2500808f5000e5
:103110007a013a00d462a800d11680000010200085
:10312000008060000000e00003003a00f0428000f0
:1031300001438000da010700e04b80000000e0005e
:103140007c003200b0428000c142800002002000ba
:1031500003f82300180c07000002be00204880007e
:103160003148800018c0b3000001be000400be005a
:10317000b00c07000000e000010035000044eb0047
:103180000804e0002c003a00d0408000e1408000bc
:103190000200200003f82300060c07000002be0016
:1031a000804880009148800018c0b3000001be0034
:1031b0000400be00a10c07000000e00001003c007c
:1031c0000044eb000804e0001b003a00d2cc2c00c5
:1031d000c3e423001e00be00f70b070018c0b300b5
:1031e0004e019000de019000920c07000000e0000c
:1031f000010035000044eb000804e0000e003a0036
:10320000b0418000c1418000d2cc2c00c3dc23003f
:10321000e80b070018c0b3004e019000de019000db
:10322000840c07000000e000010035000044eb00c2
:103230000804e00008003200904c80000000e0002c
:1032400003003400904c80000000e900904c88009e
:103250000000000035013700b0428000c14280000c
:103260000200200003f82300d20b07000002be007a
:10327000204880003148800018c0b3000001be0023
:103280000400be006d0c07000000e00001003c00df
:103290000044eb000804e0001d013200d040800033
:1032a000e14080000200200003f82300c20b070069
:1032b0000002be00804880009148800018c0b30022
:1032c0000001be000400be005a0c07000000e00030
:1032d000010035000044eb000804e0000e0132005c
:1032e000d2cc2c00c3e423001e00be00b10b0700ab
:1032f00018c0b3004e019000de0190004f0c070093
:103300000000e00001003c000044eb000804e00085
:1033100003013200914c8000e0052000808f5000b6
:1033200001013c00904c80000000e800904c8800b7
:10333000fe00370001508000f05f2500808f5000b4
:1033400003003a00804c8000904c8800f700370062
:103350006000b800400f9800510f9800244880008a
:1033600035488000b0428000c14280000001be00ac
:103370000400be008f0b0700400f9800510f98000b
:10338000d04f8000e14f80004e099000de09900090
:10339000c00c07000002be0030468000414680009d
:1033a0000001be000400be00ba0c07000002be000f
:1033b000b0468000c14680000001be000400be008f
:1033c0007d0b0700b0468800c1468800b4468000e7
:1033d000c5468000b0408000c140800018c0b300e6
:1033e0000001be000400be00140c07000000e00055
:1033f00001003c000044eb000804e000050032003e
:10340000b0408000c1408000b0468800c1468800be
:1034100011003700b4468000c5468000d0408000cf
:10342000e140800018c0b3000001be000400be00ef
:10343000000c07000000e000010035000044eb0034
:103440000804e00004003200d0408000e140800029
:10345000b0468800c14688006000b800600f980040
:10346000710f98008448800095488000b046800025
:10347000c14680000001be000400be004d0b0700e5
:10348000600f9800710f9800b04f8000c14f80000e
:103490006e099000fe0990007e0c07000002be003d
:1034a00030468000414680000001be000400be009e
:1034b000780c07000002be0090468000a146800004
:1034c0000001be000400be003b0b070090468800d0
:1034d000a146880090468000a146800018c0b30035
:1034e0001e01be00d50b07000000e00001003c00fb
:1034f0000044eb000804e000040032001e01be009e
:1035000092468800a34688000d0037009046800050
:10351000a146800018c0b3006011b800c50b0700b9
:103520000000e000010035000044eb000804e0006a
:10353000030032006000b80090468800a146880071
:1035400094468000a5468000b0418000c1418000c3
:1035500018c0b3000001be000400be00b70b070096
:103560000000e00001003c000044eb000804e00023
:1035700004003200b0418000c141800090468800c4
:10358000a146880090468000a14680004e01900030
:10359000de019000070b07000002be00904f800084
:1035a000a14f80000001be000400be00390c0700de
:1035b0005046880061468800504680006146800081
:1035c00018c0b30002002400c36124009b0b070055
:1035d0000000e00001003c000044eb000804e000b3
:1035e0000500320000002400c1612400504688001c
:1035f000614688000f003700504680006146800019
:1036000018c0b30002002400c3612c00890b07001e
:103610000000e000010035000044eb000804e00079
:103620000400320000002400c1612c0050468800d4
:103630006146880034468000454680005046800040
:10364000614680000001be000400be00110c0700ae
:103650000002be0070468000814680000001be006e
:103660000400be00d40a0700704688008146880026
:10367000704680008146800018c0b3000200200020
:10368000e32b24006d0b07000000e00001003c006c
:103690000044eb000804e0000500320000002000b8
:1036a000e12b240070468800814688000d00370019
:1036b000704680008146800018c0b3006011b800d9
:1036c0005c0b07000000e000010035000044eb0047
:1036d0000804e000030032006000b8007046880073
:1036e000814688007046800081468000550b0700a7
:1036f00000007800904c88000c0037009229ef0001
:103700006000b800704688008146880007003700d6
:103710000000000005003700000000000300370033
:103720000000000001003700000000008049800018
:103730000000e00003003200504b8000e10f500019
:1037400001003a009629ef00b04c8000b00e8800ce
:10375000a04c8000c00e8800904c8000d00e8800e5
:10376000504b8000e10f500001003a009903070020
:103770004f0478000080fa00000006001a00fa00ea
:10378000881f78006000b800200798003107980073
:10379000f026210031a82300400798005107980027
:1037a0006000b800008fbe0000002000812c2400c3
:1037b00060079800710798000000eb00000f980068
:1037c0006000b800100f9800210f98006000b8004a
:1037d000300f9800410f98003e099000ce099000ec
:1037e0001e089000ae089000720a0700200798009b
:1037f000310798006e019000fe0190002e009000ad
:10380000be009000a30b07004e019000de01900067
:10381000a00b07000001be001e00be00660a0700e4
:10382000008fbe0018c0b30002f02f00f377240011
:103830001e00be00010b07000000e00001003c007c
:103840000044eb000804e0000400320000f02f0008
:10385000f1772400008fbe000b00370018c0b300c2
:103860006011b8001e00be00f20a07000000e00070
:10387000010035000044eb000804e00002003200c3
:103880006000b800008fbe001e00be00ed0a0700f9
:10389000000f98004f0478000080fa000000060036
:1038a0000400fa00881f7800008fbe00a047800047
:1038b000e30f50002e003a000200200003f0230026
:1038c0001e00be003b0a07000002be002048800028
:1038d0003148800018c0b3000001be000400be00e3
:1038e000d60a07000000e00001003c000044eb00a5
:1038f0000804e00008003200b14c800070478000ee
:10390000808f500004003d00b04c80000000e800b3
:10391000b04c8800160037000200200003f023009e
:103920001e00be00240a07000002be0020488000de
:103930003148800018c0b3000001be000400be0082
:10394000bc0a07000000e000010035000044eb0065
:103950000804e00006003200b04c80000000e000e7
:1039600003003400b04c80000000e900b04c880037
:103970004f0478000080fa00000006000600fa00fc
:1039800010079800210798000000eb00000f780056
:10399000c0448000ea0f5000040034002e01900063
:1039a00061552b00300020007f060700c0448000d6
:1039b0000000e000da013a002e019000e1572b00f0
:1039c0003000200078060700da0137001e0078007a
:1039d00080004000408820000080400010007800f7
:1039e000e10f500005003a002e01900081592b0094
:1039f000100020006c060700c70137001e00780089
:103a000080004000408820000080400010007800c6
:103a1000e20f500005003a002e019000f15a2b00f1
:103a20001000200060060700bb0137001e00780070
:103a30008000400040882000008040001000780096
:103a4000e30f500005003a002e019000315c2b007e
:103a50001000200054060700af0137001e00780058
:103a60008000400040882000008040001000780066
:103a7000e40f500005003a002e019000a15d2b00dc
:103a80001000200048060700a30137001e00780040
:103a90008000400040882000008040001000780036
:103aa000e50f500005003a002e019000015f2b0049
:103ab000100020003c060700970137001e00780028
:103ac0008000400040882000008040001000780006
:103ad000e60f500005003a002e01900081602b0097
:103ae00010002000300607008b0137001e00780010
:103af00080004000408820000080400010007800d6
:103b0000e70f500005003a002e019000d1612b0014
:103b100010002000240607007f0137001e007800f7
:103b200080004000408820000080400010007800a5
:103b3000e80f500005003a002e01900031632b0081
:103b40001000200018060700730137001e007800df
:103b50008000400040882000008040001000780075
:103b6000e90f500005003a002e01900061642b001f
:103b7000100020000c060700670137001e007800c7
:103b80008000400040882000008040001000780045
:103b9000ea0f500005003a002e01900021662b002c
:103ba00010002000000607005b0137001e007800af
:103bb0008000400040882000008040001000780015
:103bc000eb0f500005003a002e01900051682b00c9
:103bd00010002000f40507004f0137001e00780098
:103be00080004000408820000080400010007800e5
:103bf000ec0f500005003a002e01900051692b0097
:103c000010002000e8050700430137001e0078007f
:103c100080004000408820000080400010007800b4
:103c2000ed0f500005003a002e019000c16a2b00f4
:103c300010002000dc050700370137001e00780067
:103c40008000400040882000008040001000780084
:103c5000ee0f500005003a002e019000916c2b00f1
:103c600010002000d00507002b0137001e0078004f
:103c70008000400040882000008040001000780054
:103c8000ef0f500005003a002e019000416e2b000e
:103c900010002000c40507001f0137001e00780037
:103ca0008000400040882000008040001000780024
:103cb000f00f500005003a002e019000d16f2b004c
:103cc00010002000b8050700130137001e0078001f
:103cd00080004000408820000080400010007800f4
:103ce000f10f500005003a002e01900051712b0099
:103cf00010002000ac050700070137001e00780007
:103d000080004000408820000080400010007800c3
:103d1000f20f500005003a002e01900021732b0095
:103d200010002000a0050700fb0037001e007800ef
:103d30008000400040882000008040001000780093
:103d4000f30f500005003a002e01900091742b00f3
:103d50001000200094050700ef0037001e007800d7
:103d60008000400040882000008040001000780063
:103d7000f40f500005003a002e01900011762b0040
:103d80001000200088050700e30037001e007800bf
:103d90008000400040882000008040001000780033
:103da000f50f500005003a002e01900091772b008e
:103db000100020007c050700d70037001e007800a7
:103dc0008000400040882000008040001000780003
:103dd000f60f500005003a002e01900051792b009b
:103de0001000200070050700cb0037001e0078008f
:103df00080004000408820000080400010007800d3
:103e0000f70f500005003a002e019000517d2b0065
:103e10001000200064050700bf0037001e00780076
:103e200080004000408820000080400010007800a2
:103e3000f80f500005003a002e019000217f2b0062
:103e40001000200058050700b30037001e0078005e
:103e50008000400040882000008040001000780072
:103e6000f90f500005003a002e01900021812b002f
:103e7000100020004c050700a70037001e00780046
:103e80008000400040882000008040001000780042
:103e9000fa0f500005003a002e019000e1812b003e
:103ea00010002000400507009b0037001e0078002e
:103eb0008000400040882000008040001000780012
:103ec000fb0f500005003a002e01900031832b00bb
:103ed00010002000340507008f0037001e00780016
:103ee00080004000408820000080400010007800e2
:103ef000fc0f500005003a002e019000c1842b00f9
:103f00001000200028050700830037001e007800fd
:103f100080004000408820000080400010007800b1
:103f2000fd0f500005003a002e019000b1872b00d4
:103f3000100020001c050700770037001e007800e5
:103f40008000400040882000008040001000780081
:103f5000fe0f500005003a002e019000b1892b00a1
:103f600010002000100507006b0037001e007800cd
:103f70008000400040882000008040001000780051
:103f8000ff0f500005003a002e019000a18b2b007e
:103f900010002000040507005f0037001e007800b5
:103fa00080004000408820000080400090007800a1
:103fb00000022000808f500005003a002e01900082
:103fc000a18d2b0010002000f704070052003700dd
:103fd0001e007800800040004088200000804000e3
:103fe0009000780010022000808f500005003a00f9
:103ff0002e019000918f2b0010002000ea04070092
:10400000450037001e0078008000400040882000f6
:10401000008040009000780020022000808f500037
:1040200005003a002e01900061912b001000200045
:10403000dd040700380037001e00780080004000d3
:10404000408820000080400090007800300220006e
:10405000808f500005003a002e01900021932b0024
:1040600010002000d00407002b0037001e0078004d
:1040700080004000408820000080400090007800d0
:1040800040022000808f500005003a002e01900071
:1040900051952b0010002000c30407001e003700bc
:1040a0001e00780080004000408820000080400012
:1040b0009000780050022000808f500005003a00e8
:1040c0002e01900071972b0010002000b60407000d
:1040d000110037001e00780080004000408820005a
:1040e000008040009000780060022000808f500027
:1040f00005003a002e01900061992b00100020006d
:10410000a9040700040037002e019000419b2b00fa
:1041100010002000a40407001e0fe8000100370073
:1041200000000000c04480009e007800808f500096
:1041300026fe35000080fa00000006000200fa00aa
:10414000000f7800c0448000e90f500009003c00d7
:10415000c044800080004000408820000080400073
:104160001e087800c04480000000e800c0448800b9
:1041700002003700b0002000c04488000080fa0030
:10418000000006000400fa00881f7800a0478000a5
:10419000e20f500057003a0080498000e10f5000c4
:1041a00054003a006000b800008fbe0084488000d0
:1041b00095488000e0488000f14880000001be0082
:1041c0000400be003309070001f0a200008fbe000a
:1041d00090438000a143800018c0b3000001be00de
:1041e0001e00be00930807000000e000010035003b
:1041f0000044eb000804e0003a0032007047800001
:104200000000e8007047880070478000b00e88000a
:1042100071478000f0052000808f500007003400b7
:1042200010002000c5ff070040002000a0478800c4
:10423000120020001e00be00b80407007147800075
:1042400020032000808f50001100340018c0b300fc
:1042500002002000030024001e00be0075080700b5
:104260000000e000010035000044eb000804e0001d
:104270000700320020002000b0ff070040002000af
:10428000a0478800120020001e00be00a304070003
:1042900070478000e40f500016003c0018c0b300c7
:1042a00002002000031224001e00be006308070065
:1042b0000000e00001003c000044eb000804e000c6
:1042c0000c003200300020009cff0700400020005e
:1042d000a0478800120020001e00be008f040700c7
:1042e0000400370030002000a0478800d621ef00ee
:1042f0002e29ef00a0478000e10f50000c003a008b
:10430000404b8000e50f500009003a00d621ef0035
:104310006b060700af0007001000200070498800fe
:10432000ee28ef009629ef0020002000a04788002b
:10433000a0478000e40f500004003a00d621ef00af
:10434000ee28ef009629ef002e29ef004f047800a9
:104350000080fa00000006000000fa00881f7800c4
:10436000844880009548800090408000a1408000f3
:1043700018c0b3000001be000400be002f080700f3
:104380000000e00001003d000044eb000804e000f4
:10439000030032007000200068ff07008200070061
:1043a0008448800095488000f040800001418000f2
:1043b00018c0b3000001be000400be001d080700c5
:1043c0000000e000010035000044eb000804e000bc
:1043d00008003200d116800000102000008060002c
:1043e0000000e00003003a004000200053ff0700f7
:1043f0000e070700e0488000f148800018c0b300b5
:104400006011b8000b0807000000e0000100350053
:104410000044eb000804e00006003200e0488000a1
:10442000f148800001f0a20020498800314988004d
:10443000030037006000b800204988003149880037
:10444000244980003549800090418000a1418000ce
:1044500018c0b3000001be000400be00f70707004b
:104460000000e00001003c000044eb000804e00014
:104470000a00320010498000e50f500004003400ab
:10448000500020002dff0700470007002229ef0001
:10449000104980000000e80010498800e4488000ce
:1044a000f5488000104780002147800018c0b30005
:1044b0000001be000400be00e00707000000e000ad
:1044c00001003c000044eb000804e000030032005f
:1044d0006000200019ff0700330007002448800017
:1044e00035488000104380002143800018c0b3008d
:1044f0000001be000400be00d00707000000e0007d
:1045000001003c000044eb000804e000030032001e
:104510008000200009ff0700230007006448800096
:1045200075488000304380004143800018c0b300cc
:104530000001be000400be00c00707000000e0004c
:1045400001003c000044eb000804e00003003200de
:1045500090002000f9fe0700130007004448800087
:1045600055488000304380004143800018c0b300ac
:104570000001be000400be00b00707000000e0001c
:1045800001003c000044eb000804e000030032009e
:10459000a0002000e9fe0700030007004f04780098
:1045a0000080fa00000006000000fa000900070081
:1045b00010002000504b88006c29ef002e29ef00de
:1045c0007029ef00b0002000dcfe07000080fa0038
:1045d000000006000000fa00d462a900d621ef0016
:1045e000d821ef00da21ef00e002a900e0c2a90023
:1045f000cfe2a9009629ef009429ef009229ef005d
:104600006000b80090468800a14688006000b800ad
:1046100070468800814688000080fa00000006008d
:104620000200fa00000f78001e017800819c2b0028
:10463000300020005c030700804880009148800023
:104640001e017800b50307001e017800119d2b00a4
:104650000000eb00540307001e017800319d2b0081
:104660003000200050030700a0488000b1488000bf
:104670001e017800a90307001e017800119d2b0080
:104680000000eb00480307001e017800c19d2b00cd
:10469000300020004403070030478000414780007d
:1046a0001e0178009d0307001e017800119d2b005c
:1046b0000000eb003c0307001e017800619e2b0008
:1046c0003000200038030700a04a8000b14a800073
:1046d0001e017800910307001e017800c19e2b0087
:1046e0000000eb00300307001e017800e19e2b0064
:1046f000300020002c030700404580005145800019
:104700001e017800850307001e017800819f2b00a1
:104710000000eb00240307001e017800b19f2b006e
:104720003000200020030700c0478000d1478000f0
:104730001e017800790307001e01780031a02b00cc
:104740000000eb0018030700e0478000f1478000fd
:104750001e017800710307001e017800a1a02b0044
:104760000000eb00100307000048800011488000a3
:104770001e017800690307001e017800c19e2b000e
:104780000000eb00080307001e01780021a12b00a8
:1047900030002000040307002048800031488000da
:1047a0001e0178005d0307001e017800d1a12b00d7
:1047b0000000eb00fc0207001e017800f1a12b00b5
:1047c00030002000f8020700604880007148800037
:1047d0001e017800510307001e017800d1a12b00b3
:1047e0000000eb00f00207001e017800a1a22b00e0
:1047f00030002000ec020700404880005148800053
:104800001e017800450307001e017800d1a12b008e
:104810000000eb00e40207001e01780031a32b002a
:1048200030002000e00207008047800091478000b0
:104830001e017800390307001e017800c19e2b007d
:104840000000eb00d80207001e017800e1a32b0056
:1048500020002000d40207000080fa0000000600bb
:104860000000fa0031048000002020000080600079
:104870000000e0000f003a00f04b80000000e00074
:104880000c003a00c0c0b300bae9b70020c1b300c1
:10489000bbe9b700e0c0b300bce9b700b829ef003e
:1048a00020002000b04d88008720a80010002000c4
:1048b000f04b88000080fa00000006000400fa00b7
:1048c000881f7800310480000020200000806000f4
:1048d0000000e000ad003a00f04b8000e10f500016
:1048e000aa003a00b829ef00c14d8000a09b20002b
:1048f0000080400061c1b300014878001000200032
:10490000c04d88008048800091488000320020001f
:104910000203070060002000c04d88003200200024
:1049200001a42b000000eb009f0207008000200084
:10493000c04d880010002000604d8800c44a8000ef
:10494000d54a8000a04a8000b14a80000001be0024
:104950000400be004f07070032002000ef020700ee
:10496000d0002000c04d88003200200031a42b0070
:104970000000eb008c020700f0002000c04d880012
:104980006000b800008fbe0084458000954580001f
:10499000d0448000e14480000001be000400be005d
:1049a0006206070002002000832c2400390707005c
:1049b000008fbe0018c0b30002002000832c24002a
:1049c0001e00be009d0607000000e00001003d0043
:1049d0000044eb000804e0000e003200320020002a
:1049e000e1a32b000000eb006f0207003200200063
:1049f0001e00be00c902070040012000c04d880013
:104a00003200200061a42b000000eb0066020700ca
:104a100009003700320020001e00be00bf02070060
:104a200040012000c04d88003200200061a42b000e
:104a30000000eb005c02070050012000c04d880020
:104a4000300020009b03070030002000cb0307004c
:104a500070012000c04d88003200200081a42b008e
:104a60000000eb005002070090012000c04d8800bc
:104a7000ac29ef002048800031488000320020003f
:104a8000a6020700e0012000c04d8800320020008f
:104a9000c1a42b000000eb0043020700000220002d
:104aa000c04d880018c0b30002002000031224008b
:104ab0001e00be005f0607000000e0000100350098
:104ac0000044eb000804e0000d003200704b800051
:104ad0000000e000050032003200200011a52b008c
:104ae0000000eb0030020700090037003200200010
:104af000d1a52b000000eb002b02070004003700bb
:104b000032002000d1a52b000000eb002602070098
:104b1000a0022000c04d8800c04480000000e000da
:104b20000d003200704b80000000e00005003200f4
:104b30003200200091a62b000000eb001a020700b3
:104b40000a00370032002000e1a32b000000eb0038
:104b5000150207000500370032002000e1a32b00fa
:104b60000000eb00100207008029ef0020c1b30015
:104b7000e6e9b700e0c0b300e7e9b700b829ef0005
:104b8000d0022000b04d88008720a8004f04780094
:104b90000080fa00000006000400fa00881f780078
:104ba0003104800000202000008060000000e00050
:104bb000f2003a00f04b8000e10f5000ef003a00a5
:104bc000b829ef00c14d8000a09b2000008040006c
:104bd00061c1b3000148780010002000c04d88007a
:104be0008048800091488000320020004b0207007e
:104bf00060002000c04d88003200200001a42b007e
:104c00000000eb00e801070080002000c04d880094
:104c100010002000604d8800c44a8000d54a800002
:104c2000a04a8000b14a80000001be000400be001e
:104c3000980607003200200038020700d00020004c
:104c4000c04d88003200200031a42b000000eb0092
:104c5000d5010700f0002000c04d88006000b800ba
:104c6000008fbe008445800095458000d0448000c0
:104c7000e14480000001be000400be00ab05070057
:104c800002002000832c240082060700008fbe0053
:104c900018c0b30002002000832c24001e00be00b8
:104ca000e60507000000e00001003d000044eb00c5
:104cb0000804e0000e00320032002000e1a32b00c7
:104cc0000000eb00b8010700320020001e00be000b
:104cd0001202070040012000c04d88003200200071
:104ce00061a42b000000eb00af01070009003700b2
:104cf000320020001e00be00080207004001200014
:104d0000c04d88003200200061a42b000000eb00a1
:104d1000a501070050012000c04d88003000200090
:104d2000e402070030002000140307007001200097
:104d3000c04d8800a04a8000b14a800018c0b3006e
:104d4000d2cc2c00c3dc2300bc0507000000e0002f
:104d500001003c000044eb000804e00005003200c4
:104d600032002000b1a62b000000eb008e010700ee
:104d700014003700a04a8000b14a800018c0b30078
:104d8000d2cc2c00c3dc2b00aa0507000000e000f9
:104d9000010035000044eb000804e000050032008b
:104da0003200200011a72b000000eb007e0107005d
:104db000040037003200200071a72b000000eb0038
:104dc00079010700c0012000c04d8800b04c800070
:104dd0000000e0000500340032002000d1a72b00c5
:104de0000000eb00700107000400370032002000d3
:104df00061a82b000000eb006b01070040022000bf
:104e0000c04d8800c04480000000e0005200320025
:104e1000704b80000000e00021003200c0448000a0
:104e20008000e900004c8000808f500002003c00b0
:104e30008029ef0003003700004c80000000e800ec
:104e4000004c8800c04480008000e900004c8000d5
:104e5000808f500005003a0032002000f1a82b009e
:104e60000000eb005001070023003700004c8000d9
:104e70000000e00005003a003200200071a92b007c
:104e80000000eb00480107001b0037003200200043
:104e9000f1a92b000000eb004301070016003700ca
:104ea000c04480008000e900004c8000808f5000ea
:104eb00005003a0032002000f1a82b000000eb00b2
:104ec000390107000c003700004c80000000e000b2
:104ed00005003a003200200071a92b000000eb0011
:104ee000310107000400370032002000f1a92b0037
:104ef0000000eb002c010700004c80008000400007
:104f0000408820000080400090007800000f2000c2
:104f1000808060000001200000017800110009007d
:104f20008200d800e5000700e3e9b700004c8000ec
:104f30008000400040882000008040001000780081
:104f40006f006000dd000700e4e9b70080c6b30031
:104f5000e5e9b700050037003200200071aa2b00f8
:104f60000000eb00100107008029ef00b829ef00d6
:104f7000b0022000b04d88008720a8004f047800c0
:104f80000080fa00000006000400fa0010079800f4
:104f90000000eb00000f78009e009000f01f200042
:104fa000808f5000020034001000200015003700f0
:104fb0001e00900000004000000f78009e00780066
:104fc00000c02f0000804000000f7800f007200094
:104fd000203b88001e007800103b8800400424001d
:104fe000003b880050052000303b8800a00a2000cc
:104ff000303b8800000000000000000061e7a800ce
:105000000000eb000080fa00000006000600fa0035
:1050100010079800210798000000eb00000f7800af
:105020009e009000f01f2000808f5000020034008e
:1050300010002000190037001e0090000000400002
:10504000000f78009e00780000c02f000080400014
:10505000000f7800f0072000100088009101880000
:105060002e009000200088001e00780000008800bc
:105070000208bb0040002400003b880050052000cf
:10508000303b8800a00a2000303b88000000000070
:105090000000000061e7a8000000eb000080fa00bb
:1050a000000006000400fa00100798000000eb0062
:1050b000000f78009e009000f01f2000808f5000ad
:1050c000020034000000eb000f0037001e009000cb
:1050d00000004000000f78009e00780000c02f0004
:1050e00000804000000f7800f0c7b30032e0b70046
:1050f0001e007800000088001002ba0000000000c6
:1051000000000000400080000080fa00000006005f
:105110000200fa00881f7800000f78001e00780057
:10512000e10f500017003a00004c80008000400062
:10513000408820000080400090007800000f200090
:10514000808060000001200000017800110009004b
:105150008200d800590007000000fb008010880082
:10516000004c80008000400040882000008040000b
:10517000100078006f006000500007000000fb0086
:10518000801088001e007800e20f500017003a00df
:10519000004c8000800040004088200000804000db
:1051a00090007800000f2000808060000001200047
:1051b00000017800110009008200d8003f000700bc
:1051c0000000fb00d0108800004c800080004000f0
:1051d0004088200000804000100078006f006000d0
:1051e000360007000000fb00d01088001e00780089
:1051f000e30f500029003a00c14d8000c00220009a
:10520000808f500003003c00c04d80000000e8008b
:10521000c04d8800c84d8000004c800080004000d8
:10522000408820000080400090007800000f20009f
:10523000808060000001200000017800110009005a
:105240008200d8001d000700a19b200081004400bf
:1052500080487800c14d8000c0022000808f50003f
:1052600003003c00c04d80000000e800c04d8800f5
:10527000c84d8000004c8000800040004088200025
:1052800000804000100078006f0060000b000700f5
:10529000a19b200081004400804878001e00780017
:1052a0000000e00002003a00a0012000a3fb07007c
:1052b0004f0478000080fa00000006000600fa00a3
:1052c000200798000040eb00004f78000000eb0042
:1052d000100798002e0090006f00600010079800e3
:1052e0001e009000e90f500005003c001e009000d9
:1052f000004078000043b000004f78000400370001
:105300001e009000004078007043b000004f78000d
:105310001e4078000080fa00000006000400fa0039
:10532000004f7800110798000100370000000000ce
:105330007110800000202000008060000000e0006c
:1053400006003a001e009000e10f500003003a00f2
:105350001e00fb008010880011003700c110800083
:1053600000202000008060000000e00006003a00fd
:105370001e009000e20f500003003a001e00fb00e8
:10538000d0108800060037001e0090000000e000ea
:10539000e6ff3a00a001200068fb070000000000c3
:1053a0000080fa00000006000800fa0010079800cc
:1053b00021079800320798000000eb00000f7800ea
:1053c0001e009000e10f5000030032001e0090000c
:1053d000e30f50003e003a003e0090003501070008
:1053e0003e009000650107003a0037007110800010
:1053f00000202000008060000000e0000a003a0069
:105400003e009000e10f500007003a001e007800b7
:10541000ae00900000804000104078000000fb00cb
:10542000801088001e0fe800c110800000202000be
:10543000008060000000e0000a003a003e0090009a
:10544000e20f500007003a001e007800ae00900006
:1054500000804000104078000000fb00d010880061
:105460001e0fe8003e009000e30f500010003a00cd
:10547000c14d8000c0022000808f500003003c001e
:10548000c04d80000000e800c04d8800c24d800083
:105490001e007800ae009000008040009040780030
:1054a000a09b200000004100014878001e0fe8008a
:1054b0003e0090000000e00006003a00a00120003d
:1054c0001efb07000000eb00000f7800070037000c
:1054d000000000001e007800ae0090000080400038
:1054e000104078000004e000c0ff3a001e00900069
:1054f000e20f5000030032001e009000e30f500046
:1055000004003a003e009000ea0007003e009000d0
:105510001a0107000080fa00000006001000fa00df
:10552000881f78005007980061079800720798005c
:105530000000eb00000f78006000b8001007980032
:10554000210798000000eb004007980000c2b3005c
:10555000aee9b70018c0b3006011b8005e0090005b
:10556000ee009000b30307000000e00001003500ea
:105570000044eb000804e000070032005e009000e9
:10558000ee00900001f0a20050079800610798001b
:10559000d0c2b300aee9b70018c0b300f2ff2300d9
:1055a000c36124005e009000ee009000a30307009a
:1055b0000000e00001003c000044eb000804e000b3
:1055c00006003200f0ff2300c1612400500798005c
:1055d00061079800f0c3b300aee9b70002002000f5
:1055e000a34724005e009000ee0090004f030700e8
:1055f00010079800210798001e0fe8001e003700d2
:105600001e007800e50f500003003a00e0c2b3002e
:10561000b3e9b7001e0fe8001e009000ae00900036
:1056200088030700400798004e0090000040780073
:105630000043b00080407800e09a20001e00400047
:10564000014878001e0fe8004e009000cf80de0079
:10565000b80307000001be001e009000ae009000dd
:10566000d4020700020020000312240009040700ee
:1056700010079800210798001e007800e80f5000de
:10568000dfff34000000eb00000f78001000200066
:105690003007980080003700e09a20001e0040008c
:1056a0009040780000c3b30080cf50002f003a0034
:1056b0003e0090000000e0002c003200604d8000b1
:1056c0000000e00027003200711080000020200060
:1056d000008060000000e00006003a007e009000bc
:1056e000e10f500003003a00000220008010880003
:1056f0001e0fe800c1108000002020000080600024
:105700000000e00006003a007e009000e20f50002a
:1057100003003a0000022000d01088001e0fe800ad
:105720007e009000e30f500046003a00c14d80001b
:10573000c0022000808f500003003c00c04d80005c
:105740000000e800c04d8800c14d8000a09b2000f3
:105750000080400001c2b300014878001e0fe8003d
