:020000040000fa
:080000000001040000000000f3
:020000040000fa
:04000800d22e0000f4
:020000040000fa
:04000c00720b000073
:020000040000fa
:04001000ba0b000027
:020000040000fa
:04001400e20b0000fb
:020000040000fa
:040018000e0c0000ca
:020000040000fa
:04001c00d22e0000e0
:020000040000fa
:04002000d22e0000dc
:020000040000fa
:04002400360c000096
:020000040000fa
:04002800c80100000b
:020000040000fa
:04002c00d22e0000d0
:020000040000fa
:04003000d22e0000cc
:020000040000fa
:04003400460400007e
:020000040000fa
:04003800d22e0000c4
:020000040000fa
:04003c00d22e0000c0
:020000040000fa
:04004000ac07000009
:020000040000fa
:04004400060a0000a8
:020000040000fa
:04004800d22e0000b4
:020000040000fa
:04004c006e0a000038
:020000040000fa
:04005000b20a0000f0
:020000040000fa
:04005400d2010000d5
:020000040000fa
:04005800d22e0000a4
:020000040000fa
:04005c00d22e0000a0
:020000040000fa
:04006000d22e00009c
:020000040000fa
:04006400d22e000098
:020000040000fa
:04006800b0090000db
:020000040000fa
:04006c00d22e000090
:020000040000fa
:04007000d22e00008c
:020000040000fa
:04007400d22e000088
:020000040000fa
:04007800d22e000084
:020000040000fa
:04007c001c0a00005a
:020000040000fa
:04008000660a00000c
:020000040000fa
:04008400d22e000078
:020000040000fa
:04008800900a0000da
:020000040000fa
:04008c00fc0a00006a
:020000040000fa
:04009000d22e00006c
:020000040000fa
:04009400d22e000068
:020000040000fa
:04009800d22e000064
:020000040000fa
:04009c00d22e000060
:020000040000fa
:0400a000d22e00005c
:020000040000fa
:0400a400d22e000058
:020000040000fa
:0400a800d22e000054
:020000040000fa
:0400ac00d22e000050
:020000040000fa
:0400b000d22e00004c
:020000040000fa
:0400b400d22e000048
:020000040000fa
:0400b800d22e000044
:020000040000fa
:0400bc00d22e000040
:020000040000fa
:0400c000d22e00003c
:020000040000fa
:0400c400d22e000038
:020000040000fa
:0400c800d22e000034
:020000040000fa
:0400cc00d22e000030
:020000040000fa
:0400d000d22e00002c
:020000040000fa
:0400d4004a0b0000d3
:020000040000fa
:0400d800d22e000024
:020000040000fa
:04010800d22e0000f3
:020000040000fa
:04010c00d22e0000ef
:020000040000fa
:04011000d22e0000eb
:020000040000fa
:04011400d22e0000e7
:020000040000fa
:04011800d22e0000e3
:020000040000fa
:04011c00d22e0000df
:020000040000fa
:04012000d22e0000db
:020000040000fa
:04012400d22e0000d7
:020000040000fa
:04012800d22e0000d3
:020000040000fa
:04012c00d22e0000cf
:020000040000fa
:04013000d22e0000cb
:020000040000fa
:04013400d22e0000c7
:020000040000fa
:04013800d22e0000c3
:020000040000fa
:04013c00d22e0000bf
:020000040000fa
:04014000d22e0000bb
:020000040000fa
:04014400d22e0000b7
:020000040000fa
:04014800d22e0000b3
:020000040000fa
:04014c00d22e0000af
:020000040000fa
:04015000d22e0000ab
:020000040000fa
:04015400d22e0000a7
:020000040000fa
:04015800d22e0000a3
:020000040000fa
:04015c00d22e00009f
:020000040000fa
:04016000d22e00009b
:020000040000fa
:04016400d22e000097
:020000040000fa
:04016800d22e000093
:020000040000fa
:04016c00d22e00008f
:020000040000fa
:04017000d22e00008b
:020000040000fa
:04017400d22e000087
:020000040000fa
:04017800d22e000083
:020000040000fa
:04017c00d22e00007f
:020000040000fa
:04018000d22e00007b
:020000040000fa
:04018400d22e000077
:020000040000fa
:04018800d22e000073
:020000040000fa
:04018c00d22e00006f
:020000040000fa
:04019000d22e00006b
:020000040000fa
:04019400d22e000067
:020000040000fa
:04019800d22e000063
:020000040000fa
:04019c00d22e00005f
:020000040000fa
:0401a000d22e00005b
:020000040000fa
:0401a400d22e000057
:020000040000fa
:0401a800d22e000053
:020000040000fa
:0401ac00d22e00004f
:020000040000fa
:0401b000d22e00004b
:020000040000fa
:0401b400d22e000047
:020000040000fa
:0401b800d22e000043
:020000040000fa
:0401bc00d22e00003f
:020000040000fa
:0401c000d22e00003b
:020000040000fa
:0401c400d22e000037
:020000040000fa
:0401c800d22e000033
:020000040000fa
:0401cc00d22e00002f
:020000040000fa
:0401d000d22e00002b
:020000040000fa
:0401d400d22e000027
:020000040000fa
:0401d800d22e000023
:020000040000fa
:100200002fae20000ebf20000e018800000000006d
:10021000000020000000e000020032000001200089
:100220002002880014000700e01607000000e0002c
:1002300003003a00805e2300010020000200370026
:100240000000200001002000810f7000010032003a
:1002500014000700000020000000e000020032004f
:1002600000000200000000008e2e020000000000ce
:100270000040da000000fe004440a90040382000a1
:100280000000e0000300320000002000a001880010
:100290004440a800000006008a1f78008b1f7800e9
:1002a0000000060091018800800478000000eb0047
:1002b0001a003700e284440032a0b4009905ba0065
:1002c000e284440032a0b4009906ba00e2844400fb
:1002d00032a0b4000006eb00476fde00fd07b2005d
:1002e000636ce10003003a00ebff07000000eb0045
:1002f0000a003700606ce10004003a00005deb008a
:100300008b05e900fdff3e00040037006168e10055
:10031000010032000086eb000b00070019c7ba008d
:100320001905ba000e04e00003003a000a00e000dc
:10033000e0ff3a0000000600fe07b2009e018800c0
:100340008a047800f5ff3700395dba008b05e900b3
:100350000c003200295dba008b05e900080032006c
:100360000c00e00003003a00e284440032a0b40034
:10037000f5ff370019ddba008b05e900faff3a00f6
:100380008904e800e184440032a0b40000000600c3
:100390000000fa00cac2a8008400a9000080fa0088
:1003a000004006003600f800809fbe00829fbe001d
:1003b000849fbe00869fbe000000fa00cac2a8004b
:1003c00066c9bf00e74f5000d9003400604b800081
:1003d000714b80000200200003102400d216070099
:1003e000604b8800714b8800604b8000714b80002f
:1003f00002002000037024006d160700604b880087
:10040000714b8800604b8000714b8000020020001f
:1004100003702400c4160700604b8800714b8800ed
:10042000604b8000714b800002002000030224001a
:1004300097170700604b8800714b8800604b800065
:10044000714b8000a2702d0033d22300b616070036
:100450000002be00c04a8000d14a80000001be00f8
:100460000400be00531607006049880071498800e7
:10047000f71207006000b800604b8800714b8800dd
:10048000404b8000514b800002c02c00c37c2400f4
:10049000a5160700404b8800514b8800444b800054
:1004a000554b8000404a8000514a80000001be0048
:1004b0000400be009c1607000002be0050408000f1
:1004c000614080000001be000400be003916070034
:1004d000a0488800b14888006000b800404b880000
:1004e000514b8800804b8000914b800002c02c0053
:1004f000c37c24008c160700804b8800914b880039
:10050000804b8000914b8000f2282c0053ef230099
:1005100027160700804b8800914b8800804b800095
:10052000914b800042722900f3c723007e1607001a
:1005300080498800914988006000b800804b88009d
:10054000914b8800a04b8000b14b800002c02c0072
:10055000c37c240074160700a04b8800b14b8800b0
:10056000a04b8000b14b8000f2282c0053ef2300f9
:100570000f160700a04b8800b14b8800a04b8000ed
:10058000b14b800042722900f3c7230066160700b2
:10059000c0498800d14988006000b800a04b88009d
:1005a000b14b8800c04b8000d14b800002c02c00b2
:1005b000c37c24005c160700c04b8800d14b880028
:1005c000c04b8000d14b8000f2282c0053ef230059
:1005d000f7150700c04b8800d14b8800c04b800046
:1005e000d14b800042722900f3c723004e1607004a
:1005f000a0498800b14988006000b800c04b88005d
:10060000d14b8800a0498000b1498000c0498800d2
:10061000d14988006669ef00a2c9bf006840600048
:100620000004e00005003200a2c9bf000042b20091
:100630000004e00001003a0026120700a2c9bf0032
:10064000624060000004e00029003a00a2c9bf0037
:100650000042b2000004e00025003a00ae1107009d
:1006600004c9bf00e24f500003003c0004c9bf00b2
:100670000004e00018003a009ec9bf006840600016
:100680000004e000140032008ec9bf00e34f5000a8
:1006900011003a009813070094140700a2c9bf0084
:1006a0000042b2000004e00002003200b112070074
:1006b00007003700c841a800d04c8000b00e880069
:1006c000c04c8000c00e8800b04c8000d00e880066
:1006d00000000000090037009ec9bf0068406000ac
:1006e0000004e00004003a00a212070003003700f3
:1006f000a012070001003700000000009ec9bf00e3
:10070000684060000004e00007003a00a2c9bf0092
:10071000684060000004e00003003200a1e2a9008c
:10072000a269a90051003700a269a8004f00370054
:10073000a2c9bf00684060000004e0003900320038
:10074000001480008000eb007c1607000002be0051
:10075000404b8000514b80000001be000400be00f1
:1007600094150700404b8800514b880010148000fe
:100770008000eb00711607000002be00604b800095
:10078000714b80000001be000400be008915070007
:10079000604b8800714b8800201480008000eb00c3
:1007a000661607000002be00804b8000914b80005f
:1007b0000001be000400be007e150700804b8800cb
:1007c000914b8800301480008000eb005b1607001e
:1007d0000002be00a04b8000b14b80000001be00b3
:1007e0000400be0073150700a04b8800b14b8800c1
:1007f000401480008000eb00501607000002be008d
:10080000c04b8000d14b80000001be000400be0040
:1008100068150700c04b8800d14b8800a410070062
:100820000f0037006000b800404b8800514b880033
:100830006000b800604b8800714b88006000b80011
:10084000804b8800914b88006000b800a04b880066
:10085000b14b88006000b800c04b8800d14b8800c5
:1008600066c9bf000040e80066e9b7008560a900de
:100870000080fa004f03be004f02be004f01be00d1
:100880004f00be003600f900004006003600f800b8
:10089000809fbe00829fbe00849fbe00869fbe00d8
:1008a000889fbe008a1f78000200fa00cac2a80012
:1008b00070108000620060000000e0000a0032005a
:1008c000d0022000f41007000200370090108000d2
:1008d000004f780070108000610060000000e000b0
:1008e000faff3a000e22a900c010800062006000ea
:1008f0000000e0000a003200e0022000e6100700dd
:1009000002003700e010800010479800c0108000ff
:10091000610060000000e000faff3a001822a90020
:10092000a1e2a80009040700931207009f0f070027
:10093000251007000a0f07009ec9bf00684060002d
:100940000004e00006003200f04380000040780020
:1009500089e9b700b0c3b300d2eab700110037008d
:10096000d2cabf000004e0000b003c00b0c3b300db
:10097000d2eab70089c9bf000004e00002003c00d1
:10098000a229a8000700370089c9bf000040e9007c
:1009900089e9b70003003700d2cabf000040e90070
:1009a000d2eab700505480000000e0000e0034008e
:1009b00090418000a1418000e24a8000f34a80001b
:1009c00018c0b3009c1507000000e00001003c00c7
:1009d0000044eb000804e0000300320050548000a3
:1009e0000000e90050548800d1168000001020005b
:1009f000008060000000e00003003a00ca82a90005
:100a00009829ef00c22aef009ec9bf00684060002d
:100a10000004e000290032008449800095498000ec
:100a2000704380008143800018c0b3000001be0005
:100a30000400be00801507000000e00001003c003b
:100a40000044eb000804e0001a003a00a4498000ca
:100a5000b5498000504380006143800018c0b30056
:100a60000001be000400be00731507000000e00096
:100a700001003c000044eb000804e0000d003a00d7
:100a8000c4498000d5498000504380006143800004
:100a900018c0b3000001be000400be0066150700c8
:100aa0000000e00001003c000044eb000804e0000e
:100ab00002003200e202a800350037009ec9bf00e4
:100ac000684060000004e000300032008849800087
:100ad000994980007043800081438000020020001b
:100ae000030a2400b21407001ac0b3000001be00bc
:100af0000800be004e1507000000e00001003500b0
:100b00000045eb000a04e00021003200a849800003
:100b1000b9498000504380006143800002002000fa
:100b2000030a2400a21407001ac0b3000001be008b
:100b30000800be003e1507000000e000010035007f
:100b40000045eb000a04e00011003200c8498000b3
:100b5000d94980005043800061438000020020009a
:100b6000030a2400921407001ac0b3000001be005b
:100b70000800be002e1507000000e000010035004f
:100b80000045eb000a04e00001003200e202a90087
:100b90009ec9bf00704060000004e00003003a00fe
:100ba0001000200060548800a2a9a9009ec9bf00bf
:100bb000704060000004e0000d0032009ec9bf00dc
:100bc000614060000004e000030032009e09a900bb
:100bd000caa2a900070037009e09a80000488000ab
:100be0000000e00003003200caa2a80001003700a4
:100bf000caa2a900204780003147800037030700c0
:100c0000e0468800f1468800a04a8000b14a800092
:100c100018c0b30002002000632c24000615070052
:100c20000000e00001003c000044eb000804e0008c
:100c30000d003200d1cabf00e44f50000a0032005c
:100c4000c0468000d1468000404788005147880058
:100c500040c0b300d1eab7006000b8002047880068
:100c60003147880042003700a04a8000b14a800026
:100c700018c0b30002002000632a2400ec1407000f
:100c80000000e000010035000044eb000804e00033
:100c90001e003200a04a8000b14a800018c0b30094
:100ca00002002000232a2400e31407000000e000d3
:100cb00001003c000044eb000804e0001300320097
:100cc000d1cabf00e44f500003003200d1cabf00b8
:100cd0000004e0000d003a00e0468000f14680008c
:100ce000c0468800d1468800c0468000d1468000ba
:100cf0000001be002f140700c0468800d1468800be
:100d000020c0b300d1eab70019003700a04a800024
:100d1000b14a800018c0b3000200200003f823008d
:100d2000c31407000000e000010035000044eb00a0
:100d30000804e0000e003200d1cabf000004e00049
:100d40000b003200e0468000f1468000c04688007b
:100d5000d14688006000b8004047880051478800ad
:100d6000d16aef006000b800204788003147880052
:100d7000404780005147800018c0b3006011b800a0
:100d8000ab1407000000e000010035000044eb0058
:100d90000804e000030032006000b800404788000b
:100da000514788004847800059478000c04680006e
:100db000d1468000a2702d0033ba2300fd13070036
:100dc0001ac0b3000001be000800be009a1407005c
:100dd0000000e00001003c000045eb000a04e000d8
:100de00007003200c0468000d1468000a2702d006e
:100df00033ba2300ef1307004047880051478800ab
:100e0000a8488000b9488000744080008540800078
:100e1000b0408000c14080000001be000400be0060
:100e20001b1507001ac0b3000001be000800be0079
:100e30007f1407000000e000010035000045eb00d2
:100e40000a04e0001e00320060c9bf000004e00098
:100e50001b0032004847800059478000c44680008c
:100e6000d546800070408000814080000001be00b7
:100e70000400be00061507001ac0b3000001be0042
:100e80000800be006c1407000000e00001003c00f8
:100e90000045eb000a04e00009003200c44680006f
:100ea000d546800070408000814080000001be0077
:100eb0000400be00f6140700404788005147880030
:100ec0009ec9bf00684060000004e0000c003a00ca
:100ed0004847800059478000d0438000e1438000ac
:100ee0003284290013992300e91407000001be0091
:100ef0000800be00ae130700404788005147880035
:100f00004447800055478000c0468000d14680009d
:100f10000001be000400be00031407000200200010
:100f2000832c2400da140700804888009148880048
:100f30008460a9000080fa004f0578004f04be00cd
:100f40004f03be004f02be004f01be004f00be0067
:100f50003600f900004006003600f800809fbe0011
:100f6000829fbe00849fbe00869fbe00889fbe00f9
:100f70000400fa00cac2a800044a8000154a800092
:100f800020498000314980000001be000400be00fd
:100f9000bf1407004049880051498800d0cabf00eb
:100fa0000004e00006003400d0cabf00e34f500048
:100fb00003003200d0cabf000040e900d0eab70009
:100fc000cfcabf000004e00006003400cfcabf0053
:100fd000e34f500003003200cfcabf000040e900d9
:100fe000cfeab700cecabf000004e000060034001c
:100ff000cecabf00e34f500003003200cecabf008c
:101000000040e900ceeab7007cc9bf00e74f5000be
:101010001f003400f04b8000014c800002002000d3
:1010200003102400c0130700f04b8800014c880017
:10103000f04b8000014c8000004a8800114a880073
:10104000104c8000214c800002002000031024007e
:10105000b5130700104c8800214c8800104c80000c
:10106000214c800020498800314988006000b80088
:10107000104c8800214c88006000b800f04b8800bc
:10108000014c88007c69ef007902070011003700ed
:101090006049800071498000f24b8000034c800061
:1010a00044130700f04b8800014c8800a0488000e2
:1010b000b1488000124c8000234c80003d13070093
:1010c000104c8800214c88007cc9bf000040e8001b
:1010d0007ce9b700044a8000154a8000204980005e
:1010e000314980000001be000400be006814070002
:1010f000fa010700008fbe00e0488000f148800040
:1011000018c0b3001e01be00c91307000000e000b4
:10111000010035000044eb000804e0000b00320041
:101120001e01be00e2488800f34888002049800084
:10113000314980000049880011498800004a800038
:10114000114a8000e0498800f14988006049800028
:1011500071498000e101070018c0b300f2262100a8
:1011600033b02300b41307000000e00001003c008e
:101170000044eb000804e00018003200284780001b
:1011800039478000604980007149800012052a00bb
:10119000138123003e1407000001be000800be00ba
:1011a0000413070020478800314788004847800023
:1011b00059478000604980007149800012052a006b
:1011c00013812300321407000001be000800be0096
:1011d000f8120700404788005147880082c8bf00c6
:1011e0000004e0002900320094c9bf000004e000c0
:1011f00023003a00804c80006600b90000007800af
:10120000c109200080804000008020000080400054
:10121000104078000004e000010032009029ef0047
:10122000804c80008000eb0089070700804c800024
:10123000c10c200080804000008020000080400021
:10124000104078000040e90094e9b70094c9bf005d
:101250000004e00001003d009469ef00804c800034
:10126000e30f500004003c00804c80000000e800c8
:10127000804c8800050037009029ef0003003700fc
:1012800094c9bf000040e90094e9b70083c8bf00db
:101290000004e0002900320095c9bf000004e0000e
:1012a00023003a00904c80006600b90000007800ee
:1012b000410b200080804000008020000080400022
:1012c000104078000004e000010032009229ef0095
:1012d000904c8000110020005d070700904c8000ba
:1012e000010d200080804000008020000080400030
:1012f000104078000040e90095e9b70095c9bf00ab
:101300000004e00001003d009569ef00904c800072
:10131000e30f500004003c00904c80000000e80007
:10132000904c8800050037009229ef000300370039
:1013300095c9bf000040e90095e9b70084c0a90045
:101340000080fa004f04be004f03be004f02be00f3
:101350004f01be004f00be003600f90000400600fd
:101360003600f800809fbe00829fbe00849fbe00b2
:10137000869fbe00889fbe000000fa00cac2a80077
:10138000500880008000eb006c130700104b8800b1
:10139000214b88000a21ef009ec9bf006240600017
:1013a0000004e0000f003200b8438000c943800011
:1013b000104b8000214b800002f02f00f3772400b7
:1013c000d91207000001be000800be00d6120700b7
:1013d0000200200013562400ad1307006048880067
:1013e000714888009e29a8008600a9000080fa00a4
:1013f0004f04be004f03be004f02be004f01be00af
:101400004f00be003600f90000400600809fbe007d
:101410000000fa00cac2a8006000b8006048880056
:10142000714888009e29a90084e0a9000080fa0084
:101430004f00be00004006003600f800809fbe004e
:10144000829fbe00849fbe00869fbe000000fa00ff
:10145000cac2a800480b07000000e00009003200e3
:10146000020a070030548000e40f500002003400ec
:10147000440d070003003700305480000000e800ee
:10148000305488002154800080702000808f5000ec
:1014900003003a00540b0700842aef0003003700d2
:1014a000205480000000e8002054880086a0a90095
:1014b0000080fa004f03be004f02be004f01be0085
:1014c0004f00be003600f900004006000000fa00a0
:1014d00086c0a9000080fa00004006003600f8002f
:1014e000809fbe00829fbe00849fbe00869fbe007c
:1014f0000000fa00cac2a8000000eb00b70707000e
:101500008520a9000080fa004f03be004f02be00f4
:101510004f01be004f00be003600f900004006003b
:101520003600f800809fbe00829fbe00849fbe00f0
:10153000869fbe000000fa00cac2a800100020006a
:10154000a60707008700a9000080fa004f03be002d
:101550004f02be004f01be004f00be003600f90032
:10156000004006003600f800809fbe00829fbe004b
:10157000849fbe00869fbe000000fa00cac2a80079
:1015800009003700914e8000609d200000804000df
:10159000104078000000fb0080108800904e800012
:1015a0000000e800904e88007110800000202000ac
:1015b000008060000000e00005003a00914e8000cd
:1015c000d0c9bf000000fb00808f5000edff350048
:1015d0000000eb00490107008540a9000080fa00e7
:1015e0004f03be004f02be004f01be004f00be00c1
:1015f0003600f900004006003600f800809fbe006b
:10160000829fbe00849fbe00869fbe000000fa003d
:10161000cac2a8000b003700a04e8000c103200002
:1016200080804000609d20000080400010407800d5
:101630000000fb00d0108800a04e80000000e800f1
:10164000a04e8800c11080000020200000806000b3
:101650000000e00005003a00a14e8000d1c9bf00a3
:101660000000fb00808f5000ebff350010002000d1
:10167000220107008720a9000080fa004f03be0066
:101680004f02be004f01be004f00be003600f90001
:10169000004006003600f800809fbe00829fbe001a
:1016a000849fbe00869fbe000000fa00cac2a80048
:1016b000b00e0700a2a9a800c0002000760d070008
:1016c000ba0907008960a9000080fa004f03be0034
:1016d0004f02be004f01be004f00be003600f900b1
:1016e000004006003600f800809fbe00829fbe00ca
:1016f000849fbe00869fbe000000fa00113a800061
:1017000000022000008060000000e00006003a00b7
:10171000a2c9bf000044b2000004e00002003a0089
:10172000200120005c0d0700cac2a800910e07002e
:10173000a2a9a800a2c9bf000044b2000004e000b2
:1017400002003200d0002000530d0700a2c9a800fb
:10175000960907008020a9000080fa004f03be0010
:101760004f02be004f01be004f00be003600f90020
:10177000004006003600f800809fbe00829fbe0039
:10178000849fbe00869fbe000000fa00cac2a80067
:10179000780e0700a2a9a800e00020003e0d070077
:1017a000820907008060a9000080fa004f03be0094
:1017b0004f02be004f01be004f00be003600f900d0
:1017c000004006003600f800809fbe00829fbe00e9
:1017d000849fbe00869fbe000000fa00cac2a80017
:1017e000f0bf200000018800620e0700a2a9a80037
:1017f000f0002000280d07006c0907008040a900b8
:101800000080fa004f03be004f02be004f01be0031
:101810004f00be003600f900004006003600f80018
:10182000809fbe00829fbe00849fbe00869fbe0038
:101830000000fa00cac2a8004e0e0700a2a9a80024
:1018400000012000140d0700580907008080a9003e
:101850000080fa004f03be004f02be004f01be00e1
:101860004f00be003600f900004006003600f800c8
:10187000809fbe00829fbe00849fbe00869fbe00e8
:101880000000fa00cac2a8003a0e0700a2a9a800e8
:1018900010012000000d0700440907000080fa0035
:1018a0004f03be004f02be004f01be004f00be00fe
:1018b0003600f900004006000000fa00a04a80004f
:1018c000b14a8000004788001147880037090700a7
:1018d000d642a9000080fa00000006000400fa00c9
:1018e000881f7800008fbe0018c0b3006011b800d8
:1018f0001e00be00ce1107000000e0000100350010
:101900000044eb000804e000030032001e00be00ab
:1019100001f0a200010037001e00be004f04780055
:101920000080fa00000006000000fa006000b80025
:10193000a04a8800b14a88006000b800804a880048
:10194000914a88000080fa00000006000000fa00ba
:10195000889fbe008a1f780060498000714980001e
:10196000deff070018c0b300d2cc2c00c3d4230084
:10197000af1107000000e000010035000044eb005b
:101980000804e000210032009ec9bf000044b200fc
:101990000004e0001d003a00a0488000b14880002b
:1019a000804a8800914a8800844a8000954a8000d5
:1019b000d0408000e14080000001be000400be0075
:1019c000fb1007000004be00b4408000c54080004a
:1019d000d0408000e14080000001be000400be0055
:1019e000f31007000001be000800be004e11070002
:1019f00002002000832c240025120700a04a880042
:101a0000b14a88009f49a80015003700a848800007
:101a1000b9488000d0408000e1408000d2cc2c004a
:101a2000c3d42300e31007001ac0b3000001be00b6
:101a30000800be007e1107000000e0000100340035
:101a40000045eb000a04e00003003200b6ff070087
:101a50009f49a80002003700b3ff07009f49a90073
:101a60004f0578004f04be000080fa000000060019
:101a70000400fa00004a8000114a800001f0a20030
:101a8000008fbe0086c9bf00e44f50000f003a002f
:101a9000d0438000e14380000001be001e00be0074
:101aa000c3100700c04a8800d14a880050c0b30064
:101ab00086e9b70004c9bf00e54f500002003200bc
:101ac00010c0b30004e9b7009e49a90086c9bf0051
:101ad000e14f500007003a006000b800c04a88009b
:101ae000d14a8800a30d070040c0b30086e9b700c3
:101af0009e49a8000080fa00000006000200fa00db
:101b0000000f78001e00780080004000209d20001b
:101b10000080400090007800009d20001e004000e2
:101b2000104078000000fb00808f50000e00350050
:101b30001e00780080004000209d200000804000b2
:101b40008000eb0001087800009d20001e0040008e
:101b50008040eb000148780020a620001e004000d5
:101b60008040eb00014878000080fa000000060089
:101b70000600fa00200798000040eb00004f7800b4
:101b80000000eb00100798002e0090006f0060002e
:101b9000100798001e009000e90f500005003c005f
:101ba0001e009000004078000043b000004f780015
:101bb000040037001e009000004078007043b00021
:101bc000004f78001e4078000080fa0000000600f8
:101bd0000200fa00000f78001e007800e10f5000ac
:101be00009003400a00120002b0c07001e00780023
:101bf0008000400020a52000008040008000eb0015
:101c0000010878000f00370020a620001e004000c9
:101c1000104078000004e000090032001e00780047
:101c20000000e00003003200800220001a0c0700d0
:101c30000400370070022000170c07000100370075
:101c4000000000000080fa00000006000600fa0014
:101c5000881f780010079800210798002e00900038
:101c6000dbff07009e00900000002f000080600056
:101c70004c00de00804078002e0090004201dd0024
:101c8000a09b200000004100014878009e009000c9
:101c900000f020008080600000102000000178002b
:101ca000110009008200d800804078002e009000ca
:101cb0004201dd00b09b2000000041000148780097
:101cc0009e009000000f2000808060000001200036
:101cd00000017800110009008200d80080407800df
:101ce0002e0090004201dd00c09b2000000041005a
:101cf000014878001e00900000407800ef4060002e
:101d00002e0090004201dd00d09b20000000410029
:101d100001487800ae00900040a6200000804000fe
:101d200011c0b300014878002e00900080004000f0
:101d3000209d20000080400010017800ae0090003f
:101d4000c00320000088b900000078008200400035
:101d5000609d20000080400001c3b300014878006e
:101d60002e00900080004000209d20000080400058
:101d7000100078008000e8002e0090000001400074
:101d8000209d200000004100010878002e009000f6
:101d900080004000209d200000804000100178005d
:101da000ae009000c00320000088b9000000780059
:101db00082004000609d20000080400081c7b30089
:101dc000014878002e00900080004000209d2000f7
:101dd00000804000100078008000e8002e00900095
:101de00000014000209d2000000041000108780013
:101df0000000eb00000f78002a0037002e00900052
:101e000080004000209d20000080400010047800e9
:101e10002e0090004200dd009e004000a09b2000ac
:101e200000804000104078000000fb0050ff0700d9
:101e300000417800ae009000c00320000088b90087
:101e40000000780088004000609d20000080400075
:101e5000024878002e00900080004000209d200065
:101e60000080400090007800a0032000808f500088
:101e70000b003c002e00900080004000209d2000c0
:101e800000804000100078008000e8002e009000e4
:101e900000014000209d2000000041000108780062
:101ea0001e0fe8001e007800e30f5000d3ff34003f
:101eb0002e00900080004000209d20000080400007
:101ec00010007800804078002e019000009d2000d6
:101ed0000000410001487800ae00900040a62000bc
:101ee000008040008040eb00014878004f047800fb
:101ef0000080fa00000006000200fa00000f7800df
:101f000020a620001e004000104078000004e000e1
:101f100011003a0020a620001e00400011c0b300ae
:101f2000014878001e00780080004000209d2000bd
:101f3000008040008000eb00010878001e0078005f
:101f40000000e000020032008720a80003003700f4
:101f50008540a80001003700000000000080fa0062
:101f6000000006000400fa00000f78001107980036
:101f70001e00900016ff07009e00900040a6200063
:101f80000080400011c0b300014878001e0090009e
:101f900080004000e0a42000008040008000eb00b2
:101fa00001087800320037001e00900080004000d9
:101fb000209d200000804000900178001e009000cd
:101fc00080004000e0a42000008040001000780065
:101fd0001e004000104178009e009000c0032000c9
:101fe0000088b9000000780083004000609d200058
:101ff00000804000024878001e00900080004000f1
:10200000209d20000080400090007800a003200068
:10201000808f50000b003c001e00900080004000ac
:10202000209d200000804000100078008000e80023
:102030001e00900000014000209d20000000410093
:10204000010878001e00900080004000e0a42000fd
:1020500000804000100078008000e8001e00900022
:1020600000014000e0a420000000410001087800c9
:102070001e00900080004000e0a42000008040008e
:10208000100078001e004000104078000004e000be
:10209000c5ff3a001e00900080004000209d2000f7
:1020a0000080400010007800804078001e01900001
:1020b000009d200000004100014878009e00900033
:1020c00040a62000008040008040eb0001487800de
:1020d0000080fa00000006000200fa00000f7800fd
:1020e0001e00780080004000209d200000804000fd
:1020f000900178001e0078008000400020a520009c
:1021000000804000100178001e0078006700b900d0
:102110000000780082004000209c200000804000e9
:10212000104178009e007800c00320000088b900ac
:102130000000780083004000609d20000080400087
:10214000024878001e00780080004000209d20009a
:102150000080400090007800a0032000808f500095
:102160000b003c001e00780080004000209d2000f5
:1021700000804000100078008000e8001e00780019
:1021800000014000209d200000004100010878006f
:102190000080fa00000006000800fa00889fbe00d8
:1021a0001007980021079800320798003e00900021
:1021b0008000400020a52000008040008000eb004f
:1021c0000108780081a520003e0090004200dd005b
:1021d000008140006000b8000089be00be00900091
:1021e00000a62000008040008040eb0001487800fd
:1021f0000000eb00000f78003e0090006700b9007f
:1022000080007800209c20000080400001c2b300c4
:102210000148780018c0b3006011b8001e0090009b
:10222000ae009000820f07000000e00001003500c2
:102230000044eb000804e0000e0032001e00900095
:10224000ae00900001f0a20010079800210798004e
:102250003e0090006700b90080007800209c2000bc
:1022600000804000d1c2b300014878001000200077
:10227000000f780018c0b300f2ff2300c3612400f0
:102280001e009000ae0090006b0f07000000e00001
:1022900001003c000044eb000804e0000d003200a7
:1022a000f0ff2300c1612400100798002107980067
:1022b0003e0090006700b90080007800209c20005c
:1022c00000804000f1c3b3000148780010002000f6
:1022d000000f780002002000a34724001e00900099
:1022e000ae009000100f070083a520003e01900073
:1022f0004211dd00028141000089be003e009000d5
:102300008000400020a520000080400010007800e0
:102310008000e8003e0090000001400020a5200061
:102320000000410001087800580037003e0090008e
:102330008000400020a520000080400010007800b0
:10234000e50f500012003a003e0090006700b9000f
:1023500080007800709c200000804000e1c2b30043
:10236000014878003e0090008000400020a5200039
:1023700000804000100078008000e8003e009000df
:102380000001400020a52000000041000108780065
:1023900081a520003e0090004200dd00008040004a
:1023a0001000be00260f0700804078003e0190001c
:1023b00000a6200000004100014878003e00900087
:1023c0008000400020a5200000804000900178009f
:1023d000be00900000a62000008040001040780061
:1023e0000043b000004178003e0090006700b90053
:1023f0000000780083004000209c20000080400006
:10240000024878003e0090008000400020a5200097
:1024100000804000100078008000e8003e0090003e
:102420000001400020a520000000410001087800c4
:1024300081a520003e0090004200dd0000804000a9
:102440001004be00be00900000a6200000804000e6
:10245000104078000000fb00cf80de00340f070042
:102460000001be000800be00510e0700020020005f
:1024700003122400860f070083a520003e01900070
:102480004211dd00028141000089be003e00900043
:102490008000400020a5200000804000100078004f
:1024a000e80f5000a1ff34003e0090008000400083
:1024b00020a52000008040008000eb00010878008b
:1024c0003e009000c2fd0700be00900040a6200024
:1024d0000080400011c0b30001487800950037002b
:1024e0003e0090008000400020a5200000804000b9
:1024f000100078008000e8003e00900000014000dd
:1025000020a52000000041000108780001003700ec
:10251000000000003e0090008000400020a5200048
:1025200000804000100178003e0090006700b90074
:102530000000780082004000209c200000804000c5
:102540009040780000c3b30080cf50000d003a00e7
:10255000be00900060a52000008040001040780080
:102560000004e00007003a003e00900080004000b8
:1025700020a520000080400010007800e20f5000ed
:10258000d7ff3400be00900060a62000008040000d
:10259000104078000004e000270032003e00900068
:1025a0008000400020a5200000804000100178003d
:1025b0003e0090006700b9000000780082004000f3
:1025c000209c200000804000104078000000fb00ac
:1025d00001022000810f500005003200d1022000ce
:1025e000810f50000e003a003e009000bafe070036
:1025f0003e0090008000400020a5200000804000a8
:10260000100078008000e8003e00900000014000cb
:1026100020a5200000004100010878000000000013
:10262000be00900060a62000008040008040eb00cb
:10263000014878000d0037003e009000a6fe07001c
:102640003e0090008000400020a520000080400057
:10265000100078008000e8003e009000000140007b
:1026600020a5200000004100010878003e009000f5
:102670008000400020a5200000804000100178006c
:102680003e0090006700b900000078008200400022
:10269000209c2000008040009040780000c3b300e0
:1026a00080cf5000230032003e00900080004000a8
:1026b00020a5200000804000100178003e0090001e
:1026c0006700b9000000780082004000209c2000d4
:1026d0000080400090407800d0c2b30080cf50000e
:1026e000140032003e0090008000400020a5200031
:1026f00000804000100178003e0090006700b900a3
:102700000000780082004000209c200000804000f3
:102710009040780000c2b30080cf50000500320026
:10272000be00900060a52000008040008040eb00cb
:10273000014878003e0090008000400020a5200065
:102740000080400010007800e80f500070ff340057
:10275000be00900060a52000008040008040eb009b
:10276000014878003e00900080004000209d20003d
:102770000080400010007800804078003e0190000a
:10278000009d20000000410001487800be0090003c
:1027900040a62000008040008040eb000148780007
:1027a0004f04be000080fa00000006001200fa008c
:1027b000500798006107980072079800030f98006f
:1027c00002402200439724007e0090008e08900073
:1027d000af0e0700008fbe005e019000ee0190007a
:1027e0001e00be00d00d07000200200003182400c8
:1027f000cd0d07000200200003f823006c0d070038
:1028000020079800310798002e009000be0090002d
:102810002c0e0700400798004e0090000080fa0040
:10282000000006000000fa000000200081342400af
:10283000104088002140880000002000011824007a
:102840003040880041408800d0cc2c00c1dc2b00f7
:1028500050408800614088006066260061f62300d1
:102860007040880081408800d0cc2c00c126240014
:1028700090408800a140880030332300b126240016
:10288000b0408800c140880000002000e1232400ff
:10289000d0408800e140880000002000c1222400d0
:1028a000f040880001418800000020000100240061
:1028b000104188002141880000002000010a240006
:1028c00030418800414188000000200001f02300d1
:1028d000504188006141880030332300b11b24003f
:1028e000704188008141880000002000011f240001
:1028f00090418800a141880000002000811c240034
:10290000b0418800c141880000002000011224006d
:10291000d0418800e1418800000020000117240018
:10292000f0418800014288000000200001222400bc
:10293000104288002142880000002000c1202400ad
:10294000304288004142880000002000811c2400a1
:1029500050428800614288006000b80070428800e0
:10296000814288000000200001122400904288006b
:10297000a142880000002000c1252400b042880048
:10298000c14288000000200081242400d042880039
:10299000e14288000000200001172400f042880076
:1029a0000143880000002000012724001043880014
:1029b0002143880000002000012a240030438800c1
:1029c00041438800000020008124240050438800f7
:1029d0006143880000002000011f2400704388002c
:1029e0008143880000002000812424009043880057
:1029f000a143880060ba290041c42300b043880085
:102a0000c14388002004260051c62300d04388001b
:102a1000e143880080072000f043880020c0b30015
:102a20009ce8b70030c0b3009de8b70080c0b30099
:102a30009ee8b70040c0b3009fe8b700a0c0b30055
:102a4000a0e8b700b0c0b300a1e8b70020c0b30051
:102a5000b4e8b70030c0b300b5e8b70080c0b30039
:102a6000b6e8b70040c0b300b7e8b700a0c0b300f5
:102a7000b8e8b700b0c0b300b9e8b70010c0b30001
:102a8000d0e8b70020c0b300d1e8b70030c0b30031
:102a9000d2e8b70040c0b300d3e8b70050c0b300dd
:102aa000cce8b70060c0b300cde8b70070c0b30099
:102ab000cee8b70080c0b300cfe8b7008268ef006f
:102ac00010c0b30083e8b70050332300a04688004d
:102ad00060c4b30005e9b700930507000080fa0061
:102ae000000006000000fa00a249a9006000b8003a
:102af000e0488800f14888006000b800004988007c
:102b0000114988006000b800e0498800f149880058
:102b10006000b80080498800914988006000b800d2
:102b2000a0498800b14988006000b800c049880009
:102b3000d14988006000b800a0488800b1488800ea
:102b40006000b800804a8800914a88006000b800a0
:102b5000a04a8800b14a88009f49a9006000b800d7
:102b60006049880071498800113a8000f08f2f0079
:102b7000008060000080a000103a88004207a80092
:102b80004227a900cc22ef00d022ef00f0fe2f0058
:102b9000c0168800dc22ef00e0fb2f00f016880052
:102ba000e222ef0060002000000e8800c221ef004a
:102bb00010032000200e8800c621ef00b00f200077
:102bc000400e8800ca21ef0010182800600e88000f
:102bd000d021ef0000f02f00a00e8800d621ef00da
:102be000d821ef00da21ef000e22ef000fe2a9005a
:102bf0000c22ef000d42a8003056800041568000a4
:102c0000a2702d00b3162400e8fe0700a010880073
:102c10001822ef0019e2a9001622ef00505680009a
:102c200061568000a2702d00b3162400dffe07005d
:102c3000f0108800a00e2e00100888000021ef0080
:102c40000421ef0021088000000320000100700033
:102c500020088800a0832300600888000621ef0078
:102c60001021ef0081088000f0fc2f000080600040
:102c70000050a00080088800a00e2e007008880078
:102c80000a21ef001221ef009108800000032000cc
:102c90000100700090088800a00e2e00d008880067
:102ca0001421ef001e21ef00f10880000003200036
:102cb00001007000f0088800f0002000604a8800e1
:102cc000f0002000704a8800614a8000704a80004d
:102cd00000804000cf80de00150d07000001be001f
:102ce00000a22e0001b624008f0c07000200200075
:102cf000432324008c0c07000001be0000002000cc
:102d000001f82300880c0700d0548800e1548800a3
:102d1000402e20000015880000412000101588007a
:102d2000f0f0200020158800a622ef0000f72f0009
:102d300040158800f008200050158800c10480006c
:102d40000000270001007000c0048800b10480006a
:102d5000f08f2f0080806000006020000100700074
:102d6000b0048800e104800080ff2f000080600034
:102d70005000b300e0048800a1048000f0ff2800a8
:102d80000080600000e0a000a0048800a104800092
:102d900080ff2f00008060003000b300a004880096
:102da000c1048000f08f2f00808060000030200080
:102db00001007000c004880001058000f0f82f00b9
:102dc0008080600000032000010070000005880082
:102dd000c1048000f0f82f00008060000050a000c7
:102de000c00488000105800080ff2f000080600083
:102df0000010a00000058800b1048000f0ff28004a
:102e00000080600000d0a000b0048800f1048000c1
:102e1000f0f82f00008060000040a000f00488005f
:102e2000f1048000f08f2f00008060000080a0007f
:102e3000f0048800f1048000f0ff280000806000aa
:102e400000c0a000f00488000080fa000000060026
:102e50000000fa00889fbe0000bf2000000188002b
:102e600038408000494080001440800025408000a8
:102e700030408000414080000001be000400be00e0
:102e8000cc0b07000001be000800be00260c0700a6
:102e9000404a8800514a8800a289a800a209a900d6
:102ea0005441800065418000704180008141800074
:102eb0000001be000400be00f50c0700b0558800fc
:102ec000c155880007ff070081e0a9008420ef00ba
:102ed0008620ef008820ef00ff3ffc008c20ef00f1
:102ee0008e20ef009020ef008c60a8008d20a800bd
:102ef0008d40a8008f00a8008f20a8008c00a8009b
:102f00009f29a8008e00a8008ee0a9008cc0a80010
:102f10008ce0a8008ea0a8008d60a8008200a90007
:102f20008240a9005220ef00a1e2a800c1e1a80060
:102f300011e1a80005e1a80013e1a8001fe1a80025
:102f40000de2a8000f42a80017e2a8001942a8004d
:102f50004f04be000080fa00000006000000fa00e6
:102f6000e0fe0700ff3ffc008420ef008620ef001a
:102f70008820ef008c20ef008e20ef009020ef00e3
:102f80008d20a8008d40a8008f00a8008f20a800e9
:102f90005220ef00a1e2a900c1e1a90011e1a900be
:102fa00005e1a90013e1a9001fe1a9000de2a800b5
:102fb0000f42a80017e2a8001942a8000080fa00fa
:102fc000000006000000fa006a080700a1e2a9005c
:102fd00011e1a90013e1a9001fe1a9008e00a900d9
:102fe0008cc0a9008ce0a9008ea0a9008220a900b5
:102ff0008240a9000070200020548800a289a90006
:10300000a209a8000080fa00000006000000fa00f3
:103010009ea9a9009e49a900c1e1a90005e1a90056
:103020008420ef008620ef008820ef00ff3ffc00a7
:103030008c60a9008d60a9008220a9008240a900af
:10304000e0ff0700a229a8000080fa0000000600a7
:103050000a00fa0030079800410798000000eb00d2
:10306000000f78000000eb00200798000000eb0044
:10307000100798000000eb00000f780052003700a6
:103080003e0090006600b900000178004e009000fc
:103090007800b90000007800000041001e004000e8
:1030a000c109200080804000008020000080400096
:1030b000104078000000fb00200798002e009000d0
:1030c000e70f500005003c00ce00900060a62000f5
:1030d0000080400011c0b300014878002e0090002d
:1030e000e80f500005003a00ce00900060a52000d7
:1030f0000080400011c0b300014878002e0090000d
:103100001e0040000000e00033003200ae009000de
:10311000900f2000808f50000a0034004288200069
:103120002e0090006600b9008000780040a22f00b9
:103130000080400000004100ce00900089fb0700a5
:103140001e0037002e0090004200dd008080e80065
:1031500060902000008140001200780092009000f2
:103160004e0190000cfc07004e00900080004000d3
:10317000209d200000804000100078008080e90041
:103180004e00900000014000209d20000000410002
:10319000010878002e0090008000400080282b005d
:1031a0000080400010007800ce0090006dfb07000a
:1031b000ce009000404e2b006afb0700100020005c
:1031c000100798001e0fe8001e007800e50f500061
:1031d000abff340001003700000000001e0090002b
:1031e0000000e000020032004e00900042fb0700a9
:1031f0000080fa00000006000200fa00000f7800cc
:1032000002003700cac2a9000140fe0020a620002b
:103210001e004000104078000004e000f9ff3a0072
:10322000cac2a8000080fa00000006000400fa00ec
:10323000100798009e009000604e2b0049fb07008d
:103240001e0090002cfb07001e0090008000400034
:10325000c0a62000008040008000eb00010878003c
:103260001e009000e4ff070000488000ea0f5000b5
:10327000050034009e009000804f2b0039fb0700b2
:103280001e0090001cfb0700004880000000e000ca
:1032900047003a009e009000a0502b0031fb070031
:1032a0001e00900014fb07004a0037001e0090002b
:1032b000d1ff07009e009000c0512b0029fb0700a2
:1032c0001e00900080004000c0a62000008040004a
:1032d000100078006b00400080004000608d2000ee
:1032e00000804000100078009e00900057fa070010
:1032f0009e00900030522b001afb07001e00900029
:1033000080004000c0a6200000804000100078002f
:103310006b00400080004000608d20000080400075
:10332000100f78001e0078000000e000040032005a
:10333000c00220009e007800808f500008003c00f2
:103340001e00e9008000400080482b000080400003
:10335000100078009e00900002fb07000300370079
:103360009e00900000482b00fefa07009e0090008f
:1033700080522b00fbfa07001e009000defa0700c7
:103380001e00900080004000c0a620000080400089
:10339000100078008000e8001e009000000140004e
:1033a000c0a620000000410001087800010037009d
:1033b000000000001e00900080004000c0a6200019
:1033c000008040009000780000488000808f50000e
:1033d000b6ff35000080fa00000006000400fa0085
:1033e00010079800a50037001e0090000000e000c4
:1033f0000f0032001e00900080004000e09a200084
:103400000080400090017800e010800000417800ca
:103410001e0090006500b9000000780083004000a5
:10342000309a200000804000024878000e003700eb
:103430001e00900080004000e09a200000804000c4
:103440009001780090108000004178001e009000ec
:103450006500b9000000780083004000309a200029
:1034600000804000024878009e00900030ad2000af
:1034700000804000104078000004e0003c00320072
:103480001e00900080004000e09a20000080400074
:10349000100178001e0090006500b900000078005f
:1034a00082004000309a20000080400010407800e8
:1034b000ed4f50000e003a001e00900080004000ca
:1034c000e09a200000804000100178001e0090006b
:1034d0006500b9000000780082004000309a2000aa
:1034e0000080400010407800ea4f50002000320079
:1034f0001e0090000000e0000f0032001e0090004f
:1035000080004000e09a2000008040001001780018
:103510001e0090006500b9000000780082004000a5
:10352000309a200000804000104078000000fb002e
:10353000d01088000e0037001e0090008000400070
:10354000e09a200000804000100178001e009000ea
:103550006500b9000000780082004000309a200029
:1035600000804000104078000000fb0080108800c0
:103570001e00900080004000e09a20000080400083
:10358000100178001e0090006500b900000078006e
:1035900082004000309a200000804000104f7800e8
:1035a0001e407800ed4f5000030032001e407800ae
:1035b000ea4f50001f003a009e00900030ad2000fe
:1035c00000804000104078000004e000030032005a
:1035d0009e00900080522b0062fa07001e009000af
:1035e00080004000e09a2000008040001000780039
:1035f000804078001e019000809b20000000410068
:10360000014878001e00900080004000e09a2000f1
:10361000008040008000eb00010878009e009000d0
:10362000209b20000080400011c0b30001487800ba
:10363000120037001e00900080004000e09a200039
:103640000080400010007800e30f50000b003e00a7
:103650001e00900080004000e09a200000804000a2
:10366000100078008000e8001e009000000140007b
:10367000e09a200000004100010878001e00900040
:103680000000e00004003a0070108000610060005b
:103690000000e00007003a001e009000e10f50001b
:1036a0000a003a00c0108000610060000000e000e5
:1036b000060032009e009000209b20000080400009
:1036c000104078000004e00047ff32009e009000a8
:1036d000209b200000804000104078000004e000a3
:1036e000540132009e009000b0522b001dfa0700da
:1036f000004880000000e000030034009e009000bd
:10370000d0522b0017fa07001e00900080004000e6
:1037100080a6200000804000100178001e0090006c
:103720006500b9000000780082004000309a200057
:1037300000804000104078000000fb006101b900eb
:1037400030ff2f00f1ff2f0002004000838048006f
:103750001207200003002000820f5000838f5800c2
:103760001e013e0000600100200137001b013700f0
:103770001a01370019013700180137001701370007
:103780001601370015013700140137001301370007
:103790001201370011013700100137000f01370007
:1037a0000e0137000d0137000c0137000b01370007
:1037b0000a01370009013700080137000701370007
:1037c0005b0037006700370089003700760037005c
:1037d000020137000101370000013700ff00370008
:1037e000fe003700fd003700fc003700fb0037000b
:1037f000fa003700f9003700f8003700f70037000b
:10380000f6003700f5003700f4003700f30037000a
:10381000f2003700f1003700f0003700ef0037000a
:10382000ee003700ed003700ec003700eb0037000a
:10383000ea003700e9003700e8003700e70037000a
:10384000cb003700e5003700ad003700ba00370085
:10385000e2003700a4003700e0003700df00370047
:10386000de003700dd003700dc003700db0037000a
:10387000da003700b3003700d8003700d700370030
:10388000ab00370069003700d400370080003700f4
:10389000d2003700d1003700d0003700c000370019
:1038a000ce003700cd003700cc003700cb0037000a
:1038b000ca003700c9003700c8003700c70037000a
:1038c000c6003700c500370093003700c30037003b
:1038d000c200370087003700c0003700bf00370044
:1038e000be003700bd003700bc003700bb0037000a
:1038f000ba00370098003700b8003700b70037002b
:10390000b600370045003700b4003700b300370079
:10391000b2003700b1003700b0003700af00370009
:10392000ae003700ad003700ac003700360037007e
:103930001e00900080004000e09a200000804000bf
:103940008000eb00010878009e009000209b200082
:10395000008040008040eb00014878000000fe003d
:10396000a30037009e009000f0522b007df9070065
:10397000004480009e009000b4f807009e00900074
:10398000f0532b0077f9070017020700d05380008f
:103990009e009000adf807009e00900080522b0022
:1039a00070f90700920037009e00900090542b00a1
:1039b0006cf90700f01f2000ca0107009e0090006c
:1039c000a2f807009e009000f0532b0065f9070055
:1039d0001c020700e05380009e0090009bf8070047
:1039e0009e00900080522b005ef907008000370097
:1039f0009e00900090552b005af90700b500070073
:103a0000ea0007007a00370086fb07000000eb00a1
:103a10001b010700d0010700750037009e009000d1
:103a20000000eb008afd0700710037009e00900047
:103a300060572b004bf907007041800081418000e6
:103a40001e019000d4f907009e009000f0572b0053
:103a500044f9070040478000514780001e01900054
:103a6000cdf907009e009000c0582b003df90700db
:103a7000c0468000d14680001e019000c6f90700b4
:103a80009e00900080592b0036f90700580037003f
:103a90009e009000b0592b0032f90700f04c8000d6
:103aa0004a00de00614060000080fb008000eb0007
:103ab000a20907001e019000b7f907009e009000c0
:103ac000705a2b0027f90700a04a8000b14a8000f5
:103ad0001e019000b0f907009e00900080592b0055
:103ae00020f907004200370010c0b30004e9b70016
:103af0003f00370050c0b30004e9b7003c00370076
:103b00009e00900030ad20000080400011c0b30046
:103b100001487800360037009e00900030ad20004c
:103b2000008040008040eb00014878003000370002
:103b3000a229a8002e0037001e009000bbfd070040
:103b40002b0037009e009000305b2b0005f907002a
:103b50009ea9a800260037009e009000b05b2b00b5
:103b600000f907008d69ef009ea9a9002000370029
:103b70000029ef00a2a9a90004c9bf00e54f500029
:103b8000010032000469ef00a2c9a9008700070004
:103b90009e009000305c2b00f2f807001400370004
:103ba0006069ef00b0408000c1408000c0488800dc
:103bb000d1488800d11680000010200000806000ed
:103bc0000000e000020032000229ef000800370088
:103bd000a000200010488800050037009e009000db
:103be000505d2b00dff807000100370000000000e7
:103bf0001e00900080004000e09a200000804000fd
:103c00008000eb00010878009e009000209b2000bf
:103c1000008040008040eb00014878001e009000ca
:103c20008000400080a62000008040008000eb0063
:103c3000010878001e009000aff807000080fa002d
:103c4000000006000000fa008ac9bf000000fb0067
:103c50002401070041652700810f500001003a0050
:103c60006c0007000080fa00000006000200fa0065
:103c70000000eb001b01070071562400810f50006b
:103c80000b003a000000eb00000f7800280007004e
:103c90000000e0000d003a001e007800e40f500024
:103ca00001003400370307001e0fe800f7ff37005c
:103cb0000000eb000b010700e10f400003003a0099
:103cc0001f010700d7fa0700020007000080fa0072
:103cd000000006000200fa000000eb00000f780070
:103ce000090037001e00780080004000008020009e
:103cf0000080400010007800800078001e007800ee
:103d0000920007001e0fe8008ac9bf000000fb00f8
:103d10009e0f5000f3ff3c00715624000000eb00a2
:103d20008a0007000c0107000080fa00000006006e
:103d30000200fa00430107000000e0000200320028
:103d40000000eb00170037000000eb00000f7800c8
:103d5000090037001e007800e200070080007800ac
:103d60001e0078000001400000802000000041009b
:103d7000010878001e0fe8008ac9bf000000fb00a0
:103d80009e0f5000f3ff3c00080107000000e00018
:103d9000020032000000eb0002003700e2000700e2
:103da000100020000080fa00000006000200fa0067
:103db0000000eb00000f78000a0037001e007800ba
:103dc00080004000608d200000804000900078005e
:103dd0008ac9bf000000fb001e0040005b00070016
:103de0001e0fe8008bc9bf000000fb009e0f5000b3
:103df000f2ff3c008ac9bf000000fb0041652700bc
:103e000052000700d40007009f69a9000080fa0053
:103e1000000006000200fa000a0107000000e000ae
:103e2000020032000000eb00130037000000eb003e
:103e3000000f78000b0037008ac9bf000000fb00ac
:103e40001e004000a7000700800078001e007800d8
:103e500000014000608d2000000041000108780052
:103e60001e0fe8008bc9bf000000fb009e0f500032
:103e7000f1ff3c00100020000080fa000000060066
:103e80000400fa00100798000000eb00000f780013
:103e90009e009000f01f2000808f50000200340030
:103ea0001000200027003700ff3ffc00c104800005
:103eb000f0ff280000806000c0048800811f7800a7
:103ec0001e00900000004000000f78009e00780067
:103ed00000c02f0000804000000f7800f007200095
:103ee000203b88001e007800103b8800410424001d
:103ef000013b880051052000313b8800a10a2000c9
:103f0000313b880061e7a8000000000000000000cd
:103f1000cf007800010037005220ef00013b800005
:103f200000002800008060000000e000faff3a0076
:103f3000c10480000000270001007000c004880058
:103f40000000eb000080fa00000006000400fa0008
:103f5000000f7800110798001e007800c8ff0700c6
:103f6000f01f20009e007800808f50000200340077
:103f7000100020002e003700ff3ffc00c10480002d
:103f8000f0ff280000806000c0048800801f7800d7
:103f9000811f7800821f78001e007800000040001a
:103fa000000f78009e00780000c02f0000804000c5
:103fb000000f7800f0c7b30032e0b7001e00900099
:103fc000200088001e007800000088000208bb0066
:103fd00041002400013b880051052000313b88004e
:103fe000a10a2000313b880061e7a8000000000022
:103ff000000000004f017800cf0078004f007800eb
:10400000010037005220ef00013b80000000280033
:10401000008060000000e000faff3a00c104800068
:104020000000270001007000c00488000000eb00c1
:104030000080fa00000006000400fa00004f78003b
:10404000110798001e41780061a72000824878007f
:104050009e009000c1538800ff3ffc00c104800017
:10406000f0ff280000806000c0048800841f7800f2
:10407000801f780076cabf0032e0b700c0538000ce
:10408000000088001082ba0000000000000000005c
:10409000400080008053880076cabf0032e0b7003d
:1040a000c0538000000088001002ba000000000029
:1040b0000000000040008000a05388004f007800fe
:1040c0004f027800c104800000002700010070004a
:1040d000c00488005220ef00a05380000080fa0046
:1040e000000006000200fa00000f7800f01f200018
:1040f0009e007800808f5000020034000000eb002a
:10410000070037009e00780000e027000080400094
:104110000000400080007800f0c7b300c6ff070031
:104120000080fa00000006000000fa00e900070025
:1041300000548000105488000080fa00000006003f
:104140000000fa004e000700d053800000448800b1
:104150000080fa00000006000000fa009f0007003f
:10416000e053800080007800f01f200077ff0700f8
:104170000080fa00000006000000fa00d5000700e9
:104180000154800010548000808f500004003200e1
:10419000b0022000c002070010002000010037001c
:1041a0000000eb000080fa00000006000000fa00aa
:1041b000c8000700a800070001548000f0538000e9
:1041c000808f500005003200c0022000b2020700bc
:1041d000a2a9a80010002000010037000000eb0099
:1041e0000080fa00000006000000fa009fc9bf002e
:1041f000704060000004e000020032000000eb00ac
:104200000e0037009f89a8001d00070001448000b0
:10421000d0538000808f50000600320090022000b2
:104220009d020700a2a9a8009f89a90010002000f4
:10423000020037009f89a9000000eb000080fa000f
:10424000000006000000fa0064000700f01f2000d4
:10425000a4ff0700e1538000810f500005003200e9
:10426000a00220008c020700a2a9a80010002000d4
:10427000010037000000eb000080fa00000006009b
:104280000400fa00881f78007a2aef000000eb0093
:10429000000f78000000eb00100798000000eb0012
:1042a000000f78001a0037001e0078000000400060
:1042b000800078000040eb005fff0700800078007e
:1042c000f00f2000008460001e0078000000400015
:1042d000800078000040eb0057ff07008000780066
:1042e00000f02f00008060004800de0080004400e5
:1042f000d053800000804000d0538800d15380000c
:104300008053800000804000d05388001e0fe800da
:10431000e0ff21009e007800808f5000e2ff340013
:10432000800f200010079800220037000000eb00eb
:10433000000f7800180037001e00780000004000d1
:10434000800078001e009000004078003aff0700cf
:1043500080007800f00f2000008460001e007800cc
:1043600000004000800078001e00900000407800af
:1043700031ff07008000780000f02f00008060000f
:104380004800de0080004400d053800000804000e0
:10439000d05388001e0fe800f0ff27009e00780031
:1043a000808f5000e4ff3a001e0090000000e800fb
:1043b000100798009e009000e00f2000808f5000b2
:1043c000daff3400d0538000401ab000d053880088
:1043d0004f0478000080fa00000006000200fa0096
:1043e000881f78007c2aef000000eb00000f7800a7
:1043f0000000eb00000f7800100037001e0078006e
:1044000038ff070080007800f00f20000084600073
:104410001e00780033ff07008000780000f02f00b6
:10442000008060004800de0080004400e05380000f
:1044300000804000e05388001e0fe800d01f2000dd
:104440009e007800808f5000ecff34004f0478000d
:104450000080fa00000006000200fa00881f7800c1
:104460007e2aef000000eb00000f78000000eb0058
:10447000000f7800100037001e00780019ff0700b9
:1044800080007800f00f2000008460001e0078009b
:1044900014ff07008000780000f02f00008060000b
:1044a0004800de0080004400f0538000008040009f
:1044b000f05388001e0fe8008ac9bf000000fb000f
:1044c0009e0f5000ecff3c004f0478000080fa0083
:1044d000000006000200fa00802aef000000eb0056
:1044e000000f78000000eb00000f78001600370086
:1044f0001e00780080004000008020000080400006
:104500001000780080007800f00f200080806000ac
:104510001e007800000140000080200000004100e3
:10452000100078000001780000f02f00000061000a
:104530004800de0080804000005480000080400081
:10454000005488001e0fe8008ac9bf000000fb006d
:104550009e0f5000e6ff3c000080fa0000000600bd
:104560000000fa00881f78009ec9bf000044b20016
:104570000004e00084003a00d11680000010200002
:10458000008060000000e0007f0032008ec9bf00a4
:10459000e34f50007c003a006000b800e04888001b
:1045a000f1488800704080008140800018c0b3004e
:1045b0000200200003f823009f0607000000e0002f
:1045c00001003c000044eb000804e0000800320059
:1045d0001421ef000000200001f823007040880043
:1045e00081408800d0fe0700c0012000aa0107001a
:1045f00070408000814080006011b8008c06070088
:104600000000e00005003a00b0408000c14080009a
:10461000c0488800d14888006069ef0010488000d9
:10462000e90f500042003c00104880000000e80004
:104630001048880010c0b30060e9b700b4408000a3
:10464000c5408000d0408000e14080000001be00f5
:104650000400be00d60507000002be0070408000c6
:10466000814080000001be000400be000807070072
:104670000002be00d0408000e14080000001be008a
:104680000400be00cb050700c0488800d148880060
:10469000c0488000d1488000824a8000934a800050
:1046a00018c0b300620607000000e00001003500fa
:1046b0000044eb000804e0000b0032009fc9bf007b
:1046c000644060000004e00007003200804a80007f
:1046d000914a8000a2702d0033c22300b505070067
:1046e000c0488800d1488800c4488000d548800070
:1046f000b0408000c140800018c0b3000001be007f
:104700000400be004c0607000000e00001003c0071
:104710000044eb000804e0000e003200b0408000ce
:10472000c1408000c0488800d14888000900370097
:1047300010488000e90f5000060034000229ef0005
:104740006069ef00b0408000c1408000c048880030
:10475000d148880000178000620060000000e0007f
:10476000070032009ec9bf000042b2000004e00012
:1047700003003a006000b8002047880031478800f5
:104780009ec9a80006003700d11680000010200046
:10479000008060000000e00001003a009ec9a9000e
:1047a0004f0478000080fa00000006000200fa00c2
:1047b000889fbe008ec9bf000004e00009003a00d7
:1047c00086c9bf000004e00006003a0010c0b30034
:1047d00086e9b7009e49a80010c0b3008ee9b70073
:1047e0006500370086c9bf00e54f500007003a005a
:1047f0008ec9bf00e14f500004003c008ec9bf00cd
:104800000040e8008ee9b7005b0037008ec9bf00aa
:10481000e24f500058003a009fc9bf00644060005a
:104820000004e000540032008ac9bf000000fb0011
:104830000000e8002bfe070041652700810f5000b3
:1048400039003a00c0468000d146800018c0b3004d
:104850000200200003f82300f70507000000e00035
:1048600001003c000044eb000804e0002e00320090
:10487000c8468000d946800000478000114780006c
:10488000a24a8000b34a80004905070002002000c8
:10489000832c2400a40507000001be000800be0010
:1048a0007b060700e6050700000f780048478000f8
:1048b000594780001e007800cf80de001c060700ec
:1048c0000001be000800be0039050700404788000f
:1048d00051478800e8468000f94680001e007800b5
:1048e000cf80de00120607000001be000800be00f7
:1048f0002f050700e0468800f14688002847800021
:10490000394780001e007800cf80de0008060700cf
:104910000001be000800be002505070020478800f2
:1049200031478800110037009fa9a800704180001e
:1049300081418000c0468800d146880078418000cf
:1049400089418000a04a8000b14a80000200200016
:10495000832c2400740507000001be000800be007f
:104960004b060700404788005147880030c0b3001d
:104970008ee9b7009e49a9004f04be000080fa00ee
:10498000000006000000fa00f101070073f90700bb
:10499000caa2a800cac2a9000140fe00fdff37005c
:1049a0000000fa002156800050a52a00808f500098
:1049b00001003a008000070050a52a002056880018
:1049c0000080fa00000006000000fa00d116800006
:1049d00000102000008060000000e0000c003a00a1
:1049e00000178000620060000000e0000800320054
:1049f0009ec9bf00644060000004e00004003a006b
:104a00009ec9bf000042b2000004e0001a0032005c
:104a10009e89a800605480000000e000030032007e
:104a2000a2a9a900a2c9a9008c2aef00a2c9bf00af
:104a30000042b2000004e00007003a009e69a800ae
:104a4000a2c9bf00704060000004e00013003a00fb
:104a5000fff8070014003700c60107009e69a9008f
:104a6000a2c9bf00614060000004e0000d003a00f0
:104a700054f907000c003700be0107009e89a90009
:104a80009e69a900a2c9bf00614060000004e00067
:104a900005003a004bf90700030037000000000052
:104aa00001003700000000000080fa00000006004e
:104ab0000000fa0000148000e30f400003003600fd
:104ac000d001200074000700a1010700001480003d
:104ad000e10f500003003e00e00120006e000700df
:104ae0009b01070010148000e30f40000300360014
:104af000f0012000680007009501070010148000f5
:104b0000e10f500003003e00000220006200070099
:104b10008f01070020148000e30f400004003600de
:104b2000100220005c00070050c0b30004e9b70089
:104b300020148000e10f500004003e0020022000fd
:104b40005500070050c0b30004e9b70030148000de
:104b5000e30f400002003600300220004e00070044
:104b600030148000e10f500002003e00400220009f
:104b70004900070040148000e30f400002003600a7
:104b8000500220004400070040148000e10f500054
:104b900002003e00600220003f0007009fc9bf00e6
:104ba000684060000004e000010032007ffc070064
:104bb0000080fa00000006000000fa00003a8000c1
:104bc000620060000000e000030032004027a900fe
:104bd0003001200030000700003a800070006000c3
:104be0000000e000030032004087a90040012000df
:104bf00029000700013a80000000280000806000c2
:104c00000000e0000300320041e7a900500120004d
:104c100021000700013a80000000240000806000ad
:104c20000000e0000300320041c7a900600120003d
:104c300019000700013a8000000820000080600091
:104c40000000e0000300320040e7a90070012000ee
:104c500011000700013a800000042000008060007d
:104c60000000e0000300320040c7a90080012000de
:104c70000900070090012000070007009fc9bf003e
:104c8000684060000004e0000100320047fc0700bb
:104c90000080fa00000006000200fa00000f780011
:104ca00000488000e90f50000a003c0000488000e6
:104cb0006b00400080004000608d200000804000bc
:104cc0001e087800004880000000e80000488800c6
:104cd00002003700b0002000004888009f69a8004b
:104ce0000080fa00000006000000fa00d621ef0064
:104cf0009a29ef0030c0b300ceeab700882aef004f
:104d000040c0b30004e9b7009e49a900d1e2a90060
:104d10000080fa00000006000400fa00881f7800f6
:104d200004c9bf00e24f50005a003a009ec9bf00bc
:104d3000684060000004e00056003200a448800093
:104d4000b548800060498000714980000001be00c4
:104d50000400be004e05070001f0a200008fbe0057
:104d600090438000a143800018c0b3001e01be0024
:104d7000b10407000000e00001003c000044eb002b
:104d80000804e0003c003200d1e2a800cecabf0017
:104d90000004e00032003a00405480000000e800c7
:104da0004054880040548000b00e88004154800078
:104db000f0052000808f5000030034001000200018
:104dc000b5ff0700c8ff0700415480002003200002
:104dd000808f50000d00340018c0b3000200200086
:104de000030024001e00be00910407000000e00044
:104df000010035000044eb000804e000030032002d
:104e000020002000a4ff0700b7ff070040548000e7
:104e1000e40f50000d003c0018c0b3000200200059
:104e2000031224001e00be00830407000000e000ff
:104e300001003c000044eb000804e00003003200e5
:104e40003000200094ff0700a7ff07009fc9bf00a4
:104e5000684060000004e00001003200d3fb07005e
:104e6000cecabf00e34f50000a003a0020c0b30092
:104e7000ceeab7000700370030c0b30004e9b7003e
:104e8000d621ef009e49a900d1e2a90030c0b300ad
:104e9000ceeab70004c9bf00e14f50000a003a0053
:104ea000d621ef00eaf70700b20007009e49a800ec
:104eb000882aef009a29ef0020c0b30004e9b70068
:104ec00030c0b300ceeab7004f0478000080fa008b
:104ed000000006000000fa00881f7800a448800047
:104ee000b548800090408000a140800018c0b30009
:104ef0000001be000400be004f0407000000e000f7
:104f000001003d000044eb000804e0000300320013
:104f10007000200060ff07008d000700a44880009b
:104f2000b5488000f04080000141800018c0b30007
:104f30000001be000400be003d0407000000e000c8
:104f4000010035000044eb000804e00008003200d6
:104f5000d116800000102000008060000000e000fa
:104f600003003a00400020004bff070027f807002d
:104f700084498000954980001043800021438000cf
:104f800018c0b3000001be000400be002a040700e0
:104f90000000e00001003c000044eb000804e000d9
:104fa00003003200800020003bff0700680007007c
:104fb000c4498000d54980003043800041438000cf
:104fc00018c0b3000001be000400be001a040700b0
:104fd0000000e00001003c000044eb000804e00099
:104fe00003003200900020002bff0700580007004c
:104ff000a4498000b54980003043800041438000cf
:1050000018c0b3000001be000400be000a0407007f
:105010000000e00001003c000044eb000804e00058
:1050200003003200a00020001bff0700480007001b
:105030009fc9bf00684060000004e000010032002a
:105040005afb07004f0478000080fa0000000600b9
:105050000000fa00881f78006049800071498000d4
:1050600018c0b3006011b800f10307000000e000b1
:10507000010035000044eb000804e00006003200a7
:10508000604980007149800001f0a200e04a880078
:10509000f14a8800030037006000b800e04a880049
:1050a000f14a880090418000a1418000e24a8000de
:1050b000f34a800018c0b300dd0307000000e000e1
:1050c000010035000044eb000804e0000a00320053
:1050d00050548000e50f5000040034001c0007000d
:1050e0008a2aef0050002000ebfe07005054800099
:1050f0000000e80050548800604980007149800039
:10510000b2558000c355800018c0b300ca03070021
:105110000000e00001003c000044eb000804e00057
:10512000030032000a00070060002000dafe0700da
:105130009fc9bf00684060000004e0000100320029
:105140001afb07004f0478000080fa0000000600f8
:105150000000fa0007000700a2a9a8009ea9a90064
:105160009e49a900b0002000cbfe07000080fa0095
:10517000000006000000fa00da21ef00dc22ef0058
:10518000c841a900d621ef00d821ef00d622a900fe
:1051900030c0b300cfeab700e202a900e2c2a90022
:1051a00030c0b300d0eab700d1e2a90030c0b300ec
:1051b000ceeab700cb02a9009a29ef009829ef00a8
:1051c0009629ef006000b8003055880041558800ee
:1051d0006000b80010558800215588000080fa0052
:1051e000000006001000fa00889fbe00008fbe007d
:1051f0002207980033079800440798005507980045
:1052000066079800770798008049800091498000e0
:1052100018c0b3002e019000be0190008403070067
:105220000000e000010035000044eb000804e0004d
:105230000f00320080498000914980001e01be00ad
:10524000db0207000004be001e01be002e0090001d
:10525000be009000d60207000001be000800be009c
:1052600031030700d0558800e1558800230037003e
:10527000804980009149800018c0b3006e01900001
:10528000fe0190006c0307000000e00001003c00fc
:105290000044eb000804e000150032008049800063
:1052a000914980004e019000de019000c00207008d
:1052b0000004be0009f0a2004e019000de01900043
:1052c0006e009000fe009000b90207000001be00d1
:1052d0000800be00140307000200200003f82300aa
:1052e000b4020700d0558800e1558800030037005c
:1052f0000000200001f823001c003700d05580007a
:10530000e155800018c0b3000200200003f823001c
:10531000490307000000e00001003c000044eb00ee
:105320000804e000030032000000200001f8230020
:105330000e003700d0558000e155800018c0b30042
:105340006011b8003a0307000000e00001003500da
:105350000044eb000804e000020032006000b800e6
:1053600002003700d0558000e15580004f04be0098
:105370000080fa00000006000000fa00889fbe00ce
:105380008a9fbe0014418000254180004047800074
:10539000514780000001be000400be00bc030700ae
:1053a0000005be00d4428000e5428000b242800089
:1053b000c342800090428000a14280007842800079
:1053c000894280000403be000202be000001be004c
:1053d0000800be0083ff07000001be000a00be00f7
:1053e000ab0307007054880081548800304180006e
:1053f00041418000725480008354800018c0b30083
:105400000d0307000000e00001003c000044eb0039
:105410000804e00004003200304180004141800077
:105420007054880081548800c4468000d5468000ae
:1054300040478000514780000001be000400be00cc
:105440005b020700f055880001568800f055800087
:105450000156800018c0b300d2cc2c00c3e4230056
:10546000f30207000000e000010035000044eb00fb
:105470000804e00004003200d0cc2c00c1e423007a
:10548000f05588000156880050418000614180003d
:10549000f2558000035680007d0307000005be0022
:1054a0003442800045428000124280002342800046
:1054b000f041800001428000d8418000e941800035
:1054c0000403be000202be000001be000800be00d0
:1054d00044ff07000001be000a00be006c03070085
:1054e00090548800a15488004f05be004f04be00b0
:1054f0000080fa00000006000000fa00889fbe004d
:1055000000178000620060000000e000040032002c
:105510009ec9bf000042b2000004e000e500320076
:10552000d622a800cb02a800cfcabf00e34f50008c
:1055300002003a0020c0b300cfeab700d1168000c5
:1055400000102000008060000000e00003003a002e
:10555000f042800001438000aa010700cfcabf00cb
:105560000004e000de003a00844980009549800094
:10557000b0428000c14280000001be000400be00b5
:105580000b0207000002be00f056800001578000a9
:105590000001be000400be003d0307000002be0083
:1055a000d0548000e15480000001be000400be0021
:1055b000370307000002be0050558000615580008f
:1055c0000001be000400be00fa010700505588002b
:1055d00061558800b0408000c14080005255800075
:1055e0006355800018c0b300910207000000e0007e
:1055f000010035000044eb000804e0000500320023
:10560000b0408000c140800050558800615588003e
:105610000f003700d0408000e140800052558000ec
:105620006355800018c0b300830207000000e0004b
:1056300001003c000044eb000804e00004003200dc
:10564000d0408000e14080005055880061558800be
:10565000a0488000b148800052558000635580000a
:10566000d30107000002be00d0568000e156800042
:105670000001be000400be00050307000002be00da
:10568000d0548000e15480000001be000400be0040
:10569000ff0207000002be00305580004155800027
:1056a0000001be000400be00c201070030558800a2
:1056b0004155880034558000455580007054800065
:1056c0008154800018c0b3000001be000400be0079
:1056d000590207000000e00001003c000044eb001c
:1056e0000804e000050032007054800081548000fe
:1056f00030558800415588000d0037003055800036
:105700004155800018c0b3006011b800480207007e
:105710000000e000010035000044eb000804e00058
:10572000030032006000b800305588004155880001
:1057300038558000495580006049800071498000db
:1057400066f007000001be000800be0098010700d7
:105750000002be00b0568000c15680000001be00ad
