:020000040000fa
:080000000001040000000000f3
:020000040000fa
:0400080012240000be
:020000040000fa
:04000c00de0c000006
:020000040000fa
:04001000240d0000bb
:020000040000fa
:040014004c0d00008f
:020000040000fa
:04001800740d000063
:020000040000fa
:04001c0012240000aa
:020000040000fa
:0400200012240000a6
:020000040000fa
:040024009c0d00002f
:020000040000fa
:04002800c80100000b
:020000040000fa
:04002c00122400009a
:020000040000fa
:040030001224000096
:020000040000fa
:0400340006060000bc
:020000040000fa
:04003800122400008e
:020000040000fa
:04003c00122400008a
:020000040000fa
:04004000540a00005e
:020000040000fa
:040044001a0300009b
:020000040000fa
:04004800122400007e
:020000040000fa
:04004c008605000025
:020000040000fa
:040050009a0500000d
:020000040000fa
:040054003003000075
:020000040000fa
:04005800122400006e
:020000040000fa
:04005c00122400006a
:020000040000fa
:040060001224000066
:020000040000fa
:040064001224000062
:020000040000fa
:04006800d2020000c0
:020000040000fa
:04006c00122400005a
:020000040000fa
:040070001224000056
:020000040000fa
:040074001224000052
:020000040000fa
:04007800122400004e
:020000040000fa
:04007c00122400004a
:020000040000fa
:040080001224000046
:020000040000fa
:040084001224000042
:020000040000fa
:0400880090050000df
:020000040000fa
:04008c00ce0500009d
:020000040000fa
:040090001224000036
:020000040000fa
:040094001224000032
:020000040000fa
:04009800122400002e
:020000040000fa
:04009c00122400002a
:020000040000fa
:0400a0001224000026
:020000040000fa
:0400a4001224000022
:020000040000fa
:0400a800122400001e
:020000040000fa
:0400ac00122400001a
:020000040000fa
:0400b0001224000016
:020000040000fa
:0400b4001224000012
:020000040000fa
:0400b800122400000e
:020000040000fa
:0400bc00122400000a
:020000040000fa
:0400c0001224000006
:020000040000fa
:0400c4001224000002
:020000040000fa
:0400c80012240000fe
:020000040000fa
:0400cc0012240000fa
:020000040000fa
:0400d00012240000f6
:020000040000fa
:0400d400b60c000066
:020000040000fa
:0400d80012240000ee
:020000040000fa
:0401080012240000bd
:020000040000fa
:04010c0012240000b9
:020000040000fa
:0401100012240000b5
:020000040000fa
:0401140012240000b1
:020000040000fa
:0401180012240000ad
:020000040000fa
:04011c0012240000a9
:020000040000fa
:0401200012240000a5
:020000040000fa
:0401240012240000a1
:020000040000fa
:04012800122400009d
:020000040000fa
:04012c001224000099
:020000040000fa
:040130001224000095
:020000040000fa
:040134001224000091
:020000040000fa
:04013800122400008d
:020000040000fa
:04013c001224000089
:020000040000fa
:040140001224000085
:020000040000fa
:040144001224000081
:020000040000fa
:04014800122400007d
:020000040000fa
:04014c001224000079
:020000040000fa
:040150001224000075
:020000040000fa
:040154001224000071
:020000040000fa
:04015800122400006d
:020000040000fa
:04015c001224000069
:020000040000fa
:040160001224000065
:020000040000fa
:040164001224000061
:020000040000fa
:04016800122400005d
:020000040000fa
:04016c001224000059
:020000040000fa
:040170001224000055
:020000040000fa
:040174001224000051
:020000040000fa
:04017800122400004d
:020000040000fa
:04017c001224000049
:020000040000fa
:040180001224000045
:020000040000fa
:040184001224000041
:020000040000fa
:04018800122400003d
:020000040000fa
:04018c001224000039
:020000040000fa
:040190001224000035
:020000040000fa
:040194001224000031
:020000040000fa
:04019800122400002d
:020000040000fa
:04019c001224000029
:020000040000fa
:0401a0001224000025
:020000040000fa
:0401a4001224000021
:020000040000fa
:0401a800122400001d
:020000040000fa
:0401ac001224000019
:020000040000fa
:0401b0001224000015
:020000040000fa
:0401b4001224000011
:020000040000fa
:0401b800122400000d
:020000040000fa
:0401bc001224000009
:020000040000fa
:0401c0001224000005
:020000040000fa
:0401c4001224000001
:020000040000fa
:0401c80012240000fd
:020000040000fa
:0401cc0012240000f9
:020000040000fa
:0401d00012240000f5
:020000040000fa
:0401d40012240000f1
:020000040000fa
:0401d80012240000ed
:020000040000fa
:100200006fa720000ebf20000e0188000000000034
:10021000000020000000e000020032000001200089
:100220002002880014000700801107000000e00091
:1002300003003a000096220001002000020037006f
:100240000000200001002000810f7000010032003a
:1002500014000700000020000000e000020032004f
:1002600000000200000000008623020000000000e1
:100270000040da000000fe004440a900c01b20003e
:100280000000e0000300320000002000a001880010
:100290004440a800000006008a1f78008b1f7800e9
:1002a0000000060091018800800478000000eb0047
:1002b0001a003700e284440032a0b4009905ba0065
:1002c000e284440032a0b4009906ba00e2844400fb
:1002d00032a0b4000006eb00476fde00fd07b2005d
:1002e000636ce10003003a00ebff07000000eb0045
:1002f0000a003700606ce10004003a00005deb008a
:100300008b05e900fdff3e00040037006168e10055
:10031000010032000086eb000b00070019c7ba008d
:100320001905ba000e04e00003003a000a00e000dc
:10033000e0ff3a0000000600fe07b2009e018800c0
:100340008a047800f5ff3700395dba008b05e900b3
:100350000c003200295dba008b05e900080032006c
:100360000c00e00003003a00e284440032a0b40034
:10037000f5ff370019ddba008b05e900faff3a00f6
:100380008904e800e184440032a0b40000000600c3
:100390003600f800809fbe00829fbe00849fbe0092
:1003a000869fbe00881f78000000fa00c8c2a8001f
:1003b0006000b800c0478800d147880070408000c6
:1003c0008140800018c0b3000200200003f8230021
:1003d000b91107000000e00001003c000044eb0000
:1003e0000804e000060032000000200001f82300ad
:1003f0007040880081408800c0012000360b070053
:1004000070408000814080006011b800a811070092
:100410000000e00005003a00b0408000c1408000cc
:1004200030478800414788002829ef00b04b800002
:10043000e10f50001e00320010458000e90f50000f
:100440001b003c00104580000000e80010458800bb
:100450001000200040498800b4408000c540800062
:10046000d0408000e14080000001be000400be00da
:10047000ef1007000002be00704080008140800045
:100480000001be000400be00211207000002be00f1
:10049000d0408000e14080000001be000400be00aa
:1004a000e410070030478800414788000c003700ff
:1004b000b04b8000e10f5000090032001045800071
:1004c000e90f500006003400a228ef002829ef00b1
:1004d000b0408000c140800030478800414788001c
:1004e000a0478000e20f5000160032000017800085
:1004f000620060000000e00012003200904b8000bb
:100500000000e0000f003a00b04b80000000e00067
:100510000c003a00804b80000000e00009003a0027
:1005200010002000704b8800a0478000e50f5000ad
:100530000200320010002000a047880010002000b8
:10054000b04b880000178000620060000000e000ef
:1005500009003200904b80000000e00006003a00e5
:100560006000b80040458800514588006000b80030
:10057000604588007145880010002000704c88009c
:100580008400a9000080fa004f0478004f03be00e9
:100590004f02be004f01be004f00be003600f90002
:1005a000004006003600f800809fbe00829fbe001b
:1005b000849fbe00869fbe000000fa00c8c2a8004b
:1005c000500880008000eb007c1107007049880013
:1005d000814988000a21ef00904980000000e00076
:1005e0000a003200b0438000c143800002002c00aa
:1005f00053402400ec100700020020001356240092
:10060000c31107005049880061498800100020008c
:10061000904988008600a9000080fa004f03be00c0
:100620004f02be004f01be004f00be003600f90071
:1006300000400600809fbe000000fa00c8c2a8006b
:100640006000b80050498800614988003229ef00f5
:1006500084e0a9000080fa004f00be0000400600c0
:100660003600f800809fbe00829fbe00849fbe00bf
:10067000869fbe000000fa00c8c2a800004a8000a1
:10068000e70f5000c7003400304a8000414a800024
:100690000200200003102400c3100700304a880025
:1006a000414a8800304a8000414a80000200200010
:1006b000037024005e100700304a8800414a880019
:1006c000304a8000414a800002002000037024006c
:1006d000b5100700304a8800414a8800304a80003f
:1006e000414a800002002000030224008811070014
:1006f000304a8800414a8800304a8000414a8000e0
:10070000a2702d0033d22300a71007000002be0004
:1007100080478000914780000001be000400be00b9
:1007200044100700e0488800f1488800650b070086
:100730006000b800304a8800414a8800104a8000b2
:10074000214a800002c02c00c37c240096100700c0
:10075000104a8800214a8800144a8000254a8000f7
:10076000f0458000014680000001be000400be008c
:100770008d1007000002be005040800061408000e4
:100780000001be000400be002a1007008048880057
:10079000914888006000b800104a8800214a88000b
:1007a000504a8000614a800002c02c00c37c2400b3
:1007b0007d100700504a8800614a8800504a800036
:1007c000614a8000f2282c0053ef23001810070024
:1007d000504a8800614a8800504a8000614a80007f
:1007e00042722900f3c723006f10070020488800d9
:1007f000314888006000b800504a8800614a88008b
:10080000704a8000814a800002c02c00c37c240012
:1008100065100700704a8800814a8800704a80008d
:10082000814a8000f2282c0053ef230000100700bb
:10083000704a8800814a8800704a8000814a80009e
:1008400042722900f3c72300571007006048880050
:10085000714888006000b800704a8800814a8800aa
:10086000904a8000a14a800002c02c00c37c240072
:100870004d100700904a8800a14a8800904a8000e5
:10088000a14a8000f2282c0053ef2300e80f070054
:10089000904a8800a14a8800904a8000a14a8000be
:1008a00042722900f3c723003f1007004048880028
:1008b000514888006000b800904a8800a14a88002a
:1008c0004048800051488000604888007148880096
:1008d0004029ef00e1528000f05f2500808f50003a
:1008e00007003200504b8000e10f500004003a0036
:1008f000804b80000000e00001003a00970a0700ea
:10090000f04980000000e00017003a00804b8000b2
:100910000000e00014003a00010a0700a047800030
:10092000e20f500003003c00a04780000000e00000
:1009300008003a00b0498000e10f500005003a007d
:10094000704b8000e50f500002003a007806070067
:1009500008003700b04980000000e00004003a00c1
:10096000220b070003003700200b070001003700af
:1009700000000000b04980000000e00006003a00de
:10098000504b8000e10f500003003a00a1e2a900a3
:100990006a29ef005500370010002000504b8800f6
:1009a00052003700504b8000e10f50003d003a00ec
:1009b000001480008000eb00801007000002be00e1
:1009c000104a8000214a80000001be000400be00e1
:1009d000980f0700104a8800214a880010148000f0
:1009e0008000eb00751007000002be00304a800056
:1009f000414a80000001be000400be008d0f0700c8
:100a0000304a8800414a8800201480008000eb00b2
:100a10006a1007000002be00504a8000614a800050
:100a20000001be000400be00820f0700504a88008b
:100a3000614a8800301480008000eb005f100700de
:100a40000002be00704a8000814a80000001be00a2
:100a50000400be00770f0700704a8800814a8800b2
:100a6000401480008000eb00541007000002be001c
:100a7000904a8000a14a80000001be000400be0030
:100a80006c0f0700904a8800a14a8800e15280005c
:100a9000f05f2500808f50001100320041050700f3
:100aa0000f0037006000b800104a8800214a880013
:100ab0006000b800304a8800414a88006000b800f1
:100ac000504a8800614a88006000b800704a880077
:100ad000814a88006000b800904a8800a14a8800d6
:100ae000004a80000000e800004a88008560a900f4
:100af0000080fa004f03be004f02be004f01be004f
:100b00004f00be003600f900004006000000fa0069
:100b1000c8c2a8008520a9000080fa000040060095
:100b20000000fa00c8c2a8008700a9000080fa00ef
:100b300000400600809fbe000000fa00c8c2a80066
:100b400009003700d14e8000e09d20000080400069
:100b5000104078000000fb00d0108800d04e8000cc
:100b60000000e800d04e8800c11080000020200066
:100b7000008060000000e00004003a00d14e8000d8
:100b8000b04e8000808f5000eeff34008540a900f9
:100b90000080fa004f00be0000400600809fbe00ab
:100ba0000000fa00c8c2a8000b003700e04e800029
:100bb0002103200080804000e09d20000080400054
:100bc000104078000000fb00d0108800e04e80004c
:100bd0000000e800e04e8800c110800000202000e6
:100be000008060000000e00004003a00e14e800058
:100bf000c04e8000808f5000ecff34008720a90099
:100c00000080fa004f00be00004006003600f800e9
:100c1000809fbe00829fbe00849fbe00869fbe0054
:100c2000889fbe000200fa00c8c2a800a1e2a80086
:100c3000b04980000000e00006003200f043800070
:100c4000804c8800b003200010538800d442a800d4
:100c500012003700105380000000e0000c003c0040
:100c6000b003200010538800804c80000000e0009a
:100c700003003c0010002000f04988000700370006
:100c8000804c80000000e900804c880003003700a1
:100c9000105380000000e9001053880010498000c4
:100ca0000000e00010003400244980003549800035
:100cb00090418000a141800018c0b3000001be0037
:100cc0000400be007a0f07000000e00001003500bc
:100cd0000044eb000804e0000300320010498000eb
:100ce0000000e90010498800d116800000102000a3
:100cf000008060000000e00003003a00c882a90004
:100d00009a29ef007c29ef00b04980000000e00044
:100d1000290032002448800035488000704380005c
:100d20008143800018c0b3000001be000400be0073
:100d3000610f07000000e00001003c000044eb00f0
:100d40000804e0001a003a0044488000554880003a
:100d5000504380006143800018c0b3000001be0012
:100d60000400be00540f07000000e00001003c003a
:100d70000044eb000804e0000d003a0064488000e5
:100d800075488000504380006143800018c0b30064
:100d90000001be000400be00470f07000000e00095
:100da00001003c000044eb000804e00002003200b7
:100db000e002a80037003700b04980000000e000e2
:100dc0003300320070438000814380000200200025
:100dd000030a2400960e07000002be00204880008f
:100de0003148800018c0b3000001be000400be00fe
:100df000310f07000000e00001003c000044eb0060
:100e00000804e0002300320050438000614380006a
:100e100002002000030a2400850e07000002be0025
:100e2000404880005148800018c0b3000001be0057
:100e30000400be00200f07000000e00001003c009d
:100e40000044eb000804e000120032005043800030
:100e50006143800002002000030a2400740e070092
:100e60000002be00604880007148800018c0b300d6
:100e70000001be000400be000f0f07000000e000ec
:100e800001003c000044eb000804e00001003200d7
:100e9000e002a900fb030700d1168000001020002b
:100ea000008060000000e0000f003a0000178000a2
:100eb000620060000000e0000b003200a0498000ea
:100ec0000000e00008003a00904b80000000e000c5
:100ed00005003a00c04b80000000e00002003a002c
:100ee00010002000c04b8800c04980000000e000d6
:100ef0000d003200a04b8000e10f500003003a00cb
:100f00007429ef00c8a2a9000800370010002000d3
:100f1000a04b8800c04480000000e00003003200c5
:100f2000c8a2a80001003700c8a2a900d04b8000c9
:100f30000000e0000a003a00704b80000000e00072
:100f400007003a0010002000704b880010002000bd
:100f5000a049880010002000d04b880068003700ae
:100f6000d04b8000e70f500004003c00d04b8000c5
:100f70000000e800d04b880061003700d04b8000b3
:100f8000e80f50005e003a0000498000e10f500079
:100f90005b003a00914c80002000200000017800a6
:100fa000110009008200d8000000e800f2090700e3
:100fb00041652700810f500031003a002445800030
:100fc00035458000c0488000d14880000001be0047
:100fd0000400be00160e070002002000832c24002f
:100fe000710e07000002be00d0448000e144800082
:100ff0000001be000400be00450f0700b00e070050
:10100000000f780088458000994580001e00780018
:10101000cf80de00e60e07000001be000800be0023
:10102000030e07008045880091458800f844800041
:10103000094580001e007800cf80de00dc0e07002e
:101040000001be000800be00f90d0700f044880052
:101050000145880048458000594580001e00780001
:10106000cf80de00d20e07000001be000800be00e7
:10107000ef0d0700404588005145880011003700fa
:101080007041800081418000d0448800e1448800a4
:10109000c0488000d148800002002000832c24003a
:1010a000410e07000002be007041800081418000b7
:1010b0000001be000400be00150f07008045880037
:1010c0009145880090002000d04b88003429ef0023
:1010d0008400a900ff3ffc008c00a800d11680000e
:1010e00000102000008060000000e00004003200da
:1010f000704c80000000e00001003a008400a8006d
:1011000018040700404580005145800018c0b30016
:101110006011b800660e07000000e0000100350015
:101120000044eb000804e000060032004045800067
:101130005145800001f0a200f0448800014588007c
:10114000040037004045800051458000f04488008d
:1011500001458800c0488000d148800018c0b30015
:1011600002002000632c2400530e07000000e00062
:1011700001003c000044eb000804e00010003200d5
:10118000f0528000e40f50000d003200d044800087
:10119000e14480008045880091458800400020009f
:1011a000f05288006000b800404588005145880032
:1011b0006000b8006045880071458800480037002d
:1011c000c0488000d148800018c0b3000200200051
:1011d000632a2400360e07000000e00001003500fd
:1011e0000044eb000804e0001e003200c04880000c
:1011f000d148800018c0b30002002000232a240038
:101200002d0e07000000e00001003c000044eb0050
:101210000804e00013003200f0528000e40f500098
:1012200003003200f05280000000e0000d003a00a0
:10123000f044800001458000d0448800e1448800eb
:10124000d0448000e14480000001be00790d070019
:10125000d0448800e144880020002000f05288003b
:101260001f003700c0488000d148800018c0b3007c
:101270000200200003f823000d0e07000000e0002c
:10128000010035000044eb000804e00014003200c7
:10129000f05280000000e00011003200f0448000b5
:1012a00001458000d0448800e14488006000b80017
:1012b00080458800914588006000b800a0458800fe
:1012c000b14588005e2aef006000b8004045880004
:1012d000514588006000b80060458800714588006d
:1012e000804580009145800018c0b3006011b800af
:1012f000ef0d07000000e000010035000044eb00a6
:101300000804e000060032006000b8008045880054
:10131000914588006000b800a0458800b14588006c
:10132000d0448000e1448000a2702d0033ba230035
:10133000400d07000002be008045800091458000fe
:1013400018c0b3000001be000400be00d80d0700a5
:101350000000e000010035000044eb000804e0005c
:1013600007003200d0448000e1448000a2702d00cc
:1013700033ba23002f0d070080458800914588006f
:101380007440800085408000b0408000c1408000f3
:101390000001be000400be005d0e07000002be009a
:1013a000804880009148800018c0b3000001be0052
:1013b0000400be00c00d07000000e00001003c007a
:1013c0000044eb000804e0001f00320040498000a8
:1013d0000000e0001c003200d4448000e54480009e
:1013e00070408000814080000001be000400be000b
:1013f000470e07000002be00804580009145800036
:1014000018c0b3000001be000400be00a80d070014
:101410000000e000010035000044eb000804e0009b
:1014200009003200d4448000e54480007040800010
:10143000814080000001be000400be00340e0700a1
:101440008045880091458800b04980000000e00098
:101450000c003a008845800099458000d043800008
:10146000e14380003284290013992300280e0700ed
:101470000001be000800be00ed0c0700804588009a
:10148000914588008460a9000080fa004f04be00e6
:101490004f03be004f02be004f01be004f00be0012
:1014a0003600f900004006003600f800809fbe00bc
:1014b000829fbe00849fbe00869fbe00881f78006a
:1014c0000400fa00c8c2a8006000b800008fbe0087
:1014d000d05280000000e00006003400d0528000ae
:1014e000e30f500003003200d05280000000e900fa
:1014f000d0528800c05280000000e0000600340096
:10150000c0528000e30f500003003200c052800040
:101510000000e900c0528800b05280000000e000e6
:1015200006003400b0528000e30f50000300320088
:10153000b05280000000e900b0528800b04a80003c
:10154000e70f500011003400104b8000214b800049
:101550000200200003102400130d0700104b880028
:10156000214b8800104b8000214b8000d04a88001e
:10157000e14a88006000b800104b8800214b8800c9
:101580005629ef00440307000c003700144b80007d
:10159000254b8000e0488000f14880000001be003b
:1015a0000400be00a30c0700104b8800214b8800ec
:1015b000b04a80000000e800b04a8800c04a8000bd
:1015c000e70f500010003400304b8000414b80008a
:1015d0000200200003102400f30c0700304b8800a9
:1015e000414b8800304b8000414b8000f04a88001e
:1015f000014b88006000b800304b8800414b8800e8
:101600005829ef000c003700344b8000454b800018
:1016100080488000914880000001be000400be00a8
:10162000840c0700304b8800414b8800c04a800082
:101630000000e800c04a8800d44a8000e54a8000e3
:10164000f04a8000014b80000001be000400be0093
:10165000af0d0700008fbe0018c0b3006011b800c6
:101660001e00be00120d07000000e0000100350062
:101670000044eb000804e000030032001e00be003e
:1016800001f0a200008fbe00c0478000d14780005b
:1016900018c0b3000001be001e00be00060d07000a
:1016a0000000e00001003c000044eb000804e00002
:1016b0000b0032001e01be00c2478800d3478800dd
:1016c000f04a8000014b8000e0478800f147880025
:1016d000d04a8000e14a8000004888001148880014
:1016e000e0488000f148800018c0b300f2262100d5
:1016f00033b02300f00c07000000e00001003c00c4
:101700000044eb000804e0000b003a00e0488000d1
:10171000f148800018c0b300f226210033b02b003e
:10172000e30c07000000e000010035000044eb007e
:101730000804e0008400320024528000355280000a
:10174000e0488000f14880000001be000400be00b7
:101750006f0d07000002be006045800071458000eb
:101760000001be000400be00320c07006045880086
:10177000714588002452800035528000e048800086
:10178000f14880000001be000400be00600d0700ab
:101790000002be00a0458000b14580000001be00ef
:1017a0000400be00230c0700a0458800b145880056
:1017b000604580007145800018c0b300f22621000a
:1017c00033a82300bc0c07000000e00001003c002f
:1017d0000044eb000804e0000f0032006045800088
:1017e00071458000f226210033a82300100c070069
:1017f0006045880071458800404580005145800063
:10180000f226210033a823000a0c07004045880077
:1018100051458800190037006045800071458000ff
:1018200018c0b300f226210033a82b00a00c07003b
:101830000000e000010035000044eb000804e00077
:101840000e0032006045800071458000f2262100c4
:1018500033a82300f70b0700604588007145880016
:101860004045800051458000f226210033a8230026
:10187000ef0b07004045880051458800a0458000d7
:10188000b145800018c0b300f226210033a8230020
:10189000890c07000000e00001003c000044eb0060
:1018a0000804e0000f003200a0458000b145800030
:1018b000f226210033a82300dd0b0700a045880095
:1018c000b14588008045800091458000f2262100c6
:1018d00033a82300d70b0700804588009145880076
:1018e00019003700a0458000b145800018c0b30042
:1018f000f226210033a82b006d0c07000000e00049
:10190000010035000044eb000804e0000e00320046
:10191000a0458000b1458000f226210033a82300b5
:10192000c40b0700a0458800b145880080458000b1
:1019300091458000f226210033a82300bc0b07004c
:10194000804588009145880084c0a9000080fa0085
:101950004f0478004f03be004f02be004f01be008f
:101960004f00be003600f900004006003600f800c7
:10197000809fbe00829fbe00849fbe00869fbe00e7
:101980000000fa00c8c2a8001807070010002000d5
:10199000804b8800c0002000cf0507008960a900a7
:1019a0000080fa004f03be004f02be004f01be0090
:1019b0004f00be003600f900004006003600f80077
:1019c000809fbe00829fbe00849fbe00869fbe0097
:1019d0000000fa00113a8000000220000080600040
:1019e0000000e00005003a00004c80000000e0002c
:1019f00002003a0020012000b7050700c8c2a80075
:101a0000fa06070010002000804b8800004c800080
:101a10000000e00002003a00d0002000ae05070000
:101a200010002000004c88008020a9000080fa00ef
:101a30004f03be004f02be004f01be004f00be006c
:101a40003600f900004006003600f800809fbe0016
:101a5000829fbe00849fbe00869fbe000000fa00e9
:101a6000c8c2a800e106070010002000804b8800d3
:101a7000e0002000980507008060a9000080fa00bf
:101a80004f03be004f02be004f01be004f00be001c
:101a90003600f900004006003600f800809fbe00c6
:101aa000829fbe00849fbe00869fbe000000fa0099
:101ab000c8c2a800cd06070010002000804b880097
:101ac000f0002000840507008040a9000080fa0093
:101ad0004f03be004f02be004f01be004f00be00cc
:101ae0003600f900004006003600f800809fbe0076
:101af000829fbe00849fbe00869fbe000000fa0049
:101b0000c8c2a800b906070010002000804b88005a
:101b100000012000700507008080a9000080fa0005
:101b20004f03be004f02be004f01be004f00be007b
:101b30003600f900004006003600f800809fbe0025
:101b4000829fbe00849fbe00869fbe000000fa00f8
:101b5000c8c2a800a506070010002000804b88001e
:101b6000100120005c0507000080fa004f03be0052
:101b70004f02be004f01be004f00be003600f9000c
:101b8000004006000400fa00100798000000eb0077
:101b9000000f7800180037001e0090001e00400063
:101ba000ae06070000000000013b80000000280096
:101bb000008060000000e000fbff3a001e0078009b
:101bc00080004000008020000080400090007800ed
:101bd0001e0090001e004000c1060700000000002b
:101be000013b800000002800008060000000e00051
:101bf000fbff3a001e0fe800914c800020002000ff
:101c000000017800110009008200d8009e0f5000ea
:101c1000e1ff3d001e0078000080fa000000060091
:101c20000400fa00100798000000eb00000f780095
:101c30000a0037001e0090001e004000ce0607007c
:101c4000800078001e007800000140000080200025
:101c500000004100010878001e0fe800914c800050
:101c60002000200000017800110009008200d80047
:101c70009e0f5000efff3d000080fa0000000600bc
:101c80000400fa00100798000000eb00000f780035
:101c9000200037001e0090001e0040006f06070065
:101ca00000000000013b8000000028000080600070
:101cb0000000e000fbff3a001e0078000000e0009a
:101cc00005003a001e0090001e00400041652700fc
:101cd00083060700090037001e00780080004000de
:101ce0002088200000804000900078001e009000b6
:101cf0001e0040007a06070000000000013b800043
:101d000000002800008060000000e000fbff3a00b7
:101d10001e0fe800a14c8000200020000001780088
:101d2000110009008200d8009e0f5000d9ff3d002d
:101d30001e0078000080fa00000006000400fa008f
:101d4000100798000000eb00000f78000a00370031
:101d50001e0090001e0040008706070080007800eb
:101d60001e00780000014000208820000000410093
:101d7000010878001e0fe800a14c80002000200020
:101d800000017800110009008200d8009e0f500069
:101d9000efff3d000080fa00000006000400fa009a
:101da0000000eb00000f78000000eb001007980027
:101db00000802000000f78000088200010079800a5
:101dc0001e0090001e0050000080fa000000060077
:101dd0000400fa000000eb00000f78000000eb00a8
:101de0001007980020882000000f7800808b2000ca
:101df000100798001e0090001e0050000080fa009e
:101e0000000006000000fa00c0488000d1488000b1
:101e10002045880031458800914c8000200020003a
:101e200000017800110009008200d8000000e800dd
:101e300093ff0700d442a9000080fa0000000600ca
:101e40000000fa0003003700f04b80000000e800bb
:101e5000f04b8800f04b8000e30f4000faff3600a3
:101e60001152800050a52a00808f500001003a00d6
:101e70008900070050a52a00105288000080fa004f
:101e8000000006000000fa00d116800000102000bb
:101e9000008060000000e0000d003a0000178000a4
:101ea000620060000000e00009003200a0498000ec
:101eb000e10f500006003200904b8000e10f50000f
:101ec00003003200b04b8000e10f500023003a00c5
:101ed00010002000c0498800604c80000000e00035
:101ee00004003200504c800065004000504c8800d7
:101ef0008c29ef00c04b8000e10f500003003a0036
:101f00007029ef008029ef007829ef00804b8000d6
:101f10000000e00007003a0010002000b0498800ef
:101f2000d04980000000e00019003a0026080700b0
:101f30001a003700ad0507003629ef009c29ef0095
:101f40009a29ef009829ef00e04980000000e000a6
:101f500011003a00fe0807001000370010002000b2
:101f6000604c8800a10507003829ef003629ef00f2
:101f70009c29ef009a29ef009829ef00e0498000a2
:101f80000000e00005003a00f108070003003700f8
:101f90000000000001003700000000000080fa008f
:101fa000000006000000fa0000148000e30f40006b
:101fb00003003600d0012000470407008005070019
:101fc00000148000e10f500003003e00e0012000fb
:101fd000410407007a05070010148000e30f400059
:101fe00003003600f00120003b04070074050700e1
:101ff00010148000e10f500003003e00000220009a
:10200000350407006e05070020148000e30f400030
:1020100004003600100220002f04070050002000aa
:10202000a047880020148000e10f500004003e000b
:10203000200220002804070050002000a04788004c
:1020400030148000e30f4000020036003002200010
:102050002104070030148000e10f500002003e0010
:10206000400220001c04070040148000e30f4000e1
:1020700002003600500220001704070040148000c0
:10208000e10f500002003e00600220001204070031
:102090000080fa00000006000000fa00003a80000c
:1020a000620060000000e000030032004027a90049
:1020b0003001200008040700003a80007000600032
:1020c0000000e000030032004087a900400120002a
:1020d00001040700013a8000000028000080600031
:1020e0000000e0000300320041e7a9005001200099
:1020f000f9030700013a800000002400008060001e
:102100000000e0000300320041c7a9006001200088
:10211000f1030700013a8000000820000080600001
:102120000000e0000300320040e7a9007001200039
:10213000e9030700013a80000004200000806000ed
:102140000000e0000300320040c7a9008001200029
:10215000e103070090012000df0307000080fa0080
:10216000000006000000fa00889fbe00d0408000fa
:10217000e14080000200200003002400ac090700b9
:102180000002be00804880009148800018c0b30063
:102190000001be000400be00470a07000000e00086
:1021a00001003d000044eb000804e00004003200a0
:1021b0006000b800c0488800d1488800330037006c
:1021c000e0488000f148800018c0b300d2cc2c0059
:1021d000c3d42300360a07000000e00001003500e8
:1021e0000044eb000804e00028003200e0488000d2
:1021f000f148800018c0b300d2cc2c00c3d42b000f
:102200002d0a07000000e00001003c000044eb0044
:102210000804e0001d0032008048800091488000e2
:10222000a0488800b1488800a4488000b5488000d4
:10223000d0408000e14080000001be000400be00ec
:102240007b0907000004be00b4408000c540800048
:10225000d0408000e14080000001be000400be00cc
:10226000730907000001be000800be00ce09070088
:1022700002002000832c2400a50a0700c048880023
:10228000d148880010002000004988004f04be009b
:102290000080fa00000006000400fa006000b800a8
:1022a000008fbe00d04a8000e14a800001f0a20009
:1022b000008fbe00704b8000e40f50000f003a000a
:1022c000d0438000e14380000001be001e00be003c
:1022d0005709070080478800914788005000200078
:1022e000704b8800a0478000e50f500002003200cc
:1022f00010002000a04788003429ef00704b8000b8
:10230000e10f500008003a006000b80080478800e4
:1023100091478800b504070040002000704b8800fa
:1023200010002000a04988000080fa00000006008c
:102330002000fa00881f78006000b800008fbe00ff
:102340006000b80020079800310798006000b800ce
:1023500040079800510798006000b8006007980097
:1023600071079800e2488000f34880004207980017
:1023700053079800e2488000f34880006207980005
:10238000730798000000200001f82300f046880041
:10239000014788002448800035488000d0428000f2
:1023a000e142800018c0b3000001be000400be007e
:1023b000c10907000000e00001003c000044eb0000
:1023c0000804e0000d003a002448800035488000f1
:1023d00090428000a142800018c0b3000001be00fe
:1023e0000400be00b20907000000e0000100350053
:1023f0000044eb000804e00004003200d0cc2c00c4
:10240000c1f42300f046880001478800244880007a
:1024100035488000704280008142800018c0b300bf
:102420000001be000400be00a10907000000e0009a
:10243000010035000044eb000804e0000400320015
:102440000000200001f02300f046880001478800ca
:102450001441800025418000804580009145800026
:102460000001be000400be00290a07000002be00f1
:10247000f0468000014780000001be000400be005d
:10248000230a0700008fbe003041800041418000d8
:1024900018c0b3000001be001e00be008409070082
:1024a0000000e000010035000044eb000804e000fb
:1024b0000d003a00244880003548800070428000ba
:1024c0008142800018c0b3000001be000400be00bd
:1024d000770907000000e000010035000044eb0030
:1024e0000804e000030032003241800043418000d4
:1024f000028fbe0018c0b3006011b8004e009000fb
:10250000de0090006a0907000000e00001003500cd
:102510000044eb000804e000060032004e0090008a
:10252000de00900001f0a2004007980051079800db
:10253000030037006000b80040079800510798007a
:102540000000200001f82300f046880001478800c1
:10255000244880003548800030428000414280009d
:1025600018c0b3000001be000400be0052090700fd
:102570000000e00001003c000044eb000804e00023
:102580000d003a002448800035488000f04180006a
:102590000142800018c0b3000001be000400be006c
:1025a000430907000000e000010035000044eb0093
:1025b0000804e00004003200d0cc2c00c1f4230059
:1025c000f046880001478800544180006541800042
:1025d00070418000814180000001be000400be0007
:1025e000cb0907000002be00f046800001478000d2
:1025f0000001be000400be00c509070020079800c6
:10260000310798002448800035488000104280003f
:102610002142800018c0b3000001be000400be00cb
:10262000250907000000e00001003c000044eb0029
:102630000804e0000d003a0024488000354880007e
:10264000d0418000e141800018c0b3000001be000d
:102650000400be00160907000000e000010035007c
:102660000044eb000804e000030032006000b80002
:10267000200798003107980018c0b3006011b80017
:102680006e009000fe009000090907000000e000c5
:10269000010035000044eb000804e00003003200b4
:1026a0006000b80060079800710798007629ef0075
:1026b000d116800000102000008060000000e000c3
:1026c000ff003200d04b8000e90f5000fc003a00c0
:1026d000c882a800804b8000e10f50000600320045
:1026e000e0c2a800d0528000e30f500002003a0080
:1026f00020002000d05288006000b800200f980011
:10270000310f9800304780004147800002002000d0
:1027100003f0230046080700200f9800310f9800af
:10272000e14b8000f0e12400808f50001c003c0051
:102730006011b8006e009000fe009000dc080700f9
:102740000000e00016003a00001780006200600000
:102750000000e000120032008048800091488000b4
:1027600018c0b3002e099000be099000d0080700e1
:102770000000e000010035000044eb000804e00028
:1027800007003200d05280000000e00004003a0050
:10279000e04b80000000e800e04b880015003700a7
:1027a000e14b8000f0e12400808f50000b003400ea
:1027b00000178000620060000000e00007003200a7
:1027c000b00120004402070010002000804b880068
:1027d0007c29ef00e0c2a90006003700e04b800032
:1027e0000000e00003003400e04b80000000e9003e
:1027f000e04b880018c0b300a2702d0033c2230044
:102800006e009000fe009000ab0807000000e000a2
:1028100001003c000044eb000804e00011003a0015
:102820003047800041478000a299290093e12300ae
:10283000ff0707000002be0080488000914880002a
:1028400018c0b3000001be000400be0098080700d5
:102850000000e000010034000044eb000804e00048
:10286000040032005042800061428000d401070021
:102870000c0037006011b8006e009000fe00900060
:102880008b0807000000e00006003a00e04c8000e2
:102890000000e00003003400e04c80000000e9008c
:1028a000e04c88006000b800000f9800110f9800fd
:1028b0003047800041478000d2cc2c00c3d4230095
:1028c000dc0707000002be008048800091488000bd
:1028d00018c0b3000001be000400be007408070069
:1028e0000000e000010035000044eb000804e000b7
:1028f00002003200f628ef00130037003047800056
:1029000041478000d2cc2c00c3d42300c807070065
:102910000002be00804880009148800018c0b300cb
:102920000001be000400be00630807000000e000d4
:1029300001003c000044eb000804e000020032000b
:1029400010002000b0478800b04780000000e00081
:10295000050032002e019000be019000020f980089
:10296000130f9800030037006000b800000f9800b4
:10297000110f9800a0478000e20f50004e00320077
:10298000d05280000000e0004b003a00d04c8000a4
:102990000000e00011003400b0408000c140800021
:1029a000a2702d0033c22300a10707000002be0061
:1029b000804880009148800018c0b3000001be002c
:1029c0000400be003a0807000000e00001003400e7
:1029d0000044eb000804e0000e003a00a2702d0055
:1029e00033c223000e0890009e0890009107070054
:1029f00018c0b3006e019000fe0190002c08070083
:102a00000000e000010035000044eb000804e00095
:102a100004003200d04c80000000e900d04c880057
:102a200023003700d14c800040062000808f5000ea
:102a300011003c00b0408000c140800092c22500df
:102a4000f3d823007a0707000002be008048800008
:102a50009148800018c0b3000001be000400be0011
:102a6000150807000000e00001003c000044eb00f6
:102a70000804e0000b003a0018c0b3000e099000f3
:102a80009e0990006e009000fe009000080807006c
:102a90000000e000010035000044eb000804e00005
:102aa00003003200d04c80000000e800d04c8800c9
:102ab00000000000090037009a29ef0007003700e6
:102ac000c882a9009a29ef00d821ef00e0c2a9002e
:102ad00030002000d05288007c29ef0000178000d1
:102ae000620060000000e00003003200904b8000b4
:102af000e10f50000e013a00d04b8000e90f50006a
:102b000004003200e1528000f05f2500808f500009
:102b100007013a00804b8000e10f500007003200af
:102b2000d422a800c902a800c0528000e30f5000c0
:102b300002003a0020002000c0528800d116800018
:102b400000102000008060000000e00003003a0058
:102b5000f04280000143800019010700e15280002b
:102b6000f05f2500808f500003003a00b04c8000d9
:102b7000c04c8800fb003700c05280000000e0001d
:102b8000f7003a006000b800400f9800510f98001d
:102b90002448800035488000b0428000c142800057
:102ba0000001be000400be0021070700400f98008e
:102bb000510f980080528000915280004e09900081
:102bc000de099000520807000002be003046800077
:102bd000414680000001be000400be004c08070012
:102be0000002be00b0468000c14680000001be0069
:102bf0000400be000f070700b0468800c1468800e9
:102c0000b4468000c5468000b0408000c1408000ce
:102c100018c0b3000001be000400be00a6070700f4
:102c20000000e00001003c000044eb000804e0006c
:102c300005003200b0408000c1408000b0468800ee
:102c4000c146880011003700b4468000c5468000a8
:102c5000d0408000e140800018c0b3000001be00f9
:102c60000400be00920707000000e00001003500ec
:102c70000044eb000804e00004003200d040800073
:102c8000e1408000b0468800c14688006000b8007e
:102c9000600f9800710f980084488000954880006c
:102ca000b0468000c14680000001be000400be00a6
:102cb000df060700600f9800710f980060528000d7
:102cc000715280006e099000fe0990001008070004
:102cd0000002be0030468000414680000001be0078
:102ce0000400be000a0807000002be0090468000f3
:102cf000a14680000001be000400be00cd06070012
:102d000090468800a146880090468000a146800039
:102d100018c0b3001e01be00670707000000e000f6
:102d200001003c000044eb000804e0000400320015
:102d30001e01be0092468800a34688000d003700a1
:102d400090468000a146800018c0b3006011b80012
:102d5000570707000000e000010035000044eb00c9
:102d60000804e000030032006000b80090468800cc
:102d7000a146880094468000a5468000b0418000ae
:102d8000c141800018c0b3000001be000400be00b5
:102d9000490707000000e00001003c000044eb0090
:102da0000804e00004003200b0418000c14180000e
:102db00090468800a146880090468000a146800089
:102dc0004e019000de019000990607000002be004f
:102dd00040528000515280000001be000400be003d
:102de000cb070700504688006146880050468000a7
:102df0006146800018c0b30002002400c3612400b3
:102e00002d0707000000e00001003c000044eb003b
:102e10000804e0000500320000002400c161240025
:102e200050468800614688000f00370050468000f9
:102e30006146800018c0b30002002400c3612c006a
:102e40001b0707000000e000010035000044eb0014
:102e50000804e0000400320000002400c1612c00de
:102e60005046880061468800344680004546800010
:102e700050468000614680000001be000400be0094
:102e8000a30707000002be00704680008146800054
:102e90000001be000400be00660607007046880000
:102ea00081468800704680008146800018c0b300cb
:102eb00002002000e32b2400ff0607000000e000d2
:102ec00001003c000044eb000804e0000500320073
:102ed00000002000e12b2400704688008146880015
:102ee0000d003700704680008146800018c0b30096
:102ef0006011b800ee0607000000e0000100350098
:102f00000044eb000804e000030032006000b80059
:102f100070468800814688007046800081468000a7
:102f2000e706070000007800c04c88000d0037005d
:102f30009829ef00da21ef00dc22ef00c841a90058
:102f40006000b8007046880081468800300020008c
:102f5000c0528800c902a900d422a900010037008c
:102f600000000000b04980000000e00005003a00c9
:102f70009c29ef00d621ef00cfe2a900300020000d
:102f8000b0528800804b8000e10f500002003a00f0
:102f90009601070007003700c841a800e04c8000f8
:102fa000b00e8800d04c8000c00e8800c04c80005d
:102fb000d00e88004f0478000080fa000000060060
:102fc0000400fa00881f7800008fbe00a047800030
:102fd000e30f50003d003a000200200003f0230000
:102fe0001e00be00120607000002be00204880003e
:102ff0003148800018c0b3000001be000400be00cc
:10300000ad0607000000e00001003c000044eb00ba
:103010000804e00011003200e14c8000704780009d
:10302000808f50000d003d00b05280000000e00095
:1030300003003a00e04c80000000e800e04c88000b
:10304000cfe2a800b0528000e30f50001f003a000a
:1030500020002000b05288001c0037000200200031
:1030600003f023001e00be00f20507000002be00b0
:10307000204880003148800018c0b3000001be0025
:103080000400be008a0607000000e00001003500d1
:103090000044eb000804e0000c003200e04c80002b
:1030a0000000e00009003400e04c80000000e9006e
:1030b000e04c8800e04c80000000e00001003c0093
:1030c000cfe2a90030002000b05288004f04780001
:1030d0000080fa00000006000200fa00000f7800ed
:1030e000c0448000e90f500009003c00c04480004b
:1030f0008000400040882000008040001e087800ca
:10310000c04480000000e800c0448800020037008e
:10311000b0002000c04488000080fa0000000600d3
:103120000400fa00881f7800a0478000e20f5000da
:103130006f003a00b0498000e10f50006c003a0087
:103140006000b800008fbe00844880009548800071
:10315000e0488000f14880000001be000400be008d
:10316000eb06070001f0a200008fbe009043800034
:10317000a143800018c0b3000001be001e00be00c5
:103180004b0607000000e000010035000044eb00a2
:103190000804e0004f003200cfe2a800b0528000e7
:1031a0000000e00045003a00704780000000e800a1
:1031b0007047880070478000b00e8800714780001b
:1031c000f0052000808f50000b003400100020001c
:1031d000c1ff070040002000a04788000001eb006d
:1031e0001e00be00d2010700cfe2a900300020007f
:1031f000b0528800ee28ef007147800020032000c5
:10320000808f50001500340018c0b3000200200069
:10321000030024001e00be00250607000000e00099
:10322000010035000044eb000804e0000b00320010
:1032300020002000a8ff070040002000a0478800d1
:103240000001eb001e00be00b9010700cfe2a9009b
:1032500030002000b0528800ee28ef007047800058
:10326000e40f500015003c0018c0b300020020001d
:10327000031224001e00be000f0607000000e0003d
:1032800001003c000044eb000804e0000b003200a9
:103290003000200090ff070040002000a047880079
:1032a0000001eb001e00be00a1010700cfe2a90053
:1032b00030002000b0528800ee28ef00b0528000ad
:1032c000e30f50000a003a0020002000b0528800ae
:1032d0000700370030002000a0478800d621ef000b
:1032e0003429ef00cfe2a90030002000b05288005e
:1032f000a0478000e10f50000e003a00704b8000a4
:10330000e50f50000b003a00d621ef002e03070016
:10331000b600070010002000a0498800ee28ef004a
:103320009c29ef0020002000a047880030002000ea
:10333000b0528800a0478000e40f500004003a001b
:10334000d621ef00ee28ef009c29ef003429ef0092
:103350004f0478000080fa00000006000000fa0028
:10336000881f780084488000954880009040800045
:10337000a140800018c0b3000001be000400be00e0
:10338000cd0507000000e00001003d000044eb0017
:103390000804e00003003200700020004eff070028
:1033a000870007008448800095488000f040800036
:1033b0000141800018c0b3000001be000400be003f
:1033c000bb0507000000e000010035000044eb00f1
:1033d0000804e00008003200d11680000010200030
:1033e000008060000000e00003003a004000200080
:1033f00039ff0700e70307002448800035488000b4
:10340000104380002143800018c0b3000001be00bb
:103410000400be00a80507000000e00001003c0019
:103420000044eb000804e0000300320080002000ac
:1034300029ff07006200070064488000754880008b
:10344000304380004143800018c0b3000001be003b
:103450000400be00980507000000e00001003c00e9
:103460000044eb000804e00003003200900020005c
:1034700019ff0700520007004448800055488000ab
:10348000304380004143800018c0b3000001be00fb
:103490000400be00880507000000e00001003c00b9
:1034a0000044eb000804e00003003200a00020000c
:1034b00009ff0700420007004f0478000080fa006f
:1034c000000006000000fa00881f7800e048800035
:1034d000f148800018c0b3006011b80074050700ff
:1034e0000000e000010035000044eb000804e000ab
:1034f00006003200e0488000f148800001f0a200a0
:103500002049880031498800030037006000b80076
:1035100020498800314988002449800035498000cd
:1035200090418000a141800018c0b3000001be009e
:103530000400be00600507000000e00001003c0040
:103540000044eb000804e0000a003200104980004b
:10355000e50f500004003400190007002229ef0095
:1035600050002000dcfe0700104980000000e80049
:1035700010498800e4488000f5488000104780002a
:103580002147800018c0b3000001be000400be0047
:10359000490507000000e00001003c000044eb008a
:1035a0000804e0000300320005000700600020006e
:1035b000c9fe07004f0478000080fa0000000600f2
:1035c0000000fa000900070010002000804b88006e
:1035d0007229ef003429ef007629ef00b0002000b7
:1035e000bdfe07000080fa00000006000000fa009f
:1035f000da21ef00dc22ef00c841a900d621ef005c
:10360000d821ef00d422a90030002000c052880049
:10361000e002a900e0c2a90030002000d0528800da
:10362000cfe2a90030002000b0528800c902a900f2
:103630009c29ef009a29ef009829ef006000b8005c
:1036400090468800a14688006000b8007046880057
:10365000814688000080fa00000006000400fa009d
:10366000100798000000eb00000f78009e0090000b
:10367000f01f2000808f5000020034001000200056
:10368000150037001e00900000004000000f780079
:103690009e00780000c02f0000804000000f7800de
:1036a000f0072000203b88001e007800103b8800b7
:1036b00040042400003b880050052000303b880077
:1036c000a00a2000303b880000000000000000003d
:1036d00061e7a8000000eb000080fa00000006008f
:1036e0000600fa0010079800210798000000eb0080
:1036f000000f78009e009000f01f2000808f500087
:103700000200340010002000190037001e00900055
:1037100000004000000f78009e00780000c02f00dd
:1037200000804000000f7800f007200010008800a3
:10373000910188002e009000200088001e00780073
:10374000000088000208bb0040002400003b880005
:1037500050052000303b8800a00a2000303b880044
:10376000000000000000000061e7a8000000eb007e
:103770000080fa00000006000400fa00100798001c
:103780000000eb00000f78009e009000f01f20006a
:10379000808f5000020034000000eb000f00370063
:1037a0001e00900000004000000f78009e0078008e
:1037b00000c02f0000804000000f7800f0c7b30069
:1037c00032e0b7001e007800000088001002ba0046
:1037d0000000000000000000400080000080fa00af
:1037e000000006000600fa00200798000040eb00e9
:1037f000004f78000000eb00100798002e009000aa
:103800006f006000100798001e009000e90f500044
:1038100005003c001e009000004078000043b0000e
:10382000004f7800040037001e0090000040780030
:103830007043b000004f78001e4078000080fa000e
:10384000000006000600fa00100798002107980003
:103850000000eb00000f78002d0037002e009000d4
:1038600080004000a09d2000008040009000780073
:10387000c0022000808f50000b003c002e00900002
:1038800080004000a09d20000080400010007800d3
:103890008000e8002e00900000014000a09d200064
:1038a00000004100010878002e00900080004000d8
:1038b000a09d200000804000900178001e0078004c
:1038c0009e0090000080400010417800ae00900003
:1038d000200320000088b900000078008300400029
:1038e000e09d200000804000024878001e0fe800a4
:1038f0002e0090000000e00005003a00a00120002a
:10390000f5fd07000000eb00000f7800060037000f
:103910001e0078009e00900000804000104078005b
:103920000004e000cdff3a000080fa00000006002d
:103930001000fa00881f780050079800610798006f
:10394000720798000000eb00000f78006000b800dc
:1039500010079800210798000000eb00400798002e
:103960007e0090006700b90080007800809c2000f5
:103970000080400001c2b3000148780018c0b300c5
:103980006011b8005e009000ee009000480407004f
:103990000000e000010035000044eb000804e000f6
:1039a0000c0032005e009000ee00900001f0a200da
:1039b00050079800610798007e0090006700b900ea
:1039c00080007800809c200000804000d1c2b300bd
:1039d0000148780018c0b300f2ff2300c36124003f
:1039e0005e009000ee009000330407000000e0004d
:1039f00001003c000044eb000804e0000b00320032
:103a0000f0ff2300c161240050079800610798006f
:103a10007e0090006700b90080007800809c200044
:103a200000804000f1c3b30001487800020020008c
:103a3000a34724005e009000ee009000da03070028
:103a400010079800210798001e0fe8002700370094
:103a50001e007800e50f500008003a007e0090003c
:103a60006700b90080007800d09c200000804000f2
:103a7000e1c2b300014878001e0fe8001e0090006c
:103a8000ae0090000e040700400798004e00900022
:103a9000004078000043b000004178007e009000b4
:103aa0006700b900000078009e004000809c200064
:103ab00000804000024878001e0fe8004e00900091
:103ac000cf80de003a0407000001be001e00900017
:103ad000ae009000560307000200200003122400ed
:103ae0008b04070010079800210798001e0078003b
:103af000e80f5000d6ff34000000eb00000f780004
:103b00001000200030079800880037007e009000e9
:103b10006700b900000078009e004000809c2000f3
:103b2000008040009040780000c3b30080cf500078
:103b30002b003a003e0090000000e0002800320018
:103b4000f04c80000000e000230032007e00900076
:103b500080004000a09d2000008040009000780080
:103b6000c0022000808f50000b003c007e009000bf
:103b700080004000a09d20000080400010007800e0
:103b80008000e8007e00900000014000a09d200021
:103b900000004100010878007e0090008000400095
:103ba000a09d20000080400010017800fe009000e1
:103bb000200320000088b900000078008200400047
:103bc000e09d20000080400001c2b3000148780061
:103bd0001e0fe800350037001e0fe80033003700e5
:103be0007e00900080004000a09d200000804000ea
:103bf00090007800c0022000808f50000b003c0035
:103c00007e00900080004000a09d200000804000c9
:103c1000100078008000e8007e0090000001400065
:103c2000a09d200000004100010878007e00900067
:103c300080004000a09d200000804000900178009e
:103c40007e0090006700b900000078009e004000f0
:103c5000809c20000080400010417800fe00900011
:103c6000200320000088b900000078008300400095
:103c7000e09d200000804000024878001e0fe80010
:103c80007e0090000000e00003003a007e009000fb
:103c9000e10f500005003200a00120000efd0700da
:103ca0000000eb00000f7800230037007e0090003a
:103cb0006700b900000078009e004000809c200052
:103cc000008040009040780000c3b30080cf5000d7
:103cd000160032007e0090006700b90000007800f6
:103ce0009e004000809c20000080400090407800b2
:103cf000d0c2b30080cf50000c0032007e00900094
:103d00006700b900000078009e004000809c200001
:103d1000008040009040780000c2b30080cf500087
:103d2000020032000000eb00300798001e0078000f
:103d3000e80f500075ff34009e29ef004f04780013
:103d40000080fa00000006001200fa0050079800f8
:103d50006107980072079800030f98000240220044
:103d6000439724007e0090008e089000e80307002f
:103d7000008fbe005e019000ee0190001e00be00ac
:103d800009030700020020000318240006030700af
:103d90000200200003f82300a50207002007980076
:103da000310798002e009000be00900065030700c8
:103db000400798004e0090000080fa0000000600c6
:103dc0000000fa0070562400004088000000200027
:103dd0008134240010408800214088000000200029
:103de00001182400304088004140880040b4280079
:103df000c1e62b00504088006140880060662600c4
:103e000061f623007040880081408800c01e2500b4
:103e1000c126240090408800a14088003033230050
:103e2000b1262400b0408800c1408800d0cc2c00ce
:103e3000c1212400d0408800e1408800000020001b
:103e4000c1202400f04088000141880000002000cb
:103e5000010024001041880021418800000020005a
:103e6000010a240030418800414188000000200000
:103e700001f02300504188006141880000002000cb
:103e8000011b24007041880081418800000020004f
:103e9000011f240090418800a141880000002000fb
:103ea000811c2400b0418800c1418800000020002e
:103eb00001122400d0418800e14188000000200068
:103ec00001172400f0418800014288000000200012
:103ed00001222400104288002142880000002000b6
:103ee000c1202400304288004142880000002000a8
:103ef000811c240050428800614288006000b800a4
:103f000070428800814288000000200001122400d5
:103f100090428800a142880000002000c1252400b2
:103f2000b0428800c14288000000200081242400a3
:103f3000d0428800e14288000000200001172400e0
:103f4000f04288000143880000002000012724007f
:103f5000104388002143880000002000012a24002b
:103f60003043880041438800000020008124240061
:103f7000504388006143880000002000011f240096
:103f800070438800814388000000200081242400c1
:103f900090438800a143880060ba290041c42300ef
:103fa000b0438800c1438800d0cc2c00c1d423008a
:103fb000d0438800e143880080072000f043880058
:103fc0000080fa00000006000000fa00889fbe0092
:103fd000113a8000f08f2f00008060000080a00068
:103fe000103a88004207a8004227a90010ff2f00be
:103ff00090168800d622ef00d442a800f0082000d6
:1040000030168800ca22ef00cc22ef00d022ef0049
:10401000f0fe2f00c0168800dc22ef00e0fb2f002e
:10402000f0168800e222ef0060002000000e8800f9
:10403000c221ef0010032000200e8800c621ef00ef
:10404000b00f2000400e8800ca21ef001018280091
:10405000600e8800d021ef0000f02f00a00e880035
:10406000d621ef00d821ef00da21ef000e22ef0079
:104070000c22ef0020538000315380004453800015
:10408000555380000001be000400be002eff070053
:10409000a01088000d42a8001822ef0019e2a80025
:1040a0001622ef00205380003153800064538000bb
:1040b000755380000001be000400be0022ff07000f
:1040c000f01088000080eb00100888000021ef004d
:1040d0000421ef002108800000032000010070008f
:1040e0002008880050072700600888000621ef009c
:1040f0001021ef0081088000f0fc2f00008060009c
:104100000050a00080088800a00e2e0070088800d3
:104110000a21ef001221ef00910880000003200027
:104120000100700090088800f00020001046880010
:10413000f000200020468800402e20000015880056
:104140000041200010158800f0f0200020158800a4
:10415000a622ef0000f72f0040158800f00820008d
:1041600050158800c1048000000027000100700085
:10417000c0048800b1048000f08f2f0080806000b0
:104180000060200001007000b0048800e10480009d
:1041900080ff2f00008060005000b300e004880022
:1041a000a1048000f0ff28000080600000e0a00073
:1041b000a0048800a104800080ff2f000080600020
:1041c0003000b300a0048800b1048000f0ff280094
:1041d0000080600000d0a000b0048800c10480000e
:1041e000f0f82f00008060000040a000c0048800ac
:1041f000c1048000f08f2f00008060000080a000cc
:10420000c00488000105800080ff2f00008060004e
:104210000000a0000005880001058000f0f82f00d4
:10422000008060000040a00000058800f1048000cc
:10423000f0ff28000080600000c0a000f0048800ab
:1042400081e0a9008420ef008620ef008820ef00a5
:10425000ff3ffc008c20ef008e20ef009020ef004d
:104260008c60a8008d20a8008f00a8008f20a800d7
:1042700000538000e10f500001003a008c00a800bc
:1042800010002000005388008e00a8008ee0a900d6
:104290008cc0a8008ce0a8008d60a8008200a90056
:1042a0008240a9005220ef00a1e2a800c1e1a800cd
:1042b00011e1a80005e1a80013e1a8000de2a800a3
:1042c0000f42a80017e2a8001942a8003840800059
:1042d000494080001440800025408000304080002c
:1042e000414080000001be000400be0051010700f3
:1042f0000001be000800be00ab010700f0458800c9
:1043000001468800402b2a0011812300205288009a
:104310003152880010002000d04988003c29ef006d
:1043200054418000654180007041800081418000df
:104330000001be000400be0075020700104788009f
:10434000214788004f04be000080fa0000000600ec
:104350000000fa00a5fc0700a1e2a90011e1a900f4
:1043600013e1a900ff3ffc008e00a9008cc0a9004a
:104370008220a9008240a9005220ef003a29ef00d4
:1043800010002000e0498800c8c2a9000080fa009f
:10439000000006000000fa007229ef003429ef0047
:1043a000c1e1a90005e1a9008420ef008620ef000b
:1043b0008820ef00ff3ffc008c60a9008d60a90001
:1043c0008220a9008240a900e1ff07001000200020
:1043d000f04988000080fa00000006000800fa009a
:1043e0002007980031079800be009000c0902a0076
:1043f00014fd07000000eb00000f7800c0448000af
:10440000ea0f500003003400be009000d0912a0053
:104410000cfd0700c04480000000e000b4003a003a
:10442000be00900050942a0006fd0700b50037003a
:104430001e0078008000400040882000008040007e
:10444000100078006101b9000080eb008080eb0073
:104450000200400083804800520220000300200038
:10446000820f5000838f580099003e0000600100c9
:104470002500370027003700290037002b003700c0
:104480002d0037002f003700310037003300370090
:104490003500370037003700390037003b00370060
:1044a0003d0037003f003700410037004300370030
:1044b0004500370047003700490037004b00370000
:1044c0004d0037004f0037005100370053003700d0
:1044d0005500370057003700590037005b003700a0
:1044e0005d0037005f003700610037006300370070
:1044f0006500370067003700690037006b00370040
:104500006d0037006f003700407a2a0010079800ce
:1045100072003700307b2a00100798006f003700c8
:10452000607c2a00100798006c003700507d2a003c
:104530001007980069003700e07d2a0010079800f6
:1045400066003700907e2a0010079800630037004d
:10455000107f2a001007980060003700907f2a0023
:10456000100798005d00370010802a00100798009f
:104570005a00370090802a00100798005700370033
:1045800010812a001007980054003700e0812a00ab
:10459000100798005100370060822a001007980029
:1045a0004e003700f0822a00100798004b003700b9
:1045b00080832a00100798004800370000842a00f2
:1045c000100798004500370080842a0010079800e3
:1045d00042003700e0842a00100798003f003700af
:1045e00050852a00100798003c003700c0852a003b
:1045f000100798003900370040862a0010079800fd
:1046000036003700d0862a001007980033003700a4
:10461000e0872a00100798003000370070882a00d1
:10462000100798002d00370080892a001007980095
:104630002a003700208a2a00100798002700370038
:10464000f08a2a001007980024003700c08b2a0047
:104650001007980021003700608c2a00100798008e
:104660001e003700c08c2a00100798001b0037007e
:10467000208d2a001007980018003700808d2a002e
:104680001007980015003700e08d2a0010079800e9
:1046900012003700408e2a00100798000f003700e4
:1046a000a08e2a00100798000c003700108f2a00f7
:1046b0001007980009003700808f2a001007980023
:1046c00006003700e08f2a0010079800030037002b
:1046d00040902a001007980000000000be009000e3
:1046e0001e00900057fc07001e0fe8000100370075
:1046f00000000000c04480009e007800808f5000c1
:104700004bff35000080fa00000006000000fa00b0
:10471000889fbe00a1f50700904c8800acf507000b
:10472000a04c88000000eb0013fc07007156240029
:10473000810f500002003200a1fd07000200370087
:104740000000eb0036f50700914c800020002000af
:1047500000017800110009008200d8000000e80084
:1047600005fc070041652700810f500007003a0053
:10477000914c800020002000000178001100090009
:104780008200d8000000e8006cf50700acf50700d7
:10479000602aef000cfe0700205380003153800098
:1047a0000240220043972400590107000004be0084
:1047b000114680002046800000804000cf80de004f
:1047c000fb0007000001be000800be0076000700e5
:1047d0000200200043232400730007000001be00f4
:1047e0000000200001f823006f0007003046880019
:1047f00041468800f0498000e10f500006003a0071
:104800007afb0700c8c2a9007ef507000040fe0041
:104810003e29ef00f7ff3700c8c2a9000140fe00a3
:10482000f4ff37000040da000000fe000000050041
:1048300003f0a200889fbe008a9fbe008c1f7800f4
:104840001b010700220133006450e1004f003200d9
:104850006420e1005200320003826c0007003b003c
:104860000905d0000306d000820f54000c065d003d
:104870000200390002003200890178000306780046
:104880008582550004003d000003fd008103fd000a
:104890008502ea008b854200840f720002003b0013
:1048a00060001000e08018006011b8000005eb0007
:1048b0007a28e1000a00390006007800c75ddd00b3
:1048c000f707b200878075002d00370082817100e4
:1048d0000a017800610560008180d1000080d3006a
:1048e0008502e900f9ff3b00060440008784480088
:1048f00002003b0060041400e0841c000988a3004f
:10490000070032008a8171008281710061016400b8
:104910008904d1000884d3008b05e8001700370014
:104920000978a30013003a000b00e00013003400e4
:104930008b05e9000804440089844c000a44740093
:104940000978a3000d003a000b00e00007003400d6
:104950008b05e9000804440089844c0001003a00fa
:104960000b0020000978a300f7ff32000001eb00e4
:1049700002003700828171000a017800910007006f
:104980000cf0a70001f0a000da0037006420e1007d
:1049900002003a00838f6c00da0033000801be0089
:1049a0000200be00d3003700889fbe008a9fbe0071
:1049b0008c1f7800be000700c500330003866c0022
:1049c0006450e1002e0032006420e1003300320028
:1049d0006150e1002f0032006120e100310032001f
:1049e00085855500eb07b000090020000804200071
:1049f000050037000804440089844c000a00310097
:104a00000603430087834b000001530081815b0054
:104a1000f8ff33000203be000800a00008044400b1
:104a200089844c00f6ff3900c639dd00830173002c
:104a300001003200130020008904d1000884d30053
:104a40000998a300050032000800a7000300a00099
:104a50008904d1000884d3008b05e8008904d100c3
:104a60000884d3000001eb000281d200550007004a
:104a700001f0a1000cf0a70001f0a0009d0037009c
:104a80006420e1009f0032000801be000200be0069
:104a9000f7ff37006120e1009a0032006000b800a3
:104aa000f3ff37000000200001f82700f0ff370077
:104ab00014002000ca003700f4ff2f00c8003700a0
:104ac0000001be00650007000470a70003f0a1000c
:104ad0006509b100160032000d0035006828e100bc
:104ae00006003500f0ff2f00f1ff27000300e00073
:104af00013003b00010028000000050000004000fa
:104b0000818048008502e900fcff3a000800370078
:104b1000f88f420002003c008000eb00000005001e
:104b20008100d1000080d3008502e800fcff3a003c
:104b30000300e00002003b0060001000e08018006d
:104b4000000006000001be00440007000470a7003a
:104b500003f0a10003f8a30013003a006509b100b7
:104b600010003200090035006928e100020035001c
:104b7000010028000000050000004000818048007e
:104b80008502e900fcff3a0000000600f88f4200b1
:104b9000050035008100d1000080d3008502e800c7
:104ba000fcff3a00000006008000eb00000005005a
:104bb0004f89de0082017800a40037006011b80040
:104bc000b200370081002000618055000b003d00dd
:104bd0000b00200061fe2f000100e1001d003400e9
:104be00082817100610164008904d1000884d300ce
:104bf0000000e800faff3a00710020006100640044
:104c000003007000020060000900320061044400eb
:104c1000e0844c000988a500050032008b05e800ff
:104c20006808e10002003a008904d1000884d3003a
:104c3000f20f20000258e10005003d00c75ddd00d5
:104c4000f907b200898075000800780000000600ae
:104c50000bf827008b00780000000500c70ade0073
:104c6000f107b200f50fb20008003200e1cf4200b8
:104c7000020032000170a00024000500810f7000c6
:104c8000010032000408050044000500810f700097
:104c900002003a00140005008502e900000040000f
:104ca00081c04800fcff3b000170a000240005000b
:104cb0000004be00e9ff07000003be000405be00bb
:104cc0000200be00e5ff0700844f750000000600eb
:104cd0000200be006450e100050036006420e100df
:104ce000020036000968a30001003a000800be0077
:104cf0000160a0004f0678004f05be004f04be00c3
:104d000000000600f0ff2f00f1ff2700f9ff370039
:104d1000889fbe008a9fbe008c1f7800e4ff0700ba
:104d2000ebff330003866c006450e1002400320086
:104d30006420e100270032006150e10022003200cf
:104d40006120e100210032008b854200eb07b100b9
:104d50000134b800003ab8000804420089844a00cf
:104d6000013ab8000030b8008880400009014a00cc
:104d70000400330000004000818048000201490027
:104d80008b05e900c909dd008301700001003200d4
:104d900013002000c814de004814dd004709de00bf
:104da0001200b200c808de000884700085ff07000a
:104db00001f0a1000cf0a70001f0a000cdff37002a
:104dc0006120e100cfff32000801be000200be00fa
:104dd000f7ff37006150e100fcff3a00c9ff3700e0
:104de000889fbe008a9fbe00841f7800b0ff070026
:104df0004f00780011003300f0ff2f00838f6c000c
:104e000006003b00040565000a00a7000800370003
:104e100009f0a6001000200008003700820f54009f
:104e2000838f5c00030039001000200001003e0069
:104e30000000200009f0a7000000ea004f05be00b6
:104e40004f04be000000e00000000600881f78004c
:104e5000030478000300e00007003d00600010003c
:104e6000e080180060011900e081190002003b0099
:104e700001f02d00030037000400070008f0a70030
:104e800001f0a0004f04780000000600889fbe00db
:104e90008a9fbe00008270000402710004827100cb
:104ea000260032000004be000200be006011b800ff
:104eb0006b092000950220000182cf000a00390012
:104ec0000541b1000082cf00070039000541b10063
:104ed0000982cf00040039000541b1000882cf00eb
:104ee000010039000541b1000542520012003200b4
:104ef0000a003b0082817100610164008100d100e1
:104f00000080d3008984d3000884d3008b05e80097
:104f10000442e800f7ff3a000700370008044400a5
:104f200089844c0000004800818048008b05e9001e
:104f30000442e900f9ff3a0022ff07004f05be00d6
:084f40004f04be000000060052
:020000040000fa
:104f48004865000061740000207400006f6f000065
:104f5800207300006d6100006c6c0000004e0000c2
:104f68006f20000068650000617400006572000031
:104f7800206400006574000065630000746500002b
:104f8800640000004865000061740000207400009f
:104f98006f6f0000206c0000617200006765000000
:104fa800004c00006f770000204200006174000090
:104fb8007400000044690000736300006872000018
:104fc800672000004f4300000043000068720000a3
:104fd800672000004f430000004200006174000099
:104fe800742000004f560000004200006174000069
:104ff800742000004f540000004d0000437400006e
:105008006c2000004f54000000530000656c000045
:10501800662000004f540000005300007973000020
:105028002053000068750000746400006f7700006a
:105038006e000000505700004d200000457200002f
:10504800720000004f7300006320000046610000fa
:10505800696c0000004100006464000072200000d8
:105068004572000072000000535400004b200000fd
:1050780045720000720000004d54000048200000f6
:1050880045720000720000005265000073200000a5
:1050980037000000504c00004c200000554c000028
:1050a80000420000726e00004f750000740000009e
:1050b8005744000054200000727300007400000080
:1050c8005452000041500000207200007374000028
:1050d800004f0000706300006f640000652000004e
:1050e800696e0000766100006c2000007273000099
:1050f800740000004d4300004c5200002072000074
:1051080073740000004900006c6c000065670000c3
:10511800616c0000204900006e730000747200008a
:1051280075630000740000005379000073200000cc
:10513800526500007365000074000000496e0000ad
:10514800766100006c69000064200000706f000048
:1051580072740000004e00006f20000063680000b9
:105168007267000020630000726e00007400000087
:1051780050430000203e0000203100003030000085
:10518800250000005648000020420000560000009c
:10519800564c00002042000056000000564800000f
:1051a8002042000043000000564c0000204200004e
:1051b8004300000056480000204200005400000050
:1051c800564c0000204200005400000056480000e1
:1051d800204d000043540000005600004c20000001
:1051e8004d430000540000005648000020530000c2
:1051f8004d000000564c0000205300004d000000f8
:10520800556e00006b6e00006f7700006e000000a6
:105218005265000061640000696e000067200000ac
:10522800436f000064650000732e00002e2e0000fe
:1052380000460000617500006c740000204c0000fe
:105248006f670000204900007320000046750000c9
:105258006c6c00002e200000506c0000656100009e
:1052680073650000206300006c6500006172000037
:1052780020660000617500006c740000732e000049
:10528800004e00006f20000066610000756c000091
:1052980074200000636f0000646500007320000044
:1052a800746f000020720000657000006f720000cb
:0852b800742e0000000000004c
:020000040000fa
:1052c000000800004402000000000000440a000042
:1052d000320000000200000051a011003800b800a8
:1052e00088470000b888470000b8880047010000e0
:1052f00003000300000300000100010000010000a2
:105300003b000a00d76b4100000016004600000079
:1053100016460a0000010000010000000000000025
:020000040000fa
:0200000401f009
:04000000eabf000053
:020000040000fa
:0200000401f009
:04000400ff7f00007a
:020000040000fa
:0200000401f009
:04000800ffff0000f6
:020000040000fa
:0200000401f009
:04001400ffff0000ea
:020000040000fa
:0200000401f009
:04001800ffff0000e6
:00000001FF
