:020000040000fa
:080000000001040000000000f3
:020000040000fa
:04000800342e000092
:020000040000fa
:04000c0006100000da
:020000040000fa
:040010004610000096
:020000040000fa
:040014006e1000006a
:020000040000fa
:04001800961000003e
:020000040000fa
:04001c00342e00007e
:020000040000fa
:04002000342e00007a
:020000040000fa
:04002400be1000000a
:020000040000fa
:04002800c80100000b
:020000040000fa
:04002c00342e00006e
:020000040000fa
:04003000342e00006a
:020000040000fa
:04003400e2080000de
:020000040000fa
:04003800342e000062
:020000040000fa
:04003c00342e00005e
:020000040000fa
:04004000820d00002d
:020000040000fa
:040044002203000093
:020000040000fa
:04004800342e000052
:020000040000fa
:04004c008c0500001f
:020000040000fa
:04005000342e00004a
:020000040000fa
:04005400380300006d
:020000040000fa
:04005800342e000042
:020000040000fa
:04005c00342e00003e
:020000040000fa
:04006000342e00003a
:020000040000fa
:04006400342e000036
:020000040000fa
:04006800ea020000a8
:020000040000fa
:04006c00342e00002e
:020000040000fa
:04007000342e00002a
:020000040000fa
:04007400342e000026
:020000040000fa
:04007800342e000022
:020000040000fa
:04007c00342e00001e
:020000040000fa
:04008000342e00001a
:020000040000fa
:04008400342e000016
:020000040000fa
:04008800a4080000c8
:020000040000fa
:04008c00ae080000ba
:020000040000fa
:04009000342e00000a
:020000040000fa
:04009400342e000006
:020000040000fa
:04009800342e000002
:020000040000fa
:04009c00342e0000fe
:020000040000fa
:0400a000342e0000fa
:020000040000fa
:0400a400342e0000f6
:020000040000fa
:0400a800342e0000f2
:020000040000fa
:0400ac00342e0000ee
:020000040000fa
:0400b000342e0000ea
:020000040000fa
:0400b400342e0000e6
:020000040000fa
:0400b800342e0000e2
:020000040000fa
:0400bc00342e0000de
:020000040000fa
:0400c000342e0000da
:020000040000fa
:0400c400342e0000d6
:020000040000fa
:0400c800342e0000d2
:020000040000fa
:0400cc00342e0000ce
:020000040000fa
:0400d000342e0000ca
:020000040000fa
:0400d400e40f000035
:020000040000fa
:0400d800342e0000c2
:020000040000fa
:04010800342e000091
:020000040000fa
:04010c00342e00008d
:020000040000fa
:04011000342e000089
:020000040000fa
:04011400342e000085
:020000040000fa
:04011800342e000081
:020000040000fa
:04011c00342e00007d
:020000040000fa
:04012000342e000079
:020000040000fa
:04012400342e000075
:020000040000fa
:04012800342e000071
:020000040000fa
:04012c00342e00006d
:020000040000fa
:04013000342e000069
:020000040000fa
:04013400342e000065
:020000040000fa
:04013800342e000061
:020000040000fa
:04013c00342e00005d
:020000040000fa
:04014000342e000059
:020000040000fa
:04014400342e000055
:020000040000fa
:04014800342e000051
:020000040000fa
:04014c00342e00004d
:020000040000fa
:04015000342e000049
:020000040000fa
:04015400342e000045
:020000040000fa
:04015800342e000041
:020000040000fa
:04015c00342e00003d
:020000040000fa
:04016000342e000039
:020000040000fa
:04016400342e000035
:020000040000fa
:04016800342e000031
:020000040000fa
:04016c00342e00002d
:020000040000fa
:04017000342e000029
:020000040000fa
:04017400342e000025
:020000040000fa
:04017800342e000021
:020000040000fa
:04017c00342e00001d
:020000040000fa
:04018000342e000019
:020000040000fa
:04018400342e000015
:020000040000fa
:04018800342e000011
:020000040000fa
:04018c00342e00000d
:020000040000fa
:04019000342e000009
:020000040000fa
:04019400342e000005
:020000040000fa
:04019800342e000001
:020000040000fa
:04019c00342e0000fd
:020000040000fa
:0401a000342e0000f9
:020000040000fa
:0401a400342e0000f5
:020000040000fa
:0401a800342e0000f1
:020000040000fa
:0401ac00342e0000ed
:020000040000fa
:0401b000342e0000e9
:020000040000fa
:0401b400342e0000e5
:020000040000fa
:0401b800342e0000e1
:020000040000fa
:0401bc00342e0000dd
:020000040000fa
:0401c000342e0000d9
:020000040000fa
:0401c400342e0000d5
:020000040000fa
:0401c800342e0000d1
:020000040000fa
:0401cc00342e0000cd
:020000040000fa
:0401d000342e0000c9
:020000040000fa
:0401d400342e0000c5
:020000040000fa
:0401d800342e0000c1
:020000040000fa
:100200002fa220000ebf20000e0188000000000079
:10021000000020000000e000020032000001200089
:100220002002880014000700911607000000e0007b
:1002300003003a0080842300010020000200370000
:100240000000200001002000810f7000010032003a
:1002500014000700000020000000e000020032004f
:100260000000020000000000a82d020000000000b5
:100270000040da000000fe004440a9002068200091
:100280000000e0000300320000002000a001880010
:100290004440a800000006008a1f78008b1f7800e9
:1002a0000000060091018800800478000000eb0047
:1002b0001a003700e284440032a0b4009905ba0065
:1002c000e284440032a0b4009906ba00e2844400fb
:1002d00032a0b4000006eb00476fde00fd07b2005d
:1002e000636ce10003003a00ebff07000000eb0045
:1002f0000a003700606ce10004003a00005deb008a
:100300008b05e900fdff3e00040037006168e10055
:10031000010032000086eb000b00070019c7ba008d
:100320001905ba000e04e00003003a000a00e000dc
:10033000e0ff3a0000000600fe07b2009e018800c0
:100340008a047800f5ff3700395dba008b05e900b3
:100350000c003200295dba008b05e900080032006c
:100360000c00e00003003a00e284440032a0b40034
:10037000f5ff370019ddba008b05e900faff3a00f6
:100380008904e800e184440032a0b40000000600c3
:100390003600f800809fbe00829fbe00849fbe0092
:1003a000869fbe00881f78000000fa00c8c2a8001f
:1003b0006000b800c0478800d147880070408000c6
:1003c0008140800018c0b3000200200003f8230021
:1003d000ca1607000000e00001003c000044eb00ea
:1003e0000804e000060032000000200001f82300ad
:1003f0007040880081408800c0012000de0d0700a9
:1004000070408000814080006011b800b91607007c
:100410000000e00009003a00b0408000c1408000c8
:1004200030478800414788002829ef00120020004b
:10043000611c2b003000200088120700a04b8000b8
:10044000e10f50002200320010458000e90f5000fb
:100450001f003c00104580000000e80010458800a7
:100460001000200040498800b4408000c540800052
:10047000d0408000e14080000001be000400be00ca
:10048000fc1507000002be00704080008140800023
:100490000001be000400be002e1707000002be00cf
:1004a000d0408000e14080000001be000400be009a
:1004b000f1150700304788004147880012002000ee
:1004c000611d2b003000200064120700100037006f
:1004d000a04b8000e10f50000d003200104580005d
:1004e000e90f50000a003400a228ef002829ef008d
:1004f000b0408000c14080003047880041478800fc
:1005000012002000611e2b00300020005312070053
:10051000a0478000e20f5000160032000017800054
:10052000620060000000e00012003200804b80009a
:100530000000e0000f003a00a04b80000000e00047
:100540000c003a00704b80000000e00009003a0007
:1005500010002000604b8800a0478000e50f50008d
:100560000200320010002000a04788001000200088
:10057000a04b880000178000620060000000e000cf
:1005800009003200804b80000000e00006003a00c5
:100590006000b80040458800514588006000b80000
:1005a000604588007145880010002000604c88007c
:1005b0008400a9000080fa004f0478004f03be00b9
:1005c0004f02be004f01be004f00be003600f900d2
:1005d000004006003600f800809fbe00829fbe00eb
:1005e000849fbe00869fbe000000fa00c8c2a8001b
:1005f000500880008000eb008116070070498800d9
:10060000814988000a21ef00b0438000c143800087
:1006100002002c0053402400f415070050498800c4
:10062000614988008600a9000080fa004f03be00df
:100630004f02be004f01be004f00be003600f90061
:1006400000400600809fbe000000fa00c8c2a8005b
:1006500000f02f00f177240070498800814988005c
:1006600084e0a9000080fa004f00be0000400600b0
:100670003600f800809fbe00829fbe00849fbe00af
:10068000869fbe000000fa00c8c2a800f0498000a2
:10069000e70f5000c6003400004a8000114a800075
:1006a00002c02c00c37c2400d0150700004a88003b
:1006b000114a8800044a8000154a8000f0458000f5
:1006c000014680000001be000400be00c7150700ff
:1006d0000002be0050408000614080000001be006a
:1006e0000400be0064150700804888009148880017
:1006f0006000b800004a8800114a8800204a800043
:10070000314a80000200200003102400b7150700c2
:10071000204a8800314a8800204a8000314a8000ff
:10072000020020000370240052150700204a8800b0
:10073000314a8800204a8000314a800002002000af
:1007400003702400a9150700204a8800314a880058
:10075000204a8000314a8000020020000302240069
:100760007c160700204a8800314a8800204a800011
:10077000314a8000a2702d0033d223009b15070060
:100780000002be0080478000914780000001be004b
:100790000400be0038150700e0488800f1488800d2
:1007a0006000b800204a8800314a8800404a800032
:1007b000514a800002c02c00c37c24008b15070026
:1007c000404a8800514a8800404a8000514a8000cf
:1007d000f2282c0053ef230026150700404a88001a
:1007e000514a8800404a8000514a800042722900e4
:1007f000f3c723007d150700204888003148880092
:100800006000b800404a8800514a8800604a800071
:10081000714a800002c02c00c37c240073150700bd
:10082000604a8800714a8800604a8000714a8000ee
:10083000f2282c0053ef23000e150700604a8800b1
:10084000714a8800604a8000714a80004272290023
:10085000f3c72300651507006048880071488800c9
:100860006000b800604a8800714a8800804a8000b1
:10087000914a800002c02c00c37c24005b15070055
:10088000804a8800914a8800804a8000914a80000e
:10089000f2282c0053ef2300f6140700804a88004a
:1008a000914a8800804a8000914a80004272290063
:1008b000f3c723004d1507004048880051488800c1
:1008c0006000b800804a8800914a88004048800053
:1008d0005148800060488800714888003e29ef0038
:1008e00051508000f05f2500808f500007003200db
:1008f000404b8000e10f500004003a00704b800034
:100900000000e00001003a00390d0700e0498000d6
:100910000000e00017003a00704b80000000e0008b
:1009200014003a00a60c0700a0478000e20f500018
:1009300003003c00a04780000000e00008003a00ef
:10094000a0498000e10f500005003a00604b800094
:10095000e50f500002003a000608070008003700c3
:10096000a04980000000e00004003a00bf0d07002d
:1009700003003700bd0d0700010037000000000034
:10098000a04980000000e00006003a00404b8000d3
:10099000e10f500003003a00a1e2a9006829ef002e
:1009a0005500370010002000404b880052003700ef
:1009b000404b8000e10f50003d003a0000148000e1
:1009c0008000eb008e1507000002be00004a800088
:1009d000114a80000001be000400be00a6140700fa
:1009e000004a8800114a8800101480008000eb0043
:1009f000831507000002be00204a8000314a8000b3
:100a00000001be000400be009b140700204a8800bd
:100a1000314a8800201480008000eb007815070020
:100a20000002be00404a8000514a80000001be0022
:100a30000400be0090140700404a8800514a880014
:100a4000301480008000eb006d1507000002be002e
:100a5000604a8000714a80000001be000400be00b0
:100a600085140700604a8800714a8800401480009d
:100a70008000eb00621507000002be00804a800083
:100a8000914a80000001be000400be007a140700f5
:100a9000804a8800914a880051508000f05f25000c
:100aa000808f500011003200cf0607000f00370082
:100ab0006000b800004a8800114a88006000b80051
:100ac000204a8800314a88006000b800404a880007
:100ad000514a88006000b800604a8800714a880066
:100ae0006000b800804a8800914a8800f049800080
:100af0000000e800f04988008560a9000080fa0045
:100b00004f03be004f02be004f01be004f00be00ab
:100b10003600f900004006003600f800809fbe0055
:100b2000829fbe00849fbe00869fbe000200fa0026
:100b3000c8c2a80034003700324d800090108000f9
:100b400080407800c09920000000410001487800f2
:100b5000005180000000e00012003200314d8000a2
:100b6000c09920000080400010407800ed4f5000f8
:100b700006003a00314d8000c099200000804000fe
:100b800010407800ea4f500006003200314d8000de
:100b9000c099200000804000104078000000fb0059
:100ba00080108800314d8000c099200000804000f6
:100bb00010407800ed4f50000b003a0000518000cb
:100bc0000000e00002003200d00020008010880009
:100bd000304d8000704d8800a629ef0010002000e5
:100be000404d880008003700f050800080007800f9
:100bf000304d8000808f500003003600304d800063
:100c00000000e800304d8800701080006100600036
:100c10000000e00003003200404d80000000e000d2
:100c2000c5ff3200404d8000e10f50003e013a0008
:100c30000000eb00000f7800000420008010880006
:100c4000c04480000000e0000200340010022000d8
:100c500080108800c09920001e00400010407800dd
:100c60000000fb006101b90030ff2f00f1ff2f00f1
:100c7000020040008380480082062000030020001c
:100c8000820f5000838f580010013e000060010069
:100c9000150137000d0137000c0137000b0137003b
:100ca0000a01370009013700080137000701370042
:100cb0000601370005013700040137000301370042
:100cc000020137000101370000013700ff00370043
:100cd000fe003700fd003700fc003700fb00370046
:100ce000fa003700f900370052003700f7003700ec
:100cf000f6003700f5003700f4003700f300370046
:100d0000f2003700f1003700f0003700ef00370045
:100d1000ee003700ed003700ec003700eb00370045
:100d2000ea003700e9003700e8003700e700370045
:100d3000e6003700e5003700e4003700e300370045
:100d4000e2003700e1003700e0003700df00370045
:100d5000de003700dd003700dc003700db00370045
:100d6000da003700a000370077003700d7003700df
:100d70003700370056003700d40037003100370005
:100d8000d2003700d1003700d0003700cf00370045
:100d900060003700cd003700b80037005000370042
:100da000ca003700c90037003e003700c7003700cf
:100db000b70037007f003700c4003700c30037009a
:100dc000c200370069003700c0003700bf0037009d
:100dd000be003700bd003700bc003700bb00370045
:100de000ba003700b9003700b8003700b700370045
:100df000b6003700b5003700b40037006a0037008e
:100e0000b2003700b1003700b0003700af00370044
:100e100046003700ad0037009b0037003700370031
:100e2000aa00370022003700a8003700a7003700cb
:100e30009f003700a629ef00a829ef000000fe0060
:100e4000ae00370010002000a0478800ab0037003c
:100e50001e0fe800c09920001e004000904078005e
:100e600090c7b30080cf500003003a00100020006c
:100e700000518800a1003700c09920001e004000ea
:100e800090407800e0c6b30080cf500002003a00e6
:100e9000202aef00990037000080eb00604d8800a9
:100ea0009600370010002000e049880093003700ca
:100eb000504b80000000e00003003a0010002000ca
:100ec000504b88008d0037006a29ef008b003700f7
:100ed000110020000000eb00560a070087003700d1
:100ee00012002000311f2b0030002000db0f070014
:100ef00010002000804b8800800037001200200086
:100f0000c11f2b0030002000d40f07007029ef0014
:100f10007a0037000a2aef001200200061202b001f
:100f200030002000cd0f070074003700f05f25006f
:100f30005050880012002000c1212b0030002000fa
:100f4000c60f07006d0037009828ef006e29ef00ec
:100f5000f428ef007e29ef001200200061232b000f
:100f600030002000bd0f0700640037002829ef0083
:100f7000b0408000c1408000304788004147880071
:100f8000d116800000102000008060000000e0000a
:100f900002003200a228ef0058003700a000200015
:100fa000104588005500370050002000a0478800f9
:100fb0005200370012002000b1242b001000200046
:100fc000a60f0700c0488000d14880001200200012
:100fd000ff0f07001200200091262b0020002000a8
:100fe0009e0f07004500370012002000d1262b007d
:100ff00010002000990f070070418000814180009f
:1010000012002000f20f07001200200051282b00d0
:1010100020002000910f070012002000a1282b00c3
:10102000100020008d0f0700d0448000e1448000b4
:1010300012002000e60f07001200200051282b00ac
:1010400020002000850f070012002000712a2b00cd
:1010500010002000810f070080458000914580002e
:1010600012002000da0f07001200200051282b0088
:1010700020002000790f070020003700100020001a
:10108000105088001d003700022aef001b003700b7
:10109000a14c800020062000808f500014003c00ee
:1010a000a04c80000000e800a04c8800130037002e
:1010b000a04c80000000e0000f003400a04c800035
:1010c0000000e900a04c88000c003700120020004e
:1010d000312c2b0010002000600f07000080eb0077
:1010e000604d880005003700000000000300370055
:1010f000000000000100370000000000a629ef00fa
:10110000a829ef00604d8000e10f400006003a0082
:10111000ac29ef00a629ef000000eb00000f7800db
:1011200050042000801088008520a9000080fa006b
:101130004f03be004f02be004f01be004f00be0075
:101140003600f900004006000000fa00c8c2a800fe
:101150008700a9000080fa0000400600809fbe00c2
:101160000000fa00c8c2a80009003700e14d800065
:10117000e09b200000804000104078000000fb0051
:10118000d0108800e04d80000000e800e04d8800ad
:10119000c110800000202000008060000000e000fe
:1011a00004003a00e14d8000d04d8000808f500057
:1011b000eeff34008720a9000080fa004f00be0037
:1011c000004006003600f800809fbe00829fbe00ef
:1011d000849fbe00869fbe00889fbe000200fa006a
:1011e000c8c2a800a1e2a800a04980000000e00059
:1011f00006003200f0438000704c8800b0032000ed
:1012000080508800d442a80012003700805080002f
:101210000000e0000c003c00b0032000805088007b
:10122000704c80000000e00003003c001000200033
:10123000e049880007003700704c80000000e9009a
:10124000704c880003003700805080000000e900e7
:1012500080508800104980000000e0001000340039
:10126000244980003549800090418000a1418000e0
:1012700018c0b3000001be000400be001d1307002b
:101280000000e000010035000044eb000804e0002d
:1012900003003200104980000000e9001049880076
:1012a000d116800000102000008060000000e000e7
:1012b00003003a00c882a9009829ef007a29ef00bc
:1012c000404c8000e80f5000040034001000200063
:1012d000304c88008829ef000b003700404c80001c
:1012e0000000e00004003400404c80000000e900f1
:1012f000404c880004003700a04980000000e00056
:1013000001003a008629ef00105080000000e00044
:101310000b003200a04980000000e000080032000d
:10132000fc0b0700304c80000000e000020032009f
:10133000c60c0700030037000d0c07000100370042
:101340008229ef00a04980000000e000290032005f
:10135000244880003548800070438000814380002d
:1013600018c0b3000001be000400be00e312070075
:101370000000e00001003c000044eb000804e00035
:101380001a003a00444880005548800050438000cd
:101390006143800018c0b3000001be000400be001d
:1013a000d61207000000e00001003c000044eb0002
:1013b0000804e0000d003a00644880007548800091
:1013c000504380006143800018c0b3000001be009c
:1013d0000400be00c91207000000e00001003c004c
:1013e0000044eb000804e00002003200e002a80024
:1013f00037003700a04980000000e00033003200d1
:10140000704380008143800002002000030a240012
:10141000181207000002be002048800031488000fa
:1014200018c0b3000001be000400be00b3120700e4
:101430000000e00001003c000044eb000804e00074
:1014400023003200504380006143800002002000ee
:10145000030a2400071207000002be004048800073
:101460005148800018c0b3000001be000400be0057
:10147000a21207000000e00001003c000044eb0065
:101480000804e000120032005043800061438000f5
:1014900002002000030a2400f61107000002be002b
:1014a000604880007148800018c0b3000001be0091
:1014b0000400be00911207000000e00001003c00a3
:1014c0000044eb000804e00001003200e002a90043
:1014d000fd030700504b80000000e00005003400d1
:1014e000504b80000000e900504b880010002000a5
:1014f000f80a0700d116800000102000008060006c
:101500000000e0000f003a00001780006200600059
:101510000000e0000b003200904980000000e00075
:1015200008003a00804b80000000e00005003a000f
:10153000b04b80000000e00002003a0010002000e4
:10154000b04b8800b04980000000e0000d00320080
:10155000904b8000e10f500003003a007229ef0029
:10156000c8a2a9000800370010002000904b880096
:10157000c04480000000e00003003200c8a2a800c0
:1015800001003700c8a2a900c04b80000000e000a5
:101590000a003a00604b80000000e00007003a00bb
:1015a00010002000604b8800100020009049880047
:1015b00010002000c04b880068003700c04b80003e
:1015c000e70f500004003c00c04b80000000e80022
:1015d000c04b880061003700c04b8000e80f50000e
:1015e0005e003a0000498000e10f50005b003a00c5
:1015f000814c8000200020000001780011000900cb
:101600008200d8000000e800530d07004165270064
:10161000810f500031003a0024458000354580009c
:10162000c0488000d14880000001be000400be0018
:101630009011070002002000832c2400eb1107000a
:101640000002be00d0448000e14480000001be00e2
:101650000400be00bf1207002a120700000f780026
:1016600088458000994580001e007800cf80de000c
:10167000601207000001be000800be007d110700d7
:101680008045880091458800f84480000945800025
:101690001e007800cf80de00561207000001be0059
:1016a0000800be0073110700f0448800014588005f
:1016b00048458000594580001e007800cf80de003c
:1016c0004c1207000001be000800be0069110700af
:1016d0004045880051458800110037007041800066
:1016e00081418000d0448800e1448800c0488000e7
:1016f000d148800002002000832c2400bb11070089
:101700000002be0070418000814180000001be00e7
:101710000400be008f1207008045880091458800b4
:1017200090002000c04b88003229ef008400a900ff
:10173000ff3ffc008c00a800d116800000102000a4
:10174000008060000000e00004003200604c800077
:101750000000e00001003a008400a8001204070025
:10176000404580005145800018c0b3006011b800aa
:10177000e01107000000e000010035000044eb002c
:101780000804e0000600320040458000514580001a
:1017900001f0a200f04488000145880004003700f1
:1017a0004045800051458000f04488000145880094
:1017b000c0488000d148800018c0b300020020005b
:1017c000632c2400cd1107000000e00001003c0064
:1017d0000044eb000804e00010003200605080007c
:1017e000e40f50000d003200d0448000e14480003e
:1017f00080458800914588004000200060508800a6
:101800006000b80040458800514588006000b8007d
:10181000604588007145880048003700c048800056
:10182000d148800018c0b30002002000632a2400c1
:10183000b01107000000e000010035000044eb009b
:101840000804e0001e003200c0488000d14880003b
:1018500018c0b30002002000232a2400a7110700ab
:101860000000e00001003c000044eb000804e00040
:101870001300320060508000e40f5000030032007b
:10188000605080000000e0000d003a00f04480004d
:1018900001458000d0448800e1448800d0448000a5
:1018a000e14480000001be00f3100700d04488002e
:1018b000e144880020002000605088001f003700ad
:1018c000c0488000d148800018c0b300020020004a
:1018d00003f82300871107000000e0000100350035
:1018e0000044eb000804e000140032006050800067
:1018f0000000e00011003200f0448000014580004b
:10190000d0448800e14488006000b8008045880029
:10191000914588006000b800a0458800b145880066
:101920000c2aef006000b80040458800514588004f
:101930006000b800604588007145880080458000df
:101940009145800018c0b3006011b800691107000c
:101950000000e000010035000044eb000804e00056
:10196000060032006000b80080458800914588007c
:101970006000b800a0458800b1458800d0448000d0
:10198000e1448000a2702d0033ba2300ba10070092
:101990000002be00804580009145800018c0b30061
:1019a0000001be000400be00521107000000e0006c
:1019b000010035000044eb000804e000070032009d
:1019c000d0448000e1448000a2702d0033ba23008f
:1019d000a910070080458800914588007440800068
:1019e00085408000b0408000c14080000001be0002
:1019f0000400be00d71107000002be00804880002e
:101a00009148800018c0b3000001be000400be0071
:101a10003a1107000000e00001003c000044eb0028
:101a20000804e0001f003200404980000000e00090
:101a30001c003200d4448000e544800070408000e7
:101a4000814080000001be000400be00c1110700fb
:101a50000002be00804580009145800018c0b300a0
:101a60000001be000400be00221107000000e000db
:101a7000010035000044eb000804e00009003200da
:101a8000d4448000e54480007040800081408000a4
:101a90000001be000400be00ae11070080458800b2
:101aa00091458800a04980000000e0000c003a0049
:101ab0008845800099458000d0438000e143800044
:101ac0003284290013992300a21107000001be00ef
:101ad0000800be0067100700804588009145880017
:101ae0008460a9000080fa004f04be004f03be00ce
:101af0004f02be004f01be004f00be003600f9008d
:101b0000004006003600f800809fbe00829fbe00a5
:101b1000849fbe00869fbe00881f78000400fa00e4
:101b2000c8c2a8006000b800008fbe00405080000e
:101b30000000e0000600340040508000e30f500039
:101b400003003200405080000000e900405088004f
:101b5000305080000000e00006003400305080006b
:101b6000e30f500003003200305080000000e90015
:101b700030508800205080000000e0000600340053
:101b800020508000e30f50000300320020508000fe
:101b90000000e90020508800a04a8000e70f5000b4
:101ba00011003400004b8000114b80000200200027
:101bb000031024008d100700004b8800114b880093
:101bc000004b8000114b8000c04a8800d14a880039
:101bd0006000b800004b8800114b88005429ef00ca
:101be0003e0307000c003700044b8000154b8000bb
:101bf000e0488000f14880000001be000400be0003
:101c00001d100700004b8800114b8800a04a80007f
:101c10000000e800a04a8800b04a8000e70f5000aa
:101c200010003400204b8000314b80000200200067
:101c3000031024006d100700204b8800314b8800f2
:101c4000204b8000314b8000e04a8800f14a880038
:101c50006000b800204b8800314b88005629ef0007
:101c60000c003700244b8000354b800080488000fa
:101c7000914880000001be000400be00fe0f070076
:101c8000204b8800314b8800b04a80000000e800fb
:101c9000b04a8800c44a8000d54a8000e04a8000eb
:101ca000f14a80000001be000400be0029110700b7
:101cb000008fbe0018c0b3006011b8001e00be0047
:101cc0008c1007000000e000010035000044eb002c
:101cd0000804e000030032001e00be0001f0a20074
:101ce000008fbe00c0478000d147800018c0b300fd
:101cf0000001be001e00be00801007000000e000d2
:101d000001003c000044eb000804e0000b0032003e
:101d10001e01be00c2478800d3478800e04a800009
:101d2000f14a8000e0478800f1478800c04a8000ff
:101d3000d14a80000048880011488800e0488000af
:101d4000f148800018c0b300f226210033b0230010
:101d50006a1007000000e00001003c000044eb00b6
:101d60000804e0000b003a00e0488000f1488000e1
:101d700018c0b300f226210033b02b005d1007001d
:101d80000000e000010035000044eb000804e00022
:101d900084003200944f8000a54f8000e04880000e
:101da000f14880000001be000400be00e9100700f9
:101db0000002be0060458000714580000001be0049
:101dc0000400be00ac0f0700604588007145880024
:101dd000944f8000a54f8000e0488000f1488000cb
:101de0000001be000400be00da1007000002be00c1
:101df000a0458000b14580000001be000400be0087
:101e00009d0f0700a0458800b1458800604580000f
:101e10007145800018c0b300f226210033a82300ca
:101e2000361007000000e00001003c000044eb0019
:101e30000804e0000f00320060458000714580001a
:101e4000f226210033a823008a0f0700604588008e
:101e5000714588004045800051458000f2262100f0
:101e600033a82300840f07004045880051458800af
:101e700019003700604580007145800018c0b3002c
:101e8000f226210033a82b001a1007000000e00002
:101e9000010035000044eb000804e0000e003200b1
:101ea0006045800071458000f226210033a82300a0
:101eb000710f07006045880071458800404580002b
:101ec00051458000f226210033a82300690f070046
:101ed0004045880051458800a0458000b1458000fc
:101ee00018c0b300f226210033a823000310070016
:101ef0000000e00001003c000044eb000804e000aa
:101f00000f003200a0458000b1458000f22621007c
:101f100033a82300570f0700a0458800b14588006b
:101f20008045800091458000f226210033a82300df
:101f3000510f07008045880091458800190037003f
:101f4000a0458000b145800018c0b300f2262100f2
:101f500033a82b00e70f07000000e0000100350068
:101f60000044eb000804e0000e003200a0458000b1
:101f7000b1458000f226210033a823003e0f070060
:101f8000a0458800b14588008045800091458000cb
:101f9000f226210033a82300360f07008045880071
:101fa0009145880084c0a9000080fa004f047800a1
:101fb0004f03be004f02be004f01be004f00be00e7
:101fc0003600f900004006003600f800809fbe0091
:101fd000829fbe00849fbe00869fbe000000fa0064
:101fe000c8c2a800c0002000e30607008960a9005d
:101ff0000080fa004f03be004f02be004f01be003a
:102000004f00be003600f900004006003600f80020
:10201000809fbe00829fbe00849fbe00869fbe0040
:102020000000fa00113a80000002200000806000e9
:102030000000e00005003a00f04b80000000e000e6
:1020400002003a0020012000cb060700c8c2a80009
:10205000f04b80000000e00002003a00d0002000b9
:10206000c506070010002000f04b88008020a90062
:102070000080fa004f03be004f02be004f01be00b9
:102080004f00be003600f900004006003600f800a0
:10209000809fbe00829fbe00849fbe00869fbe00c0
:1020a0000000fa00c8c2a800f007070010002000d6
:1020b000704b8800e0002000af0607008060a90098
:1020c0000080fa004f03be004f02be004f01be0069
:1020d0004f00be003600f900004006003600f80050
:1020e000809fbe00829fbe00849fbe00869fbe0070
:1020f0000000fa00c8c2a800dc070700100020009a
:10210000704b8800f00020009b0607008040a9006b
:102110000080fa004f03be004f02be004f01be0018
:102120004f00be003600f900004006003600f800ff
:10213000809fbe00829fbe00849fbe00869fbe001f
:102140000000fa00c8c2a800c8070700100020005d
:10215000704b880000012000870607008080a900de
:102160000080fa004f03be004f02be004f01be00c8
:102170004f00be003600f900004006003600f800af
:10218000809fbe00829fbe00849fbe00869fbe00cf
:102190000000fa00c8c2a800b40707001000200021
:1021a000704b880010012000730607000080fa00c1
:1021b0004f03be004f02be004f01be004f00be00e5
:1021c0003600f900004006000400fa0010079800ed
:1021d0000000eb00000f7800180037001e00900090
:1021e0001e004000150a070000000000013b8000af
:1021f00000002800008060000000e000fbff3a00c3
:102200001e00780080004000008020000080400018
:10221000900078001e0090001e004000280a070071
:1022200000000000013b80000000280000806000ea
:102230000000e000fbff3a001e0fe800814c800028
:102240002000200000017800110009008200d80061
:102250009e0f5000e1ff3d001e0078000080fa0054
:10226000000006000400fa00100798000000eb00d0
:10227000000f78000a0037001e0090001e0040008a
:10228000350a0700800078001e0078000001400039
:102290000080200000004100010878001e0fe800c7
:1022a000814c80002000200000017800110009000e
:1022b0008200d8009e0f5000efff3d000080fa0022
:1022c000000006000400fa00100798000000eb0070
:1022d000000f7800200037001e0090001e00400014
:1022e000d609070000000000013b80000000280024
:1022f000008060000000e000fbff3a001e00780054
:102300000000e00005003a001e0090001e004000a2
:1023100041652700ea090700090037001e00780020
:10232000800040002088200000804000900078005d
:102330001e0090001e004000e109070000000000a0
:10234000013b800000002800008060000000e000e9
:10235000fbff3a001e0fe800914c80002000200097
:1023600000017800110009008200d8009e0f500083
:10237000d9ff3d001e0078000080fa000000060032
:102380000400fa00100798000000eb00000f78002e
:102390000a0037001e0090001e004000ee090700f2
:1023a000800078001e007800000140002088200096
:1023b00000004100010878001e0fe800914c8000e9
:1023c0002000200000017800110009008200d800e0
:1023d0009e0f5000efff3d000080fa000000060055
:1023e0000400fa000000eb00000f78000000eb0092
:1023f0001007980000802000000f7800008820005f
:10240000100798001e0090001e0050000080fa0087
:10241000000006000400fa000000eb00000f780046
:102420000000eb001007980020882000000f7800c3
:10243000808b2000100798001e0090001e005000a6
:102440000080fa00000006000000fa00c04880008a
:10245000d14880002045880031458800814c8000ab
:102460002000200000017800110009008200d8003f
:102470000000e80093ff0700d442a9000080fa00a2
:10248000000006000000fa0003003700e04b800067
:102490000000e800e04b8800e04b8000e30f4000c4
:1024a000faff3600814f800050a52a00808f50002f
:1024b00001003a008900070050a52a00804f8800db
:1024c0000080fa00000006000000fa00d11680002b
:1024d00000102000008060000000e0000d003a00c5
:1024e00000178000620060000000e0000900320078
:1024f00090498000e10f500006003200804b8000c0
:10250000e10f500003003200a04b8000e10f5000ab
:1025100023003a0010002000b0498800504c800091
:102520000000e00004003200404c800065004000e4
:10253000404c88008a29ef00b04b8000e10f50002a
:1025400003003a006e29ef007e29ef007629ef00a4
:10255000704b80000000e00007003a0010002000ef
:10256000a0498800c04980000000e00019003a003e
:10257000810c07001a003700bc0607003429ef0061
:102580009a29ef009829ef009629ef00d0498000a2
:102590000000e00011003a00430d07001000370072
:1025a00010002000504c8800b00607003629ef00cc
:1025b0003429ef009a29ef009829ef009629ef00bf
:1025c000d04980000000e00005003a00360d070009
:1025d0000300370000000000010037000000000089
:1025e0000080fa00000006000000fa0000148000dd
:1025f000e30f400003003600d00120005e05070015
:102600008f06070000148000e10f500003003e0019
:10261000e00120005805070089060700101480001b
:10262000e30f400003003600f001200052050700d0
:102630008306070010148000e10f500003003e00e5
:10264000000220004c0507007d06070020148000d2
:10265000e30f40000400360010022000460507008a
:1026600050002000a047880020148000e10f500097
:1026700004003e00200220003f050700500020001b
:10268000a047880030148000e30f400002003600ad
:10269000300220003805070030148000e10f5000a0
:1026a00002003e0040022000330507004014800075
:1026b000e30f400002003600500220002e05070004
:1026c00040148000e10f500002003e006002200034
:1026d000290507000080fa00000006000000fa004b
:1026e000003a8000620060000000e0000300320059
:1026f0004027a900300120001f050700003a800094
:10270000700060000000e000030032004087a90074
:102710004001200018050700013a80000000280051
:10272000008060000000e0000300320041e7a900e3
:102730005001200010050700013a8000000024002d
:10274000008060000000e0000300320041c7a900e3
:102750006001200008050700013a80000008200001
:10276000008060000000e0000300320040e7a900a4
:102770007001200000050700013a800000042000dd
:10278000008060000000e0000300320040c7a900a4
:1027900080012000f804070090012000f6040700e3
:1027a0000080fa00000006000000fa00889fbe00ca
:1027b000d0408000e140800002002000030024009f
:1027c0002c0d07000002be00804880009148800068
:1027d00018c0b3000001be000400be00c70d070012
:1027e0000000e00001003d000044eb000804e000b0
:1027f000040032006000b800c0488800d14888005a
:1028000033003700e0488000f148800018c0b30072
:10281000d2cc2c00c3d42300b60d07000000e0008a
:10282000010035000044eb000804e00028003200fd
:10283000e0488000f148800018c0b300d2cc2c00e2
:10284000c3d42b00ad0d07000000e00001003c00e8
:102850000044eb000804e0001d00320080488000c6
:1028600091488000a0488800b1488800a4488000b2
:10287000b5488000d0408000e14080000001be00eb
:102880000400be00fb0c07000004be00b440800042
:10289000c5408000d0408000e14080000001be00c3
:1028a0000400be00f30c07000001be000800be00db
:1028b0004e0d070002002000832c2400250e070087
:1028c000c0488800d14888001000200000498800d6
:1028d0004f04be000080fa00000006000400fa0069
:1028e0006000b800008fbe00c04a8000d14a80005e
:1028f00001f0a200008fbe00604b8000e40f50008a
:102900000f003a00d0438000e14380000001be0088
:102910001e00be00d70c0700804788009147880042
:1029200050002000604b8800a0478000e50f500059
:102930000200320010002000a04788003229ef007a
:10294000604b8000e10f500008003a006000b800c2
:102950008047880091478800c40507004000200098
:10296000604b880010002000904988000080fa0029
:10297000000006002000fa00881f78006000b80000
:10298000008fbe006000b800200798003107980053
:102990006000b80040079800510798006000b80038
:1029a0006007980071079800e2488000f3488000b3
:1029b0004207980053079800e2488000f3488000df
:1029c00062079800730798000000200001f82300b8
:1029d000f046880001478800244880003548800080
:1029e000d0428000e142800018c0b3000001be0068
:1029f0000400be00410d07000000e00001003c00a3
:102a00000044eb000804e0000d003a002448800078
:102a10003548800090428000a142800018c0b30079
:102a20000001be000400be00320d07000000e000ff
:102a3000010035000044eb000804e000040032000f
:102a4000d0cc2c00c1f42300f04688000147880058
:102a50002448800035488000704280008142800018
:102a600018c0b3000001be000400be00210d070025
:102a70000000e000010035000044eb000804e00025
:102a8000040032000000200001f02300f04688001e
:102a90000147880014418000254180008045800066
:102aa000914580000001be000400be00a90d070092
:102ab0000002be00f0468000014780000001be0019
:102ac0000400be00a30d0700008fbe00304180004f
:102ad0004141800018c0b3000001be001e00be00ce
:102ae000040d07000000e000010035000044eb0089
:102af0000804e0000d003a002448800035488000ba
:102b0000704280008142800018c0b3000001be0006
:102b10000400be00f70c07000000e00001003500d3
:102b20000044eb000804e000030032003241800062
:102b300043418000028fbe0018c0b3006011b8008e
:102b40004e009000de009000ea0c07000000e0005c
:102b5000010035000044eb000804e00006003200ec
:102b60004e009000de00900001f0a20040079800a7
:102b700051079800030037006000b8004007980034
:102b8000510798000000200001f82300f04688005b
:102b9000014788002448800035488000304280008a
:102ba0004142800018c0b3000001be000400be0016
:102bb000d20c07000000e00001003c000044eb00e4
:102bc0000804e0000d003a002448800035488000e9
:102bd000f04180000142800018c0b3000001be0037
:102be0000400be00c30c07000000e0000100350037
:102bf0000044eb000804e00004003200d0cc2c00bc
:102c0000c1f42300f0468800014788005441800049
:102c10006541800070418000814180000001be005c
:102c20000400be004b0d07000002be00f04680000d
:102c3000014780000001be000400be00450d0700f2
:102c4000200798003107980024488000354880000c
:102c5000104280002142800018c0b3000001be0075
:102c60000400be00a50c07000000e00001003c00cd
:102c70000044eb000804e0000d003a002448800006
:102c800035488000d0418000e141800018c0b30089
:102c90000001be000400be00960c07000000e0002a
:102ca000010035000044eb000804e000030032009e
:102cb0006000b800200798003107980018c0b300e2
:102cc0006011b8006e009000fe009000890c0700b3
:102cd0000000e000010035000044eb000804e000c3
:102ce000030032006000b800600798007107980088
:102cf0007429ef00d11680000010200000806000d1
:102d00000000e000ff003200c04b8000e90f5000df
:102d1000fc003a00c882a800704b8000e10f500010
:102d200006003200e0c2a80040508000e30f5000cf
:102d300002003a0020002000405088006000b800e7
:102d4000200f9800310f98003047800041478000e5
:102d50000200200003f02300c60b0700200f98009c
:102d6000310f9800d14b8000f0e12400808f50009b
:102d70001c003c006011b8006e009000fe00900046
:102d80005c0c07000000e00016003a00001780000d
:102d9000620060000000e000120032008048800005
:102da0009148800018c0b3002e099000be09900021
:102db000500c07000000e000010035000044eb006b
:102dc0000804e00007003200405080000000e000ee
:102dd00004003a00d04b80000000e800d04b88008f
:102de00015003700d14b8000f0e12400808f5000a7
:102df0000b00340000178000620060000000e0005b
:102e000007003200b00120005b0307001000200023
:102e1000704b88007a29ef00e0c2a9000600370055
:102e2000d04b80000000e00003003400d04b800055
:102e30000000e900d04b880018c0b300a2702d003c
:102e400033c223006e009000fe0090002b0c0700a0
:102e50000000e00001003c000044eb000804e0003a
:102e600011003a003047800041478000a2992900b4
:102e700093e123007f0b07000002be008048800022
:102e80009148800018c0b3000001be000400be00dd
:102e9000180c07000000e000010034000044eb00c3
:102ea0000804e000040032005042800061428000cb
:102eb0001a0207000c0037006011b8006e00900085
:102ec000fe0090000b0c07000000e00006003a0036
:102ed000d04c80000000e00003003400d04c8000a3
:102ee0000000e900d04c88006000b800000f980096
:102ef000110f98003047800041478000d2cc2c0051
:102f0000c3d423005c0b07000002be008048800091
:102f10009148800018c0b3000001be000400be004c
:102f2000f40b07000000e000010035000044eb0056
:102f30000804e00002003200f628ef00130037001a
:102f40003047800041478000d2cc2c00c3d42300fe
:102f5000480b07000002be008048800091488000b6
:102f600018c0b3000001be000400be00e30b070060
:102f70000000e00001003c000044eb000804e00019
:102f80000200320010002000b0478800b0478000e7
:102f90000000e000050032002e019000be0190000c
:102fa000020f9800130f9800030037006000b8006c
:102fb000000f9800110f9800a0478000e20f50000a
:102fc0004e003200405080000000e0004b003a000c
:102fd000c04c80000000e00011003400b0408000d0
:102fe000c1408000a2702d0033c22300210b0700d6
:102ff0000002be00804880009148800018c0b300e5
:103000000001be000400be00ba0b07000000e00093
:10301000010034000044eb000804e0000e003a0018
:10302000a2702d0033c223000e0890009e0890006d
:10303000110b070018c0b3006e019000fe01900054
:10304000ac0b07000000e000010035000044eb007d
:103050000804e00004003200c04c80000000e900d9
:10306000c04c880023003700c14c8000400620007f
:10307000808f500011003c00b0408000c1408000b3
:1030800092c22500f3d82300fa0a07000002be000e
:10309000804880009148800018c0b3000001be0045
:1030a0000400be00950b07000000e00001003c009a
:1030b0000044eb000804e0000b003a0018c0b30025
:1030c0000e0990009e0990006e009000fe00900096
:1030d000880b07000000e000010035000044eb0011
:1030e0000804e00003003200c04c80000000e8004b
:1030f000c04c880000000000090037009829ef004c
:1031000007003700c882a9009829ef00d821ef00f6
:10311000e0c2a90030002000405088007a29ef006a
:1031200000178000620060000000e0000300320031
:10313000804b8000e10f50000e013a00c04b800030
:10314000e90f50000400320051508000f05f25006c
:10315000808f500007013a00704b8000e10f500053
:1031600007003200d422a800c902a8003050800015
:10317000e30f500002003a00200020003050880089
:10318000d116800000102000008060000000e000e8
:1031900003003a00f0428000014380005f01070015
:1031a00051508000f05f2500808f500003003a00ee
:1031b000a04c8000b04c8800f900370030508000ef
:1031c0000000e000f5003a006000b800400f9800f1
:1031d000510f98002448800035488000b04280009c
:1031e000c14280000001be000400be00a10a070029
:1031f000400f9800510f9800f04f80000150800060
:103200004e099000de099000d20b07000002be00bc
:1032100030468000414680000001be000400be0030
:10322000cc0b07000002be00b0468000c146800003
:103230000001be000400be008f0a0700b0468800ef
:10324000c1468800b4468000c5468000b04080007a
:10325000c140800018c0b3000001be000400be00e1
:10326000260b07000000e00001003c000044eb00da
:103270000804e00005003200b0408000c14080003a
:10328000b0468800c146880011003700b44680006f
:10329000c5468000d0408000e140800018c0b300e7
:1032a0000001be000400be00120b07000000e00099
:1032b000010035000044eb000804e0000400320087
:1032c000d0408000e1408000b0468800c1468800c0
:1032d0006000b800600f9800710f9800844880006b
:1032e00095488000b0468000c14680000001be00c5
:1032f0000400be005f0a0700600f9800710f98007d
:10330000d04f8000e14f80006e099000fe099000d0
:10331000900b07000002be0030468000414680004e
:103320000001be000400be008a0b07000002be00c0
:1033300090468000a14680000001be000400be004f
:103340004d0a070090468800a146880090468000fc
:10335000a146800018c0b3001e01be00e70a0700a6
:103360000000e00001003c000044eb000804e00025
:10337000040032001e01be0092468800a346880069
:103380000d00370090468000a146800018c0b300b1
:103390006011b800d70a07000000e0000100350006
:1033a0000044eb000804e000030032006000b800b5
:1033b00090468800a146880094468000a54680007b
:1033c000b0418000c141800018c0b3000001be00c0
:1033d0000400be00c90a07000000e00001003c0034
:1033e0000044eb000804e00004003200b04180001b
:1033f000c141800090468800a14688009046800028
:10340000a14680004e019000de019000190a0700dd
:103410000002be00b04f8000c14f80000001be001e
:103420000400be004b0b0700504688006146880030
:10343000504680006146800018c0b300020024009e
:10344000c3612400ad0a07000000e00001003c0059
:103450000044eb000804e0000500320000002400f6
:10346000c161240050468800614688000f00370083
:10347000504680006146800018c0b300020024005e
:10348000c3612c009b0a07000000e000010035002a
:103490000044eb000804e0000400320000002400b7
:1034a000c1612c0050468800614688003446800087
:1034b0004546800050468000614680000001be0005
:1034c0000400be00230b07000002be00704680000f
:1034d000814680000001be000400be00e60907002e
:1034e00070468800814688007046800081468000d2
:1034f00018c0b30002002000e32b24007f0a07005d
:103500000000e00001003c000044eb000804e00083
:103510000500320000002000e12b240070468800e6
:10352000814688000d00370070468000814680008b
:1035300018c0b3006011b8006e0a07000000e00078
:10354000010035000044eb000804e00003003200f5
:103550006000b80070468800814688007046800090
:1035600081468000670a070000007800b04c8800a0
:103570000b0037009629ef00da21ef00d422a900d2
:10358000c902a9006000b800704688008146880022
:10359000300020003050880001003700000000009b
:1035a000a04980000000e00005003a009a29ef00e1
:1035b000d621ef00cfe2a900300020002050880083
:1035c000704b8000e10f500002003a00a702070094
:1035d00006003700d04c8000b00e8800c04c800040
:1035e000c00e8800b04c8000d00e88004f047800d8
:1035f0000080fa00000006001a00fa00881f780018
:103600006000b8002007980031079800f0262100dc
:1036100031a8230040079800510798006000b800c7
:10362000008fbe0000002000812c2400600798005d
:10363000710798000000eb00000f98006000b800d0
:10364000100f9800210f98006000b800300f98000c
:10365000410f98003e099000ce0990001e0890008e
:10366000ae089000830907002007980031079800f2
:103670006e019000fe0190002e009000be009000b0
:10368000b40a07004e019000de019000b10a070065
:103690000001be001e00be0077090700008fbe00bb
:1036a00018c0b30002f02f00f37724001e00be0004
:1036b000120a07000000e00001003c000044eb009b
:1036c0000804e0000400320000f02f00f17724002d
:1036d000008fbe000b00370018c0b3006011b800a7
:1036e0001e00be00030a07000000e00001003500d4
:1036f0000044eb000804e000020032006000b80063
:10370000008fbe001e00be00fe090700000f9800db
:103710004f0478000080fa00000006000400fa0060
:10372000881f7800008fbe00a0478000e30f500084
:103730003d003a000200200003f023001e00be00fe
:103740004c0907000002be0020488000314880007c
:1037500018c0b3000001be000400be00e709070066
:103760000000e00001003c000044eb000804e00021
:1037700011003200d14c800070478000808f5000d3
:103780000d003d00205080000000e00003003a00e2
:10379000d04c80000000e800d04c8800cfe2a800a8
:1037a00020508000e30f50001f003a00200020004e
:1037b000205088001c0037000200200003f0230086
:1037c0001e00be002c0907000002be002048800039
:1037d0003148800018c0b3000001be000400be00e4
:1037e000c40907000000e000010035000044eb00c0
:1037f0000804e0000c003200d04c80000000e00023
:1038000009003400d04c80000000e900d04c880052
:10381000d04c80000000e00001003c00cfe2a90095
:1038200030002000205088004f0478000080fa000b
:10383000000006000800fa002007980031079800f1
:103840003e019000d1702b0030002000830507005e
:103850000000eb00000f7800c0448000ea0f500029
:10386000050034003e019000e1712b003000200083
:103870007a050700be003700c04480000000e00069
:10388000b6003a003e01900061742b003000200029
:1038900072050700b60037001e0078008000400067
:1038a0004088200000804000100078006101b900cd
:1038b0000080eb008080eb00020040008380480025
:1038c0005202200003002000820f5000838f580016
:1038d00099003e00006001002500370027003700f6
:1038e000290037002b0037002d0037002f0037004c
:1038f000310037003300370035003700370037001c
:10390000390037003b0037003d0037003f003700eb
:1039100041003700430037004500370047003700bb
:10392000490037004b0037004d0037004f0037008b
:10393000510037005300370055003700570037005b
:10394000590037005b0037005d0037005f0037002b
:1039500061003700630037006500370067003700fb
:10396000690037006b0037006d0037006f003700cb
:10397000402d2b001007980072003700b02e2b004e
:10398000100798006f003700f02f2b0010079800e9
:103990006c00370060312b00100798006900370079
:1039a000c0322b00100798006600370040342b000f
:1039b000100798006300370090352b00100798001f
:1039c00060003700f0362b00100798005d003700cc
:1039d00020382b00100798005a003700e0392b00e0
:1039e0001007980057003700103c2b001007980074
:1039f00054003700103d2b0010079800510037008d
:103a0000803e2b00100798004e00370050402b00de
:103a1000100798004b00370000422b001007980059
:103a20004800370090432b001007980045003700ee
:103a300010452b001007980042003700e0462b008d
:103a4000100798003f00370050482b0010079800df
:103a50003c003700d0492b00100798003900370090
:103a6000504b2b001007980036003700104d2b00ec
:103a7000100798003300370010512b0010079800f2
:103a800030003700e0522b00100798002d0037005f
:103a9000e0542b00100798002a003700a0552b0097
:103aa0001007980027003700f0562b0010079800e9
:103ab0002400370010592b00100798002100370010
:103ac000005c2b00100798001e003700005e2b00e2
:103ad000100798001b003700f05f2b0010079800bc
:103ae00018003700f0612b00100798001500370010
:103af000e0632b001007980012003700b0652b0020
:103b0000100798000f00370070672b00100798000f
:103b10000c003700a0692b0010079800090037003f
:103b2000c06b2b001007980006003700b06d2b000b
:103b30001007980003003700906f2b0010079800c3
:103b4000000000003e0190009e0090001000200048
:103b5000c20407001e0fe80001003700000000004b
:103b6000c04480009e007800808f50004aff3500de
:103b70000080fa00000006000200fa00000f780042
:103b8000c0448000e90f500009003c00c0448000a0
:103b90008000400040882000008040001e0878001f
:103ba000c04480000000e800c044880002003700e4
:103bb000b0002000c04488000080fa000000060029
:103bc0000400fa00881f7800a0478000e20f500030
:103bd0006c003a00a0498000e10f500069003a00f3
:103be0006000b800008fbe008448800095488000c7
:103bf000e0488000f14880000001be000400be00e3
:103c00005409070001f0a200008fbe00904380001d
:103c1000a143800018c0b3000001be001e00be001a
:103c2000b40807000000e000010035000044eb008c
:103c30000804e0004c003200cfe2a80020508000d1
:103c40000000e00042003a00704780000000e800f9
:103c50007047880070478000b00e88007147800070
:103c6000f0052000808f50000a0034001000200072
:103c7000c1ff070040002000a0478800120020007c
:103c80001e00be00d2040700cfe2a90030002000d1
:103c9000205088007147800020032000808f500052
:103ca0001400340018c0b3000200200003002400f8
:103cb0001e00be008f0807000000e0000100350074
:103cc0000044eb000804e0000a003200200020005d
:103cd000a9ff070040002000a04788001200200034
:103ce0001e00be00ba040700cfe2a9003000200089
:103cf0002050880070478000e40f500014003c0002
:103d000018c0b30002002000031224001e00be00f1
:103d10007a0807000000e00001003c000044eb00ce
:103d20000804e0000a0032003000200092ff070083
:103d300040002000a0478800120020001e00be00a6
:103d4000a3040700cfe2a900300020002050880023
:103d500020508000e30f50000a003a0020002000ad
:103d6000205088000700370030002000a04788005e
:103d7000d621ef003229ef00cfe2a9003000200069
:103d800020508800a0478000e10f50000e003a004c
:103d9000604b8000e50f50000b003a00d621ef0089
:103da00075060700b1000700100020009049880048
:103db000ee28ef009a29ef0020002000a04788009d
:103dc0003000200020508800a0478000e40f500001
:103dd00004003a00d621ef00ee28ef009a29ef0008
:103de0003229ef004f0478000080fa00000006003e
:103df0000000fa00881f7800844880009548800001
:103e000090408000a140800018c0b3000001be00b7
:103e10000400be00390807000000e00001003d007a
:103e20000044eb000804e0000300320070002000b2
:103e300051ff0700820007008448800095488000f9
:103e4000f04080000141800018c0b3000001be00b6
:103e50000400be00270807000000e0000100350054
:103e60000044eb000804e00008003200d116800096
:103e700000102000008060000000e00003003a0015
:103e8000400020003cff070018070700e0488000c2
:103e9000f148800018c0b3006011b8001508070091
:103ea0000000e000010035000044eb000804e000e1
:103eb00006003200e0488000f148800001f0a200d6
:103ec0002049880031498800030037006000b800ad
:103ed0002049880031498800244980003549800004
:103ee00090418000a141800018c0b3000001be00d5
:103ef0000400be00010807000000e00001003c00d3
:103f00000044eb000804e0000a0032001049800081
:103f1000e50f5000040034005000200016ff070099
:103f2000470007002229ef00104980000000e80048
:103f300010498800e4488000f54880001047800060
:103f40002147800018c0b3000001be000400be007d
:103f5000ea0707000000e00001003c000044eb001d
:103f60000804e000030032006000200002ff0700a8
:103f7000330007002448800035488000104380004b
:103f80002143800018c0b3000001be000400be0041
:103f9000da0707000000e00001003c000044eb00ed
:103fa0000804e0000300320080002000f2fe070059
:103fb000230007006448800075488000304380007b
:103fc0004143800018c0b3000001be000400be00e1
:103fd000ca0707000000e00001003c000044eb00bd
:103fe0000804e0000300320090002000e2fe070019
:103ff000130007004448800055488000304380008b
:104000004143800018c0b3000001be000400be00a0
:10401000ba0707000000e00001003c000044eb008c
:104020000804e00003003200a0002000d2fe0700d8
:10403000030007004f0478000080fa00000006002b
:104040000000fa000900070010002000704b8800f3
:104050007029ef003229ef007429ef00b000200032
:10406000c5fe07000080fa00000006000000fa000c
:10407000d621ef00d821ef00da21ef00d422a900e9
:104080003000200030508800e002a900e0c2a90002
:104090003000200040508800cfe2a900300020000e
:1040a00020508800c902a9009a29ef009829ef0042
:1040b0009629ef006000b80090468800a14688006d
:1040c0006000b80070468800814688000080fa00d1
:1040d000000006000200fa00000f78001e017800c0
:1040e00001762b00300020005c0307008048800030
:1040f000914880001e017800b50307001e0178007a
:1041000091762b000000eb00540307001e0178009d
:10411000b1762b003000200050030700a04880003b
:10412000b14880001e017800a90307001e01780035
:1041300091762b000000eb00480307001e01780079
:1041400041772b00300020004403070030478000f7
:10415000414780001e0178009d0307001e01780082
:1041600091762b000000eb003c0307001e01780055
:10417000e1772b003000200038030700c04a8000a0
:10418000d14a80001e017800910307001e017800cb
:1041900041782b000000eb00300307001e0178007f
:1041a00061782b00300020002c0307004045800080
:1041b000514580001e017800850307001e0178002c
:1041c00001792b000000eb00240307001e0178009a
:1041d00031792b003000200020030700c047800009
:1041e000d14780001e017800790307001e01780086
:1041f000b1792b000000eb0018030700e0478000b6
:10420000f14780001e017800710307001e0178004d
:10421000217a2b000000eb0010030700004880000b
:10422000114880001e017800690307001e01780014
:1042300041782b000000eb00080307001e01780006
:10424000a17a2b00300020000403070020488000e2
:10425000314880001e0178005d0307001e017800d0
:10426000517b2b000000eb00fc0207001e017800d0
:10427000717b2b0030002000f802070060488000ae
:10428000714880001e017800510307001e0178006c
:10429000517b2b000000eb00f00207001e017800ac
:1042a000217c2b0030002000ec02070040488000f9
:1042b000514880001e017800450307001e01780068
:1042c000517b2b000000eb00e40207001e01780088
:1042d000b17c2b0030002000e00207008047800006
:1042e000914780001e017800390307001e01780005
:1042f00041782b000000eb00d80207001e01780077
:10430000617d2b0020002000d40207000080fa000d
:10431000000006000000fa003104800000202000a8
:10432000008060000000e0000f003a00104c8000a8
:104330000000e0000c003a00c0c0b300bee9b700c6
:1043400020c1b300bfe9b700e0c0b300c0e9b700c7
:10435000bc29ef0020002000d04d88008720a80055
:1043600010002000104c88000080fa0000000600b9
:104370000400fa00881f780031048000002020002b
:10438000008060000000e000ad003a00104c8000aa
:10439000e10f5000aa003a00bc29ef00e14d800077
:1043a000e09b20000080400061c1b300014878001c
:1043b00010002000e04d8800804880009148800077
:1043c000320020000203070060002000e04d88005a
:1043d00032002000817d2b000000eb009f020700cf
:1043e00080002000e04d880010002000804d8800f3
:1043f000e44a8000f54a8000c04a8000d14a80002b
:104400000001be000400be00520707003200200079
:10441000ef020700d0002000e04d880032002000ad
:10442000b17d2b000000eb008c020700f0002000a3
:10443000e04d88006000b800008fbe008445800019
:1044400095458000d0448000e14480000001be001a
:104450000400be006506070002002000832c240033
:104460003c070700008fbe0018c0b3000200200008
:10447000832c24001e00be00a00607000000e00000
:1044800001003d000044eb000804e0000e00320093
:1044900032002000617d2b000000eb006f0207005e
:1044a000320020001e00be00c902070040012000ab
:1044b000e04d880032002000e17d2b000000eb0081
:1044c0006602070009003700320020001e00be000f
:1044d000bf02070040012000e04d880032002000ac
:1044e000e17d2b000000eb005c0207005001200082
:1044f000e04d8800300020009b03070030002000c2
:10450000cb03070070012000e04d8800320020003e
:10451000017e2b000000eb005002070090012000fc
:10452000e04d8800b029ef0020488000314880002d
:1045300032002000a6020700e0012000e04d8800c4
:1045400032002000417e2b000000eb0043020700f8
:1045500000022000e04d880018c0b30002002000d7
:10456000031224001e00be00620607000000e000e7
:10457000010035000044eb000804e0000d003200ab
:10458000904b80000000e000050032003200200067
:10459000917e2b000000eb0030020700090037007d
:1045a00032002000517f2b000000eb002b0207009f
:1045b0000400370032002000517f2b000000eb0088
:1045c00026020700a0022000e04d8800c0448000c1
:1045d0000000e0000d003200904b80000000e00081
:1045e000050032003200200011802b000000eb009b
:1045f0001a0207000a00370032002000617d2b00fc
:104600000000eb0015020700050037003200200013
:10461000617d2b000000eb00100207008429ef00f1
:1046200020c1b300eae9b700e0c0b300ebe9b7008e
:10463000bc29ef00d0022000d04d88008720a800c0
:104640004f0478000080fa00000006000400fa0021
:10465000881f780031048000002020000080600066
:104660000000e000f2003a00104c8000e10f500022
:10467000ef003a00bc29ef00e14d8000e09b2000f4
:104680000080400061c1b3000148780010002000a4
:10469000e04d880080488000914880003200200072
:1046a0004b02070060002000e04d8800320020002f
:1046b000817d2b000000eb00e80107008000200056
:1046c000e04d880010002000804d8800e44a800002
:1046d000f54a8000c04a8000d14a80000001be0037
:1046e0000400be009b0607003200200038020700cd
:1046f000d0002000e04d880032002000b17d2b006a
:104700000000eb00d5010700f0002000e04d88001c
:104710006000b800008fbe00844580009545800091
:10472000d0448000e14480000001be000400be00cf
:10473000ae05070002002000832c24008506070038
:10474000008fbe0018c0b30002002000832c24009c
:104750001e00be00e90507000000e00001003d006a
:104760000044eb000804e0000e003200320020009c
:10477000617d2b000000eb00b80107003200200033
:104780001e00be001202070040012000e04d88001c
:1047900032002000e17d2b000000eb00af0107009c
:1047a00009003700320020001e00be00080207008a
:1047b00040012000e04d880032002000e17d2b0008
:1047c0000000eb00a501070050012000e04d88002b
:1047d00030002000e402070030002000140307002e
:1047e00070012000e04d8800c04a8000d14a80005e
:1047f00018c0b300d2cc2c00c3dc2300bf050700d7
:104800000000e00001003c000044eb000804e00070
:10481000050032003200200031802b000000eb0048
:104820008e01070014003700c04a8000d14a800082
:1048300018c0b300d2cc2c00c3dc2b00ad050700a0
:104840000000e000010035000044eb000804e00037
:10485000050032003200200091802b000000eb00a8
:104860007e0107000400370032002000f1802b0099
:104870000000eb0079010700c0012000e04d880036
:10488000d04c80000000e000050034003200200021
:1048900051812b000000eb0070010700040037007d
:1048a00032002000e1812b000000eb006b010700cb
:1048b00040022000e04d8800c04480000000e0007d
:1048c00052003200904b80000000e00021003200d6
:1048d000c04480008000e900204c8000808f5000a0
:1048e00002003c008429ef0003003700204c8000c8
:1048f0000000e800204c8800c04480008000e900ef
:10490000204c8000808f500005003a0032002000cb
:1049100071822b000000eb005001070023003700dc
:10492000204c80000000e00005003a00320020002a
:10493000f1822b000000eb00480107001b0037004c
:104940003200200071832b000000eb0043010700c0
:1049500016003700c04480008000e900204c800031
:10496000808f500005003a003200200071822b0039
:104970000000eb00390107000c003700204c8000dc
:104980000000e00005003a0032002000f1822b0018
:104990000000eb0031010700040037003200200066
:1049a00071832b000000eb002c010700204c8000dd
:1049b0008000400040882000008040009000780087
:1049c000000f2000808060000001200000017800be
:1049d000110009008200d800e5000700e7e9b700f0
:1049e000204c800080004000408820000080400073
:1049f000100078006f006000dd000700e8e9b700f4
:104a000080c6b300e9e9b700050037003200200096
:104a1000f1832b000000eb00100107008429ef0058
:104a2000bc29ef00b0022000d04d88008720a800ec
:104a30004f0478000080fa00000006000400fa002d
:104a4000100798000000eb00000f78009e00900017
:104a5000f01f2000808f5000020034001000200062
:104a6000150037001e00900000004000000f780085
:104a70009e00780000c02f0000804000000f7800ea
:104a8000f0072000203b88001e007800103b8800c3
:104a900040042400003b880050052000303b880083
:104aa000a00a2000303b8800000000000000000049
:104ab00061e7a8000000eb000080fa00000006009b
:104ac0000600fa0010079800210798000000eb008c
:104ad000000f78009e009000f01f2000808f500093
:104ae0000200340010002000190037001e00900062
:104af00000004000000f78009e00780000c02f00ea
:104b000000804000000f7800f007200010008800af
:104b1000910188002e009000200088001e0078007f
:104b2000000088000208bb0040002400003b880011
:104b300050052000303b8800a00a2000303b880050
:104b4000000000000000000061e7a8000000eb008a
:104b50000080fa00000006000400fa001007980028
:104b60000000eb00000f78009e009000f01f200076
:104b7000808f5000020034000000eb000f0037006f
:104b80001e00900000004000000f78009e0078009a
:104b900000c02f0000804000000f7800f0c7b30075
:104ba00032e0b7001e007800000088001002ba0052
:104bb0000000000000000000400080000080fa00bb
:104bc000000006000200fa00881f7800000f78003d
:104bd0001e007800e10f500017003a00204c8000c2
:104be0008000400040882000008040009000780055
:104bf000000f20008080600000012000000178008c
:104c0000110009008200d800590007000000fb00d5
:104c100080108800204c80008000400040882000e8
:104c200000804000100078006f0060005000070016
:104c30000000fb00801088001e007800e20f50008a
:104c400017003a00204c800080004000408820007f
:104c50000080400090007800000f200080806000fd
:104c60000001200000017800110009008200d80036
:104c70003f0007000000fb00d0108800204c80009f
:104c80008000400040882000008040001000780034
:104c90006f006000360007000000fb00d0108800a5
:104ca0001e007800e30f500029003a00e14d80001b
:104cb000c0022000808f500003003c00e04d8000c7
:104cc0000000e800e04d8800e84d8000204c8000a6
:104cd0008000400040882000008040009000780064
:104ce000000f20008080600000012000000178009b
:104cf000110009008200d8001d000700e19b200080
:104d00008100440080487800e14d8000c00220000e
:104d1000808f500003003c00e04d80000000e80060
:104d2000e04d8800e84d8000204c8000800040006d
:104d30004088200000804000100078006f00600074
:104d40000b000700e19b20008100440080487800b0
:104d50001e0078000000e00002003a00a0012000e0
:104d600085fb07004f0478000080fa000000060071
:104d70000600fa00200798000040eb00004f780082
:104d80000000eb00100798002e0090006f006000fc
:104d9000100798001e009000e90f500005003c002d
:104da0001e009000004078000043b000004f7800e3
:104db000040037001e009000004078007043b000ef
:104dc000004f78001e4078000080fa0000000600c6
:104dd0000400fa00004f7800110798000100370026
:104de00000000000711080000020200000806000a2
:104df0000000e00006003a001e009000e10f5000a5
:104e000003003a001e00fb008010880011003700ec
:104e1000c110800000202000008060000000e00041
:104e200006003a001e009000e20f500003003a0016
:104e30001e00fb00d0108800060037001e00900006
:104e40000000e000e6ff3a00a00120004afb070056
:104e5000000000000080fa00000006000800fa00d0
:104e60001007980021079800320798000000eb0017
:104e7000000f78001e009000e10f50000300320088
:104e80001e009000e30f50003e003a003e009000ec
:104e9000350107003e009000650107003a00370029
:104ea0007110800000202000008060000000e00001
:104eb0000a003a003e009000e10f500007003a005f
:104ec0001e007800ae009000008040001040780086
:104ed0000000fb00801088001e0fe800c110800059
:104ee00000202000008060000000e0000a003a007e
:104ef0003e009000e20f500007003a001e007800cc
:104f0000ae00900000804000104078000000fb00e0
:104f1000d01088001e0fe8003e009000e30f500004
:104f200010003a00e14d8000c0022000808f500048
:104f300003003c00e04d80000000e800e04d8800e8
:104f4000e24d80001e007800ae009000008040001e
:104f500090407800e09b200000004100014878006c
:104f60001e0fe8003e0090000000e00006003a003e
:104f7000a001200000fb07000000eb00000f7800fc
:104f800007003700000000001e007800ae0090000f
:104f900000804000104078000004e000c0ff3a00ac
:104fa0001e009000e20f5000030032001e0090002f
:104fb000e30f500004003a003e009000ea000700b2
:104fc0003e0090001a0107000080fa000000060071
:104fd0001000fa00881f78005007980061079800b9
:104fe000720798000000eb00000f78006000b80026
:104ff00010079800210798000000eb004007980078
:1050000000c2b300b2e9b70018c0b3006011b80025
:105010005e009000ee009000b60307000000e00084
:10502000010035000044eb000804e00007003200f6
:105030005e009000ee00900001f0a2005007980082
:1050400061079800d0c2b300b2e9b70018c0b3003e
:10505000f2ff2300c36124005e009000ee00900088
:10506000a60307000000e00001003c000044eb0044
:105070000804e00006003200f0ff2300c1612400b4
:105080005007980061079800f0c3b300b2e9b70079
:1050900002002000a34724005e009000ee00900074
:1050a0005203070010079800210798001e0fe80020
:1050b0001e0037001e007800e50f500003003a0084
:1050c000e0c2b300b7e9b7001e0fe8001e00900071
:1050d000ae0090008b030700400798004e00900040
:1050e000004078000043b00080407800209b200002
:1050f0001e004000014878001e0fe8004e0090009e
:10510000cf80de00bb0307000001be001e00900040
:10511000ae009000d7020700020020000312240016
:105120000c04070010079800210798001e00780063
:10513000e80f5000dfff34000000eb00000f7800a4
:10514000100020003007980080003700209b2000ce
:105150001e0040009040780000c3b30080cf500094
:105160002f003a003e0090000000e0002c003200ca
:10517000804d80000000e0002700320071108000a8
:1051800000202000008060000000e00006003a00df
:105190007e009000e10f500003003a000002200062
:1051a000801088001e0fe800c11080000020200041
:1051b000008060000000e00006003a007e009000e1
:1051c000e20f500003003a0000022000d0108800d7
:1051d0001e0fe8007e009000e30f500046003a00ea
:1051e000e14d8000c0022000808f500003003c0091
:1051f000e04d80000000e800e04d8800e14d8000b7
:10520000e09b20000080400001c2b300014878000c
:105210001e0fe800390037001e0fe8003700370086
:105220007110800000202000008060000000e0007d
:1052300009003a007e009000e10f500006003a009d
:10524000209b20001e004000104078000000fb0062
:10525000801088001e0fe800c11080000020200090
:10526000008060000000e00009003a007e0090002d
:10527000e20f500006003a00209b20001e00400074
:10528000104078000000fb00d01088001e0fe800de
:105290007e009000e30f50000f003a00e14d8000c7
:1052a000c0022000808f500003003c00e04d8000d1
:1052b0000000e800e04d8800e24d8000209b2000c7
:1052c0001e00400090407800e09b2000000041005c
:1052d000014878001e0fe8007e0090000000e0000a
:1052e00006003a00a001200023fa07000000eb00ae
:1052f000000f78001800370000000000209b2000fd
:105300001e0040009040780000c3b30080cf5000e2
:105310000e003200209b20001e00400090407800cc
:10532000d0c2b30080cf500008003200209b200084
:105330001e0040009040780000c2b30080cf5000b3
:10534000020032000000eb00300798001e007800d9
:10535000e80f50007dff3400b029ef004f047800c3
:105360000080fa00000006000200fa00000f78003a
:1053700001003700000000007110800000202000b4
:10538000008060000000e00006003a001e00780087
:10539000e10f500003003a00a000200080108800b8
:1053a00021003700c1108000002020000080600034
:1053b0000000e00006003a001e007800e20f5000f6
:1053c00003003a00a0002000d0108800160037002b
:1053d0001e007800e30f50000d003a00e14d800000
:1053e000c0022000808f500003003c00e04d800090
:1053f0000000e800e04d8800e14d8000e09b2000c7
:1054000000804000a1c0b3000148780006003700ca
:105410001e0078000000e000d6ff3a00a001200046
:10542000d5f90700000000000080fa000000060027
:105430000200fa00000f78000100370000000000b1
:105440007110800000202000008060000000e0005b
:1054500006003a001e007800e10f500003003a00f9
:10546000d00020008010880021003700c11080008b
:1054700000202000008060000000e00006003a00ec
:105480001e007800e20f500003003a00d000200018
:10549000d0108800160037001e007800e30f50007f
:1054a0000d003a00e14d8000c0022000808f5000c6
:1054b00003003c00e04d80000000e800e04d880063
:1054c000e14d8000e09b200000804000d1c0b3008f
:1054d00001487800060037001e0078000000e00058
:1054e000d6ff3a00a0012000a3f907000000000049
:1054f0000080fa00000006001200fa005007980031
:105500006107980072079800030f9800024022007c
:10551000439724007e0090008e0890000d03070042
:10552000008fbe005e019000ee0190001e00be00e4
:105530002e02070002002000031824002b0207009f
:105540000200200003f82300ca010700200798008a
:10555000310798002e009000be0090008a020700dc
:10556000400798004e0090000080fa0000000600fe
:105570000000fa007056240000408800000020005f
:105580008134240010408800214088000000200061
:10559000011824003040880041408800d04d22008e
:1055a000e1072c00504088006140880060662600ba
:1055b00061f623007040880081408800c01e2500ed
:1055c000c126240090408800a14088003033230089
:1055d000b1262400b0408800c1408800d0cc2c0007
:1055e000c1212400d0408800e14088000000200054
:1055f000c1202400f0408800014188000000200004
:105600000100240010418800214188000000200092
:10561000010a240030418800414188000000200038
:1056200001f0230050418800614188000000200003
:10563000011b240070418800814188000000200087
:10564000011f240090418800a14188000000200033
:10565000811c2400b0418800c14188000000200066
:1056600001122400d0418800e141880000002000a0
:1056700001172400f041880001428800000020004a
:1056800001222400104288002142880000002000ee
:10569000c1202400304288004142880000002000e0
:1056a000811c240050428800614288006000b800dc
:1056b000704288008142880000002000011224000e
:1056c00090428800a142880000002000c1252400eb
:1056d000b0428800c14288000000200081242400dc
:1056e000d0428800e1428800000020000117240019
:1056f000f0428800014388000000200001272400b8
:10570000104388002143880000002000012a240063
:105710003043880041438800000020008124240099
:10572000504388006143880000002000011f2400ce
:1057300070438800814388000000200081242400f9
:1057400090438800a14388000000200061492400a4
:10575000b0438800c1438800d0cc2c00c1d42300c2
