:020000040000fa
:080000000001040000000000f3
:020000040000fa
:04000800c80100002b
:020000040000fa
:04000c00c219000015
:020000040000fa
:04001000081a0000ca
:020000040000fa
:04001400301a00009e
:020000040000fa
:04001800581a000072
:020000040000fa
:04001c00c801000017
:020000040000fa
:04002000c801000013
:020000040000fa
:04002400801a00003e
:020000040000fa
:040028005a0e00006c
:020000040000fa
:04002c00c801000007
:020000040000fa
:04003000c801000003
:020000040000fa
:04003400f2120000c4
:020000040000fa
:04003800c8010000fb
:020000040000fa
:04003c00c8010000f7
:020000040000fa
:040040003c17000069
:020000040000fa
:04004400ba0f0000ef
:020000040000fa
:04004800c8010000eb
:020000040000fa
:04004c002612000078
:020000040000fa
:040050006a12000030
:020000040000fa
:04005400d00f0000c9
:020000040000fa
:04005800c8010000db
:020000040000fa
:04005c00c8010000d7
:020000040000fa
:04006000c8010000d3
:020000040000fa
:04006400c8010000cf
:020000040000fa
:04006800640f000021
:020000040000fa
:04006c00c8010000c7
:020000040000fa
:04007000c8010000c3
:020000040000fa
:04007400c8010000bf
:020000040000fa
:04007800c8010000bb
:020000040000fa
:04007c00c8010000b7
:020000040000fa
:04008000c8010000b3
:020000040000fa
:04008400c8010000af
:020000040000fa
:04008800481200001a
:020000040000fa
:04008c00ac120000b2
:020000040000fa
:04009000c8010000a3
:020000040000fa
:04009400c80100009f
:020000040000fa
:04009800c80100009b
:020000040000fa
:04009c00c801000097
:020000040000fa
:0400a000c801000093
:020000040000fa
:0400a400c80100008f
:020000040000fa
:0400a800c80100008b
:020000040000fa
:0400ac00c801000087
:020000040000fa
:0400b000c801000083
:020000040000fa
:0400b400c80100007f
:020000040000fa
:0400b800c80100007b
:020000040000fa
:0400bc00c801000077
:020000040000fa
:0400c000c801000073
:020000040000fa
:0400c400c80100006f
:020000040000fa
:0400c800c80100006b
:020000040000fa
:0400cc00c801000067
:020000040000fa
:0400d000c801000063
:020000040000fa
:0400d4009a19000075
:020000040000fa
:0400d800c80100005b
:020000040000fa
:04010800c80100002a
:020000040000fa
:04010c00c801000026
:020000040000fa
:04011000c801000022
:020000040000fa
:04011400c80100001e
:020000040000fa
:04011800c80100001a
:020000040000fa
:04011c00c801000016
:020000040000fa
:04012000c801000012
:020000040000fa
:04012400c80100000e
:020000040000fa
:04012800c80100000a
:020000040000fa
:04012c00c801000006
:020000040000fa
:04013000c801000002
:020000040000fa
:04013400c8010000fe
:020000040000fa
:04013800c8010000fa
:020000040000fa
:04013c00c8010000f6
:020000040000fa
:04014000c8010000f2
:020000040000fa
:04014400c8010000ee
:020000040000fa
:04014800c8010000ea
:020000040000fa
:04014c00c8010000e6
:020000040000fa
:04015000c8010000e2
:020000040000fa
:04015400c8010000de
:020000040000fa
:04015800c8010000da
:020000040000fa
:04015c00c8010000d6
:020000040000fa
:04016000c8010000d2
:020000040000fa
:04016400c8010000ce
:020000040000fa
:04016800c8010000ca
:020000040000fa
:04016c00c8010000c6
:020000040000fa
:04017000c8010000c2
:020000040000fa
:04017400c8010000be
:020000040000fa
:04017800c8010000ba
:020000040000fa
:04017c00c8010000b6
:020000040000fa
:04018000c8010000b2
:020000040000fa
:04018400c8010000ae
:020000040000fa
:04018800c8010000aa
:020000040000fa
:04018c00c8010000a6
:020000040000fa
:04019000c8010000a2
:020000040000fa
:04019400c80100009e
:020000040000fa
:04019800c80100009a
:020000040000fa
:04019c00c801000096
:020000040000fa
:0401a000c801000092
:020000040000fa
:0401a400c80100008e
:020000040000fa
:0401a800c80100008a
:020000040000fa
:0401ac00c801000086
:020000040000fa
:0401b000c801000082
:020000040000fa
:0401b400c80100007e
:020000040000fa
:0401b800c80100007a
:020000040000fa
:0401bc00c801000076
:020000040000fa
:0401c000c801000072
:020000040000fa
:0401c400c80100006e
:020000040000fa
:0401c800c80100006a
:020000040000fa
:0401cc00c801000066
:020000040000fa
:0401d000c801000062
:020000040000fa
:0401d400c80100005e
:020000040000fa
:0401d800c80100005a
:020000040000fa
:100200002fab20000ebf20000e0188000000000070
:10021000000020000000e000020032000001200089
:1002200020028800140007005b0007000000e000c7
:1002300003003a00a03e2300010020000200370026
:100240000000200001002000810f7000010032003a
:1002500014000700000020000000e000020032004f
:1002600000000200000000004a330200000000000d
:100270000040da000000fe004440a9006028200091
:100280000000e0000300320000002000a001880010
:100290004440a800000006008a1f78008b1f7800e9
:1002a0000000060091018800800478000000eb0047
:1002b0001a003700e284440032a0b4009905ba0065
:1002c000e284440032a0b4009906ba00e2844400fb
:1002d00032a0b4000006eb00476fde00fd07b2005d
:1002e000636ce10003003a00ebff07000000eb0045
:1002f0000a003700606ce10004003a00005deb008a
:100300008b05e900fdff3e00040037006168e10055
:10031000010032000086eb000b00070019c7ba008d
:100320001905ba000e04e00003003a000a00e000dc
:10033000e0ff3a0000000600fe07b2009e018800c0
:100340008a047800f5ff3700395dba008b05e900b3
:100350000c003200295dba008b05e900080032006c
:100360000c00e00003003a00e284440032a0b40034
:10037000f5ff370019ddba008b05e900faff3a00f6
:100380008904e800e184440032a0b40000000600c3
:100390000040da000000fe000000050003f0a200ab
:1003a000889fbe008a9fbe008c1f78001b0107003b
:1003b000220133006450e1004f0032006420e1006c
:1003c0005200320003826c0007003b000905d00098
:1003d0000306d000820f54000c065d0002003900b5
:1003e00002003200890178000306780085825500fa
:1003f00004003d000003fd008103fd008502ea00ca
:100400008b854200840f720002003b0060001000e8
:10041000e08018006011b8000005eb007a28e100c8
:100420000a00390006007800c75ddd00f707b2005a
:10043000878075002d003700828171000a017800e5
:10044000610560008180d1000080d3008502e90051
:10045000f9ff3b00060440008784480002003b008f
:1004600060041400e0841c000988a3000700320027
:100470008a81710082817100610164008904d10068
:100480000884d3008b05e800170037000978a30023
:1004900013003a000b00e000130034008b05e90064
:1004a0000804440089844c000a4474000978a300bd
:1004b0000d003a000b00e000070034008b05e90056
:1004c0000804440089844c0001003a000b0020001d
:1004d0000978a300f7ff32000001eb0002003700ab
:1004e000828171000a017800910007000cf0a700da
:1004f00001f0a000da0037006420e10002003a00b9
:10050000838f6c00da0033000801be000200be00d9
:10051000d3003700889fbe008a9fbe008c1f7800e2
:10052000be000700c500330003866c006450e10084
:100530002e0032006420e100330032006150e100ff
:100540002f0032006120e100310032008585550026
:10055000eb07b00009002000080420000500370068
:100560000804440089844c000a003100060343005b
:1005700087834b000001530081815b00f8ff33004b
:100580000203be000800a0000804440089844c0057
:10059000f6ff3900c639dd00830173000100320027
:1005a000130020008904d1000884d3000998a30017
:1005b000050032000800a7000300a0008904d10054
:1005c0000884d3008b05e8008904d1000884d30097
:1005d0000001eb000281d2005500070001f0a100ec
:1005e0000cf0a70001f0a0009d0037006420e1009e
:1005f0009f0032000801be000200be00f7ff370076
:100600006120e1009a0032006000b800f3ff37007b
:100610000000200001f82700f0ff37001400200040
:10062000ca003700f4ff2f00c80037000001be00e9
:10063000650007000470a70003f0a1006509b10080
:10064000160032000d0035006828e1000600350074
:10065000f0ff2f00f1ff27000300e00013003b0034
:1006600001002800000005000000400081804800d3
:100670008502e900fcff3a0008003700f88f4200cd
:1006800002003c008000eb00000005008100d1006a
:100690000080d3008502e800fcff3a000300e00080
:1006a00002003b0060001000e0801800000006001f
:1006b0000001be00440007000470a70003f0a10081
:1006c00003f8a30013003a006509b10010003200de
:1006d000090035006928e10002003500010028000a
:1006e0000000050000004000818048008502e9000c
:1006f000fcff3a0000000600f88f420005003500bc
:100700008100d1000080d3008502e800fcff3a00a0
:10071000000006008000eb00000005004f89de00ad
:1007200082017800a40037006011b800b2003700e1
:1007300081002000618055000b003d000b0020006f
:1007400061fe2f000100e1001d0034008281710074
:10075000610164008904d1000884d3000000e8002e
:10076000faff3a007100200061006400030070008d
:10077000020060000900320061044400e0844c0083
:100780000988a500050032008b05e8006808e10033
:1007900002003a008904d1000884d300f20f20003f
:1007a0000258e10005003d00c75ddd00f907b20019
:1007b0008980750008007800000006000bf827000b
:1007c0008b00780000000500c70ade00f107b200c8
:1007d000f50fb20008003200e1cf42000200320003
:1007e0000170a00024000500810f7000010032009c
:1007f0000408050044000500810f700002003a0063
:10080000140005008502e9000000400081c0480096
:10081000fcff3b000170a000240005000004be00a6
:10082000e9ff07000003be000405be000200be0091
:10083000e5ff0700844f7500000006000200be00bf
:100840006450e100050036006420e100020036003b
:100850000968a30001003a000800be000160a00082
:100860004f0678004f05be004f04be000000060092
:10087000f0ff2f00f1ff2700f9ff3700889fbe002f
:100880008a9fbe008c1f7800e4ff0700ebff330057
:1008900003866c006450e100240032006420e10013
:1008a000270032006150e100220032006120e100a7
:1008b000210032008b854200eb07b1000134b80003
:1008c000003ab8000804420089844a00013ab8009e
:1008d0000030b8008880400009014a00040033005d
:1008e0000000400081804800020149008b05e900ba
:1008f000c909dd00830170000100320013002000ef
:10090000c814de004814dd004709de001200b20002
:10091000c808de000884700085ff070001f0a10010
:100920000cf0a70001f0a000cdff37006120e1002e
:10093000cfff32000801be000200be00f7ff370003
:100940006150e100fcff3a00c9ff3700889fbe00fc
:100950008a9fbe00841f7800b0ff07004f00780018
:1009600011003300f0ff2f00838f6c0006003b0066
:10097000040565000a00a7000800370009f0a6007a
:100980001000200008003700820f5400838f5c00a5
:10099000030039001000200001003e00000020008c
:1009a00009f0a7000000ea004f05be004f04be009a
:1009b0000000e00000000600881f780003047800b3
:1009c0000300e00007003d0060001000e080180018
:1009d00060011900e081190002003b0001f02d00c8
:1009e000030037000400070008f0a70001f0a00092
:1009f0004f04780000000600889fbe008a9fbe005a
:100a0000008270000402710004827100260032002e
:100a10000004be000200be006011b8006b09200097
:100a2000950220000182cf000a0039000541b10083
:100a30000082cf00070039000541b1000982cf00d4
:100a4000040039000541b1000882cf0001003900df
:100a50000541b10005425200120032000a003b007d
:100a600082817100610164008100d1000080d300a7
:100a70008984d3000884d3008b05e8000442e80091
:100a8000f7ff3a00070037000804440089844c004f
:100a900000004800818048008b05e9000442e9001d
:100aa000f9ff3a0022ff07004f05be004f04be00c9
:040ab000000006003c
:020000040000fa
:100ab4004865000061740000207400006f6f00003e
:100ac400207300006d6100006c6c0000004e00009b
:100ad4006f2000006865000061740000657200000a
:100ae4002064000065740000656300007465000004
:100af4006400000048650000617400002074000078
:100b04006f6f0000206c00006172000067650000d8
:100b1400004c00006f770000204200006174000068
:100b240074000000446900007363000068720000f0
:100b3400672000004f43000000430000687200007b
:100b4400672000004f430000004200006174000071
:100b5400742000004f560000004200006174000041
:100b6400742000004f540000004d00004374000046
:100b74006c2000004f54000000530000656c00001e
:100b8400662000004f5400000053000079730000f9
:100b94002053000068750000746400006f77000043
:100ba4006e000000505700004d2000004572000008
:100bb400720000004f7300006320000046610000d3
:100bc400696c0000004100006464000072200000b1
:100bd4004572000072000000535400004b200000d6
:100be40045720000720000004d54000048200000cf
:100bf400457200007200000052650000732000007e
:100c040037000000504c00004c200000554c000000
:100c140000420000726e00004f7500007400000076
:100c24005744000054200000727300007400000058
:100c34005452000041500000207200007374000000
:100c4400004f0000706300006f6400006520000026
:100c5400696e0000766100006c2000007273000071
:100c6400740000004d4300004c520000207200004c
:100c740073740000004900006c6c0000656700009c
:100c8400616c0000204900006e7300007472000063
:100c940075630000740000005379000073200000a5
:100ca400526500007365000074000000496e000086
:100cb400766100006c69000064200000706f000021
:100cc40072740000004e00006f2000006368000092
:100cd4007267000020630000726e00007400000060
:100ce40050430000203e000020310000303000005e
:100cf4002500000056480000204200005600000075
:100d0400564c0000204200005600000056480000e7
:100d14002042000043000000564c00002042000026
:100d24004300000056480000204200005400000028
:100d3400564c0000204200005400000056480000b9
:100d4400204d000043540000005600004c200000d9
:100d54004d4300005400000056480000205300009a
:100d64004d000000564c0000205300004d000000d0
:100d7400504f000052540000312000004253000044
:100d8400592000006572000072000000504f0000fe
:100d94005254000032200000425300005920000049
:100da400657200007200000050720000676d000060
:100db40020430000686b0000737500006d20000084
:100dc40045720000720000004e5600006d65000080
:100dd4006d200000436800006b730000756d000017
:100de4002045000072720000005500006e6b000088
:100df4006e6f0000776e0000005200006561000015
:100e0400646900006e670000204600006175000000
:100e14006c740000732e00000d0a000000460000f0
:100e2400617500006c740000204c00006f670000c6
:100e340020460000756c00006c2e00000d0a0000b6
:100e4400004e00006f20000066610000756c000019
:100e540074200000636f000064650000732e0000be
:100e64000d0a0000004300006f640000653a0000b2
:100e740020000000202d00003e200000000d000096
:100e84000a00000040000000210000000d0a0000dc
:100e940050520000473a00000d0a0000537400004d
:100ea4006f720000656400003a0000000d0a000043
:100eb400436100006c6300003a2000002000000041
:100ec4000d0a00004e5600004d3a00000d0a0000c5
:100ed400537400006f720000656400003a00000063
:100ee4000d0a00005365000074740000696e000070
:100ef40067730000206100006e640000205600004b
:100f040061720000732000005361000076650000e8
:100f1400642e00000d0a000000500000204f000065
:100f24006e2000000d0a000000500000204f000059
:100f3400666600000d0a0000004200004d6f0000cc
:100f44006e2000004f6e0000203a0000440d0000a7
:100f54000a00000021210000424d00006f6e0000d5
:100f6400204f000066660000212100000d0a0000e9
:100f740000460000617500006c74000073200000de
:100f8400436c00006561000072650000642e00007f
:100f94000d0a0000005500006e6b00006e6f00002b
:100fa400776e0000204300006f6d00006d6100004b
:0c0fb4006e6400002e0d00000a0000001a
:020000040000fa
:100fc0000200fa00000f780002003700c8c2a90032
:100fd0000140fe001e00780080004000c0a62000f6
:100fe00000804000100078000000e000f7ff3a00a9
:100ff000c8c2a8000080fa00000006000400fa0041
:10100000100798009e009000f06f2800f011070074
:101010001e009000d81107001e00900080004000c4
:1010200080a72000008040008000eb0001087800cd
:101030001e009000e2ff0700b0448000ea0f50005d
:10104000050034009e00900010712800e011070098
:101050001e009000c8110700b04480000000e000ae
:10106000ee003a009e00900030722800d811070070
:101070001e009000c0110700f10037001e00900014
:101080008000400080a72000008040001000780011
:101090000000e80080004000008820000080400040
:1010a000100078006101b9000080eb008080eb0047
:1010b00002004000838048009202200003002000cc
:1010c000820f5000838f5800a9003e00006001008d
:1010d000290037002b0037002d0037002f00370084
:1010e0003100370033003700350037003700370054
:1010f000390037003b0037003d0037003f00370024
:1011000041003700430037004500370047003700f3
:10111000490037004b0037004d0037004f003700c3
:101120005100370053003700550037005700370093
:10113000590037005b0037005d0037005f00370063
:101140006100370063003700650037006700370033
:10115000690037006b0037006d0037006f00370003
:1011600071003700730037007500370077003700d3
:10117000790037007b003700a0552800000f780069
:101180007e00370090562800000f78007b00370063
:10119000c0572800000f780078003700b0582800aa
:1011a000000f78007500370040592800000f7800c4
:1011b00072003700f0592800000f78006f003700e8
:1011c000705a2800000f78006c003700f05a280091
:1011d000000f780069003700705b2800000f78006e
:1011e00066003700f05b2800000f780063003700ce
:1011f000705c2800000f780060003700405d280018
:10120000000f78005d003700c05d2800000f7800f7
:101210005a003700505e2800000f78005700370052
:10122000e05e2800000f780054003700605f28005f
:10123000000f780051003700e05f2800000f7800b1
:101240004e00370040602800000f78004b00370048
:10125000b0602800000f78004800370020612800a7
:10126000000f780045003700a0612800000f7800cb
:101270004200370030622800000f78003f0037003e
:1012800040632800000f78003c003700d06328003e
:10129000000f780039003700e0642800000f780064
:1012a0003600370080652800000f780033003700d3
:1012b00050662800000f78003000370020672800b3
:1012c000000f78002d003700c0672800000f78005d
:1012d0002a00370020682800000f78002700370018
:1012e00080682800000f780024003700e06828009c
:1012f000000f78002100370040692800000f7800b7
:101300001e003700a0692800000f78001b0037007e
:10131000006a2800000f780018003700706a280063
:10132000000f780015003700e06a2800000f7800f1
:1013300012003700406b2800000f78000f003700c4
:10134000a06b2800000f78000c003700806c28008c
:10135000000f780009003700606d2800000f78004a
:1013600006003700606e2800000f78000300370089
:10137000706f2800000f7800000000001e00900031
:101380000fff07009e009000507328001011070007
:101390001e0090008000400080a7200000804000d8
:1013a000100078000000e800800040000088200065
:1013b00000804000100078009e009000421007005e
:1013c0009e009000c0732800011107009e0090004d
:1013d0001e007800fe1007009e0090001074280088
:1013e000fb1007001e009000e31007001e00900095
:1013f0008000400080a7200000804000100078009e
:101400008000e8001e0090000001400080a720003e
:1014100000004100010878000100370000000000d2
:101420001e0090008000400080a720000080400047
:1014300090007800b0448000808f50000fff35008e
:101440000080fa00000006000200fa00000f780099
:101450001e0078000000e0000f0032001e0078003f
:1014600080004000609b20000080400090017800d8
:10147000e0108000004178001e0078006a00b9008a
:101480000000780083004000209a20000080400087
:10149000024878000e0037001e00780080004000ef
:1014a000609b200000804000900178009010800038
:1014b000004178001e0078006a00b9000000780042
:1014c00083004000209a20000080400002487800fd
:1014d0001e00780080004000a0aa2000008040008c
:1014e000100078000000e0003c0032001e00780090
:1014f00080004000609b20000080400010017800c8
:101500001e0078006a00b9000000780082004000e8
:10151000209a20000080400010407800ed4f5000dd
:101520000e003a001e00780080004000609b200002
:1015300000804000100178001e0078006a00b900a9
:101540000000780082004000209a200000804000c7
:1015500010407800ea4f5000200032001e00780052
:101560000000e0000f0032001e0078008000400004
:10157000609b200000804000100178001e00780071
:101580006a00b9000000780082004000209a200024
:1015900000804000104078000000fb00d010880060
:1015a0000e0037001e00780080004000609b200085
:1015b00000804000100178001e0078006a00b90029
:1015c0000000780082004000209a20000080400047
:1015d000104078000000fb00801088001e0078009a
:1015e00080004000609b20000080400010017800d7
:1015f0001e0078006a00b9000000780082004000f8
:10160000209a20000080400010407800ed4f5000ec
:1016100022003a001e00780080004000a0aa2000ae
:1016200000804000100078000000e000030032005d
:101630009e00780010742800651007001e007800d6
:1016400080004000609b2000008040001000780077
:10165000800078001e00780000014000609c20009f
:1016600000004100010878001e0078008000400062
:10167000609b2000008040008000eb0001087800a3
:101680001e00780080004000a09b200000804000e9
:101690001100200001087800130037001e007800b8
:1016a00080004000609b2000008040009000780097
:1016b00040558000808f50000b0031001e007800e4
:1016c00080004000609b20000080400010007800f7
:1016d0008000e8001e00780000014000609b2000b0
:1016e00000004100010878000080fa0000000600b8
:1016f0000200fa00000f78001e0078000000e000f1
:1017000012003200020037001e0078004eff070072
:10171000c0108000610060000000e000170032008f
:101720001e00780080004000a09b20000080400048
:10173000100078000000e000f3ff32000f003700d7
:101740001e00780040ff0700010037000000000085
:1017500070108000610060000000e00007003200af
:101760001e00780080004000a09b20000080400008
:10177000100078000000e000f1ff32001e00780049
:1017800080004000a09b20000080400010007800f6
:10179000e10f500043013a009e0078004074280099
:1017a0000b100700b04480000000e000030034008c
:1017b0009e00780060742800051007001e00780065
:1017c0008000400040a72000008040001001780009
:1017d0001e0078006a00b900000078008200400016
:1017e000209a200000804000104078000000fb009c
:1017f0006101b90030ff2f00f1ff2f00020040000f
:10180000838048008206200003002000820f5000e1
:10181000838f580008013e00006001000a01370074
:1018200005013700040137000301370002013700ca
:101830000101370000013700ff003700fe003700cc
:10184000fd003700fc003700fb003700fa003700ce
:10185000f9003700f8003700f7003700f6003700ce
:10186000f5003700f4003700f3003700f2003700ce
:10187000f1003700520037005f0037008100370069
:101880006e003700ec003700eb003700ea0037004d
:10189000e9003700e8003700e7003700e6003700ce
:1018a000e5003700e4003700e3003700820037002e
:1018b000e1003700e0003700df003700de003700ce
:1018c000dd003700dc003700db003700da003700ce
:1018d000d9003700d8003700d7003700d6003700ce
:1018e000d5003700d4003700d3003700d2003700ce
:1018f000d1003700a7003700cf003700790037004c
:1019000089003700cc00370070003700ca0037006c
:10191000c9003700c8003700c70037009100370002
:10192000c5003700c400370082003700c20037000e
:10193000c100370079003700bf003700af00370023
:10194000bd003700bc003700bb003700ba003700cd
:101950009b003700b8003700b7003700b6003700eb
:10196000b5003700b4003700b3003700b2003700cd
:10197000b1003700b0003700af003700600037001b
:10198000ad003700ac00370053003700aa00370025
:10199000a9003700a8003700a700370077003700fc
:1019a000a5003700a400370068003700a200370008
:1019b000a1003700a00037009f00370097003700d4
:1019c0001e00780080004000609b200000804000e6
:1019d0008000eb00010878001e00780080004000c5
:1019e000a09b2000008040008000eb0001087800f0
:1019f0000000fe00990037009e00780080742800e7
:101a0000730f0700c04480009e007800ae0e0700f0
:101a10009e007800807528006d0f07005c0e07009f
:101a2000f04c80009e007800a70e07009e00780012
:101a300010742800660f0700880037009e007800a9
:101a400020762800620f0700f01f2000cb0d070052
:101a50009e0078009c0e07009e007800807528008c
:101a60005b0f0700540e0700004d80009e007800b9
:101a7000950e07009e00780010742800540f070090
:101a8000760037009e00780020772800500f07006e
:101a90000000eb00ad060700814c80002000200014
:101aa00000017800110009008200d8000000e80061
:101ab000dd060700690037000000eb00af0d0700ee
:101ac0009e007800800e07006400370010002000a0
:101ad0009047880061003700500020009047880040
:101ae0005e0037001e00780080004000a0aa2000a1
:101af00000804000110020000108780057003700e6
:101b00001e00780080004000a0aa20000080400055
:101b10008000eb0001087800500037001000200022
:101b2000e04988004d0037001e00780033fd0700b3
:101b30004a0037009e007800f0782800240f070044
:101b400010002000804b8800440037009e00780081
:101b5000707928001e0f07009429ef007029ef000c
:101b60003e003700942aef009429ef009e00780091
:101b7000f0792800160f070038003700f05f2500c5
:101b8000a05488009e007800c07a2800100f07003b
:101b9000320037009628ef006e29ef009047800052
:101ba000e50f500001003200f228ef007e29ef001f
:101bb0009e007800b07b2800050f07002700370043
:101bc0002629ef00b0408000c140800020478800f7
:101bd00031478800d116800000102000008060008e
:101be0000000e00002003200a228ef001b003700d6
:101bf000a00020001045880018003700a14c80008c
:101c000020062000808f500011003c00a04c800076
:101c10000000e800a04c880010003700a04c8000b5
:101c20000000e0000c003400a04c80000000e9003f
:101c3000a04c8800090037009e007800d07c280066
:101c4000e30e070005003700000000000300370026
:101c50000000000001003700000000001e007800b6
:101c600080004000609b2000008040008000eb006e
:101c7000010878001e00780080004000a09b200032
:101c8000008040008000eb00010878001e00780012
:101c90008000400040a72000008040008000eb0052
:101ca000010878001e007800b30e07000080fa00db
:101cb000000006003600f800809fbe00829fbe0034
:101cc000849fbe00869fbe00881f78000000fa0037
:101cd000c8c2a8006000b800b0478800c1478800ab
:101ce000704080008140800018c0b30002002000d6
:101cf00003f823004bfa07000000e00001003c005d
:101d00000044eb000804e000060032000000200060
:101d100001f823007040880081408800c001200045
:101d2000340b070070408000814080006011b800d3
:101d30003afa07000000e00005003a00b0408000d9
:101d4000c140800020478800314788002629ef00e5
:101d5000a04b8000e10f50001e00320010458000b3
:101d6000e90f50001b003c00104580000000e80017
:101d7000104588001000200030498800b4408000e1
:101d8000c5408000d0408000e14080000001be00de
:101d90000400be0081f907000002be007040800010
:101da000814080000001be000400be00b3fa0700bd
:101db0000002be00d0408000e14080000001be0073
:101dc0000400be0076f907002047880031478800ec
:101dd0000c003700a04b8000e10f500009003200da
:101de00010458000e90f500006003400a228ef00e3
:101df0002629ef00b0408000c140800020478800c5
:101e00003147880090478000e20f500016003200f2
:101e100000178000620060000000e0001200320045
:101e2000804b80000000e0000f003a00a04b8000d3
:101e30000000e0000c003a00704b80000000e00061
:101e400009003a0010002000604b88009047800095
:101e5000e50f50000200320010002000904788007b
:101e600010002000a04b8800001780006200600076
:101e70000000e00009003200804b80000000e0001c
:101e800006003a006000b8004045880051458800cf
:101e90006000b8006045880071458800100020008f
:101ea000604c88008400a9000080fa004f0478008c
:101eb0004f03be004f02be004f01be004f00be00e8
:101ec0003600f900004006003600f800809fbe0092
:101ed000829fbe00849fbe00869fbe00889fbe007a
:101ee0000000fa00c8c2a800500880008000eb0083
:101ef0000dfa070060498800714988000a21ef0047
:101f0000804980000000e0000f003200b8438000ec
:101f1000c9438000604980007149800002f02f00b1
:101f2000f37724007bf907000001be000800be0023
:101f300078f9070002002000135624004ffa07002a
:101f400040498800514988001000200080498800dd
:101f50008600a9000080fa004f04be004f03be00b7
:101f60004f02be004f01be004f00be003600f90018
:101f700000400600809fbe000000fa00c8c2a80012
:101f80006000b80040498800514988003029ef00be
:101f900084e0a9000080fa004f00be000040060067
:101fa0003600f800809fbe00829fbe00849fbe0066
:101fb000869fbe000000fa00c8c2a800f049800059
:101fc000e70f5000c7003400204a8000314a8000eb
:101fd00002002000031024004ef90700204a880068
:101fe000314a8800204a8000314a800002002000e7
:101ff00003702400e9f80700204a8800314a88006d
:10200000204a8000314a8000020020000370240032
:1020100040f90700204a8800314a8800204a8000a1
:10202000314a8000020020000302240013fa070056
:10203000204a8800314a8800204a8000314a8000c6
:10204000a2702d0033d2230032f907000002be0037
:1020500070478000814780000001be000400be0080
:10206000cff80700d0488800e1488800530b0700ec
:102070006000b800204a8800314a8800004a800089
:10208000114a800002c02c00c37c240021f9070003
:10209000004a8800114a8800044a8000154a8000de
:1020a000e0458000f14580000001be000400be0054
:1020b00018f907000002be00504080006140800017
:1020c0000001be000400be00b5f80700704888009b
:1020d000814888006000b800004a8800114a8800e2
:1020e000404a8000514a800002c02c00c37c24007a
:1020f00008f90700404a8800514a8800404a800099
:10210000514a8000f2282c0053ef2300a3f8070067
:10211000404a8800514a8800404a8000514a800065
:1021200042722900f3c72300faf80700104888001c
:10213000214888006000b800404a8800514a880061
:10214000604a8000714a800002c02c00c37c2400d9
:10215000f0f80700604a8800714a8800604a8000f1
:10216000714a8000f2282c0053ef23008bf80700ff
:10217000604a8800714a8800604a8000714a800085
:1021800042722900f3c72300e2f807005048880094
:10219000614888006000b800604a8800714a880081
:1021a000804a8000914a800002c02c00c37c240039
:1021b000d8f80700804a8800914a8800804a800049
:1021c000914a8000f2282c0053ef230073f8070097
:1021d000804a8800914a8800804a8000914a8000a5
:1021e00042722900f3c72300caf80700304888006c
:1021f000414888006000b800804a8800914a880001
:10220000304880004148800050488800614888007c
:102210003e29ef00a1548000f05f2500808f500020
:1022200007003200404b8000e10f500004003a00ec
:10223000704b80000000e00001003a00850a0700b2
:10224000e04980000000e00017003a00704b800079
:102250000000e00014003a00f909070090478000f0
:10226000e20f500003003c00904780000000e000b7
:1022700008003a00a0498000e10f500005003a0034
:10228000604b8000e50f500002003a007006070026
:1022900008003700a04980000000e00004003a0078
:1022a000100b0700030037000e0b0700010037007a
:1022b00000000000a04980000000e00006003a0095
:1022c000404b8000e10f500003003a00a1e2a9005a
:1022d0006829ef005500370010002000404b8800af
:1022e00052003700404b8000e10f50003d003a00a3
:1022f000001480008000eb000bf907000002be0014
:10230000004a8000114a80000001be000400be00a7
:1023100023f80700004a8800114a88001014800042
:102320008000eb0000f907000002be00204a800098
:10233000314a80000001be000400be0018f807000a
:10234000204a8800314a8800201480008000eb0079
:10235000f5f807000002be00404a8000514a8000a4
:102360000001be000400be000df80700404a8800ce
:10237000514a8800301480008000eb00eaf8070022
:102380000002be00604a8000714a80000001be0069
:102390000400be0002f80700604a8800714a880005
:1023a000401480008000eb00dff807000002be0050
:1023b000804a8000914a80000001be000400be00f7
:1023c000f7f70700804a8800914a8800a1548000ee
:1023d000f05f2500808f50001100320039050700a2
:1023e0000f0037006000b800004a8800114a8800da
:1023f0006000b800204a8800314a88006000b800b8
:10240000404a8800514a88006000b800604a88004d
:10241000714a88006000b800804a8800914a8800ac
:10242000f04980000000e800f04988008560a900bc
:102430000080fa004f03be004f02be004f01be00f5
:102440004f00be003600f900004006003600f800dc
:10245000809fbe00829fbe00849fbe00869fbe00fc
:102460000000fa00c8c2a8000000eb00a0fc0700b2
:102470008520a9000080fa004f03be004f02be0075
:102480004f01be004f00be003600f90000400600bc
:102490003600f800809fbe00829fbe00849fbe0071
:1024a000869fbe000000fa00c8c2a80010002000ed
:1024b0008ffc07008700a9000080fa004f03be00d0
:1024c0004f02be004f01be004f00be003600f900b3
:1024d00000400600809fbe000000fa00c8c2a800ad
:1024e00009003700614f8000009f200000804000fd
:1024f000104078000000fb0080108800604f8000d2
:102500000000e800604f880071108000002020006b
:10251000008060000000e00004003a00614f80008d
:10252000404f8000808f5000eeff3500614f8000eb
:10253000404f8000808f500003003500ec29ef00f1
:10254000e829ef006c2aef008540a9000080fa001e
:102550004f00be0000400600809fbe000000fa0051
:10256000c8c2a8000b003700704f80002103200074
:1025700080804000009f20000080400010407800d4
:102580000000fb00d0108800704f80000000e800c1
:10259000704f8800c1108000002020000080600083
:1025a0000000e00004003a00714f8000504f8000ae
:1025b000808f5000ecff3500714f8000504f80003d
:1025c000808f500003003500ee29ef00ea29ef006c
:1025d0006e2aef008720a9000080fa004f00be009d
:1025e000004006003600f800809fbe00829fbe00bb
:1025f000849fbe00869fbe00889fbe008a1f780011
:102600000200fa00c8c2a800a1e2a800a049800008
:102610000000e00006003200f0438000704c8800ab
:10262000b0032000d0548800d442a8001200370024
:10263000d05480000000e0000c003c00b0032000fb
:10264000d0548800704c80000000e00003003c0083
:1026500010002000e049880007003700704c80001f
:102660000000e900704c880003003700d05480005f
:102670000000e900d0548800004980000000e0001c
:102680001000340094418000a54180001049800072
:102690002149800018c0b3000001be000400be0044
:1026a000e0f707000000e00001003c000044eb0000
:1026b0000804e00003003200004980000000e90047
:1026c00000498800d11680000010200000806000c2
:1026d0000000e00003003a00c882a9009829ef003a
:1026e0007a29ef00a04980000000e00029003200b4
:1026f000744380008543800010488000214880009a
:1027000018c0b3000001be000400be00c3f70700fc
:102710000000e000010035000044eb000804e00088
:102720001a003a005443800065438000304880001e
:102730004148800018c0b3000001be000400be0084
:10274000b6f707000000e000010035000044eb0090
:102750000804e0000d003a00544380006543800007
:10276000504880006148800018c0b3000001be00de
:102770000400be00a9f707000000e00001003500da
:102780000044eb000804e00002003200e002a80070
:1027900037003700a04980000000e000330032001d
:1027a000704380008143800002002000030a24005f
:1027b000faf607000002be001048800021488000a1
:1027c00018c0b3000001be000400be0095f707006a
:1027d0000000e00001003c000044eb000804e000c1
:1027e000230032005043800061438000020020003b
:1027f000030a2400e9f607000002be00304880000a
:102800004148800018c0b3000001be000400be00b3
:1028100084f707000000e00001003c000044eb00ea
:102820000804e00012003200504380006143800041
:1028300002002000030a2400d8f607000002be00b0
:10284000504880006148800018c0b3000001be00fd
:102850000400be0073f707000000e00001003c0028
:102860000044eb000804e00001003200e002a9008f
:10287000cc030700d116800000102000008060000b
:102880000000e0000f003a000017800062006000c6
:102890000000e0000b003200904980000000e000e2
:1028a00008003a00804b80000000e00005003a007c
:1028b000b04b80000000e00002003a001000200051
:1028c000b04b8800b04980000000e0000d003200ed
:1028d000904b8000e10f500003003a007229ef0096
:1028e000c8a2a9000800370010002000904b880003
:1028f000b04480000000e00003003200c8a2a8003d
:1029000001003700c8a2a900c04b80000000e00011
:102910000a003a00604b80000000e00007003a0027
:1029200010002000604b88001000200090498800b3
:1029300010002000c04b880066003700c04b8000ac
:10294000e70f500004003c00c04b80000000e8008e
:10295000c04b88005f003700c04b8000e80f50007c
:102960005c003a00f0488000e10f500059003a0046
:10297000814c800020002000000178001100090037
:102980008200d8000000e800fc090700416527002c
:10299000810f500030003a00d8448000e9448000a4
:1029a0002445800035458000b0488000c148800043
:1029b0000001be000400be0078f6070002002000ff
:1029c000832c2400d3f607000001be000800be00df
:1029d000aaf7070015f70700000f78008845800068
:1029e000994580001e007800cf80de004bf707007d
:1029f0000001be000800be0068f6070080458800a0
:102a000091458800f8448000094580001e00780048
:102a1000cf80de0041f707000001be000800be00c5
:102a20005ef60700f04488000145880048458000b4
:102a3000594580001e007800cf80de0037f7070080
:102a40000001be000800be0054f6070040458800a3
:102a5000514588001000370070418000814180009e
:102a6000d0448800e144880078418000894180009a
:102a7000b0488000c148800002002000832c240060
:102a8000a4f607000001be000800be007bf70700a7
:102a9000804588009145880090002000c04b880048
:102aa0003229ef008400a900ff3ffc008c00a80041
:102ab000d116800000102000008060000000e000bf
:102ac00004003200604c80000000e00001003a0089
:102ad0008400a800eb0307004045800051458000ba
:102ae00018c0b3006011b800ccf607000000e00089
:102af000010035000044eb000804e000060032004d
:102b0000404580005145800001f0a200f04488005b
:102b10000145880004003700404580005145800091
:102b2000f044880001458800b0488000c14880001a
:102b300018c0b30002002000632c2400b9f607007f
:102b40000000e00001003c000044eb000804e0004d
:102b500010003200b0548000e40f50000d0032002d
:102b6000d0448000e1448000804588009145880081
:102b700040002000b05488006000b8004045880044
:102b8000514588006000b8006045880071458800a4
:102b900048003700b0488000c148800018c0b3002a
:102ba00002002000632a24009cf607000000e000d9
:102bb000010035000044eb000804e0001e00320074
:102bc000b0488000c148800018c0b3000200200057
:102bd000232a240093f607000000e00001003c00d7
:102be0000044eb000804e00013003200b054800001
:102bf000e40f500003003200b05480000000e000f9
:102c00000d003a00f044800001458000d044880067
:102c1000e1448800d0448000e14480000001be000f
:102c2000dff50700d0448800e14488002000200040
:102c3000b05488001f003700b0488000c1488000b1
:102c400018c0b3000200200003f8230073f6070049
:102c50000000e000010035000044eb000804e00043
:102c600014003200b05480000000e0001100320077
:102c7000f044800001458000d0448800e144880091
:102c80006000b80080458800914588006000b80069
:102c9000a0458800b1458800962aef006000b80082
:102ca00040458800514588006000b80060458800b4
:102cb00071458800804580009145800018c0b300b0
:102cc0006011b80055f607000000e0000100350073
:102cd0000044eb000804e000060032006000b80089
:102ce00080458800914588006000b800a0458800b4
:102cf000b14588008845800099458000d044800017
:102d0000e1448000a2702d0033ba2300a4f507002f
:102d10001ac0b3000001be000800be0041f6070063
:102d20000000e00001003c000045eb000a04e00068
:102d300007003200d0448000e1448000a2702d00e2
:102d400033ba230096f50700804588009145880036
:102d50007440800085408000b0408000c140800009
:102d60000001be000400be00c4f607000002be0061
:102d7000704880008148800018c0b3000001be0088
:102d80000400be0027f607000000e00001003c0040
:102d90000044eb000804e0001e00320030498000cf
:102da0000000e0001b00320088458000994580004b
:102db000d4448000e5448000704080008140800061
:102dc0000001be000400be00acf607001ac0b3004c
:102dd0000001be000800be0012f607000000e0007f
:102de00001003c000045eb000a04e000090032004d
:102df000d4448000e5448000704080008140800021
:102e00000001be000400be009cf60700804588005b
:102e100091458800a04980000000e0000c003a00c5
:102e20008845800099458000d0438000e1438000c0
:102e3000328429001399230090f607000001be0098
:102e40000800be0055f507008045880091458800c0
:102e50008460a9000080fa004f0578004f04be008e
:102e60004f03be004f02be004f01be004f00be0028
:102e70003600f900004006003600f800809fbe00d2
:102e8000829fbe00849fbe00869fbe00889fbe00ba
:102e90000400fa00c8c2a8006000b800008fbe009d
:102ea000905480000000e000060034009054800040
:102eb000e30f500003003200905480000000e9004e
:102ec00090548800805480000000e0000600340028
:102ed00080548000e30f50000300320080548000d3
:102ee0000000e90080548800705480000000e00079
:102ef0000600340070548000e30f500003003200dd
:102f0000705480000000e90070548800a04a8000de
:102f1000e70f500011003400004b8000114b80007f
:102f200002002000031024007af50700004b8800ff
:102f3000114b8800004b8000114b8000c04a880074
:102f4000d14a88006000b800004b8800114b88000f
:102f50005429ef00180307000c003700044b8000d1
:102f6000154b8000d0488000e14880000001be0081
:102f70000400be000af50700004b8800114b8800d2
:102f8000a04a80000000e800a04a8800b04a800003
:102f9000e70f500010003400204b8000314b8000c0
:102fa00002002000031024005af50700204b88007f
:102fb000314b8800204b8000314b8000e04a880074
:102fc000f14a88006000b800204b8800314b88002f
:102fd0005629ef000c003700244b8000354b800051
:102fe00070488000814880000001be000400be00df
:102ff000ebf40700204b8800314b8800b04a80007a
:103000000000e800b04a8800c44a8000d54a800029
:10301000e04a8000f14a80000001be000400be00ca
:1030200016f60700008fbe0018c0b3006011b8008c
:103030001e00be0079f507000000e0000100350029
:103040000044eb000804e000030032001e00be0054
:1030500001f0a200008fbe00b0478000c147800091
:1030600018c0b3000001be001e00be006df50700d1
:103070000000e00001003c000044eb000804e00018
:103080000b0032001e01be00b2478800c347880013
:10309000e04a8000f14a8000d0478800e14788007c
:1030a000c04a8000d14a8000f0478800014888006b
:1030b000d0488000e148800018c0b300f22621000b
:1030c00033b0230057f507000000e00001003c008a
:1030d0000044eb000804e0000b003a00d0488000f8
:1030e000e148800018c0b300f226210033b02b0065
:1030f0004af507000000e000010035000044eb0045
:103100000804e000820032006845800079458000b4
:10311000f453800005548000d0488000e1488000ce
:103120000001be000400be00d4f507000001be008f
:103130000800be009af407006045880071458800c9
:10314000a8458000b9458000f453800005548000f4
:10315000d0488000e14880000001be000400be00ad
:10316000c6f507000001be000800be008cf4070091
:10317000a0458800b1458800604580007145800009
:1031800018c0b300f226210033a8230025f507005c
:103190000000e00001003c000044eb000804e000f7
:1031a0000f0032006045800071458000f22621004a
:1031b00033a8230079f40700604588007145880032
:1031c0004045800051458000f226210033a82300ad
:1031d00073f4070040458800514588001900370006
:1031e000604580007145800018c0b300f2262100c0
:1031f00033a82b0009f507000000e00001003500ae
:103200000044eb000804e0000e003200604580003e
:1032100071458000f226210033a8230060f40700e6
:103220006045880071458800404580005145800018
:10323000f226210033a8230058f4070040458800f7
:1032400051458800a0458000b145800018c0b300fa
:10325000f226210033a82300f2f407000000e0006a
:1032600001003c000044eb000804e0000f003200c5
:10327000a0458000b1458000f226210033a823003c
:1032800046f40700a0458800b145880080458000cd
:1032900091458000f226210033a8230040f4070066
:1032a000804588009145880019003700a0458000be
:1032b000b145800018c0b300f226210033a82b00ce
:1032c000d6f407000000e000010035000044eb00e8
:1032d0000804e0000e003200a0458000b1458000e7
:1032e000f226210033a823002df40700a045880012
:1032f000b14588008045800091458000f22621007c
:1033000033a8230025f407008045880091458800f4
:1033100084c0a9000080fa004f04be004f03be0025
:103320004f02be004f01be004f00be003600f90044
:10333000004006003600f800809fbe00829fbe005d
:10334000849fbe00869fbe000000fa00c8c2a8008d
:10335000e406070010002000704b8800c000200029
:10336000a40507008960a9000080fa004f03be0091
:103370004f02be004f01be004f00be003600f900f4
:10338000004006003600f800809fbe00829fbe000d
:10339000849fbe00869fbe000000fa00113a8000a4
:1033a00000022000008060000000e00005003a00fc
:1033b000f04b80000000e00002003a0020012000f5
:1033c0008c050700c8c2a800c60607001000200030
:1033d000704b8800f04b80000000e00002003a00d3
:1033e000d00020008305070010002000f04b88006b
:1033f0008020a9000080fa004f03be004f02be00eb
:103400004f01be004f00be003600f900004006002c
:103410003600f800809fbe00829fbe00849fbe00e1
:10342000869fbe000000fa00c8c2a800ad060700d3
:1034300010002000704b8800e00020006d050700a0
:103440008060a9000080fa004f03be004f02be005a
:103450004f01be004f00be003600f90000400600dc
:103460003600f800809fbe00829fbe00849fbe0091
:10347000869fbe000000fa00c8c2a8009906070097
:1034800010002000704b8800f00020005905070054
:103490008040a9000080fa004f03be004f02be002a
:1034a0004f01be004f00be003600f900004006008c
:1034b0003600f800809fbe00829fbe00849fbe0041
:1034c000869fbe000000fa00c8c2a800850607005b
:1034d00010002000704b8800000120004505070007
:1034e0008080a9000080fa004f03be004f02be009a
:1034f0004f01be004f00be003600f900004006003c
:103500003600f800809fbe00829fbe00849fbe00f0
:10351000869fbe000000fa00c8c2a800710607001e
:1035200010002000704b88001001200031050700ba
:103530000080fa004f03be004f02be004f01be00e4
:103540004f00be003600f900004006000400fa00fb
:1035500010079800980707000000eb00000f7800a4
:10356000090037001e007800800040000080200025
:1035700000804000900078001e0090001e00400077
:10358000a50607001e0fe800814c800020002000e7
:1035900000017800110009008200d8009e0f500041
:1035a000f0ff3c005b070700004d800080007800c2
:1035b000f01f2000980607001e0078000080fa0027
:1035c000000006000400fa00100798007a070700c0
:1035d0000000eb00000f78000a0037001e0090008a
:1035e0001e004000e5060700800078001e007800fd
:1035f0000001400000802000000041000108780028
:103600001e0fe800814c800020002000000178009f
:10361000110009008200d8009e0f5000efff3c000f
:103620000080fa00000006000400fa00100798006d
:10363000610707000000eb00000f78001100370061
:103640001e0078000000e00005003a001e00900017
:103650001e004000416527006f0607000800370084
:103660001e0078008000400000882000008040009c
:10367000900078001e0090001e00400066060700c3
:103680001e0fe800914c800020002000000178000f
:10369000110009008200d8009e0f5000e8ff3c0096
:1036a0001c070700004d800080007800f01f2000fc
:1036b000590607001e0078000080fa00000006008e
:1036c0000400fa00100798003b0707000000eb0019
:1036d000000f78000a0037001e0090001e00400016
:1036e000a6060700800078001e0078000001400058
:1036f0000088200000004100010878001e0fe8004b
:10370000914c800020002000000178001100090089
:103710008200d8009e0f5000efff3c000080fa00ae
:10372000000006000000fa00b0488000c148800098
:103730002045880031458800814c80002000200011
:1037400000017800110009008200d8000000e800a4
:10375000b5ff0700d442a9000080fa00000006006f
:103760000000fa0003003700e04b80000000e80092
:10377000e04b8800e04b8000e30f4000faff36008a
:10378000e153800050a52a00808f500001003a00cc
:103790008900070050a52a00e05388000080fa0045
:1037a000000006000000fa00d11680000010200082
:1037b000008060000000e0000d003a00001780006b
:1037c000620060000000e0000900320090498000c3
:1037d000e10f500006003200804b8000e10f5000e6
:1037e00003003200a04b8000e10f500023003a009c
:1037f00010002000b0498800504c80000000e0001c
:1038000004003200404c800065004000404c8800bd
:103810008a29ef00b04b8000e10f500003003a000e
:103820006e29ef007e29ef007629ef00704b8000b3
:103830000000e00007003a0010002000a0498800c6
:10384000c04980000000e00019003a008d0a07001e
:103850001a003700a30507003429ef009a29ef006a
:103860009829ef009629ef00d04980000000e00081
:1038700011003a00660b070010003700100020000e
:10388000504c8800970507003629ef003429ef00d7
:103890009a29ef009829ef009629ef00d04980007f
:1038a0000000e00005003a00590b07000300370054
:1038b0000000000001003700000000000080fa0056
:1038c000000006000000fa0000148000e30f400032
:1038d00003003600d00120004604070076050700eb
:1038e00000148000e10f500003003e00e0012000c2
:1038f000400407007005070010148000e30f40002b
:1039000003003600f00120003a0407006a050700b2
:1039100010148000e10f500003003e000002200060
:10392000340407006405070020148000e30f400002
:1039300004003600100220002e0407005000200072
:103940009047880020148000e10f500004003e00e2
:103950002002200027040700500020009047880024
:1039600030148000e30f40000200360030022000d7
:103970002004070030148000e10f500002003e00d8
:10398000400220001b04070040148000e30f4000a9
:103990000200360050022000160407004014800088
:1039a000e10f500002003e006002200011040700f9
:1039b0000080fa00000006000000fa00003a8000d3
:1039c000620060000000e000030032004027a90010
:1039d0003001200007040700003a800070006000fa
:1039e0000000e000030032004087a90040012000f1
:1039f00000040700013a80000000280000806000f9
:103a00000000e0000300320041e7a900500120005f
:103a1000f8030700013a80000000240000806000e5
:103a20000000e0000300320041c7a900600120004f
:103a3000f0030700013a80000008200000806000c9
:103a40000000e0000300320040e7a9007001200000
:103a5000e8030700013a80000004200000806000b5
:103a60000000e0000300320040c7a90080012000f0
:103a7000e003070090012000de0307000080fa0049
:103a8000000006000000fa00889fbe00d0408000c1
:103a9000e140800002002000030024003ff2070004
:103aa0000002be00704880008148800018c0b3004a
:103ab0000001be000400be00daf207000000e000d2
:103ac00001003d000044eb000804e0000400320067
:103ad0006000b800b0488800c14888003300370053
:103ae000d0488000e148800018c0b300d2cc2c0040
:103af000c3d42300c9f207000000e0000100350034
:103b00000044eb000804e00028003200d0488000a8
:103b1000e148800018c0b300d2cc2c00c3d42b00e5
:103b2000c0f207000000e00001003c000044eb0090
:103b30000804e0001d0032007048800081488000c9
:103b400090488800a148880094488000a5488000db
:103b5000d0408000e14080000001be000400be00b3
:103b60000ef207000004be00b4408000c540800093
:103b7000d0408000e14080000001be000400be0093
:103b800006f207000001be000800be0061f2070057
:103b900002002000832c240038f30700b04888007e
:103ba000c148880010002000f04888004f04be0083
:103bb0000080fa00000006000400fa006000b8006f
:103bc000008fbe00c04a8000d14a800001f0a200f0
:103bd000008fbe00604b8000e40f50000f003a00e1
:103be000d0438000e14380000001be001e00be0003
:103bf000eaf10700704788008147880050002000e4
:103c0000604b880090478000e50f500002003200b2
:103c100010002000904788003229ef00604b8000a0
:103c2000e10f500008003a006000b80070478800bb
:103c300081478800ab04070040002000604b8800eb
:103c400010002000904988000080fa000000060063
:103c50002000fa00881f78006000b800008fbe00c6
:103c60006000b80020079800310798006000b80095
:103c700040079800510798006000b800600798005e
:103c800071079800d2488000e348800042079800fe
:103c900053079800d2488000e348800062079800ec
:103ca000730798000000200001f82300e046880018
:103cb000f1468800d4428000e54280001048800030
:103cc0002148800018c0b3000001be000400be00ff
:103cd00052f207000000e000010035000044eb0054
:103ce0000804e0000d003a0094428000a5428000e4
:103cf000104880002148800018c0b3000001be00b9
:103d00000400be0047f207000000e00001003c0094
:103d10000044eb000804e00004003200d0cc2c008a
:103d2000c1f42300e0468800f14688007442800018
:103d300085428000104880002148800018c0b300f0
:103d40000001be000400be0036f207000000e000e3
:103d500001003c000044eb000804e00004003200d5
:103d60000000200001f02300e0468800f1468800b2
:103d700014418000254180008045800091458000ed
:103d80000001be000400be00bcf207000002be003d
:103d9000e0468000f14680000001be000400be0045
:103da000b6f20700008fbe00304180004141800024
:103db00018c0b3001e01be001af207000000e000a8
:103dc00001003c000044eb000804e0000d003a0054
:103dd00074428000854280001048800021488000a5
:103de00018c0b3000001be000400be000df20700c1
:103df0000000e00001003c000044eb000804e0008b
:103e0000030032003241800043418000028fbe0037
:103e100018c0b3006011b8004e009000de009000a2
:103e2000fef107000000e000010035000044eb0057
:103e30000804e000060032004e009000de00900012
:103e400001f0a200400798005107980003003700d6
:103e50006000b8004007980051079800000020005b
:103e600001f82300e0468800f146880034428000d3
:103e700045428000104880002148800018c0b300ef
:103e80000001be000400be00e4f107000000e000f5
:103e9000010035000044eb000804e0000d003a008a
:103ea000f4418000054280001048800021488000d5
:103eb00018c0b3000001be000400be00d9f1070025
:103ec0000000e00001003c000044eb000804e000ba
:103ed00004003200d0cc2c00c1f42300e04688005e
:103ee000f1468800544180006541800070418000a7
:103ef000814180000001be000400be005ff20700a7
:103f00000002be00e0468000f14680000001be00d5
:103f10000400be0059f207002007980031079800fe
:103f20001442800025428000104880002148800013
:103f300018c0b3000001be000400be00b7f10700c6
:103f40000000e000010035000044eb000804e00040
:103f50000d003a00d4418000e54180001048800007
:103f60002148800018c0b3000001be000400be005c
:103f7000acf107000000e00001003c000044eb0051
:103f80000804e000030032006000b8002007980039
:103f90003107980018c0b3006011b8006e0090009f
:103fa000fe0090009df107000000e00001003500d8
:103fb0000044eb000804e000030032006000b80099
:103fc00060079800710798007429ef00d1168000ef
:103fd00000102000008060000000e000ff003200c0
:103fe000c04b8000e90f5000fc003a00c882a800d6
:103ff000704b8000e10f500006003200e0c2a800c4
:1040000090548000e30f500002003a00200020008e
:10401000905488006000b800200f9800310f98007d
:1040200020478000314780000200200003f0230079
:10403000daf00700200f9800310f9800d14b800074
:10404000f0e12400808f50001c003c006011b8009b
:104050006e009000fe00900070f107000000e0008c
:1040600016003a0000178000620060000000e000c7
:1040700012003200704880008148800018c0b300f0
:104080002e099000be09900064f107000000e000d6
:10409000010035000044eb000804e0000700320096
:1040a000905480000000e00004003a00d04b8000f3
:1040b0000000e800d04b880015003700d14b80008d
:1040c000f0e12400808f50000b00340000178000c6
:1040d000620060000000e00007003200b001200034
:1040e0004402070010002000704b88007a29ef007e
:1040f000e0c2a90006003700d04b80000000e000bd
:1041000003003400d04b80000000e900d04b880051
:1041100018c0b300a2702d0033c223006e009000bf
:10412000fe0090003ff107000000e00001003c00ad
:104130000044eb000804e00011003a002047800032
:1041400031478000a299290093e1230093f00700f2
:104150000002be00704880008148800018c0b30093
:104160000001be000400be002cf107000000e000ca
:10417000010034000044eb000804e00004003200b9
:104180005042800061428000d40107000c003700db
:104190006011b8006e009000fe0090001ff1070053
:1041a0000000e00006003a00d04c80000000e00073
:1041b00003003400d04c80000000e900d04c88009f
:1041c0006000b800000f9800110f98002047800091
:1041d00031478000d2cc2c00c3d4230070f00700fc
:1041e0000002be00704880008148800018c0b30003
:1041f0000001be000400be0008f107000000e0005e
:10420000010035000044eb000804e0000200320029
:10421000f428ef001300370020478000314780006a
:10422000d2cc2c00c3d423005cf007000002be00f7
:10423000704880008148800018c0b3000001be00b3
:104240000400be00f7f007000000e00001003c00a1
:104250000044eb000804e0000200320010002000df
:10426000a0478800a04780000000e0000500320061
:104270002e019000be019000020f9800130f9800cd
:10428000030037006000b800000f9800110f98007d
:1042900090478000e20f50004e00320090548000a2
:1042a0000000e0004b003a00c04c80000000e0003d
:1042b00011003400b0408000c1408000a2702d0089
:1042c00033c2230035f007000002be0070488000b2
:1042d0008148800018c0b3000001be000400be0089
:1042e000cef007000000e000010034000044eb00c5
:1042f0000804e0000e003a00a2702d0033c2230033
:104300000e0890009e08900025f0070018c0b3002a
:104310006e019000fe019000c0f007000000e00078
:10432000010035000044eb000804e0000400320006
:10433000c04c80000000e900c04c8800230037001a
:10434000c14c800040062000808f500011003c00ce
:10435000b0408000c140800092c22500f3d8230005
:104360000ef007000002be00704880008148800007
:1043700018c0b3000001be000400be00a9f0070091
:104380000000e00001003c000044eb000804e000f5
:104390000b003a0018c0b3000e0990009e0990006f
:1043a0006e009000fe0090009cf007000000e0000e
:1043b000010035000044eb000804e0000300320077
:1043c000c04c80000000e800c04c880000000000e5
:1043d000090037009829ef0007003700c882a900bc
:1043e0009829ef00d821ef00e0c2a900300020009a
:1043f000905488007a29ef00001780006200600066
:104400000000e00003003200804b8000e10f50000c
:104410000e013a00c04b8000e90f5000040032004a
:10442000a1548000f05f2500808f500007013a0002
:10443000704b8000e10f500007003200d422a8002a
:10444000c902a80080548000e30f500002003a0027
:104450002000200080548800d11680000010200029
:10446000008060000000e00003003a00f04280009d
:104470000143800019010700a1548000f05f25006e
:10448000808f500003003a00a04c8000b04c8800a0
:10449000fb003700805480000000e000f7003a0085
:1044a0006000b800400f9800510f98001448800039
:1044b00025488000b0428000c14280000001be005b
:1044c0000400be00b5ef0700400f9800510f9800a0
:1044d00050548000615480004e099000de09900025
:1044e000e6f007000002be00204680003146800052
:1044f0000001be000400be00e0f007000002be00a4
:10450000a0468000b14680000001be000400be004d
:10451000a3ef0700a0468800b1468800b4408000a1
:10452000c5408000a0468000b146800018c0b3009e
:104530000001be000400be0038f007000000e000eb
:10454000010035000044eb000804e00005003200e3
:10455000b0408000c1408000a0468800b14688007d
:1045600011003700d4408000e5408000a046800064
:10457000b146800018c0b3000001be000400be00b8
:1045800028f007000000e00001003c000044eb00c0
:104590000804e00004003200d0408000e1408000c8
:1045a000a0468800b14688006000b800600f9800ff
:1045b000710f98007448800085488000a0468000f4
:1045c000b14680000001be000400be0073ef07008a
:1045d000600f9800710f98003054800041548000a3
:1045e0006e099000fe099000a4f007000002be00d2
:1045f00020468000314680000001be000400be005d
:104600009ef007000002be008046800091468000b8
:104610000001be000400be0061ef07008046880074
:1046200091468800804680009146800018c0b30003
:104630001e01be00fbef07000000e00001003c008f
:104640000044eb000804e000040032001e01be003c
:1046500082468800934688000d003700804680001f
:104660009146800018c0b3006011b800ebef07005e
:104670000000e000010035000044eb000804e00009
:10468000030032006000b800804688009146880030
:10469000b4418000c5418000804680009146800082
:1046a00018c0b3000001be000400be00dbef07002d
:1046b0000000e000010035000044eb000804e000c9
:1046c00004003200b0418000c14180008046880073
:1046d0009146880080468000914680004e019000ff
:1046e000de0190002def07000002be001054800094
:1046f000215480000001be000400be005ff00700ee
:10470000404688005146880040468000514680005f
:1047100018c0b30002002400c3612400c1ef0700e9
:104720000000e00001003c000044eb000804e00051
:104730000500320000002400c161240040468800ca
:10474000514688000f0037004046800051468000e7
:1047500018c0b30002002400c3612c00afef0700b3
:104760000000e000010035000044eb000804e00018
:104770000400320000002400c1612c004046880083
:10478000514688002446800035468000404680001f
:10479000514680000001be000400be0037f0070053
:1047a0000002be0060468000714680000001be002d
:1047b0000400be00faee07006046880071468800db
:1047c000604680007146800018c0b30002002000df
:1047d000e32b240093ef07000000e00001003c0001
:1047e0000044eb000804e000050032000000200057
:1047f000e12b240060468800714688000d003700d8
:10480000604680007146800018c0b3006011b80097
:1048100082ef07000000e000010035000044eb00db
:104820000804e000030032006000b8006046880021
:104830007146880060468000714680007bef07006b
:1048400000007800b04c88000d0037009629ef007a
:10485000da21ef00dc22ef00c841a9006000b800b7
:10486000604688007146880030002000805488002f
:10487000c902a900d422a9000100370000000000ed
:10488000a04980000000e00005003a009a29ef00ee
:10489000d621ef00cfe2a90030002000705488003c
:1048a000704b8000e10f500002003a008d010700bc
:1048b00007003700c841a800d04c8000b00e880027
:1048c000c04c8000c00e8800b04c8000d00e880024
:1048d0004f0478000080fa00000006000400fa008f
:1048e000881f7800008fbe0090478000e30f5000c3
:1048f0003d003a000200200003f023001e00be002d
:10490000a6ee07000002be0010488000214880008b
:1049100018c0b3000001be000400be0041ef070054
:104920000000e00001003c000044eb000804e0004f
:1049300011003200d14c800060478000808f500011
:104940000d003d00705480000000e00003003a00bc
:10495000d04c80000000e800d04c8800cfe2a800d6
:1049600070548000e30f50001f003a002000200028
:10497000705488001c0037000200200003f0230060
:104980001e00be0086ee07000002be001048800038
:104990002148800018c0b3000001be000400be0022
:1049a0001eef07000000e000010035000044eb00ae
:1049b0000804e0000c003200d04c80000000e00051
:1049c00009003400d04c80000000e900d04c880081
:1049d000d04c80000000e00001003c00cfe2a900c4
:1049e00030002000705488004f0478000080fa00e6
:1049f000000006000200fa00000f7800b0448000ba
:104a0000e90f50000a003c00b04480000000e800bc
:104a10008000400000882000008040001e087800d0
:104a2000b04480000000e800b04488000200370075
:104a3000b0002000b04488000080fa0000000600aa
:104a40000400fa00881f780090478000e20f5000b1
:104a500065003a00a0498000e10f500062003a0072
:104a60006000b800008fbe00744880008548800058
:104a7000d0488000e14880000001be000400be0074
:104a80007eef070001f0a200008fbe00904380007f
:104a9000a143800018c0b3001e01be00e1ee070074
:104aa0000000e00001003c000044eb000804e000ce
:104ab00046003200cfe2a800705480000000e00001
:104ac0003c003a00604780000000e8006047880032
:104ad00060478000b00e880061478000f00520002c
:104ae000808f50000800340010002000c1ff070034
:104af0004000200090478800cfe2a900300020004d
:104b000070548800ec28ef006147800020032000eb
:104b1000808f50001200340018c0b3000200200043
:104b2000030024001e00be00bcee07000000e000f1
:104b3000010035000044eb000804e00008003200ea
:104b400020002000abff07004000200090478800b5
:104b5000cfe2a9003000200070548800ec28ef005c
:104b600060478000e40f500012003c0018c0b30002
:104b700002002000031224001e00be00a9ee070060
:104b80000000e00001003c000044eb000804e000ed
:104b9000080032003000200096ff0700400020008f
:104ba00090478800cfe2a9003000200070548800b0
:104bb000ec28ef0070548000e30f50000a003a0028
:104bc00020002000705488000700370030002000cb
:104bd00090478800d621ef003229ef00cfe2a900ec
:104be000300020007054880090478000e10f500092
:104bf0000e003a00604b8000e50f50000b003a00b9
:104c0000d621ef009f050700b60007001000200026
:104c100090498800ec28ef009a29ef00200020003e
:104c20009047880030002000705488009047800032
:104c3000e40f500004003a00d621ef00ec28ef000a
:104c40009a29ef003229ef004f0478000080fa0023
:104c5000000006000000fa00881f780094408000e1
:104c6000a5408000704880008148800018c0b300d3
:104c70000001be000400be0068ee07000000e00076
:104c8000010034000044eb000804e000030032009f
:104c90007000200057ff070087000700f4408000e5
:104ca00005418000704880008148800018c0b30032
:104cb0000001be000400be005aee07000000e00044
:104cc00001003c000044eb000804e0000800320052
:104cd000d116800000102000008060000000e0007d
:104ce00003003a004000200042ff0700570607007b
:104cf0001443800025438000104880002148800034
:104d000018c0b3000001be000400be0043ee07005f
:104d10000000e000010035000044eb000804e00062
:104d2000030032008000200032ff0700620007000d
:104d30003443800045438000504880006148800033
:104d400018c0b3000001be000400be0033ee07002f
:104d50000000e000010035000044eb000804e00022
:104d6000030032009000200022ff070052000700dd
:104d70003443800045438000304880004148800033
:104d800018c0b3000001be000400be0023ee0700ff
:104d90000000e000010035000044eb000804e000e2
:104da00003003200a000200012ff070042000700ad
:104db0004f0478000080fa00000006000000fa00ae
:104dc000881f7800d0488000e148800018c0b300f8
:104dd0006011b80011ee07000000e000010035008e
:104de0000044eb000804e00006003200d0488000d8
:104df000e148800001f0a2001049880021498800a4
:104e0000030037006000b80010498800214988007d
:104e100094418000a5418000104980002149800014
:104e200018c0b3000001be000400be00fbed070087
:104e30000000e000010035000044eb000804e00041
:104e40000a00320000498000e50f500004003400e1
:104e5000190007002029ef0050002000e5fe0700a0
:104e6000004980000000e80000498800d448800024
:104e7000e5488000004780001147800018c0b3005b
:104e80000001be000400be00e6ed07000000e000e7
:104e900001003c000044eb000804e0000300320085
:104ea0000500070060002000d2fe07004f047800d4
:104eb0000080fa00000006000000fa000900070068
:104ec00010002000704b88007029ef003229ef009d
:104ed0007429ef00b0002000c6fe07000080fa0031
:104ee000000006000000fa00da21ef00dc22ef00eb
:104ef000c841a900d621ef00d821ef00d422a90093
:104f00003000200080548800e002a900e0c2a9001f
:104f10003000200090548800cfe2a900300020002b
:104f200070548800c902a9009a29ef009829ef005f
:104f30009629ef006000b8008046880091468800fe
:104f40006000b80060468800714688000080fa0062
:104f5000000006000400fa00100798000000eb00b3
:104f6000000f78009e009000f01f2000808f5000fe
:104f7000020034001000200025003700ff3ffc0035
:104f8000c1048000f0ff280000806000c004880099
:104f90001e00900000004000000f78009e00780086
:104fa00000c02f0000804000000f7800f0072000b4
:104fb000203b88001e007800103b8800410424003c
:104fc000013b880051052000313b8800a10a2000e8
:104fd000313b880061e7a8000000000000000000ed
:104fe000010037005220ef00013b80000000280044
:104ff000008060000000e000faff3a00c104800079
:105000000000270001007000c00488000000eb00d1
:105010000080fa00000006000400fa00000f78008b
:10502000110798001e007800caff0700f01f20003b
:105030009e007800808f5000020034001000200095
:1050400028003700ff3ffc00c1048000f0ff28006b
:1050500000806000c00488001e007800000040004e
:10506000000f78009e00780000c02f0000804000f4
:10507000000f7800f0c7b30032e0b7001e009000c8
:10508000200088001e007800000088000208bb0095
:1050900041002400013b880051052000313b88007d
:1050a000a10a2000313b880061e7a8000000000051
:1050b00000000000010037005220ef00013b80009b
:1050c00000002800008060000000e000faff3a00c5
:1050d000c10480000000270001007000c0048800a7
:1050e0000000eb000080fa00000006000600fa0055
:1050f0001007980021079800ff3ffc00c1048000c2
:10510000f0ff280000806000c00488001e009000ae
:105110000040780032e0b7002e00900000008800c8
:105120001082ba0000000000000000004000800073
:10513000e04c88001e0090000040780032e0b7008c
:105140002e009000000088001002ba00000000004d
:105150000000000040008000000f78005220ef00a7
:10516000c10480000000270001007000c004880016
:105170001e0078000080fa00000006000200fa001d
:10518000000f7800f01f20009e007800808f5000f4
:10519000020034000000eb00070037009e0078009a
:1051a00000e0270000804000000040008000780000
:1051b000f0072000cdff07000080fa000000060085
:1051c0000400fa00881f78009e29ef000000eb0021
:1051d000000f78000000eb00100798000000eb00c3
:1051e000000f78001a0037001e0078000000400011
:1051f000800078000000eb00bcff07008000780012
:10520000f00f2000008460001e00780000004000c5
:10521000800078000000eb00b4ff070080007800f9
:1052200000f02f00008060004800de008000440095
:10523000f04c800000804000f04c8800f14c800071
:10524000e04c800000804000f04c88001e0fe80019
:10525000e0ff21009e007800808f5000e2ff3400c4
:10526000800f200010079800200037000000eb009e
:10527000000f7800160037001e0078000000400084
:10528000800078001e00900098ff070080007800e2
:10529000f00f2000008460001e0078000000400035
:1052a000800078001e00900090ff070080007800ca
:1052b00000f02f00008060004800de008000440005
:1052c000f04c800000804000f04c88001e0fe80089
:1052d000f0ff27009e007800808f5000e6ff3a0024
:1052e0001e0090000000e800100798009e0090004b
:1052f000e00f2000808f5000dcff3400f04c800075
:10530000401ab000f04c88004f0478000080fa008a
:10531000000006000200fa00881f7800a029ef00b4
:105320000000eb00000f78000000eb00000f780099
:10533000100037001e00780090ff07008000780002
:10534000f00f2000008460001e0078008bff070033
:105350008000780000f02f00008060004800de0030
:1053600080004400004d800000804000004d880017
:105370001e0fe800d01f20009e007800808f500094
:10538000ecff34004f0478000080fa0000000600b3
:105390000000fa008aff0700c1448000f04c800042
:1053a000808f5000020032009002200091fd070023
:1053b0000080fa00000006000000fa00d5ff070098
:1053c000f01f20006dff0700014d8000810f50008d
:1053d00002003200a002200086fd07000080fa00d3
:1053e000000006000600fa00200798000040eb00cd
:1053f000004f78000000eb00100798002e0090008e
:105400006f006000100798001e009000e90f500028
:1054100005003c001e009000004078000043b000f2
:10542000004f7800040037001e0090000040780014
:105430007043b000004f78001e4078000080fa00f2
:10544000000006000200fa00000f78001e0078003d
:10545000e10f500009003400a001200065fd0700a5
:105460001e0078008000400080a5200000804000e1
:105470008000eb0001087800110037001e00780062
:1054800080004000c0a6200000804000100078008e
:105490000000e000090032001e0078000000e0007b
:1054a000030032008002200052fd07000400370094
:1054b000700220004ffd07000100370000000000cf
:1054c0000080fa00000006000600fa00881f78003d
:1054d00010079800210798002e009000d9ff0700c0
:1054e0009e00900000002f00008060004c00de0055
:1054f000800078002e0090004301dd00a09c200079
:1055000000004100010878009e00900000f020009b
:105510008080600000102000000178001100090068
:105520008200d800800078002e0090004301dd004a
:10553000c09c200000004100010878009e009000ff
:10554000000f200080806000000120000001780032
:10555000110009008200d800800078002e00900021
:105560004301dd00e09c20000000410001087800bc
:105570001e009000ef0060002e0090004301dd004f
:10558000009d200000004100010878002e009000de
:105590008000400000a72000008040001100200093
:1055a000010878002e00900080004000c09e20007e
:1055b0000080400010017800ae0090002003200021
:1055c0000088b9000000780082004000009f2000a1
:1055d0000080400001c3b300014878002e00900015
:1055e00080004000c09e2000008040001000780035
:1055f0008000e8002e00900000014000c09e2000c6
:1056000000004100010878002e009000800040005a
:10561000c09e20000080400010017800ae00900085
:10562000200320000088b9000000780082004000bc
:10563000009f20000080400081c7b300014878002f
:105640002e00900080004000c09e2000008040009e
:10565000100078008000e8002e009000000140005b
:10566000c09e200000004100010878000000eb000f
:10567000000f78002a0037002e00900080004000c4
:10568000c09e200000804000100478002e00900092
:105690004200dd001e00400080004000a09c200071
:1056a00000804000100078004eff070000417800a5
:1056b000ae009000200320000088b90000007800b0
:1056c00088004000009f20000080400002487800d1
:1056d0002e00900080004000c09e2000008040000e
:1056e0009000780000032000808f50000b003c00e9
:1056f0002e00900080004000c09e200000804000ee
:10570000100078008000e8002e00900000014000aa
:10571000c09e200000004100010878001e0fe80034
:105720001e007800e30f5000d3ff34002e009000dd
:1057300080004000c09e2000008040009000780063
:105740002e00900000014000809e200000004100db
