:020000040000fa
:080000000001040000000000f3
:020000040000fa
:04000800f82d0000cf
:020000040000fa
:04000c001e100000c2
:020000040000fa
:040010006410000078
:020000040000fa
:040014008c1000004c
:020000040000fa
:04001800b410000020
:020000040000fa
:04001c00f82d0000bb
:020000040000fa
:04002000f82d0000b7
:020000040000fa
:04002400dc100000ec
:020000040000fa
:04002800c80100000b
:020000040000fa
:04002c00f82d0000ab
:020000040000fa
:04003000f82d0000a7
:020000040000fa
:04003400f4080000cc
:020000040000fa
:04003800f82d00009f
:020000040000fa
:04003c00f82d00009b
:020000040000fa
:04004000940d00001b
:020000040000fa
:040044003203000083
:020000040000fa
:04004800f82d00008f
:020000040000fa
:04004c009e0500000d
:020000040000fa
:04005000f82d000087
:020000040000fa
:04005400480300005d
:020000040000fa
:04005800f82d00007f
:020000040000fa
:04005c00f82d00007b
:020000040000fa
:04006000f82d000077
:020000040000fa
:04006400f82d000073
:020000040000fa
:04006800ea020000a8
:020000040000fa
:04006c00f82d00006b
:020000040000fa
:04007000f82d000067
:020000040000fa
:04007400f82d000063
:020000040000fa
:04007800f82d00005f
:020000040000fa
:04007c00f82d00005b
:020000040000fa
:04008000f82d000057
:020000040000fa
:04008400f82d000053
:020000040000fa
:04008800b6080000b6
:020000040000fa
:04008c00c0080000a8
:020000040000fa
:04009000f82d000047
:020000040000fa
:04009400f82d000043
:020000040000fa
:04009800f82d00003f
:020000040000fa
:04009c00f82d00003b
:020000040000fa
:0400a000f82d000037
:020000040000fa
:0400a400f82d000033
:020000040000fa
:0400a800f82d00002f
:020000040000fa
:0400ac00f82d00002b
:020000040000fa
:0400b000f82d000027
:020000040000fa
:0400b400f82d000023
:020000040000fa
:0400b800f82d00001f
:020000040000fa
:0400bc00f82d00001b
:020000040000fa
:0400c000f82d000017
:020000040000fa
:0400c400f82d000013
:020000040000fa
:0400c800f82d00000f
:020000040000fa
:0400cc00f82d00000b
:020000040000fa
:0400d000f82d000007
:020000040000fa
:0400d400f60f000023
:020000040000fa
:0400d800f82d0000ff
:020000040000fa
:04010800f82d0000ce
:020000040000fa
:04010c00f82d0000ca
:020000040000fa
:04011000f82d0000c6
:020000040000fa
:04011400f82d0000c2
:020000040000fa
:04011800f82d0000be
:020000040000fa
:04011c00f82d0000ba
:020000040000fa
:04012000f82d0000b6
:020000040000fa
:04012400f82d0000b2
:020000040000fa
:04012800f82d0000ae
:020000040000fa
:04012c00f82d0000aa
:020000040000fa
:04013000f82d0000a6
:020000040000fa
:04013400f82d0000a2
:020000040000fa
:04013800f82d00009e
:020000040000fa
:04013c00f82d00009a
:020000040000fa
:04014000f82d000096
:020000040000fa
:04014400f82d000092
:020000040000fa
:04014800f82d00008e
:020000040000fa
:04014c00f82d00008a
:020000040000fa
:04015000f82d000086
:020000040000fa
:04015400f82d000082
:020000040000fa
:04015800f82d00007e
:020000040000fa
:04015c00f82d00007a
:020000040000fa
:04016000f82d000076
:020000040000fa
:04016400f82d000072
:020000040000fa
:04016800f82d00006e
:020000040000fa
:04016c00f82d00006a
:020000040000fa
:04017000f82d000066
:020000040000fa
:04017400f82d000062
:020000040000fa
:04017800f82d00005e
:020000040000fa
:04017c00f82d00005a
:020000040000fa
:04018000f82d000056
:020000040000fa
:04018400f82d000052
:020000040000fa
:04018800f82d00004e
:020000040000fa
:04018c00f82d00004a
:020000040000fa
:04019000f82d000046
:020000040000fa
:04019400f82d000042
:020000040000fa
:04019800f82d00003e
:020000040000fa
:04019c00f82d00003a
:020000040000fa
:0401a000f82d000036
:020000040000fa
:0401a400f82d000032
:020000040000fa
:0401a800f82d00002e
:020000040000fa
:0401ac00f82d00002a
:020000040000fa
:0401b000f82d000026
:020000040000fa
:0401b400f82d000022
:020000040000fa
:0401b800f82d00001e
:020000040000fa
:0401bc00f82d00001a
:020000040000fa
:0401c000f82d000016
:020000040000fa
:0401c400f82d000012
:020000040000fa
:0401c800f82d00000e
:020000040000fa
:0401cc00f82d00000a
:020000040000fa
:0401d000f82d000006
:020000040000fa
:0401d400f82d000002
:020000040000fa
:0401d800f82d0000fe
:020000040000fa
:100200004fa220000ebf20000e0188000000000059
:10021000000020000000e000020032000001200089
:100220002002880014000700731607000000e00099
:1002300003003a004046230001002000020037007e
:100240000000200001002000810f7000010032003a
:1002500014000700000020000000e000020032004f
:1002600000000200000000006c2d020000000000f1
:100270000040da000000fe004440a900a02d20004c
:100280000000e0000300320000002000a001880010
:100290004440a800000006008a1f78008b1f7800e9
:1002a0000000060091018800800478000000eb0047
:1002b0001a003700e284440032a0b4009905ba0065
:1002c000e284440032a0b4009906ba00e2844400fb
:1002d00032a0b4000006eb00476fde00fd07b2005d
:1002e000636ce10003003a00ebff07000000eb0045
:1002f0000a003700606ce10004003a00005deb008a
:100300008b05e900fdff3e00040037006168e10055
:10031000010032000086eb000b00070019c7ba008d
:100320001905ba000e04e00003003a000a00e000dc
:10033000e0ff3a0000000600fe07b2009e018800c0
:100340008a047800f5ff3700395dba008b05e900b3
:100350000c003200295dba008b05e900080032006c
:100360000c00e00003003a00e284440032a0b40034
:10037000f5ff370019ddba008b05e900faff3a00f6
:100380008904e800e184440032a0b40000000600c3
:100390003600f800809fbe00829fbe00849fbe0092
:1003a000869fbe00881f78000000fa00c8c2a8001f
:1003b0006000b800c0478800d147880070408000c6
:1003c0008140800018c0b3000200200003f8230021
:1003d000ac1607000000e00001003c000044eb0008
:1003e0000804e000060032000000200001f82300ad
:1003f0007040880081408800c0012000a70d0700e0
:1004000070408000814080006011b8009b1607009a
:100410000000e00009003a00b0408000c1408000c8
:1004200030478800414788002829ef00120020004b
:10043000a1182b00300020005b120700b04b800099
:10044000e10f50002200320010458000e90f5000fb
:100450001f003c00104580000000e80010458800a7
:100460001000200040498800b4408000c540800052
:10047000d0408000e14080000001be000400be00ca
:10048000de1507000002be00704080008140800041
:100490000001be000400be00101707000002be00ed
:1004a000d0408000e14080000001be000400be009a
:1004b000d31507003047880041478800120020000c
:1004c000a1192b0030002000371207001000370060
:1004d000b04b8000e10f50000d003200104580004d
:1004e000e90f50000a003400a228ef002829ef008d
:1004f000b0408000c14080003047880041478800fc
:1005000012002000a11a2b00300020002612070044
:10051000a0478000e20f5000160032000017800054
:10052000620060000000e00012003200904b80008a
:100530000000e0000f003a00b04b80000000e00037
:100540000c003a00804b80000000e00009003a00f7
:1005500010002000704b8800a0478000e50f50007d
:100560000200320010002000a04788001000200088
:10057000b04b880000178000620060000000e000bf
:1005800009003200904b80000000e00006003a00b5
:100590006000b80040458800514588006000b80000
:1005a000604588007145880010002000704c88006c
:1005b0008400a9000080fa004f0478004f03be00b9
:1005c0004f02be004f01be004f00be003600f900d2
:1005d000004006003600f800809fbe00829fbe00eb
:1005e000849fbe00869fbe000000fa00c8c2a8001b
:1005f000500880008000eb006316070070498800f7
:10060000814988000a21ef00904980000000e00045
:100610000a003200b0438000c143800002002c0079
:1006200053402400d3150700020020001356240075
:10063000aa16070050498800614988001000200070
:10064000904988008600a9000080fa004f03be0090
:100650004f02be004f01be004f00be003600f90041
:1006600000400600809fbe000000fa00c8c2a8003b
:100670006000b80050498800614988003229ef00c5
:1006800084e0a9000080fa004f00be000040060090
:100690003600f800809fbe00829fbe00849fbe008f
:1006a000869fbe000000fa00c8c2a800004a800071
:1006b000e70f5000c7003400304a8000414a8000f4
:1006c0000200200003102400aa150700304a880009
:1006d000414a8800304a8000414a800002002000e0
:1006e0000370240045150700304a8800414a8800fd
:1006f000304a8000414a800002002000037024003c
:100700009c150700304a8800414a8800304a800022
:10071000414a800002002000030224006f160700f7
:10072000304a8800414a8800304a8000414a8000af
:10073000a2702d0033d223008e1507000002be00e8
:1007400080478000914780000001be000400be0089
:100750002b150700e0488800f1488800ca0d070003
:100760006000b800304a8800414a8800104a800082
:10077000214a800002c02c00c37c24007d150700a4
:10078000104a8800214a8800144a8000254a8000c7
:10079000f0458000014680000001be000400be005c
:1007a000741507000002be005040800061408000c8
:1007b0000001be000400be0011150700804888003b
:1007c000914888006000b800104a8800214a8800db
:1007d000504a8000614a800002c02c00c37c240083
:1007e00064150700504a8800614a8800504a80001a
:1007f000614a8000f2282c0053ef2300ff14070009
:10080000504a8800614a8800504a8000614a80004e
:1008100042722900f3c723005615070020488800bc
:10082000314888006000b800504a8800614a88005a
:10083000704a8000814a800002c02c00c37c2400e2
:100840004c150700704a8800814a8800704a800071
:10085000814a8000f2282c0053ef2300e7140700a0
:10086000704a8800814a8800704a8000814a80006e
:1008700042722900f3c723003e1507006048880034
:10088000714888006000b800704a8800814a88007a
:10089000904a8000a14a800002c02c00c37c240042
:1008a00034150700904a8800a14a8800904a8000c9
:1008b000a14a8000f2282c0053ef2300cf14070038
:1008c000904a8800a14a8800904a8000a14a80008e
:1008d00042722900f3c7230026150700404888000c
:1008e000514888006000b800904a8800a14a8800fa
:1008f0004048800051488000604888007148880066
:100900004029ef0061508000f05f2500808f50008b
:1009100007003200504b8000e10f500004003a0005
:10092000804b80000000e00001003a00fc0c070052
:10093000f04980000000e00017003a00804b800082
:100940000000e00014003a00660c0700a047800099
:10095000e20f500003003c00a04780000000e000d0
:1009600008003a00b0498000e10f500005003a004d
:10097000704b8000e50f500002003a000c080700a1
:1009800008003700b04980000000e00004003a0091
:10099000870d070003003700850d070001003700b1
:1009a00000000000b04980000000e00006003a00ae
:1009b000504b8000e10f500003003a00a1e2a90073
:1009c0006a29ef005500370010002000504b8800c6
:1009d00052003700504b8000e10f50003d003a00bc
:1009e000001480008000eb00671507000002be00c5
:1009f000104a8000214a80000001be000400be00b1
:100a00007f140700104a8800214a880010148000d3
:100a10008000eb005c1507000002be00304a800039
:100a2000414a80000001be000400be0074140700ab
:100a3000304a8800414a8800201480008000eb0082
:100a4000511507000002be00504a8000614a800034
:100a50000001be000400be0069140700504a88006f
:100a6000614a8800301480008000eb0046150700c2
:100a70000002be00704a8000814a80000001be0072
:100a80000400be005e140700704a8800814a880096
:100a9000401480008000eb003b1507000002be0000
:100aa000904a8000a14a80000001be000400be0000
:100ab00053140700904a8800a14a880061508000c2
:100ac000f05f2500808f500011003200d50607002e
:100ad0000f0037006000b800104a8800214a8800e3
:100ae0006000b800304a8800414a88006000b800c1
:100af000504a8800614a88006000b800704a880047
:100b0000814a88006000b800904a8800a14a8800a5
:100b1000004a80000000e800004a88008560a900c3
:100b20000080fa004f03be004f02be004f01be001e
:100b30004f00be003600f900004006003600f80005
:100b4000809fbe00829fbe00849fbe00869fbe0025
:100b50000200fa00c8c2a80034003700424d8000ed
:100b60009010800080407800e09920000000410053
:100b700001487800105180000000e00012003200af
:100b8000414d8000e0992000008040001040780036
:100b9000ed4f500006003a00414d8000e0992000e2
:100ba0000080400010407800ea4f500006003200fc
:100bb000414d8000e0992000008040001040780006
:100bc0000000fb0080108800414d8000e09920006b
:100bd0000080400010407800ed4f50000b003a00bc
:100be000105180000000e00002003200d000200020
:100bf00080108800404d8000804d8800a829ef00bb
:100c000010002000504d880008003700005180007f
:100c100080007800404d8000808f50000300360037
:100c2000404d80000000e800404d880070108000ba
:100c3000610060000000e00003003200504d8000c1
:100c40000000e000c5ff3200504d8000e10f500071
:100c50003e013a000000eb00000f78000004200085
:100c600080108800c04480000000e00002003400d2
:100c70001002200080108800e09920001e00400033
:100c8000104078000000fb006101b90030ff2f0028
:100c9000f1ff2f0002004000838048008206200000
:100ca00003002000820f5000838f580010013e0087
:100cb00000600100150137000d0137000c013700fd
:100cc0000b0137000a01370009013700080137001e
:100cd000070137000601370005013700040137001e
:100ce000030137000201370001013700000137001e
:100cf000ff003700fe003700fd003700fc00370022
:100d0000fb003700fa003700f900370052003700c7
:100d1000f7003700f6003700f5003700f400370021
:100d2000f3003700f2003700f1003700f000370021
:100d3000ef003700ee003700ed003700ec00370021
:100d4000eb003700ea003700e9003700e800370021
:100d5000e7003700e6003700e5003700e400370021
:100d6000e3003700e2003700e1003700e000370021
:100d7000df003700de003700dd003700dc00370021
:100d8000db003700da003700a000370077003700bb
:100d9000d70037003700370056003700d40037003f
:100da00031003700d2003700d1003700d0003700c3
:100db000cf00370060003700cd003700b8003700a3
:100dc00050003700ca003700c90037003e00370026
:100dd000c7003700b70037007f003700c400370076
:100de000c3003700c200370069003700c000370079
:100df000bf003700be003700bd003700bc00370021
:100e0000bb003700ba003700b9003700b800370020
:100e1000b7003700b6003700b5003700b400370020
:100e20006a003700b2003700b1003700b000370069
:100e3000af00370046003700ad0037009b00370099
:100e400037003700aa00370022003700a80037001b
:100e5000a70037009f003700a829ef00aa29ef005c
:100e60000000fe00ae00370010002000a047880000
:100e7000ab0037001e0fe800e09920001e00400084
:100e80009040780090c7b30080cf500003003a0034
:100e90001000200010518800a1003700e0992000c8
:100ea0001e00400090407800e0c6b30080cf5000a4
:100eb00002003a00222aef00990037000080eb0080
:100ec000704d88009600370010002000f04988001f
:100ed00093003700604b80000000e00003003a0000
:100ee00010002000604b88008d0037006c29ef0057
:100ef0008b003700110020000000eb00160a0700ed
:100f00008700370012002000711b2b0030002000ea
:100f1000a50f070010002000904b880080003700cc
:100f200012002000c11b2b00300020009e0f070084
:100f30007229ef007a0037000c2aef00120020001f
:100f4000211c2b0030002000970f07007400370091
:100f5000f05f25006050880012002000d11c2b009b
:100f600030002000900f07006d0037009828ef0038
:100f70007029ef00f428ef008029ef001200200014
:100f8000811d2b0030002000870f07006400370010
:100f90002829ef00b0408000c14080003047880021
:100fa00041478800d11680000010200000806000ba
:100fb0000000e00002003200a228ef0058003700d5
:100fc000a000200010458800550037005000200088
:100fd000a04788005200370012002000011e2b009d
:100fe00010002000700f0700c0488000d14880002a
:100ff00012002000c90f070012002000411e2b0024
:1010000020002000680f0700450037001200200074
:10101000811e2b0010002000630f0700704180002c
:101020008141800012002000bc0f07001200200048
:10103000c11e2b00200020005b0f070012002000c3
:10104000111f2b0010002000570f0700d044800014
:10105000e144800012002000b00f070012002000c1
:10106000c11e2b00200020004f0f0700120020009f
:10107000811f2b00100020004b0f070080458000cf
:101080009145800012002000a40f070012002000ec
:10109000c11e2b0020002000430f07002000370056
:1010a00010002000205088001d003700042aef00a7
:1010b0001b003700b14c800020062000808f5000bc
:1010c00014003c00b04c80000000e800b04c8800e8
:1010d00013003700b04c80000000e0000f00340027
:1010e000b04c80000000e900b04c88000c003700d4
:1010f0001200200011202b00100020002a0f0700f2
:101100000080eb00704d88000500370000000000f3
:10111000030037000000000001003700000000005d
:10112000a829ef00aa29ef00704d8000e10f4000d0
:1011300006003a00ae29ef00a829ef000000eb00fe
:10114000000f780050042000801088008520a9003e
:101150000080fa004f03be004f02be004f01be00e8
:101160004f00be003600f900004006000000fa0003
:10117000c8c2a8008700a9000080fa00004006004d
:10118000809fbe000000fa00c8c2a8000900370016
:10119000f14d8000009c200000804000104078004d
:1011a0000000fb00d0108800f04d80000000e80037
:1011b000f04d8800c11080000020200000806000f9
:1011c0000000e00004003a00f14d8000e04d800096
:1011d000808f5000eeff34008720a9000080fa00c5
:1011e0004f00be00004006003600f800809fbe00a1
:1011f000829fbe00849fbe00869fbe00889fbe0067
:101200000200fa00c8c2a800a1e2a800b04980000c
:101210000000e00006003200f0438000804c8800af
:10122000b003200090508800d442a800120037007c
:10123000905080000000e0000c003c00b003200053
:1012400090508800804c80000000e00003003c00cb
:1012500010002000f049880007003700804c800013
:101260000000e900804c88000300370090508000a7
:101270000000e90090508800104980000000e00064
:1012800010003400244980003549800090418000de
:10129000a141800018c0b3000001be000400be00e0
:1012a000f61207000000e000010035000044eb00ea
:1012b0000804e00003003200104980000000e9004b
:1012c00010498800d11680000010200000806000c6
:1012d0000000e00003003a00c882a9009a29ef004c
:1012e0007c29ef00504c8000e80f500004003400cf
:1012f00010002000404c88008a29ef000b003700c6
:10130000504c80000000e00004003400504c80008d
:101310000000e900504c880004003700b04980000c
:101320000000e00001003a008829ef002050800012
:101330000000e0000b003200b04980000000e00037
:1013400008003200c60b0700404c80000000e0009f
:1013500002003200900c070003003700d70b070093
:10136000010037008429ef00b04980000000e00050
:1013700029003200244880003548800070438000f6
:101380008143800018c0b3000001be000400be000d
:10139000bc1207000000e00001003c000044eb002c
:1013a0000804e0001a003a004448800055488000d4
:1013b000504380006143800018c0b3000001be00ac
:1013c0000400be00af1207000000e00001003c0076
:1013d0000044eb000804e0000d003a00644880007f
:1013e00075488000504380006143800018c0b300fe
:1013f0000001be000400be00a21207000000e000d1
:1014000001003c000044eb000804e0000200320050
:10141000e002a80037003700b04980000000e0007b
:1014200033003200704380008143800002002000be
:10143000030a2400f11107000002be0020488000ca
:101440003148800018c0b3000001be000400be0097
:101450008c1207000000e00001003c000044eb009b
:101460000804e00023003200504380006143800004
:1014700002002000030a2400e01107000002be0061
:10148000404880005148800018c0b3000001be00f1
:101490000400be007b1207000000e00001003c00d9
:1014a0000044eb000804e0001200320050438000ca
:1014b0006143800002002000030a2400cf110700ce
:1014c0000002be00604880007148800018c0b30070
:1014d0000001be000400be006a1207000000e00028
:1014e00001003c000044eb000804e0000100320071
:1014f000e002a90003040700604b80000000e00048
:1015000005003400604b80000000e900604b88005b
:1015100010002000c20a0700d11680000010200031
:10152000008060000000e0000f003a00001780001b
:10153000620060000000e0000b003200a049800063
:101540000000e00008003a00904b80000000e0003e
:1015500005003a00c04b80000000e00002003a00a5
:1015600010002000c04b8800c04980000000e0004f
:101570000d003200a04b8000e10f500003003a0044
:101580007429ef00c8a2a90008003700100020004d
:10159000a04b8800c04480000000e000030032003f
:1015a000c8a2a80001003700c8a2a900d04b800043
:1015b0000000e0000a003a00704b80000000e000ec
:1015c00007003a0010002000704b88001000200037
:1015d000a049880010002000d04b88006800370028
:1015e000d04b8000e70f500004003c00d04b80003f
:1015f0000000e800d04b880061003700d04b80002d
:10160000e80f50005e003a0000498000e10f5000f2
:101610005b003a00914c800020002000000178001f
:10162000110009008200d8000000e8001d0d07002d
:1016300041652700810f500031003a0024458000a9
:1016400035458000c0488000d14880000001be00c0
:101650000400be006911070002002000832c240052
:10166000c41107000002be00d0448000e1448000a5
:101670000001be000400be0098120700031207001c
:10168000000f780088458000994580001e00780092
:10169000cf80de00391207000001be000800be0046
:1016a000561107008045880091458800f844800065
:1016b000094580001e007800cf80de002f12070051
:1016c0000001be000800be004c110700f044880075
:1016d0000145880048458000594580001e0078007b
:1016e000cf80de00251207000001be000800be000a
:1016f000421107004045880051458800110037001d
:101700007041800081418000d0448800e14488001d
:10171000c0488000d148800002002000832c2400b3
:10172000941107000002be007041800081418000da
:101730000001be000400be0068120700804588005a
:101740009145880090002000d04b88003429ef009c
:101750008400a900ff3ffc008c00a800d116800087
:1017600000102000008060000000e0000400320053
:10177000704c80000000e00001003a008400a800e6
:1017800018040700404580005145800018c0b30090
:101790006011b800b91107000000e0000100350039
:1017a0000044eb000804e0000600320040458000e1
:1017b0005145800001f0a200f044880001458800f6
:1017c000040037004045800051458000f044880007
:1017d00001458800c0488000d148800018c0b3008f
:1017e00002002000632c2400a61107000000e00086
:1017f00001003c000044eb000804e000100032004f
:1018000070508000e40f50000d003200d044800082
:10181000e144800080458800914588004000200018
:10182000705088006000b80040458800514588002d
:101830006000b800604588007145880048003700a6
:10184000c0488000d148800018c0b30002002000ca
:10185000632a2400891107000000e0000100350020
:101860000044eb000804e0001e003200c048800085
:10187000d148800018c0b30002002000232a2400b1
:10188000801107000000e00001003c000044eb0074
:101890000804e0001300320070508000e40f500094
:1018a00003003200705080000000e0000d003a009c
:1018b000f044800001458000d0448800e144880065
:1018c000d0448000e14480000001be00cc1007003d
:1018d000d0448800e1448800200020007050880037
:1018e0001f003700c0488000d148800018c0b300f6
:1018f0000200200003f82300601107000000e00050
:10190000010035000044eb000804e0001400320040
:10191000705080000000e00011003200f0448000b0
:1019200001458000d0448800e14488006000b80090
:1019300080458800914588006000b800a045880077
:10194000b14588000e2aef006000b80040458800cd
:10195000514588006000b8006045880071458800e6
:10196000804580009145800018c0b3006011b80028
:10197000421107000000e000010035000044eb00c8
:101980000804e000060032006000b80080458800ce
:10199000914588006000b800a0458800b1458800e6
:1019a000d0448000e1448000a2702d0033ba2300af
:1019b000931007000002be00804580009145800022
:1019c00018c0b3000001be000400be002b110700c8
:1019d0000000e000010035000044eb000804e000d6
:1019e00007003200d0448000e1448000a2702d0046
:1019f00033ba230082100700804588009145880093
:101a00007440800085408000b0408000c14080006c
:101a10000001be000400be00b01107000002be00bd
:101a2000804880009148800018c0b3000001be00cb
:101a30000400be00131107000000e00001003c009c
:101a40000044eb000804e0001f0032004049800021
:101a50000000e0001c003200d4448000e544800017
:101a600070408000814080000001be000400be0084
:101a70009a1107000002be00804580009145800059
:101a800018c0b3000001be000400be00fb10070038
:101a90000000e000010035000044eb000804e00015
:101aa00009003200d4448000e5448000704080008a
:101ab000814080000001be000400be0087110700c5
:101ac0008045880091458800b04980000000e00012
:101ad0000c003a008845800099458000d043800082
:101ae000e143800032842900139923007b11070011
:101af0000001be000800be004010070080458800bd
:101b0000914588008460a9000080fa004f04be005f
:101b10004f03be004f02be004f01be004f00be008b
:101b20003600f900004006003600f800809fbe0035
:101b3000829fbe00849fbe00869fbe00881f7800e3
:101b40000400fa00c8c2a8006000b800008fbe0000
:101b5000505080000000e00006003400505080002b
:101b6000e30f500003003200505080000000e900f5
:101b700050508800405080000000e0000600340013
:101b800040508000e30f50000300320040508000be
:101b90000000e90040508800305080000000e00064
:101ba0000600340030508000e30f50000300320084
:101bb000305080000000e90030508800b04a8000ba
:101bc000e70f500011003400104b8000214b8000c3
:101bd000020020000310240066100700104b88004c
:101be000214b8800104b8000214b8000d04a880098
:101bf000e14a88006000b800104b8800214b880043
:101c00005629ef00440307000c003700144b8000f6
:101c1000254b8000e0488000f14880000001be00b4
:101c20000400be00f60f0700104b8800214b88000f
:101c3000b04a80000000e800b04a8800c04a800036
:101c4000e70f500010003400304b8000414b800003
:101c5000020020000310240046100700304b8800cb
:101c6000414b8800304b8000414b8000f04a880097
:101c7000014b88006000b800304b8800414b880061
:101c80005829ef000c003700344b8000454b800092
:101c900080488000914880000001be000400be0022
:101ca000d70f0700304b8800414b8800c04a8000a6
:101cb0000000e800c04a8800d44a8000e54a80005d
:101cc000f04a8000014b80000001be000400be000d
:101cd00002110700008fbe0018c0b3006011b800e9
:101ce0001e00be00651007000000e0000100350086
:101cf0000044eb000804e000030032001e00be00b8
:101d000001f0a200008fbe00c0478000d1478000d4
:101d100018c0b3000001be001e00be00591007002d
:101d20000000e00001003c000044eb000804e0007b
:101d30000b0032001e01be00c2478800d347880056
:101d4000f04a8000014b8000e0478800f14788009e
:101d5000d04a8000e14a800000488800114888008d
:101d6000e0488000f148800018c0b300f22621004e
:101d700033b02300431007000000e00001003c00e6
:101d80000044eb000804e0000b003a00e04880004b
:101d9000f148800018c0b300f226210033b02b00b8
:101da000361007000000e000010035000044eb00a1
:101db0000804e00084003200a44f8000b54f80008a
:101dc000e0488000f14880000001be000400be0031
:101dd000c21007000002be0060458000714580000f
:101de0000001be000400be00850f070060458800aa
:101df00071458800a44f8000b54f8000e048800006
:101e0000f14880000001be000400be00b3100700ce
:101e10000002be00a0458000b14580000001be0068
:101e20000400be00760f0700a0458800b145880079
:101e3000604580007145800018c0b300f226210083
:101e400033a823000f1007000000e00001003c0051
:101e50000044eb000804e0000f0032006045800001
:101e600071458000f226210033a82300630f07008c
:101e700060458800714588004045800051458000dc
:101e8000f226210033a823005d0f0700404588009b
:101e90005145880019003700604580007145800079
:101ea00018c0b300f226210033a82b00f30f07005f
:101eb0000000e000010035000044eb000804e000f1
:101ec0000e0032006045800071458000f22621003e
:101ed00033a823004a0f0700604588007145880039
:101ee0004045800051458000f226210033a82300a0
:101ef000420f07004045880051458800a0458000fa
:101f0000b145800018c0b300f226210033a8230099
:101f1000dc0f07000000e00001003c000044eb0083
:101f20000804e0000f003200a0458000b1458000a9
:101f3000f226210033a82300300f0700a0458800b7
:101f4000b14588008045800091458000f22621003f
:101f500033a823002a0f0700804588009145880098
:101f600019003700a0458000b145800018c0b300bb
:101f7000f226210033a82b00c00f07000000e0006c
:101f8000010035000044eb000804e0000e003200c0
:101f9000a0458000b1458000f226210033a823002f
:101fa000170f0700a0458800b145880080458000d4
:101fb00091458000f226210033a823000f0f07006f
:101fc000804588009145880084c0a9000080fa00ff
:101fd0004f0478004f03be004f02be004f01be0009
:101fe0004f00be003600f900004006003600f80041
:101ff000809fbe00829fbe00849fbe00869fbe0061
:102000000000fa00c8c2a800e9070700100020007d
:10201000804b8800c0002000a00607008960a9004e
:102020000080fa004f03be004f02be004f01be0009
:102030004f00be003600f900004006003600f800f0
:10204000809fbe00829fbe00849fbe00869fbe0010
:102050000000fa00113a80000002200000806000b9
:102060000000e00005003a00004c80000000e000a5
:1020700002003a002001200088060700c8c2a8001c
:10208000cb07070010002000804b8800004c800028
:102090000000e00002003a00d00020007f060700a8
:1020a00010002000004c88008020a9000080fa0069
:1020b0004f03be004f02be004f01be004f00be00e6
:1020c0003600f900004006003600f800809fbe0090
:1020d000829fbe00849fbe00869fbe000000fa0063
:1020e000c8c2a800b207070010002000804b88007b
:1020f000e0002000690607008060a9000080fa0067
:102100004f03be004f02be004f01be004f00be0095
:102110003600f900004006003600f800809fbe003f
:10212000829fbe00849fbe00869fbe000000fa0012
:10213000c8c2a8009e07070010002000804b88003e
:10214000f0002000550607008040a9000080fa003a
:102150004f03be004f02be004f01be004f00be0045
:102160003600f900004006003600f800809fbe00ef
:10217000829fbe00849fbe00869fbe000000fa00c2
:10218000c8c2a8008a07070010002000804b880002
:1021900000012000410607008080a9000080fa00ad
:1021a0004f03be004f02be004f01be004f00be00f5
:1021b0003600f900004006003600f800809fbe009f
:1021c000829fbe00849fbe00869fbe000000fa0072
:1021d000c8c2a8007607070010002000804b8800c6
:1021e000100120002d0607000080fa004f03be00fa
:1021f0004f02be004f01be004f00be003600f90086
:10220000004006000400fa00100798000000eb00f0
:10221000000f7800180037001e0090001e004000dc
:10222000d909070000000000013b800000002800e1
:10223000008060000000e000fbff3a001e00780014
:102240008000400000802000008040009000780066
:102250001e0090001e004000ec0907000000000076
:10226000013b800000002800008060000000e000ca
:10227000fbff3a001e0fe800914c80002000200078
:1022800000017800110009008200d8009e0f500064
:10229000e1ff3d001e0078000080fa00000006000b
:1022a0000400fa00100798000000eb00000f78000f
:1022b0000a0037001e0090001e004000f9090700c8
:1022c000800078001e00780000014000008020009f
:1022d00000004100010878001e0fe800914c8000ca
:1022e0002000200000017800110009008200d800c1
:1022f0009e0f5000efff3d000080fa000000060036
:102300000400fa00100798000000eb00000f7800ae
:10231000200037001e0090001e0040009a090700b0
:1023200000000000013b80000000280000806000e9
:102330000000e000fbff3a001e0078000000e00013
:1023400005003a001e0090001e0040004165270075
:10235000ae090700090037001e0078008000400029
:102360002088200000804000900078001e0090002f
:102370001e004000a509070000000000013b80008e
:1023800000002800008060000000e000fbff3a0031
:102390001e0fe800a14c8000200020000001780002
:1023a000110009008200d8009e0f5000d9ff3d00a7
:1023b0001e0078000080fa00000006000400fa0009
:1023c000100798000000eb00000f78000a003700ab
:1023d0001e0090001e004000b20907008000780037
:1023e0001e0078000001400020882000000041000d
:1023f000010878001e0fe800a14c8000200020009a
:1024000000017800110009008200d8009e0f5000e2
:10241000efff3d000080fa00000006000400fa0013
:102420000000eb00000f78000000eb0010079800a0
:1024300000802000000f780000882000100798001e
:102440001e0090001e0050000080fa0000000600f0
:102450000400fa000000eb00000f78000000eb0021
:102460001007980020882000000f7800808b200043
:10247000100798001e0090001e0050000080fa0017
:10248000000006000000fa00c0488000d14880002b
:102490002045880031458800914c800020002000b4
:1024a00000017800110009008200d8000000e80057
:1024b00093ff0700d442a9000080fa000000060044
:1024c0000000fa0003003700f04b80000000e80035
:1024d000f04b8800f04b8000e30f4000faff36001d
:1024e000914f800050a52a00808f500001003a00d3
:1024f0008900070050a52a00904f88000080fa004c
:10250000000006000000fa00d11680000010200034
:10251000008060000000e0000d003a00001780001d
:10252000620060000000e00009003200a049800065
:10253000e10f500006003200904b8000e10f500088
:1025400003003200b04b8000e10f500023003a003e
:1025500010002000c0498800604c80000000e000ae
:1025600004003200504c800065004000504c880050
:102570008c29ef00c04b8000e10f500003003a00af
:102580007029ef008029ef007829ef00804b800050
:102590000000e00007003a0010002000b049880069
:1025a000d04980000000e00019003a00450c070007
:1025b0001a0037007e0607003629ef009c29ef003d
:1025c0009a29ef009829ef00e04980000000e00020
:1025d00011003a001d0d0700100037001000200008
:1025e000604c8800720607003829ef003629ef009a
:1025f0009c29ef009a29ef009829ef00e04980001c
:102600000000e00005003a00100d0700030037004d
:102610000000000001003700000000000080fa0008
:10262000000006000000fa0000148000e30f4000e4
:1026300003003600d00120001805070051060700ee
:1026400000148000e10f500003003e00e001200074
:10265000120507004b06070010148000e30f40002e
:1026600003003600f00120000c05070045060700b6
:1026700010148000e10f500003003e000002200013
:10268000060507003f06070020148000e30f400006
:102690000400360010022000000507005000200052
:1026a000a047880020148000e10f500004003e0085
:1026b00020022000f904070050002000a0478800f5
:1026c00030148000e30f400002003600300220008a
:1026d000f204070030148000e10f500002003e00b9
:1026e00040022000ed04070040148000e30f40008a
:1026f0000200360050022000e80407004014800069
:10270000e10f500002003e0060022000e3040700d9
:102710000080fa00000006000000fa00003a800085
:10272000620060000000e000030032004027a900c2
:1027300030012000d9040700003a800070006000da
:102740000000e000030032004087a90040012000a3
:10275000d2040700013a80000000280000806000d9
:102760000000e0000300320041e7a9005001200012
:10277000ca040700013a80000000240000806000c5
:102780000000e0000300320041c7a9006001200002
:10279000c2040700013a80000008200000806000a9
:1027a0000000e0000300320040e7a90070012000b3
:1027b000ba040700013a8000000420000080600095
:1027c0000000e0000300320040c7a90080012000a3
:1027d000b204070090012000b00407000080fa0056
:1027e000000006000000fa00889fbe00d040800074
:1027f000e14080000200200003002400ff0c0700dd
:102800000002be00804880009148800018c0b300dc
:102810000001be000400be009a0d07000000e000a9
:1028200001003d000044eb000804e0000400320019
:102830006000b800c0488800d148880033003700e5
:10284000e0488000f148800018c0b300d2cc2c00d2
:10285000c3d42300890d07000000e000010035000b
:102860000044eb000804e00028003200e04880004b
:10287000f148800018c0b300d2cc2c00c3d42b0088
:10288000800d07000000e00001003c000044eb0068
:102890000804e0001d00320080488000914880005c
:1028a000a0488800b1488800a4488000b54880004e
:1028b000d0408000e14080000001be000400be0066
:1028c000ce0c07000004be00b4408000c54080006c
:1028d000d0408000e14080000001be000400be0046
:1028e000c60c07000001be000800be00210d070055
:1028f00002002000832c2400f80d0700c048880047
:10290000d148880010002000004988004f04be0014
:102910000080fa00000006000400fa006000b80021
:10292000008fbe00d04a8000e14a800001f0a20082
:10293000008fbe00704b8000e40f50000f003a0083
:10294000d0438000e14380000001be001e00be00b5
:10295000aa0c07008047880091478800500020009b
:10296000704b8800a0478000e50f50000200320045
:1029700010002000a04788003429ef00704b800031
:10298000e10f500008003a006000b800804788005e
:10299000914788008605070040002000704b8800a2
:1029a00010002000a04988000080fa000000060006
:1029b0002000fa00881f78006000b800008fbe0079
:1029c0006000b80020079800310798006000b80048
:1029d00040079800510798006000b8006007980011
:1029e00071079800e2488000f34880004207980091
:1029f00053079800e2488000f3488000620798007f
:102a0000730798000000200001f82300f0468800ba
:102a1000014788002448800035488000d04280006b
:102a2000e142800018c0b3000001be000400be00f7
:102a3000140d07000000e00001003c000044eb0022
:102a40000804e0000d003a0024488000354880006a
:102a500090428000a142800018c0b3000001be0077
:102a60000400be00050d07000000e0000100350075
:102a70000044eb000804e00004003200d0cc2c003d
:102a8000c1f42300f04688000147880024488000f4
:102a900035488000704280008142800018c0b30039
:102aa0000001be000400be00f40c07000000e000be
:102ab000010035000044eb000804e000040032008f
:102ac0000000200001f02300f04688000147880044
:102ad00014418000254180008045800091458000a0
:102ae0000001be000400be007c0d07000002be0015
:102af000f0468000014780000001be000400be00d7
:102b0000760d0700008fbe003041800041418000fb
:102b100018c0b3000001be001e00be00d70c0700a5
:102b20000000e000010035000044eb000804e00074
:102b30000d003a0024488000354880007042800033
:102b40008142800018c0b3000001be000400be0036
:102b5000ca0c07000000e000010035000044eb0053
:102b60000804e0000300320032418000434180004d
:102b7000028fbe0018c0b3006011b8004e00900074
:102b8000de009000bd0c07000000e00001003500f1
:102b90000044eb000804e000060032004e00900004
:102ba000de00900001f0a200400798005107980055
:102bb000030037006000b8004007980051079800f4
:102bc0000000200001f82300f0468800014788003b
:102bd0002448800035488000304280004142800017
:102be00018c0b3000001be000400be00a50c070021
:102bf0000000e00001003c000044eb000804e0009d
:102c00000d003a002448800035488000f0418000e3
:102c10000142800018c0b3000001be000400be00e5
:102c2000960c07000000e000010035000044eb00b6
:102c30000804e00004003200d0cc2c00c1f42300d2
:102c4000f0468800014788005441800065418000bb
:102c500070418000814180000001be000400be0080
:102c60001e0d07000002be00f046800001478000f4
:102c70000001be000400be00180d070020079800e8
:102c800031079800244880003548800010428000b9
:102c90002142800018c0b3000001be000400be0045
:102ca000780c07000000e00001003c000044eb004d
:102cb0000804e0000d003a002448800035488000f8
:102cc000d0418000e141800018c0b3000001be0087
:102cd0000400be00690c07000000e00001003500a0
:102ce0000044eb000804e000030032006000b8007c
:102cf000200798003107980018c0b3006011b80091
:102d00006e009000fe0090005c0c07000000e000e8
:102d1000010035000044eb000804e000030032002d
:102d20006000b80060079800710798007629ef00ee
:102d3000d116800000102000008060000000e0003c
:102d4000ff003200d04b8000e90f5000fc003a0039
:102d5000c882a800804b8000e10f500006003200be
:102d6000e0c2a80050508000e30f500002003a007b
:102d700020002000505088006000b800200f98000c
:102d8000310f98003047800041478000020020004a
:102d900003f02300990b0700200f9800310f9800d3
:102da000e14b8000f0e12400808f50001c003c00cb
:102db0006011b8006e009000fe0090002f0c07001c
:102dc0000000e00016003a0000178000620060007a
:102dd0000000e0001200320080488000914880002e
:102de00018c0b3002e099000be099000230c070004
:102df0000000e000010035000044eb000804e000a2
:102e000007003200505080000000e00004003a004b
:102e1000e04b80000000e800e04b88001500370020
:102e2000e14b8000f0e12400808f50000b00340063
:102e300000178000620060000000e0000700320020
:102e4000b00120001503070010002000804b88000f
:102e50007c29ef00e0c2a90006003700e04b8000ab
:102e60000000e00003003400e04b80000000e900b7
:102e7000e04b880018c0b300a2702d0033c22300bd
:102e80006e009000fe009000fe0b07000000e000c6
:102e900001003c000044eb000804e00011003a008f
:102ea0003047800041478000a299290093e1230028
:102eb000520b07000002be0080488000914880004d
:102ec00018c0b3000001be000400be00eb0b0700f9
:102ed0000000e000010034000044eb000804e000c2
:102ee000040032005042800061428000d40107009b
:102ef0000c0037006011b8006e009000fe009000da
:102f0000de0b07000000e00006003a00e04c800005
:102f10000000e00003003400e04c80000000e90005
:102f2000e04c88006000b800000f9800110f980076
:102f30003047800041478000d2cc2c00c3d423000e
:102f40002f0b07000002be008048800091488000df
:102f500018c0b3000001be000400be00c70b07008c
:102f60000000e000010035000044eb000804e00030
:102f700002003200f628ef001300370030478000cf
:102f800041478000d2cc2c00c3d423001b0b070088
:102f90000002be00804880009148800018c0b30045
:102fa0000001be000400be00b60b07000000e000f8
:102fb00001003c000044eb000804e0000200320085
:102fc00010002000b0478800b04780000000e000fb
:102fd000050032002e019000be019000020f980003
:102fe000130f9800030037006000b800000f98002e
:102ff000110f9800a0478000e20f50004e003200f1
:10300000505080000000e0004b003a00d04c80009f
:103010000000e00011003400b0408000c14080009a
:10302000a2702d0033c22300f40a07000002be0084
:10303000804880009148800018c0b3000001be00a5
:103040000400be008d0b07000000e000010034000a
:103050000044eb000804e0000e003a00a2702d00ce
:1030600033c223000e0890009e089000e40a070077
:1030700018c0b3006e019000fe0190007f0b0700a6
:103080000000e000010035000044eb000804e0000f
:1030900004003200d04c80000000e900d04c8800d1
:1030a00023003700d14c800040062000808f500064
:1030b00011003c00b0408000c140800092c2250059
:1030c000f3d82300cd0a07000002be00804880002c
:1030d0009148800018c0b3000001be000400be008b
:1030e000680b07000000e00001003c000044eb001a
:1030f0000804e0000b003a0018c0b3000e0990006d
:103100009e0990006e009000fe0090005b0b07008f
:103110000000e000010035000044eb000804e0007e
:1031200003003200d04c80000000e800d04c880042
:1031300000000000090037009a29ef00070037005f
:10314000c882a9009a29ef00d821ef00e0c2a900a7
:1031500030002000505088007c29ef0000178000cc
:10316000620060000000e00003003200904b80002d
:10317000e10f50000e013a00d04b8000e90f5000e3
:103180000400320061508000f05f2500808f500005
:1031900007013a00804b8000e10f50000700320029
:1031a000d422a800c902a80040508000e30f5000bc
:1031b00002003a002000200040508800d116800014
:1031c00000102000008060000000e00003003a00d2
:1031d000f042800001438000190107006150800027
:1031e000f05f2500808f500003003a00b04c800053
:1031f000c04c8800fb003700405080000000e00019
:10320000f7003a006000b800400f9800510f980096
:103210002448800035488000b0428000c1428000d0
:103220000001be000400be00740a0700400f9800b1
:10323000510f980000508000115080004e099000fe
:10324000de099000a50b07000002be00304680009a
:10325000414680000001be000400be009f0b070035
:103260000002be00b0468000c14680000001be00e2
:103270000400be00620a0700b0468800c14688000c
:10328000b4468000c5468000b0408000c140800048
:1032900018c0b3000001be000400be00f90a070018
:1032a0000000e00001003c000044eb000804e000e6
:1032b00005003200b0408000c1408000b046880068
:1032c000c146880011003700b4468000c546800022
:1032d000d0408000e140800018c0b3000001be0073
:1032e0000400be00e50a07000000e0000100350010
:1032f0000044eb000804e00004003200d0408000ed
:10330000e1408000b0468800c14688006000b800f7
:10331000600f9800710f98008448800095488000e5
:10332000b0468000c14680000001be000400be001f
:10333000320a0700600f9800710f9800e04f80007c
:10334000f14f80006e099000fe099000630b0700aa
:103350000002be0030468000414680000001be00f1
:103360000400be005d0b07000002be009046800016
:10337000a14680000001be000400be00200a070034
:1033800090468800a146880090468000a1468000b3
:1033900018c0b3001e01be00ba0a07000000e0001a
:1033a00001003c000044eb000804e000040032008f
:1033b0001e01be0092468800a34688000d0037001b
:1033c00090468000a146800018c0b3006011b8008c
:1033d000aa0a07000000e000010035000044eb00ed
:1033e0000804e000030032006000b8009046880046
:1033f000a146880094468000a5468000b041800028
:10340000c141800018c0b3000001be000400be002e
:103410009c0a07000000e00001003c000044eb00b3
:103420000804e00004003200b0418000c141800087
:1034300090468800a146880090468000a146800002
:103440004e019000de019000ec0907000002be0072
:10345000c04f8000d14f80000001be000400be00bc
:103460001e0b0700504688006146880050468000c9
:103470006146800018c0b30002002400c36124002c
:10348000800a07000000e00001003c000044eb005f
:103490000804e0000500320000002400c16124009f
:1034a00050468800614688000f0037005046800073
:1034b0006146800018c0b30002002400c3612c00e4
:1034c0006e0a07000000e000010035000044eb0038
:1034d0000804e0000400320000002400c1612c0058
:1034e000504688006146880034468000454680008a
:1034f00050468000614680000001be000400be000e
:10350000f60a07000002be00704680008146800077
:103510000001be000400be00b90907007046880023
:1035200081468800704680008146800018c0b30044
:1035300002002000e32b2400520a07000000e000f4
:1035400001003c000044eb000804e00005003200ec
:1035500000002000e12b240070468800814688008e
:103560000d003700704680008146800018c0b3000f
:103570006011b800410a07000000e00001003500ba
:103580000044eb000804e000030032006000b800d3
:103590007046880081468800704680008146800021
:1035a0003a0a070000007800c04c88000d00370080
:1035b0009829ef00da21ef00dc22ef00c841a900d2
:1035c0006000b80070468800814688003000200006
:1035d00040508800c902a900d422a9000100370088
:1035e00000000000b04980000000e00005003a0043
:1035f0009c29ef00d621ef00cfe2a9003000200087
:1036000030508800804b8000e10f500002003a00eb
:103610006702070007003700c841a800e04c80009f
:10362000b00e8800d04c8000c00e8800c04c8000d6
:10363000d00e88004f0478000080fa0000000600d9
:103640000400fa00881f7800008fbe00a0478000a9
:10365000e30f50003d003a000200200003f0230079
:103660001e00be00650907000002be002048800061
:103670003148800018c0b3000001be000400be0045
:10368000000a07000000e00001003c000044eb00dd
:103690000804e00011003200e14c80007047800017
:1036a000808f50000d003d00305080000000e00091
:1036b00003003a00e04c80000000e800e04c880085
:1036c000cfe2a80030508000e30f50001f003a0006
:1036d00020002000305088001c003700020020002d
:1036e00003f023001e00be00450907000002be00d3
:1036f000204880003148800018c0b3000001be009f
:103700000400be00dd0907000000e00001003500f4
:103710000044eb000804e0000c003200e04c8000a4
:103720000000e00009003400e04c80000000e900e7
:10373000e04c8800e04c80000000e00001003c000c
:10374000cfe2a90030002000305088004f047800fc
:103750000080fa00000006000800fa002007980028
:10376000310798003e019000a1322b00300020006c
:103770008d0507000000eb00000f7800c0448000ba
:10378000ea0f5000050034003e019000b1332b00d9
:103790003000200084050700be003700c0448000d0
:1037a0000000e000b6003a003e01900031362b00e8
:1037b000300020007c050700b60037001e007800ae
:1037c0008000400040882000008040001000780009
:1037d0006101b9000080eb008080eb000200400036
:1037e000838048005202200003002000820f500016
:1037f000838f580099003e000060010025003700cb
:1038000027003700290037002b0037002d00370034
:103810002f00370031003700330037003500370004
:1038200037003700390037003b0037003d003700d4
:103830003f003700410037004300370045003700a4
:1038400047003700490037004b0037004d00370074
:103850004f00370051003700530037005500370044
:1038600057003700590037005b0037005d00370014
:103870005f003700610037006300370065003700e4
:1038800067003700690037006b0037006d003700b4
:103890006f00370020212b001007980072003700be
:1038a000a0212b00100798006f00370020222b006a
:1038b000100798006c003700a0222b00100798001a
:1038c0006900370010232b001007980066003700ae
:1038d000c0232b00100798006300370040242b0002
:1038e0001007980060003700b0242b0010079800e4
:1038f0005d00370010252b00100798005a00370094
:1039000070252b001007980057003700f0252b007a
:10391000100798005400370020262b00100798004d
:103920005100370060262b00100798004e0037002a
:10393000f0262b00100798004b00370080272b0043
:10394000100798004800370000282b001007980047
:103950004500370080282b001007980042003700f0
:10396000e0282b00100798003f00370050292b005b
:10397000100798003c003700c0292b001007980062
:1039800039003700002a2b00100798003600370056
:10399000502a2b001007980033003700c02a2b0054
:1039a0001007980030003700102b2b0010079800ec
:1039b0002d003700a02b2b00100798002a0037009d
:1039c000002c2b001007980027003700d02c2b006c
:1039d0001007980024003700a02d2b001007980036
:1039e00021003700402e2b00100798001e003700e2
:1039f000a02e2b00100798001b003700002f2b0073
:103a00001007980018003700602f2b00100798004f
:103a100015003700c02f2b00100798001200370048
:103a200020302b00100798000f00370080302b004b
:103a3000100798000c003700f0302b00100798009a
:103a40000900370060312b0010079800060037008e
:103a5000c0312b00100798000300370020322b00e4
:103a600010079800000000003e0190009e009000aa
:103a700010002000cc0407001e0fe80001003700f2
:103a800000000000c04480009e007800808f50003d
:103a90004aff35000080fa00000006000200fa002c
:103aa000000f7800c0448000e90f500009003c007e
:103ab000c04480008000400040882000008040001a
:103ac0001e087800c04480000000e800c044880060
:103ad00002003700b0002000c04488000080fa00d7
:103ae000000006000400fa00881f7800a04780004c
:103af000e20f50006f003a00b0498000e10f500023
:103b00006c003a006000b800008fbe00844880005e
:103b100095488000e0488000f14880000001be0028
:103b20000400be006d09070001f0a200008fbe0076
:103b300090438000a143800018c0b3000001be0084
:103b40001e00be00cd0807000000e00001003500a7
:103b50000044eb000804e0004f003200cfe2a80070
:103b6000305080000000e00045003a0070478000bf
:103b70000000e8007047880070478000b00e8800a1
:103b800071478000f0052000808f50000b0034004a
:103b900010002000c1ff070040002000a04788005f
:103ba000120020001e00be00dc040700cfe2a900c6
:103bb0003000200030508800ee28ef007147800070
:103bc00020032000808f50001500340018c0b3007f
:103bd00002002000030024001e00be00a70807000a
:103be0000000e000010035000044eb000804e000a4
:103bf0000b00320020002000a8ff0700400020003a
:103c0000a0478800120020001e00be00c304070069
:103c1000cfe2a9003000200030508800ee28ef00ed
:103c200070478000e40f500015003c0018c0b3003e
:103c300002002000031224001e00be0091080700ad
:103c40000000e00001003c000044eb000804e0003c
:103c50000b0032003000200090ff070040002000e1
:103c6000a0478800120020001e00be00ab04070021
:103c7000cfe2a9003000200030508800ee28ef008d
:103c800030508000e30f50000a003a00200020006e
:103c9000305088000700370030002000a04788001f
:103ca000d621ef003429ef00cfe2a9003000200038
:103cb00030508800a0478000e10f50000e003a000d
:103cc000704b8000e50f50000b003a00d621ef004a
:103cd0007c060700b600070010002000a0498800fd
:103ce000ee28ef009c29ef0020002000a04788006c
:103cf0003000200030508800a0478000e40f5000c2
:103d000004003a00d621ef00ee28ef009c29ef00d6
:103d10003429ef004f0478000080fa00000006000c
:103d20000000fa00881f78008448800095488000d1
:103d300090408000a140800018c0b3000001be0088
:103d40000400be004f0807000000e00001003d0035
:103d50000044eb000804e000030032007000200083
:103d60004eff0700870007008448800095488000c8
:103d7000f04080000141800018c0b3000001be0087
:103d80000400be003d0807000000e000010035000f
:103d90000044eb000804e00008003200d116800067
:103da00000102000008060000000e00003003a00e6
:103db0004000200039ff0700350707002448800035
:103dc00035488000104380002143800018c0b300b4
:103dd0000001be000400be002a0807000000e00049
:103de00001003c000044eb000804e0000300320046
:103df0008000200029ff070062000700644880005f
:103e000075488000304380004143800018c0b300f3
:103e10000001be000400be001a0807000000e00018
:103e200001003c000044eb000804e0000300320005
:103e30009000200019ff070052000700444880004e
:103e400055488000304380004143800018c0b300d3
:103e50000001be000400be000a0807000000e000e8
:103e600001003c000044eb000804e00003003200c5
:103e7000a000200009ff0700420007004f0478005f
:103e80000080fa00000006000000fa00881f780099
:103e9000e0488000f148800018c0b3006011b8000d
:103ea000f60707000000e000010035000044eb00c9
:103eb0000804e00006003200e0488000f14880007d
:103ec00001f0a20020498800314988000300370032
:103ed0006000b800204988003149880024498000ea
:103ee0003549800090418000a141800018c0b30096
:103ef0000001be000400be00e20707000000e00071
:103f000001003c000044eb000804e0000a0032001d
:103f100010498000e50f500004003400190007002c
:103f20002229ef0050002000dcfe0700104980002d
:103f30000000e80010498800e4488000f54880004f
:103f4000104780002147800018c0b3000001be0068
:103f50000400be00cb0707000000e00001003c00a9
:103f60000044eb000804e0000300320005000700f5
:103f700060002000c9fe07004f0478000080fa00ae
:103f8000000006000000fa000900070010002000f1
:103f9000804b88007229ef003429ef007629ef006a
:103fa000b0002000bdfe07000080fa0000000600ff
:103fb0000000fa00da21ef00dc22ef00c841a9007e
:103fc000d621ef00d821ef00d422a9003000200034
:103fd00040508800e002a900e0c2a90030002000a3
:103fe00050508800cfe2a9003000200030508800f7
:103ff000c902a9009c29ef009a29ef009829ef0037
:104000006000b80090468800a14688006000b800b3
:1040100070468800814688000080fa000000060093
:104020000200fa00000f78001e017800d1372b0043
:10403000300020005c030700804880009148800029
:104040001e017800b50307001e01780061382b00bf
:104050000000eb00540307001e01780081382b009c
:104060003000200050030700a0488000b1488000c5
:104070001e017800a90307001e01780061382b009b
:104080000000eb00480307001e01780011392b00e7
:104090003000200044030700304780004147800083
:1040a0001e0178009d0307001e01780061382b0077
:1040b0000000eb003c0307001e017800b1392b0023
:1040c0003000200038030700d04a8000e14a800019
:1040d0001e017800910307001e017800113a2b00a1
:1040e0000000eb00300307001e017800313a2b007e
:1040f000300020002c03070040458000514580001f
:104100001e017800850307001e017800d13a2b00bc
:104110000000eb00240307001e017800013b2b0088
:104120003000200020030700c0478000d1478000f6
:104130001e017800790307001e017800813b2b00e7
:104140000000eb0018030700e0478000f147800003
:104150001e017800710307001e017800f13b2b005f
:104160000000eb00100307000048800011488000a9
:104170001e017800690307001e017800113a2b0028
:104180000000eb00080307001e017800713c2b00c3
:1041900030002000040307002048800031488000e0
:1041a0001e0178005d0307001e017800213d2b00f1
:1041b0000000eb00fc0207001e017800413d2b00cf
:1041c00030002000f802070060488000714880003d
:1041d0001e017800510307001e017800213d2b00cd
:1041e0000000eb00f00207001e017800f13d2b00fb
:1041f00030002000ec020700404880005148800059
:104200001e017800450307001e017800213d2b00a8
:104210000000eb00e40207001e017800813e2b0045
:1042200030002000e00207008047800091478000b6
:104230001e017800390307001e017800113a2b0097
:104240000000eb00d80207001e017800313f2b0070
:1042500020002000d40207000080fa0000000600c1
:104260000000fa003104800000202000008060007f
:104270000000e0000f003a00204c80000000e00049
:104280000c003a00c0c0b300c0e9b70020c1b300c1
:10429000c1e9b700e0c0b300c2e9b700be29ef0032
:1042a00020002000e04d88008720a800100020009a
:1042b000204c88000080fa00000006000400fa008c
:1042c000881f7800310480000020200000806000fa
:1042d0000000e000ad003a00204c8000e10f5000eb
:1042e000aa003a00be29ef00f14d8000009c20009a
:1042f0000080400061c1b300014878001000200038
:10430000f04d8800804880009148800032002000f5
:104310000203070060002000f04d880032002000fa
:10432000513f2b000000eb009f020700800020009f
:10433000f04d880010002000904d8800f44a800065
:10434000054b8000d04a8000e14a80000001be0099
:104350000400be006107070032002000ef020700e2
:10436000d0002000f04d880032002000813f2b005b
:104370000000eb008c020700f0002000f04d8800e8
:104380006000b800008fbe00844580009545800025
:10439000d0448000e14480000001be000400be0063
:1043a0007406070002002000832c24004b0707003e
:1043b000008fbe0018c0b30002002000832c240030
:1043c0001e00be00af0607000000e00001003d0037
:1043d0000044eb000804e0000e0032003200200030
:1043e000313f2b000000eb006f020700320020007d
:1043f0001e00be00c902070040012000f04d8800e9
:1044000032002000b13f2b000000eb0066020700e5
:1044100009003700320020001e00be00bf02070066
:1044200040012000f04d880032002000b13f2b00f9
:104430000000eb005c02070050012000f04d8800f6
:10444000300020009b03070030002000cb03070052
:1044500070012000f04d880032002000d13f2b0079
:104460000000eb005002070090012000f04d880092
:10447000b229ef002048800031488000320020003f
:10448000a6020700e0012000f04d88003200200065
:1044900011402b000000eb00430207000002200047
:1044a000f04d880018c0b300020020000312240061
:1044b0001e00be00710607000000e000010035008c
:1044c0000044eb000804e0000d003200a04b800027
:1044d0000000e000050032003200200061402b00a7
:1044e0000000eb0030020700090037003200200016
:1044f00021412b000000eb002b02070004003700d5
:104500003200200021412b000000eb0026020700b2
:10451000a0022000f04d8800c04480000000e000b0
:104520000d003200a04b80000000e00005003200ca
:1045300032002000e1412b000000eb001a020700ce
:104540000a00370032002000313f2b000000eb0052
:10455000150207000500370032002000313f2b0014
:104560000000eb00100207008629ef0020c1b30015
:10457000ece9b700e0c0b300ede9b700be29ef00f9
:10458000d0022000e04d88008720a8004f0478006a
:104590000080fa00000006000400fa00881f78007e
:1045a0003104800000202000008060000000e00056
:1045b000f2003a00204c8000e10f5000ef003a007a
:1045c000be29ef00f14d8000009c200000804000db
:1045d00061c1b3000148780010002000f04d880050
:1045e0008048800091488000320020004b02070084
:1045f00060002000f04d880032002000513f2b0069
:104600000000eb00e801070080002000f04d88006a
:1046100010002000904d8800f44a8000054b800077
:10462000d04a8000e14a80000001be000400be00c4
:10463000aa0607003200200038020700d000200040
:10464000f04d880032002000813f2b000000eb007d
:10465000d5010700f0002000f04d88006000b80090
:10466000008fbe008445800095458000d0448000c6
:10467000e14480000001be000400be00bd0507004b
:1046800002002000832c240094060700008fbe0047
:1046900018c0b30002002000832c24001e00be00be
:1046a000f80507000000e00001003d000044eb00b9
:1046b0000804e0000e00320032002000313f2b00e1
:1046c0000000eb00b8010700320020001e00be0011
:1046d0001202070040012000f04d88003200200047
:1046e000b13f2b000000eb00af01070009003700cd
:1046f000320020001e00be0008020700400120001a
:10470000f04d880032002000b13f2b000000eb008c
:10471000a501070050012000f04d88003000200066
:10472000e40207003000200014030700700120009d
:10473000f04d8800d04a8000e14a800018c0b300e4
:10474000d2cc2c00c3dc2300ce0507000000e00023
:1047500001003c000044eb000804e00005003200ca
:104760003200200001422b000000eb008e01070008
:1047700014003700d04a8000e14a800018c0b3001e
:10478000d2cc2c00c3dc2b00bc0507000000e000ed
:10479000010035000044eb000804e0000500320091
:1047a0003200200061422b000000eb007e01070078
:1047b0000400370032002000c1422b000000eb0053
:1047c00079010700c0012000f04d8800e04c800016
:1047d0000000e000050034003200200021432b00df
:1047e0000000eb00700107000400370032002000d9
:1047f000b1432b000000eb006b01070040022000da
:10480000f04d8800c04480000000e00052003200fb
:10481000a04b80000000e00021003200c044800076
:104820008000e900304c8000808f500002003c0086
:104830008629ef0003003700304c80000000e800bc
:10484000304c8800c04480008000e900304c80007b
:10485000808f500005003a003200200041442b00b8
:104860000000eb005001070023003700304c8000af
:104870000000e00005003a0032002000c1442b0097
:104880000000eb00480107001b0037003200200049
:1048900041452b000000eb004301070016003700e4
:1048a000c04480008000e900304c8000808f5000c0
:1048b00005003a003200200041442b000000eb00cc
:1048c000390107000c003700304c80000000e00088
:1048d00005003a0032002000c1442b000000eb002c
:1048e00031010700040037003200200041452b0051
:1048f0000000eb002c010700304c800080004000dd
:10490000408820000080400090007800000f2000c8
:104910008080600000012000000178001100090083
:104920008200d800e5000700e9e9b700304c8000bc
:104930008000400040882000008040001000780087
:104940006f006000dd000700eae9b70080c6b30031
:10495000ebe9b7000500370032002000c1452b000d
:104960000000eb00100107008629ef00be29ef00d0
:10497000b0022000e04d88008720a8004f04780096
:104980000080fa00000006000400fa0010079800fa
:104990000000eb00000f78009e009000f01f200048
:1049a000808f5000020034001000200015003700f6
:1049b0001e00900000004000000f78009e0078006c
:1049c00000c02f0000804000000f7800f00720009a
:1049d000203b88001e007800103b88004004240023
:1049e000003b880050052000303b8800a00a2000d2
:1049f000303b8800000000000000000061e7a800d4
:104a00000000eb000080fa00000006000600fa003b
:104a100010079800210798000000eb00000f7800b5
:104a20009e009000f01f2000808f50000200340094
:104a300010002000190037001e0090000000400008
:104a4000000f78009e00780000c02f00008040001a
:104a5000000f7800f0072000100088009101880006
:104a60002e009000200088001e00780000008800c2
:104a70000208bb0040002400003b880050052000d5
:104a8000303b8800a00a2000303b88000000000076
:104a90000000000061e7a8000000eb000080fa00c1
:104aa000000006000400fa00100798000000eb0068
:104ab000000f78009e009000f01f2000808f5000b3
:104ac000020034000000eb000f0037001e009000d1
:104ad00000004000000f78009e00780000c02f000a
:104ae00000804000000f7800f0c7b30032e0b7004c
:104af0001e007800000088001002ba0000000000cc
:104b000000000000400080000080fa000000060065
:104b10000200fa00881f7800000f78001e0078005d
:104b2000e10f500017003a00304c80008000400038
:104b3000408820000080400090007800000f200096
:104b40008080600000012000000178001100090051
:104b50008200d800590007000000fb008010880088
:104b6000304c8000800040004088200000804000e1
:104b7000100078006f006000500007000000fb008c
:104b8000801088001e007800e20f500017003a00e5
:104b9000304c8000800040004088200000804000b1
:104ba00090007800000f200080806000000120004d
:104bb00000017800110009008200d8003f000700c2
:104bc0000000fb00d0108800304c800080004000c6
:104bd0004088200000804000100078006f006000d6
:104be000360007000000fb00d01088001e0078008f
:104bf000e30f500029003a00f14d8000c002200070
:104c0000808f500003003c00f04d80000000e80061
:104c1000f04d8800f84d8000304c8000800040004e
:104c2000408820000080400090007800000f2000a5
:104c30008080600000012000000178001100090060
:104c40008200d8001d000700019c20008100440064
:104c500080487800f14d8000c0022000808f500015
:104c600003003c00f04d80000000e800f04d88009b
:104c7000f84d8000304c80008000400040882000cb
:104c800000804000100078006f0060000b000700fb
:104c9000019c200081004400804878001e007800bc
:104ca0000000e00002003a00a00120007bfb0700aa
:104cb0004f0478000080fa00000006000600fa00a9
:104cc000200798000040eb00004f78000000eb0048
:104cd000100798002e0090006f00600010079800e9
:104ce0001e009000e90f500005003c001e009000df
:104cf000004078000043b000004f78000400370007
:104d00001e009000004078007043b000004f780013
:104d10001e4078000080fa00000006000400fa003f
:104d2000004f7800110798000100370000000000d4
:104d30007110800000202000008060000000e00072
:104d400006003a001e009000e10f500003003a00f8
:104d50001e00fb008010880011003700c110800089
:104d600000202000008060000000e00006003a0003
:104d70001e009000e20f500003003a001e00fb00ee
:104d8000d0108800060037001e0090000000e000f0
:104d9000e6ff3a00a001200040fb070000000000f1
:104da0000080fa00000006000800fa0010079800d2
:104db00021079800320798000000eb00000f7800f0
:104dc0001e009000e10f5000030032001e00900012
:104dd000e30f50003e003a003e009000350107000e
:104de0003e009000650107003a0037007110800016
:104df00000202000008060000000e0000a003a006f
:104e00003e009000e10f500007003a001e007800bd
:104e1000ae00900000804000104078000000fb00d1
:104e2000801088001e0fe800c110800000202000c4
:104e3000008060000000e0000a003a003e009000a0
:104e4000e20f500007003a001e007800ae0090000c
:104e500000804000104078000000fb00d010880067
:104e60001e0fe8003e009000e30f500010003a00d3
:104e7000f14d8000c0022000808f500003003c00f4
:104e8000f04d80000000e800f04d8800f24d8000f9
:104e90001e007800ae009000008040009040780036
:104ea000009c200000004100014878001e0fe8002f
:104eb0003e0090000000e00006003a00a001200043
:104ec000f6fa07000000eb00000f7800070037003b
:104ed000000000001e007800ae009000008040003e
:104ee000104078000004e000c0ff3a001e0090006f
:104ef000e20f5000030032001e009000e30f50004c
:104f000004003a003e009000ea0007003e009000d6
:104f10001a0107000080fa00000006001000fa00e5
:104f2000881f780050079800610798007207980062
:104f30000000eb00000f78006000b8001007980038
:104f4000210798000000eb004007980000c2b30062
:104f5000b4e9b70018c0b3006011b8005e0090005b
:104f6000ee009000c50307000000e00001003500de
:104f70000044eb000804e000070032005e009000ef
:104f8000ee00900001f0a200500798006107980021
:104f9000d0c2b300b4e9b70018c0b300f2ff2300d9
:104fa000c36124005e009000ee009000b50307008e
:104fb0000000e00001003c000044eb000804e000b9
:104fc00006003200f0ff2300c16124005007980062
:104fd00061079800f0c3b300b4e9b70002002000f5
:104fe000a34724005e009000ee00900061030700dc
:104ff00010079800210798001e0fe8001e003700d8
:105000001e007800e50f500003003a00e0c2b30034
:10501000b9e9b7001e0fe8001e009000ae00900036
:105020009a030700400798004e0090000040780067
:105030000043b00080407800409b20001e004000ec
:10504000014878001e0fe8004e009000cf80de007f
:10505000ca0307000001be001e009000ae009000d1
:10506000e602070002002000031224001b040700d0
:1050700010079800210798001e007800e80f5000e4
:10508000dfff34000000eb00000f7800100020006c
:105090003007980080003700409b20001e00400031
:1050a0009040780000c3b30080cf50002f003a003a
:1050b0003e0090000000e0002c003200904d800087
:1050c0000000e00027003200711080000020200066
:1050d000008060000000e00006003a007e009000c2
:1050e000e10f500003003a00000220008010880009
:1050f0001e0fe800c110800000202000008060002a
:105100000000e00006003a007e009000e20f500030
:1051100003003a0000022000d01088001e0fe800b3
:105120007e009000e30f500046003a00f14d8000f1
:10513000c0022000808f500003003c00f04d800032
:105140000000e800f04d8800f14d8000009c200038
:105150000080400001c2b300014878001e0fe80043
:10516000390037001e0fe80037003700711080004b
:1051700000202000008060000000e00009003a00ec
:105180007e009000e10f500006003a00409b200096
:105190001e004000104078000000fb0080108800d6
:1051a0001e0fe800c1108000002020000080600079
:1051b0000000e00009003a007e009000e20f50007d
:1051c00006003a00409b20001e004000104078007e
:1051d0000000fb00d01088001e0fe8007e00900049
:1051e000e30f50000f003a00f14d8000c002200094
:1051f000808f500003003c00f04d80000000e8006c
:10520000f04d8800f24d8000409b20001e004000c1
:1052100090407800009c2000000041000148780088
:105220001e0fe8007e0090000000e00006003a003b
:10523000a001200019fa07000000eb00000f780021
:105240001800370000000000409b20001e004000b6
:105250009040780000c3b30080cf50000e003200b1
:10526000409b20001e00400090407800d0c2b30058
:1052700080cf500008003200409b20001e004000fc
:105280009040780000c2b30080cf5000020032008e
:105290000000eb00300798001e007800e80f500077
:1052a0007dff3400b229ef004f0478000080fa003f
:1052b000000006000200fa00000f7800010037002d
:1052c00000000000711080000020200000806000bd
:1052d0000000e00006003a001e007800e10f5000d8
:1052e00003003a00a0002000801088002100370051
:1052f000c110800000202000008060000000e0005d
:1053000006003a001e007800e20f500003003a0049
:10531000a0002000d0108800160037001e00780082
:10532000e30f50000d003a00f14d8000c002200054
:10533000808f500003003c00f04d80000000e8002a
:10534000f04d8800f14d8000009c2000008040005e
:10535000a1c0b30001487800060037001e007800a5
:105360000000e000d6ff3a00a0012000cbf90700c2
:10537000000000000080fa00000006000200fa00b1
:10538000000f78000100370000000000711080005d
:1053900000202000008060000000e00006003a00cd
:1053a0001e007800e10f500003003a00d0002000fa
:1053b0008010880021003700c110800000202000ec
:1053c000008060000000e00006003a001e00780047
:1053d000e20f500003003a00d0002000d0108800f7
:1053e000160037001e007800e30f50000d003a0051
:1053f000f14d8000c0022000808f500003003c006f
:10540000f04d80000000e800f04d8800f14d800074
:10541000009c200000804000d1c0b300014878000b
:10542000060037001e0078000000e000d6ff3a00ba
:10543000a001200099f90700000000000080fa0098
:10544000000006001200fa0050079800610798005b
:1054500072079800030f980002402200439724002f
:105460007e0090008e0890001c030700008fbe0095
:105470005e019000ee0190001e00be003d0207009c
:1054800002002000031824003a0207000200200056
:1054900003f82300d901070020079800310798007e
:1054a0002e009000be00900099020700400798006f
:1054b0004e0090000080fa00000006000000fa0094
:1054c0007056240000408800000020008134240031
:1054d00010408800214088000000200001182400ae
:1054e000304088004140880040b42800c1e62b00cd
:1054f00050408800614088006066260061f6230005
:105500007040880081408800c01e2500c12624000c
:1055100090408800a140880030332300b126240049
:10552000b0408800c1408800d0cc2c00c1212400ac
:10553000d0408800e140880000002000c120240005
:10554000f040880001418800000020000100240094
:10555000104188002141880000002000010a240039
:1055600030418800414188000000200001f0230004
:10557000504188006141880000002000011b240088
:10558000704188008141880000002000011f240034
:1055900090418800a141880000002000811c240067
:1055a000b0418800c14188000000200001122400a1
:1055b000d0418800e141880000002000011724004c
:1055c000f0418800014288000000200001222400f0
:1055d000104288002142880000002000c1202400e1
:1055e000304288004142880000002000811c2400d5
:1055f00050428800614288006000b8007042880014
:10560000814288000000200001122400904288009e
:10561000a142880000002000c1252400b04288007b
:10562000c14288000000200081242400d04288006c
:10563000e14288000000200001172400f0428800a9
:105640000143880000002000012724001043880047
:105650002143880000002000012a240030438800f4
:10566000414388000000200081242400504388002a
:105670006143880000002000011f2400704388005f
:10568000814388000000200081242400904388008a
:10569000a143880060ba290041c42300b0438800b8
:1056a000c1438800d0cc2c00c1d42300d043880053
:1056b000e143880080072000f04388000080fa0062
:1056c000000006000000fa00889fbe00113a80002a
:1056d000f08f2f00008060000080a000103a88004a
:1056e0004207a8004227a90010ff2f00901688004b
:1056f000d622ef00d442a800f0082000301688001f
:10570000ca22ef00cc22ef00d022ef00f0fe2f00e3
:10571000c0168800dc22ef00e0fb2f00f0168800a6
:10572000e222ef0060002000000e8800c221ef009e
:1057300010032000200e8800c621ef00b00f2000cb
:10574000400e8800ca21ef0010182800600e880063
:10575000d021ef0000f02f00a00e8800d621ef002e
