:020000040000fa
:080000000001040000000000f3
:020000040000fa
:04000800362f00008f
:020000040000fa
:04000c00620d000081
:020000040000fa
:04001000a80d000037
:020000040000fa
:04001400d00d00000b
:020000040000fa
:04001800f80d0000df
:020000040000fa
:04001c00362f00007b
:020000040000fa
:04002000362f000077
:020000040000fa
:04002400200e0000aa
:020000040000fa
:04002800c80100000b
:020000040000fa
:04002c00362f00006b
:020000040000fa
:04003000362f000067
:020000040000fa
:04003400ae06000014
:020000040000fa
:04003800362f00005f
:020000040000fa
:04003c00362f00005b
:020000040000fa
:04004000dc0a0000d6
:020000040000fa
:040044002c03000089
:020000040000fa
:04004800362f00004f
:020000040000fa
:04004c00e2050000c9
:020000040000fa
:040050002606000080
:020000040000fa
:040054008c03000019
:020000040000fa
:04005800362f00003f
:020000040000fa
:04005c00362f00003b
:020000040000fa
:04006000362f000037
:020000040000fa
:04006400362f000033
:020000040000fa
:04006800d6020000bc
:020000040000fa
:04006c00362f00002b
:020000040000fa
:04007000362f000027
:020000040000fa
:04007400362f000023
:020000040000fa
:04007800362f00001f
:020000040000fa
:04007c00420300003b
:020000040000fa
:04008000362f000017
:020000040000fa
:04008400362f000013
:020000040000fa
:04008800040600006a
:020000040000fa
:04008c006806000002
:020000040000fa
:04009000362f000007
:020000040000fa
:04009400362f000003
:020000040000fa
:04009800362f0000ff
:020000040000fa
:04009c00362f0000fb
:020000040000fa
:0400a000362f0000f7
:020000040000fa
:0400a400362f0000f3
:020000040000fa
:0400a800362f0000ef
:020000040000fa
:0400ac00362f0000eb
:020000040000fa
:0400b000362f0000e7
:020000040000fa
:0400b400362f0000e3
:020000040000fa
:0400b800362f0000df
:020000040000fa
:0400bc00362f0000db
:020000040000fa
:0400c000362f0000d7
:020000040000fa
:0400c400362f0000d3
:020000040000fa
:0400c800362f0000cf
:020000040000fa
:0400cc00362f0000cb
:020000040000fa
:0400d000362f0000c7
:020000040000fa
:0400d4003a0d0000e1
:020000040000fa
:0400d800362f0000bf
:020000040000fa
:04010800362f00008e
:020000040000fa
:04010c00362f00008a
:020000040000fa
:04011000362f000086
:020000040000fa
:04011400362f000082
:020000040000fa
:04011800362f00007e
:020000040000fa
:04011c00362f00007a
:020000040000fa
:04012000362f000076
:020000040000fa
:04012400362f000072
:020000040000fa
:04012800362f00006e
:020000040000fa
:04012c00362f00006a
:020000040000fa
:04013000362f000066
:020000040000fa
:04013400362f000062
:020000040000fa
:04013800362f00005e
:020000040000fa
:04013c00362f00005a
:020000040000fa
:04014000362f000056
:020000040000fa
:04014400362f000052
:020000040000fa
:04014800362f00004e
:020000040000fa
:04014c00362f00004a
:020000040000fa
:04015000362f000046
:020000040000fa
:04015400362f000042
:020000040000fa
:04015800362f00003e
:020000040000fa
:04015c00362f00003a
:020000040000fa
:04016000362f000036
:020000040000fa
:04016400362f000032
:020000040000fa
:04016800362f00002e
:020000040000fa
:04016c00362f00002a
:020000040000fa
:04017000362f000026
:020000040000fa
:04017400362f000022
:020000040000fa
:04017800362f00001e
:020000040000fa
:04017c00362f00001a
:020000040000fa
:04018000362f000016
:020000040000fa
:04018400362f000012
:020000040000fa
:04018800362f00000e
:020000040000fa
:04018c00362f00000a
:020000040000fa
:04019000362f000006
:020000040000fa
:04019400362f000002
:020000040000fa
:04019800362f0000fe
:020000040000fa
:04019c00362f0000fa
:020000040000fa
:0401a000362f0000f6
:020000040000fa
:0401a400362f0000f2
:020000040000fa
:0401a800362f0000ee
:020000040000fa
:0401ac00362f0000ea
:020000040000fa
:0401b000362f0000e6
:020000040000fa
:0401b400362f0000e2
:020000040000fa
:0401b800362f0000de
:020000040000fa
:0401bc00362f0000da
:020000040000fa
:0401c000362f0000d6
:020000040000fa
:0401c400362f0000d2
:020000040000fa
:0401c800362f0000ce
:020000040000fa
:0401cc00362f0000ca
:020000040000fa
:0401d000362f0000c6
:020000040000fa
:0401d400362f0000c2
:020000040000fa
:0401d800362f0000be
:020000040000fa
:10020000cfab20000ebf20000e01880000000000d0
:10021000000020000000e000020032000001200089
:100220002002880014000700121707000000e000f9
:1002300003003a006057230001002000020037004d
:100240000000200001002000810f7000010032003a
:1002500014000700000020000000e000020032004f
:100260000000020000000000022f02000000000059
:100270000040da000000fe004440a900e02a20000f
:100280000000e0000300320000002000a001880010
:100290004440a800000006008a1f78008b1f7800e9
:1002a0000000060091018800800478000000eb0047
:1002b0001a003700e284440032a0b4009905ba0065
:1002c000e284440032a0b4009906ba00e2844400fb
:1002d00032a0b4000006eb00476fde00fd07b2005d
:1002e000636ce10003003a00ebff07000000eb0045
:1002f0000a003700606ce10004003a00005deb008a
:100300008b05e900fdff3e00040037006168e10055
:10031000010032000086eb000b00070019c7ba008d
:100320001905ba000e04e00003003a000a00e000dc
:10033000e0ff3a0000000600fe07b2009e018800c0
:100340008a047800f5ff3700395dba008b05e900b3
:100350000c003200295dba008b05e900080032006c
:100360000c00e00003003a00e284440032a0b40034
:10037000f5ff370019ddba008b05e900faff3a00f6
:100380008904e800e184440032a0b40000000600c3
:100390003600f800809fbe00829fbe00849fbe0092
:1003a000869fbe00881f78000000fa00c8c2a8001f
:1003b0006000b800b0478800c147880070408000e6
:1003c0008140800018c0b3000200200003f8230021
:1003d0004b1707000000e00001003c000044eb0068
:1003e0000804e000080032001421ef0000002000a3
:1003f00001f8230070408800814088007b150700c9
:10040000c0012000c10a07007040800081408000c8
:100410006011b800381707000000e00005003a003e
:10042000b0408000c14080002047880031478800ec
:100430002629ef00904b8000e10f50001e00320093
:1004400010458000e90f50001b003c001045800063
:100450000000e800104588001000200030498800a6
:10046000b4408000c5408000d0408000e140800062
:100470000001be000400be007f1607000002be009f
:1004800070408000814080000001be000400be007a
:10049000b11707000002be00d0408000e14080009c
:1004a0000001be000400be0074160700204788004b
:1004b000314788000c003700904b8000e10f50005e
:1004c0000900320010458000e90f5000060034009a
:1004d000a228ef002629ef00b0408000c140800034
:1004e000204788003147880090478000e20f500085
:1004f0001600320000178000620060000000e0007b
:1005000012003200704b80000000e0000f003a0043
:10051000904b80000000e0000c003a00604b80002f
:100520000000e00009003a0010002000504b880055
:1005300090478000e50f50000200320010002000bc
:100540009047880010002000904b88000017800022
:10055000620060000000e00009003200704b800083
:100560000000e00006003a006000b8004045880046
:10057000514588006000b8006045880071458800da
:1005800010002000504c88008400a9000080fa0070
:100590004f0478004f03be004f02be004f01be0063
:1005a0004f00be003600f900004006003600f8009b
:1005b000809fbe00829fbe00849fbe00869fbe00bb
:1005c000889fbe000000fa00c8c2a8005008800042
:1005d0008000eb000b170700604988007149880014
:1005e0000a21ef00804980000000e0000f00320087
:1005f000b8438000c9438000604980007149800091
:1006000002f02f00f3772400791607000001be00e6
:100610000800be00761607000200200013562400d2
:100620004d170700404988005149880010002000fc
:10063000804988008600a9000080fa004f04be00af
:100640004f03be004f02be004f01be004f00be0070
:100650003600f90000400600809fbe000000fa004e
:10066000c8c2a8006000b80040498800514988000d
:100670003029ef0084e0a9000080fa004f00be009e
:10068000004006003600f800809fbe00829fbe003a
:10069000849fbe00869fbe000000fa00c8c2a8006a
:1006a000e61407000000e00009003200b81307005c
:1006b00020548000e40f500002003400730507004e
:1006c00003003700205480000000e8002054880018
:1006d0001154800080702000808f500003003a0089
:1006e000f3140700822aef00030037001054800043
:1006f0000000e8001054880086a0a9000080fa00dd
:100700004f03be004f02be004f01be004f00be00af
:100710003600f900004006003600f800809fbe0059
:10072000829fbe00849fbe00869fbe000000fa002c
:10073000c8c2a800f0498000e70f5000c70034008d
:10074000204a8000314a800002002000031024006b
:1007500027160700204a8800314a8800204a800076
:10076000314a80000200200003702400c2150700f7
:10077000204a8800314a8800204a8000314a80009f
:10078000020020000370240019160700204a880088
:10079000314a8800204a8000314a8000020020004f
:1007a00003022400ec160700204a8800314a880022
:1007b000204a8000314a8000a2702d0033d22300ed
:1007c0000b1607000002be007047800081478000c2
:1007d0000001be000400be00a8150700d048880034
:1007e000e1488800b10a07006000b800204a88008c
:1007f000314a8800004a8000114a800002c02c0063
:10080000c37c2400fa150700004a8800114a8800ba
:10081000044a8000154a8000e0458000f1458000d0
:100820000001be000400be00f11507000002be007a
:1008300050408000614080000001be000400be0006
:100840008e15070070488800814888006000b80055
:10085000004a8800114a8800404a8000514a8000be
:1008600002c02c00c37c2400e1150700404a880028
:10087000514a8800404a8000514a8000f2282c00ea
:1008800053ef23007c150700404a8800514a880036
:10089000404a8000514a800042722900f3c7230079
:1008a000d315070010488800214888006000b80070
:1008b000404a8800514a8800604a8000714a80009e
:1008c00002c02c00c37c2400c9150700604a8800c0
:1008d000714a8800604a8000714a8000f2282c002a
:1008e00053ef230064150700604a8800714a8800ae
:1008f000604a8000714a800042722900f3c72300d9
:10090000bb15070050488800614888006000b800a7
:10091000604a8800714a8800804a8000914a8000bd
:1009200002c02c00c37c2400b1150700804a880057
:10093000914a8800804a8000914a8000f2282c0069
:1009400053ef23004c150700804a8800914a880025
:10095000804a8000914a800042722900f3c7230038
:10096000a315070030488800414888006000b8009f
:10097000804a8800914a88003048800041488000c1
:1009800050488800614888003e29ef00f1548000fb
:10099000f05f2500808f500007003200404b800040
:1009a000e10f500004003a00604b80000000e000be
:1009b00001003a00ed090700e04980000000e00076
:1009c00017003a00604b80000000e00014003a007d
:1009d0006109070090478000e20f500003003c00cf
:1009e000904780000000e00008003a00a049800025
:1009f000e10f500005003a00504b8000e50f500019
:100a000002003a00ee05070008003700a049800008
:100a10000000e00004003a006c0a07000300370001
:100a20006a0a07000100370000000000a0498000aa
:100a30000000e00006003a00404b8000e10f50004b
:100a400003003a00a1e2a9006829ef005500370031
:100a500010002000404b880052003700404b8000bf
:100a6000e10f50003d003a00001480008000eb00d0
:100a7000e41507000002be00004a8000114a800011
:100a80000001be000400be00fc140700004a8800fc
:100a9000114a8800101480008000eb00d91507006f
:100aa0000002be00204a8000314a80000001be00e2
:100ab0000400be00f1140700204a8800314a880073
:100ac000201480008000eb00ce1507000002be005d
:100ad000404a8000514a80000001be000400be0070
:100ae000e6140700404a8800514a8800301480000c
:100af0008000eb00c31507000002be00604a8000c2
:100b0000714a80000001be000400be00db14070033
:100b1000604a8800714a8800401480008000eb0021
:100b2000b81507000002be00804a8000914a80008c
:100b30000001be000400be00d0140700804a8800f7
:100b4000914a8800f1548000f05f2500808f5000aa
:100b500011003200b70407000f0037006000b80032
:100b6000004a8800114a88006000b800204a8800c6
:100b7000314a88006000b800404a8800514a880025
:100b80006000b800604a8800714a88006000b800c0
:100b9000804a8800914a8800f04980000000e800ff
:100ba000f04988008560a9000080fa004f03be006c
:100bb0004f02be004f01be004f00be003600f900dc
:100bc000004006003600f800809fbe00829fbe00f5
:100bd000849fbe00869fbe000000fa00c8c2a80025
:100be0000000eb00df1007008520a9000080fa005c
:100bf0004f03be004f02be004f01be004f00be00bb
:100c00003600f900004006003600f800809fbe0064
:100c1000829fbe00849fbe00869fbe000000fa0037
:100c2000c8c2a80010002000ce1007008700a9004d
:100c30000080fa004f03be004f02be004f01be000d
:100c40004f00be003600f90000400600809fbe0045
:100c50000000fa00c8c2a80009003700214f800038
:100c6000809e200000804000104078000000fb00c3
:100c700080108800204f80000000e800204f88008e
:100c80007110800000202000008060000000e00063
:100c900004003a00214f8000004f8000808f5000f8
:100ca000eeff3500214f8000004f8000808f500004
:100cb00003003500e429ef00e029ef00642aef008b
:100cc0008540a9000080fa004f00be0000400600e9
:100cd000809fbe000000fa00c8c2a8000b003700c9
:100ce000304f80002103200080804000809e200043
:100cf00000804000104078000000fb00d010880009
:100d0000304f80000000e800304f8800c1108000a4
:100d100000202000008060000000e00004003a0095
:100d2000314f8000104f8000808f5000ecff350065
:100d3000314f8000104f8000808f5000030035003d
:100d4000e629ef00e229ef00662aef008720a900dc
:100d50000080fa004f00be00004006003600f80098
:100d6000809fbe00829fbe00849fbe00869fbe0003
:100d7000889fbe008a1f78000200fa00c8c2a8003f
:100d8000a1e2a800a04980000000e00006003200b7
:100d9000f0438000604c8800b0032000205588009c
:100da000d442a80012003700205580000000e00067
:100db0000c003c00b003200020558800604c8000ef
:100dc0000000e00003003c0010002000e049880023
:100dd00007003700604c80000000e900604c88008c
:100de00003003700205580000000e90020558800ee
:100df000004980000000e0000e00340090418000b7
:100e0000a1418000124980002349800018c0b3002e
:100e1000bb1407000000e00001003c000044eb00b0
:100e20000804e00003003200004980000000e900ef
:100e300000498800d116800000102000008060006a
:100e40000000e00003003a00c882a9009629ef00e4
:100e50007829ef00a04980000000e0002300320064
:100e60007043800081438000124880002348800046
:100e700018c0b300a01407000000e0000100350016
:100e80000044eb000804e00016003a0050438000e4
:100e900061438000324880004348800018c0b3009e
:100ea000951407000000e000010035000044eb004d
:100eb0000804e0000b003a005043800061438000ca
:100ec000524880006348800018c0b3008a140700ad
:100ed0000000e000010035000044eb000804e000e1
:100ee00002003200e002a80037003700a04980006d
:100ef0000000e00033003200704380008143800036
:100f000002002000030a2400db1307000002be00d9
:100f1000104880002148800018c0b3000001be00c6
:100f20000400be00761407000000e00001003c0051
:100f30000044eb000804e00023003200504380002e
:100f40006143800002002000030a2400ca13070046
:100f50000002be00304880004148800018c0b30045
:100f60000001be000400be00651407000000e000a0
:100f700001003c000044eb000804e00012003200d5
:100f8000504380006143800002002000030a2400d7
:100f9000b91307000002be0050488000614880007d
:100fa00018c0b3000001be000400be0054140700c6
:100fb0000000e00001003c000044eb000804e000f9
:100fc00001003200e002a90052030700d1168000a0
:100fd00000102000008060000000e0000f003a00d8
:100fe00000178000620060000000e0000b0032008b
:100ff000904980000000e00008003a00704b80003b
:101000000000e00005003a00a04b80000000e00076
:1010100002003a0010002000a04b8800b049800078
:101020000000e0000d003200804b8000e10f500016
:1010300003003a007029ef00c8a2a9000800370099
:1010400010002000804b8800b04480000000e000c9
:1010500003003200c8a2a80001003700c8a2a900fe
:10106000b04b80000000e0000a003a00504b8000c6
:101070000000e00007003a0010002000504b8800fc
:10108000100020009049880010002000b04b88001c
:1010900060003700b04b8000e70f500004003c00b8
:1010a000b04b80000000e800b04b880059003700ca
:1010b000b04b8000e80f500056003a00f048800026
:1010c000e10f500053003a00704c80000000e8002f
:1010d0003512070041652700810f50002e003a00ad
:1010e000d8448000e94480002045800031458000dc
:1010f000b2488000c34880005f1307000200200050
:10110000832c2400ba1307000001be000800be00b3
:1011100091140700fc130700000f78008845800039
:10112000994580001e007800cf80de003214070051
:101130000001be000800be004f1307008045880074
:1011400091458800f8448000094580001e00780021
:10115000cf80de00281407000001be000800be009a
:1011600045130700f0448800014588004845800089
:10117000594580001e007800cf80de001e14070055
:101180000001be000800be003b1307004045880078
:101190005145880010003700704180008141800077
:1011a000d0448800e1448800784180008941800073
:1011b000b0488000c148800002002000832c240039
:1011c0008b1307000001be000800be006214070078
:1011d000804588009145880090002000b04b880031
:1011e0003229ef008400a900ff3ffc008c00a8001a
:1011f000d116800000102000008060000000e00098
:1012000004003200504c80000000e00001003a0071
:101210008400a80077030700404580005145800006
:1012200018c0b3006011b800b31307000000e0005d
:10123000010035000044eb000804e0000600320025
:10124000404580005145800001f0a200f044880034
:10125000014588000400370040458000514580006a
:10126000f044880001458800b0488000c1488000f3
:1012700018c0b30002002000632c2400a013070054
:101280000000e00001003c000044eb000804e00026
:101290001000320000558000e40f50000d003200b5
:1012a000d0448000e144800080458800914588005a
:1012b00040002000005588006000b80040458800cc
:1012c000514588006000b80060458800714588007d
:1012d00048003700b0488000c148800018c0b30003
:1012e00002002000632a2400831307000000e000ae
:1012f000010035000044eb000804e0001e0032004d
:10130000b0488000c148800018c0b300020020002f
:10131000232a24007a1307000000e00001003c00ab
:101320000044eb000804e000130032000055800088
:10133000e40f500003003200005580000000e00080
:101340000d003a00f044800001458000d044880040
:10135000e1448800d0448000e14480000001be00e8
:10136000c6120700d0448800e14488002000200015
:10137000005588001f003700b0488000c148800039
:1013800018c0b3000200200003f823005a1307001e
:101390000000e000010035000044eb000804e0001c
:1013a00014003200005580000000e00011003200ff
:1013b000f044800001458000d0448800e14488006a
:1013c0006000b80080458800914588006000b80042
:1013d000a0458800b1458800a02aef006000b80051
:1013e00040458800514588006000b800604588008d
:1013f00071458800804580009145800018c0b30089
:101400006011b8003c1307000000e0000100350047
:101410000044eb000804e000060032006000b80061
:1014200080458800914588006000b800a04588008c
:10143000b14588008845800099458000d0448000ef
:10144000e1448000a2702d0033ba23008b12070004
:101450001ac0b3000001be000800be002813070038
:101460000000e00001003c000045eb000a04e00041
:1014700007003200d0448000e1448000a2702d00bb
:1014800033ba23007d12070080458800914588000b
:101490007440800085408000b0408000c1408000e2
:1014a0000001be000400be00ab1307000002be0036
:1014b000704880008148800018c0b3000001be0061
:1014c0000400be000e1307000000e00001003c0015
:1014d0000044eb000804e0001e00320030498000a8
:1014e0000000e0001b003200884580009945800024
:1014f000d4448000e544800070408000814080003a
:101500000001be000400be00931307001ac0b30020
:101510000001be000800be00f91207000000e00054
:1015200001003c000045eb000a04e0000900320025
:10153000d4448000e54480007040800081408000f9
:101540000001be000400be00831307008045880030
:1015500091458800a04980000000e0000c003a009e
:101560008845800099458000d0438000e143800099
:101570003284290013992300771307000001be006d
:101580000800be003c120700804588009145880095
:101590008460a9000080fa004f0578004f04be0067
:1015a0004f03be004f02be004f01be004f00be0001
:1015b0003600f900004006003600f800809fbe00ab
:1015c000829fbe00849fbe00869fbe00889fbe0093
:1015d0000400fa00c8c2a8006000b800008fbe0076
:1015e000e05480000000e00006003400e054800079
:1015f000e30f500003003200e05480000000e900d7
:10160000e0548800d05480000000e0000600340060
:10161000d0548000e30f500003003200d05480000b
:101620000000e900d0548800c05480000000e000b1
:1016300006003400c0548000e30f50000300320065
:10164000c05480000000e900c0548800a04a800017
:10165000e70f500011003400004b8000114b800058
:10166000020020000310240061120700004b8800d4
:10167000114b8800004b8000114b8000c04a88004d
:10168000d14a88006000b800004b8800114b8800e8
:101690005429ef00a40207000c003700044b80001f
:1016a000154b8000d0488000e14880000001be005a
:1016b0000400be00f1110700004b8800114b8800a8
:1016c000a04a80000000e800a04a8800b04a8000dc
:1016d000e70f500010003400204b8000314b800099
:1016e000020020000310240041120700204b880054
:1016f000314b8800204b8000314b8000e04a88004d
:10170000f14a88006000b800204b8800314b880007
:101710005629ef000c003700244b8000354b800029
:1017200070488000814880000001be000400be00b7
:10173000d2110700204b8800314b8800b04a80004e
:101740000000e800b04a8800c44a8000d54a800002
:10175000e04a8000f14a80000001be000400be00a3
:10176000fd120700008fbe0018c0b3006011b80062
:101770001e00be00601207000000e00001003500fe
:101780000044eb000804e000030032001e00be002d
:1017900001f0a200008fbe00b0478000c14780006a
:1017a00018c0b3000001be001e00be0054120700a6
:1017b0000000e00001003c000044eb000804e000f1
:1017c0000b0032001e01be00b2478800c3478800ec
:1017d000e04a8000f14a8000d0478800e147880055
:1017e000c04a8000d14a8000f04788000148880044
:1017f000d0488000e148800018c0b300f2262100e4
:1018000033b023003e1207000000e00001003c005e
:101810000044eb000804e0000b003a00d0488000d0
:10182000e148800018c0b300f226210033b02b003d
:10183000311207000000e000010035000044eb0019
:101840000804e0008200320068458000794580008d
:101850004454800055548000d0488000e148800006
:101860000001be000400be00bb1207000001be0064
:101870000800be008111070060458800714588009e
:10188000a8458000b945800044548000555480002c
:10189000d0488000e14880000001be000400be0086
:1018a000ad1207000001be000800be007311070062
:1018b000a0458800b14588006045800071458000e2
:1018c00018c0b300f226210033a823000c12070031
:1018d0000000e00001003c000044eb000804e000d0
:1018e0000f0032006045800071458000f226210023
:1018f00033a8230060110700604588007145880007
:101900004045800051458000f226210033a8230085
:101910005a110700404588005145880019003700da
:10192000604580007145800018c0b300f226210098
:1019300033a82b00f01107000000e0000100350083
:101940000044eb000804e0000e0032006045800017
:1019500071458000f226210033a8230047110700bb
:1019600060458800714588004045800051458000f1
:10197000f226210033a823003f11070040458800cc
:1019800051458800a0458000b145800018c0b300d3
:10199000f226210033a82300d91107000000e0003f
:1019a00001003c000044eb000804e0000f0032009e
:1019b000a0458000b1458000f226210033a8230015
:1019c0002d110700a0458800b145880080458000a2
:1019d00091458000f226210033a82300271107003b
:1019e000804588009145880019003700a045800097
:1019f000b145800018c0b300f226210033a82b00a7
:101a0000bd1107000000e000010035000044eb00bc
:101a10000804e0000e003200a0458000b1458000bf
:101a2000f226210033a8230014110700a0458800e6
:101a3000b14588008045800091458000f226210054
:101a400033a823000c1107008045880091458800c9
:101a500084c0a9000080fa004f04be004f03be00fe
:101a60004f02be004f01be004f00be003600f9001d
:101a7000004006003600f800809fbe00829fbe0036
:101a8000849fbe00869fbe000000fa00c8c2a80066
:101a90004e06070010002000604b8800c0002000a8
:101aa0001a0507008960a9000080fa004f03be00f4
:101ab0004f02be004f01be004f00be003600f900cd
:101ac000004006003600f800809fbe00829fbe00e6
:101ad000849fbe00869fbe000000fa00113a80007d
:101ae00000022000008060000000e00005003a00d5
:101af000e04b80000000e00002003a0020012000de
:101b000002050700c8c2a800300607001000200028
:101b1000604b8800e04b80000000e00002003a00cb
:101b2000d0002000f904070010002000e04b8800de
:101b30008020a9000080fa004f03be004f02be00c3
:101b40004f01be004f00be003600f9000040060005
:101b50003600f800809fbe00829fbe00849fbe00ba
:101b6000869fbe000000fa00c8c2a8001706070042
:101b700010002000604b8800e0002000e304070014
:101b80008060a9000080fa004f03be004f02be0033
:101b90004f01be004f00be003600f90000400600b5
:101ba0003600f800809fbe00829fbe00849fbe006a
:101bb000869fbe000000fa00c8c2a8000306070006
:101bc00010002000604b8800f0002000cf040700c8
:101bd0008040a9000080fa004f03be004f02be0003
:101be0004f01be004f00be003600f9000040060065
:101bf0003600f800809fbe00829fbe00849fbe001a
:101c0000869fbe000000fa00c8c2a800ef050700ca
:101c100010002000604b880000012000bb0407007a
:101c20008080a9000080fa004f03be004f02be0072
:101c30004f01be004f00be003600f9000040060014
:101c40003600f800809fbe00829fbe00849fbe00c9
:101c5000869fbe000000fa00c8c2a800db0507008e
:101c600010002000604b880010012000a70407002e
:101c70000080fa004f03be004f02be004f01be00bd
:101c80004f00be003600f900004006000000fa00d8
:101c9000c30507009f0a0700c8a2a800c8a2a800a1
:101ca000c8c2a9000140fe00fdff37000000fa0095
:101cb000b0488000c1488000204588003145880038
:101cc000780e0700d442a9000080fa000000060048
:101cd0000000fa0003003700d04b80000000e8004d
:101ce000d04b8800d04b8000e30f4000faff360055
:101cf0003154800050a52a00808f500001003a0026
:101d00008900070050a52a00305488000080fa009e
:101d1000000006000000fa00d1168000001020002c
:101d2000008060000000e0000d003a000017800015
:101d3000620060000000e00009003200904980006d
:101d4000e10f500006003200704b8000e10f5000a0
:101d500003003200904b8000e10f500023003a0056
:101d600010002000b0498800404c80000000e000d6
:101d700004003200304c800065004000304c880088
:101d80008829ef00a04b8000e10f500003003a00cb
:101d90006c29ef007c29ef007429ef00604b800074
:101da0000000e00007003a0010002000a049880071
:101db000c04980000000e00019003a00f409070063
:101dc0001a003700810507003429ef009829ef0039
:101dd0009629ef009429ef00d04980000000e00030
:101de00011003a00650a07001000370010002000bb
:101df000404c8800750507003629ef003429ef00b4
:101e00009829ef009629ef009429ef00d04980002f
:101e10000000e00005003a00580a07000300370000
:101e20000000000001003700000000000080fa0000
:101e3000000006000000fa0000148000e30f4000dc
:101e400003003600d00120003004070054050700cd
:101e500000148000e10f500003003e00e00120006c
:101e60002a0407004e05070010148000e30f40000d
:101e700003003600f0012000240407004805070095
:101e800010148000e10f500003003e00000220000b
:101e90001e0407004205070020148000e30f4000e5
:101ea0000400360010022000180407005000200033
:101eb0009047880020148000e10f500004003e008d
:101ec00020022000110407005000200090478800e5
:101ed00030148000e30f4000020036003002200082
:101ee0000a04070030148000e10f500002003e0099
:101ef000400220000504070040148000e30f40006a
:101f00000200360050022000000407004014800048
:101f1000e10f500002003e0060022000fb030700ba
:101f20000080fa00000006000000fa00003a80007d
:101f3000620060000000e000030032004027a900ba
:101f400030012000f1030700003a800070006000bb
:101f50000000e000030032004087a900400120009b
:101f6000ea030700013a80000000280000806000ba
:101f70000000e0000300320041e7a900500120000a
:101f8000e2030700013a80000000240000806000a6
:101f90000000e0000300320041c7a90060012000fa
:101fa000da030700013a800000082000008060008a
:101fb0000000e0000300320040e7a90070012000ab
:101fc000d2030700013a8000000420000080600076
:101fd0000000e0000300320040c7a900800120009b
:101fe000ca03070090012000c80307000080fa0020
:101ff000000006000000fa00889fbe00d04080006c
:10200000e140800002002000030024009a0f070036
:102010000002be00704880008148800018c0b300f4
:102020000001be000400be00351007000000e00003
:1020300001003d000044eb000804e0000400320011
:102040006000b800b0488800c148880033003700fd
:10205000d0488000e148800018c0b300d2cc2c00ea
:10206000c3d42300241007000000e0000100350065
:102070000044eb000804e00028003200d048800053
:10208000e148800018c0b300d2cc2c00c3d42b0090
:102090001b1007000000e00001003c000044eb00c2
:1020a0000804e0001d003200704880008148800074
:1020b00090488800a148880094488000a548800086
:1020c000d0408000e14080000001be000400be005e
:1020d000690f07000004be00b4408000c5408000c6
:1020e000d0408000e14080000001be000400be003e
:1020f000610f07000001be000800be00bc0f070012
:1021000002002000832c240093100700b0488800b0
:10211000c148880010002000f04888004f04be002d
:102120000080fa00000006000400fa006000b80019
:10213000008fbe00c04a8000d14a800001f0a2009a
:10214000008fbe00504b8000e40f50000f003a009b
:10215000d0438000e14380000001be001e00be00ad
:10216000450f070070478800814788005000200015
:10217000504b880090478000e50f5000020032006d
:1021800010002000904788003229ef00504b80005b
:10219000e10f500008003a006000b8007047880066
:1021a000814788008904070040002000504b8800c8
:1021b00010002000904988000080fa00000006000e
:1021c0002000fa00881f78006000b800008fbe0071
:1021d0006000b80020079800310798006000b80040
:1021e00040079800510798006000b8006007980009
:1021f00071079800d2488000e348800042079800a9
:1022000053079800d2488000e34880006207980096
:10221000730798000000200001f82300e0468800c2
:10222000f1468800d0428000e142800012488000e0
:102230002348800018c0b300af0f07000000e00083
:10224000010035000044eb000804e0000b003a00f8
:1022500090428000a1428000124880002348800004
:1022600018c0b300a60f07000000e00001003c000a
:102270000044eb000804e00004003200d0cc2c0045
:10228000c1f42300e0468800f146880070428000d7
:1022900081428000124880002348800018c0b300ab
:1022a000970f07000000e00001003c000044eb0035
:1022b0000804e000040032000000200001f02300c8
:1022c000e0468800f14688001441800025418000e6
:1022d00080458000914580000001be000400be00e2
:1022e0001d1007000002be00e0468000f14680009d
:1022f0000001be000400be0017100700008fbe00e2
:10230000304180004141800018c0b3001e01be0072
:102310007b0f07000000e00001003c000044eb00e0
:102320000804e0000b003a00704280008142800007
:10233000124880002348800018c0b300700f0700c7
:102340000000e00001003c000044eb000804e00055
:10235000030032003041800041418000008fbe0008
:1023600018c0b3006011b8004e009000de0090006d
:10237000610f07000000e000010035000044eb00a1
:102380000804e000060032004e009000de009000dd
:1023900001f0a200400798005107980003003700a1
:1023a0006000b80040079800510798000000200026
:1023b00001f82300e0468800f146880030428000a2
:1023c00041428000124880002348800018c0b300ba
:1023d000490f07000000e000010035000044eb0059
:1023e0000804e0000b003a00f04180000142800048
:1023f000124880002348800018c0b300400f070037
:102400000000e00001003c000044eb000804e00094
:1024100004003200d0cc2c00c1f42300e046880038
:10242000f146880054418000654180007041800081
:10243000814180000001be000400be00c60f0700fd
:102440000002be00e0468000f14680000001be00b0
:102450000400be00c00f0700200798003107980055
:1024600010428000214280001248800023488000f2
:1024700018c0b300200f07000000e0000100350085
:102480000044eb000804e0000b003a00d04180005b
:10249000e1418000124880002348800018c0b3004a
:1024a000170f07000000e00001003c000044eb00b3
:1024b0000804e000030032006000b8002007980024
:1024c0003107980018c0b3006011b8006e0090008a
:1024d000fe009000080f07000000e000010035003a
:1024e0000044eb000804e000030032006000b80084
:1024f00060079800710798007229ef00d1168000dc
:1025000000102000008060000000e000ff003200aa
:10251000b04b8000e90f5000fc003a00c882a800d0
:10252000604b8000e10f500006003200e0c2a800be
:10253000e0548000e30f500002003a002000200029
:10254000e05488006000b800200f9800310f980018
:1025500020478000314780000200200003f0230064
:10256000450e0700200f9800310f9800c14b8000e6
:10257000f0e12400808f50001c003c006011b80086
:102580006e009000fe009000db0e07000000e000ef
:1025900016003a0000178000620060000000e000b2
:1025a00012003200704880008148800018c0b300db
:1025b0002e099000be099000cf0e07000000e00039
:1025c000010035000044eb000804e0000700320081
:1025d000e05480000000e00004003a00c04b80009e
:1025e0000000e800c04b880015003700c14b800098
:1025f000f0e12400808f50000b00340000178000b1
:10260000620060000000e00007003200b00120001e
:102610003e02070010002000604b88007829ef0080
:10262000e0c2a90006003700c04b80000000e000b7
:1026300003003400c04b80000000e900c04b88005c
:1026400018c0b300a2702d0033c223006e009000aa
:10265000fe009000aa0e07000000e00001003c0010
:102660000044eb000804e00011003a00204780001d
:1026700031478000a299290093e12300fe0d070055
:102680000002be00704880008148800018c0b3007e
:102690000001be000400be00970e07000000e0002d
:1026a000010034000044eb000804e00004003200a4
:1026b0005042800061428000ce0107000c003700cc
:1026c0006011b8006e009000fe0090008a0e0700b6
:1026d0000000e00006003a00c04c80000000e0006e
:1026e00003003400c04c80000000e900c04c8800aa
:1026f0006000b800000f9800110f9800204780007c
:1027000031478000d2cc2c00c3d42300db0d07005e
:102710000002be00704880008148800018c0b300ed
:102720000001be000400be00730e07000000e000c0
:10273000010035000044eb000804e0000200320014
:10274000f428ef0013003700204780003147800055
:10275000d2cc2c00c3d42300c70d07000002be005a
:10276000704880008148800018c0b3000001be009e
:102770000400be00620e07000000e00001003c0003
:102780000044eb000804e0000200320010002000ca
:10279000a0478800a04780000000e000050032004c
:1027a0002e019000be019000020f9800130f9800b8
:1027b000030037006000b800000f9800110f980068
:1027c00090478000e20f50004e003200e05480003d
:1027d0000000e0004b003a00b04c80000000e00038
:1027e00011003400b0408000c1408000a2702d0074
:1027f00033c22300a00d07000002be007048800015
:102800008148800018c0b3000001be000400be0073
:10281000390e07000000e000010034000044eb0026
:102820000804e0000e003a00a2702d0033c223001d
:102830000e0890009e089000900d070018c0b3008d
:102840006e019000fe0190002b0e07000000e000da
:10285000010035000044eb000804e00004003200f1
:10286000b04c80000000e900b04c88002300370025
:10287000b14c800040062000808f500011003c00c9
:10288000b0408000c140800092c22500f3d82300f0
:10289000790d07000002be0070488000814880006a
:1028a00018c0b3000001be000400be00140e0700f3
:1028b0000000e00001003c000044eb000804e000e0
:1028c0000b003a0018c0b3000e0990009e0990005a
:1028d0006e009000fe009000070e07000000e00070
:1028e000010035000044eb000804e0000300320062
:1028f000b04c80000000e800b04c880000000000f0
:10290000090037009629ef0007003700c882a900a8
:102910009629ef00d821ef00e0c2a9003000200086
:10292000e05488007829ef00001780006200600002
:102930000000e00003003200704b8000e10f500007
:1029400008013a00b04b8000e90f5000040032004b
:10295000f1548000f05f2500808f500001013a00a3
:10296000604b8000e10f500007003200d422a80025
:10297000c902a800d0548000e30f500002003a00c2
:1029800020002000d0548800d116800000102000c4
:10299000008060000000e00003003a00f042800088
:1029a0000143800013010700f1548000f05f25000f
:1029b000808f500003003a00904c8000a04c8800ab
:1029c000f5003700d05480000000e000f1003a002c
:1029d0006000b800400f9800510f98001448800024
:1029e00025488000b0428000c14280000001be0046
:1029f0000400be00200d0700400f9800510f980002
:102a0000a0548000b15480004e099000de0990006f
:102a1000510e07000002be002046800031468000b3
:102a20000001be000400be004b0e07000002be0005
:102a3000a0468000b14680000001be000400be0038
:102a40000e0d0700a0468800b1468800b040800007
:102a5000c1408000a2468000b346800018c0b30089
:102a6000a50d07000000e000010035000044eb0068
:102a70000804e00005003200b0408000c140800042
:102a8000a0468800b14688000f003700d040800083
:102a9000e1408000a2468000b346800018c0b30029
:102aa000970d07000000e00001003c000044eb002f
:102ab0000804e00004003200d0408000e1408000c3
:102ac000a0468800b14688006000b800600f9800fa
:102ad000710f98007448800085488000a0468000ef
:102ae000b14680000001be000400be00e20c0700f9
:102af000600f9800710f98008054800091548000fe
:102b00006e099000fe099000130e07000002be003f
:102b100020468000314680000001be000400be0057
:102b20000d0e07000002be00804680009146800026
:102b30000001be000400be00d00c070080468800e3
:102b400091468800804680009146800018c0b300fe
:102b50001e01be006a0d07000000e00001003c00fd
:102b60000044eb000804e000040032001e01be0037
:102b700082468800934688000d003700804680001a
:102b80009146800018c0b3006011b8005a0d0700cc
:102b90000000e000010035000044eb000804e00004
:102ba000030032006000b80080468800914688002b
:102bb000b0418000c1418000824680009346800081
:102bc00018c0b3004c0d07000000e0000100350004
:102bd0000044eb000804e00004003200b041800033
:102be000c141800080468800914688008046800070
:102bf000914680004e019000de0190009e0c07007f
:102c00000002be0060548000715480000001be00cc
:102c10000400be00d00d07004046880051468800e1
:102c2000404680005146800018c0b30002002400d6
:102c3000c3612400320d07000000e00001003c00e9
:102c40000044eb000804e00005003200000024000e
:102c5000c161240040468800514688000f003700bb
:102c6000404680005146800018c0b3000200240096
:102c7000c3612c00200d07000000e00001003500ba
:102c80000044eb000804e0000400320000002400cf
:102c9000c1612c00404688005146880024468000cf
:102ca0003546800040468000514680000001be004d
:102cb0000400be00a80d07000002be0060468000b0
:102cc000714680000001be000400be006b0c0700ce
:102cd000604688007146880060468000714680002a
:102ce00018c0b30002002000e32b2400040d0700ed
:102cf0000000e00001003c000044eb000804e0009c
:102d00000500320000002000e12b2400604688000e
:102d1000714688000d0037006046800071468000d3
:102d200018c0b3006011b800f30c07000000e00009
:102d3000010035000044eb000804e000030032000d
:102d40006000b800604688007146880060468000d8
:102d500071468000ec0c070000007800a04c880051
:102d60000d0037009429ef00da21ef00dc22ef009c
:102d7000c841a9006000b80060468800714688001c
:102d800030002000d0548800c902a900d422a90034
:102d90000100370000000000a04980000000e000b2
:102da00005003a009829ef00d621ef00cfe2a900f4
:102db00030002000c0548800604b8000e10f5000bc
:102dc00002003a008101070007003700c841a8004f
:102dd000c04c8000b00e8800b04c8000c00e88004f
:102de000a04c8000d00e88004f0478000080fa00cc
:102df000000006000400fa00881f7800008fbe0063
:102e000090478000e30f50003d003a000200200090
:102e100003f023001e00be00170c07000002be00d6
:102e2000104880002148800018c0b3000001be0097
:102e30000400be00b20c07000000e00001003c00ee
:102e40000044eb000804e00011003200c14c800097
:102e500060478000808f50000d003d00c05480000e
:102e60000000e00003003a00c04c80000000e800d1
:102e7000c04c8800cfe2a800c0548000e30f50008f
:102e80001f003a0020002000c05488001c003700ba
:102e90000200200003f023001e00be00f70b070015
:102ea0000002be00104880002148800018c0b30016
:102eb0000001be000400be008f0c07000000e0000f
:102ec000010035000044eb000804e0000c00320073
:102ed000c04c80000000e00009003400c04c8000bd
:102ee0000000e900c04c8800c04c80000000e000f9
:102ef00001003c00cfe2a90030002000c05488004f
:102f00004f0478000080fa00000006000200fa007a
:102f1000000f7800b0448000e90f50000a003c0028
:102f2000b04480000000e8008000400000882000dd
:102f3000008040001e087800b04480000000e800d7
:102f4000b044880002003700b0002000b044880080
:102f50000080fa00000006000400fa00881f7800d4
:102f600090478000e20f500065003a00a0498000c1
:102f7000e10f500062003a006000b800008fbe0010
:102f80007448800085488000d0488000e148800077
:102f90000001be000400be00ef0c070001f0a2001b
:102fa000008fbe0090438000a143800018c0b30092
:102fb0001e01be00520c07000000e00001003c00b2
:102fc0000044eb000804e00046003200cfe2a80015
:102fd000c05480000000e0003c003a0060478000e0
:102fe0000000e8006047880060478000b00e88005d
:102ff00061478000f0052000808f500008003400f9
:1030000010002000c1ff070040002000904788000a
:10301000cfe2a90030002000c0548800ec28ef0067
:103020006147800020032000808f50001200340090
:1030300018c0b30002002000030024001e00be00e0
:103040002d0c07000000e000010035000044eb00fb
:103050000804e0000800320020002000abff070059
:103060004000200090478800cfe2a90030002000f7
:10307000c0548800ec28ef0060478000e40f500047
:1030800012003c0018c0b30002002000031224000c
:103090001e00be001a0c07000000e00001003c000a
:1030a0000044eb000804e00008003200300020007b
:1030b00096ff07004000200090478800cfe2a9005b
:1030c00030002000c0548800ec28ef00c05480007d
:1030d000e30f50000a003a0020002000c05488008e
:1030e000070037003000200090478800d621ef000d
:1030f0003229ef00cfe2a90030002000c054880040
:1031000090478000e10f50000e003a00504b8000c5
:10311000e50f50000b003a00d621ef001c05070018
:10312000aa0007001000200090498800ec28ef005a
:103130009829ef00200020009047880030002000f0
:10314000c054880090478000e40f500004003a000b
:10315000d621ef00ec28ef009829ef003229ef008c
:103160004f0478000080fa00000006000000fa001a
:10317000881f780090408000a14080007248800045
:103180008348800018c0b300db0b07000000e0009c
:10319000010034000044eb000804e00003003200aa
:1031a0007000200059ff07007d000700f0408000fc
:1031b00001418000724880008348800018c0b3003d
:1031c000cf0b07000000e00001003c000044eb00d2
:1031d0000804e00008003200d11680000010200032
:1031e000008060000000e00003003a004000200082
:1031f00046ff07007505070010438000214380004b
:10320000124880002348800018c0b300ba0b0700a2
:103210000000e000010035000044eb000804e0007d
:10322000030032008000200038ff07005c00070028
:103230003043800041438000524880006348800052
:1032400018c0b300ac0b07000000e000010035001f
:103250000044eb000804e00003003200900020006e
:103260002aff07004e0007003043800041438000e2
:10327000324880004348800018c0b3009e0b07000e
:103280000000e000010035000044eb000804e0000d
:1032900003003200a00020001cff070040000700d0
:1032a0004f0478000080fa00000006000000fa00d9
:1032b000881f7800d0488000e148800018c0b30023
:1032c0006011b8008c0b07000000e0000100350021
:1032d0000044eb000804e00006003200d048800003
:1032e000e148800001f0a2001049880021498800cf
:1032f000030037006000b8001049880021498800a9
:1033000090418000a1418000124980002349800043
:1033100018c0b300780b07000000e0000100350082
:103320000044eb000804e0000a003200004980007d
:10333000e50f500004003400190007002029ef00b9
:1033400050002000f1fe0700004980000000e80066
:1033500000498800d4488000e5488000004780008c
:103360001147800018c0b3000001be000400be0079
:10337000630b07000000e00001003c000044eb008c
:103380000804e00003003200050007006000200090
:10339000defe07004f0478000080fa0000000600ff
:1033a0000000fa000900070010002000604b8800b0
:1033b0006e29ef003229ef007229ef00b0002000e3
:1033c000d2fe07000080fa00000006000000fa00ac
:1033d000da21ef00dc22ef00c841a900d621ef007e
:1033e000d821ef00d422a90030002000d05488005a
:1033f000e002a900e0c2a90030002000e0548800eb
:10340000cfe2a90030002000c0548800c902a90002
:103410009829ef009629ef009429ef006000b8008a
:1034200080468800914688006000b80060468800a9
:10343000714688000080fa00000006000600fa00cd
:10344000200798000040eb00004f78000000eb00e0
:10345000100798002e0090006f0060001007980081
:103460001e009000e90f500005003c001e00900077
:10347000004078000043b000004f7800040037009f
:103480001e009000004078007043b000004f7800ac
:103490001e4078000080fa00000006000200fa00da
:1034a000000f78001e007800e10f50000900340082
:1034b000a001200095fe07001e007800800040005b
:1034c00000a52000008040008000eb00010878008b
:1034d000110037001e0078008000400040a6200048
:1034e00000804000100078000000e0000900320079
:1034f0001e0078000000e00003003200800220007f
:1035000082fe070004003700700220007ffe0700e3
:1035100001003700000000000080fa0000000600f3
:103520000600fa00881f780010079800210798000d
:103530002e009000d9ff07009e00900000002f0091
:10354000008060004c00de00800078002e009000bb
:103550004301dd00209c20000000410001087800ac
:103560009e00900000f0200080806000001020008d
:1035700000017800110009008200d8008000780066
:103580002e0090004301dd00409c2000000041001f
:10359000010878009e009000000f200080806000ed
:1035a0000001200000017800110009008200d8000d
:1035b000800078002e0090004301dd00609c200018
:1035c00000004100010878001e009000ef0060003c
:1035d0002e0090004301dd00809c2000000041008f
:1035e000010878002e0090008000400080a6200096
:1035f0000080400011002000010878002e0090009b
:1036000080004000409e20000080400010017800b3
:10361000ae009000200320000088b9000000780070
:1036200082004000809e20000080400001c3b30063
:10363000014878002e00900080004000409e20004d
:1036400000804000100078008000e8002e0090000c
:1036500000014000409e2000000041000108780069
:103660002e00900080004000409e2000008040001e
:1036700010017800ae009000200320000088b900ff
:103680000000780082004000809e20000080400002
:1036900081c7b300014878002e00900080004000f0
:1036a000409e200000804000100078008000e8006c
:1036b0002e00900000014000409e200000004100cc
:1036c000010878000000eb00000f78002a003700a6
:1036d0002e00900080004000409e200000804000ae
:1036e000100478002e0090004200dd001e00400013
:1036f00080004000209c20000080400010007800e6
:103700004eff070000417800ae009000200320002b
:103710000088b9000000780088004000809e2000ea
:1037200000804000024878002e0090008000400099
:10373000409e2000008040009000780000032000a0
:10374000808f50000b003c002e0090008000400055
:10375000409e200000804000100078008000e800bb
:103760002e00900000014000409e2000000041001b
:10377000010878001e0fe8001e007800e30f5000db
:10378000d3ff34002e00900080004000409e2000b7
:1037900000804000900078002e0090000001400062
:1037a000009e200000004100010878002e009000db
:1037b0008000400080a62000008040008000eb00d8
:1037c000010878004f0478000080fa00000006002d
:1037d0000200fa00000f78001e0078008000400010
:1037e00040a6200000804000110020000108780061
:1037f0001e00780080004000409e200000804000b5
:103800008000eb00010878001e0078000000e00056
:10381000020032008720a800010037008540a80080
:103820000080fa00000006000400fa00000f780093
:10383000110798001e00900018ff07001e0090005e
:103840008000400080a62000008040001100200081
:10385000010878001e00900080004000c0a42000f5
:10386000008040008000eb00010878003200370043
:103870001e00900080004000409e2000008040001c
:10388000900178001e00900080004000c0a420003d
:1038900000804000100078001e00400010417800b9
:1038a0009e009000200320000088b90000007800ee
:1038b00083004000809e2000008040000248780085
:1038c0001e00900080004000409e200000804000cc
:1038d0009000780000032000808f50000b003c0017
:1038e0001e00900080004000409e200000804000ac
:1038f000100078008000e8001e00900000014000e9
:10390000409e200000004100010878001e00900049
:1039100080004000c0a4200000804000100078001b
:103920008000e8001e00900000014000c0a42000bc
:1039300000004100010878001e0090008000400057
:10394000c0a4200000804000100078001e0040004d
:10395000104078000004e000c5ff3a001e0090000f
:1039600080004000409e20000080400090007800d1
:103970001e00900000014000009e20000000410059
:10398000010878001e0090008000400080a6200002
:10399000008040008000eb00010878000080fa0001
:1039a000000006000600fa00889fbe00008fbe00df
:1039b000220798002e0090008000400000a5200003
:1039c000008040008000eb000108780081a5200005
:1039d0002e0090004200dd00008140006000b80031
:1039e0000089be002e0090008000400000a620004c
:1039f000008040008000eb00010878002e0090005d
:103a00006700b90080007800209d20000080400001
:103a100001c2b3000148780018c0b3006011b800bb
:103a20001e00be00b40907000000e00001003500e0
:103a30000044eb000804e0000a0032001e00be0053
:103a400001f0a200008fbe002e0090006700b900b8
:103a500080007800209d200000804000d1c2b3008b
:103a60000148780018c0b300f2ff2300c3612400ae
:103a70001e00be00a20907000000e00001003c009b
:103a80000044eb000804e0000a003200f0ff2300cd
:103a9000c1612400008fbe002e0090006700b900b5
:103aa00080007800209d200000804000f1c3b3001a
:103ab0000148780002002000a34724001e00be0039
:103ac0004b09070083a520002e0190004211dd0064
:103ad000028141000089be002e009000800040005d
:103ae00000a5200000804000100078008000e80061
:103af0002e0090000001400000a5200000004100c1
:103b0000010878005b0037002e0090008000400024
:103b100000a520000080400010007800e50f500054
:103b200012003a002e0090006700b9008000780073
:103b3000709d200000804000e1c2b3000148780081
:103b40002e0090008000400000a520000080400072
:103b5000100078008000e8002e0090000001400076
:103b600000a52000000041000108780081a5200088
:103b70002e0090004200dd00008040001000be00da
:103b800061090700800078002e00900000014000cd
:103b900000a6200000004100010878002e009000df
:103ba0008000400000a520000080400090017800c7
:103bb0002e0090008000400000a620000080400001
:103bc00010007800004078000043b0000041780009
:103bd0002e0090006700b9000000780083004000cc
:103be000209d200000804000024878002e009000b8
:103bf0008000400000a520000080400010007800f8
:103c00008000e8002e0090000001400000a5200088
:103c1000000041000108780081a520002e009000de
:103c20004200dd00008040001004be002e00900025
:103c30008000400000a620000080400010007800b6
:103c4000cf80de006c0907000001be000800be0046
:103c5000890807000200200003122400be090700a3
:103c600083a520002e0190004211dd000281410059
:103c70000089be002e0090008000400000a52000ba
:103c80000080400010007800e80f50009eff3400d4
:103c90002e00900001fe07002e00900080004000e2
:103ca00080a620000080400011002000010878005c
:103cb0002e0090008000400080ab2000008040007b
:103cc0001100200001087800c00037002e0090008d
:103cd0008000400000a52000008040001001780016
:103ce0002e0090006700b9000000780082004000bc
:103cf000209d2000008040009040780000c3b30069
:103d000080cf500047003a002e0090008000400015
:103d100080ab200000804000100078000000e00030
:103d2000400032002e0090008000400040a520009e
:103d300000804000100078000000e0002d003200fc
:103d40002e00900080004000409e20000080400037
:103d500010017800ae009000200320000088b90018
:103d60000000780082004000809e2000008040001b
:103d700001c2b300014878002e009000800040008e
:103d8000409e20000080400090007800000320004a
:103d9000808f50000b003c002e00900080004000ff
:103da000409e200000804000100078008000e80065
:103db0002e00900000014000409e200000004100c5
:103dc000010878002e0090008000400000a520002f
:103dd00000804000100078008000e8002e00900075
:103de0000001400000a5200000004100010878000b
:103df000430037002e0090008000400000a5200006
:103e000000804000100078008000e8002e00900044
:103e10000001400000a520000000410001087800da
:103e2000370037002e00900080004000409e2000a8
:103e300000804000900178002e009000800040003b
:103e400000a5200000804000100178002e009000a6
:103e50006700b9000000780082004000209d20002b
:103e60000080400010417800ae0090002003200048
:103e70000088b9000000780083004000809e200088
:103e800000804000024878002e0090008000400032
:103e9000409e200000804000900078000003200039
:103ea000808f50000b003c002e00900080004000ee
:103eb000409e200000804000100078008000e80054
:103ec0002e00900000014000409e200000004100b4
:103ed000010878002e0090008000400000a520001e
:103ee00000804000100078008000e8002e00900064
:103ef0000001400000a520000000410001087800fa
:103f00002e0090008000400000a5200000804000ae
:103f1000100178002e0090006700b90000007800c2
:103f200082004000209d20000080400090407800ea
:103f300000c3b30080cf5000240032002e00900058
:103f40008000400000a520000080400010017800a3
:103f50002e0090006700b900000078008200400049
:103f6000209d20000080400090407800d0c2b30027
:103f700080cf5000150032002e00900080004000dd
:103f800000a5200000804000100178002e00900065
:103f90006700b9000000780082004000209d2000ea
:103fa000008040009040780000c2b30080cf5000f5
:103fb000060032002e0090008000400080ab200000
:103fc000008040008000eb00010878002e00900087
:103fd0008000400000a52000008040001000780014
:103fe000e80f500039ff34002e00900080004000a0
:103ff00000a52000008040008000eb000108780050
:104000002e0090008000400040a52000008040006d
:104010008000eb00010878002e0090008000400036
:10402000409e200000804000900078002e0090000c
:1040300000014000009e20000000410001087800bf
:104040002e0090008000400080a6200000804000ec
:104050008000eb00010878004f04be000080fa00e9
:10406000000006001200fa0050079800610798004f
:1040700072079800030f9800024022004397240023
:104080007e0090008e089000b3080700008fbe00ed
:104090005e019000ee0190001e00be00d4070700f4
:1040a0000200200003182400d107070002002000ae
:1040b00003f82300700707002007980031079800d5
:1040c0002e009000be0090003008070040079800c6
:1040d0004e0090000080fa00000006000000fa0088
:1040e0000000200081342400104088002140880016
:1040f0000000200001182400304088004140880062
:1041000040b42800c1e62b00504088006140880080
:104110006066260061f623007040880081408800b8
:10412000c01e2500c126240090408800a1408800c0
:1041300030332300b1262400b0408800c1408800fd
:10414000d0cc2c00c1212400d0408800e140880060
:1041500000002000c1202400f040880001418800b8
:104160000000200001002400104188002141880047
:1041700000002000010a24003041880041418800ed
:104180000000200001f023005041880061418800b8
:1041900000002000011b240070418800814188003c
:1041a00000002000011f240090418800a1418800e8
:1041b00000002000811c2400b0418800c14188001b
:1041c0000000200001122400d0418800e141880055
:1041d0000000200001172400f041880001428800ff
:1041e00000002000012224001042880021428800a3
:1041f00000002000c1202400304288004142880095
:1042000000002000811c2400504288006142880088
:104210006000b800704288008142880000002000e1
:104220000112240090428800a14288000000200072
:10423000c1252400b0428800c1428800000020004f
:1042400081242400d0428800e14288000000200040
:1042500001172400f042880001438800000020007c
:10426000012724001043880021438800000020001b
:10427000012a2400304388004143880000002000c8
:1042800081242400504388006143880000002000fe
:10429000011f240070438800814388000000200033
:1042a0008124240090438800a143880060ba29003b
:1042b00041c42300b0438800c1438800d0cc2c0007
:1042c000c1d42300d0438800e14388008007200048
:1042d000f0438800c50507000080fa0000000600d2
:1042e0000000fa00113a8000f08f2f00008060007b
:1042f0000080a000103a88004207a8004227a900c9
:1043000010ff2f0090168800d622ef00d442a8009c
:10431000cc22ef00d022ef00f0fe2f00c016880064
:10432000dc22ef00e0fb2f00f0168800e222ef0015
:1043300060002000000e8800c221ef001003200062
:10434000200e8800c621ef00b00f2000400e88002c
:10435000ca21ef0010182800600e8800d021ef005d
:1043600000f02f00a00e8800d621ef00d821ef002a
:10437000da21ef000e22ef000fe2a9000c22ef007d
:104380000d42a800305580004155800054558000f2
:10439000655580000001be000400be0031ff07002b
:1043a000a01088001822ef0019e2a9001622ef00e1
:1043b000305580004155800074558000855580003f
:1043c0000001be000400be0026ff0700f0108800b8
:1043d0000080eb00100888000021ef000421ef00ae
:1043e00021088000000320000100700020088800e0
:1043f00050072700600888000621ef001021ef0019
:1044000081088000f0fc2f00008060000050a000b8
:1044100080088800a00e2e00700888000a21ef0096
:104420001221ef00910880000003200001007000bd
:1044300090088800a00e2e00d00888001421ef00fc
:104440001e21ef00f1088000000320000100700031
:10445000f0088800f000200000468800f0002000ee
:1044600010468800402e20000015880000412000e2
:1044700010158800f0f0200020158800a622ef001b
:1044800000f72f0040158800f00820005015880024
:10449000c10480000000270001007000c0048800f3
:1044a000b1048000f08f2f00808060000060200049
:1044b00001007000b0048800e104800080ff2f003c
:1044c000008060005000b300e0048800a104800078
:1044d000f0ff28000080600000e0a000a004880039
:1044e000a104800080ff2f00008060003000b30036
:1044f000a0048800c1048000f0f82f000080600054
:104500000050a000c00488000105800080ff2f003b
:10451000008060000010a00000058800c104800039
:10452000f08f2f00808060000030200001007000bc
:10453000c004880001058000f0f82f008080600032
:10454000000320000100700000058800b104800015
:10455000f0ff28000080600000d0a000b0048800b8
:10456000f1048000f0f82f00008060000040a000ff
:10457000f0048800f1048000f0ff28000080600053
:1045800000c0a000f00488000080fa0000000600cf
:104590000000fa00889fbe0038408000494080003b
:1045a0001440800025408000304080004140800061
:1045b0000001be000400be00300607000001be007e
:1045c0000800be008a060700e0458800f145880023
:1045d000402b2a0011812300405488005154880048
:1045e00010002000c04988003a29ef0054418000a3
:1045f0006541800070418000814180000001be0063
:104600000400be00540707000047880011478800d7
:10461000305580004155800002402200439724001d
:104620004d0707000004be000146800010468000d0
:1046300000804000cf80de00ef0607000001be00d2
:104640000800be006a060700020020004323240081
:10465000670607000001be000000200001f82300eb
:104660006306070020468800314688001cff0700cb
:1046700081e0a9008420ef008620ef008820ef0071
:10468000ff3ffc008c20ef008e20ef009020ef0019
:104690008c60a8008d20a8008d40a8008f00a80085
:1046a0008f20a80010558000e10f500001003a0053
:1046b0008c00a80010002000105588008e00a80073
:1046c0008ee0a9008cc0a8008ce0a8008ea0a800f5
:1046d0008d60a8008200a9008240a9005220ef004e
:1046e000a1e2a800c1e1a80011e1a80005e1a8002d
:1046f00013e1a8001fe1a8000de2a8000f42a800e6
:1047000017e2a8001942a8004f04be000080fa007a
:10471000000006000000fa00f1fe0700ff3ffc0069
:104720008420ef008620ef008820ef008c20ef002f
:104730008e20ef009020ef008d20a8008d40a80073
:104740008f00a8008f20a8005220ef00a1e2a9004e
:10475000c1e1a90011e1a90005e1a90013e1a90047
:104760001fe1a9000de2a8000f42a80017e2a8006f
:104770001942a8000080fa00000006000000fa00bc
:1047800012fb0700a1e2a90011e1a90013e1a900b1
:104790001fe1a9008e00a9008cc0a9008ce0a9002f
:1047a0008ea0a9008220a9008240a90000702000ec
:1047b000105488003829ef0010002000d0498800ec
:1047c000c8c2a9000080fa00000006000000fa003c
:1047d0006e29ef003229ef00c1e1a90005e1a9002f
:1047e0008420ef008620ef008820ef00ff3ffc00d0
:1047f0008c60a9008d60a9008220a9008240a900d8
:10480000deff070010002000e04988000080fa0069
:10481000000006000200fa00000f780002003700d6
:10482000c8c2a9000140fe001e00780080004000c0
:1048300040a6200000804000100078000000e0004a
:10484000f7ff3a00c8c2a8000080fa000000060086
:104850000400fa00100798009e00900040492b00c9
:10486000f1fb07001e009000d9fb07001e0090001e
:104870008000400000a72000008040008000eb0086
:10488000010878001e009000e2ff0700b04480009d
:10489000ea0f5000050034009e009000604a2b0093
:1048a000e1fb07001e009000c9fb0700b044800038
:1048b0000000e000f6003a009e009000804b2b00c4
:1048c000d9fb07001e009000c1fb0700f90037006c
:1048d0001e0090008000400000a7200000804000e3
:1048e000100078000000e8008000400000882000f0
:1048f00000804000100078006101b9000080eb00ea
:104900008080eb000200400083804800b20220005b
:1049100003002000820f5000838f5800b1003e003a
:10492000006001002b0037002d0037002f003700fa
:1049300031003700330037003500370037003700cb
:10494000390037003b0037003d0037003f0037009b
:10495000410037004300370045003700470037006b
:10496000490037004b0037004d0037004f0037003b
:10497000510037005300370055003700570037000b
:10498000590037005b0037005d0037005f003700db
:1049900061003700630037006500370067003700ab
:1049a000690037006b0037006d0037006f0037007b
:1049b000710037007300370075003700770037004b
:1049c000790037007b0037007d0037007f0037001b
:1049d00081003700802c2b00000f78008400370006
:1049e000702d2b00000f780081003700a02e2b00c7
:1049f000000f78007e003700902f2b00000f78000a
:104a00007b00370020302b00000f78007800370043
:104a1000d0302b00000f78007500370050312b008c
:104a2000000f780072003700d0312b00000f7800a3
:104a30006f00370050322b00000f78006c003700f9
:104a4000d0322b00000f78006900370050332b0064
:104a5000000f78006600370020342b00000f78002c
:104a600063003700a0342b00000f7800600037008f
:104a700030352b00000f78005d003700c0352b006b
:104a8000000f78005a00370040362b00000f7800e6
:104a900057003700c0362b00000f78005400370055
:104aa00020372b00000f78005100370090372b0083
:104ab000000f78004e00370000382b00000f780000
:104ac0004b00370080382b00000f7800480037007b
:104ad00010392b00000f780045003700203a2b00da
:104ae000000f780042003700b03a2b00000f78002a
:104af0003f003700c03b2b00000f78003c00370020
:104b0000603c2b00000f780039003700303d2b004f
:104b1000000f780036003700003e2b00000f7800b1
:104b200033003700a03e2b00000f78003000370024
:104b3000003f2b00000f78002d003700603f2b0056
:104b4000000f78002a003700c03f2b00000f7800cc
:104b50002700370020402b00000f7800240037008a
:104b600080402b00000f780021003700e0402b0030
:104b7000000f78001e00370050412b00000f780016
:104b80001b003700c0412b00000f780018003700d1
:104b900020422b00000f78001500370080422b00c8
:104ba000000f78001200370060432b00000f7800e0
:104bb0000f00370040442b00000f78000c00370036
:104bc00040452b00000f78000900370050462b00ad
:104bd000000f78000600370050472b00000f7800c8
:104be00003003700c0482b00000f780000000000d1
:104bf0001e00900007ff07009e009000a04c2b00b5
:104c000009fb07001e0090008000400000a7200064
:104c100000804000100078000000e80080004000a4
:104c20000088200000804000100078009e00900066
:104c30003bfa07009e009000104d2b00fafa070087
:104c40009e0090001e007800f7fa07009e0090007a
:104c5000604d2b00f4fa07001e009000dcfa0700fc
:104c60001e0090008000400000a72000008040004f
:104c7000100078008000e8001e0090000001400055
:104c800000a7200000004100010878000100370063
:104c9000000000001e0090008000400000a72000df
:104ca0000080400090007800b0448000808f500069
:104cb00007ff35000080fa00000006000200fa003d
:104cc000000f78001e0078000000e0000f003200a6
:104cd0001e00780080004000e09a20000080400024
:104ce00090017800e0108000004178001e007800fc
:104cf0006a00b9000000780083004000a0992000fd
:104d000000804000024878000e0037001e00780046
:104d100080004000e09a2000008040009001780070
:104d200090108000004178001e0078006a00b900f1
:104d30000000780083004000a0992000008040001f
:104d4000024878001e0078008000400040ab200040
:104d500000804000100078000000e0003c003200bd
:104d60001e00780080004000e09a20000080400093
:104d7000100178001e0078006a00b9000000780079
:104d800082004000a0992000008040001040780080
:104d9000ed4f50000e003a001e00780080004000e9
:104da000e09a200000804000100178001e0078008a
:104db0006a00b9000000780082004000a09920003d
:104dc0000080400010407800ea4f50002000320080
:104dd0001e0078000000e0000f0032001e00780086
:104de00080004000e09a2000008040001001780020
:104df0001e0078006a00b9000000780082004000c0
:104e0000a099200000804000104078000000fb00c6
:104e1000d01088000e0037001e007800800040008f
:104e2000e09a200000804000100178001e00780009
:104e30006a00b9000000780082004000a0992000bc
:104e400000804000104078000000fb0080108800c7
:104e50001e00780080004000e09a200000804000a2
:104e6000100178001e0078006a00b9000000780088
:104e700082004000a099200000804000104078008f
:104e8000ed4f500022003a001e00780080004000e4
:104e900040ab200000804000100078000000e000df
:104ea000030032009e007800604d2b005efa070080
:104eb0001e00780080004000e09a20000080400042
:104ec00010007800800078001e007800000140008b
:104ed000e09b200000004100010878001e007800df
:104ee00080004000e09a2000008040008000eb003d
:104ef000010878001e00780080004000209b200000
:104f000000804000110020000108780013003700e5
:104f10001e00780080004000e09a200000804000e1
:104f20009000780090558000808f50000b00310079
:104f30001e00780080004000e09a200000804000c1
:104f4000100078008000e8001e007800000140009a
:104f5000e09a200000004100010878000080fa007b
:104f6000000006000200fa00000f78001e00780022
:104f70000000e00012003200020037001e0078003e
:104f80004eff0700c0108000610060000000e000dc
:104f9000170032001e00780080004000209b200097
:104fa00000804000100078000000e000f3ff3200b5
:104fb0000f0037001e00780040ff07000100370097
:104fc0000000000070108000610060000000e00040
:104fd000070032001e00780080004000209b200067
:104fe00000804000100078000000e000f1ff320077
:104ff0001e00780080004000209b200000804000c0
:1050000010007800e10f500045013a009e00780042
:10501000904d2b0004fa0700b04480000000e0002f
:10502000030034009e007800b04d2b00fef907000d
:105030001e00780080004000c0a6200000804000d4
:10504000100178001e0078006a00b90000007800a6
:1050500082004000a09920000080400010407800ad
:105060000000fb006101b90030ff2f00f1ff2f00ad
:105070000200400083804800120720000300200047
:10508000820f5000838f58000a013e00006001002b
:105090000c01370007013700060137000501370012
:1050a0000401370003013700020137000101370016
:1050b00000013700ff003700fe003700fd00370019
:1050c000fc003700fb003700fa003700f90037001a
:1050d000f8003700f7003700f6003700f50037001a
:1050e000f4003700f30037005b003700680037003a
:1050f0008a00370077003700ee003700ed003700f8
:10510000ec003700eb003700ea003700e900370019
:10511000e8003700e7003700e6003700e500370019
:10512000e4003700e3003700e2003700e100370019
:10513000e0003700df003700de003700dd00370019
:10514000dc003700db003700da003700d900370019
:10515000d8003700d7003700d6003700d500370019
:10516000d4003700d3003700a9003700d100370042
:105170007b0037008b003700ce003700720037000d
:10518000cc003700cb003700ca003700c900370019
:1051900093003700c7003700c6003700840037008f
:1051a000c4003700c30037007b003700c100370060
:1051b000b1003700bf003700be003700bd00370028
:1051c000bc0037009d003700ba003700b900370037
:1051d000b8003700b7003700b6003700b500370019
:1051e000b4003700b3003700b2003700b100370019
:1051f00062003700af003700ae00370055003700bf
:10520000ac003700ab003700aa003700a900370018
:1052100079003700a7003700a60037006a00370082
:10522000a4003700a3003700a2003700a100370018
:10523000990037009f0037009e0037009d0037001f
:105240009c0037009b0037009a0037009900370018
:1052500098003700370037001e00780080004000bb
:10526000e09a2000008040008000eb0001087800f8
:105270001e00780080004000209b2000008040003d
:105280008000eb00010878000000fe00920037006b
:105290009e007800d04d2b0063f90700c0448000c9
:1052a0009e0078009ef807009e007800d04e2b00ec
:1052b0005df90700fe010700c05380009e007800e2
:1052c00097f807009e007800604d2b0056f9070004
:1052d000810037009e007800704f2b0052f90700c4
:1052e000f01f2000b00107009e0078008cf8070036
:1052f0009e007800d04e2b004bf90700fb01070001
:10530000d05380009e00780085f807009e0078004a
:10531000604d2b0044f907006f0037009e007800b5
:1053200070502b0040f90700ac000700dd000700bb
:105330006900370069fb07000000eb00100107005f
:10534000b601070064003700100020009047880075
:105350006100370050002000904788005e00370051
:105360001e0078008000400040ab2000008040001c
:105370001100200001087800570037001e00780057
:105380008000400040ab2000008040008000eb0027
:10539000010878005000370010002000e049880024
:1053a0004d0037001e00780029fd07004a00370035
:1053b0009e00780040522b001bf9070010002000cf
:1053c000704b8800440037009e007800c0522b00cc
:1053d00015f907009229ef006e29ef003e00370013
:1053e0009e2aef009229ef009e00780040532b0088
:1053f0000df9070038003700f05f2500f0548800f1
:105400009e00780010542b0007f907003200370087
:105410009628ef006c29ef0090478000e50f5000c0
:1054200001003200f228ef007c29ef009e00780096
:1054300000552b00fcf80700270037002629ef0055
:10544000b0408000c140800020478800314788007c
:10545000d116800000102000008060000000e000f5
:1054600002003200a228ef001b003700a00020003d
:105470001045880018003700914c8000200620005d
:10548000808f500011003c00904c80000000e8002c
:10549000904c880010003700904c80000000e00025
:1054a0000c003400904c80000000e900904c880013
:1054b000090037009e00780020562b00daf807001c
:1054c0000500370000000000030037000000000066
:1054d00001003700000000001e007800800040003e
:1054e000e09a2000008040008000eb000108780076
:1054f0001e00780080004000209b200000804000bb
:105500008000eb00010878001e0078008000400059
:10551000c0a62000008040008000eb000108780059
:105520001e007800aaf807000080fa0000000600bc
:105530000200fa00704c80000000e8001a01070029
:10554000000f7800406527009e007800808f500093
:1055500008003a006d0007000000e0000a00320079
:10556000530107000000e00007003200c7f1070008
:10557000050037001e007800e10f400002003a00ed
:1055800020010700470007000080fa000000060025
:105590000200fa000000eb0003010700000f780092
:1055a000705624009e007800808f500005003a005d
:1055b000210007000000e00006003a00b3f10700f8
:1055c000040037001e007800e10f400001003a009f
:1055d000c2fa07000080fa00000006000200fa008c
:1055e0000000eb00000f7800090037001e00780073
:1055f0008000400000802000008040001000780003
:10560000800078001e0078008e0007001e0fe80062
:10561000704c80009e007800808f5000f3ff3500b2
:10562000715624000000eb0086000700fb00070015
:105630000080fa00000006000200fa002b010700bb
:105640000000e000020032000000eb001300370011
:105650000000eb00000f7800090037001e00780002
:10566000d1000700800078001e0078000001400093
:105670000080200000004100010878001e0fe800b3
:10568000704c80009e007800808f5000f3ff350042
:10569000f7000700d5000700100020000080fa0086
:1056a000000006000400fa00704c80000000e800d2
:1056b000100798000000eb00000f78000900370089
:1056c0001e0078008000400000882000008040001c
:1056d000900078001e0090001e0040005900070056
:1056e0001e0fe800804c80009e007800808f5000e4
:1056f000f3ff3500416527001e00900051000700b0
:10570000c60007000080fa00000006000400fa004e
:10571000f60007000000e000020032000000eb008d
:1057200015003700704c80000000e800100798005a
:105730000000eb00000f78000a0037001e00900008
:105740001e00400098000700800078001e007800ce
:10575000000140000088200000004100010878009e
