:020000040000fa
:080000000001040000000000f3
:020000040000fa
:04000800a62d000021
:020000040000fa
:04000c0016100000ca
:020000040000fa
:040010005610000086
:020000040000fa
:040014007e1000005a
:020000040000fa
:04001800a61000002e
:020000040000fa
:04001c00a62d00000d
:020000040000fa
:04002000a62d000009
:020000040000fa
:04002400ce100000fa
:020000040000fa
:04002800c80100000b
:020000040000fa
:04002c00a62d0000fd
:020000040000fa
:04003000a62d0000f9
:020000040000fa
:04003400f2080000ce
:020000040000fa
:04003800a62d0000f1
:020000040000fa
:04003c00a62d0000ed
:020000040000fa
:04004000920d00001d
:020000040000fa
:040044003203000083
:020000040000fa
:04004800a62d0000e1
:020000040000fa
:04004c009c0500000f
:020000040000fa
:04005000a62d0000d9
:020000040000fa
:04005400480300005d
:020000040000fa
:04005800a62d0000d1
:020000040000fa
:04005c00a62d0000cd
:020000040000fa
:04006000a62d0000c9
:020000040000fa
:04006400a62d0000c5
:020000040000fa
:04006800ea020000a8
:020000040000fa
:04006c00a62d0000bd
:020000040000fa
:04007000a62d0000b9
:020000040000fa
:04007400a62d0000b5
:020000040000fa
:04007800a62d0000b1
:020000040000fa
:04007c00a62d0000ad
:020000040000fa
:04008000a62d0000a9
:020000040000fa
:04008400a62d0000a5
:020000040000fa
:04008800b4080000b8
:020000040000fa
:04008c00be080000aa
:020000040000fa
:04009000a62d000099
:020000040000fa
:04009400a62d000095
:020000040000fa
:04009800a62d000091
:020000040000fa
:04009c00a62d00008d
:020000040000fa
:0400a000a62d000089
:020000040000fa
:0400a400a62d000085
:020000040000fa
:0400a800a62d000081
:020000040000fa
:0400ac00a62d00007d
:020000040000fa
:0400b000a62d000079
:020000040000fa
:0400b400a62d000075
:020000040000fa
:0400b800a62d000071
:020000040000fa
:0400bc00a62d00006d
:020000040000fa
:0400c000a62d000069
:020000040000fa
:0400c400a62d000065
:020000040000fa
:0400c800a62d000061
:020000040000fa
:0400cc00a62d00005d
:020000040000fa
:0400d000a62d000059
:020000040000fa
:0400d400f40f000025
:020000040000fa
:0400d800a62d000051
:020000040000fa
:04010800a62d000020
:020000040000fa
:04010c00a62d00001c
:020000040000fa
:04011000a62d000018
:020000040000fa
:04011400a62d000014
:020000040000fa
:04011800a62d000010
:020000040000fa
:04011c00a62d00000c
:020000040000fa
:04012000a62d000008
:020000040000fa
:04012400a62d000004
:020000040000fa
:04012800a62d000000
:020000040000fa
:04012c00a62d0000fc
:020000040000fa
:04013000a62d0000f8
:020000040000fa
:04013400a62d0000f4
:020000040000fa
:04013800a62d0000f0
:020000040000fa
:04013c00a62d0000ec
:020000040000fa
:04014000a62d0000e8
:020000040000fa
:04014400a62d0000e4
:020000040000fa
:04014800a62d0000e0
:020000040000fa
:04014c00a62d0000dc
:020000040000fa
:04015000a62d0000d8
:020000040000fa
:04015400a62d0000d4
:020000040000fa
:04015800a62d0000d0
:020000040000fa
:04015c00a62d0000cc
:020000040000fa
:04016000a62d0000c8
:020000040000fa
:04016400a62d0000c4
:020000040000fa
:04016800a62d0000c0
:020000040000fa
:04016c00a62d0000bc
:020000040000fa
:04017000a62d0000b8
:020000040000fa
:04017400a62d0000b4
:020000040000fa
:04017800a62d0000b0
:020000040000fa
:04017c00a62d0000ac
:020000040000fa
:04018000a62d0000a8
:020000040000fa
:04018400a62d0000a4
:020000040000fa
:04018800a62d0000a0
:020000040000fa
:04018c00a62d00009c
:020000040000fa
:04019000a62d000098
:020000040000fa
:04019400a62d000094
:020000040000fa
:04019800a62d000090
:020000040000fa
:04019c00a62d00008c
:020000040000fa
:0401a000a62d000088
:020000040000fa
:0401a400a62d000084
:020000040000fa
:0401a800a62d000080
:020000040000fa
:0401ac00a62d00007c
:020000040000fa
:0401b000a62d000078
:020000040000fa
:0401b400a62d000074
:020000040000fa
:0401b800a62d000070
:020000040000fa
:0401bc00a62d00006c
:020000040000fa
:0401c000a62d000068
:020000040000fa
:0401c400a62d000064
:020000040000fa
:0401c800a62d000060
:020000040000fa
:0401cc00a62d00005c
:020000040000fa
:0401d000a62d000058
:020000040000fa
:0401d400a62d000054
:020000040000fa
:0401d800a62d000050
:020000040000fa
:100200004fa220000ebf20000e0188000000000059
:10021000000020000000e000020032000001200089
:1002200020028800140007004a1607000000e000c2
:1002300003003a00204123000100200002003700a3
:100240000000200001002000810f7000010032003a
:1002500014000700000020000000e000020032004f
:1002600000000200000000001a2d02000000000043
:100270000040da000000fe004440a900a02d20004c
:100280000000e0000300320000002000a001880010
:100290004440a800000006008a1f78008b1f7800e9
:1002a0000000060091018800800478000000eb0047
:1002b0001a003700e284440032a0b4009905ba0065
:1002c000e284440032a0b4009906ba00e2844400fb
:1002d00032a0b4000006eb00476fde00fd07b2005d
:1002e000636ce10003003a00ebff07000000eb0045
:1002f0000a003700606ce10004003a00005deb008a
:100300008b05e900fdff3e00040037006168e10055
:10031000010032000086eb000b00070019c7ba008d
:100320001905ba000e04e00003003a000a00e000dc
:10033000e0ff3a0000000600fe07b2009e018800c0
:100340008a047800f5ff3700395dba008b05e900b3
:100350000c003200295dba008b05e900080032006c
:100360000c00e00003003a00e284440032a0b40034
:10037000f5ff370019ddba008b05e900faff3a00f6
:100380008904e800e184440032a0b40000000600c3
:100390003600f800809fbe00829fbe00849fbe0092
:1003a000869fbe00881f78000000fa00c8c2a8001f
:1003b0006000b800c0478800d147880070408000c6
:1003c0008140800018c0b3000200200003f8230021
:1003d000831607000000e00001003c000044eb0031
:1003e0000804e000060032000000200001f82300ad
:1003f0007040880081408800c00120009d0d0700ea
:1004000070408000814080006011b80072160700c3
:100410000000e00009003a00b0408000c1408000c8
:1004200030478800414788002829ef00120020004b
:1004300081132b003000200047120700b04b8000d2
:10044000e10f50002200320010458000e90f5000fb
:100450001f003c00104580000000e80010458800a7
:100460001000200040498800b4408000c540800052
:10047000d0408000e14080000001be000400be00ca
:10048000b51507000002be0070408000814080006a
:100490000001be000400be00e71607000002be0017
:1004a000d0408000e14080000001be000400be009a
:1004b000aa15070030478800414788001200200035
:1004c00081142b0030002000231207001000370099
:1004d000b04b8000e10f50000d003200104580004d
:1004e000e90f50000a003400a228ef002829ef008d
:1004f000b0408000c14080003047880041478800fc
:100500001200200081152b0030002000121207007d
:10051000a0478000e20f5000160032000017800054
:10052000620060000000e00012003200904b80008a
:100530000000e0000f003a00b04b80000000e00037
:100540000c003a00804b80000000e00009003a00f7
:1005500010002000704b8800a0478000e50f50007d
:100560000200320010002000a04788001000200088
:10057000b04b880000178000620060000000e000bf
:1005800009003200904b80000000e00006003a00b5
:100590006000b80040458800514588006000b80000
:1005a000604588007145880010002000704c88006c
:1005b0008400a9000080fa004f0478004f03be00b9
:1005c0004f02be004f01be004f00be003600f900d2
:1005d000004006003600f800809fbe00829fbe00eb
:1005e000849fbe00869fbe000000fa00c8c2a8001b
:1005f000500880008000eb003a1607007049880020
:10060000814988000a21ef00904980000000e00045
:100610000a003200b0438000c143800002002c0079
:1006200053402400aa15070002002000135624009e
:100630008116070050498800614988001000200099
:10064000904988008600a9000080fa004f03be0090
:100650004f02be004f01be004f00be003600f90041
:1006600000400600809fbe000000fa00c8c2a8003b
:100670006000b80050498800614988003229ef00c5
:1006800084e0a9000080fa004f00be000040060090
:100690003600f800809fbe00829fbe00849fbe008f
:1006a000869fbe000000fa00c8c2a800004a800071
:1006b000e70f5000c6003400104a8000214a800035
:1006c00002c02c00c37c240081150700104a88005a
:1006d000214a8800144a8000254a8000f0458000a5
:1006e000014680000001be000400be00781507002e
:1006f0000002be0050408000614080000001be004a
:100700000400be0015150700804888009148880045
:100710006000b800104a8800214a8800304a8000f2
:10072000414a8000020020000310240068150700e1
:10073000304a8800414a8800304a8000414a80009f
:10074000020020000370240003150700304a8800cf
:10075000414a8800304a8000414a8000020020005f
:10076000037024005a150700304a8800414a880067
:10077000304a8000414a8000020020000302240029
:100780002d160700304a8800414a8800304a800010
:10079000414a8000a2702d0033d223004c1507007f
:1007a0000002be0080478000914780000001be002b
:1007b0000400be00e9140700e0488800f148880002
:1007c0006000b800304a8800414a8800504a8000e2
:1007d000614a800002c02c00c37c24003c15070045
:1007e000504a8800614a8800504a8000614a80006f
:1007f000f2282c0053ef2300d7140700504a88003a
:10080000614a8800504a8000614a80004272290093
:10081000f3c723002e1507002048880031488800c0
:100820006000b800504a8800614a8800704a800021
:10083000814a800002c02c00c37c240024150700dc
:10084000704a8800814a8800704a8000814a80008e
:10085000f2282c0053ef2300bf140700704a8800d1
:10086000814a8800704a8000814a800042722900d3
:10087000f3c72300161507006048880071488800f8
:100880006000b800704a8800814a8800904a800061
:10089000a14a800002c02c00c37c24000c15070074
:1008a000904a8800a14a8800904a8000a14a8000ae
:1008b000f2282c0053ef2300a7140700904a880069
:1008c000a14a8800904a8000a14a80004272290013
:1008d000f3c72300fe1407004048880051488800f1
:1008e0006000b800904a8800a14a88004048800013
:1008f0005148800060488800714888004029ef0016
:1009000061508000f05f2500808f500007003200aa
:10091000504b8000e10f500004003a00804b8000f3
:100920000000e00001003a00f00c0700f0498000f0
:100930000000e00017003a00804b80000000e0005b
:1009400014003a005d0c0700a0478000e20f500041
:1009500003003c00a04780000000e00008003a00cf
:10096000b0498000e10f500005003a00704b800054
:10097000e50f500002003a000608070008003700a3
:10098000b04980000000e00004003a00760d070046
:1009900003003700740d070001003700000000005d
:1009a000b04980000000e00006003a00504b800093
:1009b000e10f500003003a00a1e2a9006a29ef000c
:1009c0005500370010002000504b880052003700bf
:1009d000504b8000e10f50003d003a0000148000b1
:1009e0008000eb003f1507000002be00104a8000a7
:1009f000214a80000001be000400be005714070019
:100a0000104a8800214a8800101480008000eb0002
:100a1000341507000002be00304a8000414a8000c1
:100a20000001be000400be004c140700304a8800dc
:100a3000414a8800201480008000eb00291507003f
:100a40000002be00504a8000614a80000001be00e2
:100a50000400be0041140700504a8800614a880023
:100a6000301480008000eb001e1507000002be005d
:100a7000704a8000814a80000001be000400be0070
:100a800036140700704a8800814a880040148000ac
:100a90008000eb00131507000002be00904a8000a2
:100aa000a14a80000001be000400be002b14070014
:100ab000904a8800a14a880061508000f05f2500bc
:100ac000808f500011003200cf0607000f00370062
:100ad0006000b800104a8800214a88006000b80011
:100ae000304a8800414a88006000b800504a8800b7
:100af000614a88006000b800704a8800814a880016
:100b00006000b800904a8800a14a8800004a80002e
:100b10000000e800004a88008560a9000080fa0013
:100b20004f03be004f02be004f01be004f00be008b
:100b30003600f900004006003600f800809fbe0035
:100b4000829fbe00849fbe00869fbe000200fa0006
:100b5000c8c2a80034003700424d800090108000c9
:100b600080407800e09920000000410001487800b2
:100b7000105180000000e00012003200414d800062
:100b8000e09920000080400010407800ed4f5000b8
:100b900006003a00414d8000e099200000804000ae
:100ba00010407800ea4f500006003200414d8000ae
:100bb000e099200000804000104078000000fb0019
:100bc00080108800414d8000e099200000804000a6
:100bd00010407800ed4f50000b003a00105180009b
:100be0000000e00002003200d000200080108800e9
:100bf000404d8000804d8800a829ef0010002000a3
:100c0000504d8800080037000051800080007800b7
:100c1000404d8000808f500003003600404d800022
:100c20000000e800404d8800701080006100600006
:100c30000000e00003003200504d80000000e000a2
:100c4000c5ff3200504d8000e10f50003e013a00d8
:100c50000000eb00000f78000004200080108800e6
:100c6000c04480000000e0000200340010022000b8
:100c700080108800e09920001e004000104078009d
:100c80000000fb006101b90030ff2f00f1ff2f00d1
:100c900002004000838048008206200003002000fc
:100ca000820f5000838f580010013e000060010049
:100cb000150137000d0137000c0137000b0137001b
:100cc0000a01370009013700080137000701370022
:100cd0000601370005013700040137000301370022
:100ce000020137000101370000013700ff00370023
:100cf000fe003700fd003700fc003700fb00370026
:100d0000fa003700f900370052003700f7003700cb
:100d1000f6003700f5003700f4003700f300370025
:100d2000f2003700f1003700f0003700ef00370025
:100d3000ee003700ed003700ec003700eb00370025
:100d4000ea003700e9003700e8003700e700370025
:100d5000e6003700e5003700e4003700e300370025
:100d6000e2003700e1003700e0003700df00370025
:100d7000de003700dd003700dc003700db00370025
:100d8000da003700a000370077003700d7003700bf
:100d90003700370056003700d400370031003700e5
:100da000d2003700d1003700d0003700cf00370025
:100db00060003700cd003700b80037005000370022
:100dc000ca003700c90037003e003700c7003700af
:100dd000b70037007f003700c4003700c30037007a
:100de000c200370069003700c0003700bf0037007d
:100df000be003700bd003700bc003700bb00370025
:100e0000ba003700b9003700b8003700b700370024
:100e1000b6003700b5003700b40037006a0037006d
:100e2000b2003700b1003700b0003700af00370024
:100e300046003700ad0037009b0037003700370011
:100e4000aa00370022003700a8003700a7003700ab
:100e50009f003700a829ef00aa29ef000000fe003c
:100e6000ae00370010002000a0478800ab0037001c
:100e70001e0fe800e09920001e004000904078001e
:100e800090c7b30080cf500003003a00100020004c
:100e900010518800a1003700e09920001e0040009a
:100ea00090407800e0c6b30080cf500002003a00c6
:100eb000222aef00990037000080eb00704d880077
:100ec0009600370010002000f0498800930037009a
:100ed000604b80000000e00003003a00100020009a
:100ee000604b88008d0037006c29ef008b003700c5
:100ef000110020000000eb000d0a070087003700fa
:100f00001200200051162b0030002000920f070025
:100f100010002000904b8800800037001200200055
:100f2000a1162b00300020008b0f07007229ef0064
:100f30007a0037000c2aef001200200001172b0066
:100f400030002000840f070074003700f05f250098
:100f50006050880012002000b1172b0030002000e4
:100f60007d0f07006d0037009828ef007029ef0013
:100f7000f428ef008029ef001200200061182b00f8
:100f800030002000740f0700640037002829ef00ac
:100f9000b0408000c1408000304788004147880051
:100fa000d116800000102000008060000000e000ea
:100fb00002003200a228ef0058003700a0002000f5
:100fc000104588005500370050002000a0478800d9
:100fd0005200370012002000e1182b001000200002
:100fe0005d0f0700c0488000d1488000120020003b
:100ff000b60f07001200200021192b00200020004e
:10100000550f0700450037001200200061192b0022
:1010100010002000500f07007041800081418000c7
:1010200012002000a90f070012002000a1192b00b8
:1010300020002000480f070012002000f1192b00ab
:1010400010002000440f0700d0448000e1448000dd
:10105000120020009d0f070012002000a1192b0094
:10106000200020003c0f070012002000611a2b0016
:1010700010002000380f0700804580009145800057
:1010800012002000910f070012002000a1192b0070
:1010900020002000300f0700200037001000200043
:1010a000205088001d003700042aef001b00370085
:1010b000b14c800020062000808f500014003c00be
:1010c000b04c80000000e800b04c880013003700ee
:1010d000b04c80000000e0000f003400b04c8000f5
:1010e0000000e900b04c88000c003700120020001e
:1010f000f11a2b0010002000170f07000080eb00f2
:10110000704d880005003700000000000300370024
:10111000000000000100370000000000a829ef00d7
:10112000aa29ef00704d8000e10f400006003a0050
:10113000ae29ef00a829ef000000eb00000f7800b7
:1011400050042000801088008520a9000080fa004b
:101150004f03be004f02be004f01be004f00be0055
:101160003600f900004006000000fa00c8c2a800de
:101170008700a9000080fa0000400600809fbe00a2
:101180000000fa00c8c2a80009003700f14d800035
:10119000009c200000804000104078000000fb0010
:1011a000d0108800f04d80000000e800f04d88006d
:1011b000c110800000202000008060000000e000de
:1011c00004003a00f14d8000e04d8000808f500017
:1011d000eeff34008720a9000080fa004f00be0017
:1011e000004006003600f800809fbe00829fbe00cf
:1011f000849fbe00869fbe00889fbe000200fa004a
:10120000c8c2a800a1e2a800b04980000000e00028
:1012100006003200f0438000804c8800b0032000bc
:1012200090508800d442a8001200370090508000ef
:101230000000e0000c003c00b0032000905088004b
:10124000804c80000000e00003003c001000200003
:10125000f049880007003700804c80000000e9005a
:10126000804c880003003700905080000000e900a7
:1012700090508800104980000000e0001000340009
:10128000244980003549800090418000a1418000c0
:1012900018c0b3000001be000400be00ce1207005b
:1012a0000000e000010035000044eb000804e0000d
:1012b00003003200104980000000e9001049880056
:1012c000d116800000102000008060000000e000c7
:1012d00003003a00c882a9009a29ef007c29ef0098
:1012e000504c8000e80f5000040034001000200033
:1012f000404c88008a29ef000b003700504c8000da
:101300000000e00004003400504c80000000e900c0
:10131000504c880004003700b04980000000e00015
:1013200001003a008829ef00205080000000e00012
:101330000b003200b04980000000e00008003200dd
:10134000b30b0700404c80000000e00002003200b8
:101350007d0c070003003700c40b070001003700b5
:101360008429ef00b04980000000e000290032002d
:10137000244880003548800070438000814380000d
:1013800018c0b3000001be000400be0094120700a4
:101390000000e00001003c000044eb000804e00015
:1013a0001a003a00444880005548800050438000ad
:1013b0006143800018c0b3000001be000400be00fd
:1013c000871207000000e00001003c000044eb0031
:1013d0000804e0000d003a00644880007548800071
:1013e000504380006143800018c0b3000001be007c
:1013f0000400be007a1207000000e00001003c007b
:101400000044eb000804e00002003200e002a80003
:1014100037003700b04980000000e00033003200a0
:10142000704380008143800002002000030a2400f2
:10143000c91107000002be0020488000314880002a
:1014400018c0b3000001be000400be006412070013
:101450000000e00001003c000044eb000804e00054
:1014600023003200504380006143800002002000ce
:10147000030a2400b81107000002be0040488000a3
:101480005148800018c0b3000001be000400be0037
:10149000531207000000e00001003c000044eb0094
:1014a0000804e000120032005043800061438000d5
:1014b00002002000030a2400a71107000002be005a
:1014c000604880007148800018c0b3000001be0071
:1014d0000400be00421207000000e00001003c00d2
:1014e0000044eb000804e00001003200e002a90023
:1014f000fd030700604b80000000e00005003400a1
:10150000604b80000000e900604b88001000200064
:10151000af0a0700d1168000001020000080600094
:101520000000e0000f003a00001780006200600039
:101530000000e0000b003200a04980000000e00045
:1015400008003a00904b80000000e00005003a00df
:10155000c04b80000000e00002003a0010002000b4
:10156000c04b8800c04980000000e0000d00320040
:10157000a04b8000e10f500003003a007429ef00f7
:10158000c8a2a9000800370010002000a04b880066
:10159000c04480000000e00003003200c8a2a800a0
:1015a00001003700c8a2a900d04b80000000e00075
:1015b0000a003a00704b80000000e00007003a008b
:1015c00010002000704b880010002000a049880007
:1015d00010002000d04b880068003700d04b8000fe
:1015e000e70f500004003c00d04b80000000e800f2
:1015f000d04b880061003700d04b8000e80f5000ce
:101600005e003a0000498000e10f50005b003a00a4
:10161000914c80002000200000017800110009009a
:101620008200d8000000e8000a0d0700416527008d
:10163000810f500031003a0024458000354580007c
:10164000c0488000d14880000001be000400be00f8
:101650004111070002002000832c24009c11070088
:101660000002be00d0448000e14480000001be00c2
:101670000400be0070120700db110700000f7800a5
:1016800088458000994580001e007800cf80de00ec
:10169000111207000001be000800be002e11070055
:1016a0008045880091458800f84480000945800005
:1016b0001e007800cf80de00071207000001be0088
:1016c0000800be0024110700f0448800014588008e
:1016d00048458000594580001e007800cf80de001c
:1016e000fd1107000001be000800be001a1107002e
:1016f0004045880051458800110037007041800046
:1017000081418000d0448800e1448800c0488000c6
:10171000d148800002002000832c24006c110700b7
:101720000002be0070418000814180000001be00c7
:101730000400be00401207008045880091458800e3
:1017400090002000d04b88003429ef008400a900cd
:10175000ff3ffc008c00a800d11680000010200084
:10176000008060000000e00004003200704c800047
:101770000000e00001003a008400a8001204070005
:10178000404580005145800018c0b3006011b8008a
:10179000911107000000e000010035000044eb005b
:1017a0000804e000060032004045800051458000fa
:1017b00001f0a200f04488000145880004003700d1
:1017c0004045800051458000f04488000145880074
:1017d000c0488000d148800018c0b300020020003b
:1017e000632c24007e1107000000e00001003c0093
:1017f0000044eb000804e00010003200705080004c
:10180000e40f50000d003200d0448000e14480001d
:101810008045880091458800400020007050880075
:101820006000b80040458800514588006000b8005d
:10183000604588007145880048003700c048800036
:10184000d148800018c0b30002002000632a2400a1
:10185000611107000000e000010035000044eb00ca
:101860000804e0001e003200c0488000d14880001b
:1018700018c0b30002002000232a240058110700da
:101880000000e00001003c000044eb000804e00020
:101890001300320070508000e40f5000030032004b
:1018a000705080000000e0000d003a00f04480001d
:1018b00001458000d0448800e1448800d044800085
:1018c000e14480000001be00a4100700d04488005d
:1018d000e144880020002000705088001f0037007d
:1018e000c0488000d148800018c0b300020020002a
:1018f00003f82300381107000000e0000100350064
:101900000044eb000804e000140032007050800036
:101910000000e00011003200f0448000014580002a
:10192000d0448800e14488006000b8008045880009
:10193000914588006000b800a0458800b145880046
:101940000e2aef006000b80040458800514588002d
:101950006000b800604588007145880080458000bf
:101960009145800018c0b3006011b8001a1107003b
:101970000000e000010035000044eb000804e00036
:10198000060032006000b80080458800914588005c
:101990006000b800a0458800b1458800d0448000b0
:1019a000e1448000a2702d0033ba23006b100700c1
:1019b0000002be00804580009145800018c0b30041
:1019c0000001be000400be00031107000000e0009b
:1019d000010035000044eb000804e000070032007d
:1019e000d0448000e1448000a2702d0033ba23006f
:1019f0005a10070080458800914588007440800097
:101a000085408000b0408000c14080000001be00e1
:101a10000400be00881107000002be00804880005c
:101a20009148800018c0b3000001be000400be0051
:101a3000eb1007000000e00001003c000044eb0058
:101a40000804e0001f003200404980000000e00070
:101a50001c003200d4448000e544800070408000c7
:101a6000814080000001be000400be00721107002a
:101a70000002be00804580009145800018c0b30080
:101a80000001be000400be00d31007000000e0000b
:101a9000010035000044eb000804e00009003200ba
:101aa000d4448000e5448000704080008140800084
:101ab0000001be000400be005f11070080458800e1
:101ac00091458800b04980000000e0000c003a0019
:101ad0008845800099458000d0438000e143800024
:101ae0003284290013992300531107000001be001e
:101af0000800be0018100700804588009145880046
:101b00008460a9000080fa004f04be004f03be00ad
:101b10004f02be004f01be004f00be003600f9006c
:101b2000004006003600f800809fbe00829fbe0085
:101b3000849fbe00869fbe00881f78000400fa00c4
:101b4000c8c2a8006000b800008fbe0050508000de
:101b50000000e0000600340050508000e30f500009
:101b600003003200505080000000e900505088000f
:101b7000405080000000e00006003400405080002b
:101b8000e30f500003003200405080000000e900e5
:101b900040508800305080000000e0000600340013
:101ba00030508000e30f50000300320030508000be
:101bb0000000e90030508800b04a8000e70f500074
:101bc00011003400104b8000214b800002002000e7
:101bd000031024003e100700104b8800214b8800a2
:101be000104b8000214b8000d04a8800e14a8800d9
:101bf0006000b800104b8800214b88005629ef0088
:101c00003e0307000c003700144b8000254b80007a
:101c1000e0488000f14880000001be000400be00e2
:101c2000ce0f0700104b8800214b8800b04a80007f
:101c30000000e800b04a8800c04a8000e70f50006a
:101c400010003400304b8000414b80000200200027
:101c5000031024001e100700304b8800414b880001
:101c6000304b8000414b8000f04a8800014b8800d7
:101c70006000b800304b8800414b88005829ef00c5
:101c80000c003700344b8000454b800080488000ba
:101c9000914880000001be000400be00af0f0700a5
:101ca000304b8800414b8800c04a80000000e800ab
:101cb000c04a8800d44a8000e54a8000f04a80008b
:101cc000014b80000001be000400be00da100700d6
:101cd000008fbe0018c0b3006011b8001e00be0027
:101ce0003d1007000000e000010035000044eb005b
:101cf0000804e000030032001e00be0001f0a20054
:101d0000008fbe00c0478000d147800018c0b300dc
:101d10000001be001e00be00311007000000e00000
:101d200001003c000044eb000804e0000b0032001e
:101d30001e01be00c2478800d3478800f04a8000d9
:101d4000014b8000e0478800f1478800d04a8000be
:101d5000e14a80000048880011488800e04880007f
:101d6000f148800018c0b300f226210033b02300f0
:101d70001b1007000000e00001003c000044eb00e5
:101d80000804e0000b003a00e0488000f1488000c1
:101d900018c0b300f226210033b02b000e1007004c
:101da0000000e000010035000044eb000804e00002
:101db00084003200a44f8000b54f8000e0488000ce
:101dc000f14880000001be000400be009a10070028
:101dd0000002be0060458000714580000001be0029
:101de0000400be005d0f0700604588007145880053
:101df000a44f8000b54f8000e0488000f14880008b
:101e00000001be000400be008b1007000002be00ef
:101e1000a0458000b14580000001be000400be0066
:101e20004e0f0700a0458800b1458800604580003e
:101e30007145800018c0b300f226210033a82300aa
:101e4000e70f07000000e00001003c000044eb0049
:101e50000804e0000f0032006045800071458000fa
:101e6000f226210033a823003b0f070060458800bd
:101e7000714588004045800051458000f2262100d0
:101e800033a82300350f07004045880051458800de
:101e900019003700604580007145800018c0b3000c
:101ea000f226210033a82b00cb0f07000000e00032
:101eb000010035000044eb000804e0000e00320091
:101ec0006045800071458000f226210033a8230080
:101ed000220f07006045880071458800404580005a
:101ee00051458000f226210033a823001a0f070075
:101ef0004045880051458800a0458000b1458000dc
:101f000018c0b300f226210033a82300b40f070045
:101f10000000e00001003c000044eb000804e00089
:101f20000f003200a0458000b1458000f22621005c
:101f300033a82300080f0700a0458800b14588009a
:101f40008045800091458000f226210033a82300bf
:101f5000020f07008045880091458800190037006e
:101f6000a0458000b145800018c0b300f2262100d2
:101f700033a82b00980f07000000e0000100350097
:101f80000044eb000804e0000e003200a045800091
:101f9000b1458000f226210033a82300ef0e070090
:101fa000a0458800b14588008045800091458000ab
:101fb000f226210033a82300e70e070080458800a1
:101fc0009145880084c0a9000080fa004f04780081
:101fd0004f03be004f02be004f01be004f00be00c7
:101fe0003600f900004006003600f800809fbe0071
:101ff000829fbe00849fbe00869fbe000000fa0044
:10200000c8c2a800c00020009a0607008960a90085
:102010000080fa004f03be004f02be004f01be0019
:102020004f00be003600f900004006003600f80000
:10203000809fbe00829fbe00849fbe00869fbe0020
:102040000000fa00113a80000002200000806000c9
:102050000000e00005003a00004c80000000e000b5
:1020600002003a002001200082060700c8c2a80032
:10207000004c80000000e00002003a00d000200088
:102080007c06070010002000004c88008020a9007a
:102090000080fa004f03be004f02be004f01be0099
:1020a0004f00be003600f900004006003600f80080
:1020b000809fbe00829fbe00849fbe00869fbe00a0
:1020c0000000fa00c8c2a800a707070010002000ff
:1020d000804b8800e0002000660607008060a900b1
:1020e0000080fa004f03be004f02be004f01be0049
:1020f0004f00be003600f900004006003600f80030
:10210000809fbe00829fbe00849fbe00869fbe004f
:102110000000fa00c8c2a8009307070010002000c2
:10212000804b8800f0002000520607008040a90084
:102130000080fa004f03be004f02be004f01be00f8
:102140004f00be003600f900004006003600f800df
:10215000809fbe00829fbe00849fbe00869fbe00ff
:102160000000fa00c8c2a8007f0707001000200086
:10217000804b8800000120003e0607008080a900f7
:102180000080fa004f03be004f02be004f01be00a8
:102190004f00be003600f900004006003600f8008f
:1021a000809fbe00829fbe00849fbe00869fbe00af
:1021b0000000fa00c8c2a8006b070700100020004a
:1021c000804b8800100120002a0607000080fa00da
:1021d0004f03be004f02be004f01be004f00be00c5
:1021e0003600f900004006000400fa0010079800cd
:1021f0000000eb00000f7800180037001e00900070
:102200001e004000cc09070000000000013b8000d8
:1022100000002800008060000000e000fbff3a00a2
:102220001e007800800040000080200000804000f8
:10223000900078001e0090001e004000df0907009b
:1022400000000000013b80000000280000806000ca
:102250000000e000fbff3a001e0fe800914c8000f8
:102260002000200000017800110009008200d80041
:102270009e0f5000e1ff3d001e0078000080fa0034
:10228000000006000400fa00100798000000eb00b0
:10229000000f78000a0037001e0090001e0040006a
:1022a000ec090700800078001e0078000001400063
:1022b0000080200000004100010878001e0fe800a7
:1022c000914c8000200020000001780011000900de
:1022d0008200d8009e0f5000efff3d000080fa0002
:1022e000000006000400fa00100798000000eb0050
:1022f000000f7800200037001e0090001e004000f4
:102300008d09070000000000013b8000000028004c
:10231000008060000000e000fbff3a001e00780033
:102320000000e00005003a001e0090001e00400082
:1023300041652700a1090700090037001e00780049
:10234000800040002088200000804000900078003d
:102350001e0090001e0040009809070000000000c9
:10236000013b800000002800008060000000e000c9
:10237000fbff3a001e0fe800a14c80002000200067
:1023800000017800110009008200d8009e0f500063
:10239000d9ff3d001e0078000080fa000000060012
:1023a0000400fa00100798000000eb00000f78000e
:1023b0000a0037001e0090001e004000a50907001b
:1023c000800078001e007800000140002088200076
:1023d00000004100010878001e0fe800a14c8000b9
:1023e0002000200000017800110009008200d800c0
:1023f0009e0f5000efff3d000080fa000000060035
:102400000400fa000000eb00000f78000000eb0071
:102410001007980000802000000f7800008820003e
:10242000100798001e0090001e0050000080fa0067
:10243000000006000400fa000000eb00000f780026
:102440000000eb001007980020882000000f7800a3
:10245000808b2000100798001e0090001e00500086
:102460000080fa00000006000000fa00c04880006a
:10247000d14880002045880031458800914c80007b
:102480002000200000017800110009008200d8001f
:102490000000e80093ff0700d442a9000080fa0082
:1024a000000006000000fa0003003700f04b800037
:1024b0000000e800f04b8800f04b8000e30f400084
:1024c000faff3600914f800050a52a00808f5000ff
:1024d00001003a008900070050a52a00904f8800ab
:1024e0000080fa00000006000000fa00d11680000b
:1024f00000102000008060000000e0000d003a00a5
:1025000000178000620060000000e0000900320057
:10251000a0498000e10f500006003200904b80007f
:10252000e10f500003003200b04b8000e10f50007b
:1025300023003a0010002000c0498800604c800051
:102540000000e00004003200504c800065004000b4
:10255000504c88008c29ef00c04b8000e10f5000e8
:1025600003003a007029ef008029ef007829ef007e
:10257000804b80000000e00007003a0010002000bf
:10258000b0498800d04980000000e00019003a00fe
:10259000380c07001a003700730607003629ef00d1
:1025a0009c29ef009a29ef009829ef00e04980006c
:1025b0000000e00011003a00fb0c0700100037009b
:1025c00010002000604c8800670607003829ef00e3
:1025d0003629ef009c29ef009a29ef009829ef0097
:1025e000e04980000000e00005003a00ee0c070022
:1025f0000300370000000000010037000000000069
:102600000080fa00000006000000fa0000148000bc
:10261000e30f400003003600d0012000150507003d
:102620004606070000148000e10f500003003e0042
:10263000e00120000f05070040060700101480008d
:10264000e30f400003003600f001200009050700f9
:102650003a06070010148000e10f500003003e000e
:102660000002200003050700340607002014800044
:10267000e30f40000400360010022000fd040700b4
:1026800050002000a047880020148000e10f500077
:1026900004003e0020022000f60407005000200045
:1026a000a047880030148000e30f4000020036008d
:1026b00030022000ef04070030148000e10f5000ca
:1026c00002003e0040022000ea040700401480009f
:1026d000e30f40000200360050022000e50407002e
:1026e00040148000e10f500002003e006002200014
:1026f000e00407000080fa00000006000000fa0075
:10270000003a8000620060000000e0000300320038
:102710004027a90030012000d6040700003a8000bd
:10272000700060000000e000030032004087a90054
:1027300040012000cf040700013a8000000028007b
:10274000008060000000e0000300320041e7a900c3
:1027500050012000c7040700013a80000000240057
:10276000008060000000e0000300320041c7a900c3
:1027700060012000bf040700013a8000000820002b
:10278000008060000000e0000300320040e7a90084
:1027900070012000b7040700013a80000004200007
:1027a000008060000000e0000300320040c7a90084
:1027b00080012000af04070090012000ad04070055
:1027c0000080fa00000006000000fa00889fbe00aa
:1027d000d0408000e140800002002000030024007f
:1027e000dd0c07000002be00804880009148800098
:1027f00018c0b3000001be000400be00780d070041
:102800000000e00001003d000044eb000804e0008f
:10281000040032006000b800c0488800d148880039
:1028200033003700e0488000f148800018c0b30052
:10283000d2cc2c00c3d42300670d07000000e000b9
:10284000010035000044eb000804e00028003200dd
:10285000e0488000f148800018c0b300d2cc2c00c2
:10286000c3d42b005e0d07000000e00001003c0017
:102870000044eb000804e0001d00320080488000a6
:1028800091488000a0488800b1488800a448800092
:10289000b5488000d0408000e14080000001be00cb
:1028a0000400be00ac0c07000004be00b440800071
:1028b000c5408000d0408000e14080000001be00a3
:1028c0000400be00a40c07000001be000800be000a
:1028d000ff0c070002002000832c2400d60d070007
:1028e000c0488800d14888001000200000498800b6
:1028f0004f04be000080fa00000006000400fa0049
:102900006000b800008fbe00d04a8000e14a80001d
:1029100001f0a200008fbe00704b8000e40f500059
:102920000f003a00d0438000e14380000001be0068
:102930001e00be00880c0700804788009147880071
:1029400050002000704b8800a0478000e50f500029
:102950000200320010002000a04788003429ef0058
:10296000704b8000e10f500008003a006000b80092
:1029700080478800914788007b05070040002000c1
:10298000704b880010002000a04988000080fa00e9
:10299000000006002000fa00881f78006000b800e0
:1029a000008fbe006000b800200798003107980033
:1029b0006000b80040079800510798006000b80018
:1029c0006007980071079800e2488000f348800093
:1029d0004207980053079800e2488000f3488000bf
:1029e00062079800730798000000200001f8230098
:1029f000f046880001478800244880003548800060
:102a0000d0428000e142800018c0b3000001be0047
:102a10000400be00f20c07000000e00001003c00d2
:102a20000044eb000804e0000d003a002448800058
:102a30003548800090428000a142800018c0b30059
:102a40000001be000400be00e30c07000000e0002f
:102a5000010035000044eb000804e00004003200ef
:102a6000d0cc2c00c1f42300f04688000147880038
:102a700024488000354880007042800081428000f8
:102a800018c0b3000001be000400be00d20c070055
:102a90000000e000010035000044eb000804e00005
:102aa000040032000000200001f02300f0468800fe
:102ab0000147880014418000254180008045800046
:102ac000914580000001be000400be005a0d0700c1
:102ad0000002be00f0468000014780000001be00f9
:102ae0000400be00540d0700008fbe00304180007e
:102af0004141800018c0b3000001be001e00be00ae
:102b0000b50c07000000e000010035000044eb00b8
:102b10000804e0000d003a00244880003548800099
:102b2000704280008142800018c0b3000001be00e6
:102b30000400be00a80c07000000e0000100350002
:102b40000044eb000804e000030032003241800042
:102b500043418000028fbe0018c0b3006011b8006e
:102b60004e009000de0090009b0c07000000e0008b
:102b7000010035000044eb000804e00006003200cc
:102b80004e009000de00900001f0a2004007980087
:102b900051079800030037006000b8004007980014
:102ba000510798000000200001f82300f04688003b
:102bb000014788002448800035488000304280006a
:102bc0004142800018c0b3000001be000400be00f6
:102bd000830c07000000e00001003c000044eb0013
:102be0000804e0000d003a002448800035488000c9
:102bf000f04180000142800018c0b3000001be0017
:102c00000400be00740c07000000e0000100350065
:102c10000044eb000804e00004003200d0cc2c009b
:102c2000c1f42300f0468800014788005441800029
:102c30006541800070418000814180000001be003c
:102c40000400be00fc0c07000002be00f04680003d
:102c5000014780000001be000400be00f60c070022
:102c600020079800310798002448800035488000ec
:102c7000104280002142800018c0b3000001be0055
:102c80000400be00560c07000000e00001003c00fc
:102c90000044eb000804e0000d003a0024488000e6
:102ca00035488000d0418000e141800018c0b30069
:102cb0000001be000400be00470c07000000e00059
:102cc000010035000044eb000804e000030032007e
:102cd0006000b800200798003107980018c0b300c2
:102ce0006011b8006e009000fe0090003a0c0700e2
:102cf0000000e000010035000044eb000804e000a3
:102d0000030032006000b800600798007107980067
:102d10007629ef00d11680000010200000806000ae
:102d20000000e000ff003200d04b8000e90f5000af
:102d3000fc003a00c882a800804b8000e10f5000e0
:102d400006003200e0c2a80050508000e30f50009f
:102d500002003a0020002000505088006000b800b7
:102d6000200f9800310f98003047800041478000c5
:102d70000200200003f02300770b0700200f9800cb
:102d8000310f9800e14b8000f0e12400808f50006b
:102d90001c003c006011b8006e009000fe00900026
:102da0000d0c07000000e00016003a00001780003c
:102db000620060000000e0001200320080488000e5
:102dc0009148800018c0b3002e099000be09900001
:102dd000010c07000000e000010035000044eb009a
:102de0000804e00007003200505080000000e000be
:102df00004003a00e04b80000000e800e04b88004f
:102e000015003700e14b8000f0e12400808f500076
:102e10000b00340000178000620060000000e0003a
:102e200007003200b001200012030700100020004c
:102e3000804b88007c29ef00e0c2a9000600370023
:102e4000e04b80000000e00003003400e04b800015
:102e50000000e900e04b880018c0b300a2702d000c
:102e600033c223006e009000fe009000dc0b0700d0
:102e70000000e00001003c000044eb000804e0001a
:102e800011003a003047800041478000a299290094
:102e900093e12300300b07000002be008048800051
:102ea0009148800018c0b3000001be000400be00bd
:102eb000c90b07000000e000010034000044eb00f3
:102ec0000804e000040032005042800061428000ab
:102ed000d10107000c0037006011b8006e009000af
:102ee000fe009000bc0b07000000e00006003a0066
:102ef000e04c80000000e00003003400e04c800063
:102f00000000e900e04c88006000b800000f980065
:102f1000110f98003047800041478000d2cc2c0030
:102f2000c3d423000d0b07000002be0080488000c0
:102f30009148800018c0b3000001be000400be002c
:102f4000a50b07000000e000010035000044eb0085
:102f50000804e00002003200f628ef0013003700fa
:102f60003047800041478000d2cc2c00c3d42300de
:102f7000f90a07000002be008048800091488000e6
:102f800018c0b3000001be000400be00940b07008f
:102f90000000e00001003c000044eb000804e000f9
:102fa0000200320010002000b0478800b0478000c7
:102fb0000000e000050032002e019000be019000ec
:102fc000020f9800130f9800030037006000b8004c
:102fd000000f9800110f9800a0478000e20f5000ea
:102fe0004e003200505080000000e0004b003a00dc
:102ff000d04c80000000e00011003400b0408000a0
:10300000c1408000a2702d0033c22300d20a070005
:103010000002be00804880009148800018c0b300c4
:103020000001be000400be006b0b07000000e000c2
:10303000010034000044eb000804e0000e003a00f8
:10304000a2702d0033c223000e0890009e0890004d
:10305000c20a070018c0b3006e019000fe01900084
:103060005d0b07000000e000010035000044eb00ac
:103070000804e00004003200d04c80000000e900a9
:10308000d04c880023003700d14c8000400620003f
:10309000808f500011003c00b0408000c140800093
:1030a00092c22500f3d82300ab0a07000002be003d
:1030b000804880009148800018c0b3000001be0025
:1030c0000400be00460b07000000e00001003c00c9
:1030d0000044eb000804e0000b003a0018c0b30005
:1030e0000e0990009e0990006e009000fe00900076
:1030f000390b07000000e000010035000044eb0040
:103100000804e00003003200d04c80000000e8001a
:10311000d04c880000000000090037009a29ef0019
:1031200007003700c882a9009a29ef00d821ef00d4
:10313000e0c2a90030002000505088007c29ef0038
:1031400000178000620060000000e0000300320011
:10315000904b8000e10f50000e013a00d04b8000f0
:10316000e90f50000400320061508000f05f25003c
:10317000808f500007013a00804b8000e10f500023
:1031800007003200d422a800c902a80040508000e5
:10319000e30f500002003a00200020004050880059
:1031a000d116800000102000008060000000e000c8
:1031b00003003a00f042800001438000160107003e
:1031c00061508000f05f2500808f500003003a00be
:1031d000b04c8000c04c8800f9003700405080009f
:1031e0000000e000f5003a006000b800400f9800d1
:1031f000510f98002448800035488000b04280007c
:10320000c14280000001be000400be00520a070057
:10321000400f9800510f980000508000115080001e
:103220004e099000de099000830b07000002be00eb
:1032300030468000414680000001be000400be0010
:103240007d0b07000002be00b0468000c146800032
:103250000001be000400be00400a0700b04688001e
:10326000c1468800b4468000c5468000b04080005a
:10327000c140800018c0b3000001be000400be00c1
:10328000d70a07000000e00001003c000044eb000a
:103290000804e00005003200b0408000c14080001a
:1032a000b0468800c146880011003700b44680004f
:1032b000c5468000d0408000e140800018c0b300c7
:1032c0000001be000400be00c30a07000000e000c9
:1032d000010035000044eb000804e0000400320067
:1032e000d0408000e1408000b0468800c1468800a0
:1032f0006000b800600f9800710f9800844880004b
:1033000095488000b0468000c14680000001be00a4
:103310000400be00100a0700600f9800710f9800ab
:10332000e04f8000f14f80006e099000fe09900090
:10333000410b07000002be0030468000414680007d
:103340000001be000400be003b0b07000002be00ef
:1033500090468000a14680000001be000400be002f
:10336000fe09070090468800a1468800904680002c
:10337000a146800018c0b3001e01be00980a0700d5
:103380000000e00001003c000044eb000804e00005
:10339000040032001e01be0092468800a346880049
:1033a0000d00370090468000a146800018c0b30091
:1033b0006011b800880a07000000e0000100350035
:1033c0000044eb000804e000030032006000b80095
:1033d00090468800a146880094468000a54680005b
:1033e000b0418000c141800018c0b3000001be00a0
:1033f0000400be007a0a07000000e00001003c0063
:103400000044eb000804e00004003200b0418000fa
:10341000c141800090468800a14688009046800007
:10342000a14680004e019000de019000ca0907000d
:103430000002be00c04f8000d14f80000001be00de
:103440000400be00fc0a0700504688006146880060
:10345000504680006146800018c0b300020024007e
:10346000c36124005e0a07000000e00001003c0088
:103470000044eb000804e0000500320000002400d6
:10348000c161240050468800614688000f00370063
:10349000504680006146800018c0b300020024003e
:1034a000c3612c004c0a07000000e0000100350059
:1034b0000044eb000804e000040032000000240097
:1034c000c1612c0050468800614688003446800067
:1034d0004546800050468000614680000001be00e5
:1034e0000400be00d40a07000002be00704680003f
:1034f000814680000001be000400be00970907005d
:1035000070468800814688007046800081468000b1
:1035100018c0b30002002000e32b2400300a07008b
:103520000000e00001003c000044eb000804e00063
:103530000500320000002000e12b240070468800c6
:10354000814688000d00370070468000814680006b
:1035500018c0b3006011b8001f0a07000000e000a7
:10356000010035000044eb000804e00003003200d5
:103570006000b80070468800814688007046800070
:1035800081468000180a070000007800c04c8800bf
:103590000b0037009829ef00da21ef006000b80037
:1035a0007046880081468800300020004050880026
:1035b000c902a900d422a9000100370000000000c0
:1035c000b04980000000e00005003a009c29ef00af
:1035d000d621ef00cfe2a900300020003050880053
:1035e000804b8000e10f500002003a005e020700ad
:1035f00006003700e04c8000b00e8800d04c800000
:10360000c00e8800c04c8000d00e88004f047800a7
:103610000080fa00000006000400fa00881f78000d
:10362000008fbe00a0478000e30f50003d003a002d
:103630000200200003f023001e00be004609070020
:103640000002be00204880003148800018c0b3004e
:103650000001be000400be00e10907000000e00018
:1036600001003c000044eb000804e00011003200bf
:10367000e14c800070478000808f50000d003d00bd
:10368000305080000000e00003003a00e04c800071
:103690000000e800e04c8800cfe2a8003050800035
:1036a000e30f50001f003a00200020003050880037
:1036b0001c0037000200200003f023001e00be00a3
:1036c000260907000002be00204880003148800023
:1036d00018c0b3000001be000400be00be09070010
:1036e0000000e000010035000044eb000804e000a9
:1036f0000c003200e04c80000000e00009003400c3
:10370000e04c80000000e900e04c8800e04c8000c4
:103710000000e00001003c00cfe2a90030002000e2
:10372000305088004f0478000080fa000000060046
:103730000800fa0020079800310798003e01900029
:10374000812d2b0030002000830507000000eb00d6
:10375000000f7800c0448000ea0f500005003400dc
:103760003e019000912e2b00300020007a050700ca
:10377000be003700c04480000000e000b6003a0000
:103780003e01900011312b0030002000720507002f
:10379000b60037001e0078008000400040882000fe
:1037a00000804000100078006101b9000080eb004b
:1037b0008080eb000200400083804800520220001d
:1037c00003002000820f5000838f580099003e00b4
:1037d000006001002500370027003700290037006e
:1037e0002b0037002d0037002f0037003100370045
:1037f0003300370035003700370037003900370015
:103800003b0037003d0037003f00370041003700e4
:1038100043003700450037004700370049003700b4
:103820004b0037004d0037004f0037005100370084
:103830005300370055003700570037005900370054
:103840005b0037005d0037005f0037006100370024
:1038500063003700650037006700370069003700f4
:103860006b0037006d0037006f003700001c2b0025
:103870001007980072003700801c2b00100798007a
:103880006f003700001d2b00100798006c003700f8
:10389000801d2b001007980069003700f01d2b00d9
:1038a0001007980066003700a01e2b001007980034
:1038b00063003700201f2b001007980060003700be
:1038c000901f2b00100798005d003700f01f2b00a1
:1038d000100798005a00370050202b00100798005e
:1038e00057003700d0202b001007980054003700f5
:1038f00000212b00100798005100370040212b00b9
:10390000100798004e003700d0212b0010079800b8
:103910004b00370060222b0010079800480037004a
:10392000e0222b00100798004500370060232b0091
:103930001007980042003700c0232b0010079800a2
:103940003f00370030242b00100798003c00370060
:10395000a0242b001007980039003700e0242b002a
:10396000100798003600370030252b00100798000c
:1039700033003700a0252b001007980030003700d7
:10398000f0252b00100798002d00370080262b0013
:10399000100798002a003700e0262b001007980037
:1039a00027003700b0272b001007980024003700ad
:1039b00080282b00100798002100370020292b00b9
:1039c000100798001e00370080292b001007980070
:1039d0001b003700e0292b00100798001800370063
:1039e000402a2b001007980015003700a02a2b0052
:1039f0001007980012003700002b2b0010079800ca
:103a00000f003700602b2b00100798000c003700c8
:103a1000d02b2b001007980009003700402c2b00fa
:103a20001007980006003700a02c2b001007980004
:103a300003003700002d2b00100798000000000045
:103a40003e0190009e00900010002000c20407007c
:103a50001e0fe8000100370000000000c044800095
:103a60009e007800808f50004aff35000080fa00e9
:103a7000000006000200fa00000f7800c044800039
:103a8000e90f500009003c00c04480008000400065
:103a900040882000008040001e087800c04480005c
:103aa0000000e800c044880002003700b000200099
:103ab000c04488000080fa00000006000400fa00fc
:103ac000881f7800a0478000e20f50006c003a0089
:103ad000b0498000e10f500069003a006000b80072
:103ae000008fbe008448800095488000e048800038
:103af000f14880000001be000400be004e0907002e
:103b000001f0a200008fbe0090438000a14380001e
:103b100018c0b3000001be001e00be00ae080700c2
:103b20000000e000010035000044eb000804e00064
:103b30004c003200cfe2a800305080000000e000ce
:103b400042003a00704780000000e800704788009b
:103b500070478000b00e880071478000f00520009b
:103b6000808f50000a00340010002000c1ff0700c1
:103b700040002000a0478800120020001e00be0068
:103b8000d2040700cfe2a9003000200030508800a6
:103b90007147800020032000808f50001400340003
:103ba00018c0b30002002000030024001e00be0065
:103bb000890807000000e000010035000044eb0028
:103bc0000804e0000a00320020002000a9ff0700de
:103bd00040002000a0478800120020001e00be0008
:103be000ba040700cfe2a90030002000305088005e
:103bf00070478000e40f500014003c0018c0b30070
:103c000002002000031224001e00be0074080700fa
:103c10000000e00001003c000044eb000804e0006c
:103c20000a0032003000200092ff07004000200010
:103c3000a0478800120020001e00be00a304070059
:103c4000cfe2a900300020003050880030508000c2
:103c5000e30f50000a003a00200020003050880096
:103c60000700370030002000a0478800d621ef0071
:103c70003429ef00cfe2a900300020003050880046
:103c8000a0478000e10f50000e003a00704b80000a
:103c9000e50f50000b003a00d621ef007506070033
:103ca000b100070010002000a0498800ee28ef00b6
:103cb0009c29ef0020002000a04788003000200051
:103cc00030508800a0478000e40f500004003a0004
:103cd000d621ef00ee28ef009c29ef003429ef00f9
:103ce0004f0478000080fa00000006000000fa008f
:103cf000881f7800844880009548800090408000ac
:103d0000a140800018c0b3000001be000400be0046
:103d1000330807000000e00001003d000044eb0014
:103d20000804e000030032007000200051ff07008b
:103d3000820007008448800095488000f0408000a1
:103d40000141800018c0b3000001be000400be00a5
:103d5000210807000000e000010035000044eb00ee
:103d60000804e00008003200d11680000010200096
:103d7000008060000000e00003003a0040002000e6
:103d80003cff070019070700e0488000f148800069
:103d900018c0b3006011b8000f0807000000e00071
:103da000010035000044eb000804e000060032008a
:103db000e0488000f148800001f0a200204988001e
:103dc00031498800030037006000b80020498800ae
:103dd00031498800244980003549800090418000a5
:103de000a141800018c0b3000001be000400be0065
:103df000fb0707000000e00001003c000044eb006e
:103e00000804e0000a00320010498000e50f50006d
:103e1000040034005000200016ff07004700070090
:103e20002229ef00104980000000e80010498800b6
:103e3000e4488000f548800010478000214780005a
:103e400018c0b3000001be000400be00e407070074
:103e50000000e00001003c000044eb000804e0002a
:103e6000030032006000200002ff0700330007005b
:103e700024488000354880001043800021438000a2
:103e800018c0b3000001be000400be00d407070044
:103e90000000e00001003c000044eb000804e000ea
:103ea0000300320080002000f2fe0700230007001c
:103eb00064488000754880003043800041438000a2
:103ec00018c0b3000001be000400be00c407070014
:103ed0000000e00001003c000044eb000804e000aa
:103ee0000300320090002000e2fe070013000700ec
:103ef00044488000554880003043800041438000a2
:103f000018c0b3000001be000400be00b4070700e3
:103f10000000e00001003c000044eb000804e00069
:103f200003003200a0002000d2fe070003000700bb
:103f30004f0478000080fa00000006000000fa003c
:103f40000900070010002000804b88007229ef0054
:103f50003429ef007629ef00b0002000c5fe0700ed
:103f60000080fa00000006000000fa00d621ef00f1
:103f7000d821ef00da21ef00d422a9003000200080
:103f800040508800e002a900e0c2a90030002000f3
:103f900050508800cfe2a900300020003050880047
:103fa000c902a9009c29ef009a29ef009829ef0087
:103fb0006000b80090468800a14688006000b80004
:103fc00070468800814688000080fa0000000600e4
:103fd0000200fa00000f78001e017800b1322b00b9
:103fe000300020005c03070080488000914880007a
:103ff0001e017800b50307001e01780041332b0035
:104000000000eb00540307001e01780061332b0011
:104010003000200050030700a0488000b148800015
:104020001e017800a90307001e01780041332b0010
:104030000000eb00480307001e017800f1332b005d
:1040400030002000440307003047800041478000d3
:104050001e0178009d0307001e01780041332b00ec
:104060000000eb003c0307001e01780091342b0098
:104070003000200038030700d04a8000e14a800069
:104080001e017800910307001e017800f1342b0017
:104090000000eb00300307001e01780011352b00f3
:1040a000300020002c03070040458000514580006f
:1040b0001e017800850307001e017800b1352b0032
:1040c0000000eb00240307001e017800e1352b00ff
:1040d0003000200020030700c0478000d147800047
:1040e0001e017800790307001e01780061362b005d
:1040f0000000eb0018030700e0478000f147800054
:104100001e017800710307001e017800d1362b00d4
:104110000000eb00100307000048800011488000f9
:104120001e017800690307001e017800f1342b009e
:104130000000eb00080307001e01780051372b0038
:104140003000200004030700204880003148800030
:104150001e0178005d0307001e01780001382b0066
:104160000000eb00fc0207001e01780021382b0044
:1041700030002000f802070060488000714880008d
:104180001e017800510307001e01780001382b0042
:104190000000eb00f00207001e017800d1382b0070
:1041a00030002000ec0207004048800051488000a9
:1041b0001e017800450307001e01780001382b001e
:1041c0000000eb00e40207001e01780061392b00bb
:1041d00030002000e0020700804780009147800007
:1041e0001e017800390307001e017800f1342b000e
:1041f0000000eb00d80207001e017800113a2b00e6
:1042000020002000d40207000080fa000000060011
:104210000000fa00310480000020200000806000cf
:104220000000e0000f003a00204c80000000e00099
:104230000c003a00c0c0b300c0e9b70020c1b30011
:10424000c1e9b700e0c0b300c2e9b700be29ef0082
:1042500020002000e04d88008720a80010002000ea
:10426000204c88000080fa00000006000400fa00dc
:10427000881f78003104800000202000008060004a
:104280000000e000ad003a00204c8000e10f50003b
:10429000aa003a00be29ef00f14d8000009c2000ea
:1042a0000080400061c1b300014878001000200088
:1042b000f04d880080488000914880003200200046
:1042c0000203070060002000f04d8800320020004b
:1042d000313a2b000000eb009f0207008000200015
:1042e000f04d880010002000904d8800f44a8000b6
:1042f000054b8000d04a8000e14a80000001be00ea
:104300000400be004c07070032002000ef02070047
:10431000d0002000f04d880032002000613a2b00d0
:104320000000eb008c020700f0002000f04d880038
:104330006000b800008fbe00844580009545800075
:10434000d0448000e14480000001be000400be00b3
:104350005f06070002002000832c240036070700b8
:10436000008fbe0018c0b30002002000832c240080
:104370001e00be009a0607000000e00001003d009c
:104380000044eb000804e0000e0032003200200080
:10439000113a2b000000eb006f02070032002000f2
:1043a0001e00be00c902070040012000f04d880039
:1043b00032002000913a2b000000eb00660207005b
:1043c00009003700320020001e00be00bf020700b7
:1043d00040012000f04d880032002000913a2b006f
:1043e0000000eb005c02070050012000f04d880047
:1043f000300020009b03070030002000cb030700a3
:1044000070012000f04d880032002000b13a2b00ee
:104410000000eb005002070090012000f04d8800e2
:10442000b229ef002048800031488000320020008f
:10443000a6020700e0012000f04d880032002000b5
:10444000f13a2b000000eb004302070000022000bd
:10445000f04d880018c0b3000200200003122400b1
:104460001e00be005c0607000000e00001003500f1
:104470000044eb000804e0000d003200a04b800077
:104480000000e0000500320032002000413b2b001c
:104490000000eb0030020700090037003200200066
:1044a000013c2b000000eb002b020700040037004a
:1044b00032002000013c2b000000eb002602070028
:1044c000a0022000f04d8800c04480000000e00001
:1044d0000d003200a04b80000000e000050032001b
:1044e00032002000c13c2b000000eb001a02070044
:1044f0000a00370032002000113a2b000000eb00c8
:10450000150207000500370032002000113a2b0089
:104510000000eb00100207008629ef0020c1b30065
:10452000ece9b700e0c0b300ede9b700be29ef0049
:10453000d0022000e04d88008720a8004f047800ba
:104540000080fa00000006000400fa00881f7800ce
:104550003104800000202000008060000000e000a6
:10456000f2003a00204c8000e10f5000ef003a00ca
:10457000be29ef00f14d8000009c2000008040002b
:1045800061c1b3000148780010002000f04d8800a0
:104590008048800091488000320020004b020700d4
:1045a00060002000f04d880032002000313a2b00de
:1045b0000000eb00e801070080002000f04d8800bb
:1045c00010002000904d8800f44a8000054b8000c8
:1045d000d04a8000e14a80000001be000400be0015
:1045e000950607003200200038020700d0002000a6
:1045f000f04d880032002000613a2b000000eb00f3
:10460000d5010700f0002000f04d88006000b800e0
:10461000008fbe008445800095458000d044800016
:10462000e14480000001be000400be00a8050700b0
:1046300002002000832c24007f060700008fbe00ac
:1046400018c0b30002002000832c24001e00be000e
:10465000e30507000000e00001003d000044eb001e
:104660000804e0000e00320032002000113a2b0056
:104670000000eb00b8010700320020001e00be0061
:104680001202070040012000f04d88003200200097
:10469000913a2b000000eb00af0107000900370042
:1046a000320020001e00be0008020700400120006a
:1046b000f04d880032002000913a2b000000eb0002
:1046c000a501070050012000f04d880030002000b7
:1046d000e4020700300020001403070070012000ee
:1046e000f04d8800d04a8000e14a800018c0b30035
:1046f000d2cc2c00c3dc2300b90507000000e00089
:1047000001003c000044eb000804e000050032001a
:1047100032002000e13c2b000000eb008e0107007e
:1047200014003700d04a8000e14a800018c0b3006e
:10473000d2cc2c00c3dc2b00a70507000000e00052
:10474000010035000044eb000804e00005003200e1
:1047500032002000413d2b000000eb007e010700ed
:104760000400370032002000a13d2b000000eb00c8
:1047700079010700c0012000f04d8800e04c800066
:104780000000e0000500340032002000013e2b0054
:104790000000eb0070010700040037003200200029
:1047a000913e2b000000eb006b010700400220004f
:1047b000f04d8800c04480000000e000520032004c
:1047c000a04b80000000e00021003200c0448000c7
:1047d0008000e900304c8000808f500002003c00d7
:1047e0008629ef0003003700304c80000000e8000d
:1047f000304c8800c04480008000e900304c8000cc
:10480000808f500005003a0032002000213f2b002d
:104810000000eb005001070023003700304c8000ff
:104820000000e00005003a0032002000a13f2b000c
:104830000000eb00480107001b0037003200200099
:1048400021402b000000eb00430107001600370059
:10485000c04480008000e900304c8000808f500010
:1048600005003a0032002000213f2b000000eb0041
:10487000390107000c003700304c80000000e000d8
:1048800005003a0032002000a13f2b000000eb00a1
:1048900031010700040037003200200021402b00c6
:1048a0000000eb002c010700304c8000800040002d
:1048b000408820000080400090007800000f200019
:1048c00080806000000120000001780011000900d4
:1048d0008200d800e5000700e9e9b700304c80000d
:1048e00080004000408820000080400010007800d8
:1048f0006f006000dd000700eae9b70080c6b30082
:10490000ebe9b7000500370032002000a1402b0082
:104910000000eb00100107008629ef00be29ef0020
:10492000b0022000e04d88008720a8004f047800e6
:104930000080fa00000006000400fa00100798004a
:104940000000eb00000f78009e009000f01f200098
:10495000808f500002003400100020001500370046
:104960001e00900000004000000f78009e007800bc
:1049700000c02f0000804000000f7800f0072000ea
:10498000203b88001e007800103b88004004240073
:10499000003b880050052000303b8800a00a200022
:1049a000303b8800000000000000000061e7a80024
:1049b0000000eb000080fa00000006000600fa008c
:1049c00010079800210798000000eb00000f780006
:1049d0009e009000f01f2000808f500002003400e5
:1049e00010002000190037001e0090000000400059
:1049f000000f78009e00780000c02f00008040006b
:104a0000000f7800f0072000100088009101880056
:104a10002e009000200088001e0078000000880012
:104a20000208bb0040002400003b88005005200025
:104a3000303b8800a00a2000303b880000000000c6
:104a40000000000061e7a8000000eb000080fa0011
:104a5000000006000400fa00100798000000eb00b8
:104a6000000f78009e009000f01f2000808f500003
:104a7000020034000000eb000f0037001e00900021
:104a800000004000000f78009e00780000c02f005a
:104a900000804000000f7800f0c7b30032e0b7009c
:104aa0001e007800000088001002ba00000000001c
:104ab00000000000400080000080fa0000000600b6
:104ac0000200fa00881f7800000f78001e007800ae
:104ad000e10f500017003a00304c80008000400089
:104ae000408820000080400090007800000f2000e7
:104af00080806000000120000001780011000900a2
:104b00008200d800590007000000fb0080108800d8
:104b1000304c800080004000408820000080400031
:104b2000100078006f006000500007000000fb00dc
:104b3000801088001e007800e20f500017003a0035
:104b4000304c800080004000408820000080400001
:104b500090007800000f200080806000000120009d
:104b600000017800110009008200d8003f00070012
:104b70000000fb00d0108800304c80008000400016
:104b80004088200000804000100078006f00600026
:104b9000360007000000fb00d01088001e007800df
:104ba000e30f500029003a00f14d8000c0022000c0
:104bb000808f500003003c00f04d80000000e800b2
:104bc000f04d8800f84d8000304c8000800040009f
:104bd000408820000080400090007800000f2000f6
:104be00080806000000120000001780011000900b1
:104bf0008200d8001d000700019c200081004400b5
:104c000080487800f14d8000c0022000808f500065
:104c100003003c00f04d80000000e800f04d8800eb
:104c2000f84d8000304c800080004000408820001b
:104c300000804000100078006f0060000b0007004b
:104c4000019c200081004400804878001e0078000c
:104c50000000e00002003a00a001200085fb0700f0
:104c60004f0478000080fa00000006000600fa00f9
:104c7000200798000040eb00004f78000000eb0098
:104c8000100798002e0090006f0060001007980039
:104c90001e009000e90f500005003c001e0090002f
:104ca000004078000043b000004f78000400370057
:104cb0001e009000004078007043b000004f780064
:104cc0001e4078000080fa00000006000400fa0090
:104cd000004f780011079800010037000000000025
:104ce0007110800000202000008060000000e000c3
:104cf00006003a001e009000e10f500003003a0049
:104d00001e00fb008010880011003700c1108000d9
:104d100000202000008060000000e00006003a0053
:104d20001e009000e20f500003003a001e00fb003e
:104d3000d0108800060037001e0090000000e00040
:104d4000e6ff3a00a00120004afb07000000000037
:104d50000080fa00000006000800fa001007980022
:104d600021079800320798000000eb00000f780040
:104d70001e009000e10f5000030032001e00900062
:104d8000e30f50003e003a003e009000350107005e
:104d90003e009000650107003a0037007110800066
:104da00000202000008060000000e0000a003a00bf
:104db0003e009000e10f500007003a001e0078000e
:104dc000ae00900000804000104078000000fb0022
:104dd000801088001e0fe800c11080000020200015
:104de000008060000000e0000a003a003e009000f1
:104df000e20f500007003a001e007800ae0090005d
:104e000000804000104078000000fb00d0108800b7
:104e10001e0fe8003e009000e30f500010003a0023
:104e2000f14d8000c0022000808f500003003c0044
:104e3000f04d80000000e800f04d8800f24d800049
:104e40001e007800ae009000008040009040780086
:104e5000009c200000004100014878001e0fe8007f
:104e60003e0090000000e00006003a00a001200093
:104e700000fb07000000eb00000f78000700370080
:104e8000000000001e007800ae009000008040008e
:104e9000104078000004e000c0ff3a001e009000bf
:104ea000e20f5000030032001e009000e30f50009c
:104eb00004003a003e009000ea0007003e00900027
:104ec0001a0107000080fa00000006001000fa0036
:104ed000881f7800500798006107980072079800b3
:104ee0000000eb00000f78006000b8001007980089
:104ef000210798000000eb004007980000c2b300b3
:104f0000b4e9b70018c0b3006011b8005e009000ab
:104f1000ee009000b00307000000e0000100350043
:104f20000044eb000804e000070032005e0090003f
:104f3000ee00900001f0a200500798006107980071
:104f4000d0c2b300b4e9b70018c0b300f2ff230029
:104f5000c36124005e009000ee009000a0030700f3
:104f60000000e00001003c000044eb000804e00009
:104f700006003200f0ff2300c161240050079800b2
:104f800061079800f0c3b300b4e9b7000200200045
:104f9000a34724005e009000ee0090004c03070041
:104fa00010079800210798001e0fe8001e00370028
:104fb0001e007800e50f500003003a00e0c2b30085
:104fc000b9e9b7001e0fe8001e009000ae00900087
:104fd00085030700400798004e00900000407800cd
:104fe0000043b00080407800409b20001e0040003d
:104ff000014878001e0fe8004e009000cf80de00d0
:10500000b50307000001be001e009000ae00900036
:10501000d10207000200200003122400060407004a
:1050200010079800210798001e007800e80f500034
:10503000dfff34000000eb00000f780010002000bc
:105040003007980080003700409b20001e00400081
:105050009040780000c3b30080cf50002f003a008a
:105060003e0090000000e0002c003200904d8000d7
:105070000000e000270032007110800000202000b6
:10508000008060000000e00006003a007e00900012
:10509000e10f500003003a00000220008010880059
:1050a0001e0fe800c110800000202000008060007a
:1050b0000000e00006003a007e009000e20f500081
:1050c00003003a0000022000d01088001e0fe80004
:1050d0007e009000e30f500046003a00f14d800042
:1050e000c0022000808f500003003c00f04d800083
:1050f0000000e800f04d8800f14d8000009c200089
:105100000080400001c2b300014878001e0fe80093
:10511000390037001e0fe80037003700711080009b
:1051200000202000008060000000e00009003a003c
:105130007e009000e10f500006003a00409b2000e6
:105140001e004000104078000000fb008010880026
:105150001e0fe800c11080000020200000806000c9
:105160000000e00009003a007e009000e20f5000cd
:1051700006003a00409b20001e00400010407800ce
:105180000000fb00d01088001e0fe8007e00900099
:10519000e30f50000f003a00f14d8000c0022000e4
:1051a000808f500003003c00f04d80000000e800bc
:1051b000f04d8800f24d8000409b20001e00400012
:1051c00090407800009c20000000410001487800d9
:1051d0001e0fe8007e0090000000e00006003a008c
:1051e000a001200023fa07000000eb00000f780068
:1051f0001800370000000000409b20001e00400007
:105200009040780000c3b30080cf50000e00320001
:10521000409b20001e00400090407800d0c2b300a8
:1052200080cf500008003200409b20001e0040004c
:105230009040780000c2b30080cf500002003200de
:105240000000eb00300798001e007800e80f5000c7
:105250007dff3400b229ef004f0478000080fa008f
:10526000000006000200fa00000f7800010037007d
:10527000000000007110800000202000008060000d
:105280000000e00006003a001e007800e10f500028
:1052900003003a00a00020008010880021003700a1
:1052a000c110800000202000008060000000e000ad
:1052b00006003a001e007800e20f500003003a009a
:1052c000a0002000d0108800160037001e007800d3
:1052d000e30f50000d003a00f14d8000c0022000a5
:1052e000808f500003003c00f04d80000000e8007b
:1052f000f04d8800f14d8000009c200000804000af
:10530000a1c0b30001487800060037001e007800f5
:105310000000e000d6ff3a00a0012000d5f9070008
:10532000000000000080fa00000006000200fa0001
:10533000000f7800010037000000000071108000ad
:1053400000202000008060000000e00006003a001d
:105350001e007800e10f500003003a00d00020004a
:105360008010880021003700c1108000002020003c
:10537000008060000000e00006003a001e00780097
:10538000e20f500003003a00d0002000d010880047
:10539000160037001e007800e30f50000d003a00a1
:1053a000f14d8000c0022000808f500003003c00bf
:1053b000f04d80000000e800f04d8800f14d8000c5
:1053c000009c200000804000d1c0b300014878005c
:1053d000060037001e0078000000e000d6ff3a000b
:1053e000a0012000a3f90700000000000080fa00df
:1053f000000006001200fa005007980061079800ac
:1054000072079800030f980002402200439724007f
:105410007e0090008e08900007030700008fbe00fa
:105420005e019000ee0190001e00be002802070001
:1054300002002000031824002502070002002000bb
:1054400003f82300c40107002007980031079800e3
:105450002e009000be0090008402070040079800d4
:105460004e0090000080fa00000006000000fa00e4
:105470007056240000408800000020008134240081
:1054800010408800214088000000200001182400fe
:105490003040880041408800d04d2200e1072c00b8
:1054a00050408800614088006066260061f6230055
:1054b0007040880081408800c01e2500c12624005d
:1054c00090408800a140880030332300b12624009a
:1054d000b0408800c1408800d0cc2c00c1212400fd
:1054e000d0408800e140880000002000c120240056
:1054f000f0408800014188000000200001002400e5
:10550000104188002141880000002000010a240089
:1055100030418800414188000000200001f0230054
:10552000504188006141880000002000011b2400d8
:10553000704188008141880000002000011f240084
:1055400090418800a141880000002000811c2400b7
:10555000b0418800c14188000000200001122400f1
:10556000d0418800e141880000002000011724009c
:10557000f041880001428800000020000122240040
:10558000104288002142880000002000c120240031
:10559000304288004142880000002000811c240025
:1055a00050428800614288006000b8007042880064
:1055b00081428800000020000112240090428800ef
:1055c000a142880000002000c1252400b0428800cc
:1055d000c14288000000200081242400d0428800bd
:1055e000e14288000000200001172400f0428800fa
:1055f0000143880000002000012724001043880098
:105600002143880000002000012a24003043880044
:10561000414388000000200081242400504388007a
:105620006143880000002000011f240070438800af
:1056300081438800000020008124240090438800da
:10564000a143880060ba290041c42300b043880008
:10565000c1438800d0cc2c00c1d42300d0438800a3
:10566000e143880080072000f04388000080fa00b2
:10567000000006000000fa00889fbe00113a80007a
:10568000f08f2f00008060000080a000103a88009a
:105690004207a8004227a90010ff2f00901688009b
:1056a000d622ef00d442a800f0082000301688006f
:1056b000ca22ef00cc22ef00d022ef000080eb00e6
:1056c000c0168800e0fb2f00f0168800e222ef00f1
:1056d00060002000000e8800c221ef0010032000af
:1056e000200e8800c621ef00f00f2000400e880039
:1056f000ca21ef0010182800600e8800d021ef00aa
:1057000000f02f00a00e8800d621ef00d821ef0076
:10571000da21ef000e22ef000c22ef00a0508000f3
:10572000b1508000c4508000d55080000001be0000
:105730000400be002fff0700a01088000d42a80043
:105740001822ef0019e2a8001622ef00a0508000f6
:10575000b1508000e4508000f55080000001be0090
