:020000040000fa
:080000000001040000000000f3
:020000040000fa
:04000800c22f000003
:020000040000fa
:04000c00e60a000000
:020000040000fa
:040010002e0b0000b3
:020000040000fa
:04001400560b000087
:020000040000fa
:04001800820b000057
:020000040000fa
:04001c00c22f0000ef
:020000040000fa
:04002000c22f0000eb
:020000040000fa
:04002400aa0b000023
:020000040000fa
:04002800c80100000b
:020000040000fa
:04002c00c22f0000df
:020000040000fa
:04003000c22f0000db
:020000040000fa
:040034004c04000078
:020000040000fa
:04003800c22f0000d3
:020000040000fa
:04003c00c22f0000cf
:020000040000fa
:04004000b207000003
:020000040000fa
:040044005c09000053
:020000040000fa
:04004800c22f0000c3
:020000040000fa
:04004c00e2090000c5
:020000040000fa
:04005000260a00007c
:020000040000fa
:04005400d2010000d5
:020000040000fa
:04005800c22f0000b3
:020000040000fa
:04005c00c22f0000af
:020000040000fa
:04006000c22f0000ab
:020000040000fa
:04006400c22f0000a7
:020000040000fa
:040068000609000085
:020000040000fa
:04006c00c22f00009f
:020000040000fa
:04007000c22f00009b
:020000040000fa
:04007400c22f000097
:020000040000fa
:04007800c22f000093
:020000040000fa
:04007c007209000005
:020000040000fa
:04008000bc090000b7
:020000040000fa
:04008400c22f000087
:020000040000fa
:04008800040a000066
:020000040000fa
:04008c00700a0000f6
:020000040000fa
:04009000c22f00007b
:020000040000fa
:04009400c22f000077
:020000040000fa
:04009800c22f000073
:020000040000fa
:04009c00c22f00006f
:020000040000fa
:0400a000c22f00006b
:020000040000fa
:0400a400c22f000067
:020000040000fa
:0400a800c22f000063
:020000040000fa
:0400ac00c22f00005f
:020000040000fa
:0400b000c22f00005b
:020000040000fa
:0400b400c22f000057
:020000040000fa
:0400b800c22f000053
:020000040000fa
:0400bc00c22f00004f
:020000040000fa
:0400c000c22f00004b
:020000040000fa
:0400c400c22f000047
:020000040000fa
:0400c800c22f000043
:020000040000fa
:0400cc00c22f00003f
:020000040000fa
:0400d000c22f00003b
:020000040000fa
:0400d400be0a000060
:020000040000fa
:0400d800c22f000033
:020000040000fa
:04010800c22f000002
:020000040000fa
:04010c00c22f0000fe
:020000040000fa
:04011000c22f0000fa
:020000040000fa
:04011400c22f0000f6
:020000040000fa
:04011800c22f0000f2
:020000040000fa
:04011c00c22f0000ee
:020000040000fa
:04012000c22f0000ea
:020000040000fa
:04012400c22f0000e6
:020000040000fa
:04012800c22f0000e2
:020000040000fa
:04012c00c22f0000de
:020000040000fa
:04013000c22f0000da
:020000040000fa
:04013400c22f0000d6
:020000040000fa
:04013800c22f0000d2
:020000040000fa
:04013c00c22f0000ce
:020000040000fa
:04014000c22f0000ca
:020000040000fa
:04014400c22f0000c6
:020000040000fa
:04014800c22f0000c2
:020000040000fa
:04014c00c22f0000be
:020000040000fa
:04015000c22f0000ba
:020000040000fa
:04015400c22f0000b6
:020000040000fa
:04015800c22f0000b2
:020000040000fa
:04015c00c22f0000ae
:020000040000fa
:04016000c22f0000aa
:020000040000fa
:04016400c22f0000a6
:020000040000fa
:04016800c22f0000a2
:020000040000fa
:04016c00c22f00009e
:020000040000fa
:04017000c22f00009a
:020000040000fa
:04017400c22f000096
:020000040000fa
:04017800c22f000092
:020000040000fa
:04017c00c22f00008e
:020000040000fa
:04018000c22f00008a
:020000040000fa
:04018400c22f000086
:020000040000fa
:04018800c22f000082
:020000040000fa
:04018c00c22f00007e
:020000040000fa
:04019000c22f00007a
:020000040000fa
:04019400c22f000076
:020000040000fa
:04019800c22f000072
:020000040000fa
:04019c00c22f00006e
:020000040000fa
:0401a000c22f00006a
:020000040000fa
:0401a400c22f000066
:020000040000fa
:0401a800c22f000062
:020000040000fa
:0401ac00c22f00005e
:020000040000fa
:0401b000c22f00005a
:020000040000fa
:0401b400c22f000056
:020000040000fa
:0401b800c22f000052
:020000040000fa
:0401bc00c22f00004e
:020000040000fa
:0401c000c22f00004a
:020000040000fa
:0401c400c22f000046
:020000040000fa
:0401c800c22f000042
:020000040000fa
:0401cc00c22f00003e
:020000040000fa
:0401d000c22f00003a
:020000040000fa
:0401d400c22f000036
:020000040000fa
:0401d800c22f000032
:020000040000fa
:100200002fae20000ebf20000e018800000000006d
:10021000000020000000e000020032000001200089
:100220002002880014000700581707000000e000b3
:1002300003003a00a06b23000100200002003700f9
:100240000000200001002000810f7000010032003a
:1002500014000700000020000000e000020032004f
:1002600000000200000000007e2f020000000000dd
:100270000040da000000fe004440a9006036200083
:100280000000e0000300320000002000a001880010
:100290004440a800000006008a1f78008b1f7800e9
:1002a0000000060091018800800478000000eb0047
:1002b0001a003700e284440032a0b4009905ba0065
:1002c000e284440032a0b4009906ba00e2844400fb
:1002d00032a0b4000006eb00476fde00fd07b2005d
:1002e000636ce10003003a00ebff07000000eb0045
:1002f0000a003700606ce10004003a00005deb008a
:100300008b05e900fdff3e00040037006168e10055
:10031000010032000086eb000b00070019c7ba008d
:100320001905ba000e04e00003003a000a00e000dc
:10033000e0ff3a0000000600fe07b2009e018800c0
:100340008a047800f5ff3700395dba008b05e900b3
:100350000c003200295dba008b05e900080032006c
:100360000c00e00003003a00e284440032a0b40034
:10037000f5ff370019ddba008b05e900faff3a00f6
:100380008904e800e184440032a0b40000000600c3
:100390000000fa00cac2a8008400a9000080fa0088
:1003a000004006003600f800809fbe00829fbe001d
:1003b000849fbe00869fbe000000fa00cac2a8004b
:1003c00066c9bf00e74f5000dc003400604b80007e
:1003d000714b800002002000031024004a17070020
:1003e000604b8800714b8800604b8000714b80002f
:1003f0000200200003702400e5160700604b88000f
:10040000714b8800604b8000714b8000020020001f
:10041000037024003c170700604b8800714b880074
:10042000604b8000714b800002002000030224001a
:100430000f180700604b8800714b8800604b8000ec
:10044000714b8000a2702d0033d223002e170700bd
:100450000002be00c04a8000d14a80000001be00f8
:100460000400be00cb16070060498800714988006f
:100470006e1307006000b800604b8800714b880065
:10048000404b8000514b800002c02c00c37c2400f4
:100490001d170700404b8800514b8800444b8000db
:1004a000554b8000404a8000514a80000001be0048
:1004b0000400be00141707000002be005040800078
:1004c000614080000001be000400be00b1160700bc
:1004d000a0488800b14888006000b800404b880000
:1004e000514b8800804b8000914b800002c02c0053
:1004f000c37c240004170700804b8800914b8800c0
:10050000804b8000914b8000f2282c0053ef230099
:100510009f160700804b8800914b8800804b80001d
:10052000914b800042722900f3c72300f6160700a2
:1005300080498800914988006000b800804b88009d
:10054000914b8800a04b8000b14b800002c02c0072
:10055000c37c2400ec160700a04b8800b14b880038
:10056000a04b8000b14b8000f2282c0053ef2300f9
:1005700087160700a04b8800b14b8800a04b800075
:10058000b14b800042722900f3c72300de1607003a
:10059000c0498800d14988006000b800a04b88009d
:1005a000b14b8800c04b8000d14b800002c02c00b2
:1005b000c37c2400d4160700c04b8800d14b8800b0
:1005c000c04b8000d14b8000f2282c0053ef230059
:1005d0006f160700c04b8800d14b8800c04b8000cd
:1005e000d14b800042722900f3c72300c6160700d2
:1005f000a0498800b14988006000b800c04b88005d
:10060000d14b8800a0498000b1498000c0498800d2
:10061000d14988006669ef00a2c9bf006840600048
:100620000004e00005003200a2c9bf000042b20091
:100630000004e00001003a009d120700a2c9bf00bb
:10064000624060000004e0002c003a00a2c9bf0034
:100650000042b2000004e00028003a0004c9bf00d4
:10066000e54f5000010032002212070004c9bf000c
:10067000e24f500003003c0004c9bf000004e0004a
:1006800018003a009ec9bf00684060000004e00006
:10069000140032008ec9bf00e34f500011003a0031
:1006a0000c14070008150700a2c9bf000042b200e1
:1006b0000004e000020032002513070007003700a5
:1006c000c841a800d04c8000b00e8800c04c80000b
:1006d000c00e8800b04c8000d00e880000000000e2
:1006e000090037009ec9bf00684060000004e000b8
:1006f00004003a0016130700030037001413070024
:1007000001003700000000009ec9bf006840600083
:100710000004e00007003a00a2c9bf006840600082
:100720000004e00003003200a1e2a900a269a900d0
:1007300051003700a269a8004f003700a2c9bf00ce
:10074000684060000004e0003900320000148000be
:100750008000eb00f11607000002be00404b800055
:10076000514b80000001be000400be0009160700c6
:10077000404b8800514b8800101480008000eb0033
:10078000e61607000002be00604b8000714b80003f
:100790000001be000400be00fe150700604b88008b
:1007a000714b8800201480008000eb00db160700ee
:1007b0000002be00804b8000914b80000001be0013
:1007c0000400be00f3150700804b8800914b8800a1
:1007d000301480008000eb00d01607000002be003d
:1007e000a04b8000b14b80000001be000400be00a1
:1007f000e8150700a04b8800b14b8800401480002a
:100800008000eb00c51607000002be00c04b800050
:10081000d14b80000001be000400be00dd150700c2
:10082000c04b8800d14b8800141107000f0037001f
:100830006000b800404b8800514b88006000b80051
:10084000604b8800714b88006000b800804b8800c6
:10085000914b88006000b800a04b8800b14b880025
:100860006000b800c04b8800d14b880066c9bf004b
:100870000040e80066e9b7008560a9000080fa0042
:100880004f03be004f02be004f01be004f00be002e
:100890003600f900004006003600f800809fbe00d8
:1008a000829fbe00849fbe00869fbe00889fbe00c0
:1008b0008a1f78000200fa00cac2a80070108000e7
:1008c000620060000000e0000a003200d002200058
:1008d000641107000200370090108000004f78007c
:1008e00070108000610060000000e000faff3a0034
:1008f0000e22a900c0108000620060000000e0002d
:100900000a003200e0022000561107000200370002
:10091000e010800010479800c01080006100600067
:100920000000e000faff3a001822a900a1e2a800a6
:10093000c0030700071307000f10070095100700fa
:100940007a0f07009ec9bf00684060000004e00005
:1009500006003200f04380000040780089e9b700cb
:10096000b0c3b300d2eab70011003700d2cabf004b
:100970000004e0000b003c00b0c3b300d2eab700b3
:1009800089c9bf000004e00002003c00a229a800c1
:100990000700370089c9bf000040e90089e9b700b6
:1009a00003003700d2cabf000040e900d2eab70016
:1009b000505480000000e0000e00340090418000a0
:1009c000a1418000e24a8000f34a800018c0b300d1
:1009d000111607000000e00001003c000044eb009d
:1009e0000804e00003003200505480000000e900d9
:1009f00050548800d1168000001020000080600054
:100a00000000e00003003a00ca82a9009829ef0024
:100a1000c22aef009ec9bf00684060000004e000e9
:100a2000290032008449800095498000704380008d
:100a30008143800018c0b3000001be000400be0066
:100a4000f51507000000e00001003c000044eb0049
:100a50000804e0001a003a00a4498000b54980006b
:100a6000504380006143800018c0b3000001be0005
:100a70000400be00e81507000000e00001003c0093
:100a80000044eb000804e0000d003a00c449800077
:100a9000d5498000504380006143800018c0b300f6
:100aa0000001be000400be00db1507000000e000ee
:100ab00001003c000044eb000804e00002003200aa
:100ac000e202a800350037009ec9bf006840600000
:100ad0000004e0003000320088498000994980001d
:100ae000704380008143800002002000030a24003c
:100af000271507001ac0b3000001be000800be00a1
:100b0000c31507000000e000010035000045eb00c0
:100b10000a04e00021003200a8498000b9498000a1
:100b2000504380006143800002002000030a24003b
:100b3000171507001ac0b3000001be000800be0070
:100b4000b31507000000e000010035000045eb0090
:100b50000a04e00011003200c8498000d949800031
:100b6000504380006143800002002000030a2400fb
:100b7000071507001ac0b3000001be000800be0040
:100b8000a31507000000e000010035000045eb0060
:100b90000a04e00001003200e202a9009ec9bf0081
:100ba000704060000004e00003003a0010002000e4
:100bb00060548800a2a9a9009ec9bf0070406000cf
:100bc0000004e0000d0032009ec9bf0061406000db
:100bd0000004e000030032009e09a900caa2a90097
:100be000070037009e09a800004880000000e000d0
:100bf00003003200caa2a80001003700caa2a9005f
:100c00002047800031478000ee020700e046880060
:100c1000f1468800a04a8000b14a800018c0b300a5
:100c200002002000632c24007b1507000000e00078
:100c300001003c000044eb000804e0000d0032001d
:100c4000d1cabf00e44f50000a003200c046800005
:100c5000d1468000404788005147880040c0b3001b
:100c6000d1eab7006000b80020478800314788000b
:100c700042003700a04a8000b14a800018c0b3008b
:100c800002002000632a2400611507000000e00034
:100c9000010035000044eb000804e0001e003200b3
:100ca000a04a8000b14a800018c0b30002002000b2
:100cb000232a2400581507000000e00001003c0032
:100cc0000044eb000804e00013003200d1cabf006a
:100cd000e44f500003003200d1cabf000004e0001e
:100ce0000d003a00e0468000f1468000c0468800d2
:100cf000d1468800c0468000d14680000001be0079
:100d0000a4140700c0468800d146880020c0b30064
:100d1000d1eab70019003700a04a8000b14a80002c
:100d200018c0b3000200200003f8230038150700a4
:100d30000000e000010035000044eb000804e00082
:100d40000e003200d1cabf000004e0000b003200e8
:100d5000e0468000f1468000c0468800d146880009
:100d60006000b8004047880051478800d16aef0012
:100d70006000b80020478800314788004047800065
:100d80005147800018c0b3006011b800201507005b
:100d90000000e000010035000044eb000804e00022
:100da000030032006000b8004047880051478800c7
:100db0004847800059478000c0468000d1468000e7
:100dc000a2702d0033ba2300721407001ac0b300ba
:100dd0000001be000800be000f1507000000e00083
:100de00001003c000045eb000a04e000070032006f
:100df000c0468000d1468000a2702d0033ba230087
:100e0000641407004047880051478800a8488000c4
:100e1000b94880007440800085408000b040800068
:100e2000c14080000001be000400be009015070014
:100e30001ac0b3000001be000800be00f414070091
:100e40000000e000010035000045eb000a04e0006e
:100e50001e00320060c9bf000004e0001b00320029
:100e60004847800059478000c4468000d54680002e
:100e700070408000814080000001be000400be0080
:100e80007b1507001ac0b3000001be000800be00b9
:100e9000e11407000000e00001003c000045eb0009
:100ea0000a04e00009003200c4468000d5468000f4
:100eb00070408000814080000001be000400be0040
:100ec0006b15070040478800514788009ec9bf0046
:100ed000684060000004e0000c003a0048478000d1
:100ee00059478000d0438000e143800032842900cc
:100ef000139923005e1507000001be000800be0024
:100f00002314070040478800514788004447800069
:100f100055478000c0468000d14680000001be00d9
:100f20000400be007814070002002000832c240077
:100f30004f15070080488800914888008460a90008
:100f40000080fa004f0578004f04be004f03be003a
:100f50004f02be004f01be004f00be003600f90038
:100f6000004006003600f800809fbe00829fbe0051
:100f7000849fbe00869fbe00889fbe000400fa00ca
:100f8000cac2a800044a8000154a80002049800097
:100f9000314980000001be000400be003415070086
:100fa0004049880051498800d0cabf000004e000d1
:100fb00006003400d0cabf00e34f500003003200e7
:100fc000d0cabf000040e900d0eab700cfcabf00d6
:100fd0000004e00006003400cfcabf00e34f500019
:100fe00003003200cfcabf000040e900cfeab700db
:100ff000cecabf000004e00006003400cecabf0025
:10100000e34f500003003200cecabf000040e900a9
:10101000ceeab7007cc9bf00e74f50001f00340084
:10102000f04b8000014c80000200200003102400df
:1010300035140700f04b8800014c8800f04b80000d
:10104000014c8000004a8800114a8800104c800042
:10105000214c800002002000031024002a14070005
:10106000104c8800214c8800104c8000214c8000de
:1010700020498800314988006000b800104c880081
:10108000214c88006000b800f04b8800014c8800bb
:101090007c69ef00300207001100370060498000d2
:1010a00071498000f24b8000034c8000b9130700a7
:1010b000f04b8800014c8800a0488000b1488000b7
:1010c000124c8000234c8000b2130700104c8800a3
:1010d000214c88007cc9bf000040e8007ce9b700d3
:1010e000044a8000154a8000204980003149800070
:1010f0000001be000400be00dd140700b1010700be
:10110000008fbe00e0488000f148800018c0b300a6
:101110001e01be003e1407000000e0000100350083
:101120000044eb000804e0000b0032001e01be008a
:10113000e2488800f3488800204980003149800057
:101140000049880011498800004a8000114a800047
:10115000e0498800f14988006049800071498000b9
:101160009801070018c0b300f226210033b0230015
:10117000291407000000e00001003c000044eb00df
:101180000804e0001800320028478000394780003a
:10119000604980007149800012052a0013812300f4
:1011a000b31407000001be000800be007913070059
:1011b0002047880031478800484780005947800011
:1011c000604980007149800012052a0013812300c4
:1011d000a71407000001be000800be006d13070041
:1011e000404788005147880084c0a9000080fa0069
:1011f0004f04be004f03be004f02be004f01be00b1
:101200004f00be003600f900004006003600f8002e
:10121000809fbe00829fbe00849fbe00869fbe004e
:10122000889fbe000000fa00cac2a80050088000d3
:101230008000eb0039140700104b8800214b880018
:101240000a21ef009ec9bf00624060000004e00078
:101250000f003200b8438000c9438000104b80006b
:10126000214b800002f02f00f3772400a613070023
:101270000001be000800be00a3130700020020000a
:10128000135624007a1407006048880071488800cb
:101290009e29a8008600a9000080fa004f04be0025
:1012a0004f03be004f02be004f01be004f00be0004
:1012b0003600f90000400600809fbe000000fa00e2
:1012c000cac2a8006000b800604888007148880061
:1012d0009e29a90084e0a9000080fa004f00be000a
:1012e000004006003600f800809fbe00829fbe00ce
:1012f000849fbe00869fbe000000fa00cac2a800fc
:10130000100c07000000e00009003200ca0a0700c4
:1013100030548000e40f5000020034000c0e07002f
:1013200003003700305480000000e800305488008b
:101330002154800080702000808f500003003a000c
:101340001c0c0700842aef000300370020548000a3
:101350000000e8002054880086a0a9000080fa0060
:101360004f03be004f02be004f01be004f00be0043
:101370003600f900004006003600f800809fbe00ed
:10138000829fbe00849fbe00869fbe000000fa00c0
:10139000cac2a8000000eb00ef0607001000200002
:1013a000ed06070086c0a9000080fa004f03be00ca
:1013b0004f02be004f01be004f00be003600f900d4
:1013c000004006003600f800809fbe00829fbe00ed
:1013d000849fbe00869fbe000000fa00cac2a8001b
:1013e0000000eb00500807008520a9000080fa00eb
:1013f0004f03be004f02be004f01be004f00be00b3
:101400003600f900004006003600f800809fbe005c
:10141000829fbe00849fbe00869fbe000000fa002f
:10142000cac2a800100020003f0807008700a900da
:101430000080fa004f03be004f02be004f01be0005
:101440004f00be003600f900004006003600f800ec
:10145000809fbe00829fbe00849fbe00869fbe000c
:101460000000fa00cac2a80009003700914e8000af
:10147000609d200000804000104078000000fb00cc
:1014800080108800904e80000000e800904e880098
:101490007110800000202000008060000000e0004b
:1014a00005003a00914e8000d0c9bf000000fb004b
:1014b000808f5000edff39000000eb00490107006c
:1014c0008540a9000080fa004f03be004f02be0015
:1014d0004f01be004f00be003600f900004006007c
:1014e0003600f800809fbe00829fbe00849fbe0031
:1014f000869fbe000000fa00cac2a8000b00370099
:10150000a04e8000c103200080804000609d20002c
:1015100000804000104078000000fb00d0108800e0
:10152000a04e80000000e800a04e8800c11080009e
:1015300000202000008060000000e00005003a006c
:10154000a14e8000d1c9bf000000fb00808f500079
:10155000ebff390010002000220107008720a900be
:101560000080fa004f03be004f02be004f01be00d4
:101570004f00be003600f900004006003600f800bb
:10158000809fbe00829fbe00849fbe00869fbe00db
:101590000000fa00cac2a8006d0f0700a2a9a800a7
:1015a000c00020002f0e0700730a07008960a90001
:1015b0000080fa004f03be004f02be004f01be0084
:1015c0004f00be003600f900004006003600f8006b
:1015d000809fbe00829fbe00849fbe00869fbe008b
:1015e0000000fa00113a8000000220000080600034
:1015f0000000e00006003a00a2c9bf000044b200ab
:101600000004e00002003a0020012000150e07004f
:10161000cac2a8004e0f0700a2a9a800a2c9bf0015
:101620000044b2000004e00002003200d0002000bc
:101630000c0e0700a2c9a8004f0a07008020a900cd
:101640000080fa004f03be004f02be004f01be00f3
:101650004f00be003600f900004006003600f800da
:10166000809fbe00829fbe00849fbe00869fbe00fa
:101670000000fa00cac2a800350f0700a2a9a800fe
:10168000e0002000f70d07003b0a07008060a9007a
:101690000080fa004f03be004f02be004f01be00a3
:1016a0004f00be003600f900004006003600f8008a
:1016b000809fbe00829fbe00849fbe00869fbe00aa
:1016c0000000fa00cac2a800f0bf20000001880094
:1016d0001f0f0700a2a9a800f0002000e10d0700dd
:1016e000250a07008040a9000080fa004f03be00d1
:1016f0004f02be004f01be004f00be003600f90091
:10170000004006003600f800809fbe00829fbe00a9
:10171000849fbe00869fbe000000fa00cac2a800d7
:101720000b0f0700a2a9a80000012000cd0d0700a3
:10173000110a07008080a9000080fa004f03be0054
:101740004f02be004f01be004f00be003600f90040
:10175000004006003600f800809fbe00829fbe0059
:10176000849fbe00869fbe000000fa00cac2a80087
:10177000f70e0700a2a9a80010012000b90d07006c
:10178000fd0907000080fa004f03be004f02be00b3
:101790004f01be004f00be003600f90000400600b9
:1017a0000000fa00a04a8000b14a8000004788008b
:1017b00011478800f0090700d642a9000080fa000e
:1017c000000006000400fa00881f7800008fbe00a9
:1017d00018c0b3006011b8001e00be008c120700d4
:1017e0000000e000010035000044eb000804e000c8
:1017f000030032001e00be0001f0a200010037000d
:101800001e00be004f0478000080fa0000000600b1
:101810000000fa006000b800a04a8800b14a8800c1
:101820006000b800804a8800914a88000080fa0071
:10183000000006000000fa00889fbe008a1f7800a2
:101840006049800071498000deff070018c0b300c6
:10185000d2cc2c00c3d423006d1207000000e0009e
:10186000010035000044eb000804e00021003200d4
:101870009ec9bf000044b2000004e0001d003a0011
:10188000a0488000b1488000804a8800914a8800c2
:10189000844a8000954a8000d0408000e14080006a
:1018a0000001be000400be00b91107000004be0024
:1018b000b4408000c5408000d0408000e1408000fe
:1018c0000001be000400be00b11107000001be000f
:1018d0000800be000c12070002002000832c240028
:1018e000e3120700a04a8800b14a88009f49a80077
:1018f00015003700a8488000b9488000d04080001b
:10190000e1408000d2cc2c00c3d42300a1110700f9
:101910001ac0b3000001be000800be003c12070060
:101920000000e000010034000045eb000a04e00084
:1019300003003200b6ff07009f49a80002003700ed
:10194000b3ff07009f49a9004f0578004f04be0070
:101950000080fa00000006000400fa00004a80003f
:10196000114a800001f0a200008fbe0086c9bf00ae
:10197000e44f50000f003a00d0438000e143800064
:101980000001be001e00be0081110700c04a880091
:10199000d14a880050c0b30086e9b70004c9bf002f
:1019a000e54f50000200320010c0b30004e9b70058
:1019b0009e49a90086c9bf00e14f500007003a00c8
:1019c0006000b800c04a8800d14a8800600e070055
:1019d00040c0b30086e9b7009e49a8000080fa0025
:1019e000000006000200fa00000f78001e007800d8
:1019f00080004000209d2000008040009000780082
:101a0000009d20001e004000104078000000fb00f8
:101a1000808f50000e0039001e00780080004000ca
:101a2000209d2000008040008000eb00010878002d
:101a3000009d20001e0040008040eb00014878001f
:101a400020a620001e0040008040eb0001487800e6
:101a50000080fa00000006000600fa002007980047
:101a60000040eb00004f78000000eb0010079800ea
:101a70002e0090006f006000100798001e0090007c
:101a8000e90f500005003c001e0090000040780067
:101a90000043b000004f7800040037001e009000a3
:101aa000004078007043b000004f78001e4078007e
:101ab0000080fa00000006000200fa00000f780023
:101ac0001e007800e10f500009003400a001200042
:101ad000e40c07001e0078008000400020a52000d4
:101ae000008040008000eb00010878000f00370004
:101af00020a620001e004000104078000004e000f6
:101b0000090032001e0078000000e00003003200ef
:101b100080022000d30c0700040037007002200070
:101b2000d00c070001003700000000000080fa0020
:101b3000000006000600fa00881f780010079800d1
:101b4000210798002e009000dbff07009e00900008
:101b500000002f00008060004c00de008040780014
:101b60002e0090004201dd00a09b200000004100fb
:101b7000014878009e00900000f020008080600006
:101b80000010200000017800110009008200d80038
:101b9000804078002e0090004201dd00b09b2000c4
:101ba00000004100014878009e009000000f2000d6
:101bb0008080600000012000000178001100090011
:101bc0008200d800804078002e0090004201dd00a5
:101bd000c09b200000004100014878001e009000da
:101be00000407800ef4060002e0090004201dd00d0
:101bf000d09b20000000410001487800ae0090001a
:101c000040a620000080400011c0b30001487800c9
:101c10002e00900080004000209d200000804000a9
:101c200010017800ae009000c00320000088b900c9
:101c30000000780082004000609d2000008040008d
:101c400001c3b300014878002e00900080004000de
:101c5000209d200000804000100078008000e800f7
:101c60002e00900000014000209d20000000410057
:101c7000010878002e00900080004000209d200088
:101c80000080400010017800ae009000c0032000ea
:101c90000088b9000000780082004000609d2000ac
:101ca0000080400081c7b300014878002e009000fa
:101cb00080004000209d200000804000100078003f
:101cc0008000e8002e00900000014000209d2000d0
:101cd00000004100010878000000eb00000f7800d0
:101ce0002a0037002e00900080004000209d200038
:101cf00000804000100478002e0090004200dd00bb
:101d00009e004000a09b2000008040001040780012
:101d10000000fb0050ff070000417800ae0090007b
:101d2000c00320000088b90000007800880040004f
:101d3000609d200000804000024878002e00900046
:101d400080004000209d200000804000900078002e
:101d5000a0032000808f50000b003e002e0090005a
:101d600080004000209d200000804000100078008e
:101d70008000e8002e00900000014000209d20001f
:101d800000004100010878001e0fe8001e007800e6
:101d9000e30f5000d3ff34002e009000800040007d
:101da000209d2000008040001000780080407800d6
:101db0002e019000009d20000000410001487800a5
:101dc000ae00900040a62000008040008040eb0064
:101dd000014878004f0478000080fa0000000600f7
:101de0000200fa00000f780020a620001e0040002c
:101df000104078000004e00011003a0020a6200006
:101e00001e00400011c0b300014878001e00780099
:101e100080004000209d2000008040008000eb00fa
:101e2000010878001e0078000000e0000200320087
:101e30008720a800030037008540a8000100370074
:101e4000000000000080fa00000006000400fa0014
:101e5000000f7800110798001e00900016ff070081
:101e60009e00900040a620000080400011c0b300fa
:101e7000014878001e00900080004000e0a420008f
:101e8000008040008000eb0001087800320037003d
:101e90001e00900080004000209d20000080400037
:101ea000900178001e00900080004000e0a4200017
:101eb00000804000100078001e00400010417800b3
:101ec0009e009000c00320000088b9000000780048
:101ed00083004000609d20000080400002487800a0
:101ee0001e00900080004000209d200000804000e7
:101ef00090007800a0032000808f50000b003e006f
:101f00001e00900080004000209d200000804000c6
:101f1000100078008000e8001e00900000014000e2
:101f2000209d200000004100010878001e00900064
:101f300080004000e0a420000080400010007800f5
:101f40008000e8001e00900000014000e0a4200096
:101f500000004100010878001e0090008000400051
:101f6000e0a4200000804000100078001e00400027
:101f7000104078000004e000c5ff3a001e00900009
:101f800080004000209d200000804000100078006c
:101f9000804078001e019000009d2000000041005c
:101fa000014878009e00900040a62000008040007c
:101fb0008040eb00014878000080fa000000060035
:101fc0000200fa00000f78001e0078008000400038
:101fd000209d200000804000900178001e007800c5
:101fe0008000400020a52000008040001001780003
:101ff0001e0078006700b9000000780082004000f1
:10200000209c200000804000104178009e00780055
:10201000c00320000088b900000078008300400061
:10202000609d200000804000024878001e0078007b
:1020300080004000209d200000804000900078003b
:10204000a0032000808f50000b003e001e0078008f
:1020500080004000209d200000804000100078009b
:102060008000e8001e00780000014000209d200054
:1020700000004100010878000080fa00000006001e
:102080000800fa00889fbe001007980021079800fa
:10209000320798003e0090008000400020a52000fc
:1020a000008040008000eb000108780081a520003e
:1020b0003e0090004200dd00008140006000b8005a
:1020c0000089be00be00900000a6200000804000f5
:1020d0008040eb00014878000000eb00000f780022
:1020e0003e0090006700b90080007800209c20002e
:1020f0000080400001c2b3000148780018c0b3005e
:102100006011b8001e009000ae0090004010070063
:102110000000e000010035000044eb000804e0008e
:102120000e0032001e009000ae00900001f0a200f0
:1021300010079800210798003e0090006700b90042
:1021400080007800209c200000804000d1c2b300b5
:102150000148780010002000000f780018c0b3007c
:10216000f2ff2300c36124001e009000ae00900027
:10217000291007000000e00001003c000044eb00d3
:102180000804e0000d003200f0ff2300c1612400cc
:1021900010079800210798003e0090006700b900e2
:1021a00080007800209c200000804000f1c3b30034
:1021b0000148780010002000000f78000200200085
:1021c000a34724001e009000ae009000ce0f070031
:1021d00083a520003e0190004211dd0002814100f4
:1021e0000089be003e0090008000400020a5200035
:1021f00000804000100078008000e8003e00900061
:102200000001400020a520000000410001087800e6
:10221000580037003e0090008000400020a52000bc
:102220000080400010007800e50f500012003a00d6
:102230003e0090006700b90080007800709c20008c
:1022400000804000e1c2b300014878003e009000e9
:102250008000400020a52000008040001000780091
:102260008000e8003e0090000001400020a5200012
:10227000000041000108780081a520003e00900088
:102280004200dd00008040001000be00e40f0700a7
:10229000804078003e01900000a620000000410030
:1022a000014878003e0090008000400020a52000fa
:1022b0000080400090017800be00900000a6200041
:1022c00000804000104078000043b00000417800da
:1022d0003e0090006700b9000000780083004000d5
:1022e000209c200000804000024878003e009000c2
:1022f0008000400020a520000080400010007800f1
:102300008000e8003e0090000001400020a5200071
:10231000000041000108780081a520003e009000e7
:102320004200dd00008040001004be00be009000ae
:1023300000a6200000804000104078000000fb0054
:10234000cf80de00f20f07000001be000800be00d3
:102350000f0f0700020020000312240044100700a2
:1023600083a520003e0190004211dd000281410062
:102370000089be003e0090008000400020a52000a3
:102380000080400010007800e80f5000a1ff3600e8
:102390003e0090008000400020a52000008040000a
:1023a0008000eb00010878003e009000c2fd0700ad
:1023b000be00900040a620000080400011c0b30085
:1023c00001487800950037003e00900080004000f2
:1023d00020a5200000804000100078008000e80068
:1023e0003e0090000001400020a5200000004100b8
:1023f0000108780001003700000000003e00900056
:102400008000400020a520000080400010017800de
:102410003e0090006700b900000078008200400094
:10242000209c2000008040009040780000c3b30052
:1024300080cf50000d003a00be00900060a5200043
:1024400000804000104078000004e00007003a00df
:102450003e0090008000400020a520000080400049
:1024600010007800e20f5000d7ff3600be00900049
:1024700060a6200000804000104078000004e000ca
:10248000270032003e0090008000400020a5200080
:1024900000804000100178003e0090006700b90005
:1024a0000000780082004000209c20000080400056
:1024b000104078000000fb0001022000810f500056
:1024c00005003200d1022000810f50000e003a00ba
:1024d0003e009000bafe07003e00900080004000e1
:1024e00020a5200000804000100078008000e80057
:1024f0003e0090000001400020a5200000004100a7
:102500000108780000000000be00900060a62000d6
:10251000008040008040eb00014878000d0037004b
:102520003e009000a6fe07003e00900080004000a4
:1025300020a5200000804000100078008000e80006
:102540003e0090000001400020a520000000410056
:10255000010878003e0090008000400020a5200087
:1025600000804000100178003e0090006700b90034
:102570000000780082004000209c20000080400085
:102580009040780000c3b30080cf50002300320099
:102590003e0090008000400020a520000080400008
:1025a000100178003e0090006700b900000078003c
:1025b00082004000209c2000008040009040780075
:1025c000d0c2b30080cf5000140032003e00900013
:1025d0008000400020a5200000804000100178000d
:1025e0003e0090006700b9000000780082004000c3
:1025f000209c2000008040009040780000c2b30082
:1026000080cf500005003200be00900060a5200081
:10261000008040008040eb00014878003e009000c0
:102620008000400020a520000080400010007800bd
:10263000e80f500070ff3600be00900060a520003b
:10264000008040008040eb00014878003e00900090
:1026500080004000209d2000008040001000780095
:10266000804078003e019000009d20000000410065
:1026700001487800be00900040a620000080400085
:102680008040eb00014878004f04be000080fa0053
:10269000000006001200fa00500798006107980039
:1026a00072079800030f980002402200439724000d
:1026b0007e0090008e0890006d0f0700008fbe0016
:1026c0005e019000ee0190001e00be008e0e07001d
:1026d00002002000031824008b0e070002002000d7
:1026e00003f823002a0e07002007980031079800fe
:1026f0002e009000be009000ea0e070040079800f0
:102700004e0090000080fa00000006000000fa0071
:1027100000002000813424001040880021408800ff
:10272000000020000118240030408800414088004b
:10273000d0cc2c00c1dc2b005040880061408800c8
:102740006066260061f623007040880081408800a2
:10275000d0cc2c00c126240090408800a1408800e5
:1027600030332300b1262400b0408800c1408800e7
:1027700000002000e1232400d0408800e1408800d0
:1027800000002000c1222400f040880001418800a0
:102790000000200001002400104188002141880031
:1027a00000002000010a24003041880041418800d7
:1027b0000000200001f023005041880061418800a2
:1027c00030332300b11b2400704188008141880010
:1027d00000002000011f240090418800a1418800d2
:1027e00000002000811c2400b0418800c141880005
:1027f0000000200001122400d0418800e14188003f
:102800000000200001172400f041880001428800e8
:10281000000020000122240010428800214288008c
:1028200000002000c120240030428800414288007e
:1028300000002000811c2400504288006142880072
:102840006000b800704288008142880000002000cb
:102850000112240090428800a1428800000020005c
:10286000c1252400b0428800c14288000000200039
:1028700081242400d0428800e1428800000020002a
:1028800001172400f0428800014388000000200066
:102890000127240010438800214388000000200005
:1028a000012a2400304388004143880000002000b2
:1028b00081242400504388006143880000002000e8
:1028c000011f24007043880081438800000020001d
:1028d0008124240090438800a143880060ba290025
:1028e00041c42300b0438800c1438800200426006f
:1028f00051c62300d0438800e143880080072000b0
:10290000f0438800c0c0b30084e8b70020c1b30022
:1029100085e8b700e0c0b30086e8b70060c1b30047
:1029200087e8b7008768ef00a0c0b3008ae8b70067
:10293000d0c0b3008be8b7008c68ef00c0cfb30005
:10294000b4e8b70030c0b300b5e8b70080c0b3004a
:10295000b6e8b70090c0b300b7e8b700d0cfb30077
:10296000b8e8b70020c0b300b9e8b70010c0b300a2
:10297000bae8b700bb68ef00d068ef0040c0b30012
:10298000d1e8b700d268ef00d368ef008268ef00ab
:1029900010c0b30083e8b70050332300a04688007e
:1029a00060c4b30005e9b700520607000080fa00d2
:1029b000000006000000fa00a249a9006000b8006b
:1029c000e0488800f14888006000b80000498800ad
:1029d000114988006000b800e0498800f14988008a
:1029e0006000b80080498800914988006000b80004
:1029f000a0498800b14988006000b800c04988003b
:102a0000d14988006000b800a0488800b14888001b
:102a10006000b800804a8800914a88006000b800d1
:102a2000a04a8800b14a88009f49a9006000b80008
:102a30006049880071498800113a8000f08f2f00aa
:102a4000008060000080a000103a88004207a800c3
:102a50004227a900cc22ef00d022ef00f0fe2f0089
:102a6000c0168800dc22ef00e0fb2f00f016880083
:102a7000e222ef0060002000000e8800c221ef007b
:102a800010032000200e8800c621ef00b00f2000a8
:102a9000400e8800ca21ef0010182800600e880040
:102aa000d021ef0000f02f00a00e8800d621ef000b
:102ab000d821ef00da21ef000e22ef000fe2a9008b
:102ac0000c22ef000d42a8003056800041568000d5
:102ad000a2702d00b3162400eefe0700a01088009f
:102ae0001822ef0019e2a9001622ef0050568000cc
:102af00061568000a2702d00b3162400e5fe070089
:102b0000f0108800a00e2e00100888000021ef00b1
:102b10000421ef0021088000000320000100700064
:102b200020088800a0832300600888000621ef00a9
:102b30001021ef0081088000f0fc2f000080600071
:102b40000050a00080088800a00e2e0070088800a9
:102b50000a21ef001221ef009108800000032000fd
:102b60000100700090088800a00e2e00d008880098
:102b70001421ef001e21ef00f10880000003200067
:102b800001007000f0088800a0832300e00888009e
:102b90001821ef002021ef0001098000f0fc2f0038
:102ba000008060000050a00000098800f0002000b4
:102bb000604a8800f0002000704a8800614a800066
:102bc000704a800000804000cf80de00d00d0700fa
:102bd0000001be0000a22e0001b624004a0d07002d
:102be0000200200043232400470d07000001be001f
:102bf0000000200001f82300430d0700d054880096
:102c0000e1548800402e200000158800004120007b
:102c100010158800f0f0200020158800a622ef0093
:102c200000f72f0040158800f0082000501588009c
:102c3000c10480000000270001007000c00488006b
:102c4000b1048000f08f2f008080600000602000c1
:102c500001007000b0048800e104800080ff2f00b4
:102c6000008060005000b300e0048800a1048000f0
:102c7000f0ff28000080600000e0a000a0048800b1
:102c8000a104800080ff2f00008060003000b300ae
:102c9000a0048800c1048000f08f2f0080806000b5
:102ca0000030200001007000c00488000105800091
:102cb000f0f82f0080806000000320000100700009
:102cc00000058800c1048000f0f82f00008060003b
:102cd0000050a000c00488000105800080ff2f0084
:102ce000008060000010a00000058800b104800092
:102cf000f0ff28000080600000d0a000b004880031
:102d0000f1048000f08f2f00008060000090a00090
:102d1000f0048800f1048000f0f82f0000806000cb
:102d20000040a000f0048800f1048000f0ff2800bb
:102d30000080600000c0a000f00488000080fa005d
:102d4000000006000000fa00889fbe0000bf2000bf
:102d50000001880038408000494080001440800015
:102d60002540800030408000414080000001be00ce
:102d70000400be00870c07000001be000800be0072
:102d8000e10c0700404a8800514a8800a289a80047
:102d9000a209a90054418000654180007041800073
:102da000814180000001be000400be00b00d07009c
:102db000b0558800c1558800fefe070081e0a900db
:102dc0008420ef008620ef008820ef00ff3ffc000a
:102dd0008c20ef008e20ef009020ef008c60a80088
:102de0008d20a8008d40a8008f00a8008f20a8008b
:102df0008c00a8009f29a8008e00a8008ee0a900e2
:102e00008cc0a8008ce0a8008ea0a8008ec0a800ee
:102e10008d60a8008200a9008240a9005220ef0026
:102e2000a1e2a800c1e1a80011e1a80005e1a80005
:102e300013e1a8001fe1a80021e1a8000de2a8000d
:102e40000f42a80017e2a8001942a8004f04be00d4
:102e50000080fa00000006000000fa00d5fe07001e
:102e6000ff3ffc008420ef008620ef008820ef0069
:102e70008c20ef008e20ef009020ef008d20a80026
:102e80008d40a8008f00a8008f20a8005220ef00de
:102e9000a1e2a900c1e1a90011e1a90005e1a90091
:102ea00013e1a9001fe1a90021e1a9000de2a8009a
:102eb0000f42a80017e2a8001942a8000080fa00fb
:102ec000000006000000fa0021090700a1e2a900a5
:102ed00011e1a90013e1a9001fe1a90021e1a90066
:102ee0008e00a9008cc0a9008ce0a9008ea0a900ca
:102ef0008ec0a9008220a9008240a9000070200095
:102f000020548800a289a900a209a8000080fa0024
:102f1000000006000000fa009ea9a9009e49a90031
:102f2000c1e1a90005e1a9008420ef008620ef009f
:102f30008820ef00ff3ffc008c60a9008d60a90095
:102f40008220a9008240a900deff0700a229a80074
:102f50000080fa00000006000200fa00000f78006e
:102f6000220820009e0041000080200000804000d8
:102f7000104078000004e0006300320020a620002a
:102f80001e004000104078000004e0005e003a009f
:102f90009ec9bf00684060000004e0005a00320093
:102fa000409920001e004000104078000004e0001e
:102fb0004e003a001e00780080004000009920007a
:102fc00000804000100078009e007800500007004c
:102fd0001e00780080004000009920000080400022
:102fe000100078009e007800c208dd0000804000dc
:102ff000c10c200080804000008020000080400044
:10300000104078000040e90080407800409920009e
:103010001e00400001487800409920001e0040003a
:10302000104078000004e00004003d0040992000ba
:103030001e0040008040eb00014878001e00780030
:1030400080004000009920000080400010007800bf
:10305000e30f50001e003e001e007800800040007c
:103060000099200000804000100078006600b90040
:10307000000178001e0078007800b9000000780098
:1030800000004100c1092000808040000080200035
:1030900000804000104078000004e0000c00320086
:1030a0001e00780080004000009920000080400051
:1030b000100078008000e8001e0078000001400049
:1030c0000099200000004100010878000e00370040
:1030d0001e00780080004000009920000080400021
:1030e0008000eb00010878000700370040992000bd
:1030f0001e004000104078008040e9004099200008
:103100001e004000014878000080fa000000060020
:103110000a00fa0030079800410798000000eb0011
:10312000000f78000000eb00200798000000eb0083
:10313000100798000000eb00000f780073003700c4
:103140003e0090006600b900000178004e0090003b
:103150007800b90000007800000041001e00400027
:10316000c1092000808040000080200000804000d5
:10317000104078000000fb0020079800ae0090008f
:10318000f00f200000806000200798002e009000c3
:10319000e70f500005003e00ce00900060a6200022
:1031a0000080400011c0b300014878002e0090005c
:1031b000e80f500005003a00ce00900060a5200006
:1031c0000080400011c0b300014878002e0090003c
:1031d0000000e00051003200ae009000b00f20006f
:1031e000808f5000250036002e009000d10f200067
:1031f000810f500012003200d10f2000810f5000cb
:1032000004003e00c10f2000810f50000800320072
:1032100017003700e10f2000810f50000c00320032
:10322000f10f2000810f50000d0032001000370018
:10323000ce0090004088200004fb07000c003700ff
:10324000ce009000a088200000fb07000800370097
:10325000ce00900000892000fcfa0700040037002f
:10326000ce00900060892000f8fa070000000000fe
:103270001000200010079800230037002e00900057
:10328000ee0f500020003e002e0090004200dd00b6
:103290008080e800609020000081400012007800eb
:1032a000920090004e01900075fb07004e009000c8
:1032b00080004000209d2000008040001000780029
:1032c0008080e9004e00900000014000209d200019
:1032d00000004100010878002e00900080004000ae
:1032e00080372b000080400010007800ce00900056
:1032f000d6fa0700ce009000405d2b00d3fa0700fd
:1033000010002000100798001e0fe8001e00780033
:10331000e50f50008aff3600010037000000000072
:103320001e0090000000e000020032004e009000fd
:10333000abfa07000080fa00000006000200fa0065
:10334000000f780002003700cac2a9000140fe0049
:1033500020a620001e004000104078000004e0007d
:10336000f9ff3a00cac2a8000080fa000000060077
:103370000400fa00100798009e009000605d2b008a
:10338000b2fa07001e00900095fa07001e00900098
:1033900080004000c0a62000008040008000eb00bc
:1033a000010878001e009000e4ff0700004880003c
:1033b000ea0f5000050036009e009000805e2b0052
:1033c000a2fa07001e00900085fa0700004880005e
:1033d0000000e00048003a009e009000a05f2b0033
:1033e0009afa07001e0090007dfa07004c00370093
:1033f0001e009000d1ff07009e009000c0602b00cf
:1034000092fa07001e00900080004000c0a6200035
:1034100000804000100078006b00400080004000f9
:10342000608d200000804000100078009e00900019
:10343000c0f907009e00900030612b0083fa07005e
:103440001e00900080004000c0a6200000804000c8
:10345000100078006b00400080004000608d20006c
:103460000080400010007800000f78001e007800f7
:103470000000e00004003200c00220009e0078003e
:10348000808f500008003c001e00e90080004000d2
:1034900080572b0000804000100078009e009000b4
:1034a0006afa0700030037009e00900000572b00c7
:1034b00066fa07009e00900080612b0063fa070007
:1034c0001e00900046fa07001e0090008000400099
:1034d000c0a6200000804000100078008000e800b6
:1034e0001e00900000014000c0a620000000410026
:1034f0000108780001003700000000001e00900065
:1035000080004000c0a6200000804000100078002d
:103510008000780000488000808f5000b4ff3900a0
:103520000080fa00000006000400fa00100798006e
:10353000a50037001e0090000000e0000f003200e0
:103540001e00900080004000e09a200000804000b3
:1035500090017800e0108000004178001e0090008b
:103560006500b9000000780083004000309a200018
:1035700000804000024878000e0037001e009000d6
:1035800080004000e09a2000008040009001780018
:1035900090108000004178001e0090006500b90086
:1035a0000000780083004000309a20000080400036
:1035b000024878009e00900030ad2000008040005e
:1035c000104078000004e0003c0032001e00900033
:1035d00080004000e09a2000008040001001780048
:1035e0001e0090006500b9000000780082004000d5
:1035f000309a20000080400010407800ed4f5000cd
:103600000e003a001e00900080004000e09a20006a
:1036100000804000100178001e0090006500b90095
:103620000000780082004000309a200000804000b6
:1036300010407800ea4f5000200032001e00900039
:103640000000e0000f0032001e00900080004000eb
:10365000e09a200000804000100178001e009000d9
:103660006500b9000000780082004000309a200018
:1036700000804000104078000000fb00d01088005f
:103680000e0037001e00900080004000e09a2000ed
:1036900000804000100178001e0090006500b90015
:1036a0000000780082004000309a20000080400036
:1036b000104078000000fb00801088001e00900081
:1036c00080004000e09a2000008040001001780057
:1036d0001e0090006500b9000000780082004000e4
:1036e000309a200000804000104f78001e40780083
:1036f000ed4f5000030032001e407800ea4f5000aa
:103700001f003a009e00900030ad20000080400075
:10371000104078000004e000030032009e0090009a
:1037200080612b00c9f907001e0090008000400056
:10373000e09a20000080400010007800804078006f
:103740001e019000809b200000004100014878008d
:103750001e00900080004000e09a200000804000a1
:103760008000eb00010878009e009000209b200064
:103770000080400011c0b3000148780012003700fb
:103780001e00900080004000e09a20000080400071
:1037900010007800e30f50000b003e001e00900068
:1037a00080004000e09a2000008040001000780077
:1037b0008000e8001e00900000014000e09a200018
:1037c00000004100010878001e0090000000e000a9
:1037d00004003a0070108000610060000000e0000a
:1037e00007003a001e009000e10f50000a003a0066
:1037f000c0108000610060000000e00006003200a0
:103800009e009000209b2000008040001040780027
:103810000004e00047ff32009e009000209b200043
:1038200000804000104078000004e0007401320085
:103830009e00900030ad20000080400010407800d5
:103840000004e000030032009e009000b0612b00f5
:103850007ef90700004880000000e0000900320007
:103860009e00900030ad20000080400010407800a5
:103870000004e000030032009e009000d0612b00a5
:1038800072f907001e0090008000400080a6200012
:1038900000804000100178001e0090006500b90013
:1038a0000000780082004000309a20000080400034
:1038b000104078000000fb006101b90030ff2f00cc
:1038c000f1ff2f0002004000838048001207200013
:1038d00003002000820f5000838f580028013e0013
:1038e0000060010030013700250137002401370056
:1038f0002301370022013700210137002001370062
:103900001f0137001e0137001d0137001c01370061
:103910001b0137001a013700190137001801370061
:103920001701370016013700150137001401370061
:10393000130137001c013700110137005b0037000d
:103940006700370089003700760037000c01370028
:103950000b0137000a013700050137000801370065
:103960000701370006013700050137000401370061
:103970000301370002013700010137000001370061
:10398000ff003700fe003700fd003700fc00370065
:10399000fb003700fa003700f9003700f800370065
:1039a000f7003700f6003700f5003700f400370065
:1039b000f3003700f2003700f1003700cb0037008a
:1039c000ef003700810037008e003700ec00370031
:1039d00077003700ea003700e9003700e8003700d9
:1039e000e7003700e6003700e50037009f003700aa
:1039f00087003700e2003700e10037007f00370022
:103a0000df003700de003700dd003700dc00370064
:103a1000db003700da003700c6003700d800370077
:103a2000d7003700d6003700d5003700d400370064
:103a3000d3003700d2003700d1003700d000370064
:103a4000cf00370067003700cd003700cc003700cb
:103a50005a003700ca003700c9003700c8003700d5
:103a6000c7003700c6003700c50037008f00370099
:103a700072003700c2003700c1003700c0003700b5
:103a8000bf003700be003700bd003700bc00370064
:103a9000bb003700ba003700b9003700b800370064
:103aa000b7003700b60037003c0037001e0090001a
:103ab00080004000e09a2000008040008000eb0081
:103ac000010878009e009000209b200000804000ac
:103ad0008040eb00014878000000fe00b70037008e
:103ae0009e009000f0612b00d8f807000044800091
:103af0009e0090000ff807009e009000f0622b00df
:103b0000d2f807002b020700d05380009e009000df
:103b100008f807009e00900080612b00cbf807009a
:103b2000a60037009e00900090632b00c7f80700a6
:103b3000f01f2000de0107009e009000fdf7070047
:103b40009e009000f0622b00c0f8070030020700d2
:103b5000e05380009e009000f6f707009e00900062
:103b600080612b00b9f80700940037009e00900098
:103b700030ad200000804000104078000004e000dc
:103b8000030032009e00900090642b00aff8070005
:103b9000c3000700f800070088003700dbfa0700c1
:103ba0000000eb0029010700de0107008300370059
:103bb00010c0b30004e9b7008000370050c0b30064
:103bc00004e9b700ec0007007c0037009e0090007d
:103bd00030ad20000080400011c0b30001487800e3
:103be000760037009e00900030ad2000008040003d
:103bf0008040eb000148780070003700a229a8003f
:103c00006e0037001e009000d9fd07006b003700e2
:103c10009e00900030ad20000080400010407800f1
:103c20000004e000030032009e00900060662b005c
:103c300086f807009ea9a800600037009e0090004b
:103c400030ad200000804000104078000004e0000b
:103c5000030032009e009000e0662b007bf8070016
:103c60008d69ef009ea9a900540037009e009000c6
:103c700030ad200000804000104078000004e000db
:103c8000030032009e00900060672b006ff8070071
:103c90009e009000208820000080400011c0b300ea
:103ca0000148780093010700440037009e0090000f
:103cb00030ad200000804000104078000004e0009b
:103cc000030032009e00900000682b005ff80700a0
:103cd0009e00900020882000008040008040eb0083
:103ce0000148780083010700340037000029ef0005
:103cf000a2a9a90004c9bf00e54f5000010032008d
:103d00000469ef00a2c9a9009b0007009e00900073
:103d100030ad200000804000104078000004e0003a
:103d2000230032009e009000a0682b0047f8070097
:103d3000220037006069ef00b0408000c140800081
:103d4000c0488800d1488800d116800000102000ab
:103d5000008060000000e000020032000229ef0055
:103d600016003700a000200010488800130037001c
:103d70009e009000c0692b0034f807000f00370048
:103d80009e00900030ad2000008040001040780080
:103d90000004e000080032009e009000606a2b00e2
:103da0002af8070005003700000000000300370074
:103db0000000000001003700000000001e0090001d
:103dc00080004000e09a2000008040008000eb006e
:103dd000010878009e009000209b20000080400099
:103de0008040eb00014878001e00900080004000f9
:103df00080a62000008040008000eb0001087800d1
:103e00001e009000f6f707000080fa000000060090
:103e10000000fa008ac9bf000000fb00240107006f
:103e200041652700810f500001003a006c00070037
:103e30000080fa00000006000200fa000000eb001b
:103e40001b01070071562400810f50000b003a003f
:103e50000000eb00000f7800280007000000e000e1
:103e60000d003a001e007800e40f500001003400fd
:103e7000370307001e0fe800f7ff37000000eb00d4
:103e80000b010700e10f400003003a001f0107008b
:103e90001efa0700020007000080fa00000006007a
:103ea0000200fa000000eb00000f78000900370064
:103eb0001e0078008000400000802000008040004c
:103ec00010007800800078001e0078009200070043
:103ed0001e0fe8008ac9bf000000fb009e0f5000c3
:103ee000f3ff3c00715624000000eb008a0007003d
:103ef0000c0107000080fa00000006000200fa0032
:103f0000430107000000e000020032000000eb0067
:103f1000170037000000eb00000f780009003700a1
:103f20001e007800e2000700800078001e00780084
:103f300000014000008020000000410001087800de
:103f40001e0fe8008ac9bf000000fb009e0f500052
:103f5000f3ff3c00080107000000e000020032000f
:103f60000000eb0002003700e20007001000200014
:103f70000080fa00000006000200fa000000eb00da
:103f8000000f78000a0037001e0078008000400013
:103f9000608d200000804000900078008ac9bf003a
:103fa0000000fb001e0040005b0007001e0fe80041
:103fb0008bc9bf000000fb009e0f5000f2ff3c00c9
:103fc0008ac9bf000000fb004165270052000700be
:103fd000d40007009f69a9000080fa0000000600d5
:103fe0000200fa000a0107000000e00002003200af
:103ff0000000eb00130037000000eb00000f78001a
:104000000b0037008ac9bf000000fb001e00400003
:10401000a7000700800078001e0078000001400023
:10402000608d200000004100010878001e0fe800ac
:104030008bc9bf000000fb009e0f5000f1ff3c0049
:10404000100020000080fa00000006000400fa00c2
:10405000100798000000eb00000f78009e00900011
:10406000f01f2000808f500002003400100020005c
:1040700027003700ff3ffc00c1048000f0ff28004c
:1040800000806000c0048800811f78001e0090003e
:1040900000004000000f78009e00780000c02f0054
:1040a00000804000000f7800f0072000203b8800cf
:1040b0001e007800103b880041042400013b88006a
:1040c00051052000313b8800a10a2000313b8800c7
:1040d00061e7a8000000000000000000cf007800a9
:1040e000010037005220ef00013b80000000280053
:1040f000008060000000e000faff3a00c104800088
:104100000000270001007000c00488000000eb00e0
:104110000080fa00000006000400fa00000f78009a
:10412000110798001e007800c8ff0700f01f20004c
:104130009e007800808f50000200340010002000a4
:104140002e003700ff3ffc00c1048000f0ff280074
:1041500000806000c0048800801f7800811f780004
:10416000821f78001e00780000004000000f7800d9
:104170009e00780000c02f0000804000000f7800f3
:10418000f0c7b30032e0b7001e00900020008800a6
:104190001e007800000088000208bb0041002400d7
:1041a000013b880051052000313b8800a10a200016
:1041b000313b880061e7a80000000000000000001b
:1041c0004f017800cf0078004f00780001003700e1
:1041d0005220ef00013b80000000280000806000ba
:1041e0000000e000faff3a00c10480000000270050
:1041f00001007000c00488000000eb000080fa009d
:10420000000006000400fa00004f78001107980033
:104210001e41780061a72000824878009e0090002f
:10422000c1538800ff3ffc00c1048000f0ff28005c
:1042300000806000c0048800841f7800801f780020
:1042400076cabf0032e0b700c0538000000088008b
:104250001082ba0000000000000000004000800052
:104260008053880076cabf0032e0b700c053800098
:10427000000088001002ba000000000000000000ea
:1042800040008000a05388004f0078004f02780063
:10429000c10480000000270001007000c0048800f5
:1042a0005220ef00a05380000080fa0000000600ba
:1042b0000200fa00000f7800f01f20009e00780036
:1042c000808f5000020034000000eb000700370030
:1042d0009e00780000e027000080400000004000c1
:1042e00080007800f0c7b300c6ff07000080fa0026
:1042f000000006000000fa00e900070000548000fa
:10430000105488000080fa00000006000000fa0047
:104310004e000700d0538000004488000080fa005f
:10432000000006000000fa009f000700e053800034
:1043300080007800f01f200077ff07000080fa005f
:10434000000006000000fa00d500070001548000bc
:1043500010548000808f500004003200b002200012
:10436000c002070010002000010037000000eb0031
:104370000080fa00000006000000fa00c8000700f4
:10438000a800070001548000f0538000808f500087
:1043900005003200c0022000b2020700a2a9a80056
:1043a00010002000010037000000eb000080fa0040
:1043b000000006000000fa009fc9bf0070406000c6
:1043c0000004e000020032000000eb000e003700a5
:1043d0009f89a8001d00070001448000d053800081
:1043e000808f500006003200900220009d020700de
:1043f000a2a9a8009f89a900100020000200370090
:104400009f89a9000000eb000080fa000000060070
:104410000000fa0064000700f01f2000a4ff07005e
:10442000e1538000810f500005003200a0022000ff
:104430008c020700a2a9a80010002000010037008c
:104440000000eb000080fa00000006000400fa0003
:10445000881f78007a2aef000000eb00000f780038
:104460000000eb00100798000000eb00000f780040
:104470001a0037001e00780000004000800078001d
:104480000040eb005fff070080007800f00f200085
:10449000008460001e00780000004000800078006a
:1044a0000040eb0057ff07008000780000f02f006d
:1044b000008060004800de0080004400d05380008f
:1044c00000804000d0538800d1538000805380008a
:1044d00000804000d05388001e0fe800e0ff21005c
:1044e0009e007800808f5000e2ff3400800f200093
:1044f00010079800220037000000eb00000f780042
:10450000180037001e00780000004000800078008e
:104510001e009000004078003aff070080007800fd
:10452000f00f2000008460001e00780000004000b2
:10453000800078001e0090000040780031ff0700e6
:104540008000780000f02f00008060004800de004e
:1045500080004400d053800000804000d053880089
:104560001e0fe800f0ff27009e007800808f5000ab
:10457000e4ff3a001e0090000000e80010079800d9
:104580009e009000e00f2000808f5000daff340082
:10459000d0538000401ab000d05388004f047800f8
:1045a0000080fa00000006000200fa00881f780070
:1045b0007c2aef000000eb00000f78000000eb0009
:1045c000000f7800100037001e00780038ff070049
:1045d00080007800f00f2000008460001e0078004a
:1045e00033ff07008000780000f02f00008060009b
:1045f0004800de0080004400e0538000008040005e
:10460000e05388001e0fe800d01f20009e007800b5
:10461000808f5000ecff34004f0478000080fa00d7
:10462000000006000200fa00881f78007e2aef00d2
:104630000000eb00000f78000000eb00000f780096
:10464000100037001e00780019ff07008000780076
:10465000f00f2000008460001e00780014ff0700a7
:104660008000780000f02f00008060004800de002d
:1046700080004400f053800000804000f053880028
:104680001e0fe8008ac9bf000000fb009e0f50000b
:10469000ecff3c004f0478000080fa0000000600a8
:1046a0000200fa00802aef000000eb00000f780003
:1046b0000000eb00000f7800160037001e007800a5
:1046c0008000400000802000008040001000780042
:1046d00080007800f00f2000808060001e007800cd
:1046e0000001400000802000000041001000780020
:1046f0000001780000f02f00000061004800de009b
:1047000080804000005480000080400000548800f9
:104710001e0fe8008ac9bf000000fb009e0f50007a
:10472000e6ff3c000080fa00000006000000fa00ee
:10473000881f78009ec9bf000044b2000004e0005a
:1047400084003a00d1168000001020000080600034
:104750000000e0007f0032008ec9bf00e34f500030
:104760007c003a006000b800e0488800f14888000a
:10477000704080008140800018c0b300020020001b
:1047800003f82300a40607000000e00001003c003d
:104790000044eb000804e000080032001421ef00a0
:1047a0000000200001f8230070408800814088004c
:1047b000d0fe0700c0012000aa0107007040800061
:1047c000814080006011b800910607000000e00001
:1047d00005003a00b0408000c1408000c048880019
:1047e000d14888006069ef0010488000e90f500050
:1047f00042003e00104880000000e8001048880099
:1048000010c0b30060e9b700b4408000c54080002c
:10481000d0408000e14080000001be000400be00e6
:10482000db0507000002be00704080008140800070
:104830000001be000400be000d0707000002be001c
:10484000d0408000e14080000001be000400be00b6
:10485000d0050700c0488800d1488800c0488000c3
:10486000d1488000824a8000934a800018c0b3007b
:10487000670607000000e000010035000044eb007f
:104880000804e0000b0032009fc9bf0064406000d4
:104890000004e00007003200804a8000914a800056
:1048a000a2702d0033c22300ba050700c04888005b
:1048b000d1488800c4488000d5488000b0408000be
:1048c000c140800018c0b3000001be000400be005b
:1048d000510607000000e00001003c000044eb002e
:1048e0000804e0000e003200b0408000c1408000ab
:1048f000c0488800d148880009003700104880006f
:10490000e90f5000060036000229ef006069ef0051
:10491000b0408000c1408000c0488800d148880075
:1049200000178000620060000000e0000700320015
:104930009ec9bf000042b2000004e00003003a003c
:104940006000b80020478800314788009ec9a80051
:1049500006003700d11680000010200000806000a3
:104960000000e00001003a009ec9a9004f04780051
:104970000080fa00000006000200fa00889fbe00d6
:104980008ec9bf000004e00009003a0086c9bf00dc
:104990000004e00006003a0010c0b30086e9b7004a
:1049a0009e49a80010c0b3008ee9b700650037002b
:1049b00086c9bf00e54f500007003a008ec9bf000e
:1049c000e14f500004003c008ec9bf000040e800e9
:1049d0008ee9b7005b0037008ec9bf00e24f500080
:1049e00058003a009fc9bf00644060000004e00026
:1049f000540032008ac9bf000000fb000000e8003c
:104a00002bfe070041652700810f500039003a0056
:104a1000c0468000d146800018c0b30002002000cc
:104a200003f82300fc0507000000e00001003c0043
:104a30000044eb000804e0002e003200c84680006d
:104a4000d94680000047800011478000a24a8000bc
:104a5000b34a80004e05070002002000832c24008a
:104a6000a90507000001be000800be00800607007f
:104a7000eb050700000f7800484780005947800089
:104a80001e007800cf80de00210607000001be0076
:104a90000800be003e0507004047880051478800d7
:104aa000e8468000f94680001e007800cf80de00d6
:104ab000170607000001be000800be00340507000d
:104ac000e0468800f146880028478000394780008a
:104ad0001e007800cf80de000d0607000001be003a
:104ae0000800be002a0507002047880031478800db
:104af000110037009fa9a80070418000814180000b
:104b0000c0468800d14688007841800089418000f5
:104b1000a04a8000b14a800002002000832c2400bb
:104b2000790507000001be000800be00500607001e
:104b3000404788005147880030c0b3008ee9b70075
:104b40009e49a9004f04be000080fa000000060044
:104b50000000fa00f5010700bff80700caa2a8008c
:104b6000cac2a9000140fe00fdff37000000fa00a4
:104b70002156800050a52a00808f500001003a0085
:104b80008000070050a52a00205688000080fa0007
:104b9000000006000000fa00d1168000001020007e
:104ba000008060000000e0000c003a000017800068
:104bb000620060000000e000080032009ec9bf00f3
:104bc000644060000004e00004003a009ec9bf0099
:104bd0000042b2000004e0001a0032009e89a800e2
:104be000605480000000e00003003200a2a9a90088
:104bf000a2c9a9008c2aef00a2c9bf000042b200de
:104c00000004e00007003a009e69a800a2c9bf00a6
:104c1000704060000004e00013003a0049f807000b
:104c200014003700ca0107009e69a900a2c9bf008d
:104c3000614060000004e0000d003a00a1f80700a8
:104c40000c003700c20107009e89a9009e69a900d7
:104c5000a2c9bf00614060000004e00005003a0006
:104c600098f807000300370000000000010037003b
:104c7000000000000080fa00000006000000fa00ba
:104c800000148000e30f400003003600d001200034
:104c900074000700a501070000148000e10f500018
:104ca00003003e00e00120006e0007009f010700a6
:104cb00010148000e30f400003003600f0012000d4
:104cc000680007009901070010148000e10f5000f0
:104cd00003003e000002200062000700930107006d
:104ce00020148000e30f4000040036001002200072
:104cf0005c00070050c0b30004e9b7002014800036
:104d0000e10f500004003e00200220005500070083
:104d100050c0b30004e9b70030148000e30f400036
:104d200002003600300220004e00070030148000e0
:104d3000e10f500002003e00400220004900070041
:104d400040148000e30f40000200360050022000b3
:104d50004400070040148000e10f500002003e00b4
:104d6000600220003f0007009fc9bf00684060004c
:104d70000004e000010032007ffc07000080fa0020
:104d8000000006000000fa00003a800062006000a7
:104d90000000e000030032004027a900300120009d
:104da00030000700003a8000700060000000e00062
:104db000030032004087a9004001200029000700bd
:104dc000013a800000002800008060000000e00040
:104dd0000300320041e7a900500120002100070034
:104de000013a800000002400008060000000e00024
:104df0000300320041c7a90060012000190007002c
:104e0000013a800000082000008060000000e000ff
:104e10000300320040e7a9007001200011000700e4
:104e2000013a800000042000008060000000e000e3
:104e30000300320040c7a9008001200009000700dc
:104e400090012000070007009fc9bf006840600074
:104e50000004e0000100320047fc07000080fa0077
:104e6000000006000200fa00000f780000488000f1
:104e7000e90f50000b003e00004880009e007800c3
:104e80006b00400000014000608d200000004100e8
:104e900001087800004880000000e8000048880011
:104ea00002003700b0002000004888009f69a80079
:104eb0000080fa00000006000000fa00d621ef0092
:104ec0009a29ef0030c0b300ceeab700882aef007d
:104ed00004c9bf00e54f50000200320040c0b300db
:104ee00004e9b7009e49a900d1e2a9000080fa00b8
:104ef000000006000400fa00881f780004c9bf0003
:104f0000e24f50005a003a009ec9bf00684060005e
:104f10000004e00056003200a4488000b54880003c
:104f200060498000714980000001be000400be009d
:104f30004f05070001f0a200008fbe0090438000e3
:104f4000a143800018c0b3001e01be00b2040700d8
:104f50000000e00001003c000044eb000804e00019
:104f60003c003200d1e2a800cecabf000004e0003d
:104f700032003a00405480000000e80040548800ad
:104f800040548000b00e880041548000f00520009d
:104f9000808f50000300340010002000b1ff070094
:104fa000c5ff07004154800020032000808f50007f
:104fb0000d00340018c0b3000200200003002400dc
:104fc0001e00be00920407000000e0000100350052
:104fd0000044eb000804e000030032002000200041
:104fe000a0ff0700b4ff070040548000e40f50000a
:104ff0000d003c0018c0b300020020000312240082
:105000001e00be00840407000000e00001003c0018
:105010000044eb000804e0000300320030002000f0
:1050200090ff0700a4ff07009fc9bf006840600011
:105030000004e00001003200cffb0700cecabf0031
:10504000e34f50000a003a0020c0b300ceeab70098
:105050000700370030c0b30004e9b700d621ef00e5
:105060009e49a900d1e2a90030c0b300ceeab70042
:1050700004c9bf00e14f50000a003a00d621ef00fa
:1050800030f70700b20007009e49a800882aef0009
:105090009a29ef0020c0b30004e9b70030c0b30084
:1050a000ceeab7004f0478000080fa000000060046
:1050b0000000fa00881f7800a4488000b5488000ee
:1050c00090408000a140800018c0b3000001be00e5
:1050d0000400be00500407000000e00001003d0095
:1050e0000044eb000804e0000300320070002000e0
:1050f0005cff07008d000700a4488000b5488000d1
:10510000f04080000141800018c0b3000001be00e3
:105110000400be003e0407000000e000010035006e
:105120000044eb000804e00008003200d1168000c3
:1051300000102000008060000000e00003003a0042
:105140004000200047ff070072f7070084498000f5
:1051500095498000104380002143800018c0b300af
:105160000001be000400be002b0407000000e000a8
:1051700001003c000044eb000804e00003003200a2
:105180008000200037ff070068000700c449800046
:10519000d5498000304380004143800018c0b300ef
:1051a0000001be000400be001b0407000000e00078
:1051b00001003c000044eb000804e0000300320062
:1051c0009000200027ff070058000700a449800036
:1051d000b5498000304380004143800018c0b300cf
:1051e0000001be000400be000b0407000000e00048
:1051f00001003c000044eb000804e0000300320022
:10520000a000200017ff0700480007009fc9bf004b
:10521000684060000004e0000100320056fb070017
:105220004f0478000080fa00000006000000fa0039
:10523000881f7800604980007149800018c0b30061
:105240006011b800f20307000000e0000100350023
:105250000044eb000804e0000600320060498000d2
:105260007149800001f0a200e04a8800f14a8800fc
:10527000030037006000b800e04a8800f14a880067
:1052800090418000a1418000e24a8000f34a800002
:1052900018c0b300de0307000000e0000100350085
:1052a0000044eb000804e0000a0032005054800083
:1052b000e50f5000040034001c0007008a2aef00ac
:1052c00050002000e7fe0700505480000000e80076
:1052d000505488006049800071498000b2558000b8
:1052e000c355800018c0b300cb0307000000e000e6
:1052f00001003c000044eb000804e0000300320021
:105300000a00070060002000d6fe07009fc9bf000a
:10531000684060000004e0000100320016fb070056
:105320004f0478000080fa00000006000000fa0038
:1053300007000700a2a9a8009ea9a9009e49a900ec
:10534000b0002000c7fe07000080fa000000060041
:105350000000fa00da21ef00dc22ef00c841a900ca
:10536000d621ef00d821ef00d622a90030c0b3002b
:10537000cfeab700e202a900e2c2a90030c0b30040
:10538000d0eab700d1e2a90030c0b300ceeab7003e
:10539000cb02a9009a29ef009829ef009629ef0087
:1053a0006000b80030558800415588006000b800a2
:1053b00010558800215588000080fa000000060082
:1053c0001000fa00889fbe00008fbe0022079800e0
:1053d000330798004407980055079800660798001f
:1053e00077079800804980009149800018c0b30079
:1053f0002e019000be019000850307000000e00030
:10540000010035000044eb000804e0000f0032000a
:1054100080498000914980001e01be00dc02070027
:105420000004be001e01be002e009000be009000d1
:10543000d70207000001be000800be0032030700cb
:10544000d0558800e155880023003700804980004e
:105450009149800018c0b3006e019000fe019000d9
:105460006d0307000000e00001003c000044eb0079
:105470000804e00015003200804980009149800056
:105480004e019000de019000c10207000004be0042
:1054900009f0a2004e019000de0190006e00900025
:1054a000fe009000ba0207000001be000800be0026
:1054b000150307000200200003f82300b5020700cf
:1054c000d0558800e1558800030037000000200017
:1054d00001f823001c003700d0558000e155800002
:1054e00018c0b3000200200003f823004a0307009d
:1054f0000000e00001003c000044eb000804e00074
:10550000030032000000200001f823000e003700e5
:10551000d0558000e155800018c0b3006011b8007c
:105520003b0307000000e000010035000044eb00f1
:105530000804e000020032006000b80002003700fa
:10554000d0558000e15580004f04be000080fa0075
:10555000000006000000fa00889fbe008a9fbe007f
:105560001441800025418000404780005147800061
:105570000001be000400be00bd0307000005be0020
:10558000d4428000e5428000b2428000c3428000e5
:1055900090428000a14280007842800089428000d1
:1055a0000403be000202be000001be000800be00ef
:1055b00083ff07000001be000a00be00ac03070025
:1055c000705488008154880030418000414180003f
:1055d000725480008354800018c0b3000e0307008b
:1055e0000000e00001003c000044eb000804e00083
:1055f0000400320030418000414180007054880036
:1056000081548800c4468000d54680004047800011
:10561000514780000001be000400be005c0207008c
:10562000f055880001568800f05580000156800032
:1056300018c0b300d2cc2c00c3e42300f40207004e
:105640000000e000010035000044eb000804e00029
:1056500004003200d0cc2c00c1e42300f0558800b7
:10566000015688005041800061418000f255800061
:10567000035680007e0307000005be003442800010
:10568000454280001242800023428000f0418000a9
:1056900001428000d8418000e94180000403be003f
:1056a0000202be000001be000800be0044ff070069
:1056b0000001be000a00be006d0307009054880080
:1056c000a15488004f05be004f04be000080fa00c0
:1056d000000006000000fa00889fbe00001780004e
:1056e000620060000000e000040032009ec9bf00bc
:1056f0000042b2000004e000e5003200d622a8001b
:10570000cb02a800cfcabf00e34f500002003a000e
:1057100020c0b300cfeab700d116800000102000ef
:10572000008060000000e00003003a00f0428000ca
:1057300001438000aa010700cfcabf000004e000b7
:10574000de003a008449800095498000b042800024
:10575000c14280000001be000400be000c02070030
