:020000040000fa
:080000000001040000000000f3
:020000040000fa
:04000800d22f0000f3
:020000040000fa
:04000c00e00a000006
:020000040000fa
:04001000260b0000bb
:020000040000fa
:040014004e0b00008f
:020000040000fa
:040018007a0b00005f
:020000040000fa
:04001c00d22f0000df
:020000040000fa
:04002000d22f0000db
:020000040000fa
:04002400a20b00002b
:020000040000fa
:04002800c80100000b
:020000040000fa
:04002c00d22f0000cf
:020000040000fa
:04003000d22f0000cb
:020000040000fa
:040034004c04000078
:020000040000fa
:04003800d22f0000c3
:020000040000fa
:04003c00d22f0000bf
:020000040000fa
:04004000b007000005
:020000040000fa
:040044005a09000055
:020000040000fa
:04004800d22f0000b3
:020000040000fa
:04004c00e0090000c7
:020000040000fa
:04005000240a00007e
:020000040000fa
:04005400d2010000d5
:020000040000fa
:04005800d22f0000a3
:020000040000fa
:04005c00d22f00009f
:020000040000fa
:04006000d22f00009b
:020000040000fa
:04006400d22f000097
:020000040000fa
:040068000409000087
:020000040000fa
:04006c00d22f00008f
:020000040000fa
:04007000d22f00008b
:020000040000fa
:04007400d22f000087
:020000040000fa
:04007800d22f000083
:020000040000fa
:04007c007009000007
:020000040000fa
:04008000ba090000b9
:020000040000fa
:04008400d22f000077
:020000040000fa
:04008800020a000068
:020000040000fa
:04008c006c0a0000fa
:020000040000fa
:04009000d22f00006b
:020000040000fa
:04009400d22f000067
:020000040000fa
:04009800d22f000063
:020000040000fa
:04009c00d22f00005f
:020000040000fa
:0400a000d22f00005b
:020000040000fa
:0400a400d22f000057
:020000040000fa
:0400a800d22f000053
:020000040000fa
:0400ac00d22f00004f
:020000040000fa
:0400b000d22f00004b
:020000040000fa
:0400b400d22f000047
:020000040000fa
:0400b800d22f000043
:020000040000fa
:0400bc00d22f00003f
:020000040000fa
:0400c000d22f00003b
:020000040000fa
:0400c400d22f000037
:020000040000fa
:0400c800d22f000033
:020000040000fa
:0400cc00d22f00002f
:020000040000fa
:0400d000d22f00002b
:020000040000fa
:0400d400b80a000066
:020000040000fa
:0400d800d22f000023
:020000040000fa
:04010800d22f0000f2
:020000040000fa
:04010c00d22f0000ee
:020000040000fa
:04011000d22f0000ea
:020000040000fa
:04011400d22f0000e6
:020000040000fa
:04011800d22f0000e2
:020000040000fa
:04011c00d22f0000de
:020000040000fa
:04012000d22f0000da
:020000040000fa
:04012400d22f0000d6
:020000040000fa
:04012800d22f0000d2
:020000040000fa
:04012c00d22f0000ce
:020000040000fa
:04013000d22f0000ca
:020000040000fa
:04013400d22f0000c6
:020000040000fa
:04013800d22f0000c2
:020000040000fa
:04013c00d22f0000be
:020000040000fa
:04014000d22f0000ba
:020000040000fa
:04014400d22f0000b6
:020000040000fa
:04014800d22f0000b2
:020000040000fa
:04014c00d22f0000ae
:020000040000fa
:04015000d22f0000aa
:020000040000fa
:04015400d22f0000a6
:020000040000fa
:04015800d22f0000a2
:020000040000fa
:04015c00d22f00009e
:020000040000fa
:04016000d22f00009a
:020000040000fa
:04016400d22f000096
:020000040000fa
:04016800d22f000092
:020000040000fa
:04016c00d22f00008e
:020000040000fa
:04017000d22f00008a
:020000040000fa
:04017400d22f000086
:020000040000fa
:04017800d22f000082
:020000040000fa
:04017c00d22f00007e
:020000040000fa
:04018000d22f00007a
:020000040000fa
:04018400d22f000076
:020000040000fa
:04018800d22f000072
:020000040000fa
:04018c00d22f00006e
:020000040000fa
:04019000d22f00006a
:020000040000fa
:04019400d22f000066
:020000040000fa
:04019800d22f000062
:020000040000fa
:04019c00d22f00005e
:020000040000fa
:0401a000d22f00005a
:020000040000fa
:0401a400d22f000056
:020000040000fa
:0401a800d22f000052
:020000040000fa
:0401ac00d22f00004e
:020000040000fa
:0401b000d22f00004a
:020000040000fa
:0401b400d22f000046
:020000040000fa
:0401b800d22f000042
:020000040000fa
:0401bc00d22f00003e
:020000040000fa
:0401c000d22f00003a
:020000040000fa
:0401c400d22f000036
:020000040000fa
:0401c800d22f000032
:020000040000fa
:0401cc00d22f00002e
:020000040000fa
:0401d000d22f00002a
:020000040000fa
:0401d400d22f000026
:020000040000fa
:0401d800d22f000022
:020000040000fa
:10020000afac20000ebf20000e01880000000000ef
:10021000000020000000e000020032000001200089
:100220002002880014000700601707000000e000ab
:1002300003003a00806c2300010020000200370018
:100240000000200001002000810f7000010032003a
:1002500014000700000020000000e000020032004f
:1002600000000200000000008a2f020000000000d1
:100270000040da000000fe004440a90040362000a3
:100280000000e0000300320000002000a001880010
:100290004440a800000006008a1f78008b1f7800e9
:1002a0000000060091018800800478000000eb0047
:1002b0001a003700e284440032a0b4009905ba0065
:1002c000e284440032a0b4009906ba00e2844400fb
:1002d00032a0b4000006eb00476fde00fd07b2005d
:1002e000636ce10003003a00ebff07000000eb0045
:1002f0000a003700606ce10004003a00005deb008a
:100300008b05e900fdff3e00040037006168e10055
:10031000010032000086eb000b00070019c7ba008d
:100320001905ba000e04e00003003a000a00e000dc
:10033000e0ff3a0000000600fe07b2009e018800c0
:100340008a047800f5ff3700395dba008b05e900b3
:100350000c003200295dba008b05e900080032006c
:100360000c00e00003003a00e284440032a0b40034
:10037000f5ff370019ddba008b05e900faff3a00f6
:100380008904e800e184440032a0b40000000600c3
:100390000000fa00cac2a8008400a9000080fa0088
:1003a000004006003600f800809fbe00829fbe001d
:1003b000849fbe00869fbe000000fa00cac2a8004b
:1003c00082c9bf00e74f5000dc003400404b800082
:1003d000514b800002002000031024005217070038
:1003e000404b8800514b8800404b8000514b8000af
:1003f0000200200003702400ed160700404b880027
:10040000514b8800404b8000514b8000020020007f
:100410000370240044170700404b8800514b8800ac
:10042000404b8000514b800002002000030224005a
:1004300017180700404b8800514b8800404b800044
:10044000514b8000a2702d0033d2230036170700d5
:100450000002be00c04a8000d14a80000001be00f8
:100460000400be00d3160700604988007149880067
:100470007f1307006000b800404b8800514b880094
:10048000204b8000314b800002c02c00c37c240034
:1004900025170700204b8800314b8800244b800033
:1004a000354b8000404a8000514a80000001be0068
:1004b0000400be001c1707000002be005040800070
:1004c000614080000001be000400be00b9160700b4
:1004d000a0488800b14888006000b800204b880020
:1004e000314b8800604b8000714b800002c02c00b3
:1004f000c37c24000c170700604b8800714b8800f8
:10050000604b8000714b8000f2282c0053ef2300d9
:10051000a7160700604b8800714b8800604b800075
:10052000714b800042722900f3c72300fe160700ba
:1005300080498800914988006000b800604b8800bd
:10054000714b8800804b8000914b800002c02c00d2
:10055000c37c2400f4160700804b8800914b880070
:10056000804b8000914b8000f2282c0053ef230039
:100570008f160700804b8800914b8800804b8000cd
:10058000914b800042722900f3c72300e616070052
:10059000c0498800d14988006000b800804b8800bd
:1005a000914b8800a04b8000b14b800002c02c0012
:1005b000c37c2400dc160700a04b8800b14b8800e8
:1005c000a04b8000b14b8000f2282c0053ef230099
:1005d00077160700a04b8800b14b8800a04b800025
:1005e000b14b800042722900f3c72300ce160700ea
:1005f000a0498800b14988006000b800a04b88007d
:10060000b14b8800a0498000b1498000c0498800f2
:10061000d14988008269ef0098c9bf006840600036
:100620000004e0000500320098c9bf000042b2009b
:100630000004e00001003a00af12070098c9bf00b3
:10064000624060000004e0002c003a0098c9bf003e
:100650000042b2000004e00028003a0004c9bf00d4
:10066000e54f5000010032003412070004c9bf00fa
:10067000e24f500003003c0004c9bf000004e0004a
:1006800018003a0094c9bf00684060000004e00010
:10069000140032008bc9bf00e34f500011003a0034
:1006a0001d1407000f15070098c9bf000042b200d3
:1006b0000004e00002003200361307000700370094
:1006c000c841a800804c8000b00e8800704c8000ab
:1006d000c00e8800604c8000d00e88000000000032
:1006e0000900370094c9bf00684060000004e000c2
:1006f00004003a0027130700030037002513070002
:10070000010037000000000094c9bf00684060008d
:100710000004e00007003a0098c9bf00684060008c
:100720000004e00003003200a1e2a9009869a900da
:10073000510037009869a8004f00370098c9bf00e2
:10074000684060000004e0003900320000148000be
:100750008000eb00f91607000002be00204b80006d
:10076000314b80000001be000400be0011160700de
:10077000204b8800314b8800101480008000eb0073
:10078000ee1607000002be00404b8000514b800077
:100790000001be000400be0006160700404b8800a2
:1007a000514b8800201480008000eb00e316070006
:1007b0000002be00604b8000714b80000001be0053
:1007c0000400be00fb150700604b8800714b8800d9
:1007d000301480008000eb00d81607000002be0035
:1007e000804b8000914b80000001be000400be00e1
:1007f000f0150700804b8800914b88004014800062
:100800008000eb00cd1607000002be00a04b800068
:10081000b14b80000001be000400be00e5150700da
:10082000a04b8800b14b8800261107000f0037004d
:100830006000b800204b8800314b88006000b80091
:10084000404b8800514b88006000b800604b880026
:10085000714b88006000b800804b8800914b880085
:100860006000b800a04b8800b14b880082c9bf006f
:100870000040e80082e9b7008560a9000080fa0026
:100880004f03be004f02be004f01be004f00be002e
:100890003600f900004006003600f800809fbe00d8
:1008a000829fbe00849fbe00869fbe00889fbe00c0
:1008b0008a1f78000200fa00cac2a8000ec2bf0058
:1008c000624060000004e0000a003200d002200014
:1008d000761107000200370090108000004f78006a
:1008e0000ec2bf00614060000004e000faff3a0061
:1008f0000e22a90018c2bf00624060000004e000a0
:100900000a003200e00220006811070002003700f0
:10091000e01080001047980018c2bf0061406000de
:100920000004e000faff3a001822a900a1e2a800a2
:10093000bc0307001813070022100700a8100700c7
:100940008f0f070094c9bf00684060000004e000fa
:1009500006003200f04380000040780086e9b700ce
:10096000b0c3b300c6eab70011003700c6cabf0063
:100970000004e0000b003c00b0c3b300c6eab700bf
:1009800086c9bf000004e00002003c009829a800ce
:100990000700370086c9bf000040e90086e9b700bc
:1009a00003003700c6cabf000040e900c6eab7002e
:1009b000305480000000e0000e00340090418000c0
:1009c000a1418000e24a8000f34a800018c0b300d1
:1009d000191607000000e00001003c000044eb0095
:1009e0000804e00003003200305480000000e900f9
:1009f00030548800dbc2bf00614060000004e000aa
:100a000003003a00ca82a9008e29ef00be2aef0037
:100a100094c9bf00684060000004e0002900320073
:100a200084498000954980007043800081438000a4
:100a300018c0b3000001be000400be00fe15070090
:100a40000000e00001003c000044eb000804e0006e
:100a50001a003a00a4498000b54980005043800044
:100a60006143800018c0b3000001be000400be0056
:100a7000f11507000000e00001003c000044eb001d
:100a80000804e0000d003a00c4498000d549800008
:100a9000504380006143800018c0b3000001be00d5
:100aa0000400be00e41507000000e00001003c0067
:100ab0000044eb000804e00002003200e202a8005b
:100ac0003500370094c9bf00684060000004e000b2
:100ad00030003200884980009949800070438000ce
:100ae0008143800002002000030a24003015070023
:100af0001ac0b3000001be000800be00cc150700fc
:100b00000000e000010035000045eb000a04e000b1
:100b100021003200a8498000b9498000504380007c
:100b20006143800002002000030a24002015070012
:100b30001ac0b3000001be000800be00bc150700cb
:100b40000000e000010035000045eb000a04e00071
:100b500011003200c8498000d9498000504380000c
:100b60006143800002002000030a240010150700e2
:100b70001ac0b3000001be000800be00ac1507009b
:100b80000000e000010035000045eb000a04e00031
:100b900001003200e202a90094c9bf007040600069
:100ba0000004e00003003a001000200040548800d8
:100bb00098a9a90094c9bf00704060000004e0003b
:100bc0000d00320094c9bf00614060000004e000e5
:100bd000030032009409a900caa2a9000700370047
:100be0009409a800004880000000e00003003200e3
:100bf000caa2a80001003700caa2a90020478000ad
:100c000031478000eb020700e0468800f14688008b
:100c1000a04a8000b14a800018c0b3000200200042
:100c2000632c2400841507000000e00001003c0054
:100c30000044eb000804e0000d003200c5cabf000c
:100c4000e44f50000a003200c0468000d1468000c8
:100c5000404788005147880040c0b300c5eab7004c
:100c60006000b80020478800314788004200370004
:100c7000a04a8000b14a800018c0b30002002000e2
:100c8000632a24006a1507000000e0000100350017
:100c90000044eb000804e0001e003200a04a80007f
:100ca000b14a800018c0b30002002000232a2400ab
:100cb000611507000000e00001003c000044eb006b
:100cc0000804e00013003200c5cabf00e44f500022
:100cd00003003200c5cabf000004e0000d003a0066
:100ce000e0468000f1468000c0468800d14688007a
:100cf000c0468000d14680000001be00ad14070050
:100d0000c0468800d146880020c0b300c5eab700bd
:100d100019003700a04a8000b14a800018c0b30013
:100d20000200200003f82300411507000000e00046
:100d3000010035000044eb000804e0000e00320022
:100d4000c5cabf000004e0000b003200e04680008e
:100d5000f1468000c0468800d14688006000b80097
:100d60004047880051478800c56aef006000b8001e
:100d70002047880031478800404780005147800065
:100d800018c0b3006011b800291507000000e0008a
:100d9000010035000044eb000804e00003003200cd
:100da0006000b800404788005147880048478000ed
:100db00059478000c0468000d1468000a2702d00b7
:100dc00033ba23007b1407001ac0b3000001be0031
:100dd0000800be00181507000000e00001003c00fc
:100de0000045eb000a04e00007003200c046800026
:100df000d1468000a2702d0033ba23006d14070085
:100e00004047880051478800a8488000b9488000c2
:100e10007440800085408000b0408000c140800068
:100e20000001be000400be00991507001ac0b300ff
:100e30000001be000800be00fd1407000000e00035
:100e4000010035000045eb000a04e0001e003200fe
:100e500080c9bf000004e0001b003200484780004a
:100e600059478000c4468000d5468000704080000d
:100e7000814080000001be000400be008415070010
:100e80001ac0b3000001be000800be00ea1407004b
:100e90000000e00001003c000045eb000a04e00017
:100ea00009003200c4468000d546800070408000b2
:100eb000814080000001be000400be0074150700e0
:100ec000404788005147880094c9bf0068406000cf
:100ed0000004e0000c003a004847800059478000b9
:100ee000d0438000e143800032842900139923001d
:100ef000671507000001be000800be002c140700a3
:100f0000404788005147880044478000554780008b
:100f1000c0468000d14680000001be000400be0033
:100f20008114070002002000832c240058150700bc
:100f300080488800914888008460a9000080fa00f9
:100f40004f0578004f04be004f03be004f02be00a5
:100f50004f01be004f00be003600f9000040060001
:100f60003600f800809fbe00829fbe00849fbe00b6
:100f7000869fbe00889fbe000400fa00cac2a80077
:100f8000044a8000154a80002049800031498000d1
:100f90000001be000400be003d1507004049880066
:100fa00051498800c4cabf000004e00006003400b4
:100fb000c4cabf00e34f500003003200c4cabf00e0
:100fc0000040e900c4eab700c3cabf000004e00063
:100fd00006003400c3cabf00e34f500003003200d4
:100fe000c3cabf000040e900c3eab700c2cabf00dd
:100ff0000004e00006003400c2cabf00e34f500006
:1010000003003200c2cabf000040e900c2eab700d4
:1010100081c9bf00e74f50001f003400c04b800063
:10102000d14b800002002000031024003e14070072
:10103000c04b8800d14b8800c04b8000d14b800052
:10104000004a8800114a8800e04b8000f14b800084
:10105000020020000310240033140700e04b880036
:10106000f14b8800e04b8000f14b80002049880064
:10107000314988006000b800e04b8800f14b8800df
:101080006000b800c04b8800d14b88008169ef0038
:101090002d0207001100370060498000714980006f
:1010a000c24b8000d34b8000c2130700c04b8800a6
:1010b000d14b8800a0488000b1488000e24b8000fe
:1010c000f34b8000bb130700e04b8800f14b880016
:1010d00081c9bf000040e80081e9b700044a8000f0
:1010e000154a800020498000314980000001be007f
:1010f0000400be00e6140700ae010700008fbe002a
:10110000e0488000f148800018c0b3001e01be0016
:10111000471407000000e000010035000044eb0028
:101120000804e0000b0032001e01be00e248880007
:10113000f348880020498000314980000049880038
:1011400011498800004a8000114a8000e049880067
:10115000f1498800604980007149800095010700cd
:1011600018c0b300f226210033b023003214070068
:101170000000e00001003c000044eb000804e00037
:1011800018003200284780003947800060498000fd
:101190007149800012052a0013812300bc14070046
:1011a0000001be000800be0082130700204788002f
:1011b00031478800484780005947800060498000d7
:1011c0007149800012052a0013812300b014070022
:1011d0000001be000800be007613070040478800eb
:1011e0005147880084c0a9000080fa004f04be0067
:1011f0004f03be004f02be004f01be004f00be00b5
:101200003600f900004006003600f800809fbe005e
:10121000829fbe00849fbe00869fbe00889fbe0046
:101220000000fa00cac2a800500880008000eb004d
:1012300042140700004b8800114b88000a21ef0080
:1012400094c9bf00624060000004e0000f0032005b
:10125000b8438000c9438000004b8000114b8000e0
:1012600002f02f00f3772400af1307000001be0047
:101270000800be00ac130700020020001356240033
:101280008314070060488800714888009429a800ea
:101290008600a9000080fa004f04be004f03be0084
:1012a0004f02be004f01be004f00be003600f900e5
:1012b00000400600809fbe000000fa00cac2a800dd
:1012c0006000b80060488800714888009429a9002f
:1012d00084e0a9000080fa004f00be000040060034
:1012e0003600f800809fbe00829fbe00849fbe0033
:1012f000869fbe000000fa00cac2a800260c0700a4
:101300000000e00009003200d80a070010548000f5
:10131000e40f500002003400200e070003003700e5
:10132000105480000000e800105488000154800030
:1013300080702000808f500003003a00320c0700bc
:10134000802aef0003003700005480000000e8000e
:101350000054880086a0a9000080fa004f03be0058
:101360004f02be004f01be004f00be003600f90024
:10137000004006003600f800809fbe00829fbe003d
:10138000849fbe00869fbe000000fa00cac2a8006b
:101390000000eb00fe06070010002000fc0607001e
:1013a00086c0a9000080fa004f03be004f02be00b5
:1013b0004f01be004f00be003600f900004006009d
:1013c0003600f800809fbe00829fbe00849fbe0052
:1013d000869fbe000000fa00cac2a8000000eb0011
:1013e0005f0807008520a9000080fa004f03be00b7
:1013f0004f02be004f01be004f00be003600f90094
:10140000004006003600f800809fbe00829fbe00ac
:10141000849fbe00869fbe000000fa00cac2a800da
:10142000100020004e0807008700a9000080fa0085
:101430004f03be004f02be004f01be004f00be0072
:101440003600f900004006003600f800809fbe001c
:10145000829fbe00849fbe00869fbe000000fa00ef
:10146000cac2a80009003700314d8000c09d20008d
:1014700000804000104078000000fb0080108800d1
:10148000304d80000000e800304d88000fc2bf00e2
:10149000624060000004e00005003a00314d800029
:1014a000dac9bf000000fb00808f5000eeff39005a
:1014b0000000eb00470107008540a9000080fa000a
:1014c0004f03be004f02be004f01be004f00be00e2
:1014d0003600f900004006003600f800809fbe008c
:1014e000829fbe00849fbe00869fbe000000fa005f
:1014f000cac2a8000b003700404d8000c103200085
:1015000080804000c09d2000008040001040780096
:101510000000fb00d0108800404d80000000e80073
:10152000404d880019c2bf00624060000004e00026
:1015300005003a00414d8000dbc9bf000000fb0000
:10154000808f5000ecff39001000200021010700bf
:101550008720a9000080fa004f03be004f02be00a2
:101560004f01be004f00be003600f90000400600eb
:101570003600f800809fbe00829fbe00849fbe00a0
:10158000869fbe000000fa00cac2a800810f0700b3
:1015900098a9a800c0002000440e0700830a070095
:1015a0008960a9000080fa004f03be004f02be0010
:1015b0004f01be004f00be003600f900004006009b
:1015c0003600f800809fbe00829fbe00849fbe0050
:1015d000869fbe000000fa0042c7bf000042b20072
:1015e0000004e00006003a0098c9bf000044b200c1
:1015f0000004e00002003a00200120002b0e07004a
:10160000cac2a800630f070098a9a80098c9bf0024
:101610000044b2000004e00002003200d0002000cc
:10162000220e070098c9a800600a07008020a900c0
:101630000080fa004f03be004f02be004f01be0003
:101640004f00be003600f900004006003600f800ea
:10165000809fbe00829fbe00849fbe00869fbe000a
:101660000000fa00cac2a8004a0f070098a9a80003
:10167000e00020000d0e07004c0a07008060a90062
:101680000080fa004f03be004f02be004f01be00b3
:101690004f00be003600f900004006003600f8009a
:1016a000809fbe00829fbe00849fbe00869fbe00ba
:1016b0000000fa00cac2a800f0bf200000018800a4
:1016c000340f070098a9a800f0002000f70d0700cc
:1016d000360a07008040a9000080fa004f03be00d0
:1016e0004f02be004f01be004f00be003600f900a1
:1016f000004006003600f800809fbe00829fbe00ba
:10170000849fbe00869fbe000000fa00cac2a800e7
:10171000200f070098a9a80000012000e30d070092
:10172000220a07008080a9000080fa004f03be0053
:101730004f02be004f01be004f00be003600f90050
:10174000004006003600f800809fbe00829fbe0069
:10175000849fbe00869fbe000000fa00cac2a80097
:101760000c0f070098a9a80010012000cf0d07005a
:101770000e0a07000080fa004f03be004f02be00b1
:101780004f01be004f00be003600f90000400600c9
:101790000000fa00a04a8000b14a8000004788009b
:1017a00011478800010a0700d642a9000080fa000c
:1017b000000006000400fa00881f7800008fbe00b9
:1017c00018c0b3006011b8001e00be0098120700d8
:1017d0000000e000010035000044eb000804e000d8
:1017e000030032001e00be0001f0a200010037001d
:1017f0001e00be004f0478000080fa0000000600c2
:101800000000fa006000b800a04a8800b14a8800d1
:101810006000b800804a8800914a88000080fa0081
:10182000000006000000fa00889fbe008a1f7800b2
:101830006049800071498000deff070018c0b300d6
:10184000d2cc2c00c3d42300791207000000e000a2
:10185000010035000044eb000804e00021003200e4
:1018600094c9bf000044b2000004e0001d003a002b
:10187000a0488000b1488000804a8800914a8800d2
:10188000844a8000954a8000d0408000e14080007a
:101890000001be000400be00c51107000004be0028
:1018a000b4408000c5408000d0408000e14080000e
:1018b0000001be000400be00bd1107000001be0013
:1018c0000800be001812070002002000832c24002c
:1018d000ef120700a04a8800b14a88009549a80085
:1018e00015003700a8488000b9488000d04080002b
:1018f000e1408000d2cc2c00c3d42300ad110700fe
:101900001ac0b3000001be000800be004812070064
:101910000000e000010034000045eb000a04e00094
:1019200003003200b6ff07009549a8000200370007
:10193000b3ff07009549a9004f0578004f04be008a
:101940000080fa00000006000400fa00004a80004f
:10195000114a800001f0a200008fbe0083c9bf00c1
:10196000e44f50000f003a00d0438000e143800074
:101970000001be001e00be008d110700c04a880095
:10198000d14a880050c0b30083e9b70004c9bf0042
:10199000e54f50000200320010c0b30004e9b70068
:1019a0009449a90083c9bf00e14f500007003a00e5
:1019b0006000b800c04a8800d14a8800750e070050
:1019c00040c0b30083e9b7009449a8000080fa0042
:1019d000000006000200fa00000f78001e007800e8
:1019e00080004000609a2000008040009000780055
:1019f000a09d20001e004000104078000000fb0069
:101a0000808f50000e0039001e00780080004000da
:101a1000609a2000008040008000eb000108780000
:101a2000a09d20001e0040008040eb00014878008f
:101a300080a520001e0040008040eb000148780097
:101a40000080fa00000006000600fa002007980057
:101a50000040eb00004f78000000eb0010079800fa
:101a60002e0090006f006000100798001e0090008c
:101a7000e90f500005003c001e0090000040780077
:101a80000043b000004f7800040037001e009000b3
:101a9000004078007043b000004f78001e4078008e
:101aa0000080fa00000006000200fa00000f780033
:101ab0001e007800e10f500009003400a001200052
:101ac000fa0c07001e00780080004000e09a200019
:101ad000008040008000eb00010878000f00370014
:101ae00080a520001e004000104078000004e000a7
:101af000090032001e0078000000e0000300320000
:101b000080022000e90c070004003700700220006a
:101b1000e60c070001003700000000000080fa001a
:101b2000000006000600fa00881f780010079800e1
:101b3000210798002e009000dbff07009e00900018
:101b400000002f00008060004c00de008040780024
:101b50002e0090004201dd00409c2000000041006a
:101b6000014878009e00900000f020008080600016
:101b70000010200000017800110009008200d80048
:101b8000804078002e0090004201dd00509c200033
:101b900000004100014878009e009000000f2000e6
:101ba0008080600000012000000178001100090021
:101bb0008200d800804078002e0090004201dd00b5
:101bc000609c200000004100014878001e00900049
:101bd00000407800ef4060002e0090004201dd00e0
:101be000709c20000000410001487800ae00900089
:101bf000a0a520000080400011c0b300014878007b
:101c00002e00900080004000609a2000008040007c
:101c100010017800ae009000c00320000088b900d9
:101c20000000780082004000c09d2000008040003d
:101c300001c3b300014878002e00900080004000ee
:101c4000609a200000804000100078008000e800ca
:101c50002e00900000014000609a2000000041002a
:101c6000010878002e00900080004000609a20005b
:101c70000080400010017800ae009000c0032000fa
:101c80000088b9000000780082004000c09d20005c
:101c90000080400081c7b300014878002e0090000a
:101ca00080004000609a2000008040001000780012
:101cb0008000e8002e00900000014000609a2000a3
:101cc00000004100010878000000eb00000f7800e0
:101cd0002a0037002e00900080004000609a20000b
:101ce00000804000100478002e0090004200dd00cb
:101cf0009e004000409c2000008040001040780082
:101d00000000fb0050ff070000417800ae0090008b
:101d1000c00320000088b90000007800880040005f
:101d2000c09d200000804000024878002e009000f6
:101d300080004000609a2000008040009000780001
:101d4000a0032000808f50000b003e002e0090006a
:101d500080004000609a2000008040001000780061
:101d60008000e8002e00900000014000609a2000f2
:101d700000004100010878001e0fe8001e007800f6
:101d8000e30f5000d3ff34002e009000800040008d
:101d9000609a2000008040001000780080407800a9
:101da0002e019000a09d2000000041000148780015
:101db000ae009000a0a52000008040008040eb0015
:101dc000014878004f0478000080fa000000060007
:101dd0000200fa00000f780080a520001e004000dd
:101de000104078000004e00011003a0080a52000b7
:101df0001e00400011c0b300014878001e007800aa
:101e000080004000609a2000008040008000eb00cd
:101e1000010878001e0078000000e0000200320097
:101e20008720a800030037008540a8000100370084
:101e3000000000000080fa00000006000400fa0024
:101e4000000f7800110798001e00900016ff070091
:101e50009e009000a0a520000080400011c0b300ab
:101e6000014878001e00900080004000a09a2000e9
:101e7000008040008000eb0001087800320037004d
:101e80001e00900080004000609a2000008040000a
:101e9000900178001e00900080004000a09a200071
:101ea00000804000100078001e00400010417800c3
:101eb0009e009000c00320000088b9000000780058
:101ec00083004000c09d2000008040000248780050
:101ed0001e00900080004000609a200000804000ba
:101ee00090007800a0032000808f50000b003e007f
:101ef0001e00900080004000609a2000008040009a
:101f0000100078008000e8001e00900000014000f2
:101f1000609a200000004100010878001e00900037
:101f200080004000a09a200000804000100078004f
:101f30008000e8001e00900000014000a09a2000f0
:101f400000004100010878001e0090008000400061
:101f5000a09a200000804000100078001e00400081
:101f6000104078000004e000c5ff3a001e00900019
:101f700080004000609a200000804000100078003f
:101f8000804078001e019000a09d200000004100cc
:101f9000014878009e009000a0a52000008040002d
:101fa0008040eb00014878000080fa000000060045
:101fb0000200fa00000f78001e0078008000400048
:101fc000609a200000804000900178001e00780098
:101fd00080004000e09a200000804000100178005e
:101fe0001e0078006700b900000078008200400001
:101ff000c09c200000804000104178009e007800c6
:10200000c00320000088b900000078008300400071
:10201000c09d200000804000024878001e0078002b
:1020200080004000609a200000804000900078000e
:10203000a0032000808f50000b003e001e0078009f
:1020400080004000609a200000804000100078006e
:102050008000e8001e00780000014000609a200027
:1020600000004100010878000080fa00000006002e
:102070000800fa00889fbe0010079800210798000a
:10208000320798003e00900080004000e09a200057
:10209000008040008000eb0001087800a19920003a
:1020a0003e0090004200dd00008140006000b8006a
:1020b0000089be00be00900060a5200000804000a6
:1020c0008040eb00014878000000eb00000f780032
:1020d0003e0090006700b90080007800c09c20009e
:1020e0000080400001c2b3000148780018c0b3006e
:1020f0006011b8001e009000ae0090004c10070068
:102100000000e000010035000044eb000804e0009e
:102110000e0032001e009000ae00900001f0a20000
:1021200010079800210798003e0090006700b90052
:1021300080007800c09c200000804000d1c2b30025
:102140000148780010002000000f780018c0b3008c
:10215000f2ff2300c36124001e009000ae00900037
:10216000351007000000e00001003c000044eb00d7
:102170000804e0000d003200f0ff2300c1612400dc
:1021800010079800210798003e0090006700b900f2
:1021900080007800c09c200000804000f1c3b300a4
:1021a0000148780010002000000f78000200200095
:1021b000a34724001e009000ae009000da0f070035
:1021c000a39920003e0190004211dd0002814100f0
:1021d0000089be003e00900080004000e09a200090
:1021e00000804000100078008000e8003e00900071
:1021f00000014000e09a2000000041000108780042
:10220000580037003e00900080004000e09a200017
:102210000080400010007800e50f500012003a00e6
:102220003e0090006700b90080007800109d2000fb
:1022300000804000e1c2b300014878003e009000f9
:1022400080004000e09a20000080400010007800ec
:102250008000e8003e00900000014000e09a20006d
:102260000000410001087800a19920003e00900084
:102270004200dd00008040001000be00f00f0700ab
:10228000804078003e01900060a5200000004100e1
:10229000014878003e00900080004000e09a200055
:1022a0000080400090017800be00900060a52000f2
:1022b00000804000104078000043b00000417800ea
:1022c0003e0090006700b9000000780083004000e5
:1022d000c09c200000804000024878003e00900032
:1022e00080004000e09a200000804000100078004c
:1022f0008000e8003e00900000014000e09a2000cd
:102300000000410001087800a19920003e009000e3
:102310004200dd00008040001004be00be009000be
:1023200060a5200000804000104078000000fb0005
:10233000cf80de00fe0f07000001be000800be00d7
:102340001b0f07000200200003122400501007009a
:10235000a39920003e0190004211dd00028141005e
:102360000089be003e00900080004000e09a2000fe
:102370000080400010007800e80f5000a1ff3600f8
:102380003e00900080004000e09a20000080400065
:102390008000eb00010878003e009000c2fd0700bd
:1023a000be009000a0a520000080400011c0b30036
:1023b00001487800950037003e0090008000400002
:1023c000e09a200000804000100078008000e800c3
:1023d0003e00900000014000e09a20000000410013
:1023e0000108780001003700000000003e00900066
:1023f00080004000e09a200000804000100178003a
:102400003e0090006700b9000000780082004000a4
:10241000c09c2000008040009040780000c3b300c2
:1024200080cf50000d003a00be00900040a5200073
:1024300000804000104078000004e00007003a00ef
:102440003e00900080004000e09a200000804000a4
:1024500010007800e20f5000d7ff3600be00900059
:10246000c0a5200000804000104078000004e0007b
:10247000270032003e00900080004000e09a2000db
:1024800000804000100178003e0090006700b90015
:102490000000780082004000c09c200000804000c6
:1024a000104078000000fb0001022000810f500066
:1024b00005003200d1022000810f50000e003a00ca
:1024c0003e009000bafe07003e00900080004000f1
:1024d000e09a200000804000100078008000e800b2
:1024e0003e00900000014000e09a20000000410002
:1024f0000108780000000000be009000c0a5200088
:10250000008040008040eb00014878000d0037005b
:102510003e009000a6fe07003e00900080004000b4
:10252000e09a200000804000100078008000e80061
:102530003e00900000014000e09a200000004100b1
:10254000010878003e00900080004000e09a2000e2
:1025500000804000100178003e0090006700b90044
:102560000000780082004000c09c200000804000f5
:102570009040780000c3b30080cf500023003200a9
:102580003e00900080004000e09a20000080400063
:10259000100178003e0090006700b900000078004c
:1025a00082004000c09c20000080400090407800e5
:1025b000d0c2b30080cf5000140032003e00900023
:1025c00080004000e09a2000008040001001780068
:1025d0003e0090006700b9000000780082004000d3
:1025e000c09c2000008040009040780000c2b300f2
:1025f00080cf500005003200be00900040a52000b2
:10260000008040008040eb00014878003e009000d0
:1026100080004000e09a2000008040001000780018
:10262000e80f500070ff3600be00900040a520006b
:10263000008040008040eb00014878003e009000a0
:1026400080004000609a2000008040001000780068
:10265000804078003e019000a09d200000004100d5
:1026600001487800be009000a0a520000080400036
:102670008040eb00014878004f04be000080fa0063
:10268000000006001200fa00500798006107980049
:1026900072079800030f980002402200439724001d
:1026a0007e0090008e089000790f0700008fbe001a
:1026b0005e019000ee0190001e00be009a0e070021
:1026c0000200200003182400970e070002002000db
:1026d00003f82300360e0700200798003107980002
:1026e0002e009000be009000f60e070040079800f4
:1026f0004e0090000080fa00000006000000fa0082
:10270000000020008134240010408800214088000f
:10271000000020000118240030408800414088005b
:10272000d0cc2c00c1dc2b005040880061408800d8
:102730006066260061f623007040880081408800b2
:10274000d0cc2c00c126240090408800a1408800f5
:1027500030332300b1262400b0408800c1408800f7
:1027600000002000e1232400d0408800e1408800e0
:1027700000002000c1222400f040880001418800b0
:102780000000200001002400104188002141880041
:1027900000002000010a24003041880041418800e7
:1027a0000000200001f023005041880061418800b2
:1027b00030332300b11b2400704188008141880020
:1027c00000002000011f240090418800a1418800e2
:1027d00000002000811c2400b0418800c141880015
:1027e0000000200001122400d0418800e14188004f
:1027f0000000200001172400f041880001428800f9
:10280000000020000122240010428800214288009c
:1028100000002000c120240030428800414288008e
:1028200000002000811c2400504288006142880082
:102830006000b800704288008142880000002000db
:102840000112240090428800a1428800000020006c
:10285000c1252400b0428800c14288000000200049
:1028600081242400d0428800e1428800000020003a
:1028700001172400f0428800014388000000200076
:102880000127240010438800214388000000200015
:10289000012a2400304388004143880000002000c2
:1028a00081242400504388006143880000002000f8
:1028b000011f24007043880081438800000020002d
:1028c0008124240090438800a143880060ba290035
:1028d00041c42300b0438800c1438800200426007f
:1028e00051c62300d0438800e143880080072000c0
:1028f000f043880020c1b30084e8b700e0c0b30013
:1029000085e8b70060c1b30086e8b7008768ef00cc
:10291000a0c0b3008ae8b700d0c0b3008be8b7000e
:102920008c68ef00c0cfb300b4e8b70030c0b3008c
:10293000b5e8b70080c0b300b6e8b70090c0b300f8
:10294000b7e8b700d0cfb300b8e8b70020c0b300f5
:10295000b9e8b70010c0b300bae8b700bb68ef0031
:10296000d068ef0040c0b300d1e8b700d268ef00f4
:10297000d368ef008268ef0010c0b30083e8b700af
:1029800050332300a046880060c4b30005e9b700b7
:102990006d0607000080fa00000006000000fa0043
:1029a0009849a9006000b800e0488800f148880014
:1029b0006000b80000498800114988006000b80034
:1029c000e0498800f14988006000b800804988002b
:1029d000914988006000b800a0498800b14988008a
:1029e0006000b800c0498800d14988006000b80084
:1029f000a0488800b14888006000b800804a88007c
:102a0000914a88006000b800a04a8800b14a880056
:102a10009549a9006000b8006049880071498800a4
:102a2000317420009140780080cfb30000c0600076
:102a30000004a00043e7b7004207a8004227a9000e
:102a4000cc22ef00d022ef00cc22ef00f0fe2f00ce
:102a5000c0168800dc22ef00da22ef00e0fb2f0036
:102a6000f0168800e222ef00de22ef006000200076
:102a7000000e8800c221ef0010032000200e880005
:102a8000c621ef00b00f2000400e8800ca21ef00e1
:102a900010182800600e8800d021ef0000f02f00f1
:102aa000a00e8800d621ef00d821ef00da21ef0038
:102ab0000e22ef000fe2a9000c22ef000d42a80049
:102ac000a2702d00b31624000000200061612400d4
:102ad000ecfe0700a01088001822ef0019e2a90000
:102ae0001622ef00a2702d00b31624000000200073
:102af00061612400e3fe0700f0108800a00e2e00a4
:102b0000100888000021ef000421ef004110200090
:102b10009140780000c3b30000c0700004e1b7002a
:102b2000a0832300600888000621ef001021ef0039
:102b30000111200091407800f0ccb30000c060008b
:102b40000054a00010e1b700a00e2e00700888000d
:102b50000a21ef001221ef0021112000914078009e
:102b600000c3b30000c0700012e1b700a00e2e0039
:102b7000d00888001421ef001e21ef00e111200091
:102b80009140780000c3b30000c070001ee1b700a0
:102b9000a0832300e00888001821ef002021ef0027
:102ba0000112200091407800f0ccb30000c060001a
:102bb0000054a00020e1b700f0002000604a880027
:102bc000f0002000704a8800614a8000704a80004e
:102bd00000804000cf80de00d50d07000001be0060
:102be00000a22e0001b624004f0d070002002000b5
:102bf000432324004c0d07000001be00000020000c
:102c000001f82300480d0700b0548800c154880023
:102c1000402e20000015880000412000101588007b
:102c2000f0f0200020158800a622ef0000f72f000a
:102c300040158800f00820005015880091092000f8
:102c40009140780000c7b30000c0700099e0b70061
:102c5000710920009140780080cfb30000c060006f
:102c60006040b30097e0b700c109200091407800b0
:102c700080cfb30000c060005040b3009ce0b700bc
:102c80005109200091407800f0c8b30000c06000f6
:102c90000064a00095e0b700410920009140780051
:102ca00080cfb30000c060003040b30094e0b700b4
:102cb000910920009140780080cfb30000c06000ef
:102cc0003040b30099e0b700010a2000914078003d
:102cd000f0c8b30080c0600000c3b30000c0700043
:102ce000a0e0b7008109200091407800f0c8b3004f
:102cf00000c060000054a00098e0b700010a200066
:102d00009140780080cfb30000c060000014a000a4
:102d1000a0e0b7007109200091407800f0c8b3002e
:102d200000c060000054a00097e0b700f109200047
:102d30009140780080cfb30000c060000014a00074
:102d40009fe0b700e109200091407800f0c8b3008f
:102d500000c060000044a0009ee0b700f109200020
:102d600091407800f0c8b30000c060000044a000ab
:102d70009fe0b7000080fa00000006000000fa00a3
:102d8000889fbe0000bf20000001880038408000fe
:102d90004940800014408000254080003040800081
:102da000414080000001be000400be00810c07000d
:102db0000001be000800be00db0c0700404a88008e
:102dc000514a88009889a8009809a90054418000b8
:102dd0006541800070418000814180000001be009b
:102de0000400be00aa0d070090558800a155880078
:102df000eafe070081e0a9008420ef008620ef00b2
:102e00008820ef00ff3ffc008c20ef008e20ef00b9
:102e10009020ef008c60a8008d20a8008d40a800b5
:102e20008f00a8008f20a8008c00a8009529a8007a
:102e30008e00a8008ee0a9008cc0a8008ce0a8003d
:102e40008ea0a8008ec0a8008d60a8008200a900f6
:102e50008240a9005220ef00a1e2a800c1e1a80031
:102e600011e1a80005e1a80013e1a8001fe1a800f6
:102e700021e1a8000de2a8000f42a80017e2a80077
:102e80001942a8004f04be000080fa0000000600ae
:102e90000000fa00c1fe0700ff3ffc008420ef00a5
:102ea0008620ef008820ef008c20ef008e20ef00be
:102eb0009020ef008d20a8008d40a8008f00a80072
:102ec0008f20a8005220ef00a1e2a900c1e1a900d3
:102ed00011e1a90005e1a90013e1a9001fe1a90082
:102ee00021e1a9000de2a8000f42a80017e2a80006
:102ef0001942a8000080fa00000006000000fa0055
:102f000024090700a1e2a90011e1a90013e1a90029
:102f10001fe1a90021e1a9008e00a9008cc0a90031
:102f20008ce0a9008ea0a9008ec0a9008220a90073
:102f30008240a90000702000005488009889a900f0
:102f40009809a8000080fa00000006000000fa00be
:102f500094a9a9009449a900c1e1a90005e1a9002b
:102f60008420ef008620ef008820ef00ff3ffc0068
:102f70008c60a9008d60a9008220a9008240a90070
:102f8000deff07009829a8000080fa000000060074
:102f90000200fa00000f7800220820009e00410085
:102fa0000080200000804000104078000004e00015
:102fb0006300320080a520001e0040001040780011
:102fc0000004e0005e003a0094c9bf006840600061
:102fd0000004e0005a003200a0a620001e004000bd
:102fe000104078000004e0004e003a001e00780017
:102ff0008000400060a620000080400010007800a3
:103000009e007800500007001e00780080004000fd
:1030100060a6200000804000100078009e0078002c
:10302000c208dd0000804000c10c2000808040000c
:103030000080200000804000104078000040e9003f
:1030400080407800a0a620001e00400001487800c3
:10305000a0a620001e004000104078000004e00000
:1030600004003d00a0a620001e0040008040eb00b0
:10307000014878001e0078008000400060a6200013
:103080000080400010007800e30f50001e003e005a
:103090001e0078008000400060a6200000804000f4
:1030a000100078006600b900000178001e0078006a
:1030b0007800b9000000780000004100c10920003c
:1030c0008080400000802000008040001040780098
:1030d0000004e0000c0032001e0078008000400078
:1030e00060a6200000804000100078008000e8000a
:1030f0001e0078000001400060a620000000410092
:10310000010878000e0037001e00780080004000a3
:1031100060a62000008040008000eb0001087800dd
:1031200007003700a0a620001e00400010407800d5
:103130008040e900a0a620001e0040000148780061
:103140000080fa00000006000a00fa00300798002c
:10315000410798000000eb00000f78000000eb0032
:10316000200798000000eb00100798000000eb001b
:10317000000f7800730037003e0090006600b90031
:10318000000178004e0090007800b900000078003f
:10319000000041001e004000c10920008080400066
:1031a0000080200000804000104078000000fb00fc
:1031b00020079800ae009000f00f20000080600013
:1031c000200798002e009000e70f500005003e00f9
:1031d000ce009000c0a520000080400011c0b300c8
:1031e000014878002e009000e80f500005003a00da
:1031f000ce00900040a520000080400011c0b30028
:10320000014878002e0090000000e00051003200dc
:10321000ae009000b00f2000808f500025003600d7
:103220002e009000d10f2000810f500012003200bc
:10323000d10f2000810f500004003e00c10f20007c
:10324000810f50000800320017003700e10f200006
:10325000810f50000c003200f10f2000810f500050
:103260000d00320010003700ce0090004088200092
:10327000f2fa07000c003700ce009000a088200072
:10328000eefa070008003700ce0090000089200009
:10329000eafa070004003700ce00900060892000a1
:1032a000e6fa070000000000100020001007980058
:1032b000230037002e009000ee0f500020003e004b
:1032c0002e0090004200dd008080e8006090200029
:1032d0000081400012007800920090004e019000a2
:1032e00063fb07004e00900080004000609a2000c1
:1032f00000804000100078008080e9004e009000bf
:1033000000014000609a20000000410001087800a0
:103310002e0090008000400080382b00008040008c
:1033200010007800ce009000c4fa0700ce00900094
:10333000205e2b00c1fa0700100020001007980043
:103340001e0fe8001e007800e50f50008aff3600cf
:1033500001003700000000001e0090000000e000a7
:10336000020032004e00900099fa07000080fa0037
:10337000000006000200fa00000f7800020037008b
:10338000cac2a9000140fe0080a520001e00400026
:10339000104078000004e000f9ff3a00cac2a8001b
:1033a0000080fa00000006000400fa0010079800f0
:1033b0009e009000405e2b00a0fa07001e009000c7
:1033c00083fa07001e0090008000400020a6200025
:1033d000008040008000eb00010878001e00900093
:1033e000e4ff070000488000ea0f500005003600a7
:1033f0009e009000605f2b0090fa07001e00900076
:1034000073fa0700004880000000e00048003a001e
:103410009e00900080602b0088fa07001e0090003c
:103420006bfa07004c0037001e009000d1ff070028
:103430009e009000a0612b0080fa07001e00900003
:103440008000400020a6200000804000100078008e
:103450006b00400080004000608d20000080400034
:10346000100078009e009000aef907009e009000ca
:1034700010622b0071fa07001e00900080004000cf
:1034800020a6200000804000100078006b00400063
:1034900080004000608d2000008040001000780017
:1034a000000f78001e0078000000e00004003200e9
:1034b000c00220009e007800808f500008003c0071
:1034c0001e00e9008000400060582b000080400092
:1034d000100078009e00900058fa070003003700a3
:1034e0009e009000e0572b0054fa07009e009000c9
:1034f00060622b0051fa07001e00900034fa0700aa
:103500001e0090008000400020a6200000804000a7
:10351000100078008000e8001e00900000014000cc
:1035200020a62000000041000108780001003700bb
:10353000000000001e0090008000400020a6200037
:103540000080400010007800800078000048800073
:10355000808f5000b4ff39000080fa0000000600a0
:103560000400fa0010079800a50037001e00900024
:103570000000e0000f0032001e00900080004000bc
:10358000209a20000080400090017800e010800028
:10359000004178001e0090006500b900000078002e
:1035a00083004000209b20000080400002487800fb
:1035b0000e0037001e00900080004000209a20007e
:1035c0000080400090017800901080000041780059
:1035d0001e0090006500b9000000780083004000e4
:1035e000209b200000804000024878009e00900050
:1035f00070ac200000804000104078000004e00023
:103600003c0032001e00900080004000209a200004
:1036100000804000100178001e0090006500b90095
:103620000000780082004000209b200000804000c5
:1036300010407800ed4f50000e003a001e00900040
:1036400080004000209a2000008040001001780097
:103650001e0090006500b900000078008200400064
:10366000209b20000080400010407800ea4f50006e
:10367000200032001e0090000000e0000f00320029
:103680001e00900080004000209a20000080400032
:10369000100178001e0090006500b900000078005d
:1036a00082004000209b20000080400010407800f5
:1036b0000000fb00d01088000e0037001e009000b4
:1036c00080004000209a2000008040001001780017
:1036d0001e0090006500b9000000780082004000e4
:1036e000209b200000804000104078000000fb007c
:1036f000801088001e00900080004000209a20006a
:1037000000804000100178001e0090006500b900a4
:103710000000780082004000209b200000804000d4
:10372000104f78001e407800ed4f5000030032002b
:103730001e407800ea4f50001f003a009e009000a3
:1037400070ac200000804000104078000004e000d1
:10375000030032009e00900060622b00b7f9070062
:103760001e00900080004000209a20000080400051
:1037700010007800804078001e019000209c2000fe
:1037800000004100014878001e00900080004000c9
:10379000209a2000008040008000eb0001087800a3
:1037a0009e009000c09b20000080400011c0b3002c
:1037b00001487800120037001e0090008000400091
:1037c000209a20000080400010007800e30f500095
:1037d0000b003e001e00900080004000209a200058
:1037e00000804000100078008000e8001e0090007b
:1037f00000014000209a20000000410001087800ec
:103800001e0090000000e00004003a000ec2bf005d
:10381000614060000004e00007003a001e009000d4
:10382000e10f50000a003a0018c2bf00614060007a
:103830000004e000060032009e009000c09b2000c3
:1038400000804000104078000004e00047ff320094
:103850009e009000c09b2000008040001040780037
:103860000004e000730132009e00900070ac200064
:1038700000804000104078000004e00003003200a7
:103880009e00900090622b006cf9070000488000b9
:103890000000e000090032009e00900070ac2000a3
:1038a00000804000104078000004e0000300320077
:1038b0009e009000b0622b0060f907001e0090008f
:1038c00080004000e0a5200000804000100178004a
:1038d0001e0090006500b9000000780082004000e2
:1038e000209b200000804000104078000000fb007a
:1038f0006101b90030ff2f00f1ff2f0002004000ee
:10390000838048001207200003002000820f50002f
:10391000838f580027013e00006001002f0137000f
:10392000240137002301370022013700210137002d
:10393000200137001f0137001e0137001d0137002d
:103940001c0137001b0137001a013700190137002d
:10395000180137001701370016013700150137002d
:103960001401370013013700120137001b01370023
:10397000100137005b00370067003700890037000f
:10398000760037000b0137000a01370009013700c4
:103990000401370007013700060137000501370031
:1039a000040137000301370002013700010137002d
:1039b00000013700ff003700fe003700fd00370030
:1039c000fc003700fb003700fa003700f900370031
:1039d000f8003700f7003700f6003700f500370031
:1039e000f4003700f3003700f2003700f100370031
:1039f000f0003700cb003700ee00370081003700c1
:103a00008e003700eb00370077003700e900370001
:103a1000e8003700e7003700e6003700e500370030
:103a2000e40037009f00370087003700e1003700cf
:103a3000e00037007f003700de003700dd00370090
:103a4000dc003700db003700da003700d900370030
:103a5000c6003700d7003700d6003700d500370042
:103a6000d4003700d3003700d2003700d100370030
:103a7000d0003700cf003700ce0037006700370096
:103a8000cc003700cb0037005a003700c9003700a0
:103a9000c8003700c7003700c6003700c500370030
:103aa000c40037008f00370072003700c1003700b4
:103ab000c0003700bf003700be003700bd00370030
:103ac000bc003700bb003700ba003700b900370030
:103ad000b8003700b7003700b6003700b500370030
:103ae0003c0037001e00900080004000209a20001b
:103af000008040008000eb00010878009e009000ec
:103b0000c09b2000008040008040eb00014878000e
:103b10000000fe00b60037009e009000d0622b002f
:103b2000c6f80700004480009e009000fdf70700e3
:103b30009e009000d0632b00c0f8070032020700ff
:103b4000b05380009e009000f6f707009e009000a2
:103b500060622b00b9f80700a50037009e009000b6
:103b600070642b00b5f80700f01f2000e501070086
:103b70009e009000ebf707009e009000d0632b00a2
:103b8000aef8070037020700c05380009e00900087
:103b9000e4f707009e00900060622b00a7f8070082
:103ba000930037009e00900070ac20000080400021
:103bb000104078000004e000030032009e009000f6
:103bc00070652b009df80700c2000700f700070092
:103bd00087003700c9fa07000000eb002801070042
:103be000e50107008200370010c0b30004e9b70008
:103bf0007f00370050c0b30004e9b700eb000700b6
:103c00007b0037009e00900070ac200000804000d8
:103c100011c0b30001487800750037009e00900085
:103c200070ac2000008040008040eb00014878002c
:103c30006f0037009829a8006d0037001e00900023
:103c4000d9fd07006a0037009e00900070ac20008c
:103c500000804000104078000004e00003003200c3
:103c60009e00900040672b0074f8070094a9a800fc
:103c70005f0037009e00900070ac20000080400084
:103c8000104078000004e000030032009e00900025
:103c9000c0672b0069f807008a69ef0094a9a900a2
:103ca000530037009e00900070ac20000080400060
:103cb000104078000004e000030032009e009000f5
:103cc00040682b005df807009e00900020882000cf
:103cd0000080400011c0b300014878009a0107003d
:103ce000430037009e00900070ac20000080400030
:103cf000104078000004e000030032009e009000b5
:103d0000e0682b004df807009e00900020882000fe
:103d1000008040008040eb00014878008a010700e5
:103d2000330037000029ef0098a9a90004c9bf009b
:103d3000e54f5000010032000469ef0098c9a90066
:103d40009a0007009e00900070ac200000804000a8
:103d5000104078000004e000220032009e00900035
:103d600080692b0035f80700210037008069ef00db
:103d7000b0408000c1408000c0488800d148880021
:103d8000dbc2bf00614060000004e00002003200be
:103d90000229ef0016003700a0002000104888001c
:103da000130037009e009000a06a2b0023f8070044
:103db0000f0037009e00900070ac20000080400093
:103dc000104078000004e000080032009e009000df
:103dd000406b2b0019f807000500370000000000b9
:103de0000300370000000000010037000000000061
:103df0001e00900080004000209a200000804000bb
:103e00008000eb00010878009e009000c09b20001d
:103e1000008040008040eb00014878001e009000c8
:103e200080004000e0a52000008040008000eb0002
:103e3000010878001e009000e5f707000080fa00f6
:103e4000000006000000fa0087c9bf000000fb0068
:103e50002c01070041652700810f500001003a0046
:103e60006c0007000080fa00000006000200fa0063
:103e70000000eb002301070071562400810f500061
:103e80000b003a000000eb00000f7800280007004c
:103e90000000e0000d003a001e007800e40f500022
:103ea000010034003d0307001e0fe800f7ff370054
:103eb0000000eb0013010700e10f400003003a008f
:103ec000270107000dfa0700020007000080fa0032
:103ed000000006000200fa000000eb00000f78006e
:103ee000090037001e00780080004000008020009c
:103ef0000080400010007800800078001e007800ec
:103f0000950007001e0fe80087c9bf000000fb00f6
:103f10009e0f5000f3ff3c00715624000000eb00a0
:103f20008d000700140107000080fa000000060061
:103f30000200fa004b0107000000e000020032001e
:103f40000000eb00170037000000eb00000f7800c6
:103f5000090037001e007800ea00070080007800a2
:103f60001e00780000014000008020000000410099
:103f7000010878001e0fe80087c9bf000000fb00a1
:103f80009e0f5000f3ff3c00100107000000e0000e
:103f9000020032000000eb0002003700ea000700d8
:103fa000100020000080fa00000006000200fa0065
:103fb0000000eb00000f78000a0037001e007800b8
:103fc00080004000608d200000804000900078005c
:103fd00087c9bf000000fb001e0040005e00070014
:103fe0001e0fe80088c9bf000000fb009e0f5000b4
:103ff000f2ff3c0087c9bf000000fb0041652700bd
:1040000055000700dc0007009569a9000080fa0050
:10401000000006000200fa00120107000000e000a4
:10402000020032000000eb00130037000000eb003c
:10403000000f78000b00370087c9bf000000fb00ad
:104040001e004000af000700800078001e007800ce
:1040500000014000608d2000000041000108780050
:104060001e0fe80088c9bf000000fb009e0f500033
:10407000f1ff3c00100020000080fa000000060064
:104080000400fa00100798000000eb00000f780011
:104090009e009000f01f2000808f5000020034002e
:1040a000100020002a003700ff3ffc00910920008b
:1040b00091407800f0c8b30000c0600099e0b700fc
:1040c000811f78001e00900000004000000f780063
:1040d0009e00780000c02f0000804000000f780094
:1040e000f0072000203b88001e007800103b88006d
:1040f00041042400013b880051052000313b880029
:10410000a10a2000313b880061e7a8000000000000
:1041100000000000cf007800010037005220ef00bf
:10412000117620009140780000c8b30000c0600004
:104130000004e000f9ff3a00910920009140780066
:1041400000c7b30000c0700099e0b7000000eb00aa
:104150000080fa00000006000400fa00000f78005a
:10416000110798001e007800c5ff0700f01f20000f
:104170009e007800808f5000020034001000200064
:1041800031003700ff3ffc0091092000914078008a
:10419000f0c8b30000c0600099e0b700801f78004d
:1041a000811f7800821f78001e0078000000400008
:1041b000000f78009e00780000c02f0000804000b3
:1041c000000f7800f0c7b30032e0b7001e00900087
:1041d000200088001e007800000088000208bb0054
:1041e00041002400013b880051052000313b88003c
:1041f000a10a2000313b880061e7a8000000000010
:10420000000000004f017800cf0078004f007800d8
:10421000010037005220ef00117620009140780015
:1042200000c8b30000c060000004e000f9ff3a00dd
:10423000910920009140780000c7b30000c07000d1
:1042400099e0b7000000eb000080fa0000000600d3
:104250000400fa00004f7800110798001e41780012
:1042600021a72000824878009e009000a15388007a
:10427000ff3ffc009109200091407800f0c8b30096
:1042800000c0600099e0b700841f7800801f7800ac
:1042900072cabf0032e0b700a0538000000088005f
:1042a0001082ba0000000000000000004000800002
:1042b0006053880072cabf0032e0b700a05380008c
:1042c000000088001002ba0000000000000000009a
:1042d00040008000805388004f0078004f02780033
:1042e000910920009140780000c7b30000c0700021
:1042f00099e0b7005220ef00805380000080fa0060
:10430000000006000200fa00000f7800f01f2000f5
:104310009e007800808f5000020034000000eb0007
:10432000070037009e00780000e027000080400072
:104330000000400080007800f0c7b300c4ff070011
:104340000080fa00000006000000fa00e900070003
:10435000e0538000f05388000080fa00000006005f
:104360000000fa004e000700b053800000448800af
:104370000080fa00000006000000fa009f0007001d
:10438000c053800080007800f01f200072ff0700fb
:104390000080fa00000006000000fa00d5000700c7
:1043a000e1538000f0538000808f50000400320001
:1043b000b0022000bd0207001000200001003700fd
:1043c0000000eb000080fa00000006000000fa0088
:1043d000c8000700a8000700e1538000d053800008
:1043e000808f500005003200c0022000af0207009d
:1043f00098a9a80010002000010037000000eb0081
:104400000080fa00000006000000fa0095c9bf0015
:10441000704060000004e000020032000000eb0089
:104420000e0037009589a8001d0007000144800098
:10443000b0538000808f50000600320090022000b0
:104440009a02070098a9a8009589a90010002000e9
:10445000020037009589a9000000eb000080fa00f7
:10446000000006000000fa0064000700f01f2000b2
:10447000a4ff0700c1538000810f500005003200e7
:10448000a00220008902070098a9a80010002000bf
:10449000010037000000eb000080fa000000060079
:1044a0000400fa00881f7800762aef000000eb0075
:1044b000000f78000000eb00100798000000eb00f0
:1044c000000f78001a0037001e007800000040003e
:1044d000800078000040eb005dff0700800078005e
:1044e000f00f2000008460001e00780000004000f3
:1044f000800078000040eb0055ff07008000780046
:1045000000f02f00008060004800de0080004400c2
:10451000b053800000804000b0538800b153800049
:104520006053800000804000b05388001e0fe800f8
:10453000e0ff21009e007800808f5000e2ff3400f1
:10454000800f200010079800220037000000eb00c9
:10455000000f7800180037001e00780000004000af
:10456000800078001e0090000040780038ff0700af
:1045700080007800f00f2000008460001e007800aa
:1045800000004000800078001e009000004078008d
:104590002fff07008000780000f02f0000806000ef
:1045a0004800de0080004400b053800000804000de
:1045b000b05388001e0fe800f0ff27009e0078002f
:1045c000808f5000e4ff3a001e0090000000e800d9
:1045d000100798009e009000e00f2000808f500090
:1045e000daff3400b0538000401ab000b0538800a6
:1045f0004f0478000080fa00000006000200fa0074
:10460000881f7800782aef000000eb00000f780088
:104610000000eb00000f7800100037001e0078004b
:1046200038ff070080007800f00f20000084600051
:104630001e00780033ff07008000780000f02f0094
:10464000008060004800de0080004400c05380000d
:1046500000804000c05388001e0fe800d01f2000db
:104660009e007800808f5000ecff34004f047800eb
:104670000080fa00000006000200fa00881f78009f
:104680007a2aef000000eb00000f78000000eb003a
:10469000000f7800100037001e00780019ff070097
:1046a00080007800f00f2000008460001e00780079
:1046b00014ff07008000780000f02f0000806000e9
:1046c0004800de0080004400d0538000008040009d
:1046d000d05388001e0fe80087c9bf000000fb0010
:1046e0009e0f5000ecff3c004f0478000080fa0061
:1046f000000006000200fa007c2aef000000eb0038
:10470000000f78000000eb00000f78001600370063
:104710001e007800800040000080200000804000e3
:104720001000780080007800f00f2000808060008a
:104730001e007800000140000080200000004100c1
:10474000100078000001780000f02f0000006100e8
:104750004800de0080804000e05380000080400080
:10476000e05388001e0fe80087c9bf000000fb006f
:104770009e0f5000e6ff3c000080fa00000006009b
:104780000000fa00881f780094c9bf000044b200fe
:104790000004e00083003a00dbc2bf00614060001b
:1047a0000004e0007f0032008bc9bf00e34f5000df
:1047b0007c003a006000b800e0488800f1488800ba
:1047c000704080008140800018c0b30002002000cb
:1047d00003f82300980607000000e00001003c00f9
:1047e0000044eb000804e000080032001421ef0050
:1047f0000000200001f823007040880081408800fc
:10480000d1fe0700c0012000a80107007040800011
:10481000814080006011b800850607000000e000bc
:1048200005003a00b0408000c1408000c0488800c8
:10483000d14888008069ef0010488000e90f5000df
:1048400042003e00104880000000e8001048880048
:1048500010c0b30080e9b700b4408000c5408000bc
:10486000d0408000e14080000001be000400be0096
:10487000cf0507000002be0070408000814080002c
:104880000001be000400be00010707000002be00d8
:10489000d0408000e14080000001be000400be0066
:1048a000c4050700c0488800d1488800c04880007f
:1048b000d1488000824a8000934a800018c0b3002b
:1048c0005b0607000000e000010035000044eb003b
:1048d0000804e0000b00320095c9bf00644060008e
:1048e0000004e00007003200804a8000914a800006
:1048f000a2702d0033c22300ae050700c048880017
:10490000d1488800c4488000d5488000b04080006d
:10491000c140800018c0b3000001be000400be000a
:10492000450607000000e00001003c000044eb00e9
:104930000804e0000e003200b0408000c14080005a
:10494000c0488800d148880009003700104880001e
:10495000e90f5000060036000229ef008069ef00e1
:10496000b0408000c1408000c0488800d148880025
:10497000e0c2bf00624060000004e00007003200b7
:1049800094c9bf000042b2000004e00003003a00f6
:104990006000b800204788003147880094c9a8000b
:1049a00005003700dbc2bf00614060000004e0008a
:1049b00001003a0094c9a9004f0478000080fa0071
:1049c000000006000200fa00889fbe008bc9bf00ed
:1049d0000004e00009003a0083c9bf000004e000c1
:1049e00006003a0010c0b30083e9b7009449a8005c
:1049f00010c0b3008be9b7006500370083c9bf0062
:104a0000e54f500007003a008bc9bf00e14f50004e
:104a100004003c008bc9bf000040e8008be9b700f0
:104a20005b0037008bc9bf00e24f500058003a00ce
:104a300095c9bf00644060000004e00054003200eb
:104a400087c9bf000000fb000000e8002dfe070042
:104a500041652700810f500039003a00c0468000b0
:104a6000d146800018c0b3000200200003f82300e4
:104a7000f10507000000e00001003c000044eb00ed
:104a80000804e0002e003200c8468000d9468000ad
:104a90000047800011478000a24a8000b34a80008e
:104aa0004305070002002000832c24009e05070018
:104ab0000001be000800be0075060700e005070003
:104ac000000f780048478000594780001e0078009a
:104ad000cf80de00160607000001be000800be0001
:104ae000330507004047880051478800e8468000aa
:104af000f94680001e007800cf80de000c0607001b
:104b00000001be000800be0029050700e04688003d
:104b1000f146880028478000394780001e00780051
:104b2000cf80de00020607000001be000800be00c4
:104b30001f05070020478800314788001100370013
:104b400095a9a8007041800081418000c04688007e
:104b5000d14688007841800089418000a04a8000c9
:104b6000b14a800002002000832c24006e0507005b
:104b70000001be000800be0045060700404788004f
:104b80005147880030c0b3008be9b7009449a900b1
:104b90004f04be000080fa00000006000000fa008a
:104ba000f3010700baf80700caa2a800cac2a90008
:104bb0000140fe00fdff37000000fa0001568000b2
:104bc00050a52a00808f500001003a007f000700a6
:104bd00050a52a00005688000080fa000000060058
:104be0000000fa00dbc2bf00614060000004e0008a
:104bf0000c003a00e0c2bf00624060000004e00028
:104c00000800320094c9bf00644060000004e00066
:104c100004003a0094c9bf000042b2000004e00062
:104c20001a0032009489a800405480000000e0007f
:104c30000300320098a9a90098c9a900882aef00aa
:104c400098c9bf000042b2000004e00007003a002b
:104c50009469a80098c9bf00704060000004e0009b
:104c600013003a0045f8070014003700c901070097
:104c70009469a90098c9bf00614060000004e00089
:104c80000d003a009df807000c003700c101070035
:104c90009489a9009469a90098c9bf006140600087
:104ca0000004e00005003a0094f807000300370014
:104cb0000000000001003700000000000080fa0042
:104cc000000006000000fa0000148000e30f40001e
:104cd00003003600d001200074000700a401070083
:104ce00000148000e10f500003003e00e0012000ae
:104cf0006e0007009e01070010148000e30f4000c3
:104d000003003600f001200068000700980107004a
:104d100010148000e10f500003003e00000220004c
:104d2000620007009201070020148000e30f40009a
:104d300004003600100220005c00070050c0b300e1
:104d400004e9b70020148000e10f500004003e0089
:104d5000200220005500070050c0b30004e9b7004e
:104d600030148000e30f40000200360030022000c3
:104d70004e00070030148000e10f500002003e009a
:104d8000400220004900070040148000e30f40006b
:104d9000020036005002200044000700401480004a
:104da000e10f500002003e00600220003f000700bb
:104db00095c9bf00684060000004e00001003200b7
:104dc0007afc07000080fa00000006000000fa00ec
:104dd00040c7bf00624060000004e00003003200f2
:104de0004027a900300120003000070040c7bf0065
:104df000704060000004e000030032004087a9001a
:104e00004001200029000700117420009140780023
:104e100000c8b30000c060000004e00003003200de
:104e200041e7a900500120002000070041c7bf0052
:104e30000044b2000004e0000300320041c7a900b2
:104e400060012000190007000174200091407800e3
:104e500000c8b30000c060000004e000030032009e
:104e600040e7a900700120001000070040c7bf0004
:104e70000044b2000004e0000300320040c7a90073
:104e800080012000090007009001200007000700b2
:104e900095c9bf00684060000004e00001003200d6
:104ea00042fc07000080fa00000006000200fa0041
:104eb000000f780000488000e90f50000b003e0012
:104ec000004880009e0078006b0040000001400018
:104ed000608d20000000410001087800004880003b
:104ee0000000e8000048880002003700b000200001
:104ef000004888009569a8000080fa0000000600bc
:104f00000000fa00d621ef009029ef0030c0b30076
:104f1000c2eab700842aef0004c9bf00e54f500081
:104f20000200320040c0b30004e9b7009449a90070
:104f3000d1e2a9000080fa00000006000400fa0097
:104f4000881f780004c9bf00e24f50005a003a00a1
:104f500094c9bf00684060000004e00056003200c1
:104f6000a4488000b54880006049800071498000f5
:104f70000001be000400be004505070001f0a200cc
:104f8000008fbe0090438000a143800018c0b30092
:104f90001e01be00a80407000000e00001003c0064
:104fa0000044eb000804e0003c003200d1e2a8001d
:104fb000c2cabf000004e00032003a002054800062
:104fc0000000e8002054880020548000b00e8800c3
:104fd00021548000f0052000808f50000300340031
:104fe00010002000b1ff0700c5ff0700215480001a
:104ff00020032000808f50000d00340018c0b30043
:1050000002002000030024001e00be0088040700e8
:105010000000e000010035000044eb000804e0005f
:105020000300320020002000a0ff0700b4ff0700ab
:1050300020548000e40f50000d003c0018c0b30065
:1050400002002000031224001e00be007a040700a4
:105050000000e00001003c000044eb000804e00018
:10506000030032003000200090ff0700a4ff07007b
:1050700095c9bf00684060000004e00001003200f4
:10508000cafb0700c2cabf00e34f50000a003a0043
:1050900020c0b300c2eab7000700370030c0b30039
:1050a00004e9b700d621ef009449a900d1e2a90094
:1050b00030c0b300c2eab70004c9bf00e14f5000de
:1050c0000a003a00d621ef002cf70700b1000700d4
:1050d0009449a800842aef009029ef0020c0b30073
:1050e00004e9b70030c0b300c2eab7004f0478004b
:1050f0000080fa00000006000000fa00881f780017
:10510000a4488000b548800090408000a140800005
:1051100018c0b3000001be000400be004604070032
:105120000000e00001003d000044eb000804e00046
:1051300003003200700020005cff07008c000700b5
:10514000a4488000b5488000f04080000141800004
:1051500018c0b3000001be000400be003404070004
:105160000000e000010035000044eb000804e0000e
:1051700007003200dbc2bf00614060000004e000b5
:1051800003003a004000200048ff07006ff70700c7
:1051900084498000954980001043800021438000ad
:1051a00018c0b3000001be000400be0022040700c6
:1051b0000000e00001003c000044eb000804e000b7
:1051c000030032008000200038ff0700680007005d
:1051d000c4498000d54980003043800041438000ad
:1051e00018c0b3000001be000400be001204070096
:1051f0000000e00001003c000044eb000804e00077
:10520000030032009000200028ff0700580007002c
:10521000a4498000b54980003043800041438000ac
:1052200018c0b3000001be000400be000204070065
:105230000000e00001003c000044eb000804e00036
:1052400003003200a000200018ff070048000700fc
:1052500095c9bf00684060000004e0000100320012
:1052600052fb07004f0478000080fa00000006009f
:105270000000fa00881f78006049800071498000b2
:1052800018c0b3006011b800e90307000000e00097
:10529000010035000044eb000804e0000600320085
:1052a000604980007149800001f0a200e04a880056
:1052b000f14a8800030037006000b800e04a880027
:1052c000f14a880090418000a1418000e24a8000bc
:1052d000f34a800018c0b300d50307000000e000c7
:1052e000010035000044eb000804e0000a00320031
:1052f00030548000e50f5000040034001c0007000b
:10530000862aef0050002000e8fe0700305480009d
:105310000000e80030548800604980007149800036
:1053200092558000a355800018c0b300c203070047
:105330000000e00001003c000044eb000804e00035
:10534000030032000a00070060002000d7fe0700bb
:1053500095c9bf00684060000004e0000100320011
:1053600012fb07004f0478000080fa0000000600de
:105370000000fa000700070098a9a80094a9a90056
:105380009449a900b0002000c8fe07000080fa0080
:10539000000006000000fa00da21ef00dc22ef0036
:1053a000c841a900d621ef00d821ef00d622a900dc
:1053b00030c0b300c3eab700e202a900e2c2a9000c
:1053c00030c0b300c4eab700d1e2a90030c0b300d6
:1053d000c2eab700cb02a9009029ef008e29ef00a6
:1053e0008c29ef006000b800105588002155880016
:1053f0006000b800f0548800015588000080fa0071
:10540000000006001000fa00889fbe00008fbe005a
:105410002207980033079800440798005507980022
:1054200066079800770798008049800091498000be
:1054300018c0b3002e019000be0190007c0307004d
:105440000000e000010035000044eb000804e0002b
:105450000f00320080498000914980001e01be008b
:10546000d30207000004be001e01be002e00900003
:10547000be009000ce0207000001be000800be0082
:1054800029030700b0558800c15588002300370064
:10549000804980009149800018c0b3006e019000df
:1054a000fe019000640307000000e00001003c00e2
:1054b0000044eb000804e000150032008049800041
:1054c000914980004e019000de019000b802070073
:1054d0000004be0009f0a2004e019000de01900021
:1054e0006e009000fe009000b10207000001be00b7
:1054f0000800be000c0307000200200003f8230090
:10550000ac020700b0558800c15588000300370081
:105510000000200001f823001c003700b055800077
:10552000c155800018c0b3000200200003f823001a
:10553000410307000000e00001003c000044eb00d4
:105540000804e000030032000000200001f82300fe
:105550000e003700b0558000c155800018c0b30060
:105560006011b800320307000000e00001003500c0
:105570000044eb000804e000020032006000b800c4
:1055800002003700b0558000c15580004f04be00b6
:105590000080fa00000006000000fa00889fbe00ac
:1055a0008a9fbe0014418000254180004047800052
:1055b000514780000001be000400be00b403070094
:1055c0000005be00d4428000e5428000b242800067
:1055d000c342800090428000a14280007842800057
:1055e000894280000403be000202be000001be002a
:1055f0000800be0083ff07000001be000a00be00d5
:10560000a303070050548800615488003041800093
:1056100041418000525480006354800018c0b300a0
:10562000050307000000e00001003c000044eb001f
:105630000804e00004003200304180004141800055
:105640005054880061548800c4468000d5468000cc
:1056500040478000514780000001be000400be00aa
:1056600053020700d0558800e1558800d0558000ce
:10567000e155800018c0b300d2cc2c00c3e4230055
:10568000eb0207000000e000010035000044eb00e1
:105690000804e00004003200d0cc2c00c1e4230058
:1056a000d0558800e155880050418000614180005c
:1056b000d2558000e3558000750307000005be0049
:1056c0003442800045428000124280002342800024
:1056d000f041800001428000d8418000e941800013
:1056e0000403be000202be000001be000800be00ae
:1056f00044ff07000001be000a00be00640307006b
:1057000070548800815488004f05be004f04be00cd
:105710000080fa00000006000000fa00889fbe002a
:10572000e0c2bf00624060000004e00004003200fc
:1057300094c9bf000042b2000004e000db00320068
:10574000d622a800cb02a800c3cabf00e34f500076
:1057500002003a0020c0b300c3eab700dbc2bf00ba
