:020000040000fa
:080000000001040000000000f3
:020000040000fa
:04000800c82d0000ff
:020000040000fa
:04000c00c20a000024
:020000040000fa
:040010000a0b0000d7
:020000040000fa
:04001400320b0000ab
:020000040000fa
:040018005e0b00007b
:020000040000fa
:04001c00c82d0000eb
:020000040000fa
:04002000c82d0000e7
:020000040000fa
:04002400860b000047
:020000040000fa
:04002800c80100000b
:020000040000fa
:04002c00c82d0000db
:020000040000fa
:04003000c82d0000d7
:020000040000fa
:04003400460400007e
:020000040000fa
:04003800c82d0000cf
:020000040000fa
:04003c00c82d0000cb
:020000040000fa
:04004000ac07000009
:020000040000fa
:040044005609000059
:020000040000fa
:04004800c82d0000bf
:020000040000fa
:04004c00be090000e9
:020000040000fa
:04005000020a0000a0
:020000040000fa
:04005400d2010000d5
:020000040000fa
:04005800c82d0000af
:020000040000fa
:04005c00c82d0000ab
:020000040000fa
:04006000c82d0000a7
:020000040000fa
:04006400c82d0000a3
:020000040000fa
:04006800000900008b
:020000040000fa
:04006c00c82d00009b
:020000040000fa
:04007000c82d000097
:020000040000fa
:04007400c82d000093
:020000040000fa
:04007800c82d00008f
:020000040000fa
:04007c006c0900000b
:020000040000fa
:04008000b6090000bd
:020000040000fa
:04008400c82d000083
:020000040000fa
:04008800e00900008b
:020000040000fa
:04008c004c0a00001a
:020000040000fa
:04009000c82d000077
:020000040000fa
:04009400c82d000073
:020000040000fa
:04009800c82d00006f
:020000040000fa
:04009c00c82d00006b
:020000040000fa
:0400a000c82d000067
:020000040000fa
:0400a400c82d000063
:020000040000fa
:0400a800c82d00005f
:020000040000fa
:0400ac00c82d00005b
:020000040000fa
:0400b000c82d000057
:020000040000fa
:0400b400c82d000053
:020000040000fa
:0400b800c82d00004f
:020000040000fa
:0400bc00c82d00004b
:020000040000fa
:0400c000c82d000047
:020000040000fa
:0400c400c82d000043
:020000040000fa
:0400c800c82d00003f
:020000040000fa
:0400cc00c82d00003b
:020000040000fa
:0400d000c82d000037
:020000040000fa
:0400d4009a0a000084
:020000040000fa
:0400d800c82d00002f
:020000040000fa
:04010800c82d0000fe
:020000040000fa
:04010c00c82d0000fa
:020000040000fa
:04011000c82d0000f6
:020000040000fa
:04011400c82d0000f2
:020000040000fa
:04011800c82d0000ee
:020000040000fa
:04011c00c82d0000ea
:020000040000fa
:04012000c82d0000e6
:020000040000fa
:04012400c82d0000e2
:020000040000fa
:04012800c82d0000de
:020000040000fa
:04012c00c82d0000da
:020000040000fa
:04013000c82d0000d6
:020000040000fa
:04013400c82d0000d2
:020000040000fa
:04013800c82d0000ce
:020000040000fa
:04013c00c82d0000ca
:020000040000fa
:04014000c82d0000c6
:020000040000fa
:04014400c82d0000c2
:020000040000fa
:04014800c82d0000be
:020000040000fa
:04014c00c82d0000ba
:020000040000fa
:04015000c82d0000b6
:020000040000fa
:04015400c82d0000b2
:020000040000fa
:04015800c82d0000ae
:020000040000fa
:04015c00c82d0000aa
:020000040000fa
:04016000c82d0000a6
:020000040000fa
:04016400c82d0000a2
:020000040000fa
:04016800c82d00009e
:020000040000fa
:04016c00c82d00009a
:020000040000fa
:04017000c82d000096
:020000040000fa
:04017400c82d000092
:020000040000fa
:04017800c82d00008e
:020000040000fa
:04017c00c82d00008a
:020000040000fa
:04018000c82d000086
:020000040000fa
:04018400c82d000082
:020000040000fa
:04018800c82d00007e
:020000040000fa
:04018c00c82d00007a
:020000040000fa
:04019000c82d000076
:020000040000fa
:04019400c82d000072
:020000040000fa
:04019800c82d00006e
:020000040000fa
:04019c00c82d00006a
:020000040000fa
:0401a000c82d000066
:020000040000fa
:0401a400c82d000062
:020000040000fa
:0401a800c82d00005e
:020000040000fa
:0401ac00c82d00005a
:020000040000fa
:0401b000c82d000056
:020000040000fa
:0401b400c82d000052
:020000040000fa
:0401b800c82d00004e
:020000040000fa
:0401bc00c82d00004a
:020000040000fa
:0401c000c82d000046
:020000040000fa
:0401c400c82d000042
:020000040000fa
:0401c800c82d00003e
:020000040000fa
:0401cc00c82d00003a
:020000040000fa
:0401d000c82d000036
:020000040000fa
:0401d400c82d000032
:020000040000fa
:0401d800c82d00002e
:020000040000fa
:100200008faa20000ebf20000e0188000000000011
:10021000000020000000e000020032000001200089
:1002200020028800140007005b1607000000e000b1
:1002300003003a00e04d23000100200002003700d7
:100240000000200001002000810f7000010032003a
:1002500014000700000020000000e000020032004f
:100260000000020000000000842d020000000000d9
:100270000040da000000fe004440a90040382000a1
:100280000000e0000300320000002000a001880010
:100290004440a800000006008a1f78008b1f7800e9
:1002a0000000060091018800800478000000eb0047
:1002b0001a003700e284440032a0b4009905ba0065
:1002c000e284440032a0b4009906ba00e2844400fb
:1002d00032a0b4000006eb00476fde00fd07b2005d
:1002e000636ce10003003a00ebff07000000eb0045
:1002f0000a003700606ce10004003a00005deb008a
:100300008b05e900fdff3e00040037006168e10055
:10031000010032000086eb000b00070019c7ba008d
:100320001905ba000e04e00003003a000a00e000dc
:10033000e0ff3a0000000600fe07b2009e018800c0
:100340008a047800f5ff3700395dba008b05e900b3
:100350000c003200295dba008b05e900080032006c
:100360000c00e00003003a00e284440032a0b40034
:10037000f5ff370019ddba008b05e900faff3a00f6
:100380008904e800e184440032a0b40000000600c3
:100390000000fa00cac2a8008400a9000080fa0088
:1003a000004006003600f800809fbe00829fbe001d
:1003b000849fbe00869fbe000000fa00cac2a8004b
:1003c00042c9bf00e74f5000d9003400404a8000c6
:1003d000514a800002002000031024004d1607003f
:1003e000404a8800514a8800404a8000514a8000b3
:1003f0000200200003702400e8150700404a88002e
:10040000514a8800404a8000514a80000200200082
:10041000037024003f160700404a8800514a8800b4
:10042000404a8000514a800002002000030224005c
:1004300012170700404a8800514a8800404a80004d
:10044000514a8000a2702d0033d2230031160700dc
:100450000002be00a0498000b14980000001be003a
:100460000400be00ce1507004048880051488800af
:10047000721207006000b800404a8800514a8800a4
:10048000204a8000314a800002c02c00c37c240036
:1004900020160700204a8800314a8800244a80003c
:1004a000354a800020498000314980000001be00ab
:1004b0000400be00171607000002be005040800076
:1004c000614080000001be000400be00b4150700ba
:1004d00080478800914788006000b800204a880063
:1004e000314a8800604a8000714a800002c02c00b6
:1004f000c37c240007160700604a8800714a880000
:10050000604a8000714a8000f2282c0053ef2300db
:10051000a2150700604a8800714a8800604a80007e
:10052000714a800042722900f3c72300f9150700c1
:1005300060488800714888006000b800604a880000
:10054000714a8800804a8000914a800002c02c00d5
:10055000c37c2400ef150700804a8800914a880078
:10056000804a8000914a8000f2282c0053ef23003b
:100570008a150700804a8800914a8800804a8000d6
:10058000914a800042722900f3c72300e115070059
:10059000a0488800b14888006000b800804a880000
:1005a000914a8800a04a8000b14a800002c02c0015
:1005b000c37c2400d7150700a04a8800b14a8800f0
:1005c000a04a8000b14a8000f2282c0053ef23009b
:1005d00072150700a04a8800b14a8800a04a80002e
:1005e000b14a800042722900f3c72300c9150700f1
:1005f00080488800914888006000b800a04a8800c0
:10060000b14a88008048800091488000a048880056
:10061000b14888004269ef0078c9bf0068406000b7
:100620000004e0000500320078c9bf000042b200bb
:100630000004e00001003a00a111070078c9bf00e2
:10064000624060000004e00029003a0078c9bf0061
:100650000042b2000004e00025003a00111107003a
:1006600000478000e20f500003003c00004780007c
:100670000000e00018003a0074c9bf006840600044
:100680000004e000140032006ac9bf00e34f5000cc
:1006900011003a000d1307000d14070078c9bf00c0
:1006a0000042b2000004e000020032002c120700f9
:1006b00007003700c841a800804b8000b00e8800ba
:1006c000704b8000c00e8800604b8000d00e880008
:1006d000000000000900370074c9bf0068406000d6
:1006e0000004e00004003a001d1207000300370078
:1006f0001b120700010037000000000074c9bf0092
:10070000684060000004e00007003a0078c9bf00bc
:10071000684060000004e00003003200a1e2a9008c
:100720007869a900510037007869a8004f003700a8
:1007300078c9bf00684060000004e0003900320062
:10074000001480008000eb00f71507000002be00d7
:10075000204a8000314a80000001be000400be0033
:100760000f150700204a8800314a880010148000c5
:100770008000eb00ec1507000002be00404a80003c
:10078000514a80000001be000400be0004150700ad
:10079000404a8800514a8800201480008000eb0005
:1007a000e11507000002be00604a8000714a800027
:1007b0000001be000400be00f9140700604a880072
:1007c000714a8800301480008000eb00d6150700c5
:1007d0000002be00804a8000914a80000001be00f5
:1007e0000400be00ee140700804a8800914a880089
:1007f000401480008000eb00cb1507000002be0013
:10080000a04a8000b14a80000001be000400be0082
:10081000e3140700a04a8800b14a880013100700bb
:100820000f0037006000b800204a8800314a880075
:100830006000b800404a8800514a88006000b80053
:10084000604a8800714a88006000b800804a8800c9
:10085000914a88006000b800a04a8800b14a880028
:1008600042c9bf000040e80042e9b7008560a90026
:100870000080fa004f03be004f02be004f01be00d1
:100880004f00be003600f900004006003600f800b8
:10089000809fbe00829fbe00849fbe00869fbe00d8
:1008a000889fbe008a1f78000200fa00cac2a80012
:1008b00070108000620060000000e0000a0032005a
:1008c000d002200063100700020037009010800063
:1008d000004f780070108000610060000000e000b0
:1008e000faff3a000e22a900c010800062006000ea
:1008f0000000e0000a003200e0022000551007006e
:1009000002003700e010800010479800c0108000ff
:10091000610060000000e000faff3a001822a90020
:10092000a1e2a800b10307000c1207000e0f070098
:10093000940f07007e0e070074c9bf006840600076
:100940000004e00006003200f04380000040780020
:1009500065e9b700b0c3b30098eab70011003700eb
:1009600098cabf000004e0000b003c00b0c3b30015
:1009700098eab70065c9bf000004e00002003c002f
:100980007829a8000700370065c9bf000040e900ca
:1009900065e9b7000300370098cabf000040e900ce
:1009a00098eab700d05280000000e0000e0034004a
:1009b00090418000a1418000c2498000d34980005d
:1009c00018c0b300171507000000e00001003c004c
:1009d0000044eb000804e00003003200d052800025
:1009e0000000e900d0528800d116800000102000dd
:1009f000008060000000e00003003a00ca82a90005
:100a00006e29ef006b69ef0074c9bf006840600099
:100a10000004e0002900320064488000754880002e
:100a2000704380008143800018c0b3000001be0005
:100a30000400be00fb1407000000e00001003c00c1
:100a40000044eb000804e0001a003a0084488000eb
:100a500095488000504380006143800018c0b30077
:100a60000001be000400be00ee1407000000e0001c
:100a700001003c000044eb000804e0000d003a00d7
:100a8000a4488000b5488000504380006143800046
:100a900018c0b3000001be000400be00e11407004e
:100aa0000000e00001003c000044eb000804e0000e
:100ab00002003200e202a8003500370074c9bf000e
:100ac000684060000004e0003000320068488000a8
:100ad000794880007043800081438000020020003c
:100ae000030a24002d1407001ac0b3000001be0041
:100af0000800be00c91407000000e0000100350036
:100b00000045eb000a04e000210032008848800024
:100b1000994880005043800061438000020020001b
:100b2000030a24001d1407001ac0b3000001be0010
:100b30000800be00b91407000000e0000100350005
:100b40000045eb000a04e00011003200a8488000d4
:100b5000b9488000504380006143800002002000bb
:100b6000030a24000d1407001ac0b3000001be00e0
:100b70000800be00a91407000000e00001003500d5
:100b80000045eb000a04e00001003200e202a90087
:100b900074c9bf00704060000004e00003003a0028
:100ba00010002000e052880078a9a90074c9bf0095
:100bb000704060000004e0000d00320074c9bf0006
:100bc000614060000004e000030032007409a900e5
:100bd000caa2a900070037007409a8004046800097
:100be0000000e00003003a00caa2a800010037009c
:100bf000caa2a900c0468000d1468000df020700db
:100c000070468800814688008049800091498000b4
:100c100018c0b30002002000632c240081140700d8
:100c20000000e00001003c000044eb000804e0008c
:100c30000d00320097cabf00e44f50000a00320096
:100c40005046800061468000e0468800f1468800fa
:100c500040c0b30097eab7006000b800c046880003
:100c6000d1468800420037008049800091498000c9
:100c700018c0b30002002000632a24006714070094
:100c80000000e000010035000044eb000804e00033
:100c90001e003200804980009149800018c0b300d6
:100ca00002002000232a24005e1407000000e00058
:100cb00001003c000044eb000804e0001300320097
:100cc00097cabf00e44f50000300320097cabf002c
:100cd0000004e0000d003a0070468000814680006c
:100ce000504688006146880050468000614680007a
:100cf0000001be00aa130700504688006146880024
:100d000020c0b30097eab70019003700804980007f
:100d10009149800018c0b3000200200003f82300ae
:100d20003e1407000000e000010035000044eb0025
:100d30000804e0000e00320097cabf000004e00083
:100d40000b003200704680008146800050468800cb
:100d5000614688006000b800e0468800f1468800df
:100d6000976aef006000b800c0468800d14688004e
:100d7000e0468000f146800018c0b3006011b80062
:100d8000261407000000e000010035000044eb00dd
:100d90000804e000030032006000b800e04688006c
:100da000f1468800e8468000f94680005046800001
:100db00061468000a2702d0033ba2300781307002b
:100dc0001ac0b3000001be000800be0015140700e1
:100dd0000000e00001003c000045eb000a04e000d8
:100de000070032005046800061468000a2702d004e
:100df00033ba23006a130700e0468800f1468800f2
:100e000088478000994780007440800085408000ba
:100e1000b0408000c14080000001be000400be0060
:100e2000961407001ac0b3000001be000800be00ff
:100e3000fa1307000000e000010035000045eb0058
:100e40000a04e0001e0032003cc9bf000004e000bc
:100e50001b003200e8468000f946800054468000be
:100e60006546800070408000814080000001be0027
:100e70000400be00811407001ac0b3000001be00c8
:100e80000800be00e71307000000e00001003c007e
:100e90000045eb000a04e0000900320054468000df
:100ea0006546800070408000814080000001be00e7
:100eb0000400be0071140700e0468800f146880077
:100ec00074c9bf00684060000004e0000c003a00f4
:100ed000e8468000f9468000d0438000e14380006e
:100ee0003284290013992300641407000001be0016
:100ef0000800be0029130700e0468800f14688007c
:100f0000e4468000f546800050468000614680003f
:100f10000001be000400be007e1307000200200096
:100f2000832c24005514070060478800714788000f
:100f30008460a9000080fa004f0578004f04be00cd
:100f40004f03be004f02be004f01be004f00be0067
:100f50003600f900004006003600f800809fbe0011
:100f6000829fbe00849fbe00869fbe00889fbe00f9
:100f70000400fa00cac2a800e4488000f5488000d6
:100f800000488000114880000001be000400be003f
:100f90003a140700204888003148880096cabf00ec
:100fa0000004e0000600340096cabf00e34f500082
:100fb0000300320096cabf000040e90096eab7007d
:100fc00095cabf000004e0000600340095cabf00c7
:100fd000e34f50000300320095cabf000040e90013
:100fe00095eab70094cabf000004e0000600340090
:100ff00094cabf00e34f50000300320094cabf0000
:101000000040e90094eab70058c9bf00e74f50001c
:101010001f003400d04a8000e14a80000200200016
:10102000031024003b130700d04a8800e14a8800df
:10103000d04a8000e14a8000e0488800f1488800fa
:10104000f04a8000014b80000200200003102400c1
:1010500030130700f04a8800014b8800f04a8000f6
:10106000014b800000488800114888006000b800eb
:10107000f04a8800014b88006000b800d04a880020
:10108000e14a88005869ef0021020700110037008b
:101090004048800051488000d24a8000e34a8000e6
:1010a000bf120700d04a8800e14a880080478000cc
:1010b00091478000f24a8000034b8000b81207007d
:1010c000f04a8800014b880058c9bf000040e80082
:1010d00058e9b700e4488000f548800000488000e7
:1010e000114880000001be000400be00e3130700a9
:1010f000a2010700008fbe00c0478000d1478000da
:1011000018c0b3001e01be00441307000000e00039
:10111000010035000044eb000804e0000b00320041
:101120001e01be00c2478800d347880000488000e7
:1011300011488000e0478800f1478800e0488000bf
:10114000f1488000c0488800d148880040488000ad
:10115000514880008901070018c0b300f226210021
:1011600033b023002f1307000000e00001003c0013
:101170000044eb000804e00018003200c84680007c
:10118000d9468000404880005148800012052a005e
:1011900013812300b91307000001be000800be0040
:1011a0007f120700c0468800d1468800e8468000cc
:1011b000f9468000404880005148800012052a000e
:1011c00013812300ad1307000001be000800be001c
:1011d00073120700e0468800f146880084c0a90029
:1011e0000080fa004f04be004f03be004f02be0055
:1011f0004f01be004f00be003600f900004006005f
:101200003600f800809fbe00829fbe00849fbe0013
:10121000869fbe00889fbe000000fa00cac2a800d8
:10122000500880008000eb003f130700f049880061
:10123000014a88000a21ef0074c9bf0062406000c3
:101240000004e0000f003200b8438000c943800072
:10125000f0498000014a800002f02f00f37724005b
:10126000ac1207000001be000800be00a912070072
:101270000200200013562400801307004047880016
:10128000514788007429a8008600a9000080fa0050
:101290004f04be004f03be004f02be004f01be0010
:1012a0004f00be003600f90000400600809fbe00df
:1012b0000000fa00cac2a8006000b80040478800d9
:1012c000514788007429a90084e0a9000080fa0031
:1012d0004f00be00004006003600f800809fbe00b0
:1012e000829fbe00849fbe00869fbe000000fa0061
:1012f000cac2a800160b07000000e0000900320077
:10130000d9090700b0528000e40f500002003400f9
:101310000b0d070003003700b05280000000e8000a
:10132000b0528800a152800080702000808f500051
:1013300003003a00220b0700542aef000300370095
:10134000a05280000000e800a052880086a0a900fa
:101350000080fa004f03be004f02be004f01be00e6
:101360004f00be003600f900004006000000fa0001
:1013700086c0a9000080fa00004006003600f80090
:10138000809fbe00829fbe00849fbe00869fbe00dd
:101390000000fa00cac2a8000000eb008b0707009b
:1013a0008520a9000080fa004f03be004f02be0056
:1013b0004f01be004f00be003600f900004006009d
:1013c0003600f800809fbe00829fbe00849fbe0052
:1013d000869fbe000000fa00cac2a80010002000cc
:1013e0007a0707008700a9000080fa004f03be00bb
:1013f0004f02be004f01be004f00be003600f90094
:10140000004006003600f800809fbe00829fbe00ac
:10141000849fbe00869fbe000000fa00cac2a800da
:1014200009003700414d8000c09a20000080400034
:10143000104078000000fb0080108800404d8000c4
:101440000000e800404d880071108000002020005e
:10145000008060000000e00005003a00414d80007f
:10146000a6c9bf000000fb00808f5000edff3500d3
:101470000000eb004b0107008540a9000080fa0046
:101480004f03be004f02be004f01be004f00be0022
:101490003600f900004006003600f800809fbe00cc
:1014a000829fbe00849fbe00869fbe000000fa009f
:1014b000cac2a8000b003700504d8000c1032000b5
:1014c00080804000c09a20000080400010407800da
:1014d0000000fb00d0108800504d80000000e800a4
:1014e000504d8800c1108000002020000080600066
:1014f0000000e00005003a00514d8000a7c9bf0080
:101500000000fb00808f5000ebff35001000200032
:10151000240107008720a9000080fa004f03be00c5
:101520004f02be004f01be004f00be003600f90062
:10153000004006003600f800809fbe00829fbe007b
:10154000849fbe00869fbe000000fa00cac2a800a9
:10155000830e070078a9a800c00020003d0d0700f9
:10156000920907008960a9000080fa004f03be00bd
:101570004f02be004f01be004f00be003600f90012
:10158000004006003600f800809fbe00829fbe002b
:10159000849fbe00869fbe000000fa00113a8000c2
:1015a00000022000008060000000e00006003a0019
:1015b00078c9bf000044b2000004e00002003a0015
:1015c00020012000230d0700cac2a800640e0700f6
:1015d00078a9a80078c9bf000044b2000004e00068
:1015e00002003200d00020001a0d070078c9a800c0
:1015f0006e0907008020a9000080fa004f03be009a
:101600004f02be004f01be004f00be003600f90081
:10161000004006003600f800809fbe00829fbe009a
:10162000849fbe00869fbe000000fa00cac2a800c8
:101630004b0e070078a9a800e0002000050d070068
:101640005a0907008060a9000080fa004f03be001d
:101650004f02be004f01be004f00be003600f90031
:10166000004006003600f800809fbe00829fbe004a
:10167000849fbe00869fbe000000fa00cac2a80078
:10168000f0bf200000018800350e070078a9a800ef
:10169000f0002000ef0c0700440907008040a9007b
:1016a0000080fa004f03be004f02be004f01be0093
:1016b0004f00be003600f900004006003600f8007a
:1016c000809fbe00829fbe00849fbe00869fbe009a
:1016d0000000fa00cac2a800210e070078a9a800dd
:1016e00000012000db0c0700300907008080a90002
:1016f0000080fa004f03be004f02be004f01be0043
:101700004f00be003600f900004006003600f80029
:10171000809fbe00829fbe00849fbe00869fbe0049
:101720000000fa00cac2a8000d0e070078a9a800a0
:1017300010012000c70c07001c0907000080fa00f8
:101740004f03be004f02be004f01be004f00be005f
:101750003600f900004006000000fa0080498000d1
:1017600091498000a0468800b14688000f09070013
:10177000d642a9000080fa00000006000400fa002a
:10178000881f7800008fbe0018c0b3006011b80039
:101790001e00be00a11107000000e000010035009e
:1017a0000044eb000804e000030032001e00be000d
:1017b00001f0a200010037001e00be004f047800b7
:1017c0000080fa00000006000000fa006000b80087
:1017d00080498800914988006000b800604988000d
:1017e000714988000080fa00000006000000fa003d
:1017f000889fbe008a1f78004048800051488000c2
:10180000deff070018c0b300d2cc2c00c3d42300e5
:10181000821107000000e000010035000044eb00e9
:101820000804e0002100320074c9bf000044b20087
:101830000004e0001d003a008047800091478000ce
:1018400060498800714988006449800075498000ba
:10185000d0408000e14080000001be000400be00d6
:10186000ce1007000004be00b4408000c5408000d8
:10187000d0408000e14080000001be000400be00b6
:10188000c61007000001be000800be0021110700bd
:1018900002002000832c2400f811070080498800f2
:1018a000914988007549a8001500370088478000d5
:1018b00099478000d0408000e1408000d2cc2c00cd
:1018c000c3d42300b61007001ac0b3000001be0045
:1018d0000800be00511107000000e00001003400c4
:1018e0000045eb000a04e00003003200b6ff0700e9
:1018f0007549a80002003700b3ff07007549a90029
:101900004f0578004f04be000080fa00000006007a
:101910000400fa006000b800008fbe00e0488000bc
:10192000f148800001f0a200008fbe0062c9bf0034
:10193000e44f50000f003a00d0438000e1438000a4
:101940000001be001e00be0094100700a0498800e0
:10195000b149880050c0b30062e9b7000047800079
:10196000e50f500002003200100020000047880000
:101970007449a90062c9bf00e14f500007003a0056
:101980006000b800a0498800b1498800740d0700c4
:1019900040c0b30062e9b7007449a8000080fa00b3
:1019a000000006000200fa00000f78001e00780018
:1019b00080004000809a2000008040009000780065
:1019c000609a20001e004000104078000000fb00dc
:1019d000808f50000e0035001e007800800040000f
:1019e000809a2000008040008000eb000108780011
:1019f000609a20001e0040008040eb000148780003
:101a000080a320001e0040008040eb0001487800c9
:101a10000080fa00000006000600fa002007980087
:101a20000040eb00004f78000000eb00100798002a
:101a30002e0090006f006000100798001e009000bc
:101a4000e90f500005003c001e00900000407800a7
:101a50000043b000004f7800040037001e009000e3
:101a6000004078007043b000004f78001e407800be
:101a70000080fa00000006000200fa00000f780063
:101a80001e007800e10f500009003400a001200082
:101a9000f00b07001e0078008000400080a22000ac
:101aa000008040008000eb00010878000f00370044
:101ab00080a320001e004000104078000004e000d9
:101ac000090032001e0078000000e0000300320030
:101ad00080022000df0b07000400370070022000a6
:101ae000dc0b070001003700000000000080fa0056
:101af000000006000600fa00881f78001007980012
:101b0000210798002e009000dbff07009e00900048
:101b100000002f00008060004c00de008040780054
:101b20002e0090004201dd000099200000004100dd
:101b3000014878009e00900000f020008080600046
:101b40000010200000017800110009008200d80078
:101b5000804078002e0090004201dd0010992000a6
:101b600000004100014878009e009000000f200016
:101b70008080600000012000000178001100090051
:101b80008200d800804078002e0090004201dd00e5
:101b90002099200000004100014878001e009000bc
:101ba00000407800ef4060002e0090004201dd0010
:101bb000309920000000410001487800ae009000fc
:101bc000a0a320000080400011c0b30001487800ad
:101bd0002e00900080004000809a2000008040008d
:101be00010017800ae009000c00320000088b9000a
:101bf0000000780082004000c09a20000080400071
:101c000001c3b300014878002e009000800040001e
:101c1000809a200000804000100078008000e800da
:101c20002e00900000014000809a2000000041003a
:101c3000010878002e00900080004000809a20006b
:101c40000080400010017800ae009000c00320002a
:101c50000088b9000000780082004000c09a20008f
:101c60000080400081c7b300014878002e0090003a
:101c700080004000809a2000008040001000780022
:101c80008000e8002e00900000014000809a2000b3
:101c900000004100010878000000eb00000f780010
:101ca0002a0037002e00900080004000809a20001b
:101cb00000804000100478002e0090004200dd00fb
:101cc0009e004000009920000080400010407800f5
:101cd0000000fb0050ff070000417800ae009000bc
:101ce000c00320000088b900000078008800400090
:101cf000c09a200000804000024878002e0090002a
:101d000080004000809a2000008040009000780011
:101d1000a0032000808f50000b003c002e0090009c
:101d200080004000809a2000008040001000780071
:101d30008000e8002e00900000014000809a200002
:101d400000004100010878001e0fe8001e00780026
:101d5000e30f5000d3ff34002e00900080004000bd
:101d6000809a2000008040001000780080407800b9
:101d70002e019000609a2000000041000148780088
:101d8000ae009000a0a32000008040008040eb0047
:101d9000014878004f0478000080fa000000060037
:101da0000200fa00000f780080a320001e0040000f
:101db000104078000004e00011003a0080a32000e9
:101dc0001e00400011c0b300014878001e007800da
:101dd00080004000809a2000008040008000eb00de
:101de000010878001e0078000000e00002003200c8
:101df0008720a800030037008540a80001003700b5
:101e0000000000000080fa00000006000400fa0054
:101e1000000f7800110798001e00900016ff0700c1
:101e20009e009000a0a320000080400011c0b300dd
:101e3000014878001e0090008000400040a2200071
:101e4000008040008000eb0001087800320037007d
:101e50001e00900080004000809a2000008040001a
:101e6000900178001e0090008000400040a22000f9
:101e700000804000100078001e00400010417800f3
:101e80009e009000c00320000088b9000000780088
:101e900083004000c09a2000008040000248780083
:101ea0001e00900080004000809a200000804000ca
:101eb00090007800a0032000808f50000b003c00b1
:101ec0001e00900080004000809a200000804000aa
:101ed000100078008000e8001e0090000001400023
:101ee000809a200000004100010878001e00900048
:101ef0008000400040a220000080400010007800d8
:101f00008000e8001e0090000001400040a2200078
:101f100000004100010878001e0090008000400091
:101f200040a2200000804000100078001e00400009
:101f3000104078000004e000c5ff3a001e00900049
:101f400080004000809a200000804000100078004f
:101f5000804078001e019000609a2000000041003f
:101f6000014878009e009000a0a32000008040005f
:101f70008040eb00014878000080fa000000060075
:101f80000200fa00000f78001e0078008000400078
:101f9000809a200000804000900178001e007800a8
:101fa0008000400080a220000080400010017800e6
:101fb0001e0078006700b900000078008200400031
:101fc0008099200000804000104178009e00780039
:101fd000c00320000088b9000000780083004000a2
:101fe000c09a200000804000024878001e0078005f
:101ff00080004000809a200000804000900078001f
:10200000a0032000808f50000b003c001e007800d1
:1020100080004000809a200000804000100078007e
:102020008000e8001e00780000014000809a200037
:1020300000004100010878000080fa00000006005e
:102040000800fa00889fbe0010079800210798003a
:10205000320798003e0090008000400080a22000df
:10206000008040008000eb0001087800e1a2200021
:102070003e0090004200dd00008140006000b8009a
:102080000089be00be00900060a3200000804000d8
:102090008040eb00014878000000eb00000f780062
:1020a0003e0090006700b900800078008099200011
:1020b0000080400001c2b3000148780018c0b3009e
:1020c0006011b8001e009000ae009000530f070092
:1020d0000000e000010035000044eb000804e000cf
:1020e0000e0032001e009000ae00900001f0a20031
:1020f00010079800210798003e0090006700b90083
:10210000800078008099200000804000d1c2b30098
:102110000148780010002000000f780018c0b300bc
:10212000f2ff2300c36124001e009000ae00900067
:102130003c0f07000000e00001003c000044eb0001
:102140000804e0000d003200f0ff2300c16124000c
:1021500010079800210798003e0090006700b90022
:10216000800078008099200000804000f1c3b30017
:102170000148780010002000000f780002002000c5
:10218000a34724001e009000ae009000e10e07005f
:10219000e3a220003e0190004211dd0002814100d7
:1021a0000089be003e0090008000400080a2200018
:1021b00000804000100078008000e8003e009000a1
:1021c0000001400080a220000000410001087800ca
:1021d000580037003e0090008000400080a22000a0
:1021e0000080400010007800e50f500012003a0017
:1021f0003e0090006700b90080007800d099200070
:1022000000804000e1c2b300014878003e00900029
:102210008000400080a22000008040001000780074
:102220008000e8003e0090000001400080a22000f5
:102230000000410001087800e1a220003e0090006b
:102240004200dd00008040001000be00f70e0700d5
:10225000804078003e01900060a320000000410013
:10226000014878003e0090008000400080a22000dd
:102270000080400090017800be00900060a3200024
:1022800000804000104078000043b000004178001a
:102290003e0090006700b900000078008300400015
:1022a0008099200000804000024878003e009000a5
:1022b0008000400080a220000080400010007800d4
:1022c0008000e8003e0090000001400080a2200055
:1022d0000000410001087800e1a220003e009000cb
:1022e0004200dd00008040001004be00be009000ef
:1022f00060a3200000804000104078000000fb0038
:10230000cf80de00050f07000001be000800be0000
:10231000220e07000200200003122400570f0700be
:10232000e3a220003e0190004211dd000281410045
:102330000089be003e0090008000400080a2200086
:102340000080400010007800e80f5000a1ff34002a
:102350003e0090008000400080a2200000804000ed
:102360008000eb00010878003e009000c2fd0700ed
:10237000be009000a0a320000080400011c0b30068
:1023800001487800950037003e0090008000400032
:1023900080a2200000804000100078008000e8004b
:1023a0003e0090000001400080a22000000041009b
:1023b0000108780001003700000000003e00900096
:1023c0008000400080a220000080400010017800c2
:1023d0003e0090006700b9000000780082004000d5
:1023e00080992000008040009040780000c3b30036
:1023f00080cf50000d003a00be009000c0a2200027
:1024000000804000104078000004e00007003a001f
:102410003e0090008000400080a22000008040002c
:1024200010007800e20f5000d7ff3400be0090008b
:10243000c0a3200000804000104078000004e000ad
:10244000270032003e0090008000400080a2200063
:1024500000804000100178003e0090006700b90045
:102460000000780082004000809920000080400039
:10247000104078000000fb0001022000810f500096
:1024800005003200d1022000810f50000e003a00fa
:102490003e009000bafe07003e0090008000400021
:1024a00080a2200000804000100078008000e8003a
:1024b0003e0090000001400080a22000000041008a
:1024c0000108780000000000be009000c0a32000ba
:1024d000008040008040eb00014878000d0037008c
:1024e0003e009000a6fe07003e00900080004000e5
:1024f00080a2200000804000100078008000e800ea
:102500003e0090000001400080a220000000410039
:10251000010878003e0090008000400080a220006a
:1025200000804000100178003e0090006700b90074
:102530000000780082004000809920000080400068
:102540009040780000c3b30080cf500023003200d9
:102550003e0090008000400080a2200000804000eb
:10256000100178003e0090006700b900000078007c
:102570008200400080992000008040009040780058
:10258000d0c2b30080cf5000140032003e00900053
:102590008000400080a220000080400010017800f0
:1025a0003e0090006700b900000078008200400003
:1025b00080992000008040009040780000c2b30065
:1025c00080cf500005003200be009000c0a2200065
:1025d000008040008040eb00014878003e00900001
:1025e0008000400080a220000080400010007800a1
:1025f000e80f500070ff3400be009000c0a2200021
:10260000008040008040eb00014878003e009000d0
:1026100080004000809a2000008040001000780078
:10262000804078003e019000609a20000000410048
:1026300001487800be009000a0a320000080400068
:102640008040eb00014878004f04be000080fa0093
:10265000000006001200fa00500798006107980079
:1026600072079800030f980002402200439724004d
:102670007e0090008e089000800e0700008fbe0044
:102680005e019000ee0190001e00be00a10d07004b
:1026900002002000031824009e0d07000200200005
:1026a00003f823003d0d070020079800310798002c
:1026b0002e009000be009000fd0d0700400798001e
:1026c0004e0090000080fa00000006000000fa00b2
:1026d0000000200081342400104088002140880040
:1026e000000020000118240030408800414088008c
:1026f000d0cc2c00c1dc2b00504088006140880009
:102700006066260061f623007040880081408800e2
:10271000d0cc2c00c126240090408800a140880025
:1027200030332300b1262400b0408800c140880027
:10273000d0cc2c00c1212400d0408800e14088008a
:1027400000002000c1202400f040880001418800e2
:102750000000200001002400104188002141880071
:1027600000002000010a2400304188004141880017
:102770000000200001f023005041880061418800e2
:1027800030332300b11b2400704188008141880050
:1027900000002000011f240090418800a141880012
:1027a00000002000811c2400b0418800c141880045
:1027b0000000200001122400d0418800e14188007f
:1027c0000000200001172400f04188000142880029
:1027d00000002000012224001042880021428800cd
:1027e00000002000c12024003042880041428800bf
:1027f00000002000811c24005042880061428800b3
:102800006000b8007042880081428800000020000b
:102810000112240090428800a1428800000020009c
:10282000c1252400b0428800c14288000000200079
:1028300081242400d0428800e1428800000020006a
:1028400001172400f04288000143880000002000a6
:102850000127240010438800214388000000200045
:10286000012a2400304388004143880000002000f2
:102870008124240050438800614388000000200028
:10288000011f24007043880081438800000020005d
:102890008124240090438800a143880060ba290065
:1028a00041c42300b0438800c1438800d0cc2c0031
:1028b000c1d42300d0438800e14388008007200072
:1028c000f043880020c0b30094e8b70030c0b300e4
:1028d00095e8b70080c0b30096e8b70040c0b300e9
:1028e00097e8b700a0c0b30098e8b700b0c0b30045
:1028f00099e8b700820507000080fa000000060092
:102900000000fa007849a9006000b800c0478800bc
:10291000d14788006000b800e0478800f147880090
:102920006000b800c0488800d14888006000b80046
:1029300060488800714888006000b80080488800be
:10294000914888006000b800a0488800b14888001d
:102950006000b80080478800914788006000b80098
:1029600060498800714988006000b800804988008b
:10297000914988007549a9006000b8004048880066
:1029800051488800113a8000f08f2f0000806000cd
:102990000080a000103a88004207a8004227a90042
:1029a000cc22ef00d022ef00f0fe2f00c0168800ee
:1029b000dc22ef00e0fb2f00f0168800e222ef009f
:1029c00060002000000e8800c221ef0010032000ec
:1029d000200e8800c621ef00b00f2000400e8800b6
:1029e000ca21ef0010182800600e8800d021ef00e7
:1029f00000f02f00a00e8800d621ef00d821ef00b4
:102a0000da21ef000e22ef000fe2a9000c22ef0006
:102a10000d42a8006054800071548000a2702d0007
:102a2000b31624000bff0700a01088001822ef0047
:102a300019e2a9001622ef00805480009154800012
:102a4000a2702d00b316240002ff0700f0108800ca
:102a5000a00e2e00100888000021ef000421ef00d6
:102a60002108800000032000010070002008880079
:102a700050072700600888000621ef001021ef00b2
:102a800081088000f0fc2f00008060000050a00052
:102a900080088800a00e2e00700888000a21ef0030
:102aa0001221ef0091088000000320000100700057
:102ab00090088800a00e2e00d00888001421ef0096
:102ac0001e21ef00f10880000003200001007000cb
:102ad000f0088800f000200040498800f000200045
:102ae00050498800414980005049800000804000e2
:102af000cf80de00090d07000001be0000a22e00fd
:102b000001b62400830c07000200200043232400a8
:102b1000800c07000001be000000200001f8230027
:102b20007c0c07005053880061538800402e200021
:102b3000001588000041200010158800f0f02000ea
:102b400020158800a622ef0000f72f00401588000e
:102b5000f008200050158800c10480000000270004
:102b600001007000c0048800b1048000f08f2f00c5
:102b7000808060000060200001007000b0048800c8
:102b8000e104800080ff2f00008060005000b3004f
:102b9000e0048800a1048000f0ff280000806000ad
:102ba00000e0a000a0048800a104800080ff2f00a6
:102bb000008060003000b300a0048800c1048000e1
:102bc000f08f2f0080806000003020000100700036
:102bd000c004880001058000f0f82f0080806000ac
:102be000000320000100700000058800c10480007f
:102bf000f0f82f00008060000050a000c0048800a2
:102c00000105800080ff2f00008060000010a00000
:102c100000058800b1048000f0ff280000806000fb
:102c200000d0a000b0048800f1048000f0f82f006c
:102c3000008060000040a000f0048800f1048000e3
:102c4000f08f2f00008060000080a000f00488005a
:102c5000f1048000f0ff28000080600000c0a000a8
:102c6000f00488000080fa00000006000000fa006e
:102c7000889fbe0000bf200000018800384080000f
:102c80004940800014408000254080003040800092
:102c9000414080000001be000400be00c00b0700e0
:102ca0000001be000800be001a0c07002049880081
:102cb000314988007889a8007809a900544180002a
:102cc0006541800070418000814180000001be00ac
:102cd0000400be00e90c070030548800415488000d
:102ce00007ff070081e0a9008420ef008620ef00a5
:102cf0008820ef00ff3ffc008c20ef008e20ef00cb
:102d00009020ef008c60a8008d20a8008d40a800c6
:102d10008f00a8008f20a8008c00a8007529a800ab
:102d20008e00a8008ee0a9008cc0a8008ce0a8004e
:102d30008ea0a8008d60a8008200a9008240a90092
:102d40005220ef00a1e2a800c1e1a80011e1a80013
:102d500005e1a80013e1a8001fe1a8000de2a8000a
:102d60000f42a80017e2a8001942a8004f04be00b5
:102d70000080fa00000006000000fa00e0fe0700f4
:102d8000ff3ffc008420ef008620ef008820ef004a
:102d90008c20ef008e20ef009020ef008d20a80007
:102da0008d40a8008f00a8008f20a8005220ef00bf
:102db000a1e2a900c1e1a90011e1a90005e1a90072
:102dc00013e1a9001fe1a9000de2a8000f42a8002d
:102dd00017e2a8001942a8000080fa0000000600cf
:102de0000000fa005e080700a1e2a90011e1a900b5
:102df00013e1a9001fe1a9008e00a9008cc0a90061
:102e00008ce0a9008ea0a9008220a9008240a90020
:102e100000702000a05288007889a9007809a800d5
:102e20000080fa00000006000000fa0074a9a90062
:102e30007449a900c1e1a90005e1a9008420ef00bf
:102e40008620ef008820ef00ff3ffc008c60a90087
:102e50008d60a9008220a9008240a900e0ff070040
:102e60007829a8000080fa00000006000800fa0097
:102e700020079800310798000000eb00000f780051
:102e80000000eb00100798000000eb00000f780036
:102e90004c0037002e0090006600b900000078005a
:102ea0001e0040004109200080804000008020007a
:102eb00000804000104078000000fb0010079800e0
:102ec0001e009000e70f500005003c00be0090007f
:102ed000c0a320000080400011c0b300014878006a
:102ee0001e009000e80f500005003a00be00900060
:102ef000c0a220000080400011c0b300014878004b
:102f00001e0090001e0040000000e0003100320072
:102f10009e009000900f2000808f50000a00340027
:102f2000228820001e0090006600b9008000780012
:102f300040a22f000080400000004100be00900031
:102f4000b2fb07001e0037001e0090004200dd00ab
:102f50008080e800208e2000008140001200780070
:102f6000920090003e01900035fc07003e0090006a
:102f700080004000809a200000804000100078000f
:102f80008080e9003e00900000014000809a20000f
:102f900000004100010878001e0090008000400001
:102fa000e0172b000080400010007800be00900069
:102fb00096fb0700be009000a03d2b0093fb07008e
:102fc0001e0fe8001e007800e50f5000b1ff34002e
:102fd00001003700000000003e00900070fb070079
:102fe0000080fa00000006000200fa00000f7800de
:102ff00002003700cac2a9000140fe0080a32000e1
:103000001e004000104078000004e000f9ff3a0084
:10301000cac2a8000080fa00000006000400fa00fe
:10302000100798009e009000c03d2b0077fb070022
:103030001e0090005afb07001e0090008000400018
:1030400020a42000008040008000eb0001087800f0
:103050001e009000e4ff070040468000ea0f500089
:10306000050034009e009000e03e2b0067fb070047
:103070001e0090004afb0700404680000000e00070
:1030800047003a009e00900000402b005ffb0700c5
:103090001e00900042fb07004a0037001e0090000f
:1030a000d1ff07009e00900020412b0057fb070036
:1030b0001e0090008000400020a4200000804000fe
:1030c000100078000000e80080004000208b200005
:1030d00000804000100078009e00900085fa0700f4
:1030e0009e00900090412b0048fb07001e009000be
:1030f0008000400020a420000080400010007800e4
:103100000000e80080004000208b2000008040008c
:10311000100f78001e0078000000e000040032006c
:10312000c00220009e007800808f500008003c0004
:103130001e00e90080004000e0372b0000804000c6
:10314000100078009e00900030fb0700030037005d
:103150009e00900060372b002cfb07009e00900023
:10316000e0412b0029fb07001e0090000cfb07002c
:103170001e0090008000400020a42000008040003d
:10318000100078008000e8001e0090000001400060
:1031900020a4200000004100010878000100370051
:1031a000000000001e0090008000400020a42000cd
:1031b000008040009000780040468000808f5000e2
:1031c000b6ff35000080fa00000006000400fa0097
:1031d00010079800a50037001e0090000000e000d6
:1031e0000f0032001e009000800040004098200038
:1031f0000080400090017800e010800000417800dd
:103200001e0090006500b9000000780083004000b7
:103210009097200000804000024878000e003700a0
:103220001e00900080004000409820000080400078
:103230009001780090108000004178001e009000fe
:103240006500b900000078008300400090972000de
:1032500000804000024878009e00900090a9200065
:1032600000804000104078000004e0003c00320084
:103270001e00900080004000409820000080400028
:10328000100178001e0090006500b9000000780071
:10329000820040009097200000804000104078009d
:1032a000ed4f50000e003a001e00900080004000dc
:1032b0004098200000804000100178001e0090001f
:1032c0006500b9000000780082004000909720005f
:1032d0000080400010407800ea4f5000200032008b
:1032e0001e0090000000e0000f0032001e00900061
:1032f00080004000409820000080400010017800cd
:103300001e0090006500b9000000780082004000b7
:103310009097200000804000104078000000fb00e3
:10332000d01088000e0037001e0090008000400082
:103330004098200000804000100178001e0090009e
:103340006500b900000078008200400090972000de
:1033500000804000104078000000fb0080108800d2
:103360001e00900080004000409820000080400037
:10337000100178001e0090006500b9000000780080
:10338000820040009097200000804000104f78009d
:103390001e407800ed4f5000030032001e407800c0
:1033a000ea4f50001f003a009e00900090a92000b4
:1033b00000804000104078000004e000030032006c
:1033c0009e009000e0412b0090fa07001e00900044
:1033d00080004000409820000080400010007800ed
:1033e000804078001e019000e0982000000041001d
:1033f000014878001e0090008000400040982000a6
:10340000008040008000eb00010878009e009000e2
:10341000809820000080400011c0b300014878006f
:10342000120037001e0090008000400040982000ed
:103430000080400010007800e30f50000b003e00b9
:103440001e00900080004000409820000080400056
:10345000100078008000e8001e009000000140008d
:103460004098200000004100010878001e009000f4
:103470000000e00004003a0070108000610060006d
:103480000000e00007003a001e009000e10f50002d
:103490000a003a00c0108000610060000000e000f7
:1034a000060032009e0090008098200000804000be
:1034b000104078000004e00047ff32009e009000ba
:1034c0008098200000804000104078000004e00058
:1034d000540132009e00900010422b004bfa07006e
:1034e000404680000000e000030034009e00900091
:1034f00030422b0045fa07001e009000800040007b
:10350000e0a3200000804000100178001e00900021
:103510006500b9000000780082004000909720000c
:1035200000804000104078000000fb006101b900fd
:1035300030ff2f00f1ff2f00020040008380480081
:103540001207200003002000820f5000838f5800d4
:103550001e013e0000600100200137001b01370002
:103560001a01370019013700180137001701370019
:103570001601370015013700140137001301370019
:103580001201370011013700100137000f01370019
:103590000e0137000d0137000c0137000b01370019
:1035a0000a01370009013700080137000701370019
:1035b0005b0037006700370089003700760037006e
:1035c000020137000101370000013700ff0037001a
:1035d000fe003700fd003700fc003700fb0037001d
:1035e000fa003700f9003700f8003700f70037001d
:1035f000f6003700f5003700f4003700f30037001d
:10360000f2003700f1003700f0003700ef0037001c
:10361000ee003700ed003700ec003700eb0037001c
:10362000ea003700e9003700e8003700e70037001c
:10363000cb003700e5003700ad003700ba00370097
:10364000e2003700a4003700e0003700df00370059
:10365000de003700dd003700dc003700db0037001c
:10366000da003700b3003700d8003700d700370042
:10367000ab00370069003700d40037008000370006
:10368000d2003700d1003700d0003700c00037002b
:10369000ce003700cd003700cc003700cb0037001c
:1036a000ca003700c9003700c8003700c70037001c
:1036b000c6003700c500370093003700c30037004d
:1036c000c200370087003700c0003700bf00370056
:1036d000be003700bd003700bc003700bb0037001c
:1036e000ba00370098003700b8003700b70037003d
:1036f000b600370045003700b4003700b30037008c
:10370000b2003700b1003700b0003700af0037001b
:10371000ae003700ad003700ac0037003600370090
:103720001e00900080004000409820000080400073
:103730008000eb00010878009e0090008098200037
:10374000008040008040eb00014878000000fe004f
:10375000a30037009e00900050422b00abf90700f9
:10376000004480009e009000e2f807009e00900058
:1037700050432b00a5f907001102070050528000aa
:103780009e009000dbf807009e009000e0412b00b7
:103790009ef90700920037009e009000f0432b0036
:1037a0009af90700f01f2000c40107009e00900056
:1037b000d0f807009e00900050432b0093f90700bb
:1037c00016020700605280009e009000c9f80700b2
:1037d0009e009000e0412b008cf90700800037002c
:1037e0009e009000f0442b0088f90700b900070004
:1037f000ee0007007a003700b4fb07000000eb0082
:1038000024010700ca010700750037009e009000e0
:103810000000eb0095fd0700710037009e0090004e
:10382000c0462b0079f9070070418000814180007b
:103830001e01900002fa07009e00900050472b00e6
:1038400072f90700e0468000f14680001e019000fa
:10385000fbf907009e00900020482b006bf9070041
:1038600050468000614680001e019000f4f9070078
:103870009e009000e0482b0064f9070058003700d4
:103880009e00900010492b0060f90700a04b8000bb
:103890004a00de00614060000080fb008000eb0019
:1038a000a10907001e019000e5f907009e009000a5
:1038b000d0492b0055f907008049800091498000cc
:1038c0001e019000def907009e009000e0482b00ea
:1038d0004ef9070042003700100020000047880022
:1038e0003f00370050002000004788003c003700b0
:1038f0009e00900090a920000080400011c0b300fd
:1039000001487800360037009e00900090a9200002
:10391000008040008040eb00014878003000370014
:103920007829a8002e0037001e009000bbfd07007c
:103930002b0037009e009000904a2b0033f90700bf
:1039400074a9a800260037009e009000104b2b00a1
:103950002ef907006969ef0074a9a900200037005b
:10396000c828ef0078a9a90000478000e50f5000a3
:1039700001003200e028ef0078c9a9008b000700a1
:103980009e009000904b2b0020f907001400370098
:103990003c69ef00b0408000c1408000a047880033
:1039a000b1478800d1168000001020000080600020
:1039b0000000e00002003200d228ef0008003700cb
:1039c000a000200090468800050037009e0090006f
:1039d000b04c2b000df9070001003700000000007b
:1039e0001e009000800040004098200000804000b1
:1039f0008000eb00010878009e0090008098200075
:103a0000008040008040eb00014878001e009000dc
:103a100080004000e0a32000008040008000eb0018
:103a2000010878001e009000ddf807000080fa0011
:103a3000000006000200fa0066c9bf000000fb009b
:103a40000000e8001d010700000f78004065270016
:103a50009e007800808f500001003a006f00070040
:103a60000080fa00000006000400fa000000eb00ed
:103a700012010700100798009e0090007056240065
:103a8000808f50000b003a000000eb00000f780020
:103a9000270007000000e0000c003a001e0078003c
:103aa000e40f500001003400250307001e0fe8005a
:103ab000f7ff37001e009000e10f400003003a00be
:103ac0001501070001fb0700020007000080fa0053
:103ad000000006000200fa000000eb00000f780072
:103ae000090037001e0078008000400000802000a0
:103af0000080400010007800800078001e007800f0
:103b0000950007001e0fe80066c9bf000000fb001b
:103b10009e0f5000f3ff3c00715624000000eb00a4
:103b20008d000700020107000080fa000000060077
:103b30000200fa00390107000000e0000200320034
:103b40000000eb00170037000000eb00000f7800ca
:103b5000090037001e007800d800070080007800b8
:103b60001e0078000001400000802000000041009d
:103b7000010878001e0fe80066c9bf000000fb00c6
:103b80009e0f5000f3ff3c00fe0007000000e00025
:103b9000020032000000eb0002003700d8000700ee
:103ba000100020000080fa00000006000400fa0067
:103bb00066c9bf000000fb000000e8001007980085
:103bc0000000eb00000f7800090037001e007800ad
:103bd00080004000208b2000008040009000780092
:103be0001e0090001e0040005b0007001e0fe80052
:103bf00067c9bf000000fb009e0f5000f3ff3c00b0
:103c0000416527001e00900053000700c800070010
:103c10007569a9000080fa00000006000400fa009f
:103c2000fe0007000000e000020032000000eb0090
:103c30001600370066c9bf000000fb000000e80066
:103c4000100798000000eb00000f78000a00370012
:103c50001e0090001e0040009800070080007800c1
:103c60001e00780000014000208b20000000410071
:103c7000010878001e0fe80067c9bf000000fb00c4
:103c80009e0f5000f2ff3c00100020000080fa0060
:103c9000000006000400fa00100798000000eb0086
:103ca000000f78009e009000f01f2000808f5000d1
:103cb000020034001000200025003700ff3ffc0008
:103cc000c1048000f0ff280000806000c00488006c
:103cd0001e00900000004000000f78009e00780059
:103ce00000c02f0000804000000f7800f007200087
:103cf000203b88001e007800103b8800410424000f
:103d0000013b880051052000313b8800a10a2000ba
:103d1000313b880061e7a8000000000000000000bf
:103d2000010037005220ef00013b80000000280016
:103d3000008060000000e000faff3a00c10480004b
:103d40000000270001007000c00488000000eb00a4
:103d50000080fa00000006000400fa00000f78005e
:103d6000110798001e007800caff0700f01f20000e
:103d70009e007800808f5000020034001000200068
:103d800028003700ff3ffc00c1048000f0ff28003e
:103d900000806000c00488001e0078000000400021
:103da000000f78009e00780000c02f0000804000c7
:103db000000f7800f0c7b30032e0b7001e0090009b
:103dc000200088001e007800000088000208bb0068
:103dd00041002400013b880051052000313b880050
:103de000a10a2000313b880061e7a8000000000024
:103df00000000000010037005220ef00013b80006e
:103e000000002800008060000000e000faff3a0097
:103e1000c10480000000270001007000c004880079
:103e20000000eb000080fa00000006000600fa0027
:103e30001007980021079800ff3ffc00c104800094
:103e4000f0ff280000806000c00488001e00900081
:103e50000040780032e0b7002e009000000088009b
:103e60001082ba0000000000000000004000800046
:103e7000305288001e0090000040780032e0b70009
:103e80002e009000000088001002ba000000000020
:103e90000000000040008000000f78005220ef007a
:103ea000c10480000000270001007000c0048800e9
:103eb0001e0078000080fa00000006000200fa00f0
:103ec000000f7800f01f20009e007800808f5000c7
:103ed000020034000000eb00070037009e0078006d
:103ee00000e02700008040000000400080007800d3
:103ef000f0072000cdff07000080fa000000060058
:103f00000000fa00e700070080528000905288000d
:103f10000080fa00000006000000fa004e000700d2
:103f200050528000004488000080fa000000060023
:103f30000000fa009d0007006052800080007800b9
:103f4000f01f200084ff07000080fa000000060038
:103f50000000fa00d30007008152800090528000d8
:103f6000808f500004003200b0022000b902070028
:103f700010002000010037000000eb000080fa0074
:103f8000000006000000fa00c6000700a6000700b7
:103f90008152800070528000808f500005003200f6
:103fa000c0022000ab02070078a9a8001000200082
:103fb000010037000000eb000080fa00000006005e
:103fc0000000fa0075c9bf00704060000004e00006
:103fd000020032000000eb000e0037007589a800d7
:103fe0001d0007000144800050528000808f500067
:103ff00006003200900220009602070078a9a8006f
:104000007589a90010002000020037007589a900f9
:104010000000eb000080fa00000006000000fa003b
:1040200062000700f01f2000a4ff0700615280001b
:10403000810f500005003200a00220008502070019
:1040400078a9a80010002000010037000000eb0054
:104050000080fa00000006000400fa00881f7800c3
:104060004a2aef000000eb00000f78000000eb0090
:10407000100798000000eb00000f78001a003700ce
:104080001e00780000004000800078000000eb0077
:1040900066ff070080007800f00f200000846000b9
:1040a0001e00780000004000800078000000eb0057
:1040b0005eff07008000780000f02f0000806000a5
:1040c0004800de0080004400505280000080400024
:1040d00050528800515280003052800000804000d1
:1040e000505288001e0fe800e0ff21009e0078007b
:1040f000808f5000e2ff3400800f200010079800ee
:10410000200037000000eb00000f78001600370099
:104110001e00780000004000800078001e00900023
:1041200042ff070080007800f00f2000008460004c
:104130001e00780000004000800078001e00900003
:104140003aff07008000780000f02f000080600038
:104150004800de0080004400505280000080400093
:10416000505288001e0fe800f0ff27009e007800e4
:10417000808f5000e6ff3a001e0090000000e8002b
:10418000100798009e009000e00f2000808f5000e4
:10419000dcff340050528000401ab00050528800ba
:1041a0004f0478000080fa00000006000200fa00c8
:1041b000881f78004c2aef000000eb00000f780009
:1041c0000000eb00000f7800100037001e007800a0
:1041d0003aff070080007800f00f200000846000a4
:1041e0001e00780035ff07008000780000f02f00e7
:1041f000008060004800de008000440060528000c3
:1042000000804000605288001e0fe800d01f200090
:104210009e007800808f5000ecff34004f0478003f
:104220000080fa00000006000200fa00881f7800f3
:104230004e2aef000000eb00000f78000000eb00ba
:10424000000f7800100037001e0078001bff0700e9
:1042500080007800f00f2000008460001e007800cd
:1042600016ff07008000780000f02f00008060003b
:104270004800de0080004400705280000080400052
:10428000705288001e0fe80066c9bf000000fb00e6
:104290009e0f5000ecff3c004f0478000080fa00b5
:1042a000000006000200fa00502aef000000eb00b8
:1042b000000f78000000eb00000f780016003700b8
:1042c0001e00780080004000008020000080400038
:1042d0001000780080007800f00f200080806000df
:1042e0001e00780000014000008020000000410016
:1042f000100078000001780000f02f00000061003d
:104300004800de0080804000805280000080400035
:10431000805288001e0fe80066c9bf000000fb0045
:104320009e0f5000e6ff3c000080fa0000000600ef
:104330000000fa00881f780074c9bf000044b20072
:104340000004e00084003a00d11680000010200034
:10435000008060000000e0007f0032006ac9bf00fa
:10436000e34f50007c003a006000b800c04788006e
:10437000d1478800704080008140800018c0b300a1
:104380000200200003f82300a60607000000e0005a
:1043900001003c000044eb000804e000080032008b
:1043a0001421ef000000200001f823007040880075
:1043b00081408800d2fe0700c0012000a50107004f
:1043c00070408000814080006011b80093060700b3
:1043d0000000e00005003a00b0408000c1408000cd
:1043e000a0478800b14788003c69ef0090468000f4
:1043f000e90f500042003c00904680000000e800b9
:104400009046880010c0b3003ce9b700b44080007b
:10441000c5408000d0408000e14080000001be0027
:104420000400be00dd0507000002be0070408000f1
:10443000814080000001be000400be000f0707009d
:104440000002be00d0408000e14080000001be00bc
:104450000400be00d2050700a0478800b1478800cd
:10446000a0478000b1478000624980007349800006
:1044700018c0b300690607000000e0000100350025
:104480000044eb000804e0000b00320075c9bf00d7
:10449000644060000004e0000700320060498000d2
:1044a00071498000a2702d0033c22300bc050700b3
:1044b000a0478800b1478800a4478000b547800026
:1044c000b0408000c140800018c0b3000001be00b1
:1044d0000400be00530607000000e00001003c009d
:1044e0000044eb000804e0000e003200b040800001
:1044f000c1408000a0478800b1478800090037000c
:1045000090468000e90f500006003400d228ef00ea
:104510003c69ef00b0408000c1408000a0478800a7
:10452000b147880000178000620060000000e000d2
:104530000700320074c9bf000042b2000004e0006e
:1045400003003a006000b800c0468800d1468800e9
:1045500074c9a8000100370074c9a9004f0478008d
:104560000080fa00000006000200fa00889fbe00ea
:104570006ac9bf000004e00009003a0062c9bf0038
:104580000004e00006003a0010c0b30062e9b70082
:104590007449a80010c0b3006ae9b700650037008d
:1045a00062c9bf00e54f500007003a006ac9bf006a
:1045b000e14f500004003c006ac9bf000040e80021
:1045c0006ae9b7005b0037006ac9bf00e24f5000dc
:1045d00058003a0075c9bf00644060000004e00064
:1045e0005400320066c9bf000000fb000000e80074
:1045f00032fe070041652700810f500039003a0064
:10460000504680006146800018c0b30002002000c0
:1046100003f82300030607000000e00001003c004f
:104620000044eb000804e0002e00320058468000f1
:1046300069468000a0468000b14680008249800023
:10464000934980005505070002002000832c2400b8
:10465000b00507000001be000800be008706070085
:10466000f2050700000f7800e8468000f946800058
:104670001e007800cf80de00280607000001be0083
:104680000800be0045050700e0468800f1468800a6
:1046900078468000894680001e007800cf80de00ca
:1046a0001e0607000001be000800be003b05070013
:1046b0007046880081468800c8468000d946800040
:1046c0001e007800cf80de00140607000001be0047
:1046d0000800be0031050700c0468800d1468800aa
:1046e0001100370075a9a800704180008141800049
:1046f00050468800614688007841800089418000ea
:10470000804980009149800002002000832c240011
:10471000800507000001be000800be005706070024
:10472000e0468800f146880030c0b3006ae9b7006f
:104730007449a9004f04be000080fa000000060082
:104740000000fa00fd0107008bf90700caa2a800cb
:10475000cac2a9000140fe00fdff37000000fa00b8
:104760005154800050a52a00808f500001003a006b
:104770008000070050a52a00505488000080fa00ed
:10478000000006000000fa00d11680000010200092
:10479000008060000000e0000c003a00001780007c
:1047a000620060000000e0000800320074c9bf0031
:1047b000644060000004e00004003a0074c9bf00d7
:1047c0000042b2000004e0001a0032007489a80020
:1047d000e05280000000e0000300320078a9a90048
:1047e00078c9a9005c2aef0078c9bf000042b20076
:1047f0000004e00007003a007469a80078c9bf000f
:10480000704060000004e00013003a0017f9070050
:1048100014003700d20107007469a90078c9bf00ed
:10482000614060000004e0000d003a006cf90700f0
:104830000c003700ca0107007489a9007469a90037
:1048400078c9bf00614060000004e00005003a0044
:1048500063f9070003003700000000000100370083
:10486000000000000080fa00000006000000fa00ce
:1048700000148000e30f400003003600d001200048
:1048800074000700ad01070000148000e10f500024
:1048900003003e00e00120006e000700a7010700b2
:1048a00010148000e30f400003003600f0012000e8
:1048b00068000700a101070010148000e10f5000fc
:1048c00003003e0000022000620007009b01070079
:1048d00020148000e30f4000040036001002200086
:1048e0005c00070050002000004788002014800072
:1048f000e10f500004003e00200220005500070098
:10490000500020000047880030148000e30f400072
:1049100002003600300220004e00070030148000f4
:10492000e10f500002003e00400220004900070055
:1049300040148000e30f40000200360050022000c7
:104940004400070040148000e10f500002003e00c8
:10495000600220003f00070075c9bf00684060008a
:104960000004e0000100320090fc07000080fa0023
:10497000000006000000fa00003a800062006000bb
:104980000000e000030032004027a90030012000b1
:1049900030000700003a8000700060000000e00076
:1049a000030032004087a9004001200029000700d1
:1049b000013a800000002800008060000000e00054
:1049c0000300320041e7a900500120002100070048
:1049d000013a800000002400008060000000e00038
:1049e0000300320041c7a900600120001900070040
:1049f000013a800000082000008060000000e00014
:104a00000300320040e7a9007001200011000700f8
:104a1000013a800000042000008060000000e000f7
:104a20000300320040c7a9008001200009000700f0
:104a3000900120000700070075c9bf0068406000b2
:104a40000004e0000100320058fc07000080fa007a
:104a5000000006000200fa00000f780040468000c7
:104a6000e90f50000a003c00404680000000e800ca
:104a700080004000208b2000008040001e0878004d
:104a8000404680000000e8004046880002003700f1
:104a9000b0002000404688007569a8000080fa0038
:104aa000000006000400fa00881f7800004780001c
:104ab000e20f50006b003a0074c9bf00684060000c
:104ac0000004e000670032006000b800008fbe0004
:104ad000844780009547800040488000514880000e
:104ae0000001be000400be006405070001f0a20042
:104af000008fbe0090438000a143800018c0b30027
:104b00001e01be00c70407000000e00001003c00d9
:104b10000044eb000804e0004b003200d1e2a800a2
:104b200094cabf000004e00041003a00c052800077
:104b30000000e800c0528800c0528000b00e88001b
:104b4000c1528000f0052000808f50000800340022
:104b500010002000bfff0700400020000047880031
:104b6000d1e2a90030c0b30094eab700582aef00a0
:104b7000c152800020032000808f500012003400ba
:104b800018c0b30002002000030024001e00be0075
:104b9000a20407000000e000010035000044eb0023
:104ba0000804e0000800320020002000a9ff0700f0
:104bb0004000200000478800d1e2a90030c0b300c7
:104bc00094eab700582aef00c0528000e40f50006a
:104bd00012003c0018c0b3000200200003122400a1
:104be0001e00be008f0407000000e00001003c0032
:104bf0000044eb000804e000080032003000200010
:104c000094ff07004000200000478800d1e2a9007f
:104c100030c0b30094eab700582aef0075c9bf004e
:104c2000684060000004e00001003200dffb070084
:104c300094cabf00e34f50000a003a0020c0b300fe
:104c400094eab700070037003000200000478800d2
:104c5000d621ef007449a900d1e2a90030c0b30009
:104c600094eab70000478000e10f50000a003a00c4
:104c7000d621ef00fdf70700b90007007449a8002e
:104c8000582aef007029ef0020002000004788001c
:104c900030c0b30094eab70000478000e40f500032
:104ca00004003a00d621ef00582aef007029ef00e7
:104cb0007449a9004f0478000080fa000000060043
:104cc0000000fa00881f7800844780009547800024
:104cd00090408000a140800018c0b3000001be00d9
:104ce0000400be004f0407000000e00001003d008a
:104cf0000044eb000804e0000300320070002000d4
:104d000054ff07008d00070084478000954780000e
:104d1000f04080000141800018c0b3000001be00d7
:104d20000400be003d0407000000e0000100350063
:104d30000044eb000804e00008003200d1168000b7
:104d400000102000008060000000e00003003a0036
:104d5000400020003fff070033f807006448800050
:104d600075488000104380002143800018c0b300c4
:104d70000001be000400be002a0407000000e0009d
:104d800001003c000044eb000804e0000300320096
:104d9000800020002fff070068000700a448800063
:104da000b5488000304380004143800018c0b30004
:104db0000001be000400be001a0407000000e0006d
:104dc00001003c000044eb000804e0000300320056
:104dd000900020001fff0700580007008448800053
:104de00095488000304380004143800018c0b300e4
:104df0000001be000400be000a0407000000e0003d
:104e000001003c000044eb000804e0000300320015
:104e1000a00020000fff07004800070075c9bf0071
:104e2000684060000004e000010032005ffb070002
:104e30004f0478000080fa00000006000000fa002d
:104e4000881f7800404880005148800018c0b30097
:104e50006011b800f10307000000e0000100350018
:104e60000044eb000804e0000600320040488000e7
:104e70005148800001f0a200c0498800d149880053
:104e8000030037006000b800c0498800d14988009d
:104e900090418000a1418000c2498000d349800038
:104ea00018c0b300dd0307000000e000010035007a
:104eb0000044eb000804e0000a003200d0528000f9
:104ec000e50f5000040034001c0007005a2aef00d0
:104ed00050002000dffe0700d05280000000e800f4
:104ee000d0528800404880005148800032548000f1
:104ef0004354800018c0b300ca0307000000e0005c
:104f000001003c000044eb000804e0000300320014
:104f10000a00070060002000cefe070075c9bf0030
:104f2000684060000004e000010032001ffb070041
:104f30004f0478000080fa00000006000000fa002c
:104f40000700070078a9a80074a9a9007449a9005e
:104f5000b0002000bffe07000080fa00000006003d
:104f60000000fa00da21ef00dc22ef00c841a900be
:104f7000d621ef00d821ef00d622a90030c0b3001f
:104f800095eab700e202a900e2c2a90030c0b3006e
:104f900096eab700d1e2a90030c0b30094eab700a6
:104fa000cb02a9007029ef006e29ef006c29ef00f9
:104fb0006000b800b0538800c15388006000b8009a
:104fc00090538800a15388000080fa00000006007a
:104fd0001400fa00889fbe0020079800310798004f
:104fe00042079800530798006407980075079800d7
:104ff000060f9800170f98006048800071488000e5
:1050000018c0b3004e019000de019000830307003a
:105010000000e000010035000044eb000804e0005f
:105020001000320060488000714880002e0190001e
:10503000be019000d90207000004be002e019000be
:10504000be0190004e009000de009000d3020700e9
:105050000001be000800be002e030700008fbe0046
:1050600022003700604880007148800018c0b300fb
:105070000e0990009e0990006a0307000000e000fe
:1050800001003c000044eb000804e0001400320082
:1050900060488000714880006e019000fe01900021
:1050a000be0207000004be0009f0a2006e019000dd
:1050b000fe0190000e0890009e089000b7020700c5
:1050c0000001be000800be0012030700020020001d
:1050d00003f82300b2020700008fbe000300370070
:1050e0000000200001f823001900370018c0b300a9
:1050f0000200200003f823001e00be004903070041
:105100000000e00001003c000044eb000804e00067
:10511000030032000000200001f823000c003700db
:1051200018c0b3006011b8001e00be003b030700aa
:105130000000e000010035000044eb000804e0003e
:10514000020032006000b800010037001e00be00ff
:105150004f04be000080fa00000006000400fa00c0
:10516000889fbe008a9fbe001441800025418000b8
:10517000e0468000f14680000001be000400be0051
:10518000be0307000005be00d4428000e542800057
:10519000b2428000c342800090428000a142800061
:1051a00078428000894280000403be000202be00f3
:1051b0000001be000800be0085ff07000001be0020
:1051c0000a00be00ad030700f052880001538800ba
:1051d0003041800041418000f25280000353800042
:1051e00018c0b3000f0307000000e00001003c00fe
:1051f0000044eb000804e00004003200304180006d
:1052000041418000f05288000153880054468000dc
:1052100065468000e0468000f14680000001be0047
:105220000400be005d020700008fbe0018c0b3007e
:10523000d2cc2c00c3e423001e00be00f7020700fe
:105240000000e000010035000044eb000804e0002d
:1052500003003200d0cc2c00c1e42300008fbe003c
:1052600050418000614180001e01be0083030700a1
:105270000005be003442800045428000124280009a
:1052800023428000f041800001428000d84180002c
:10529000e94180000403be000202be000001be001e
:1052a0000800be004aff07000001be000a00be0061
:1052b0007203070010538800215388004f05be0079
:1052c0004f04be000080fa00000006000000fa0053
:1052d000889fbe0000178000620060000000e000b0
:1052e0000400320074c9bf000042b2000004e000b4
:1052f000e900320078c9bf000042b2000004e000bb
:1053000007003a00d622a800cb02a80095cabf0029
:10531000e34f500002003a0020c0b30095eab70006
:10532000d116800000102000008060000000e00026
:1053300003003a00f042800001438000ac01070006
:1053400095cabf000004e000de003a006448800017
:1053500075488000b0428000c14280000001be005c
:105360000400be000d0207000002be0020558000b0
:10537000315580000001be000400be003f0307005d
:105380000002be0050538000615380000001be0047
:105390000400be00390307000002be00d0538000a5
:1053a000e15380000001be000400be00fc010700c4
:1053b000d0538800e1538800b0408000c140800095
:1053c000d2538000e353800018c0b300930207005b
:1053d0000000e000010035000044eb000804e0009c
:1053e00005003200b0408000c1408000d0538800ea
:1053f000e15388000f003700d0408000e14080007a
:10540000d2538000e353800018c0b3008502070028
:105410000000e00001003c000044eb000804e00054
:1054200004003200d0408000e1408000d05388006a
:10543000e15388008047800091478000d25380006c
:10544000e3538000d50107000002be000055800034
:10545000115580000001be000400be0007030700d4
:105460000002be0050538000615380000001be0066
:105470000400be00010307000002be00b05380001c
:10548000c15380000001be000400be00c40107003b
:10549000b0538800c1538800b4538000c5538000c6
:1054a000f05280000153800018c0b3000001be001c
:1054b0000400be005b0207000000e00001003c00a9
:1054c0000044eb000804e00005003200f0528000c8
:1054d00001538000b0538800c15388000d0037008d
:1054e000b0538000c153800018c0b3006011b800f1
:1054f0004a0207000000e000010035000044eb0014
:105500000804e000030032006000b800b0538800d7
:10551000c1538800b8538000c953800040488000c0
:105520005148800095f007000001be000800be0051
:105530009a0107000002be00e0548000f154800090
:105540000001be000400be00cc02070070538800ba
:1055500081538800705380008153800018c0b300cd
:1055600002002400c36124002e0207000000e000b6
:1055700001003c000044eb000804e000050032009c
:1055800000002400c161240070538800815388000a
:105590000f003700705380008153800018c0b300a3
:1055a00002002400c3612c001c0207000000e00080
:1055b000010035000044eb000804e0000400320064
:1055c00000002400c1612c007053880081538800c2
:1055d00054538000655380007053800081538000d5
:1055e0000001be000400be00a40207000002be00cd
:1055f00090538000a15380000001be000400be0053
:105600006701070090538800a153880090538000e1
:10561000a153800018c0b30002002000e32b240037
:10562000000207000000e00001003c000044eb0025
:105630000804e0000500320000002000e12b2400f7
:1056400090538800a15388000d00370090538000cc
:10565000a153800018c0b3006011b800ef0107002b
:105660000000e000010035000044eb000804e00009
:10567000030032006000b80090538800a1538800f6
:1056800090538000a1538000e801070000007800db
:10569000604b88000b0037006c29ef00da21ef0027
:1056a000dc22ef00c841a9006000b80090538800d8
:1056b000a153880030c0b30095eab700cb02a9001f
:1056c000d622a9004f04be000080fa0000000600a8
:1056d0000000fa00889fbe008a1f7800d116800063
:1056e00000102000008060000000e000b3003200e5
:1056f000ca82a80078c9bf000042b2000004e000de
:1057000006003a00e2c2a80096cabf00e34f50006c
:1057100002003a0020c0b30096eab700404880007b
:105720005148800018c0b3006011b800bb010700e9
:105730000000e000010035000044eb000804e00038
:105740002900320000178000620060000000e000c5
:10575000250032008847800099478000a0478000dc
