:020000040000fa
:080000000001040000000000f3
:020000040000fa
:040008009c31000027
:020000040000fa
:04000c007409000073
:020000040000fa
:04001000ba09000029
:020000040000fa
:04001400e2090000fd
:020000040000fa
:040018000e0a0000cc
:020000040000fa
:04001c009c31000013
:020000040000fa
:040020009c3100000f
:020000040000fa
:04002400360a000098
:020000040000fa
:04002800c80100000b
:020000040000fa
:04002c009c31000003
:020000040000fa
:040030009c310000ff
:020000040000fa
:04003400d8020000ee
:020000040000fa
:040038009c310000f7
:020000040000fa
:04003c009c310000f3
:020000040000fa
:040040003406000082
:020000040000fa
:04004400de070000d3
:020000040000fa
:040048009c310000e7
:020000040000fa
:04004c006008000048
:020000040000fa
:04005000a408000000
:020000040000fa
:04005400d2010000d5
:020000040000fa
:040058009c310000d7
:020000040000fa
:04005c009c310000d3
:020000040000fa
:040060009c310000cf
:020000040000fa
:040064009c310000cb
:020000040000fa
:040068008807000005
:020000040000fa
:04006c009c310000c3
:020000040000fa
:040070009c310000bf
:020000040000fa
:040074009c310000bb
:020000040000fa
:040078009c310000b7
:020000040000fa
:04007c00f407000085
:020000040000fa
:040080003e08000036
:020000040000fa
:040084009c310000ab
:020000040000fa
:0400880082080000ea
:020000040000fa
:04008c00f408000074
:020000040000fa
:040090009c3100009f
:020000040000fa
:040094009c3100009b
:020000040000fa
:040098009c31000097
:020000040000fa
:04009c009c31000093
:020000040000fa
:0400a0009c3100008f
:020000040000fa
:0400a4009c3100008b
:020000040000fa
:0400a8009c31000087
:020000040000fa
:0400ac009c31000083
:020000040000fa
:0400b0009c3100007f
:020000040000fa
:0400b4009c3100007b
:020000040000fa
:0400b8009c31000077
:020000040000fa
:0400bc009c31000073
:020000040000fa
:0400c0009c3100006f
:020000040000fa
:0400c4009c3100006b
:020000040000fa
:0400c8009c31000067
:020000040000fa
:0400cc009c31000063
:020000040000fa
:0400d0009c3100005f
:020000040000fa
:0400d4004c090000d3
:020000040000fa
:0400d8009c31000057
:020000040000fa
:040108009c31000026
:020000040000fa
:04010c009c31000022
:020000040000fa
:040110009c3100001e
:020000040000fa
:040114009c3100001a
:020000040000fa
:040118009c31000016
:020000040000fa
:04011c009c31000012
:020000040000fa
:040120009c3100000e
:020000040000fa
:040124009c3100000a
:020000040000fa
:040128009c31000006
:020000040000fa
:04012c009c31000002
:020000040000fa
:040130009c310000fe
:020000040000fa
:040134009c310000fa
:020000040000fa
:040138009c310000f6
:020000040000fa
:04013c009c310000f2
:020000040000fa
:040140009c310000ee
:020000040000fa
:040144009c310000ea
:020000040000fa
:040148009c310000e6
:020000040000fa
:04014c009c310000e2
:020000040000fa
:040150009c310000de
:020000040000fa
:040154009c310000da
:020000040000fa
:040158009c310000d6
:020000040000fa
:04015c009c310000d2
:020000040000fa
:040160009c310000ce
:020000040000fa
:040164009c310000ca
:020000040000fa
:040168009c310000c6
:020000040000fa
:04016c009c310000c2
:020000040000fa
:040170009c310000be
:020000040000fa
:040174009c310000ba
:020000040000fa
:040178009c310000b6
:020000040000fa
:04017c009c310000b2
:020000040000fa
:040180009c310000ae
:020000040000fa
:040184009c310000aa
:020000040000fa
:040188009c310000a6
:020000040000fa
:04018c009c310000a2
:020000040000fa
:040190009c3100009e
:020000040000fa
:040194009c3100009a
:020000040000fa
:040198009c31000096
:020000040000fa
:04019c009c31000092
:020000040000fa
:0401a0009c3100008e
:020000040000fa
:0401a4009c3100008a
:020000040000fa
:0401a8009c31000086
:020000040000fa
:0401ac009c31000082
:020000040000fa
:0401b0009c3100007e
:020000040000fa
:0401b4009c3100007a
:020000040000fa
:0401b8009c31000076
:020000040000fa
:0401bc009c31000072
:020000040000fa
:0401c0009c3100006e
:020000040000fa
:0401c4009c3100006a
:020000040000fa
:0401c8009c31000066
:020000040000fa
:0401cc009c31000062
:020000040000fa
:0401d0009c3100005e
:020000040000fa
:0401d4009c3100005a
:020000040000fa
:0401d8009c31000056
:020000040000fa
:100200008fad20000ebf20000e018800000000000e
:10021000000020000000e000020032000001200089
:100220002002880014000700451807000000e000c5
:1002300003003a00c08923000100200002003700bb
:100240000000200001002000810f7000010032003a
:1002500014000700000020000000e000020032004f
:100260000000020000000000543102000000000005
:100270000040da000000fe004440a900e036200003
:100280000000e0000300320000002000a001880010
:100290004440a800000006008a1f78008b1f7800e9
:1002a0000000060091018800800478000000eb0047
:1002b0001a003700e284440032a0b4009905ba0065
:1002c000e284440032a0b4009906ba00e2844400fb
:1002d00032a0b4000006eb00476fde00fd07b2005d
:1002e000636ce10003003a00ebff07000000eb0045
:1002f0000a003700606ce10004003a00005deb008a
:100300008b05e900fdff3e00040037006168e10055
:10031000010032000086eb000b00070019c7ba008d
:100320001905ba000e04e00003003a000a00e000dc
:10033000e0ff3a0000000600fe07b2009e018800c0
:100340008a047800f5ff3700395dba008b05e900b3
:100350000c003200295dba008b05e900080032006c
:100360000c00e00003003a00e284440032a0b40034
:10037000f5ff370019ddba008b05e900faff3a00f6
:100380008904e800e184440032a0b40000000600c3
:100390000000fa00cac2a8008400a9000080fa0088
:1003a000004006003600f800809fbe00829fbe001d
:1003b000849fbe00869fbe000000fa00cac2a8004b
:1003c00081c9bf00e74f500050003c0098c9bf00f2
:1003d000684060000004e000390032000014800032
:1003e0008000eb00ba1807000002be00204b80001e
:1003f000314b80000001be000400be00d217070090
:10040000204b8800314b8800101480008000eb00e6
:10041000af1807000002be00404b8000514b800027
:100420000001be000400be00c7170700404b880053
:10043000514b8800201480008000eb00a4180700b6
:100440000002be00604b8000714b80000001be00c6
:100450000400be00bc170700604b8800714b880089
:10046000301480008000eb00991807000002be00e5
:10047000804b8000914b80000001be000400be0054
:10048000b1170700804b8800914b88004014800012
:100490008000eb008e1807000002be00a04b800019
:1004a000b14b80000001be000400be00a61707008b
:1004b000a04b8800b14b8800dc1207000f0037000a
:1004c0006000b800204b8800314b88006000b80005
:1004d000404b8800514b88006000b800604b88009a
:1004e000714b88006000b800804b8800914b8800f9
:1004f0006000b800a04b8800b14b880081c9bf00e4
:100500000040e80081e9b70021003700ea03070056
:1005100098c9bf00684060000004e000010032009c
:10052000ce040700a0498000b1498000c04988007e
:10053000d14988008169ef0098c9bf006840600018
:100540000004e0000500320098c9bf000042b2007c
:100550000004e00001003a00c1130700670407002f
:1005600094c9bf00684060000004e00007003a0042
:1005700098c9bf00684060000004e000030032003a
:10058000a1e2a9009869a900010037009869a800b4
:100590008560a9000080fa004f03be004f02be0034
:1005a0004f01be004f00be003600f90000400600bb
:1005b0003600f800809fbe00829fbe00849fbe0070
:1005c000869fbe00889fbe008a1f78000200fa0046
:1005d000cac2a800a1e2a8000ec2bf00624060002b
:1005e0000004e0000a003200d002200009130700d6
:1005f0000200370090108000004f78000ec2bf004c
:10060000614060000004e000faff3a000e22a900f9
:1006100018c2bf00624060000004e0000a0032001f
:10062000e0022000fb12070002003700e01080000b
:100630001047980018c2bf00614060000004e0004d
:10064000faff3a001822a9003f12070025110700ff
:10065000ab14070094c9bf00684060000004e000cc
:1006600006003200f04380000040780085e9b700c2
:10067000b0c3b300d4eab70011003700d4cabf003a
:100680000004e0000b003c00b0c3b300d4eab700a4
:1006900085c9bf000004e00002003c009829a800c2
:1006a0000700370085c9bf000040e90085e9b700b1
:1006b00003003700d4cabf000040e900d4eab70005
:1006c000a05480000000e0000e0034009041800043
:1006d000a1418000e24a8000f34a800018c0b300c4
:1006e000ba1707000000e00001003c000044eb00e6
:1006f0000804e00003003200a05480000000e9007c
:10070000a0548800dbc2bf00614060000004e0002c
:1007100003003a00ca82a9008e29ef00cc2aef001c
:1007200094c9bf00684060000004e0002900320066
:100730008449800095498000704380008143800097
:1007400018c0b3000001be000400be009f170700e0
:100750000000e00001003c000044eb000804e00061
:100760001a003a00a4498000b54980005043800037
:100770006143800018c0b3000001be000400be0049
:10078000921707000000e00001003c000044eb006d
:100790000804e0000d003a00c4498000d5498000fb
:1007a000504380006143800018c0b3000001be00c8
:1007b0000400be00851707000000e00001003c00b7
:1007c0000044eb000804e00002003200e202a8004e
:1007d0003500370094c9bf00684060000004e000a5
:1007e00030003200884980009949800070438000c1
:1007f0008143800002002000030a2400d116070074
:100800001ac0b3000001be000800be006d1707004b
:100810000000e000010035000045eb000a04e000a4
:1008200021003200a8498000b9498000504380006f
:100830006143800002002000030a2400c116070063
:100840001ac0b3000001be000800be005d1707001b
:100850000000e000010035000045eb000a04e00064
:1008600011003200c8498000d949800050438000ff
:100870006143800002002000030a2400b116070033
:100880001ac0b3000001be000800be004d170700eb
:100890000000e000010035000045eb000a04e00024
:1008a00001003200e202a90094c9bf00704060005c
:1008b0000004e00003003a0010002000b05488005b
:1008c00098a9a90094c9bf00704060000004e0002e
:1008d0000d00320094c9bf00614060000004e000d8
:1008e000030032009409a900caa2a900070037003a
:1008f0009409a800004880000000e00003003200d6
:10090000caa2a80001003700caa2a900204780009f
:1009100031478000bc030700e0468800f1468800ac
:10092000a04a8000b14a800018c0b3000200200035
:10093000632c2400251707000000e00001003c00a4
:100940000044eb000804e0000d003200d3cabf00f1
:10095000e44f50000a003200c0468000d1468000bb
:10096000404788005147880040c0b300d3eab70031
:100970006000b800204788003147880042003700f7
:10098000a04a8000b14a800018c0b30002002000d5
:10099000632a24000b1707000000e0000100350067
:1009a0000044eb000804e0001e003200a04a800072
:1009b000b14a800018c0b30002002000232a24009e
:1009c000021707000000e00001003c000044eb00bb
:1009d0000804e00013003200d3cabf00e44f500007
:1009e00003003200d3cabf000004e0000d003a004b
:1009f000e0468000f1468000c0468800d14688006d
:100a0000c0468000d14680000001be004e1607009f
:100a1000c0468800d146880020c0b300d3eab700a2
:100a200019003700a04a8000b14a800018c0b30006
:100a30000200200003f82300e21607000000e00097
:100a4000010035000044eb000804e0000e00320015
:100a5000d3cabf000004e0000b003200e046800073
:100a6000f1468000c0468800d14688006000b8008a
:100a70004047880051478800d36aef006000b80003
:100a80002047880031478800404780005147800058
:100a900018c0b3006011b800ca1607000000e000db
:100aa000010035000044eb000804e00003003200c0
:100ab0006000b800404788005147880044478000e4
:100ac00055478000c0468000d146800018c0b30062
:100ad0000001be000400be00bc1607000000e000dc
:100ae00001003c000044eb000804e0000400320078
:100af000c0468000d14680004047880051478800aa
:100b0000819920009140780000c8b30000c06000c7
:100b10000004e0002d003200484780005947800063
:100b2000c4468000d546800070408000814080002f
:100b30000001be000400be003a1707001ac0b3004f
:100b40000001be000800be00a01607000000e00083
:100b500001003c000045eb000a04e0001b003200ed
:100b60002849800039498000b4408000c540800099
:100b700070408000814080000001be000400be0083
:100b8000281707001ac0b3000001be000800be000d
:100b90008c1607000000e000010034000045eb0067
:100ba0000a04e00009003200c4468000d5468000f7
:100bb00070408000814080000001be000400be0043
:100bc00018170700404788005147880094c9bf00a4
:100bd000684060000004e0000c003a0048478000d4
:100be00059478000d0438000e143800032842900cf
:100bf000139923000b1707000001be000800be0078
:100c0000d0150700404788005147880044478000be
:100c100055478000c0468000d14680000001be00dc
:100c20000400be002516070002002000832c2400cb
:100c3000fc16070080488800914888003b10070098
:100c40008460a9000080fa004f0578004f04be00c0
:100c50004f03be004f02be004f01be004f00be005a
:100c60003600f900004006003600f800809fbe0004
:100c7000829fbe00849fbe00869fbe00889fbe00ec
:100c80000400fa00cac2a800044a8000154a800085
:100c900020498000314980000001be000400be00f0
:100ca000e01607004049880051498800d2cabf00b9
:100cb0000004e00006003400d2cabf00e34f500039
:100cc00003003200d2cabf000040e900d2eab700f8
:100cd000d1cabf000004e00006003400d1cabf0042
:100ce000e34f500003003200d1cabf000040e900ca
:100cf000d1eab700d0cabf000004e000060034000b
:100d0000d0cabf00e34f500003003200d0cabf007a
:100d10000040e900d0eab70080c9bf00e74f5000ab
:100d20001f003400c04b8000d14b80000200200027
:100d300003102400e1150700c04b8800d14b880048
:100d4000c04b8000d14b8000004a8800114a8800c7
:100d5000e04b8000f14b80000200200003102400d3
:100d6000d6150700e04b8800f14b8800e04b80006f
:100d7000f14b800020498800314988006000b800ac
:100d8000e04b8800f14b88006000b800c04b880041
:100d9000d14b88008069ef00030307001100370082
:100da0006049800071498000c24b8000d34b8000b5
:100db00065150700c04b8800d14b8800a048800013
:100dc000b1488000e24b8000f34b80005e150700c5
:100dd000e04b8800f14b880080c9bf000040e8006c
:100de00080e9b700044a8000154a8000204980004d
:100df000314980000001be000400be0089160700d2
:100e000081020700008fbe00e0488000f1488000aa
:100e100018c0b3001e01be00ea1507000000e00084
:100e2000010035000044eb000804e0000b00320034
:100e30001e01be00e2488800f34888002049800077
:100e4000314980000049880011498800004a80002b
:100e5000114a8000e0498800f1498800604980001b
:100e6000714980006802070018c0b300f226210013
:100e700033b02300d51507000000e00001003c005e
:100e80000044eb000804e00018003200284780000e
:100e900039478000604980007149800012052a00ae
:100ea000138123005f1607000001be000800be008a
:100eb00025150700204788003147880048478000f3
:100ec00059478000604980007149800012052a005e
:100ed00013812300531607000001be000800be0066
:100ee00019150700404788005147880084c0a900b1
:100ef0000080fa004f04be004f03be004f02be0048
:100f00004f01be004f00be003600f9000040060051
:100f10003600f800809fbe00829fbe00849fbe0006
:100f2000869fbe00889fbe000000fa00cac2a800cb
:100f3000500880008000eb00e5150700004b88009a
:100f4000114b88000a21ef0094c9bf006240600085
:100f50000004e0000f003200b8438000c943800065
:100f6000004b8000114b800002f02f00f37724002b
:100f7000521507000001be000800be004f15070013
:100f8000020020001356240026160700604888003f
:100f9000714888009429a8008600a9000080fa0002
:100fa0004f04be004f03be004f02be004f01be0003
:100fb0004f00be003600f90000400600809fbe00d2
:100fc0000000fa00cac2a8006000b80060488800ab
:100fd000714888009429a90084e0a9000080fa00e3
:100fe0004f00be00004006003600f800809fbe00a3
:100ff000829fbe00849fbe00869fbe000000fa0054
:10100000cac2a800bd0d07000000e00009003200c0
:101010006f0c070080548000e40f50000200340081
:10102000b80f070003003700805480000000e8007c
:10103000805488007154800080702000808f5000a0
:1010400003003a00c90d07008e2aef0003003700a5
:10105000705480000000e8007054880086a0a90049
:101060000080fa004f03be004f02be004f01be00d9
:101070004f00be003600f900004006003600f800c0
:10108000809fbe00829fbe00849fbe00869fbe00e0
:101090000000fa00cac2a80010002000d208070011
:1010a00086c0a9000080fa004f03be004f02be00b8
:1010b0004f01be004f00be003600f90000400600a0
:1010c0003600f800809fbe00829fbe00849fbe0055
:1010d000869fbe000000fa00cac2a8000000eb0014
:1010e000f20907008520a9000080fa004f03be0026
:1010f0004f02be004f01be004f00be003600f90097
:10110000004006003600f800809fbe00829fbe00af
:10111000849fbe00869fbe000000fa00cac2a800dd
:1011200010002000e10907008700a9000080fa00f4
:101130004f03be004f02be004f01be004f00be0075
:101140003600f900004006003600f800809fbe001f
:10115000829fbe00849fbe00869fbe000000fa00f2
:10116000cac2a80009003700114d8000409c200031
:1011700000804000104078000000fb0080108800d4
:10118000104d80000000e800104d88000fc2bf0025
:10119000624060000004e00009003a00114d800048
:1011a000409c200000804000104078000004e000d7
:1011b0000300320040cabf000004e000eaff3a002a
:1011c0000000eb001b0207008540a9000080fa0028
:1011d0004f03be004f02be004f01be004f00be00d5
:1011e0003600f900004006003600f800809fbe007f
:1011f000829fbe00849fbe00869fbe000000fa0052
:10120000cac2a8000b003700204d8000c103200097
:1012100080804000409c200000804000104078000a
:101220000000fb00d0108800204d80000000e80086
:10123000204d880019c2bf00624060000004e00039
:101240000b003a00204d8000c10320008080400048
:10125000409c200000804000104078000004e00026
:101260000300320041cabf000004e000e6ff3a007c
:1012700010002000ef0107008720a9000080fa007d
:101280004f03be004f02be004f01be004f00be0024
:101290003600f900004006003600f800809fbe00ce
:1012a000829fbe00849fbe00869fbe000000fa00a1
:1012b000cac2a8001111070098a9a800c000200008
:1012c000d40f0700120c07008960a9000080fa0003
:1012d0004f03be004f02be004f01be004f00be00d4
:1012e0003600f900004006003600f800809fbe007e
:1012f000829fbe00849fbe00869fbe000000fa0051
:1013000042c7bf000042b2000004e00006003a00fd
:1013100098c9bf000044b2000004e00002003a0097
:1013200020012000bb0f0700cac2a800f31007006d
:1013300098a9a80098c9bf000044b2000004e000ca
:1013400002003200d0002000b20f070098c9a800a8
:10135000ef0b07008020a9000080fa004f03be00b9
:101360004f02be004f01be004f00be003600f90024
:10137000004006003600f800809fbe00829fbe003d
:10138000849fbe00869fbe000000fa00cac2a8006b
:10139000da10070098a9a800e00020009d0f0700c0
:1013a000db0b07008060a9000080fa004f03be003d
:1013b0004f02be004f01be004f00be003600f900d4
:1013c000004006003600f800809fbe00829fbe00ed
:1013d000849fbe00869fbe000000fa00cac2a8001b
:1013e000f0bf200000018800c410070098a9a800e1
:1013f000f0002000870f0700c50b07008040a90000
:101400000080fa004f03be004f02be004f01be0035
:101410004f00be003600f900004006003600f8001c
:10142000809fbe00829fbe00849fbe00869fbe003c
:101430000000fa00cac2a800b010070098a9a800ce
:1014400000012000730f0700b10b07008080a90086
:101450000080fa004f03be004f02be004f01be00e5
:101460004f00be003600f900004006003600f800cc
:10147000809fbe00829fbe00849fbe00869fbe00ec
:101480000000fa00cac2a8009c10070098a9a80092
:10149000100120005f0f07009d0b07000080fa007d
:1014a0004f03be004f02be004f01be004f00be0002
:1014b0003600f900004006000000fa00404b8000b2
:1014c000514b80000200200003102400fb13070092
:1014d000404b8800514b8800404b8000514b8000ae
:1014e000020020000370240096130700404b880080
:1014f000514b8800404b8000514b8000020020007f
:1015000003702400ed130700404b8800514b880006
:10151000404b8000514b8000020020000302240059
:10152000c0140700404b8800514b8800404b80009e
:10153000514b8000a2702d0033d22300df1307002f
:101540000002be00c04a8000d14a80000001be00f7
:101550000400be007c1307006049880071498800c0
:101560001d1007006000b800404b8800514b8800f8
:10157000204b8000314b800002c02c00c37c240033
:10158000ce130700204b8800314b8800244b80008d
:10159000354b8000604a8000714a80000001be0027
:1015a0000400be00c51307000002be0050408000ca
:1015b000614080000001be000400be00621307000d
:1015c000a0488800b14888006000b800204b88001f
:1015d000314b8800604b8000714b800002c02c00b2
:1015e000c37c2400b5130700604b8800714b880052
:1015f000604b8000714b8000f2282c0053ef2300d9
:1016000050130700604b8800714b8800604b8000ce
:10161000714b800042722900f3c72300a713070013
:1016200080498800914988006000b800604b8800bc
:10163000714b8800804b8000914b800002c02c00d1
:10164000c37c24009d130700804b8800914b8800c9
:10165000804b8000914b8000f2282c0053ef230038
:1016600038130700804b8800914b8800804b800026
:10167000914b800042722900f3c723008f130700ab
:10168000c0498800d14988006000b800804b8800bc
:10169000914b8800a04b8000b14b800002c02c0011
:1016a000c37c240085130700a04b8800b14b880041
:1016b000a04b8000b14b8000f2282c0053ef230098
:1016c00020130700a04b8800b14b8800a04b80007e
:1016d000b14b800042722900f3c723007713070043
:1016e000a0498800b14988006000b800a04b88007c
:1016f000b14b88000080fa00000006000000fa00ec
:1017000098c9bf00684060000004e000300032006b
:1017100098c9bf00624060000004e0002c003a005d
:1017200098c9bf000042b2000004e00028003a005f
:1017300004c9bf00e54f500001003200d90e070078
:1017400004c9bf00e24f500003003c0004c9bf00c1
:101750000004e00018003a0094c9bf00684060002f
:101760000004e000140032008ac9bf00e34f5000bb
:1017700011003a00c2100700c411070098c9bf0049
:101780000042b2000004e00002003200db0f07005c
:1017900007003700c841a800804c8000b00e8800c8
:1017a000704c8000c00e8800604c8000d00e880015
:1017b000000000000900370094c9bf0068406000c5
:1017c0000004e00004003a00cc0f070003003700db
:1017d000ca0f070001003700000000000080fa0077
:1017e000000006000000fa00a04a8000b14a800014
:1017f0000047880011478800c50a0700d642a900a3
:101800000080fa00000006000400fa00881f78003b
:10181000008fbe0018c0b3006011b8001e00be00eb
:10182000681307000000e000010035000044eb00f1
:101830000804e000050032001e00be0001f0a20016
:10184000008fbe001e00be00010037001e00be005b
:101850004f0478000080fa00000006000000fa0043
:10186000889fbe008a1f780060498000714980000f
:10187000e5ff070018c0b300a2702d0033da230083
:10188000501307000000e000010035000044eb00a9
:101890000804e0002500320094c9bf000044b200f3
:1018a0000004e00021003a0098c9bf0068406000d1
:1018b0000004e0001d003200a0488000b148800014
:1018c000204a8800314a8800244a8000354a800036
:1018d000d0408000e14080000001be000400be0056
:1018e000981207000004be00b4408000c54080008c
:1018f000d0408000e14080000001be000400be0036
:10190000901207000001be000800be00eb120700a5
:1019100002002000832c2400c2130700a04a880084
:10192000b14a88009549a8001b003700a8488000ec
:10193000b9488000d0408000e1408000d2cc2c002b
:10194000c3d42300801207001ac0b3000001be00f8
:101950000800be001b1307000000e0000100340077
:101960000045eb000a04e0000b0032006000b80004
:10197000a04a8800b14a8800d0408000e140800041
:10198000d2cc2c00c3d423006f120700204a880059
:10199000314a88009549a8004f0578004f04be00e1
:1019a0000080fa00000006000400fa00004a8000ef
:1019b000114a800001f0a200008fbe0082c9bf0062
:1019c000e44f50000f003a00d0438000e143800014
:1019d0000001be001e00be005a120700c04a880067
:1019e000d14a880050c0b30082e9b70004c9bf00e3
:1019f000e54f50000200320010c0b30004e9b70008
:101a00009449a90082c9bf00e14f500007003a0085
:101a10006000b800c04a8800d14a8800370f07002c
:101a200040c0b30082e9b7009449a8000080fa00e2
:101a3000000006000200fa00000f78001e00780087
:101a400080004000209a20000080400010017800b3
:101a50009e007800c00320000088b90000007800d4
:101a600082004000409c2000008040001040780030
:101a70000004e0000a003a001e00780080004000e8
:101a8000209a2000008040008000eb0001087800d0
:101a900000a420001e0040008040eb0001487800b8
:101aa0000080fa00000006000600fa0020079800f7
:101ab0000040eb00004f78000000eb00100798009a
:101ac0002e0090006f006000100798001e0090002c
:101ad000e90f500005003c001e0090000040780017
:101ae0000043b000004f7800040037001e00900053
:101af000004078007043b000004f78001e4078002e
:101b00000080fa00000006000200fa00000f7800d2
:101b10001e007800e10f500009003400a0012000f1
:101b2000bc0d07001e00780080004000a09a200035
:101b3000008040008000eb00010878000f003700b3
:101b400000a420001e004000104078000004e000c7
:101b5000090032001e0078000000e000030032009f
:101b600080022000ab0d0700040037007002200047
:101b7000a80d070001003700000000000080fa00f7
:101b8000000006000600fa00881f78001007980081
:101b9000210798002e009000dbff07009e009000b8
:101ba00000002f00008060004c00de0080407800c4
:101bb0002e0090004201dd00e09a2000000041006c
:101bc000014878009e00900000f0200080806000b6
:101bd0000010200000017800110009008200d800e8
:101be000804078002e0090004201dd00f09a200035
:101bf00000004100014878009e009000000f200086
:101c000080806000000120000001780011000900c0
:101c10008200d800804078002e0090004201dd0054
:101c2000009b200000004100014878001e00900049
:101c300000407800ef4060002e0090004201dd007f
:101c4000109b20000000410001487800ae00900089
:101c500020a420000080400011c0b300014878009b
:101c60002e00900080004000209a2000008040005c
:101c700010017800ae009000c00320000088b90079
:101c80000000780082004000409c2000008040005e
:101c900001c3b300014878002e009000800040008e
:101ca000209a20000080400090007800a0032000cf
:101cb000808f50000b003e002e00900080004000fe
:101cc000209a200000804000100078008000e8008a
:101cd0002e00900000014000209a200000004100ea
:101ce000010878002e00900080004000209a20001b
:101cf0000080400010017800ae009000c00320007a
:101d00000088b9000000780082004000409c20005c
:101d10000080400081c7b300014878002e00900089
:101d200080004000209a2000008040009000780051
:101d3000a0032000808f50000b003e002e0090007a
:101d400080004000209a20000080400010007800b1
:101d50008000e8002e00900000014000209a200042
:101d600000004100010878000000eb00000f78003f
:101d70002a0037002e00900080004000209a2000aa
:101d800000804000100478002e0090004200dd002a
:101d90009e004000e09a2000008040001040780043
:101da0000000fb0040ff070000417800ae009000fb
:101db000c00320000088b9000000780088004000bf
:101dc000409c200000804000024878002e009000d7
:101dd00080004000209a20000080400090007800a1
:101de000a0032000808f50000b003e002e009000ca
:101df00080004000209a2000008040001000780001
:101e00008000e8002e00900000014000209a200091
:101e100000004100010878001e0fe8001e00780055
:101e2000e30f5000d3ff3400ae00900020a4200048
:101e3000008040008040eb00014878004f047800ab
:101e40000080fa00000006000200fa00000f78008f
:101e500000a420001e004000104078000004e000b4
:101e60001f003a0000a420001e00400011c0b30073
:101e7000014878001e00780080004000209a200071
:101e800000804000100178009e007800c003200010
:101e90000088b9000000780082004000409c2000cb
:101ea000008040008040eb00014878001e00780070
:101eb00080004000209a2000008040008000eb005d
:101ec000010878001e0078000000e00002003200e7
:101ed0008720a800030037008540a80001003700d4
:101ee000000000000080fa00000006000400fa0074
:101ef000000f7800110798001e00900002ff0700f5
:101f00009e00900020a420000080400011c0b3007b
:101f1000014878001e00900080004000609a200078
:101f2000008040008000eb0001087800320037009c
:101f30001e00900080004000209a20000080400099
:101f4000900178001e00900080004000609a200000
:101f500000804000100078001e0040001041780012
:101f60009e009000c00320000088b90000007800a7
:101f700083004000409c2000008040000248780020
:101f80001e00900080004000209a20000080400049
:101f900090007800a0032000808f50000b003e00ce
:101fa0001e00900080004000209a20000080400029
:101fb000100078008000e8001e0090000001400042
:101fc000209a200000004100010878001e009000c7
:101fd00080004000609a20000080400010007800df
:101fe0008000e8001e00900000014000609a200080
:101ff00000004100010878001e00900080004000b1
:10200000609a200000804000100078001e00400010
:10201000104078000004e000c5ff3a009e009000e8
:1020200020a42000008040008040eb0001487800a0
:102030000080fa00000006000200fa00000f78009d
:102040001e00780080004000209a200000804000a0
:10205000900178001e00780080004000a09a2000c7
:1020600000804000100178001e0078006700b90071
:102070000000780082004000609b2000008040004b
:10208000104178009e007800c00320000088b9004d
:102090000000780083004000409c20000080400049
:1020a000024878001e00780080004000209a20003e
:1020b0000080400090007800a0032000808f500036
:1020c0000b003e001e00780080004000209a200097
:1020d00000804000100078008000e8001e007800ba
:1020e00000014000209a2000000041000108780013
:1020f0000080fa00000006000800fa00889fbe0079
:102100001007980021079800320798003e009000c1
:1021100080004000a09a2000008040008000eb007a
:1021200001087800a19920003e0090004200dd00e7
:10213000008140006000b8000089be00be00900031
:10214000e0a32000008040008040eb0001487800c0
:102150000000eb00000f78003e0090006700b9001f
:1021600080007800609b20000080400001c2b30026
:102170000148780018c0b3006011b8001e0090003c
:10218000ae0090000f1107000000e00001003500d4
:102190000044eb000804e0000e0032001e00900036
:1021a000ae00900001f0a2001007980021079800ef
:1021b0003e0090006700b90080007800609b20001e
:1021c00000804000d1c2b300014878001000200018
:1021d000000f780018c0b300f2ff2300c361240091
:1021e0001e009000ae009000f81007000000e00014
:1021f00001003c000044eb000804e0000d00320048
:10220000f0ff2300c1612400100798002107980007
:102210003e0090006700b90080007800609b2000bd
:1022200000804000f1c3b300014878001000200096
:10223000000f780002002000a34724001e00900039
:10224000ae0090009d100700a39920003e01900071
:102250004211dd00028141000089be003e00900075
:1022600080004000a09a200000804000100078000c
:102270008000e8003e00900000014000a09a20008d
:102280000000410001087800580037003e0090002f
:1022900080004000a09a20000080400010007800dc
:1022a000e50f500012003a003e0090006700b900b0
:1022b00080007800b09b200000804000e1c2b300a5
:1022c000014878003e00900080004000a09a200065
:1022d00000804000100078008000e8003e00900080
:1022e00000014000a09a2000000041000108780091
:1022f000a19920003e0090004200dd0000804000d7
:102300001000be00b3100700804078003e0190002e
:10231000e0a3200000004100014878003e0090004a
:1023200080004000a09a20000080400090017800ca
:10233000be009000e0a32000008040001040780024
:102340000043b000004178003e0090006700b900f3
:102350000000780083004000609b20000080400067
:10236000024878003e00900080004000a09a2000c3
:1023700000804000100078008000e8003e009000df
:1023800000014000a09a20000000410001087800f0
:10239000a19920003e0090004200dd000080400036
:1023a0001004be00be009000e0a3200000804000aa
:1023b000104078000000fb00cf80de00c110070055
:1023c0000001be000800be00de0f07000200200072
:1023d0000312240013110700a39920003e0190006e
:1023e0004211dd00028141000089be003e009000e4
:1023f00080004000a09a200000804000100078007b
:10240000e80f5000a1ff36003e0090008000400021
:10241000a09a2000008040008000eb0001087800b6
:102420003e009000b8fd0700be00900020a42000f0
:102430000080400011c0b3000148780095003700cb
:102440003e00900080004000a09a200000804000e4
:10245000100078008000e8003e009000000140007d
:10246000a09a200000004100010878000100370018
:10247000000000003e00900080004000a09a200074
:1024800000804000100178003e0090006700b90015
:102490000000780082004000609b20000080400027
:1024a0009040780000c3b30080cf50000d003a0088
:1024b000be009000c0a320000080400010407800c3
:1024c0000004e00007003a003e0090008000400059
:1024d000a09a20000080400010007800e20f500019
:1024e000d7ff3600be00900040a4200000804000ce
:1024f000104078000004e000270032003e00900009
:1025000080004000a09a2000008040001001780068
:102510003e0090006700b900000078008200400093
:10252000609b200000804000104078000000fb000d
:1025300001022000810f500005003200d10220006e
:10254000810f50000e003a003e009000bafe0700d6
:102550003e00900080004000a09a200000804000d3
:10256000100078008000e8003e009000000140006c
:10257000a09a20000000410001087800000000003f
:10258000be00900040a42000008040008040eb008e
:10259000014878000d0037003e009000a6fe0700bd
:1025a0003e00900080004000a09a20000080400083
:1025b000100078008000e8003e009000000140001c
:1025c000a09a200000004100010878003e00900021
:1025d00080004000a09a2000008040001001780098
:1025e0003e0090006700b9000000780082004000c3
:1025f000609b2000008040009040780000c3b30042
:1026000080cf5000230032003e0090008000400048
:10261000a09a200000804000100178003e00900049
:102620006700b9000000780082004000609b200035
:102630000080400090407800d0c2b30080cf5000ae
:10264000140032003e00900080004000a09a20005c
:1026500000804000100178003e0090006700b90043
:102660000000780082004000609b20000080400055
:102670009040780000c2b30080cf500005003200c7
:10268000be009000c0a32000008040008040eb000e
:10269000014878003e00900080004000a09a200091
:1026a0000080400010007800e80f500070ff3600f6
:1026b000be009000c0a32000008040008040eb00de
:1026c00001487800be00900020a420000080400057
:1026d0008040eb00014878004f04be000080fa0003
:1026e000000006001200fa005007980061079800e9
:1026f00072079800030f98000240220043972400bd
:102700007e0090008e08900046100700008fbe00eb
:102710005e019000ee0190001e00be00670f0700f2
:102720000200200003182400640f070002002000ac
:1027300003f82300030f07002007980031079800d3
:102740002e009000be009000c30f070040079800c5
:102750004e0090000080fa00000006000000fa0021
:1027600000002000813424001040880021408800af
:1027700000002000011824003040880041408800fb
:10278000d0cc2c00c1dc2b00504088006140880078
:102790006066260061f62300704088008140880052
:1027a000d0cc2c00c126240090408800a140880095
:1027b00030332300b1262400b0408800c140880097
:1027c00000002000e1232400d0408800e140880080
:1027d00000002000c1222400f04088000141880050
:1027e00000002000010024001041880021418800e1
:1027f00000002000010a2400304188004141880087
:102800000000200001f02300504188006141880051
:1028100030332300b11b24007041880081418800bf
:1028200000002000011f240090418800a141880081
:1028300000002000811c2400b0418800c1418800b4
:102840000000200001122400d0418800e1418800ee
:102850000000200001172400f04188000142880098
:10286000000020000122240010428800214288003c
:1028700000002000c120240030428800414288002e
:1028800000002000811c2400504288006142880022
:102890006000b8007042880081428800000020007b
:1028a0000112240090428800a1428800000020000c
:1028b000c1252400b0428800c142880000002000e9
:1028c00081242400d0428800e142880000002000da
:1028d00001172400f0428800014388000000200016
:1028e00001272400104388002143880000002000b5
:1028f000012a240030438800414388000000200062
:102900008124240050438800614388000000200097
:10291000011f2400704388008143880000002000cc
:102920008124240090438800a143880060ba2900d4
:1029300041c42300b0438800c1438800200426001e
:1029400051c62300d0438800e1438800800720005f
:10295000f043880020c1b30084e8b700e0c0b300b2
:1029600085e8b70060c1b30086e8b7008768ef006c
:10297000c0cfb300b4e8b70030c0b300b5e8b700cb
:1029800080c0b300b6e8b700a0c0b300b7e8b70096
:1029900000c1b300b8e8b70020c0b300b9e8b70081
:1029a000f0c0b300bae8b70040c0b300bbe8b7005e
:1029b000bc68ef00d068ef0040c0b300d1e8b700ba
:1029c000d268ef00d368ef008268ef0010c0b30058
:1029d00083e8b70050332300a046880060c4b300ea
:1029e00005e9b700310707000080fa000000060083
:1029f0000000fa009849a9006000b800e04888008b
:102a0000f14888006000b80000498800114988003a
:102a10006000b800e0498800f14988006000b80013
:102a200080498800914988006000b800a04988006a
:102a3000b14988006000b800c0498800d1498800c9
:102a40006000b800a0488800b14888006000b80065
:102a5000a04a8800b14a88006000b8006049880038
:102a600071498800317420009140780080cfb30014
:102a700000c060000004a00043e7b7004207a800c0
:102a80004227a900c020ef00c220ef00c420ef00c1
:102a9000c620ef00cc22ef00d022ef00ce22ef00c4
:102aa000f0fe2f00c0168800dc22ef00da22ef00d3
:102ab000e0fb2f00f0168800e222ef00e022ef009a
:102ac00060002000000e8800c221ef0010032000eb
:102ad000200e8800c621ef00b00f2000400e8800b5
:102ae000ca21ef0010182800600e8800d021ef00e6
:102af00000f02f00a00e8800d621ef00d821ef00b3
:102b0000da21ef000e22ef000fe2a9000c22ef0005
:102b10000d42a800a2702d00b31624000000200072
:102b200061612400effe0700a01088001822ef006a
:102b300019e2a9001622ef00a2702d00b31624009e
:102b40000000200061612400e6fe0700f01088000c
:102b5000a00e2e00100888000021ef000421ef00d5
:102b6000411020009140780000c3b30000c0700005
:102b700004e1b700a0832300600888000621ef006d
:102b80001021ef000111200091407800f0ccb3003b
:102b900000c060000054a00010e1b700a00e2e009d
:102ba000700888000a21ef001221ef002111200097
:102bb0009140780000c3b30000c0700012e1b7007c
:102bc000a00e2e00d00888001421ef001e21ef0077
:102bd000e11120009140780000c3b30000c07000f4
:102be0001ee1b700a0832300e00888001821ef0051
:102bf0002021ef000112200091407800f0ccb300ba
:102c000000c060000054a00020e1b700f0002000e8
:102c1000804a8800f0002000904a8800814a8000a5
:102c2000904a800000804000cf80de00a50e0700a3
:102c30000001be0000a22e0001b624001f0e0700f6
:102c400002002000432324001c0e07000001be00e8
:102c50000000200001f82300180e0700205588000e
:102c600031558800402e20000015880000412000ca
:102c700010158800f0f0200020158800a622ef0033
:102c800000f72f0040158800f0082000501588003c
:102c9000910920009140780000c7b30000c0700087
:102ca00099e0b700710920009140780080cfb3000f
:102cb00000c060006040b30097e0b700c109200089
:102cc0009140780080cfb30000c060005040b30056
:102cd0009ce0b7005109200091407800f0c8b30093
:102ce00000c060000064a00095e0b700f10920007a
:102cf0009140780080cfb30000c060000024a000a5
:102d00009fe0b700910920009140780080cfb30088
:102d100000c060003040b30099e0b700010a200015
:102d200091407800f0c8b30080c0600000c3b300d9
:102d300000c07000a0e0b700810920009140780039
:102d4000f0c8b30000c060000054a00098e0b700d5
:102d5000010a20009140780080cfb30000c06000dd
:102d60000014a000a0e0b700710920009140780095
:102d7000f0c8b30000c060000054a00097e0b700a6
:102d8000410920009140780080cfb30000c060006e
:102d90000004a00094e0b700e10920009140780011
:102da000f0c8b30000c060000044a0009ee0b7007f
:102db000f109200091407800f0c8b30000c0600025
:102dc0000044a0009fe0b7000080fa000000060069
:102dd0000000fa00889fbe0000bf200000018800ac
:102de0003840800049408000144080002540800029
:102df00030408000414080000001be000400be0061
:102e0000510d07000001be000800be00ab0d070019
:102e1000604a8800714a88009889a8009809a9002a
:102e200054418000654180007041800081418000f4
:102e30000001be000400be007a0e070000568800a4
:102e400011568800eafe070081e0a9008420ef0007
:102e50008620ef008820ef00ff3ffc008c20ef0071
:102e60008e20ef009020ef008c60a8008d20a8003d
:102e70008d40a8008f00a8008f20a8008c00a8001b
:102e80009529a8008e00a8008ee0a9008cc0a8009b
:102e90008ce0a8008ea0a8008ec0a8008d60a800bd
:102ea0008200a9008240a9005220ef00a1e2a80000
:102eb000c1e1a80011e1a80005e1a80013e1a80004
:102ec0001fe1a80021e1a8000de2a8000f42a80020
:102ed00017e2a8001942a8004f04be000080fa00c3
:102ee000000006000000fa00c1fe0700ff3ffc00e2
:102ef0008420ef008620ef008820ef008c20ef0078
:102f00008e20ef009020ef008d20a8008d40a800bb
:102f10008f00a8008f20a8005220ef00a1e2a90096
:102f2000c1e1a90011e1a90005e1a90013e1a9008f
:102f30001fe1a90021e1a9000de2a8000f42a800ad
:102f400017e2a8001942a8000080fa00000006005d
:102f50000000fa00e9090700a1e2a90011e1a900b7
:102f600013e1a9001fe1a90021e1a9008e00a90039
:102f70008cc0a9008ce0a9008ea0a9008ec0a90079
:102f80008220a9008240a9000070200070548800af
:102f90009889a9009809a8000080fa00000006009e
:102fa0000000fa0094a9a9009449a900c1e1a90070
:102fb00005e1a9008420ef008620ef008820ef00c3
:102fc000ff3ffc008c60a9008d60a9008220a90051
:102fd0008240a900deff07009829a8000080fa00bf
:102fe000000006000400fa00000f780011079800a6
:102ff0001e0090008000400040a72000008040009c
:103000008000eb00010878001e0090008000400066
:10301000c0a62000008040008000eb00010878007e
:10302000dd0037001e00900080004000c0a6200098
:1030300000804000100178001e0078006600b90092
:10304000800178001e0090007800b9000000780030
:103050000080410002004000c10920008080400043
:103060000080200000804000104078008000fb00bd
:103070001e0090000001400000a720000000410059
:10308000010878001e0090008000400000a720008a
:103090000080400090007800f00f200080806000e9
:1030a0001e0090000001400000a720000000410029
:1030b000010878001e0090008000400000a720005a
:1030c0000080400010007800e70f500005003e002f
:1030d0009e00900040a420000080400011c0b3007a
:1030e000014878001e0090008000400000a72000ea
:1030f0000080400010007800e80f500005003a0002
:103100009e009000c0a320000080400011c0b300ca
:10311000014878001e0090008000400000a72000b9
:1031200000804000100078000000e000a2003200a3
:103130001e0090008000400000a72000008040009a
:1031400090007800b00f2000808f50002d003600d6
:103150001e0090008000400000a72000008040007a
:1031600010007800d10f2000810f500012003200b3
:10317000d10f2000810f500004003e00c10f20003d
:10318000810f50000800320017003700e10f2000c7
:10319000810f50000c003200f10f2000810f500011
:1031a0000d003200100037009e0090004088200083
:1031b0004efb07000c0037009e009000a088200006
:1031c0004afb0700080037009e009000008920009d
:1031d00046fb0700040037009e0090006089200035
:1031e00042fb0700000000001e009000800040002d
:1031f00040a7200000804000110020000108780056
:103200005a0037001e0090008000400000a72000f8
:103210000080400010007800f00f500053003e0086
:103220001e0090008000400000a7200000804000a9
:1032300010007800f00f50000d0032001e009000ca
:103240008000400000a720000080400010007800af
:103250004200dd008080e800609020000081400096
:1032600012007800920090001e019000a2fb07005f
:103270001e00900080004000209a20000080400046
:10328000100078008080e9001e00900000014000de
:10329000209a200000004100010878001e009000e4
:1032a0008000400000a7200000804000100078004f
:1032b000e10f5000070032001e0090008000400027
:1032c00000a720000080400010007800e80f5000a8
:1032d0000b003a001e00900080004000209a200061
:1032e00000804000100078008080e9001e009000ff
:1032f00000014000209a20000000410001087800f1
:103300001e0090008000400000a7200000804000c8
:103310001000780080004000a0552b000080400085
:10332000100078009e009000f0fa07001e00900048
:103330008000400000a720000080400010007800be
:10334000f00f5000030032009e009000807b2b00a5
:10335000e6fa07001e0090008000400040a7200011
:103360000080400011002000010878001e0090003d
:1033700080004000c0a620000080400010007800bf
:103380008000e8001e00900000014000c0a6200060
:1033900000004100010878001e00900080004000fd
:1033a000c0a620000080400010007800e50f50000b
:1033b0001cff360001003700000000001e009000d6
:1033c0008000400040a720000080400010007800ee
:1033d0000000e000020032001e0090009afa070090
:1033e0000080fa00000006000200fa00000f7800da
:1033f000220820009e004100008020000080400044
:10340000104078000004e0006300320000a42000b7
:103410001e004000104078000004e0005e003a000a
:1034200094c9bf00684060000004e0005a00320008
:1034300080a720001e004000104078000004e0003b
:103440004e003a001e0078008000400080a6200058
:1034500000804000100078009e007800e1fe070028
:103460001e0078008000400080a620000080400000
:10347000100078009e007800c208dd000080400047
:10348000c10c2000808040000080200000804000af
:10349000104078000040e9008040780080a72000bc
:1034a0001e0040000148780080a720001e00400058
:1034b000104078000004e00004003d0080a72000d8
:1034c0001e0040008040eb00014878001e0078009c
:1034d0008000400080a6200000804000100078009e
:1034e000e30f50001e003e001e00780080004000e8
:1034f00080a6200000804000100078006600b9001f
:10350000000178001e0078007800b9000000780003
:1035100000004100c10920008080400000802000a0
:1035200000804000104078000004e0000c003200f1
:103530001e0078008000400080a62000008040002f
:10354000100078008000e8001e00780000014000b4
:1035500080a6200000004100010878000e0037001e
:103560001e0078008000400080a6200000804000ff
:103570008000eb00010878000700370080a72000da
:103580001e004000104078008040e90080a7200025
:103590001e004000014878000080fa00000006008c
:1035a0000200fa00000f780002003700cac2a9002a
:1035b0000140fe0000a420001e00400010407800e2
:1035c0000004e000f9ff3a00cac2a8000080fa0037
:1035d000000006000400fa00100798009e0090000a
:1035e000a07b2b0041fa07001e00900016fa07008e
:1035f0001e0090008000400040a620000080400097
:103600008000eb00010878001e009000e4ff070036
:1036100000488000ea0f5000050036009e00900030
:10362000c07c2b0031fa07001e00900006fa07004c
:10363000004880000000e00048003a009e00900032
:10364000e07d2b0029fa07001e009000fef907001c
:103650004b0037001e009000d1ff07009e00900035
:10366000007f2b0021fa07001e0090008000400020
:1036700040a6200000804000100078006b00400051
:1036800080004000608d2000008040001000780025
:103690009e0090003bf907009e009000707f2b0079
:1036a00012fa07001e0090008000400040a6200093
:1036b00000804000100078006b0040008000400057
:1036c000608d20000080400010007800000f78001e
:1036d0001e0078000000e00004003200c00220005c
:1036e0009e007800808f500008003c001e00e9001a
:1036f00080004000c0752b00008040001000780062
:103700009e009000f9f90700030037009e0090002a
:1037100040752b00f5f907009e009000c07f2b003c
:10372000f2f907001e009000c7f907001e00900084
:103730008000400040a6200000804000100078007b
:103740008000e8001e0090000001400040a620001c
:10375000000041000108780001003700000000006f
:103760001e0090008000400040a620000080400025
:103770009000780000488000808f5000b5ff39002d
:103780000080fa00000006000600fa0020079800fa
:103790000000eb00000f78002e0090006600b900da
:1037a000000078008000e800e0a4200000804000d5
:1037b000104078008000fb00f00f200000806000c7
:1037c0001007980086c9bf008000fb001e00900013
:1037d000808f5000060034001e00900080004000e2
:1037e0000080200000804000100f78002a00370081
:1037f00086c9bf008000fb0087c9bf000000fb0036
:10380000808040001e009000808f5000090034002e
:1038100086c9bf000000fb009e00900000805000a1
:1038200080004000608d200000804000100f780074
:103830001900370086c9bf008000fb0087c9bf00a0
:103840000000fb008080400088c9bf000000fb0032
:10385000808040001e009000808f50000c003400db
:1038600086c9bf008000fb0087c9bf000000fb00c5
:10387000008040009e0090000080500080004000ca
:103880006090200000804000100f78000200370098
:103890000080eb00000f7800ae0090001e00780062
:1038a000b8f807000080fa00000006000400fa00e3
:1038b00010079800a50037001e0090000000e000ef
:1038c0000f0032001e0090008000400060a4200025
:1038d0000080400090017800e010800000417800f6
:1038e0001e0090006600b9000000780083004000d0
:1038f000e0a4200000804000024878000e0037005d
:103900001e0090008000400060a420000080400065
:103910009001780090108000004178001e00900017
:103920006600b9000000780083004000e0a4200099
:1039300000804000024878009e00900050ad2000ba
:1039400000804000104078000004e0003c0032009d
:103950001e0090008000400060a420000080400015
:10396000100178001e0090006600b9000000780089
:1039700082004000e0a42000008040001040780059
:10398000ed4f50000e003a001e00900080004000f5
:1039900060a4200000804000100178001e0090000c
:1039a0006600b9000000780082004000e0a420001a
:1039b0000080400010407800ea4f500020003200a4
:1039c0001e0090000000e0000f0032001e0090007a
:1039d0008000400060a420000080400010017800ba
:1039e0001e0090006600b9000000780082004000d0
:1039f000e0a4200000804000104078000000fb00a0
:103a0000d01088000e0037001e009000800040009b
:103a100060a4200000804000100178001e0090008b
:103a20006600b9000000780082004000e0a4200099
:103a300000804000104078000000fb0080108800eb
:103a40001e0090008000400060a420000080400024
:103a5000100178001e0090006600b9000000780098
:103a600082004000e0a4200000804000104f780059
:103a70001e407800ed4f5000030032001e407800d9
:103a8000ea4f50001f003a009e00900050ad200009
:103a900000804000104078000004e0000300320085
:103aa0009e009000c07f2b0010f907001e009000c0
:103ab0008000400060a4200000804000900078005a
:103ac0001e00900000014000a0a420000000410062
:103ad000010878001e0090008000400060a42000d3
:103ae000008040008000eb00010878009e009000fc
:103af000a0a520000080400011c0b300014878005c
:103b0000120037001e0090008000400060a42000da
:103b10000080400010007800e30f50000b003e00d2
:103b20001e0090008000400060a420000080400043
:103b3000100078008000e8001e00900000014000a6
:103b400060a4200000004100010878001e009000e1
:103b50000000e00004003a000ec2bf0061406000b7
:103b60000004e00007003a001e009000e10f500042
:103b70000a003a0018c2bf00614060000004e00083
:103b8000060032009e009000a0a5200000804000aa
:103b9000104078000004e00047ff32009e009000d3
:103ba000a0a5200000804000104078000004e00044
:103bb000790132009e00900050ad2000008040004e
:103bc000104078000004e000030032009e009000e6
:103bd000f07f2b00c5f80700004880000000e000df
:103be000090032009e00900050ad2000008040008f
:103bf000104078000004e000030032009e009000b6
:103c000010802b00b9f807001e00900080004000d3
:103c100000a6200000804000100178001e009000e7
:103c20006600b9000000780082004000e0a4200097
:103c300000804000104078000000fb006101b900e6
:103c400060ff2f00f1ff2f0002004000838048003a
:103c50004207200003002000820f5000838f58008d
:103c60002d013e0000600100350137002a013700b8
:103c700029013700320137002701370026013700bc
:103c800025013700240137002301370022013700c6
:103c900021013700200137001f0137001e013700c6
:103ca0001d0137001c0137001b0137001a013700c6
:103cb00019013700180137001701370016013700c6
:103cc0001501370011013700130137005b00370081
:103cd0006700370089003700760037000e01370093
:103ce0000d0137000c013700040137000a013700cd
:103cf00009013700080137000701370006013700c6
:103d000005013700040137000301370002013700c5
:103d10000101370000013700ff003700fe003700c7
:103d2000fd003700fc003700fb003700fa003700c9
:103d3000f9003700f8003700f7003700f6003700c9
:103d4000f5003700f4003700f3003700cb003700f0
:103d5000f1003700810037008e003700ee00370099
:103d600077003700ec003700eb003700ea0037003f
:103d7000e9003700e8003700e70037009f00370010
:103d800087003700e4003700e30037007f0037008a
:103d9000e1003700e0003700df003700de003700c9
:103da000dd003700dc003700c6003700da003700de
:103db000d9003700d8003700d7003700d6003700c9
:103dc000d5003700d4003700d3003700d2003700c9
:103dd000d100370067003700cf003700ce00370032
:103de0005a003700cc003700cb003700ca0037003c
:103df000c9003700c8003700c70037008f00370000
:103e000072003700c4003700c3003700c20037001b
:103e1000c1003700c0003700bf003700be003700c8
:103e2000bd003700bc003700bb003700ba003700c8
:103e3000b9003700b80037003c0037001e00900082
:103e40008000400060a42000008040008000eb0063
:103e5000010878009e009000a0a52000008040008e
:103e60008040eb00014878000000fe00b9003700f8
:103e70009e00900030802b001cf80700004480005a
:103e80009e0090003ff707009e00900030812b00bd
:103e900016f8070035020700205480009e009000ad
:103ea00038f707009e009000c07f2b000ff8070036
:103eb000a80037009e009000d0812b000bf807006f
:103ec000f01f2000e80107009e0090002df707007a
:103ed0009e00900030812b0004f807003a02070092
:103ee000305480009e00900026f707009e0090004e
:103ef000c07f2b00fdf70700960037009e00900062
:103f000050ad200000804000104078000004e00028
:103f1000030032009e009000d0822b00f3f70700d0
:103f2000c5000700fa0007008a0037000bfa0700f7
:103f30000000eb002b010700e801070085003700b7
:103f400010c0b30004e9b7008200370050c0b300ce
:103f500004e9b700ee0007007e0037009e009000e5
:103f600050ad20000080400011c0b300014878002f
:103f7000780037009e00900050ad20000080400087
:103f80008040eb0001487800720037009829a800b3
:103f9000700037001e0090008efd07006d00370096
:103fa0009e00900050ad200000804000104078003e
:103fb0000004e000030032009e009000a0842b006b
:103fc000caf7070094a9a800620037009e0090007d
:103fd00050ad200000804000104078000004e00058
:103fe000030032009e00900010852b00bff70700f1
:103ff0008969ef0094a9a900560037009e0090003f
:1040000050ad200000804000104078000004e00027
:10401000030032009e00900090852b00b3f707004c
:104020009e009000208820000080400011c0b30056
:10403000014878009d010700460037009e0090006f
:1040400050ad200000804000104078000004e000e7
:10405000030032009e00900020862b00a3f707008b
:104060009e00900020882000008040008040eb00ef
:10407000014878008d010700360037000029ef0065
:1040800098a9a90004c9bf00e54f50000100320003
:104090000469ef0098c9a9009d0007009e009000e8
:1040a00050ad200000804000104078000004e00087
:1040b000250032009e009000c0862b008bf7070081
:1040c0002400370098e9a900b0408000c14080007a
:1040d000c0488800d1488800dbc2bf006140600052
:1040e0000004e000020032000229ef00190037004e
:1040f000a000200010488800160037009e009000a5
:10410000e0872b0079f70700120037001e009000af
:104110009dfd07000f0037009e00900050ad20006d
:1041200000804000104078000004e00008003200e9
:104130009e00900080882b006cf707000500370078
:1041400000000000030037000000000001003700fd
:10415000000000001e0090008000400060a42000cd
:10416000008040008000eb00010878009e00900075
:10417000a0a52000008040008040eb0001487800ae
:104180001e0090008000400000a62000008040003b
:104190008000eb00010878001e0090002af707005d
:1041a0000080fa00000006000000fa0086c9bf0087
:1041b0000000fb002c01070041652700810f500023
:1041c00001003a006c0007000080fa0000000600c1
:1041d0000200fa000000eb002301070071562400e2
:1041e000810f50000b003a000000eb00000f780038
:1041f000280007000000e0000d003a001e007800d3
:10420000e40f5000010034003e0307001e0fe800d9
:10421000f7ff37000000eb0013010700e10f40003b
:1042200003003a00270107004cf9070002000700cd
:104230000080fa00000006000200fa000000eb0017
:10424000000f7800090037001e0078008000400051
:10425000008020000080400010007800800078007e
:104260001e007800950007001e0fe80086c9bf00f9
:104270000000fb009e0f5000f3ff3c00715624002d
:104280000000eb008d000700140107000080fa0019
:10429000000006000200fa004b0107000000e000e9
:1042a000020032000000eb00170037000000eb00b6
:1042b000000f7800090037001e007800ea000700b0
:1042c000800078001e00780000014000008020007f
:1042d00000004100010878001e0fe80086c9bf00f9
:1042e0000000fb009e0f5000f3ff3c001001070090
:1042f0000000e000020032000000eb000200370086
:10430000ea000700100020000080fa00000006000c
:104310000200fa000000eb00000f78000a003700ee
:104320001e00780080004000608d2000008040006a
:104330009000780086c9bf000000fb001e0040000e
:104340005e0007001e0fe80087c9bf000000fb00e9
:104350009e0f5000f2ff3c0086c9bf000000fb002a
:104360004165270055000700dc0007009569a9009a
:104370000080fa00000006000200fa0012010700a7
:104380000000e000020032000000eb0013003700e4
:104390000000eb00000f78000b00370086c9bf005b
:1043a0000000fb001e004000af0007008000780006
:1043b0001e00780000014000608d200000004100d8
:1043c000010878001e0fe80087c9bf000000fb004d
:1043d0009e0f5000f1ff3c00100020000080fa000a
:1043e000000006000400fa00100798000000eb002f
:1043f000000f78009e009000f01f2000808f50007a
:1044000002003400100020002a003700ff3ffc00ab
:104410009109200091407800f0c8b30000c060000e
:1044200099e0b700811f78001e0090000000400056
:10443000000f78009e00780000c02f000080400030
:10444000000f7800f0072000203b88001e00780055
:10445000103b880041042400013b880051052000e6
:10446000313b8800a10a2000313b880061e7a800a9
:104470000000000000000000cf00780001003700bd
:104480005220ef00117620009140780000c8b30060
:1044900000c060000004e000f9ff3a00910920002c
:1044a0009140780000c7b30000c0700099e0b700e9
:1044b0000000eb000080fa00000006000400fa0093
:1044c000000f7800110798001e007800c5ff070054
:1044d000f01f20009e007800808f50000200340002
:1044e0001000200031003700ff3ffc009109200040
:1044f00091407800f0c8b30000c0600099e0b700b8
:10450000801f7800811f7800821f78001e007800cd
:1045100000004000000f78009e00780000c02f00cf
:1045200000804000000f7800f0c7b30032e0b70011
:104530001e009000200088001e0078000000880007
:104540000208bb0041002400013b88005105200007
:10455000313b8800a10a2000313b880061e7a800b8
:1045600000000000000000004f017800cf0078003c
:104570004f007800010037005220ef001176200034
:104580009140780000c8b30000c060000004e00063
:10459000f9ff3a00910920009140780000c7b3006c
:1045a00000c0700099e0b7000000eb000080fa0046
:1045b000000006000400fa00004f78001107980080
:1045c0001e41780001a82000824878009e009000db
:1045d00011548800ff3ffc009109200091407800b1
:1045e000f0c8b30000c0600099e0b700841f7800f5
:1045f000801f780080cabf0032e0b70010548000ee
:10460000000088001082ba000000000000000000d6
:1046100040008000d053880080cabf0032e0b7005d
:1046200010548000000088001002ba000000000052
:104630000000000040008000f05388004f00780028
:104640004f027800910920009140780000c7b30024
:1046500000c0700099e0b7005220ef00f0538000d6
:104660000080fa00000006000200fa00000f780047
:10467000f01f20009e007800808f50000200340060
:104680000000eb00070037009e00780000e02700e4
:10469000008040000000400080007800f0c7b300b8
:1046a000c4ff07000080fa00000006000000fa00c6
:1046b000e900070050548000605488000080fa0030
:1046c000000006000000fa004e00070020548000a1
:1046d000004488000080fa00000006000000fa0094
:1046e0009f0007003054800080007800f01f2000f9
:1046f00072ff07000080fa00000006000000fa00c8
:10470000d50007005154800060548000808f500015
:1047100004003200b0022000be020700100020009a
:10472000010037000000eb000080fa0000000600e6
:104730000000fa00c8000700a800070051548000dc
:1047400040548000808f500005003200c0022000dd
:10475000b002070098a9a80010002000010037004f
:104760000000eb000080fa00000006000000fa00e4
:1047700095c9bf00704060000004e00002003200f4
:104780000000eb000e0037009589a8001d0007000f
:104790000144800020548000808f500006003200c9
:1047a000900220009b02070098a9a8009589a90003
:1047b00010002000020037009589a9000000eb00de
:1047c0000080fa00000006000000fa006400070004
:1047d000f01f2000a4ff070031548000810f50001b
:1047e00005003200a00220008a02070098a9a80054
:1047f00010002000010037000000eb000080fa00ec
:10480000000006000400fa00881f7800842aef00e8
:104810000000eb00000f78000000eb00100798008c
:104820000000eb00000f78001a0037001e0078002f
:1048300000004000800078000040eb005dff0700b2
:1048400080007800f00f2000008460001e007800d7
:1048500000004000800078000040eb0055ff07009a
:104860008000780000f02f00008060004800de002b
:1048700080004400205480000080400020548800c4
:1048800021548000d05380000080400020548800d4
:104890001e0fe800e0ff21009e007800808f50008e
:1048a000e2ff3400800f200010079800220037003c
:1048b0000000eb00000f7800180037001e007800a1
:1048c00000004000800078001e009000004078004a
:1048d00038ff070080007800f00f2000008460009f
:1048e0001e00780000004000800078001e0090004c
:1048f000004078002fff07008000780000f02f00b4
:10490000008060004800de008000440020548000e9
:1049100000804000205488001e0fe800f0ff2700b0
:104920009e007800808f5000e4ff3a001e00900047
:104930000000e800100798009e009000e00f2000a3
:10494000808f5000daff340020548000401ab000fd
:10495000205488004f0478000080fa000000060010
:104960000200fa00881f7800862aef000000eb00a2
:10497000000f78000000eb00000f780010003700f7
:104980001e00780038ff070080007800f00f20003c
:10499000008460001e00780033ff0700800078006c
:1049a00000f02f00008060004800de00800044001e
:1049b0003054800000804000305488001e0fe80012
:1049c000d01f20009e007800808f5000ecff340044
:1049d0004f0478000080fa00000006000200fa0090
:1049e000881f7800882aef000000eb00000f780095
:1049f0000000eb00000f7800100037001e00780068
:104a000019ff070080007800f00f2000008460008c
:104a10001e00780014ff07008000780000f02f00cf
:104a2000008060004800de008000440040548000a8
:104a300000804000405488001e0fe80086c9bf0077
:104a40000000fb009e0f5000ecff3c004f0478007c
:104a50000080fa00000006000200fa008a2aef0037
:104a60000000eb00000f78000000eb00000f780062
:104a7000160037001e0078008000400000802000f3
:104a8000008040001000780080007800f00f2000c7
:104a9000808060001e00780000014000008020003f
:104aa00000004100100078000001780000f02f00a5
:104ab000000061004800de0080804000505480000b
:104ac00000804000505488001e0fe80086c9bf00d7
:104ad0000000fb009e0f5000e6ff3c000080fa0043
:104ae000000006000000fa00881f780094c9bf008b
:104af0000044b2000004e00084003a00dbc2bf00c2
:104b0000614060000004e000800032008ac9bf00fc
:104b1000e34f50007d003a006000b800e048880094
:104b2000f1488800704080008140800018c0b300c8
:104b30000200200003f82300a40607000000e000a4
:104b400001003c000044eb000804e00008003200d3
:104b50001421ef000000200001f8230070408800bd
:104b600081408800d1fe0700c0012000a901070094
:104b700070408000814080006011b80091060700fd
:104b80000000e00005003a00b0408000c140800015
:104b9000c0488800d148880098e9a90010488000e2
:104ba000e90f500043003e00104880000000e8007c
:104bb0001048880098e9a800b4408000c5408000f3
:104bc000d0408000e14080000001be000400be0033
:104bd000dc0507000002be007040800081408000bc
:104be0000001be000400be000e0707000002be0068
:104bf000d0408000e14080000001be000400be0003
:104c0000d1050700c0488800d1488800c44880000a
:104c1000d5488000204a8000314a800018c0b30087
:104c20000001be000400be00660607000000e000b0
:104c3000010035000044eb000804e0000b003200e6
:104c400095c9bf00644060000004e0000700320026
:104c5000204a8000314a8000a2702d0033c2230018
:104c6000b9050700c0488800d1488800c4488000c2
:104c7000d5488000b0408000c140800018c0b3001b
:104c80000001be000400be00500607000000e00066
:104c900001003c000044eb000804e0000e0032007c
:104ca000b0408000c1408000c0488800d1488800e2
:104cb0000900370010488000e90f50000600360058
:104cc0000229ef0098e9a900b0408000c1408000af
:104cd000c0488800d1488800e0c2bf006240600040
:104ce0000004e0000700320094c9bf000042b20097
:104cf0000004e00003003a006000b800204788008c
:104d00003147880094c9a80005003700dbc2bf0006
:104d1000614060000004e00001003a0094c9a9006d
:104d20004f0478000080fa00000006000200fa003c
:104d3000889fbe008ac9bf000004e00009003a0055
:104d400082c9bf000004e00006003a0010c0b300b2
:104d500082e9b7009449a80010c0b3008ae9b700ff
:104d60006500370082c9bf00e54f500007003a00d8
:104d70008ac9bf00e14f500004003c008ac9bf004f
:104d80000040e8008ae9b7005b0037008ac9bf002d
:104d9000e24f500058003a0095c9bf0064406000df
:104da0000004e0005400320086c9bf000000fb0090
:104db0000000e8002cfe070041652700810f50002d
:104dc00039003a00c0468000d146800018c0b300c8
:104dd0000200200003f82300fc0507000000e000ab
:104de00001003c000044eb000804e0002e0032000b
:104df000c8468000d94680000047800011478000e7
:104e0000a24a8000b34a80004e050700020020003d
:104e1000832c2400a90507000001be000800be0085
:104e200080060700eb050700000f78004847800068
:104e3000594780001e007800cf80de002106070061
:104e40000001be000800be003e0507004047880084
:104e500051478800e8468000f94680001e0078002f
:104e6000cf80de00170607000001be000800be006c
:104e700034050700e0468800f14688002847800096
:104e8000394780001e007800cf80de000d06070045
:104e90000001be000800be002a0507002047880068
:104ea000314788001100370095a9a80070418000a3
:104eb00081418000c0468800d1468800784180004a
:104ec00089418000a04a8000b14a80000200200091
:104ed000832c2400790507000001be000800be00f5
:104ee00050060700404788005147880030c0b30093
:104ef0008ae9b7009449a9004f04be000080fa0077
:104f0000000006000000fa00f3010700f5f70700b3
:104f1000caa2a800cac2a9000140fe00fdff3700d6
:104f20000000fa007156800050a52a00808f5000c2
:104f300001003a007f00070050a52a007056880043
:104f40000080fa00000006000000fa00dbc2bf008b
:104f5000614060000004e0000c003a00e0c2bf00c5
:104f6000624060000004e0000800320094c9bf0005
:104f7000644060000004e00004003a0094c9bf00ef
:104f80000042b2000004e0001a0032009489a80038
:104f9000b05480000000e0000300320098a9a9008e
:104fa00098c9a900962aef0098c9bf000042b20034
:104fb0000004e00007003a009469a80098c9bf0007
:104fc000704060000004e00013003a0080f7070022
:104fd00014003700c90107009469a90098c9bf00ef
:104fe000614060000004e0000d003a00d8f70700bf
:104ff0000c003700c10107009489a9009469a90039
:1050000098c9bf00614060000004e00005003a005c
:10501000cff7070003003700000000000100370051
:10502000000000000080fa00000006000000fa0006
:1050300000148000e30f400003003600d001200080
:1050400074000700a401070000148000e10f500065
:1050500003003e00e00120006e0007009e010700f3
:1050600010148000e30f400003003600f001200020
:10507000680007009801070010148000e10f50003d
:1050800003003e00000220006200070092010700ba
:1050900020148000e30f40000400360010022000be
:1050a0005c00070050c0b30004e9b7002014800082
:1050b000e10f500004003e002002200055000700d0
:1050c00050c0b30004e9b70030148000e30f400083
:1050d00002003600300220004e000700301480002d
:1050e000e10f500002003e0040022000490007008e
:1050f00040148000e30f4000020036005002200000
:105100004400070040148000e10f500002003e0000
:10511000600220003f00070095c9bf0068406000a2
:105120000004e0000100320079fc07000080fa0072
:10513000000006000000fa0040c7bf0062406000a7
:105140000004e000030032004027a90030012000e5
:105150003000070040c7bf00704060000004e0005e
:10516000030032004087a900400120002900070009
:10517000117420009140780000c8b30000c06000a6
:105180000004e0000300320041e7a90050012000c4
:105190002000070041c7bf000044b2000004e00047
:1051a0000300320041c7a900600120001900070078
:1051b000017420009140780000c8b30000c0600076
:1051c0000004e0000300320040e7a9007001200065
:1051d0001000070040c7bf000044b2000004e00018
:1051e0000300320040c7a900800120000900070029
:1051f000900120000700070095c9bf0068406000cb
:105200000004e0000100320041fc07000080fa00c9
:10521000000006000200fa00000f7800004880003d
:10522000e90f50000b003e00004880009e0078000f
:105230006b00400000014000608d20000000410034
:1052400001087800004880000000e800004888005d
:1052500002003700b0002000004888009569a800cf
:105260000080fa00000006000000fa00d621ef00de
:105270009029ef0030c0b300d0eab700922aef00c7
:1052800004c9bf00e54f50000200320040c0b30027
:1052900004e9b7009449a900d1e2a9000080fa000e
:1052a000000006000400fa00881f780004c9bf004f
:1052b000e24f50005a003a0094c9bf0068406000b5
:1052c0000004e00056003200a4488000b548800089
:1052d00060498000714980000001be000400be00ea
:1052e0005005070001f0a200008fbe00904380002f
:1052f000a143800018c0b3001e01be00b304070024
:105300000000e00001003c000044eb000804e00065
:105310003c003200d1e2a800d0cabf000004e00087
:1053200032003a00905480000000e8009054880059
:1053300090548000b00e880091548000f005200049
:10534000808f50000300340010002000b1ff0700e0
:10535000c5ff07009154800020032000808f50007b
:105360000d00340018c0b300020020000300240028
:105370001e00be00930407000000e000010035009d
:105380000044eb000804e00003003200200020008d
:10539000a0ff0700b4ff070090548000e40f500006
:1053a0000d003c0018c0b3000200200003122400ce
:1053b0001e00be00850407000000e00001003c0064
:1053c0000044eb000804e00003003200300020003d
:1053d00090ff0700a4ff070095c9bf006840600068
:1053e0000004e00001003200c9fb0700d0cabf0082
:1053f000e34f50000a003a0020c0b300d0eab700e3
:105400000700370030c0b30004e9b700d621ef0031
:105410009449a900d1e2a90030c0b300d0eab70096
:1054200004c9bf00e14f50000a003a00d621ef0046
:1054300067f60700b10007009449a800922aef0020
:105440009029ef0020c0b30004e9b70030c0b300da
:10545000d0eab7004f0478000080fa000000060090
:105460000000fa00881f7800a4488000b54880003a
:1054700090408000a140800018c0b3000001be0031
:105480000400be00510407000000e00001003d00e0
:105490000044eb000804e00003003200700020002c
:1054a0005cff07008c000700a4488000b54880001e
:1054b000f04080000141800018c0b3000001be0030
:1054c0000400be003f0407000000e00001003500ba
:1054d0000044eb000804e00007003200dbc2bf001c
:1054e000614060000004e00003003a00400020003a
:1054f00048ff0700aaf6070084498000954980000c
:10550000104380002143800018c0b3000001be009a
:105510000400be002d0407000000e00001003c0074
:105520000044eb000804e00003003200800020008b
:1055300038ff070068000700c4498000d549800093
:10554000304380004143800018c0b3000001be001a
:105550000400be001d0407000000e00001003c0044
:105560000044eb000804e00003003200900020003b
:1055700028ff070058000700a4498000b5498000b3
:10558000304380004143800018c0b3000001be00da
:105590000400be000d0407000000e00001003c0014
:1055a0000044eb000804e00003003200a0002000eb
:1055b00018ff07004800070095c9bf006840600059
:1055c0000004e0000100320051fb07004f047800a6
:1055d0000080fa00000006000000fa00881f780032
:1055e000604980007149800018c0b3006011b800a4
:1055f000f40307000000e000010035000044eb0068
:105600000804e00006003200604980007149800013
:1056100001f0a200e04a8800f14a88000300370048
:105620006000b800e04a8800f14a8800904180009c
:10563000a1418000e24a8000f34a800018c0b30014
:10564000e00307000000e000010035000044eb002b
:105650000804e0000a003200a0548000e50f50006a
:10566000040034001c000700942aef0050002000c2
:10567000e8fe0700a05480000000e800a054880065
:1056800060498000714980000256800013568000f6
:1056900018c0b300cd0307000000e00001003c008b
:1056a0000044eb000804e000030032000a00070099
:1056b00060002000d7fe070095c9bf006840600069
:1056c0000004e0000100320011fb07004f047800e5
:1056d0000080fa00000006000000fa000700070042
:1056e00098a9a80094a9a9009449a900b000200095
:1056f000c8fe07000080fa00000006000000fa0063
:10570000da21ef00dc22ef00c841a900d621ef002a
:10571000d821ef00d622a90030c0b300d1eab700eb
:10572000e202a900e2c2a90030c0b300d2eab70089
:10573000d1e2a90030c0b300d0eab700cb02a90083
:105740009029ef008e29ef008c29ef006000b8004f
:1057500080558800915588006000b8006055880029
