:020000040000fa
:080000000001040000000000f3
:020000040000fa
:04000800a42d000023
:020000040000fa
:04000c00c00f000021
:020000040000fa
:0400100000100000dc
:020000040000fa
:0400140028100000b0
:020000040000fa
:040018005010000084
:020000040000fa
:04001c00a42d00000f
:020000040000fa
:04002000a42d00000b
:020000040000fa
:040024007810000050
:020000040000fa
:04002800c80100000b
:020000040000fa
:04002c00a42d0000ff
:020000040000fa
:04003000a42d0000fb
:020000040000fa
:040034009e08000022
:020000040000fa
:04003800a42d0000f3
:020000040000fa
:04003c00a42d0000ef
:020000040000fa
:040040003e0d000071
:020000040000fa
:04004400a42d0000e7
:020000040000fa
:04004800a42d0000e3
:020000040000fa
:04004c004805000063
:020000040000fa
:04005000a42d0000db
:020000040000fa
:04005400f4020000b2
:020000040000fa
:04005800a42d0000d3
:020000040000fa
:04005c00a42d0000cf
:020000040000fa
:04006000a42d0000cb
:020000040000fa
:04006400a42d0000c7
:020000040000fa
:04006800ea020000a8
:020000040000fa
:04006c00a42d0000bf
:020000040000fa
:04007000a42d0000bb
:020000040000fa
:04007400a42d0000b7
:020000040000fa
:04007800a42d0000b3
:020000040000fa
:04007c00a42d0000af
:020000040000fa
:04008000a42d0000ab
:020000040000fa
:04008400a42d0000a7
:020000040000fa
:04008800600800000c
:020000040000fa
:04008c006a080000fe
:020000040000fa
:04009000a42d00009b
:020000040000fa
:04009400a42d000097
:020000040000fa
:04009800a42d000093
:020000040000fa
:04009c00a42d00008f
:020000040000fa
:0400a000a42d00008b
:020000040000fa
:0400a400a42d000087
:020000040000fa
:0400a800a42d000083
:020000040000fa
:0400ac00a42d00007f
:020000040000fa
:0400b000a42d00007b
:020000040000fa
:0400b400a42d000077
:020000040000fa
:0400b800a42d000073
:020000040000fa
:0400bc00a42d00006f
:020000040000fa
:0400c000a42d00006b
:020000040000fa
:0400c400a42d000067
:020000040000fa
:0400c800a42d000063
:020000040000fa
:0400cc00a42d00005f
:020000040000fa
:0400d000a42d00005b
:020000040000fa
:0400d400a00f000079
:020000040000fa
:0400d800a42d000053
:020000040000fa
:04010800a42d000022
:020000040000fa
:04010c00a42d00001e
:020000040000fa
:04011000a42d00001a
:020000040000fa
:04011400a42d000016
:020000040000fa
:04011800a42d000012
:020000040000fa
:04011c00a42d00000e
:020000040000fa
:04012000a42d00000a
:020000040000fa
:04012400a42d000006
:020000040000fa
:04012800a42d000002
:020000040000fa
:04012c00a42d0000fe
:020000040000fa
:04013000a42d0000fa
:020000040000fa
:04013400a42d0000f6
:020000040000fa
:04013800a42d0000f2
:020000040000fa
:04013c00a42d0000ee
:020000040000fa
:04014000a42d0000ea
:020000040000fa
:04014400a42d0000e6
:020000040000fa
:04014800a42d0000e2
:020000040000fa
:04014c00a42d0000de
:020000040000fa
:04015000a42d0000da
:020000040000fa
:04015400a42d0000d6
:020000040000fa
:04015800a42d0000d2
:020000040000fa
:04015c00a42d0000ce
:020000040000fa
:04016000a42d0000ca
:020000040000fa
:04016400a42d0000c6
:020000040000fa
:04016800a42d0000c2
:020000040000fa
:04016c00a42d0000be
:020000040000fa
:04017000a42d0000ba
:020000040000fa
:04017400a42d0000b6
:020000040000fa
:04017800a42d0000b2
:020000040000fa
:04017c00a42d0000ae
:020000040000fa
:04018000a42d0000aa
:020000040000fa
:04018400a42d0000a6
:020000040000fa
:04018800a42d0000a2
:020000040000fa
:04018c00a42d00009e
:020000040000fa
:04019000a42d00009a
:020000040000fa
:04019400a42d000096
:020000040000fa
:04019800a42d000092
:020000040000fa
:04019c00a42d00008e
:020000040000fa
:0401a000a42d00008a
:020000040000fa
:0401a400a42d000086
:020000040000fa
:0401a800a42d000082
:020000040000fa
:0401ac00a42d00007e
:020000040000fa
:0401b000a42d00007a
:020000040000fa
:0401b400a42d000076
:020000040000fa
:0401b800a42d000072
:020000040000fa
:0401bc00a42d00006e
:020000040000fa
:0401c000a42d00006a
:020000040000fa
:0401c400a42d000066
:020000040000fa
:0401c800a42d000062
:020000040000fa
:0401cc00a42d00005e
:020000040000fa
:0401d000a42d00005a
:020000040000fa
:0401d400a42d000056
:020000040000fa
:0401d800a42d000052
:020000040000fa
:10020000efa120000ebf20000e01880000000000ba
:10021000000020000000e000020032000001200089
:100220002002880014000700491607000000e000c3
:1002300003003a00607a230001002000020037002a
:100240000000200001002000810f7000010032003a
:1002500014000700000020000000e000020032004f
:100260000000020000000000182d02000000000045
:100270000040da000000fe004440a90000672000b2
:100280000000e0000300320000002000a001880010
:100290004440a800000006008a1f78008b1f7800e9
:1002a0000000060091018800800478000000eb0047
:1002b0001a003700e284440032a0b4009905ba0065
:1002c000e284440032a0b4009906ba00e2844400fb
:1002d00032a0b4000006eb00476fde00fd07b2005d
:1002e000636ce10003003a00ebff07000000eb0045
:1002f0000a003700606ce10004003a00005deb008a
:100300008b05e900fdff3e00040037006168e10055
:10031000010032000086eb000b00070019c7ba008d
:100320001905ba000e04e00003003a000a00e000dc
:10033000e0ff3a0000000600fe07b2009e018800c0
:100340008a047800f5ff3700395dba008b05e900b3
:100350000c003200295dba008b05e900080032006c
:100360000c00e00003003a00e284440032a0b40034
:10037000f5ff370019ddba008b05e900faff3a00f6
:100380008904e800e184440032a0b40000000600c3
:100390003600f800809fbe00829fbe00849fbe0092
:1003a000869fbe00881f78000000fa00c8c2a8001f
:1003b0006000b800c0478800d147880070408000c6
:1003c0008140800018c0b3000200200003f8230021
:1003d000821607000000e00001003c000044eb0032
:1003e0000804e000060032000000200001f82300ad
:1003f0007040880081408800c0012000af0d0700d8
:1004000070408000814080006011b80071160700c4
:100410000000e00009003a00b0408000c1408000c8
:1004200030478800414788002829ef00120020004b
:1004300061132b003000200042120700804b800027
:10044000e10f50002200320010458000e90f5000fb
:100450001f003c00104580000000e80010458800a7
:100460001000200040498800b4408000c540800052
:10047000d0408000e14080000001be000400be00ca
:10048000b41507000002be0070408000814080006b
:100490000001be000400be00e61607000002be0018
:1004a000d0408000e14080000001be000400be009a
:1004b000a915070030478800414788001200200036
:1004c00061142b00300020001e12070010003700be
:1004d000804b8000e10f50000d003200104580007d
:1004e000e90f50000a003400a228ef002829ef008d
:1004f000b0408000c14080003047880041478800fc
:100500001200200061152b00300020000d120700a2
:10051000a0478000e20f5000160032000017800054
:10052000620060000000e00012003200604b8000ba
:100530000000e0000f003a00804b80000000e00067
:100540000c003a00504b80000000e00009003a0027
:1005500010002000404b8800a0478000e50f5000ad
:100560000200320010002000a04788001000200088
:10057000804b880000178000620060000000e000ef
:1005800009003200604b80000000e00006003a00e5
:100590006000b80040458800514588006000b80000
:1005a000604588007145880010002000404c88009c
:1005b0008400a9000080fa004f0478004f03be00b9
:1005c0004f02be004f01be004f00be003600f900d2
:1005d000004006000000fa00c8c2a8008600a9007a
:1005e0000080fa00004006003600f800809fbe0040
:1005f000829fbe00849fbe00869fbe000000fa005e
:10060000c8c2a800d0498000e70f5000c6003400df
:10061000e0498000f149800002c02c00c37c240026
:10062000aa150700e0498800f1498800e4498000e4
:10063000f5498000f0458000014680000001be00c1
:100640000400be00a11507000002be00504080005b
:10065000614080000001be000400be003e1507009e
:1006600080488800914888006000b800e049880010
:10067000f1498800004a8000114a800002002000f1
:100680000310240091150700004a8800114a8800d1
:10069000004a8000114a80000200200003702400fc
:1006a0002c150700004a8800114a8800004a800083
:1006b000114a800002002000037024008315070007
:1006c000004a8800114a8800004a8000114a8000d0
:1006d000020020000302240056160700004a88008a
:1006e000114a8800004a8000114a8000a2702d0043
:1006f00033d22300751507000002be00804780003a
:10070000914780000001be000400be0012150700e2
:10071000e0488800f14888006000b800004a88007e
:10072000114a8800204a8000314a800002c02c0013
:10073000c37c240065150700204a8800314a8800e0
:10074000204a8000314a8000f2282c0053ef230019
:1007500000150700204a8800314a8800204a80009e
:10076000314a800042722900f3c723005715070061
:1007700020488800314888006000b800204a88007e
:10078000314a8800404a8000514a800002c02c0053
:10079000c37c24004d150700404a8800514a880058
:1007a000404a8000514a8000f2282c0053ef230079
:1007b000e8140700404a8800514a8800404a8000f7
:1007c000514a800042722900f3c723003f150700f9
:1007d00060488800714888006000b800404a88007e
:1007e000514a8800604a8000714a800002c02c0093
:1007f000c37c240035150700604a8800714a8800d0
:10080000604a8000714a8000f2282c0053ef2300d8
:10081000d0140700604a8800714a8800604a80004e
:10082000714a800042722900f3c723002715070090
:1008300040488800514888006000b800604a88003d
:10084000714a880040488000514880006048880014
:10085000714888003a29ef0031508000f05f250090
:10086000808f500007003200204b8000e10f5000c5
:1008700004003a00504b80000000e00001003a0004
:10088000150d0700c04980000000e00017003a0085
:10089000504b80000000e00014003a00990c070063
:1008a000a0478000e20f500003003c00a0478000fa
:1008b0000000e00008003a0080498000e10f50008d
:1008c00005003a00404b8000e50f500002003a005e
:1008d0000508070008003700804980000000e0009c
:1008e00004003a009b0d070003003700990d070034
:1008f0000100370000000000804980000000e00097
:1009000006003a00204b8000e10f500003003a003f
:10091000a1e2a9006429ef00550037001000200073
:10092000204b880052003700204b8000e10f500020
:100930003d003a00001480008000eb0068150700bd
:100940000002be00e0498000f14980000001be00c5
:100950000400be0080140700e0498800f1498800c7
:10096000101480008000eb005d1507000002be003f
:10097000004a8000114a80000001be000400be0051
:1009800075140700004a8800114a8800201480006e
:100990008000eb00521507000002be00204a8000d4
:1009a000314a80000001be000400be006a14070046
:1009b000204a8800314a8800301480008000eb0013
:1009c000471507000002be00404a8000514a8000df
:1009d0000001be000400be005f140700404a88000a
:1009e000514a8800401480008000eb003c1507004d
:1009f0000002be00604a8000714a80000001be0013
:100a00000400be0054140700604a8800714a880040
:100a100031508000f05f2500808f500011003200bf
:100a2000ce0607000f0037006000b800e0498800dc
:100a3000f14988006000b800004a8800114a880027
:100a40006000b800204a8800314a88006000b80081
:100a5000404a8800514a88006000b800604a880017
:100a6000714a8800d04980000000e800d049880021
:100a70008560a9000080fa004f03be004f02be004f
:100a80004f01be004f00be003600f90000400600d6
:100a90003600f800809fbe00829fbe00849fbe008b
:100aa000869fbe000200fa00c8c2a80034003700ca
:100ab000124d8000901080008040780080992000c6
:100ac0000000410001487800e05080000000e00094
:100ad00012003200114d80008099200000804000fb
:100ae00010407800ed4f500006003a00114d800094
:100af000809920000080400010407800ea4f5000ac
:100b000006003200114d80008099200000804000d6
:100b1000104078000000fb0080108800114d80001c
:100b2000809920000080400010407800ed4f500078
:100b30000b003a00e05080000000e00002003200ac
:100b4000d000200080108800104d8000504d88009b
:100b5000a229ef0010002000204d88000800370077
:100b6000d050800080007800104d8000808f5000b1
:100b700003003600104d80000000e800104d880092
:100b800070108000610060000000e000030032008f
:100b9000204d80000000e000c5ff3200204d8000a5
:100ba000e10f50003e013a000000eb00000f78001a
:100bb0000004200080108800c04480000000e00095
:100bc000020034001002200080108800809920006c
:100bd0001e004000104078000000fb006101b900d9
:100be00030ff2f00f1ff2f000200400083804800fb
:100bf0008206200003002000820f5000838f5800df
:100c000010013e0000600100150137000d013700a2
:100c10000c0137000b0137000a01370009013700ca
:100c200008013700070137000601370005013700ca
:100c300004013700030137000201370001013700ca
:100c400000013700ff003700fe003700fd003700cd
:100c5000fc003700fb003700fa003700f9003700ce
:100c600052003700f7003700f6003700f500370074
:100c7000f4003700f3003700f2003700f1003700ce
:100c8000f0003700ef003700ee003700ed003700ce
:100c9000ec003700eb003700ea003700e9003700ce
:100ca000e8003700e7003700e6003700e5003700ce
:100cb000e4003700e3003700e2003700e1003700ce
:100cc000e0003700df003700de003700dd003700ce
:100cd000dc003700db003700da003700a000370007
:100ce00077003700d700370037003700560037004d
:100cf000d400370031003700d2003700d100370070
:100d0000d0003700cf00370060003700cd0037003b
:100d1000b800370050003700ca003700c90037005c
:100d20003e003700c7003700b70037007f003700ac
:100d3000c4003700c3003700c20037006900370025
:100d4000c0003700bf003700be003700bd003700cd
:100d5000bc003700bb003700ba003700b9003700cd
:100d6000b8003700b7003700b6003700b5003700cd
:100d7000b40037006a003700b2003700b100370016
:100d8000b0003700af00370046003700ad00370035
:100d90009b00370037003700aa00370022003700d9
:100da000a8003700a70037009f003700a229ef00f6
:100db000a429ef000000fe00ae0037001000200064
:100dc000a0478800ab0037001e0fe8008099200084
:100dd0001e0040009040780090c7b30080cf5000c4
:100de00003003a0010002000e0508800a100370006
:100df000809920001e00400090407800e0c6b300bb
:100e000080cf500002003a001c2aef009900370002
:100e10000080eb00404d8800960037001000200055
:100e2000c049880093003700304b80000000e0008c
:100e300003003a0010002000304b88008d0037007e
:100e40006629ef008b003700110020000000eb0046
:100e5000530a0700870037001200200031162b00cc
:100e600030002000b70f070010002000604b880002
:100e70008000370012002000c1162b003000200037
:100e8000b00f07006c29ef007a003700062aef0048
:100e90001200200061172b0030002000a90f07006e
:100ea00074003700f05f25003050880012002000e9
:100eb000c1182b0030002000a20f07006d00370082
:100ec0009828ef006a29ef00f428ef007a29ef0054
:100ed00012002000611a2b0030002000990f07003b
:100ee000640037002829ef00b0408000c140800036
:100ef0003047880041478800d1168000001020004c
:100f0000008060000000e00002003200a228ef0034
:100f100058003700a0002000104588005500370019
:100f200050002000a0478800520037001200200027
:100f3000b11b2b0010002000820f0700c04880006a
:100f4000d148800012002000db0f070012002000b3
:100f5000911d2b00200020007a0f0700450037006c
:100f600012002000d11d2b0010002000750f07007b
:100f7000704180008141800012002000ce0f0700e8
:100f800012002000511f2b00200020006d0f0700d1
:100f900012002000a11f2b0010002000690f070085
:100fa000d0448000e144800012002000c20f0700fe
:100fb00012002000511f2b0020002000610f0700ad
:100fc0001200200071212b00100020005d0f07008f
:100fd000804580009145800012002000b60f070078
:100fe00012002000511f2b0020002000550f070089
:100ff0002000370010002000f04f88001d0037004f
:10100000fe29ef001b003700814c800020062000e5
:10101000808f500014003c00804c80000000e800ed
:10102000804c880013003700804c80000000e000f6
:101030000f003400804c80000000e900804c8800e4
:101040000c0037001200200031232b00100020007c
:101050003c0f07000080eb00404d88000500370082
:10106000000000000300370000000000010037000e
:1010700000000000a229ef00a429ef00404d8000ed
:10108000e10f400006003a00a829ef00a229ef0076
:101090000000eb00000f7800500420008010880052
:1010a0008520a9000080fa004f03be004f02be0059
:1010b0004f01be004f00be003600f90000400600a0
:1010c0000000fa00c8c2a8008700a9000080fa004a
:1010d00000400600809fbe000000fa00c8c2a800c1
:1010e00009003700c14d8000a09b20000080400017
:1010f000104078000000fb00d0108800c04d800038
:101100000000e800c04d8800c110800000202000d1
:10111000008060000000e00004003a00c14d800043
:10112000b04d8000808f5000eeff34008720a90072
:101130000080fa004f00be00004006003600f800b4
:10114000809fbe00829fbe00849fbe00869fbe001f
:10115000889fbe000200fa00c8c2a800a1e2a80051
:10116000804980000000e00006003200f04380006b
:10117000504c8800b003200060508800d442a80082
:1011800012003700605080000000e0000c003c00be
:10119000b003200060508800504c80000000e00048
:1011a00003003c0010002000c04988000700370001
:1011b000504c80000000e900504c880003003700cc
:1011c000605080000000e9006050880010498000f5
:1011d0000000e00010003400244980003549800000
:1011e00090418000a141800018c0b3000001be0002
:1011f0000400be00f71207000000e0000100350007
:101200000044eb000804e0000300320010498000b5
:101210000000e90010498800d1168000001020006d
:10122000008060000000e00003003a00c882a900ce
:101230009429ef007629ef00204c8000e80f500041
:101240000400340010002000104c88008429ef00b6
:101250000b003700204c80000000e0000400340048
:10126000204c80000000e900204c8800040037007a
:10127000804980000000e00001003a008229ef0070
:10128000f04f80000000e0000b0032008049800039
:101290000000e00008003200d80b0700104c80006e
:1012a0000000e00002003200a20c0700030037003b
:1012b000e90b0700010037007e29ef00804980001c
:1012c0000000e000290032002448800035488000fa
:1012d000704380008143800018c0b3000001be004d
:1012e0000400be00bd1207000000e00001003c0049
:1012f0000044eb000804e0001a003a004448800073
:1013000055488000504380006143800018c0b300fe
:101310000001be000400be00b01207000000e000a3
:1013200001003c000044eb000804e0000d003a001e
:10133000644880007548800050438000614380000d
:1013400018c0b3000001be000400be00a3120700d5
:101350000000e00001003c000044eb000804e00055
:1013600002003200e002a800370037008049800008
:101370000000e000330032007043800081438000b1
:1013800002002000030a2400f21107000002be0040
:10139000204880003148800018c0b3000001be0022
:1013a0000400be008d1207000000e00001003c00b8
:1013b0000044eb000804e0002300320050438000aa
:1013c0006143800002002000030a2400e1110700ad
:1013d0000002be00404880005148800018c0b300a1
:1013e0000001be000400be007c1207000000e00007
:1013f00001003c000044eb000804e0001200320051
:10140000504380006143800002002000030a240052
:10141000d01107000002be006048800071488000c3
:1014200018c0b3000001be000400be006b1207002c
:101430000000e00001003c000044eb000804e00074
:1014400001003200e002a900fc030700304b8000dd
:101450000000e00005003400304b80000000e9008f
:10146000304b880010002000d40a0700d1168000fd
:1014700000102000008060000000e0000f003a0033
:1014800000178000620060000000e0000b003200e6
:10149000704980000000e00008003a00604b8000c6
:1014a0000000e00005003a00904b80000000e000e2
:1014b00002003a0010002000904b88009049800004
:1014c0000000e0000d003200704b8000e10f500082
:1014d00003003a006e29ef00c8a2a90008003700f7
:1014e00010002000704b8800c04480000000e00025
:1014f00003003200c8a2a80001003700c8a2a9005a
:10150000a04b80000000e0000a003a00404b800041
:101510000000e00007003a0010002000404b880067
:10152000100020007049880010002000a04b8800a7
:1015300068003700a04b8000e70f500004003c001b
:10154000a04b80000000e800a04b8800610037003d
:10155000a04b8000e80f50005e003a000049800078
:10156000e10f50005b003a00614c80002000200039
:1015700000017800110009008200d8000000e80096
:101580002f0d070041652700810f500031003a0000
:101590002445800035458000c0488000d148800047
:1015a0000001be000400be006a1107000200200016
:1015b000832c2400c51107000002be00d044800027
:1015c000e14480000001be000400be009912070043
:1015d00004120700000f78008845800099458000bc
:1015e0001e007800cf80de003a1207000001be0026
:1015f0000800be005711070080458800914588000b
:10160000f8448000094580001e007800cf80de008d
:10161000301207000001be000800be004d11070097
:10162000f044880001458800484580005945800005
:101630001e007800cf80de00261207000001be00e9
:101640000800be004311070040458800514588004e
:10165000110037007041800081418000d044880033
:10166000e1448800c0488000d1488000020020008a
:10167000832c2400951107000002be0070418000f9
:10168000814180000001be000400be006912070015
:10169000804588009145880090002000a04b88007c
:1016a0002e29ef008400a900ff3ffc008c00a80059
:1016b000d116800000102000008060000000e000d3
:1016c00004003200404c80000000e00001003a00bd
:1016d0008400a800110407004045800051458000a7
:1016e00018c0b3006011b800ba1107000000e00094
:1016f000010035000044eb000804e0000600320061
:10170000404580005145800001f0a200f04488006f
:1017100001458800040037004045800051458000a5
:10172000f044880001458800c0488000d14880000e
:1017300018c0b30002002000632c2400a71107008a
:101740000000e00001003c000044eb000804e00061
:101750001000320040508000e40f50000d003200b5
:10176000d0448000e1448000804588009145880095
:1017700040002000405088006000b80040458800cc
:10178000514588006000b8006045880071458800b8
:1017900048003700c0488000d148800018c0b3001e
:1017a00002002000632a24008a1107000000e000e4
:1017b000010035000044eb000804e0001e00320088
:1017c000c0488000d148800018c0b300020020004b
:1017d000232a2400811107000000e00001003c00e2
:1017e0000044eb000804e000130032004050800089
:1017f000e40f500003003200405080000000e00081
:101800000d003a00f044800001458000d04488007b
:10181000e1448800d0448000e14480000001be0023
:10182000cd100700d0448800e1448800200020004b
:10183000405088001f003700c0488000d148800019
:1018400018c0b3000200200003f823006111070054
:101850000000e000010035000044eb000804e00057
:1018600014003200405080000000e00011003200ff
:10187000f044800001458000d0448800e1448800a5
:101880006000b80080458800914588006000b8007d
:10189000a0458800b1458800082aef006000b80024
:1018a00040458800514588006000b80060458800c8
:1018b00071458800804580009145800018c0b300c4
:1018c0006011b800431107000000e000010035007e
:1018d0000044eb000804e000060032006000b8009d
:1018e00080458800914588006000b800a0458800c8
:1018f000b1458800d0448000e1448000a2702d00f2
:1019000033ba2300941007000002be008045800017
:101910009145800018c0b3000001be000400be0065
:101920002c1107000000e000010035000044eb002e
:101930000804e00007003200d0448000e144800049
:10194000a2702d0033ba2300831007008045880061
:10195000914588007440800085408000b040800040
:10196000c14080000001be000400be00b1110700ac
:101970000002be00804880009148800018c0b3007b
:101980000001be000400be00141107000000e000ca
:1019900001003c000044eb000804e0001f0032009e
:1019a000404980000000e0001c003200d444800068
:1019b000e544800070408000814080000001be004e
:1019c0000400be009b1107000002be00804580009d
:1019d0009145800018c0b3000001be000400be00a5
:1019e000fc1007000000e000010035000044eb009f
:1019f0000804e00009003200d4448000e54480007f
:101a000070408000814080000001be000400be00e4
:101a10008811070080458800914588008049800032
:101a20000000e0000c003a008845800099458000e5
:101a3000d0438000e14380003284290013992300c1
:101a40007c1107000001be000800be004110070025
:101a500080458800914588008460a9000080fa00d4
:101a60004f04be004f03be004f02be004f01be0038
:101a70004f00be003600f900004006003600f800b6
:101a8000809fbe00829fbe00849fbe00869fbe00d6
:101a9000881f78000400fa00c8c2a8006000b800df
:101aa000008fbe00205080000000e00006003400df
:101ab00020508000e30f50000300320020508000cf
:101ac0000000e90020508800105080000000e00075
:101ad0000600340010508000e30f50000300320075
:101ae000105080000000e900105088000050800075
:101af0000000e0000600340000508000e30f5000ba
:101b000003003200005080000000e900005088000f
:101b1000804a8000e70f500011003400e04a800046
:101b2000f14a800002002000031024006710070023
:101b3000e04a8800f14a8800e04a8000f14a8000cb
:101b4000a04a8800b14a88006000b800e04a8800d6
:101b5000f14a88005029ef003d0307000c003700d0
:101b6000e44a8000f54a8000e0488000f1488000a7
:101b70000001be000400be00f70f0700e04a880025
:101b8000f14a8800804a80000000e800804a88000e
:101b9000904a8000e70f500010003400004b800096
:101ba000114b8000020020000310240047100700a2
:101bb000004b8800114b8800004b8000114b8000c7
:101bc000c04a8800d14a88006000b800004b8800f5
:101bd000114b88005229ef000c003700044b8000a5
:101be000154b800080488000914880000001be00b5
:101bf0000400be00d80f0700004b8800114b88007e
:101c0000904a80000000e800904a8800a44a8000c2
:101c1000b54a8000c04a8000d14a80000001be0061
:101c20000400be0003110700008fbe0018c0b300ff
:101c30006011b8001e00be00661007000000e00042
:101c4000010035000044eb000804e000030032000e
:101c50001e00be0001f0a200008fbe00c047800041
:101c6000d147800018c0b3000001be001e00be00b6
:101c70005a1007000000e00001003c000044eb00a7
:101c80000804e0000b0032001e01be00c2478800bd
:101c9000d3478800c04a8000d14a8000e0478800ce
:101ca000f1478800a04a8000b14a800000488800bf
:101cb00011488800e0488000f148800018c0b30057
:101cc000f226210033b02300441007000000e0009a
:101cd00001003c000044eb000804e0000b003a0067
:101ce000e0488000f148800018c0b300f2262100cf
:101cf00033b02b00371007000000e0000100350072
:101d00000044eb000804e00084003200744f8000bf
:101d1000854f8000e0488000f14880000001be004f
:101d20000400be00c31007000002be006045800032
:101d3000714580000001be000400be00860f070050
:101d40006045880071458800744f8000854f800091
:101d5000e0488000f14880000001be000400be00a1
:101d6000b41007000002be00a0458000b14580000d
:101d70000001be000400be00770f0700a0458800e8
:101d8000b1458800604580007145800018c0b300ef
:101d9000f226210033a82300101007000000e00005
:101da00001003c000044eb000804e0000f0032009a
:101db0006045800071458000f226210033a8230091
:101dc000640f070060458800714588004045800029
:101dd00051458000f226210033a823005e0f070042
:101de0004045880051458800190037006045800053
:101df0007145800018c0b300f226210033a82b00e3
:101e0000f40f07000000e000010035000044eb0083
:101e10000804e0000e00320060458000714580003b
:101e2000f226210033a823004b0f070060458800ed
:101e3000714588004045800051458000f226210010
:101e400033a82300430f0700404588005145880010
:101e5000a0458000b145800018c0b300f2262100e3
:101e600033a82300dd0f07000000e00001003c0064
:101e70000044eb000804e0000f003200a0458000a1
:101e8000b1458000f226210033a82300310f07005e
:101e9000a0458800b14588008045800091458000bc
:101ea000f226210033a823002b0f0700804588006d
:101eb0009145880019003700a0458000b145800099
:101ec00018c0b300f226210033a82b00c10f070071
:101ed0000000e000010035000044eb000804e000d1
:101ee0000e003200a0458000b1458000f22621009e
:101ef00033a82300180f0700a0458800b1458800cb
:101f00008045800091458000f226210033a82300ff
:101f1000100f0700804588009145880084c0a90003
:101f20000080fa004f0478004f03be004f02be004d
:101f30004f01be004f00be003600f9000040060011
:101f40003600f800809fbe00829fbe00849fbe00c6
:101f5000869fbe000000fa00c8c2a800c000200092
:101f6000d60607000080fa004f03be004f02be00f5
:101f70004f01be004f00be003600f90000400600d1
:101f80003600f800809fbe00829fbe00849fbe0086
:101f9000869fbe000000fa00113a80000002200077
:101fa000008060000000e00005003a00d04b800097
:101fb0000000e00002003a0020012000bf060700f8
:101fc000c8c2a800d04b80000000e00002003a0028
:101fd000d0002000b906070010002000d04b880078
:101fe0008020a9000080fa004f03be004f02be000f
:101ff0004f01be004f00be003600f9000040060051
:102000003600f800809fbe00829fbe00849fbe0005
:10201000869fbe000000fa00c8c2a800cd070700d6
:1020200010002000504b8800e0002000a3060700ad
:102030008060a9000080fa004f03be004f02be007e
:102040004f01be004f00be003600f9000040060000
:102050003600f800809fbe00829fbe00849fbe00b5
:10206000869fbe000000fa00c8c2a800b90707009a
:1020700010002000504b8800f00020008f06070061
:102080008040a9000080fa004f03be004f02be004e
:102090004f01be004f00be003600f90000400600b0
:1020a0003600f800809fbe00829fbe00849fbe0065
:1020b000869fbe000000fa00c8c2a800a50707005e
:1020c00010002000504b8800000120007b06070014
:1020d0008080a9000080fa004f03be004f02be00be
:1020e0004f01be004f00be003600f9000040060060
:1020f0003600f800809fbe00829fbe00849fbe0015
:10210000869fbe000000fa00c8c2a8009107070021
:1021100010002000504b88001001200067060700c7
:102120000080fa004f03be004f02be004f01be0008
:102130004f00be003600f900004006000400fa001f
:10214000100798000000eb00000f7800180037001f
:102150001e0090001e004000f20907000000000071
:10216000013b800000002800008060000000e000cb
:10217000fbff3a001e007800800040000080200035
:1021800000804000900078001e0090001e0040007b
:10219000050a070000000000013b80000000280045
:1021a000008060000000e000fbff3a001e0fe80026
:1021b000614c80002000200000017800110009001f
:1021c0008200d8009e0f5000e1ff3d001e00780005
:1021d0000080fa00000006000400fa0010079800d2
:1021e0000000eb00000f78000a0037001e0090008e
:1021f0001e004000120a0700800078001e007800d0
:10220000000140000080200000004100010878002b
:102210001e0fe800614c80002000200000017800c3
:10222000110009008200d8009e0f5000efff3d0012
:102230000080fa00000006000400fa001007980071
:102240000000eb00000f7800200037001e00900017
:102250001e004000b309070000000000013b8000a1
:1022600000002800008060000000e000fbff3a0052
:102270001e0078000000e00005003a001e009000fb
:102280001e00400041652700c7090700090037000c
:102290001e00780080004000208820000080400060
:1022a000900078001e0090001e004000be0907004c
:1022b00000000000013b800000002800008060005a
:1022c0000000e000fbff3a001e0fe800714c8000a8
:1022d0002000200000017800110009008200d800d1
:1022e0009e0f5000d9ff3d001e0078000080fa00cc
:1022f000000006000400fa00100798000000eb0040
:10230000000f78000a0037001e0090001e004000f9
:10231000cb090700800078001e0078000001400013
:102320002088200000004100010878001e0fe8000e
:10233000714c80002000200000017800110009008d
:102340008200d8009e0f5000efff3d000080fa0091
:10235000000006000400fa000000eb00000f780007
:102360000000eb001007980000802000000f7800ac
:1023700000882000100798001e0090001e005000ea
:102380000080fa00000006000400fa000000eb00e4
:10239000000f78000000eb00100798002088200054
:1023a000000f7800808b2000100798001e0090001e
:1023b0001e0050000080fa00000006000000fa0035
:1023c000c0488000d1488000204588003145880001
:1023d000614c8000200020000001780011000900fd
:1023e0008200d8000000e80093ff0700d442a90053
:1023f0000080fa00000006000000fa000300370029
:10240000c04b80000000e800c04b8800c04b80003b
:10241000e30f4000faff3600614f800050a52a000c
:10242000808f500001003a008900070050a52a0063
:10243000604f88000080fa00000006000000fa00eb
:10244000d116800000102000008060000000e00035
:102450000d003a0000178000620060000000e000fc
:102460000900320070498000e10f50000600320080
:10247000604b8000e10f500003003200804b800071
:10248000e10f500023003a0010002000904988001e
:10249000304c80000000e00004003200204c80003e
:1024a00065004000204c88008629ef00904b80009a
:1024b000e10f500003003a006a29ef007a29ef008b
:1024c0007229ef00504b80000000e00007003a0046
:1024d0001000200080498800a04980000000e00032
:1024e00019003a005d0c07001a0037009906070032
:1024f0003029ef009629ef009429ef009229ef0090
:10250000b04980000000e00011003a001e0d0700f5
:102510001000370010002000304c88008d060700a6
:102520003229ef003029ef009629ef009429ef00bf
:102530009229ef00b04980000000e00005003a0059
:10254000110d0700030037000000000001003700f4
:10255000000000000080fa00000006000000fa0001
:1025600000148000e30f400003003600d00120007b
:10257000520507006c06070000148000e10f5000b0
:1025800003003e00e00120004c050700660607003e
:1025900010148000e30f400003003600f00120001b
:1025a000460507006006070010148000e10f500088
:1025b00003003e0000022000400507005a06070005
:1025c00020148000e30f40000400360010022000b9
:1025d0003a05070050002000a04788002014800022
:1025e000e10f500004003e002002200033050700e8
:1025f00050002000a047880030148000e30f400006
:1026000002003600300220002c0507003014800044
:10261000e10f500002003e004002200027050700a5
:1026200040148000e30f40000200360050022000fa
:102630002205070040148000e10f500002003e0018
:10264000600220001d0507000080fa00000006005f
:102650000000fa00003a8000620060000000e00024
:10266000030032004027a9003001200013050700b5
:10267000003a8000700060000000e00003003200bb
:102680004087a900400120000c050700013a8000a6
:1026900000002800008060000000e000030032001d
:1026a00041e7a9005001200004050700013a80001d
:1026b00000002400008060000000e0000300320001
:1026c00041c7a90060012000fc040700013a800016
:1026d00000082000008060000000e00003003200dd
:1026e00040e7a90070012000f4040700013a8000cf
:1026f00000042000008060000000e00003003200c1
:1027000040c7a90080012000ec04070090012000d0
:10271000ea0407000080fa00000006000000fa004a
:10272000889fbe00d0408000e14080000200200071
:1027300003002400070d07000002be00804880004f
:102740009148800018c0b3000001be000400be0024
:10275000a20d07000000e00001003d000044eb0076
:102760000804e000040032006000b800c04888009f
:10277000d148880033003700e0488000f1488000ed
:1027800018c0b300d2cc2c00c3d42300910d070095
:102790000000e000010035000044eb000804e00008
:1027a00028003200e0488000f148800018c0b300e3
:1027b000d2cc2c00c3d42b00880d07000000e00011
:1027c00001003c000044eb000804e0001d00320062
:1027d0008048800091488000a0488800b148880067
:1027e000a4488000b5488000d0408000e1408000cf
:1027f0000001be000400be00d60c07000004be00ad
:10280000b4408000c5408000d0408000e14080009e
:102810000001be000400be00ce0c07000001be0097
:102820000800be00290d070002002000832c2400b0
:10283000000e0700c0488800d14888001000200022
:10284000004988004f04be000080fa000000060026
:102850000400fa006000b800008fbe00a04a8000ab
:10286000b14a800001f0a200008fbe00404b800002
:10287000e40f50000f003a00d0438000e143800095
:102880000001be001e00be00b20c07008047880099
:102890009147880050002000404b8800a0478000ee
:1028a000e50f50000200320010002000a047880011
:1028b0002e29ef00404b8000e10f500008003a0045
:1028c0006000b8008047880091478800a105070094
:1028d00040002000404b8800100020007049880014
:1028e0000080fa00000006002000fa00881f78002f
:1028f0006000b800008fbe006000b800200798009c
:10290000310798006000b800400798005107980010
:102910006000b8006007980071079800e2488000e6
:10292000f34880004207980053079800e24880006f
:10293000f3488000620798007307980000002000a9
:1029400001f82300f04688000147880024488000f1
:1029500035488000d0428000e142800018c0b300ba
:102960000001be000400be001c0d07000000e000d6
:1029700001003c000044eb000804e0000d003a00b8
:10298000244880003548800090428000a1428000a9
:1029900018c0b3000001be000400be000d0d07000a
:1029a0000000e000010035000044eb000804e000f6
:1029b00004003200d0cc2c00c1f42300f046880083
:1029c000014788002448800035488000704280001c
:1029d0008142800018c0b3000001be000400be00a8
:1029e000fc0c07000000e000010035000044eb0093
:1029f0000804e000040032000000200001f0230081
:102a0000f04688000147880014418000254180007d
:102a100080458000914580000001be000400be009a
:102a2000840d07000002be00f046800001478000d0
:102a30000001be000400be007e0d0700008fbe0036
:102a4000304180004141800018c0b3000001be0049
:102a50001e00be00df0c07000000e0000100350092
:102a60000044eb000804e0000d003a002448800018
:102a700035488000704280008142800018c0b30059
:102a80000001be000400be00d20c07000000e00000
:102a9000010035000044eb000804e00003003200b0
:102aa0003241800043418000028fbe0018c0b30055
:102ab0006011b8004e009000de009000c50c0700c9
:102ac0000000e000010035000044eb000804e000d5
:102ad000060032004e009000de00900001f0a200df
:102ae0004007980051079800030037006000b800c5
:102af00040079800510798000000200001f82300cb
:102b0000f04688000147880024488000354880004e
:102b1000304280004142800018c0b3000001be0076
:102b20000400be00ad0c07000000e00001003c0006
:102b30000044eb000804e0000d003a002448800047
:102b400035488000f04180000142800018c0b30089
:102b50000001be000400be009e0c07000000e00063
:102b6000010035000044eb000804e00004003200de
:102b7000d0cc2c00c1f42300f04688000147880027
:102b80005441800065418000704180008141800097
:102b90000001be000400be00260d07000002be00ba
:102ba000f0468000014780000001be000400be0026
:102bb000200d070020079800310798002448800066
:102bc00035488000104280002142800018c0b300c8
:102bd0000001be000400be00800c07000000e00001
:102be00001003c000044eb000804e0000d003a0046
:102bf0002448800035488000d0418000e1418000b9
:102c000018c0b3000001be000400be00710c070034
:102c10000000e000010035000044eb000804e00083
:102c2000030032006000b8002007980031079800c8
:102c300018c0b3006011b8006e009000fe00900054
:102c4000640c07000000e000010035000044eb00c8
:102c50000804e000030032006000b800600798003c
:102c6000710798007029ef00d11680000010200035
:102c7000008060000000e000ff003200a04b8000f8
:102c8000e90f5000fc003a00c882a800504b8000b9
:102c9000e10f500006003200e0c2a8002050800082
:102ca000e30f500002003a0020002000205088006e
:102cb0006000b800200f9800310f98003047800066
:102cc000414780000200200003f02300a10b070011
:102cd000200f9800310f9800b14b8000f0e12400e4
:102ce000808f50001c003c006011b8006e00900006
:102cf000fe009000370c07000000e00016003a00cc
:102d000000178000620060000000e0001200320046
:102d1000804880009148800018c0b3002e099000c0
:102d2000be0990002b0c07000000e00001003500f8
:102d30000044eb000804e00007003200205080004f
:102d40000000e00004003a00b04b80000000e80002
:102d5000b04b880015003700b14b8000f0e1240033
:102d6000808f50000b00340000178000620060006c
:102d70000000e00007003200b00120004f03070010
:102d800010002000504b88007629ef00e0c2a90017
:102d900006003700b04b80000000e0000300340064
:102da000b04b80000000e900b04b880018c0b300b1
:102db000a2702d0033c223006e009000fe00900030
:102dc000060c07000000e00001003c000044eb009e
:102dd0000804e00011003a003047800041478000bd
:102de000a299290093e123005a0b07000002be00bc
:102df000804880009148800018c0b3000001be00e8
:102e00000400be00f30b07000000e00001003400e6
:102e10000044eb000804e00004003200504280004f
:102e200061428000180207000c0037006011b800f2
:102e30006e009000fe009000e60b07000000e0002e
:102e400006003a00b04c80000000e00003003400af
:102e5000b04c80000000e900b04c88006000b80071
:102e6000000f9800110f9800304780004147800004
:102e7000d2cc2c00c3d42300370b07000002be00c5
:102e8000804880009148800018c0b3000001be0057
:102e90000400be00cf0b07000000e0000100350079
:102ea0000044eb000804e00002003200f628ef00c6
:102eb000130037003047800041478000d2cc2c00ff
:102ec000c3d42300230b07000002be00804880000b
:102ed0009148800018c0b3000001be000400be008d
:102ee000be0b07000000e00001003c000044eb00c6
:102ef0000804e0000200320010002000b047880003
:102f0000b04780000000e000050032002e01900074
:102f1000be019000020f9800130f980003003700c5
:102f20006000b800000f9800110f9800a0478000c3
:102f3000e20f50004e003200205080000000e00000
:102f40004b003a00a04c80000000e000110034006b
:102f5000b0408000c1408000a2702d0033c2230029
:102f6000fc0a07000002be008048800091488000f3
:102f700018c0b3000001be000400be00950b07009e
:102f80000000e000010034000044eb000804e00011
:102f90000e003a00a2702d0033c223000e089000ec
:102fa0009e089000ec0a070018c0b3006e01900064
:102fb000fe019000870b07000000e00001003500d3
:102fc0000044eb000804e00004003200a04c800044
:102fd0000000e900a04c880023003700a14c8000cd
:102fe00040062000808f500011003c00b04080005f
:102ff000c140800092c22500f3d82300d50a070003
:103000000002be00804880009148800018c0b300d4
:103010000001be000400be00700b07000000e000cd
:1030200001003c000044eb000804e0000b003a0003
:1030300018c0b3000e0990009e0990006e00900029
:10304000fe009000630b07000000e0000100350067
:103050000044eb000804e00003003200a04c8000b4
:103060000000e800a04c88000000000009003700c4
:103070009429ef0007003700c882a9009429ef00c7
:10308000d821ef00e0c2a9003000200020508800c5
:103090007629ef0000178000620060000000e00069
:1030a00003003200604b8000e10f50000d013a0038
:1030b000a04b8000e90f5000040032003150800026
:1030c000f05f2500808f500006013a00504b8000d1
:1030d000e10f500006003200e022a80010508000ee
:1030e000e30f500002003a0020002000105088003a
:1030f000d116800000102000008060000000e00079
:1031000003003a00f0428000014380005e010700a6
:1031100031508000f05f2500808f500003003a009e
:10312000804c8000904c8800f800370010508000e0
:103130000000e000f4003a006000b800400f980082
:10314000510f98002448800035488000b04280002c
:10315000c14280000001be000400be007d0a0700dd
:10316000400f9800510f9800d04f8000e14f800031
:103170004e099000de099000ae0b07000002be0071
:1031800030468000414680000001be000400be00c1
:10319000a80b07000002be00b0468000c1468000b8
:1031a0000001be000400be006b0a0700b0468800a4
:1031b000c1468800b4468000c5468000b04080000b
:1031c000c140800018c0b3000001be000400be0072
:1031d000020b07000000e00001003c000044eb008f
:1031e0000804e00005003200b0408000c1408000cb
:1031f000b0468800c146880011003700b446800000
:10320000c5468000d0408000e140800018c0b30077
:103210000001be000400be00ee0a07000000e0004e
:10322000010035000044eb000804e0000400320017
:10323000d0408000e1408000b0468800c146880050
:103240006000b800600f9800710f980084488000fb
:1032500095488000b0468000c14680000001be0055
:103260000400be003b0a0700600f9800710f980031
:10327000b04f8000c14f80006e099000fe099000a1
:103280006c0b07000002be00304680004146800003
:103290000001be000400be00660b07000002be0075
:1032a00090468000a14680000001be000400be00e0
:1032b000290a070090468800a146880090468000b1
:1032c000a146800018c0b3001e01be00c30a07005b
:1032d0000000e00001003c000044eb000804e000b6
:1032e000040032001e01be0092468800a3468800fa
:1032f0000d00370090468000a146800018c0b30042
:103300006011b800b30a07000000e00001003500ba
:103310000044eb000804e000030032006000b80045
:1033200090468800a146880094468000a54680000b
:10333000b0418000c141800018c0b3000001be0050
:103340000400be00a50a07000000e00001003c00e8
:103350000044eb000804e00004003200b0418000ab
:10336000c141800090468800a146880090468000b8
:10337000a14680004e019000de019000f509070093
:103380000002be00904f8000a14f80000001be00ef
:103390000400be00270b07005046880061468800e5
:1033a000504680006146800018c0b300020024002f
:1033b000c3612400890a07000000e00001003c000e
:1033c0000044eb000804e000050032000000240087
:1033d000c161240050468800614688000f00370014
:1033e000504680006146800018c0b30002002400ef
:1033f000c3612c00770a07000000e00001003500df
:103400000044eb000804e000040032000000240047
:10341000c1612c0050468800614688003446800017
:103420004546800050468000614680000001be0095
:103430000400be00ff0a07000002be0070468000c4
:10344000814680000001be000400be00c2090700e2
:103450007046880081468800704680008146800062
:1034600018c0b30002002000e32b24005b0a070011
:103470000000e00001003c000044eb000804e00014
:103480000500320000002000e12b24007046880077
:10349000814688000d00370070468000814680001c
:1034a00018c0b3006011b8004a0a07000000e0002d
:1034b000010035000044eb000804e0000300320086
:1034c0006000b80070468800814688007046800021
:1034d00081468000430a070000007800904c880075
:1034e0000a0037009229ef00da21ef00e022a9005c
:1034f0006000b800704688008146880030002000d7
:103500001050880001003700000000008049800052
:103510000000e00005003a009629ef00d621ef00f8
:10352000cfe2a9003000200000508800504b8000fe
:10353000e10f500002003a00860207000600370043
:10354000b04c8000b00e8800a04c8000c00e8800f7
:10355000904c8000d00e88004f0478000080fa0064
:10356000000006001a00fa00881f78006000b8000a
:103570002007980031079800f026210031a8230089
:1035800040079800510798006000b800008fbe0007
:1035900000002000812c240060079800710798002b
:1035a0000000eb00000f98006000b800100f9800ba
:1035b000210f98006000b800300f9800410f98006c
:1035c0003e099000ce0990001e089000ae089000c1
:1035d0006009070020079800310798006e019000ed
:1035e000fe0190002e009000be009000910a07009e
:1035f0004e019000de0190008e0a07000001be001f
:103600001e00be0054090700008fbe0018c0b300a2
:1036100002f02f00f37724001e00be00ef09070020
:103620000000e00001003c000044eb000804e00062
:103630000400320000f02f00f1772400008fbe005c
:103640000b00370018c0b3006011b8001e00be00a8
:10365000e00907000000e000010035000044eb0035
:103660000804e000020032006000b800008fbe00d5
:103670001e00be00db090700000f98004f04780011
:103680000080fa00000006000400fa00881f78009d
:10369000008fbe00a0478000e30f50003d003a00bd
:1036a0000200200003f023001e00be0029090700cd
:1036b0000002be00204880003148800018c0b300de
:1036c0000001be000400be00c40907000000e000c5
:1036d00001003c000044eb000804e000110032004f
:1036e000b14c800070478000808f50000d003d007d
:1036f000005080000000e00003003a00b04c800061
:103700000000e800b04c8800cfe2a8000050800024
:10371000e30f50001f003a002000200000508800f6
:103720001c0037000200200003f023001e00be0032
:10373000090907000002be002048800031488000cf
:1037400018c0b3000001be000400be00a1090700bc
:103750000000e000010035000044eb000804e00038
:103760000c003200b04c80000000e0000900340082
:10377000b04c80000000e900b04c8800b04c8000e4
:103780000000e00001003c00cfe2a9003000200072
:10379000005088004f0478000080fa000000060006
:1037a0000800fa0020079800310798000000eb009d
:1037b000000f7800c0448000ea0f5000050034007c
:1037c0003e019000d1672b00300020005d0507000e
:1037d000b8003700c04480000000e00005003a0057
:1037e0003e019000516a2b00300020005505070073
:1037f000b0003700c04480009e007800808f5000e9
:10380000ac003d001e007800800040004088200091
:1038100000804000100078006101b9000080eb00da
:103820008080eb00020040008380480052022000ac
:1038300003002000820f5000838f580099003e0043
:1038400000600100250037002700370029003700fd
:103850002b0037002d0037002f00370031003700d4
:1038600033003700350037003700370039003700a4
:103870003b0037003d0037003f0037004100370074
:103880004300370045003700470037004900370044
:103890004b0037004d0037004f0037005100370014
:1038a00053003700550037005700370059003700e4
:1038b0005b0037005d0037005f00370061003700b4
:1038c0006300370065003700670037006900370084
:1038d0006b0037006d0037006f00370040242b006d
:1038e0001007980072003700b0252b0010079800d1
:1038f0006f003700f0262b00100798006c0037008f
:1039000060282b001007980069003700c0292b00a1
:103910001007980066003700402b2b001007980016
:1039200063003700902c2b001007980060003700d0
:10393000f02d2b00100798005d003700202f2b0082
:10394000100798005a003700e0302b00100798004d
:103950005700370010332b00100798005400370031
:1039600010342b00100798005100370080352b00d1
:10397000100798004e00370050372b0010079800b2
:103980004b00370000392b00100798004800370023
:10399000903a2b001007980045003700103c2b0090
:1039a0001007980042003700e03d2b0010079800f8
:1039b0003f003700503f2b00100798003c003700b5
:1039c000d0402b00100798003900370050422b00e0
:1039d000100798003600370010442b00100798009d
:1039e0003300370010482b001007980030003700d4
:1039f000e0492b00100798002d003700e04b2b000a
:103a0000100798002a003700a04c2b0010079800e0
:103a100027003700f04d2b001007980024003700d6
:103a200010502b00100798002100370000532b0086
:103a3000100798001e00370000552b001007980053
:103a40001b003700f0562b001007980018003700b5
:103a5000f0582b001007980015003700e05a2b0093
:103a60001007980012003700b05c2b001007980078
:103a70000f003700705e2b00100798000c00370015
:103a8000a0602b001007980009003700c0622b00cf
:103a90001007980006003700b0642b00100798004c
:103aa0000300370090662b0010079800000000000c
:103ab00054ff37000080fa00000006000200fa0000
:103ac000000f7800c0448000e90f500009003c005e
:103ad000c0448000800040004088200000804000fa
:103ae0001e087800c04480000000e800c044880040
:103af00002003700b0002000c04488000080fa00b7
:103b0000000006000400fa00881f7800a04780002b
:103b1000e20f500057003a0080498000e10f50004a
:103b200054003a006000b800008fbe008448800056
:103b300095488000e0488000f14880000001be0008
:103b40000400be003b09070001f0a200008fbe0088
:103b500090438000a143800018c0b3000001be0064
:103b60001e00be009b0807000000e00001003500b9
:103b70000044eb000804e0003a0032007047800087
:103b80000000e8007047880070478000b00e880091
:103b900071478000f0052000808f5000070034003e
:103ba00010002000c5ff070040002000a04788004b
:103bb000120020001e00be00bf04070071478000f5
:103bc00020032000808f50001100340018c0b30083
:103bd00002002000030024001e00be007d08070034
:103be0000000e000010035000044eb000804e000a4
:103bf0000700320020002000b0ff07004000200036
:103c0000a0478800120020001e00be00aa04070082
:103c100070478000e40f500016003c0018c0b3004d
:103c200002002000031224001e00be006b080700e3
:103c30000000e00001003c000044eb000804e0004c
:103c40000c003200300020009cff070040002000e4
:103c5000a0478800120020001e00be009604070046
:103c60000400370030002000a0478800d621ef0074
:103c70002e29ef00a0478000e10f50000c003a0011
:103c8000404b8000e50f500009003a00d621ef00bc
:103c900072060700af00070010002000704988007e
:103ca000ee28ef009629ef0020002000a0478800b2
:103cb000a0478000e40f500004003a00d621ef0036
:103cc000ee28ef009629ef002e29ef004f04780030
:103cd0000080fa00000006000000fa00881f78004b
:103ce000844880009548800090408000a14080007a
:103cf00018c0b3000001be000400be003708070072
:103d00000000e00001003d000044eb000804e0007a
:103d1000030032007000200068ff070082000700e7
:103d20008448800095488000f04080000141800078
:103d300018c0b3000001be000400be002508070043
:103d40000000e000010035000044eb000804e00042
:103d500008003200d11680000010200000806000b2
:103d60000000e00003003a004000200053ff07007d
:103d700016070700e0488000f148800018c0b30033
:103d80006011b800130807000000e00001003500d2
:103d90000044eb000804e00006003200e048800028
:103da000f148800001f0a2002049880031498800d4
:103db000030037006000b8002049880031498800be
:103dc000244980003549800090418000a141800055
:103dd00018c0b3000001be000400be00ff070700ca
:103de0000000e00001003c000044eb000804e0009b
:103df0000a00320010498000e50f50000400340032
:103e0000500020002dff0700470007002229ef0087
:103e1000104980000000e80010498800e448800054
:103e2000f5488000104780002147800018c0b3008b
:103e30000001be000400be00e80707000000e0002b
:103e400001003c000044eb000804e00003003200e5
:103e50006000200019ff070033000700244880009d
:103e600035488000104380002143800018c0b30013
:103e70000001be000400be00d80707000000e000fb
:103e800001003c000044eb000804e00003003200a5
:103e90008000200009ff070023000700644880001d
:103ea00075488000304380004143800018c0b30053
:103eb0000001be000400be00c80707000000e000cb
:103ec00001003c000044eb000804e0000300320065
:103ed00090002000f9fe070013000700444880000e
:103ee00055488000304380004143800018c0b30033
:103ef0000001be000400be00b80707000000e0009b
:103f000001003c000044eb000804e0000300320024
:103f1000a0002000e9fe0700030007004f0478001e
:103f20000080fa00000006000000fa000900070007
:103f300010002000504b88006c29ef002e29ef0064
:103f40007029ef00b0002000dcfe07000080fa00be
:103f5000000006000000fa00d621ef00d821ef0093
:103f6000da21ef00d422a900300020001050880090
:103f7000e002a900e0c2a900300020002050880023
:103f8000cfe2a9003000200000508800c902a9003b
:103f90009629ef009429ef009229ef006000b80005
:103fa00090468800a14688006000b80070468800ee
:103fb000814688000080fa00000006000200fa0036
:103fc000000f78001e017800f16b2b0030002000fc
:103fd0005c03070080488000914880001e01780043
:103fe000b50307001e017800816c2b000000eb0078
:103ff000540307001e017800a16c2b003000200044
:1040000050030700a0488000b14880001e017800de
:10401000a90307001e017800816c2b000000eb0053
:10402000480307001e017800316d2b00300020008e
:104030004403070030478000414780001e0178009c
:104040009d0307001e017800816c2b000000eb002f
:104050003c0307001e017800d16d2b0030002000ca
:1040600038030700a04a8000b14a80001e01780092
:10407000910307001e017800316e2b000000eb0059
:10408000300307001e017800516e2b003000200025
:104090002c03070040458000514580001e01780038
:1040a000850307001e017800f16e2b000000eb0075
:1040b000240307001e017800216f2b003000200030
:1040c00020030700c0478000d14780001e01780010
:1040d000790307001e017800a16f2b000000eb00a0
:1040e00018030700e0478000f14780001e017800b8
:1040f000710307001e01780011702b000000eb0017
:104100001003070000488000114880001e0178005d
:10411000690307001e017800316e2b000000eb00e0
:10412000080307001e01780091702b00300020006a
:104130000403070020488000314880001e017800f9
:104140005d0307001e01780041712b000000eb00a9
:10415000fc0207001e01780061712b003000200076
:10416000f802070060488000714880001e01780056
:10417000510307001e01780041712b000000eb0085
:10418000f00207001e01780011722b0030002000a1
:10419000ec02070040488000514880001e01780072
:1041a000450307001e01780041712b000000eb0061
:1041b000e40207001e017800a1722b0030002000ed
:1041c000e002070080478000914780001e017800d0
:1041d000390307001e017800316e2b000000eb0050
:1041e000d80207001e01780051732b002000200028
:1041f000d40207000080fa00000006000000fa0068
:104200003104800000202000008060000000e000f9
:104210000f003a00f04b80000000e0000c003a0074
:10422000c0c0b300bae9b70020c1b300bbe9b70012
:10423000e0c0b300bce9b700b829ef0020002000bf
:10424000b04d88008720a80010002000f04b8800a7
:104250000080fa00000006000400fa00881f7800c1
:104260003104800000202000008060000000e00099
:10427000ad003a00f04b8000e10f5000aa003a0078
:10428000b829ef00c14d8000a09b200000804000b5
:1042900061c1b3000148780010002000c04d8800c3
:1042a000804880009148800032002000020307000f
:1042b00060002000c04d88003200200071732b0088
:1042c0000000eb009f02070080002000c04d880026
:1042d00010002000604d8800c44a8000d54a80004c
:1042e000a04a8000b14a80000001be000400be0068
:1042f0005007070032002000ef020700d000200026
:10430000c04d880032002000a1732b000000eb009c
:104310008c020700f0002000c04d88006000b8004b
:10432000008fbe008445800095458000d044800009
:10433000e14480000001be000400be0063060700e7
:1043400002002000832c24003a070700008fbe00e3
:1043500018c0b30002002000832c24001e00be0001
:104360009e0607000000e00001003d000044eb0055
:104370000804e0000e0032003200200051732b00d0
:104380000000eb006f020700320020001e00be009c
:10439000c902070040012000c04d88003200200003
:1043a000d1732b000000eb00660207000900370004
:1043b000320020001e00be00bf02070040012000a6
:1043c000c04d880032002000d1732b000000eb00ac
:1043d0005c02070050012000c04d88003000200022
:1043e0009b03070030002000cb0307007001200072
:1043f000c04d880032002000f1732b000000eb005c
:104400005002070090012000c04d8800ac29ef0049
:10441000204880003148800032002000a6020700ba
:10442000e0012000c04d88003200200031742b00d4
:104430000000eb004302070000022000c04d88008e
:1044400018c0b30002002000031224001e00be00aa
:10445000600607000000e000010035000044eb00aa
:104460000804e0000d003200704b80000000e00006
:10447000050032003200200081742b000000eb00a8
:1044800030020700090037003200200041752b0080
:104490000000eb002b020700040037003200200070
:1044a00041752b000000eb0026020700a00220004f
:1044b000c04d8800c04480000000e0000d003200c4
:1044c000704b80000000e000050032003200200048
:1044d00001762b000000eb001a0207000a003700eb
:1044e0003200200051732b000000eb001502070082
:1044f000050037003200200051732b000000eb0054
:10450000100207008029ef0020c1b300e6e9b700e0
:10451000e0c0b300e7e9b700b829ef00d0022000ff
:10452000b04d88008720a8004f0478000080fa0072
:10453000000006000400fa00881f780031048000a3
:1045400000202000008060000000e000f2003a003f
:10455000f04b8000e10f5000ef003a00b829ef0067
:10456000c14d8000a09b20000080400061c1b300cd
:104570000148780010002000c04d8800804880006d
:1045800091488000320020004b02070060002000ac
:10459000c04d88003200200071732b000000eb003a
:1045a000e801070080002000c04d880010002000b6
:1045b000604d8800c44a8000d54a8000a04a80002f
:1045c000b14a80000001be000400be009906070049
:1045d0003200200038020700d0002000c04d8800c3
:1045e00032002000a1732b000000eb00d501070072
:1045f000f0002000c04d88006000b800008fbe00b1
:104600008445800095458000d0448000e1448000ce
:104610000001be000400be00ac050700020020003f
:10462000832c240083060700008fbe0018c0b3004f
:1046300002002000832c24001e00be00e7050700b6
:104640000000e00001003d000044eb000804e00031
:104650000e0032003200200051732b000000eb00ee
:10466000b8010700320020001e00be001202070041
:1046700040012000c04d880032002000d1732b0083
:104680000000eb00af0107000900370032002000f6
:104690001e00be000802070040012000c04d880037
:1046a00032002000d1732b000000eb00a5010700b1
:1046b00050012000c04d880030002000e4020700b7
:1046c000300020001403070070012000c04d880056
:1046d000a04a8000b14a800018c0b300d2cc2c00a0
:1046e000c3dc2300bd0507000000e00001003c0022
:1046f0000044eb000804e000050032003200200016
:1047000021762b000000eb008e010700140037001b
:10471000a04a8000b14a800018c0b300d2cc2c005f
:10472000c3dc2b00ab0507000000e00001003500f2
:104730000044eb000804e0000500320032002000d5
:1047400081762b000000eb007e010700040037009b
:1047500032002000e1762b000000eb007901070019
:10476000c0012000c04d8800b04c80000000e00077
:10477000050034003200200041772b000000eb00e0
:10478000700107000400370032002000d1772b00b1
:104790000000eb006b01070040022000c04d8800c4
:1047a000c04480000000e00052003200704b8000e6
:1047b0000000e00021003200c04480008000e900d9
:1047c000004c8000808f500002003c008029ef00e8
:1047d00003003700004c80000000e800004c880017
:1047e000c04480008000e900004c8000808f5000b1
:1047f00005003a003200200061782b000000eb0039
:104800005001070023003700004c80000000e0004a
:1048100005003a0032002000e1782b000000eb0098
:10482000480107001b0037003200200061792b008f
:104830000000eb004301070016003700c044800071
:104840008000e900004c8000808f500005003a0095
:104850003200200061782b000000eb0039010700d6
:104860000c003700004c80000000e00005003a001a
:1048700032002000e1782b000000eb00310107003e
:10488000040037003200200061792b000000eb00ab
:104890002c010700004c8000800040004088200070
:1048a0000080400090007800000f200080806000b1
:1048b0000001200000017800110009008200d800ea
:1048c000e5000700e3e9b700004c800080004000ed
:1048d0004088200000804000100078006f006000d9
:1048e000dd000700e4e9b70080c6b300e5e9b700e2
:1048f0000500370032002000e1792b000000eb00ba
:10490000100107008029ef00b829ef00b002200055
:10491000b04d88008720a8004f0478000080fa007e
:10492000000006000400fa00100798000000eb00e9
:10493000000f78009e009000f01f2000808f500034
:104940000200340010002000150037001e00900007
:1049500000004000000f78009e00780000c02f008b
:1049600000804000000f7800f0072000203b880006
:104970001e007800103b880040042400003b8800a3
:1049800050052000303b8800a00a2000303b880002
:10499000000000000000000061e7a8000000eb003c
:1049a0000080fa00000006000600fa0010079800d8
:1049b000210798000000eb00000f78009e00900097
:1049c000f01f2000808f50000200340010002000f3
:1049d000190037001e00900000004000000f780012
:1049e0009e00780000c02f0000804000000f78007b
:1049f000f007200010008800910188002e00900030
:104a0000200088001e007800000088000208bb001b
:104a100040002400003b880050052000303b880007
:104a2000a00a2000303b88000000000000000000c9
:104a300061e7a8000000eb000080fa00000006001b
:104a40000400fa00100798000000eb00000f780047
:104a50009e009000f01f2000808f50000200340064
:104a60000000eb000f0037001e0090000000400027
:104a7000000f78009e00780000c02f0000804000ea
:104a8000000f7800f0c7b30032e0b7001e007800d6
:104a9000000088001002ba000000000000000000c2
:104aa000400080000080fa00000006000200fa00ca
:104ab000881f7800000f78001e007800e10f50007a
:104ac00017003a00004c8000800040004088200021
:104ad0000080400090007800000f2000808060007f
:104ae0000001200000017800110009008200d800b8
:104af000590007000000fb0080108800004c800077
:104b000080004000408820000080400010007800b5
:104b10006f006000500007000000fb00801088005c
:104b20001e007800e20f500017003a00004c800091
:104b30008000400040882000008040009000780005
:104b4000000f20008080600000012000000178003c
:104b5000110009008200d8003f0007000000fb00a0
:104b6000d0108800004c8000800040004088200069
:104b700000804000100078006f00600036000700e1
:104b80000000fb00d01088001e007800e30f5000ea
:104b900029003a00c14d8000c0022000808f5000e3
:104ba00003003c00c04d80000000e800c04d8800bc
:104bb000c84d8000004c80008000400040882000ec
:104bc0000080400090007800000f2000808060008e
:104bd0000001200000017800110009008200d800c7
:104be0001d000700a19b2000810044008048780040
:104bf000c14d8000c0022000808f500003003c00a7
:104c0000c04d80000000e800c04d8800c84d800005
:104c1000004c800080004000408820000080400060
:104c2000100078006f0060000b000700a19b2000bf
:104c300081004400804878001e0078000000e000f9
:104c400002003a00a00120009cfb07004f047800fe
:104c50000080fa00000006000600fa002007980015
:104c60000040eb00004f78000000eb0010079800b8
:104c70002e0090006f006000100798001e0090004a
:104c8000e90f500005003c001e0090000040780035
:104c90000043b000004f7800040037001e00900071
:104ca000004078007043b000004f78001e4078004c
:104cb0000080fa00000006000400fa00004f7800af
:104cc00011079800010037000000000071108000fb
:104cd00000202000008060000000e00006003a0094
:104ce0001e009000e10f500003003a001e00fb0080
:104cf0008010880011003700c110800000202000c3
:104d0000008060000000e00006003a001e009000f5
:104d1000e20f500003003a001e00fb00d010880094
:104d2000060037001e0090000000e000e6ff3a0099
:104d3000a001200061fb0700000000000080fa00d5
:104d4000000006000800fa001007980021079800ec
:104d5000320798000000eb00000f78001e00900062
:104d6000e10f5000030032001e009000e30f5000de
:104d70003e003a003e009000350107003e009000e2
:104d8000650107003a003700711080000020200004
:104d9000008060000000e0000a003a003e00900041
:104da000e10f500007003a001e007800ae009000ae
:104db00000804000104078000000fb008010880058
:104dc0001e0fe800c110800000202000008060005d
:104dd0000000e0000a003a003e009000e20f5000a0
:104de00007003a001e007800ae00900000804000ee
:104df000104078000000fb00d01088001e0fe80073
:104e00003e009000e30f500010003a00c14d8000ba
:104e1000c0022000808f500003003c00c04d800085
:104e20000000e800c04d8800c24d80001e007800e0
:104e3000ae0090000080400090407800a09b2000d1
:104e400000004100014878001e0fe8003e0090007d
:104e50000000e00006003a00a001200017fb070058
:104e60000000eb00000f7800070037000000000092
:104e70001e007800ae0090000080400010407800d6
:104e80000004e000c0ff3a001e009000e20f500056
:104e9000030032001e009000e30f500004003a00af
:104ea0003e009000ea0007003e0090001a01070053
:104eb0000080fa00000006001000fa00881f780049
:104ec0005007980061079800720798000000eb00f7
:104ed000000f78006000b8001007980021079800c4
:104ee0000000eb004007980000c2b300aee9b70035
:104ef00018c0b3006011b8005e009000ee00900092
:104f0000b40307000000e000010035000044eb009e
:104f10000804e000070032005e009000ee00900000
:104f200001f0a2005007980061079800d0c2b300ba
:104f3000aee9b70018c0b300f2ff2300c36124003c
:104f40005e009000ee009000a40307000000e00067
:104f500001003c000044eb000804e00006003200c1
:104f6000f0ff2300c16124005007980061079800fa
:104f7000f0c3b300aee9b70002002000a34724004d
:104f80005e009000ee0090005003070010079800ac
:104f9000210798001e0fe8001e0037001e00780051
:104fa000e50f500003003a00e0c2b300b3e9b700d8
:104fb0001e0fe8001e009000ae009000890307005d
:104fc000400798004e009000004078000043b00079
:104fd00080407800e09a20001e00400001487800e0
:104fe0001e0fe8004e009000cf80de00b9030700de
:104ff0000001be001e009000ae009000d502070028
:1050000002002000031224000a0407001007980081
:10501000210798001e007800e80f5000dfff3400e1
:105020000000eb00000f780010002000300798000f
:1050300080003700e09a20001e0040009040780079
:1050400000c3b30080cf50002f003a003e00900014
:105050000000e0002c003200604d80000000e00005
:1050600027003200711080000020200000806000c6
:105070000000e00006003a007e009000e10f5000c2
:1050800003003a0000022000801088001e0fe80094
:10509000c110800000202000008060000000e000bf
:1050a00006003a007e009000e20f500003003a0034
:1050b00000022000d01088001e0fe8007e00900043
:1050c000e30f500046003a00c14d8000c0022000ae
:1050d000808f500003003c00c04d80000000e800bd
:1050e000c04d8800c14d8000a09b20000080400082
:1050f00001c2b300014878001e0fe80039003700f4
:105100001e0fe800370037007110800000202000db
:10511000008060000000e00009003a007e0090007e
:10512000e10f500006003a00e09a20001e00400007
:10513000104078000000fb00801088001e0fe8007f
:10514000c110800000202000008060000000e0000e
:1051500009003a007e009000e20f500006003a007d
:10516000e09a20001e004000104078000000fb0084
:10517000d01088001e0fe8007e009000e30f500062
:105180000f003a00c14d8000c0022000808f500007
:1051900003003c00c04d80000000e800c04d8800c6
:1051a000c24d8000e09a20001e0040009040780030
:1051b000a09b200000004100014878001e0fe8007d
:1051c0007e0090000000e00006003a00a0012000f0
:1051d0003afa07000000eb00000f780018003700d3
:1051e00000000000e09a20001e004000904078007f
:1051f00000c3b30080cf50000e003200e09a2000c0
:105200001e00400090407800d0c2b30080cf500014
:1052100008003200e09a20001e0040009040780014
:1052200000c2b30080cf5000020032000000eb004b
:10523000300798001e007800e80f50007dff340012
:10524000ac29ef004f0478000080fa00000006004f
:105250000200fa00000f7800010037000000000093
:105260007110800000202000008060000000e0003d
:1052700006003a001e007800e10f500003003a00db
:10528000a00020008010880021003700c11080009d
:1052900000202000008060000000e00006003a00ce
:1052a0001e007800e20f500003003a00a00020002a
:1052b000d0108800160037001e007800e30f500061
:1052c0000d003a00c14d8000c0022000808f5000c8
:1052d00003003c00c04d80000000e800c04d880085
:1052e000c14d8000a09b200000804000a1c0b30001
:1052f00001487800060037001e0078000000e0003a
:10530000d6ff3a00a0012000ecf9070000000000e1
:105310000080fa00000006000200fa00000f78008a
:105320000100370000000000711080000020200004
:10533000008060000000e00006003a001e007800d7
:10534000e10f500003003a00d000200080108800d8
:1053500021003700c1108000002020000080600084
:105360000000e00006003a001e007800e20f500046
:1053700003003a00d0002000d0108800160037004b
:105380001e007800e30f50000d003a00c14d800070
:10539000c0022000808f500003003c00c04d800000
:1053a0000000e800c04d8800c14d8000a09b200097
:1053b00000804000d1c0b3000148780006003700eb
:1053c0001e0078000000e000d6ff3a00a001200097
:1053d000baf90700000000000080fa000000060093
:1053e0001200fa00500798006107980072079800b1
:1053f000030f980002402200439724007e00900093
:105400008e0890000b030700008fbe005e01900025
:10541000ee0190001e00be002c02070002002000da
:1054200003182400290207000200200003f82300cb
:10543000c801070020079800310798002e0090004f
:10544000be00900088020700400798004e009000c0
:105450000080fa00000006000000fa0070562400e8
:1054600000408800000020008134240010408800a3
:1054700021408800000020000118240030408800ee
:10548000414088006000b8005040880061408800ba
:105490006066260061f62300704088008140880025
:1054a000c01e2500c126240090408800a14088002d
:1054b00030332300b1262400b0408800c14088006a
:1054c000d0cc2c00c1212400d0408800e1408800cd
:1054d00000002000c1202400f04088000141880025
:1054e00000002000010024001041880021418800b4
:1054f00000002000010a240030418800414188005a
:105500000000200001f02300504188006141880024
:1055100000002000011b24007041880081418800a8
:1055200000002000011f240090418800a141880054
:1055300000002000811c2400b0418800c141880087
:105540000000200001122400d0418800e1418800c1
:105550000000200001172400f0418800014288006b
:10556000000020000122240010428800214288000f
:1055700000002000c1202400304288004142880001
:1055800000002000811c24005042880061428800f5
:105590006000b8007042880081428800000020004e
:1055a0000112240090428800a142880000002000df
:1055b000c1252400b0428800c142880000002000bc
:1055c00081242400d0428800e142880000002000ad
:1055d00001172400f04288000143880000002000e9
:1055e0000127240010438800214388000000200088
:1055f000012a240030438800414388000000200035
:10560000812424005043880061438800000020006a
:10561000011f24007043880081438800000020009f
:105620008124240090438800a143880000002000ca
:1056300061492400b0438800c1438800d0cc2c00cd
:10564000c1d42300d0438800e143880080072000b4
:10565000f04388000080fa00000006000000fa0015
:10566000889fbe00113a8000f08f2f0000806000fc
:105670000080a000103a88004207a8004227a90035
:10568000f008200030168800ca22ef000080eb00ee
:10569000c0168800e0fb2f00f0168800e222ef0021
:1056a00010ff2f0090168800d622ef00cc22ef00ca
:1056b000d022ef0060002000000e8800c221ef0021
:1056c00010032000200e8800c621ef00000f2000ec
:1056d000400e8800ca21ef00cc21ef00d021ef005e
:1056e00000f02f00a00e8800d621ef00d821ef0097
:1056f000da21ef000e22ef000c22ef007050800044
:105700008150800094508000a55080000001be00b0
:105710000400be0032ff0700a01088000d42a80060
:105720001822ef0019e2a8001622ef007050800046
:1057300081508000b4508000c55080000001be0040
:105740000400be0026ff0700f01088000080eb0078
:10575000100888000021ef000421ef0021088000dc
