:020000040000fa
:080000000001040000000000f3
:020000040000fa
:04000800c80100002b
:020000040000fa
:04000c00a218000036
:020000040000fa
:04001000e8180000ec
:020000040000fa
:0400140010190000bf
:020000040000fa
:040018003819000093
:020000040000fa
:04001c00c801000017
:020000040000fa
:04002000c801000013
:020000040000fa
:04002400601900005f
:020000040000fa
:04002800400d000087
:020000040000fa
:04002c00c801000007
:020000040000fa
:04003000c801000003
:020000040000fa
:04003400ca110000ed
:020000040000fa
:04003800c8010000fb
:020000040000fa
:04003c00c8010000f7
:020000040000fa
:04004000181600008e
:020000040000fa
:04004400920e000018
:020000040000fa
:04004800c8010000eb
:020000040000fa
:04004c00fe100000a2
:020000040000fa
:040050004211000059
:020000040000fa
:04005400a80e0000f2
:020000040000fa
:04005800c8010000db
:020000040000fa
:04005c00c8010000d7
:020000040000fa
:04006000c8010000d3
:020000040000fa
:04006400c8010000cf
:020000040000fa
:040068004a0e00003c
:020000040000fa
:04006c00c8010000c7
:020000040000fa
:04007000c8010000c3
:020000040000fa
:04007400c8010000bf
:020000040000fa
:04007800c8010000bb
:020000040000fa
:04007c00c8010000b7
:020000040000fa
:04008000c8010000b3
:020000040000fa
:04008400c8010000af
:020000040000fa
:040088002011000043
:020000040000fa
:04008c0084110000db
:020000040000fa
:04009000c8010000a3
:020000040000fa
:04009400c80100009f
:020000040000fa
:04009800c80100009b
:020000040000fa
:04009c00c801000097
:020000040000fa
:0400a000c801000093
:020000040000fa
:0400a400c80100008f
:020000040000fa
:0400a800c80100008b
:020000040000fa
:0400ac00c801000087
:020000040000fa
:0400b000c801000083
:020000040000fa
:0400b400c80100007f
:020000040000fa
:0400b800c80100007b
:020000040000fa
:0400bc00c801000077
:020000040000fa
:0400c000c801000073
:020000040000fa
:0400c400c80100006f
:020000040000fa
:0400c800c80100006b
:020000040000fa
:0400cc00c801000067
:020000040000fa
:0400d000c801000063
:020000040000fa
:0400d4007a18000096
:020000040000fa
:0400d800c80100005b
:020000040000fa
:04010800c80100002a
:020000040000fa
:04010c00c801000026
:020000040000fa
:04011000c801000022
:020000040000fa
:04011400c80100001e
:020000040000fa
:04011800c80100001a
:020000040000fa
:04011c00c801000016
:020000040000fa
:04012000c801000012
:020000040000fa
:04012400c80100000e
:020000040000fa
:04012800c80100000a
:020000040000fa
:04012c00c801000006
:020000040000fa
:04013000c801000002
:020000040000fa
:04013400c8010000fe
:020000040000fa
:04013800c8010000fa
:020000040000fa
:04013c00c8010000f6
:020000040000fa
:04014000c8010000f2
:020000040000fa
:04014400c8010000ee
:020000040000fa
:04014800c8010000ea
:020000040000fa
:04014c00c8010000e6
:020000040000fa
:04015000c8010000e2
:020000040000fa
:04015400c8010000de
:020000040000fa
:04015800c8010000da
:020000040000fa
:04015c00c8010000d6
:020000040000fa
:04016000c8010000d2
:020000040000fa
:04016400c8010000ce
:020000040000fa
:04016800c8010000ca
:020000040000fa
:04016c00c8010000c6
:020000040000fa
:04017000c8010000c2
:020000040000fa
:04017400c8010000be
:020000040000fa
:04017800c8010000ba
:020000040000fa
:04017c00c8010000b6
:020000040000fa
:04018000c8010000b2
:020000040000fa
:04018400c8010000ae
:020000040000fa
:04018800c8010000aa
:020000040000fa
:04018c00c8010000a6
:020000040000fa
:04019000c8010000a2
:020000040000fa
:04019400c80100009e
:020000040000fa
:04019800c80100009a
:020000040000fa
:04019c00c801000096
:020000040000fa
:0401a000c801000092
:020000040000fa
:0401a400c80100008e
:020000040000fa
:0401a800c80100008a
:020000040000fa
:0401ac00c801000086
:020000040000fa
:0401b000c801000082
:020000040000fa
:0401b400c80100007e
:020000040000fa
:0401b800c80100007a
:020000040000fa
:0401bc00c801000076
:020000040000fa
:0401c000c801000072
:020000040000fa
:0401c400c80100006e
:020000040000fa
:0401c800c80100006a
:020000040000fa
:0401cc00c801000066
:020000040000fa
:0401d000c801000062
:020000040000fa
:0401d400c80100005e
:020000040000fa
:0401d800c80100005a
:020000040000fa
:10020000efa920000ebf20000e01880000000000b2
:10021000000020000000e000020032000001200089
:1002200020028800140007005b0007000000e000c7
:1002300003003a00c006230001002000020037003e
:100240000000200001002000810f7000010032003a
:1002500014000700000020000000e000020032004f
:100260000000020000000000e02f0200000000007b
:100270000040da000000fe004440a90020212000d8
:100280000000e0000300320000002000a001880010
:100290004440a800000006008a1f78008b1f7800e9
:1002a0000000060091018800800478000000eb0047
:1002b0001a003700e284440032a0b4009905ba0065
:1002c000e284440032a0b4009906ba00e2844400fb
:1002d00032a0b4000006eb00476fde00fd07b2005d
:1002e000636ce10003003a00ebff07000000eb0045
:1002f0000a003700606ce10004003a00005deb008a
:100300008b05e900fdff3e00040037006168e10055
:10031000010032000086eb000b00070019c7ba008d
:100320001905ba000e04e00003003a000a00e000dc
:10033000e0ff3a0000000600fe07b2009e018800c0
:100340008a047800f5ff3700395dba008b05e900b3
:100350000c003200295dba008b05e900080032006c
:100360000c00e00003003a00e284440032a0b40034
:10037000f5ff370019ddba008b05e900faff3a00f6
:100380008904e800e184440032a0b40000000600c3
:100390000040da000000fe000000050003f0a200ab
:1003a000889fbe008a9fbe008c1f78001b0107003b
:1003b000220133006450e1004f0032006420e1006c
:1003c0005200320003826c0007003b000905d00098
:1003d0000306d000820f54000c065d0002003900b5
:1003e00002003200890178000306780085825500fa
:1003f00004003d000003fd008103fd008502ea00ca
:100400008b854200840f720002003b0060001000e8
:10041000e08018006011b8000005eb007a28e100c8
:100420000a00390006007800c75ddd00f707b2005a
:10043000878075002d003700828171000a017800e5
:10044000610560008180d1000080d3008502e90051
:10045000f9ff3b00060440008784480002003b008f
:1004600060041400e0841c000988a3000700320027
:100470008a81710082817100610164008904d10068
:100480000884d3008b05e800170037000978a30023
:1004900013003a000b00e000130034008b05e90064
:1004a0000804440089844c000a4474000978a300bd
:1004b0000d003a000b00e000070034008b05e90056
:1004c0000804440089844c0001003a000b0020001d
:1004d0000978a300f7ff32000001eb0002003700ab
:1004e000828171000a017800910007000cf0a700da
:1004f00001f0a000da0037006420e10002003a00b9
:10050000838f6c00da0033000801be000200be00d9
:10051000d3003700889fbe008a9fbe008c1f7800e2
:10052000be000700c500330003866c006450e10084
:100530002e0032006420e100330032006150e100ff
:100540002f0032006120e100310032008585550026
:10055000eb07b00009002000080420000500370068
:100560000804440089844c000a003100060343005b
:1005700087834b000001530081815b00f8ff33004b
:100580000203be000800a0000804440089844c0057
:10059000f6ff3900c639dd00830173000100320027
:1005a000130020008904d1000884d3000998a30017
:1005b000050032000800a7000300a0008904d10054
:1005c0000884d3008b05e8008904d1000884d30097
:1005d0000001eb000281d2005500070001f0a100ec
:1005e0000cf0a70001f0a0009d0037006420e1009e
:1005f0009f0032000801be000200be00f7ff370076
:100600006120e1009a0032006000b800f3ff37007b
:100610000000200001f82700f0ff37001400200040
:10062000ca003700f4ff2f00c80037000001be00e9
:10063000650007000470a70003f0a1006509b10080
:10064000160032000d0035006828e1000600350074
:10065000f0ff2f00f1ff27000300e00013003b0034
:1006600001002800000005000000400081804800d3
:100670008502e900fcff3a0008003700f88f4200cd
:1006800002003c008000eb00000005008100d1006a
:100690000080d3008502e800fcff3a000300e00080
:1006a00002003b0060001000e0801800000006001f
:1006b0000001be00440007000470a70003f0a10081
:1006c00003f8a30013003a006509b10010003200de
:1006d000090035006928e10002003500010028000a
:1006e0000000050000004000818048008502e9000c
:1006f000fcff3a0000000600f88f420005003500bc
:100700008100d1000080d3008502e800fcff3a00a0
:10071000000006008000eb00000005004f89de00ad
:1007200082017800a40037006011b800b2003700e1
:1007300081002000618055000b003d000b0020006f
:1007400061fe2f000100e1001d0034008281710074
:10075000610164008904d1000884d3000000e8002e
:10076000faff3a007100200061006400030070008d
:10077000020060000900320061044400e0844c0083
:100780000988a500050032008b05e8006808e10033
:1007900002003a008904d1000884d300f20f20003f
:1007a0000258e10005003d00c75ddd00f907b20019
:1007b0008980750008007800000006000bf827000b
:1007c0008b00780000000500c70ade00f107b200c8
:1007d000f50fb20008003200e1cf42000200320003
:1007e0000170a00024000500810f7000010032009c
:1007f0000408050044000500810f700002003a0063
:10080000140005008502e9000000400081c0480096
:10081000fcff3b000170a000240005000004be00a6
:10082000e9ff07000003be000405be000200be0091
:10083000e5ff0700844f7500000006000200be00bf
:100840006450e100050036006420e100020036003b
:100850000968a30001003a000800be000160a00082
:100860004f0678004f05be004f04be000000060092
:10087000f0ff2f00f1ff2700f9ff3700889fbe002f
:100880008a9fbe008c1f7800e4ff0700ebff330057
:1008900003866c006450e100240032006420e10013
:1008a000270032006150e100220032006120e100a7
:1008b000210032008b854200eb07b1000134b80003
:1008c000003ab8000804420089844a00013ab8009e
:1008d0000030b8008880400009014a00040033005d
:1008e0000000400081804800020149008b05e900ba
:1008f000c909dd00830170000100320013002000ef
:10090000c814de004814dd004709de001200b20002
:10091000c808de000884700085ff070001f0a10010
:100920000cf0a70001f0a000cdff37006120e1002e
:10093000cfff32000801be000200be00f7ff370003
:100940006150e100fcff3a00c9ff3700889fbe00fc
:100950008a9fbe00841f7800b0ff07004f00780018
:1009600011003300f0ff2f00838f6c0006003b0066
:10097000040565000a00a7000800370009f0a6007a
:100980001000200008003700820f5400838f5c00a5
:10099000030039001000200001003e00000020008c
:1009a00009f0a7000000ea004f05be004f04be009a
:1009b0000000e00000000600881f780003047800b3
:1009c0000300e00007003d0060001000e080180018
:1009d00060011900e081190002003b0001f02d00c8
:1009e000030037000400070008f0a70001f0a00092
:1009f0004f04780000000600889fbe008a9fbe005a
:100a0000008270000402710004827100260032002e
:100a10000004be000200be006011b8006b09200097
:100a2000950220000182cf000a0039000541b10083
:100a30000082cf00070039000541b1000982cf00d4
:100a4000040039000541b1000882cf0001003900df
:100a50000541b10005425200120032000a003b007d
:100a600082817100610164008100d1000080d300a7
:100a70008984d3000884d3008b05e8000442e80091
:100a8000f7ff3a00070037000804440089844c004f
:100a900000004800818048008b05e9000442e9001d
:100aa000f9ff3a0022ff07004f05be004f04be00c9
:040ab000000006003c
:020000040000fa
:100ab4004865000061740000207400006f6f00003e
:100ac400207300006d6100006c6c0000004e00009b
:100ad4006f2000006865000061740000657200000a
:100ae4002064000065740000656300007465000004
:100af4006400000048650000617400002074000078
:100b04006f6f0000206c00006172000067650000d8
:100b1400004c00006f770000204200006174000068
:100b240074000000446900007363000068720000f0
:100b3400672000004f43000000430000687200007b
:100b4400672000004f430000004200006174000071
:100b5400742000004f560000004200006174000041
:100b6400742000004f540000004d00004374000046
:100b74006c2000004f54000000530000656c00001e
:100b8400662000004f5400000053000079730000f9
:100b94002053000068750000746400006f77000043
:100ba4006e000000505700004d2000004572000008
:100bb400720000004f7300006320000046610000d3
:100bc400696c0000004100006464000072200000b1
:100bd4004572000072000000535400004b200000d6
:100be40045720000720000004d54000048200000cf
:100bf400457200007200000052650000732000007e
:100c040037000000504c00004c200000554c000000
:100c140000420000726e00004f7500007400000076
:100c24005744000054200000727300007400000058
:100c34005452000041500000207200007374000000
:100c4400004f0000706300006f6400006520000026
:100c5400696e0000766100006c2000007273000071
:100c6400740000004d4300004c520000207200004c
:100c740073740000004900006c6c0000656700009c
:100c8400616c0000204900006e7300007472000063
:100c940075630000740000005379000073200000a5
:100ca400526500007365000074000000496e000086
:100cb400766100006c69000064200000706f000021
:100cc40072740000004e00006f2000006368000092
:100cd4007267000020630000726e00007400000060
:100ce40050430000203e000020310000303000005e
:100cf4002500000056480000204200005600000075
:100d0400564c0000204200005600000056480000e7
:100d14002042000043000000564c00002042000026
:100d24004300000056480000204200005400000028
:100d3400564c0000204200005400000056480000b9
:100d4400204d000043540000005600004c200000d9
:100d54004d4300005400000056480000205300009a
:100d64004d000000564c0000205300004d000000d0
:100d7400504f000052540000312000004253000044
:100d8400592000006572000072000000504f0000fe
:100d94005254000032200000425300005920000049
:100da4006572000072000000556e00006b6e00005a
:100db4006f7700006e00000052650000616400005f
:100dc400696e00006720000046610000756c000039
:100dd400747300002e0d00000a000000466100003c
:100de400756c0000742000004c6f00006720000048
:100df400467500006c6c00002e0d00000a00000017
:100e04004e6f000020660000617500006c740000e5
:100e1400206300006f640000657300002e0d000065
:100e24000a0000000d0a000000400000002100003c
:100e340000500000204f00006e2000000d0a00004a
:100e440000500000204f0000666600000d0a0000fc
:100e5400004200004d6f00006e2000004f6e000045
:100e6400203a0000440d00000a0000002121000087
:100e7400424d00006f6e0000204f000066660000c7
:100e8400212100000d0a00000046000061750000e9
:100e94006c74000073200000436c00006561000066
:100ea40072650000642e00000d0a00000055000069
:100eb4006e6b00006e6f0000776e00002043000030
:100ec4006f6d00006d6100006e6400002e0d000067
:040ed4000a00000010
:020000040000fa
:100ed8000200fa00000f780002003700c8c2a9001b
:100ee8000140fe001e0078008000400080a5200020
:100ef80000804000100078000000e000f7ff3a0092
:100f0800c8c2a8000080fa00000006000400fa0029
:100f1800100798009e009000e06d28003810070028
:100f28001e0090001e1007001e0090008000400068
:100f380040a62000008040008000eb0001087800f7
:100f48001e009000e2ff0700c0448000ea0f500036
:100f5800050034009e009000006f2800281007004c
:100f68001e0090000e100700c04480000000e00042
:100f7800d3003a009e00900020702800201007003f
:100f88001e00900006100700d60037001e009000d3
:100f98008000400040a6200000804000100078003b
:100fa8008000400040882000008040001000780049
:100fb8006101b9000080eb008080eb000200400076
:100fc800838048007202200003002000820f500036
:100fd800838f5800a1003e00006001002700370001
:100fe800290037002b0037002d0037002f0037006d
:100ff800310037003300370035003700370037003d
:10100800390037003b0037003d0037003f0037000c
:1010180041003700430037004500370047003700dc
:10102800490037004b0037004d0037004f003700ac
:10103800510037005300370055003700570037007c
:10104800590037005b0037005d0037005f0037004c
:10105800610037006300370065003700670037001c
:10106800690037006b0037006d0037006f003700ec
:10107800710037007300370075003700a05528004d
:10108800000f78007800370090562800000f78008d
:1010980075003700c0572800000f7800720037002d
:1010a800b0582800000f78006f003700405928001a
:1010b800000f78006c003700f0592800000f780006
:1010c80069003700705a2800000f78006600370062
:1010d800f05a2800000f780063003700705b280082
:1010e800000f780060003700f05b2800000f7800e0
:1010f8005d003700705c2800000f78005a00370048
:10110800405d2800000f780057003700c05d2800b8
:10111800000f780054003700505e2800000f780058
:1011280051003700e05e2800000f78004e003700bd
:10113800605f2800000f78004b003700e05f280050
:10114800000f78004800370040602800000f780042
:1011580045003700b0602800000f780042003700d3
:1011680020612800000f78003f003700a0612800a8
:10117800000f78003c00370030622800000f78002c
:101188003900370040632800000f78003600370028
:10119800d0632800000f780033003700e06428008f
:1011a800000f78003000370080652800000f7800b5
:1011b8002d00370050662800000f78002a003700fd
:1011c80020672800000f780027003700c067280034
:1011d800000f78002400370020682800000f7800ee
:1011e8002100370080682800000f78001e003700b3
:1011f800e0682800000f78001b00370040692800cd
:10120800000f780018003700a0692800000f780048
:1012180015003700006a2800000f78001200370018
:10122800706a2800000f78000f003700e06a280075
:10123800000f78000c003700406b2800000f780082
:1012480009003700a06b2800000f7800060037005f
:10125800806c2800000f780003003700606d2800bc
:10126800000f7800000000001e00900018ff070023
:101278009e0090001e007800610f07009e009000fd
:10128800407128005e0f07001e009000440f070001
:101298001e0090008000400040a620000080400012
:1012a800100078008000e8001e0090000001400057
:1012b80040a6200000004100010878000100370026
:1012c800000000001e0090008000400040a62000a2
:1012d8000080400090007800c0448000808f50005b
:1012e8002aff35000080fa00000006000200fa001c
:1012f800000f78001e0078000000e0000f003200a8
:101308001e00780080004000209b200000804000e4
:1013180090017800e0108000004178001e007800fd
:101328006a00b9000000780083004000e0992000be
:1013380000804000024878000e0037001e00780048
:1013480080004000209b2000008040009001780031
:1013580090108000004178001e0078006a00b900f3
:101368000000780083004000e099200000804000e1
:10137800024878001e0078008000400060a9200024
:1013880000804000100078000000e0003c003200bf
:101398001e00780080004000209b20000080400054
:1013a800100178001e0078006a00b900000078007b
:1013b80082004000e0992000008040001040780042
:1013c800ed4f50000e003a001e00780080004000eb
:1013d800209b200000804000100178001e0078004b
:1013e8006a00b9000000780082004000e0992000ff
:1013f8000080400010407800ea4f50002000320082
:101408001e0078000000e0000f0032001e00780087
:1014180080004000209b20000080400010017800e0
:101428001e0078006a00b9000000780082004000c1
:10143800e099200000804000104078000000fb0088
:10144800d01088000e0037001e0078008000400091
:10145800209b200000804000100178001e007800ca
:101468006a00b9000000780082004000e09920007e
:1014780000804000104078000000fb0080108800c9
:101488001e00780080004000209b20000080400063
:10149800100178001e0078006a00b900000078008a
:1014a80082004000e0992000008040001040780051
:1014b800ed4f500022003a001e00780080004000e6
:1014c80060a9200000804000100078000000e000c3
:1014d800030032009e00780040712800c80e070003
:1014e8001e00780080004000209b20000080400003
:1014f80010007800800078001e007800000140008d
:10150800209c200000004100010878001e0078009f
:1015180080004000209b2000008040008000eb00fd
:10152800010878001e00780080004000609b2000c1
:1015380000804000110020000108780013003700e7
:101548001e00780080004000209b200000804000a2
:1015580090007800a0548000808f50000b0031006c
:101568001e00780080004000209b20000080400082
:10157800100078008000e8001e007800000140009c
:10158800209b200000004100010878000080fa003c
:10159800000006000200fa00000f78001e00780024
:1015a8000000e00012003200020037001e00780040
:1015b8004eff0700c0108000610060000000e000de
:1015c800170032001e00780080004000609b200059
:1015d80000804000100078000000e000f3ff3200b7
:1015e8000f0037001e00780040ff07000100370099
:1015f8000000000070108000610060000000e00042
:10160800070032001e00780080004000609b200028
:1016180000804000100078000000e000f1ff320078
:101628001e00780080004000609b20000080400081
:1016380010007800e10f50000b013a009e0078007e
:10164800707128006e0e0700c04480000000e000a2
:10165800030034009e00780090712800680e07008f
:101668001e0078008000400000a620000080400096
:10167800100178001e0078006a00b90000007800a8
:1016880082004000e099200000804000104078006f
:101698000000fb006101b90030ff2f00f1ff2f00af
:1016a80002004000838048008206200003002000da
:1016b800820f5000838f5800d0003e000060010068
:1016c800d2003700cd003700cc003700cb00370000
:1016d800ca003700c9003700c8003700c700370004
:1016e800c6003700c5003700c4003700c300370004
:1016f800c2003700c1003700c0003700bf00370004
:10170800be003700bd003700bc003700bb00370003
:10171800ba003700b900370052003700b700370069
:10172800b6003700b5003700b4003700b300370003
:10173800b2003700b1003700b0003700af00370003
:10174800ae003700ad003700ac003700ab00370003
:10175800aa003700a9003700a8003700a700370003
:10176800a6003700a5003700a4003700a300370003
:10177800a2003700a1003700a00037009f00370003
:101788009e0037009d0037009c0037009b00370003
:101798009a00370099003700720037009700370029
:1017a8004400370054003700940037003b003700ee
:1017b8009200370091003700900037008f00370003
:1017c8005c0037008d0037008c0037004d00370073
:1017d8008a00370089003700440037008700370047
:1017e8007700370085003700840037008300370012
:1017f8008200370063003700800037007f00370021
:101808007e0037007d0037007c0037007b00370002
:101818007a00370079003700780037007700370002
:101828002b00370075003700740037001e003700a2
:101838007200370071003700700037006f00370002
:10184800420037006d0037006c0037003300370066
:101858006a00370069003700680037006700370002
:101868005f0037001e00780080004000209b2000a9
:10187800008040008000eb00010878001e0078001e
:1018880080004000609b2000008040008000eb004a
:10189800010878000000fe006100370010002000f9
:1018a800a04788005e00370050002000a04788004d
:1018b8005b0037001e0078008000400060a920000f
:1018c8000080400011002000010878005400370013
:1018d8001e0078008000400060a9200000804000c1
:1018e8008000eb00010878004d0037001000200050
:1018f800f04988004a0037001e00780083fd070081
:10190800470037009e007800b0712800bc0d070022
:1019180010002000904b8800410037009e0078009e
:1019280030722800b60d07009629ef007229ef00e3
:101938003b003700802aef009629ef009e007800d0
:10194800b0722800ae0d070035003700f05f2500a3
:10195800005488009e00780080732800a80d0700b6
:101968002f0037009828ef007029ef00f428ef00c7
:101978008029ef009e00780070742800a00d0700f1
:10198800270037002829ef00b0408000c1408000c0
:101998003047880041478800d11680000010200099
:1019a800008060000000e00002003200a228ef0082
:1019b8001b003700a00020001045880018003700e1
:1019c800b14c800020062000808f500011003c00a0
:1019d800b04c80000000e800b04c880010003700d0
:1019e800b04c80000000e0000c003400b04c8000d7
:1019f8000000e900b04c8800090037009e0078001c
:101a0800907528007e0d07000500370000000000d3
:101a1800030037000000000001003700000000004c
:101a28001e00780080004000209b200000804000bd
:101a38008000eb00010878001e007800800040005c
:101a4800609b2000008040008000eb0001087800c7
:101a58001e0078008000400000a6200000804000a2
:101a68008000eb00010878001e0078004c0d07008c
:101a78000080fa00000006003600f800809fbe00d3
:101a8800829fbe00849fbe00869fbe00881f78008c
:101a98000000fa00c8c2a8006000b800c04788006b
:101aa800d1478800704080008140800018c0b30092
:101ab8000200200003f82300d8fa07000000e00025
:101ac80001003c000044eb000804e000060032007e
:101ad8000000200001f82300704088008140880041
:101ae800c00120005c0b070070408000814080002e
:101af8006011b800c7fa07000000e00005003a00ce
:101b0800b0408000c14080003047880041478800cd
:101b18002829ef00b04b8000e10f50001e00320072
:101b280010458000e90f50001b003c001045800064
:101b38000000e80010458800100020004049880097
:101b4800b4408000c5408000d0408000e140800063
:101b58000001be000400be000efa07000002be002d
:101b680070408000814080000001be000400be007b
:101b780040fb07000002be00d0408000e14080002a
:101b88000001be000400be0003fa070030478800c9
:101b9800414788000c003700b04b8000e10f50002f
:101ba8000900320010458000e90f5000060034009b
:101bb800a228ef002829ef00b0408000c140800033
:101bc8003047880041478800a0478000e20f500056
:101bd8001600320000178000620060000000e0007c
:101be80012003200904b80000000e0000f003a0025
:101bf800b04b80000000e0000c003a00804b8000f1
:101c08000000e00009003a0010002000704b880036
:101c1800a0478000e50f50000200320010002000ad
:101c2800a047880010002000b04b880000178000f3
:101c3800620060000000e00009003200904b800064
:101c48000000e00006003a006000b8004045880047
:101c5800514588006000b8006045880071458800db
:101c680010002000704c88008400a9000080fa0051
:101c78004f0478004f03be004f02be004f01be0064
:101c88004f00be003600f900004006003600f8009c
:101c9800809fbe00829fbe00849fbe00869fbe00bc
:101ca8000000fa00c8c2a800500880008000eb00bd
:101cb8009bfa070070498800814988000a21ef00d3
:101cc800904980000000e0000a003200b043800024
:101cd800c143800002002c00534024000bfa070087
:101ce8000200200013562400e2fa07005049880039
:101cf8006149880010002000904988008600a900ea
:101d08000080fa004f03be004f02be004f01be0024
:101d18004f00be003600f90000400600809fbe005c
:101d28000000fa00c8c2a8006000b8005049880046
:101d3800614988003229ef0084e0a9000080fa0098
:101d48004f00be00004006003600f800809fbe002d
:101d5800829fbe00849fbe00869fbe000000fa00de
:101d6800c8c2a800004a8000e70f5000c70034002e
:101d7800304a8000414a80000200200003102400fd
:101d8800e2f90700304a8800414a8800304a80005a
:101d9800414a800002002000037024007df90700fa
:101da800304a8800414a8800304a8000414a800011
:101db8000200200003702400d4f90700304a88008c
:101dc800414a8800304a8000414a800002002000d1
:101dd80003022400a7fa0700304a8800414a880015
:101de800304a8000414a8000a2702d0033d223007f
:101df800c6f907000002be008047800091478000b6
:101e08000001be000400be0063f90700e048880036
:101e1800f1488800820b07006000b800304a88004b
:101e2800414a8800104a8000214a800002c02c00e4
:101e3800c37c2400b5f90700104a8800214a8800ad
:101e4800144a8000254a8000f04580000146800041
:101e58000001be000400be00acf907000002be008d
:101e680050408000614080000001be000400be00b8
:101e780049f9070080488800914888006000b80048
:101e8800104a8800214a8800504a8000614a800030
:101e980002c02c00c37c24009cf90700504a88002b
:101ea800614a8800504a8000614a8000f2282c006c
:101eb80053ef230037f90700504a8800614a880029
:101ec800504a8000614a800042722900f3c723000b
:101ed8008ef9070020488800314888006000b80063
:101ee800504a8800614a8800704a8000814a800010
:101ef80002c02c00c37c240084f90700704a8800c3
:101f0800814a8800704a8000814a8000f2282c00ab
:101f180053ef23001ff90700704a8800814a8800a0
:101f2800704a8000814a800042722900f3c723006a
:101f380076f9070060488800714888006000b8009a
:101f4800704a8800814a8800904a8000a14a80002f
:101f580002c02c00c37c24006cf90700904a88005a
:101f6800a14a8800904a8000a14a8000f2282c00eb
:101f780053ef230007f90700904a8800a14a880018
:101f8800904a8000a14a800042722900f3c72300ca
:101f98005ef9070040488800514888006000b80092
:101fa800904a8800a14a8800404880005148800033
:101fb80060488800714888004029ef00015480007b
:101fc800f05f2500808f500007003200504b8000e2
:101fd800e10f500004003a00804b80000000e00050
:101fe80001003a00b40a0700f04980000000e00050
:101ff80017003a00804b80000000e00014003a000f
:10200800270a0700a0478000e20f500003003c00a9
:10201800a04780000000e00008003a00b0498000b6
:10202800e10f500005003a00704b8000e50f5000aa
:1020380002003a009e06070008003700b0498000f9
:102048000000e00004003a003f0b070003003700df
:102058003d0b07000100370000000000b049800078
:102068000000e00006003a00504b8000e10f5000ed
:1020780003003a00a1e2a9006a29ef0055003700e1
:1020880010002000504b880052003700504b800051
:10209800e10f50003d003a00001480008000eb0082
:1020a8009ff907000002be00104a8000214a800004
:1020b8000001be000400be00b7f80700104a8800ff
:1020c800214a8800101480008000eb0094f9070072
:1020d8000002be00304a8000414a80000001be0074
:1020e8000400be00acf80700304a8800414a880066
:1020f800201480008000eb0089f907000002be0070
:10210800504a8000614a80000001be000400be0001
:10211800a1f80700504a8800614a880030148000fe
:102128008000eb007ef907000002be00704a8000c4
:10213800814a80000001be000400be0096f8070036
:10214800704a8800814a8800401480008000eb00b3
:1021580073f907000002be00904a8000a14a80007f
:102168000001be000400be008bf80700904a8800fa
:10217800a14a880001548000f05f2500808f50003c
:1021880011003200670507000f0037006000b80033
:10219800104a8800214a88006000b800304a880048
:1021a800414a88006000b800504a8800614a8800a7
:1021b8006000b800704a8800814a88006000b80052
:1021c800904a8800a14a8800004a80000000e80080
:1021d800004a88008560a9000080fa004f03be000d
:1021e8004f02be004f01be004f00be003600f9008e
:1021f800004006003600f800809fbe00829fbe00a7
:10220800849fbe00869fbe000000fa00c8c2a800d6
:102218000000eb00dffc07008520a9000080fa0021
:102228004f03be004f02be004f01be004f00be006c
:102238003600f900004006003600f800809fbe0016
:10224800829fbe00849fbe00869fbe000000fa00e9
:10225800c8c2a80010002000cefc07008700a90013
:102268000080fa004f03be004f02be004f01be00bf
:102278004f00be003600f90000400600809fbe00f7
:102288000000fa00c8c2a80009003700c14e80004b
:10229800c09d200000804000104078000000fb0036
:1022a80080108800c04e80000000e800c04e880002
:1022b8007110800000202000008060000000e00015
:1022c80004003a00c14e8000a04e8000808f50006c
:1022d800eeff3500c14e8000a04e8000808f500078
:1022e80003003500d829ef00d429ef00582aef0061
:1022f8008540a9000080fa004f00be00004006009b
:10230800809fbe000000fa00c8c2a8000b0037007a
:10231800d04e80002103200080804000c09d200016
:1023280000804000104078000000fb00d0108800ba
:10233800d04e80000000e800d04e8800c110800018
:1023480000202000008060000000e00004003a0047
:10235800d14e8000b04e8000808f5000ecff3500d9
:10236800d14e8000b04e8000808f500003003500b1
:10237800da29ef00d629ef005a2aef008720a900b2
:102388000080fa004f00be00004006003600f8004a
:10239800809fbe00829fbe00849fbe00869fbe00b5
:1023a800889fbe000200fa00c8c2a800a1e2a800e7
:1023b800b04980000000e00006003200f0438000d1
:1023c800804c8800b003200030548800d442a80014
:1023d80012003700305480000000e0000c003c0080
:1023e800b003200030548800804c80000000e000da
:1023f80003003c0010002000f04988000700370067
:10240800804c80000000e900804c88000300370001
:10241800305480000000e9003054880010498000e2
:102428000000e00010003400244980003549800095
:1024380090418000a141800018c0b3000001be0097
:102448000400be0073f807000000e000010035003a
:102458000044eb000804e00003003200104980004b
:102468000000e90010498800d11680000010200003
:10247800008060000000e00003003a00c882a90064
:102488009a29ef007c29ef00b04980000000e000a5
:1024980029003200244880003548800070438000bd
:1024a8008143800018c0b3000001be000400be00d4
:1024b8005af807000000e00001003c000044eb006f
:1024c8000804e0001a003a0044488000554880009b
:1024d800504380006143800018c0b3000001be0073
:1024e8000400be004df807000000e00001003c00b9
:1024f8000044eb000804e0000d003a006448800046
:1025080075488000504380006143800018c0b300c4
:102518000001be000400be0040f807000000e00013
:1025280001003c000044eb000804e0000200320017
:10253800e002a80037003700b04980000000e00042
:102548003300320070438000814380000200200085
:10255800030a24008ff707000002be00204880000d
:102568003148800018c0b3000001be000400be005e
:102578002af807000000e00001003c000044eb00de
:102588000804e000230032005043800061438000cb
:1025980002002000030a24007ef707000002be00a4
:1025a800404880005148800018c0b3000001be00b8
:1025b8000400be0019f807000000e00001003c001c
:1025c8000044eb000804e000120032005043800091
:1025d8006143800002002000030a24006df7070011
:1025e8000002be00604880007148800018c0b30037
:1025f8000001be000400be0008f807000000e0006b
:1026080001003c000044eb000804e0000100320037
:10261800e002a900fb030700d1168000001020008b
:10262800008060000000e0000f003a000017800002
:10263800620060000000e0000b003200a04980004a
:102648000000e00008003a00904b80000000e00025
:1026580005003a00c04b80000000e00002003a008c
:1026680010002000c04b8800c04980000000e00036
:102678000d003200a04b8000e10f500003003a002b
:102688007429ef00c8a2a900080037001000200034
:10269800a04b8800c04480000000e0000300320026
:1026a800c8a2a80001003700c8a2a900d04b80002a
:1026b8000000e0000a003a00704b80000000e000d3
:1026c80007003a0010002000704b8800100020001e
:1026d800a049880010002000d04b8800680037000f
:1026e800d04b8000e70f500004003c00d04b800026
:1026f8000000e800d04b880061003700d04b800014
:10270800e80f50005e003a0000498000e10f5000d9
:102718005b003a00914c8000200020000001780006
:10272800110009008200d8000000e800e90907004c
:1027380041652700810f500031003a002445800090
:1027480035458000c0488000d14880000001be00a7
:102758000400be000ff7070002002000832c2400ad
:102768006af707000002be00d0448000e144800000
:102778000001be000400be003ef80700a9f70700ec
:10278800000f780088458000994580001e00780079
:10279800cf80de00dff707000001be000800be00a2
:1027a800fcf607008045880091458800f8448000c1
:1027b800094580001e007800cf80de00d5f70700ad
:1027c8000001be000800be00f2f60700f0448800d1
:1027d8000145880048458000594580001e00780062
:1027e800cf80de00cbf707000001be000800be0066
:1027f800e8f6070040458800514588001100370079
:102808007041800081418000d0448800e144880004
:10281800c0488000d148800002002000832c24009a
:102828003af707000002be00704180008141800035
:102838000001be000400be000ef8070080458800b5
:102848009145880090002000d04b88003429ef0083
:102858008400a900ff3ffc008c00a800d11680006e
:1028680000102000008060000000e000040032003a
:10287800704c80000000e00001003a008400a800cd
:1028880018040700404580005145800018c0b30077
:102898006011b8005ff707000000e0000100350094
:1028a8000044eb000804e0000600320040458000c8
:1028b8005145800001f0a200f044880001458800dd
:1028c800040037004045800051458000f0448800ee
:1028d80001458800c0488000d148800018c0b30076
:1028e80002002000632c24004cf707000000e000e1
:1028f80001003c000044eb000804e0001000320036
:1029080010548000e40f50000d003200d0448000c5
:10291800e1448000804588009145880040002000ff
:10292800105488006000b800404588005145880070
:102938006000b8006045880071458800480037008d
:10294800c0488000d148800018c0b30002002000b1
:10295800632a24002ff707000000e000010035007b
:102968000044eb000804e0001e003200c04880006c
:10297800d148800018c0b30002002000232a240098
:1029880026f707000000e00001003c000044eb00cf
:102998000804e0001300320010548000e40f5000d7
:1029a80003003200105480000000e0000d003a00df
:1029b800f044800001458000d0448800e14488004c
:1029c800d0448000e14480000001be0072f6070098
:1029d800d0448800e144880020002000105488007a
:1029e8001f003700c0488000d148800018c0b300dd
:1029f8000200200003f8230006f707000000e000ab
:102a0800010035000044eb000804e0001400320027
:102a1800105480000000e00011003200f0448000f3
:102a280001458000d0448800e14488006000b80077
:102a380080458800914588006000b800a04588005e
:102a4800b1458800822aef006000b8004045880040
:102a5800514588006000b8006045880071458800cd
:102a6800804580009145800018c0b3006011b8000f
:102a7800e8f607000000e000010035000044eb0024
:102a88000804e000060032006000b80080458800b5
:102a9800914588006000b800a0458800b1458800cd
:102aa800d0448000e1448000a2702d0033ba230096
:102ab80039f607000002be0080458000914580007d
:102ac80018c0b3000001be000400be00d1f6070024
:102ad8000000e000010035000044eb000804e000bd
:102ae80007003200d0448000e1448000a2702d002d
:102af80033ba230028f607008045880091458800ee
:102b08007440800085408000b0408000c140800053
:102b18000001be000400be0056f707000002be0018
:102b2800804880009148800018c0b3000001be00b2
:102b38000400be00b9f607000000e00001003c00f8
:102b48000044eb000804e0001f0032004049800008
:102b58000000e0001c003200d4448000e5448000fe
:102b680070408000814080000001be000400be006b
:102b780040f707000002be008045800091458000b4
:102b880018c0b3000001be000400be00a1f6070093
:102b98000000e000010035000044eb000804e000fc
:102ba80009003200d4448000e54480007040800071
:102bb800814080000001be000400be002df7070020
:102bc8008045880091458800b04980000000e000f9
:102bd8000c003a008845800099458000d043800069
:102be800e1438000328429001399230021f707006c
:102bf8000001be000800be00e6f507008045880019
:102c0800914588008460a9000080fa004f04be0046
:102c18004f03be004f02be004f01be004f00be0072
:102c28003600f900004006003600f800809fbe001c
:102c3800829fbe00849fbe00869fbe00881f7800ca
:102c48000400fa00c8c2a8006000b800008fbe00e7
:102c5800f05380000000e00006003400f0538000cc
:102c6800e30f500003003200f05380000000e90039
:102c7800f0538800e05380000000e00006003400b4
:102c8800e0538000e30f500003003200e05380005f
:102c98000000e900e0538800d05380000000e00005
:102ca80006003400d0538000e30f500003003200c8
:102cb800d05380000000e900d0538800b04a80005b
:102cc800e70f500011003400104b8000214b8000aa
:102cd80002002000031024000cf60700104b8800a7
:102ce800214b8800104b8000214b8000d04a88007f
:102cf800e14a88006000b800104b8800214b88002a
:102d08005629ef00440307000c003700144b8000dd
:102d1800254b8000e0488000f14880000001be009b
:102d28000400be009cf50700104b8800214b88006a
:102d3800b04a80000000e800b04a8800c04a80001d
:102d4800e70f500010003400304b8000414b8000ea
:102d58000200200003102400ecf50700304b880027
:102d6800414b8800304b8000414b8000f04a88007e
:102d7800014b88006000b800304b8800414b880048
:102d88005829ef000c003700344b8000454b800079
:102d980080488000914880000001be000400be0009
:102da8007df50700304b8800414b8800c04a800001
:102db8000000e800c04a8800d44a8000e54a800044
:102dc800f04a8000014b80000001be000400be00f4
:102dd800a8f60700008fbe0018c0b3006011b80045
:102de8001e00be000bf607000000e00001003500e1
:102df8000044eb000804e000030032001e00be009f
:102e080001f0a200008fbe00c0478000d1478000bb
:102e180018c0b3000001be001e00be00fff5070089
:102e28000000e00001003c000044eb000804e00062
:102e38000b0032001e01be00c2478800d34788003d
:102e4800f04a8000014b8000e0478800f147880085
:102e5800d04a8000e14a8000004888001148880074
:102e6800e0488000f148800018c0b300f226210035
:102e780033b02300e9f507000000e00001003c0042
:102e88000044eb000804e0000b003a00e048800032
:102e9800f148800018c0b300f226210033b02b009f
:102ea800dcf507000000e000010035000044eb00fd
:102eb8000804e00084003200545380006553800009
:102ec800e0488000f14880000001be000400be0018
:102ed80068f607000002be0060458000714580006a
:102ee8000001be000400be002bf507006045880005
:102ef800714588005453800065538000e048800085
:102f0800f14880000001be000400be0059f6070029
:102f18000002be00a0458000b14580000001be004f
:102f28000400be001cf50700a0458800b1458800d4
:102f3800604580007145800018c0b300f22621006a
:102f480033a82300b5f507000000e00001003c00ad
:102f58000044eb000804e0000f00320060458000e8
:102f680071458000f226210033a8230009f50700e7
:102f780060458800714588004045800051458000c3
:102f8800f226210033a8230003f5070040458800f6
:102f98005145880019003700604580007145800060
:102fa80018c0b300f226210033a82b0099f50700ba
:102fb8000000e000010035000044eb000804e000d8
:102fc8000e0032006045800071458000f226210025
:102fd80033a82300f0f40700604588007145880095
:102fe8004045800051458000f226210033a8230087
:102ff800e8f407004045880051458800a045800056
:10300800b145800018c0b300f226210033a8230080
:1030180082f507000000e00001003c000044eb00de
:103028000804e0000f003200a0458000b145800090
:10303800f226210033a82300d6f40700a045880013
:10304800b14588008045800091458000f226210026
:1030580033a82300d0f407008045880091458800f4
:1030680019003700a0458000b145800018c0b300a2
:10307800f226210033a82b0066f507000000e000c7
:10308800010035000044eb000804e0000e003200a7
:10309800a0458000b1458000f226210033a8230016
:1030a800bdf40700a0458800b14588008045800030
:1030b80091458000f226210033a82300b5f40700cb
:1030c800804588009145880084c0a9000080fa00e6
:1030d8004f0478004f03be004f02be004f01be00f0
:1030e8004f00be003600f900004006003600f80028
:1030f800809fbe00829fbe00849fbe00869fbe0048
:103108000000fa00c8c2a8000f070700100020003e
:10311800804b8800c0002000cf0507008960a90007
:103128000080fa004f03be004f02be004f01be00f0
:103138004f00be003600f900004006003600f800d7
:10314800809fbe00829fbe00849fbe00869fbe00f7
:103158000000fa00113a80000002200000806000a0
:103168000000e00005003a00004c80000000e0008c
:1031780002003a0020012000b7050700c8c2a800d5
:10318800f106070010002000804b8800004c8000ea
:103198000000e00002003a00d0002000ae05070061
:1031a80010002000004c88008020a9000080fa0050
:1031b8004f03be004f02be004f01be004f00be00cd
:1031c8003600f900004006003600f800809fbe0077
:1031d800829fbe00849fbe00869fbe000000fa004a
:1031e800c8c2a800d806070010002000804b88003d
:1031f800e0002000980507008060a9000080fa0020
:103208004f03be004f02be004f01be004f00be007c
:103218003600f900004006003600f800809fbe0026
:10322800829fbe00849fbe00869fbe000000fa00f9
:10323800c8c2a800c406070010002000804b880000
:10324800f0002000840507008040a9000080fa00f3
:103258004f03be004f02be004f01be004f00be002c
:103268003600f900004006003600f800809fbe00d6
:10327800829fbe00849fbe00869fbe000000fa00a9
:10328800c8c2a800b006070010002000804b8800c4
:1032980000012000700507008080a9000080fa0066
:1032a8004f03be004f02be004f01be004f00be00dc
:1032b8003600f900004006003600f800809fbe0086
:1032c800829fbe00849fbe00869fbe000000fa0059
:1032d800c8c2a8009c06070010002000804b880088
:1032e800100120005c0507000080fa004f03be00b3
:1032f8004f02be004f01be004f00be003600f9006d
:10330800004006000400fa00100798000000eb00d7
:10331800000f7800180037001e0090001e004000c3
:10332800a506070000000000013b800000002800ff
:10333800008060000000e000fbff3a001e007800fb
:10334800800040000080200000804000900078004d
:103358001e0090001e004000b80607000000000094
:10336800013b800000002800008060000000e000b1
:10337800fbff3a001e0fe800914c8000200020005f
:1033880000017800110009008200d8009e0f50004b
:10339800e1ff3d001e0078000080fa0000000600f2
:1033a8000400fa00100798000000eb00000f7800f6
:1033b8000a0037001e0090001e004000c5060700e6
:1033c800800078001e007800000140000080200086
:1033d80000004100010878001e0fe800914c8000b1
:1033e8002000200000017800110009008200d800a8
:1033f8009e0f5000efff3d000080fa00000006001d
:103408000400fa00100798000000eb00000f780095
:10341800200037001e0090001e00400066060700ce
:1034280000000000013b80000000280000806000d0
:103438000000e000fbff3a001e0078000000e000fa
:1034480005003a001e0090001e004000416527005c
:103458007a060700090037001e0078008000400047
:103468002088200000804000900078001e00900016
:103478001e0040007106070000000000013b8000ac
:1034880000002800008060000000e000fbff3a0018
:103498001e0fe800a14c80002000200000017800e9
:1034a800110009008200d8009e0f5000d9ff3d008e
:1034b8001e0078000080fa00000006000400fa00f0
:1034c800100798000000eb00000f78000a00370092
:1034d8001e0090001e0040007e0607008000780055
:1034e8001e007800000140002088200000004100f4
:1034f800010878001e0fe800a14c80002000200081
:1035080000017800110009008200d8009e0f5000c9
:10351800efff3d000080fa00000006000400fa00fa
:103528000000eb00000f78000000eb001007980087
:1035380000802000000f7800008820001007980005
:103548001e0090001e0050000080fa0000000600d7
:103558000400fa000000eb00000f78000000eb0008
:103568001007980020882000000f7800808b20002a
:10357800100798001e0090001e0050000080fa00fe
:10358800000006000000fa00c0488000d148800012
:103598002045880031458800914c8000200020009b
:1035a80000017800110009008200d8000000e8003e
:1035b80093ff0700d442a9000080fa00000006002b
:1035c8000000fa0003003700f04b80000000e8001c
:1035d800f04b8800f04b8000e30f4000faff360004
:1035e8004153800050a52a00808f500001003a0006
:1035f8008900070050a52a00405388000080fa007f
:10360800000006000000fa00d1168000001020001b
:10361800008060000000e0000d003a000017800004
:10362800620060000000e00009003200a04980004c
:10363800e10f500006003200904b8000e10f50006f
:1036480003003200b04b8000e10f500023003a0025
:1036580010002000c0498800604c80000000e00095
:1036680004003200504c800065004000504c880037
:103678008c29ef00c04b8000e10f500003003a0096
:103688007029ef008029ef007829ef00804b800037
:103698000000e00007003a0010002000b049880050
:1036a800d04980000000e00019003a0039090700fd
:1036b8001a003700a40507003629ef009c29ef00ff
:1036c8009a29ef009829ef00e04980000000e00007
:1036d80011003a00150a07001000370010002000fa
:1036e800604c8800980507003829ef003629ef005c
:1036f8009c29ef009a29ef009829ef00e049800003
:103708000000e00005003a00080a0700030037003f
:103718000000000001003700000000000080fa00ef
:10372800000006000000fa0000148000e30f4000cb
:1037380003003600d0012000470407007705070082
:1037480000148000e10f500003003e00e00120005b
:10375800410407007105070010148000e30f4000c2
:1037680003003600f00120003b0407006b0507004a
:1037780010148000e10f500003003e0000022000fa
:10378800350407006505070020148000e30f40009a
:1037980004003600100220002f040700500020000b
:1037a800a047880020148000e10f500004003e006c
:1037b800200220002804070050002000a0478800ad
:1037c80030148000e30f4000020036003002200071
:1037d8002104070030148000e10f500002003e0071
:1037e800400220001c04070040148000e30f400042
:1037f8000200360050022000170407004014800021
:10380800e10f500002003e00600220001204070091
:103818000080fa00000006000000fa00003a80006c
:10382800620060000000e000030032004027a900a9
:103838003001200008040700003a80007000600092
:103848000000e000030032004087a900400120008a
:1038580001040700013a8000000028000080600091
:103868000000e0000300320041e7a90050012000f9
:10387800f9030700013a800000002400008060007e
:103888000000e0000300320041c7a90060012000e9
:10389800f1030700013a8000000820000080600062
:1038a8000000e0000300320040e7a900700120009a
:1038b800e9030700013a800000042000008060004e
:1038c8000000e0000300320040c7a900800120008a
:1038d800e103070090012000df0307000080fa00e1
:1038e800000006000000fa00889fbe00d04080005b
:1038f800e14080000200200003002400a5f2070038
:103908000002be00804880009148800018c0b300c3
:103918000001be000400be0040f307000000e00004
:1039280001003d000044eb000804e0000400320000
:103938006000b800c0488800d148880033003700cc
:10394800e0488000f148800018c0b300d2cc2c00b9
:10395800c3d423002ff307000000e0000100350066
:103968000044eb000804e00028003200e048800032
:10397800f148800018c0b300d2cc2c00c3d42b006f
:1039880026f307000000e00001003c000044eb00c3
:103998000804e0001d003200804880009148800043
:1039a800a0488800b1488800a4488000b548800035
:1039b800d0408000e14080000001be000400be004d
:1039c80074f207000004be00b4408000c5408000c7
:1039d800d0408000e14080000001be000400be002d
:1039e8006cf207000001be000800be00c7f2070025
:1039f80002002000832c24009ef30700c0488800a2
:103a0800d148880010002000004988004f04be00fb
:103a18000080fa00000006000400fa006000b80008
:103a2800008fbe00d04a8000e14a800001f0a20069
:103a3800008fbe00704b8000e40f50000f003a006a
:103a4800d0438000e14380000001be001e00be009c
:103a580050f20700804788009147880050002000f6
:103a6800704b8800a0478000e50f5000020032002c
:103a780010002000a04788003429ef00704b800018
:103a8800e10f500008003a006000b8008047880045
:103a980091478800ac04070040002000704b880064
:103aa80010002000a04988000080fa0000000600ed
:103ab8002000fa00881f78006000b800008fbe0060
:103ac8006000b80020079800310798006000b8002f
:103ad80040079800510798006000b80060079800f8
:103ae80071079800e2488000f34880004207980078
:103af80053079800e2488000f34880006207980066
:103b0800730798000000200001f82300f0468800a1
:103b1800014788002448800035488000d042800052
:103b2800e142800018c0b3000001be000400be00de
:103b3800baf207000000e00001003c000044eb007e
:103b48000804e0000d003a00244880003548800051
:103b580090428000a142800018c0b3000001be005e
:103b68000400be00abf207000000e00001003500d1
:103b78000044eb000804e00004003200d0cc2c0024
:103b8800c1f42300f04688000147880024488000db
:103b980035488000704280008142800018c0b30020
:103ba8000001be000400be009af207000000e00019
:103bb800010035000044eb000804e0000400320076
:103bc8000000200001f02300f0468800014788002b
:103bd8001441800025418000804580009145800087
:103be8000001be000400be0022f307000002be0070
:103bf800f0468000014780000001be000400be00be
:103c08001cf30700008fbe00304180004141800056
:103c180018c0b3000001be001e00be007df2070000
:103c28000000e000010035000044eb000804e0005b
:103c38000d003a002448800035488000704280001a
:103c48008142800018c0b3000001be000400be001d
:103c580070f207000000e000010035000044eb00ae
:103c68000804e00003003200324180004341800034
:103c7800028fbe0018c0b3006011b8004e0090005b
:103c8800de00900063f207000000e000010035004c
:103c98000044eb000804e000060032004e009000eb
:103ca800de00900001f0a20040079800510798003c
:103cb800030037006000b8004007980051079800db
:103cc8000000200001f82300f04688000147880022
:103cd80024488000354880003042800041428000fe
:103ce80018c0b3000001be000400be004bf207007c
:103cf8000000e00001003c000044eb000804e00084
:103d08000d003a002448800035488000f0418000ca
:103d18000142800018c0b3000001be000400be00cc
:103d28003cf207000000e000010035000044eb0011
:103d38000804e00004003200d0cc2c00c1f42300b9
:103d4800f0468800014788005441800065418000a2
:103d580070418000814180000001be000400be0067
:103d6800c4f207000002be00f04680000147800050
:103d78000001be000400be00bef207002007980044
:103d880031079800244880003548800010428000a0
:103d98002142800018c0b3000001be000400be002c
:103da8001ef207000000e00001003c000044eb00a8
:103db8000804e0000d003a002448800035488000df
:103dc800d0418000e141800018c0b3000001be006e
:103dd8000400be000ff207000000e00001003500fb
:103de8000044eb000804e000030032006000b80063
:103df800200798003107980018c0b3006011b80078
:103e08006e009000fe00900002f207000000e00043
:103e1800010035000044eb000804e0000300320014
:103e28006000b80060079800710798007629ef00d5
:103e3800d116800000102000008060000000e00023
:103e4800ff003200d04b8000e90f5000fc003a0020
:103e5800c882a800804b8000e10f500006003200a5
:103e6800e0c2a800f0538000e30f500002003a00bf
:103e780020002000f05388006000b800200f980050
:103e8800310f980030478000414780000200200031
:103e980003f023003ff10700200f9800310f98002e
:103ea800e14b8000f0e12400808f50001c003c00b2
:103eb8006011b8006e009000fe009000d5f1070078
:103ec8000000e00016003a00001780006200600061
:103ed8000000e00012003200804880009148800015
:103ee80018c0b3002e099000be099000c9f1070060
:103ef8000000e000010035000044eb000804e00089
:103f080007003200f05380000000e00004003a008f
:103f1800e04b80000000e800e04b88001500370007
:103f2800e14b8000f0e12400808f50000b0034004a
:103f380000178000620060000000e0000700320007
:103f4800b00120004402070010002000804b8800c8
:103f58007c29ef00e0c2a90006003700e04b800092
:103f68000000e00003003400e04b80000000e9009e
:103f7800e04b880018c0b300a2702d0033c22300a4
:103f88006e009000fe009000a4f107000000e00021
:103f980001003c000044eb000804e00011003a0076
:103fa8003047800041478000a299290093e123000f
:103fb800f8f007000002be008048800091488000a9
:103fc80018c0b3000001be000400be0091f1070054
:103fd8000000e000010034000044eb000804e000a9
:103fe800040032005042800061428000d401070082
:103ff8000c0037006011b8006e009000fe009000c1
:1040080084f107000000e00006003a00e04c800060
:104018000000e00003003400e04c80000000e900ec
:10402800e04c88006000b800000f9800110f98005d
:104038003047800041478000d2cc2c00c3d42300f5
:10404800d5f007000002be0080488000914880003b
:1040580018c0b3000001be000400be006df10700e7
:104068000000e000010035000044eb000804e00017
:1040780002003200f628ef001300370030478000b6
:1040880041478000d2cc2c00c3d42300c1f00700e4
:104098000002be00804880009148800018c0b3002c
:1040a8000001be000400be005cf107000000e00053
:1040b80001003c000044eb000804e000020032006c
:1040c80010002000b0478800b04780000000e000e2
:1040d800050032002e019000be019000020f9800ea
:1040e800130f9800030037006000b800000f980015
:1040f800110f9800a0478000e20f50004e003200d8
:10410800f05380000000e0004b003a00d04c8000e3
:104118000000e00011003400b0408000c140800081
:10412800a2702d0033c223009af007000002be00df
:10413800804880009148800018c0b3000001be008c
:104148000400be0033f107000000e0000100340065
:104158000044eb000804e0000e003a00a2702d00b5
:1041680033c223000e0890009e0890008af00700d2
:1041780018c0b3006e019000fe01900025f1070001
:104188000000e000010035000044eb000804e000f6
:1041980004003200d04c80000000e900d04c8800b8
:1041a80023003700d14c800040062000808f50004b
:1041b80011003c00b0408000c140800092c2250040
:1041c800f3d8230073f007000002be008048800087
:1041d8009148800018c0b3000001be000400be0072
:1041e8000ef107000000e00001003c000044eb0075
:1041f8000804e0000b003a0018c0b3000e09900054
:104208009e0990006e009000fe00900001f10700ea
:104218000000e000010035000044eb000804e00065
:1042280003003200d04c80000000e800d04c880029
:1042380000000000090037009a29ef000700370046
:10424800c882a9009a29ef00d821ef00e0c2a9008e
:1042580030002000f05388007c29ef000017800010
:10426800620060000000e00003003200904b800014
:10427800e10f50000e013a00d04b8000e90f5000ca
:104288000400320001548000f05f2500808f500048
:1042980007013a00804b8000e10f50000700320010
:1042a800d422a800c902a800e0538000e30f500000
:1042b80002003a0020002000e0538800d116800058
:1042c80000102000008060000000e00003003a00b9
:1042d800f04280000143800019010700015480006a
:1042e800f05f2500808f500003003a00b04c80003a
:1042f800c04c8800fb003700e05380000000e0005d
:10430800f7003a006000b800400f9800510f98007d
:104318002448800035488000b0428000c1428000b7
:104328000001be000400be001af00700400f98000c
:10433800510f9800b0538000c15380004e0990007f
:10434800de0990004bf107000002be0030468000f5
:10435800414680000001be000400be0045f1070090
:104368000002be00b0468000c14680000001be00c9
:104378000400be0008f00700b0468800c146880067
:10438800b4468000c5468000b0408000c14080002f
:1043980018c0b3000001be000400be009ff0070073
:1043a8000000e00001003c000044eb000804e000cd
:1043b80005003200b0408000c1408000b04688004f
:1043c800c146880011003700b4468000c546800009
:1043d800d0408000e140800018c0b3000001be005a
:1043e8000400be008bf007000000e000010035006b
:1043f8000044eb000804e00004003200d0408000d4
:10440800e1408000b0468800c14688006000b800de
:10441800600f9800710f98008448800095488000cc
:10442800b0468000c14680000001be000400be0006
:10443800d8ef0700600f9800710f98009053800024
:10444800a15380006e099000fe09900009f1070051
:104458000002be0030468000414680000001be00d8
:104468000400be0003f107000002be009046800071
:10447800a14680000001be000400be00c6ef070090
:1044880090468800a146880090468000a14680009a
:1044980018c0b3001e01be0060f007000000e00075
:1044a80001003c000044eb000804e0000400320076
:1044b8001e01be0092468800a34688000d00370002
:1044c80090468000a146800018c0b3006011b80073
:1044d80050f007000000e000010035000044eb0048
:1044e8000804e000030032006000b800904688002d
:1044f800a146880094468000a5468000b04180000f
:10450800c141800018c0b3000001be000400be0015
:1045180042f007000000e00001003c000044eb000e
:104528000804e00004003200b0418000c14180006e
:1045380090468800a146880090468000a1468000e9
:104548004e019000de01900092ef07000002be00cd
:1045580070538000815380000001be000400be003b
:10456800c4f0070050468800614688005046800025
:104578006146800018c0b30002002400c361240013
:1045880026f007000000e00001003c000044eb00ba
:104598000804e0000500320000002400c161240086
:1045a80050468800614688000f003700504680005a
:1045b8006146800018c0b30002002400c3612c00cb
:1045c80014f007000000e000010035000044eb0093
:1045d8000804e0000400320000002400c1612c003f
:1045e8005046880061468800344680004546800071
:1045f80050468000614680000001be000400be00f5
:104608009cf007000002be007046800081468000d2
:104618000001be000400be005fef0700704688007e
:1046280081468800704680008146800018c0b3002b
:1046380002002000e32b2400f8ef07000000e00050
:1046480001003c000044eb000804e00005003200d3
:1046580000002000e12b2400704688008146880075
:104668000d003700704680008146800018c0b300f6
:104678006011b800e7ef07000000e0000100350016
:104688000044eb000804e000030032006000b800ba
:104698007046880081468800704680008146800008
:1046a800e0ef070000007800c04c88000d003700dc
:1046b8009829ef00da21ef00dc22ef00c841a900b9
:1046c8006000b800704688008146880030002000ed
:1046d800e0538800c902a900d422a90001003700cc
:1046e80000000000b04980000000e00005003a002a
:1046f8009c29ef00d621ef00cfe2a900300020006e
:10470800d0538800804b8000e10f500002003a002f
:104718008d01070007003700c841a800e04c800061
:10472800b00e8800d04c8000c00e8800c04c8000bd
:10473800d00e88004f0478000080fa0000000600c0
:104748000400fa00881f7800008fbe00a047800090
:10475800e30f50003d003a000200200003f0230060
:104768001e00be000bef07000002be0020488000bc
:104778003148800018c0b3000001be000400be002c
:10478800a6ef07000000e00001003c000044eb0039
:104798000804e00011003200e14c800070478000fe
:1047a800808f50000d003d00d05380000000e000d5
:1047b80003003a00e04c80000000e800e04c88006c
:1047c800cfe2a800d0538000e30f50001f003a004a
:1047d80020002000d05388001c0037000200200071
:1047e80003f023001e00be00ebee07000002be002f
:1047f800204880003148800018c0b3000001be0086
:104808000400be0083ef07000000e000010035004f
:104818000044eb000804e0000c003200e04c80008b
:104828000000e00009003400e04c80000000e900ce
:10483800e04c8800e04c80000000e00001003c00f3
:10484800cfe2a90030002000d05388004f04780040
:104858000080fa00000006000200fa00000f78004d
:10486800c0448000e90f500009003c00c0448000ab
:104878008000400040882000008040001e0878002a
:10488800c04480000000e800c044880002003700ef
:10489800b0002000c04488000080fa000000060034
:1048a8000400fa00881f7800a0478000e20f50003b
:1048b80066003a00b0498000e10f500063003a00fa
:1048c8006000b800008fbe008448800095488000d2
:1048d800e0488000f14880000001be000400be00ee
:1048e800e4ef070001f0a200008fbe0090438000b3
:1048f800a143800018c0b3000001be001e00be0026
:1049080044ef07000000e000010035000044eb0020
:104918000804e00046003200cfe2a800d05380002f
:104928000000e0003c003a00704780000000e8000a
:104938007047880070478000b00e8800714780007b
:10494800f0052000808f500008003400100020007f
:10495800c1ff070040002000a0478800cfe2a9005f
:1049680030002000d0538800ee28ef007147800007
:1049780020032000808f50001200340018c0b300bc
:1049880002002000030024001e00be0021ef0700e3
:104998000000e000010035000044eb000804e000de
:1049a8000800320020002000abff07004000200074
:1049b800a0478800cfe2a90030002000d05388002b
:1049c800ee28ef0070478000e40f500012003c0012
:1049d80018c0b30002002000031224001e00be000d
:1049e8000eef07000000e00001003c000044eb006f
:1049f8000804e000080032003000200096ff07009d
:104a080040002000a0478800cfe2a9003000200025
:104a1800d0538800ee28ef00d0538000e30f5000f9
:104a28000a003a0020002000d05388000700370011
:104a380030002000a0478800d621ef003429ef007d
:104a4800cfe2a90030002000d0538800a0478000a2
:104a5800e10f50000e003a00704b8000e50f500047
:104a68000b003a00d621ef004a040700b600070001
:104a780010002000a0498800ee28ef009c29ef00d4
:104a880020002000a047880030002000d053880074
:104a9800a0478000e40f500004003a00d621ef0040
:104aa800ee28ef009c29ef003429ef004f0478002e
:104ab8000080fa00000006000000fa00881f780055
:104ac800844880009548800090408000a140800084
:104ad80018c0b3000001be000400be00cfee0700fe
:104ae8000000e00001003d000044eb000804e00085
:104af800030032007000200057ff070087000700fe
:104b08008448800095488000f04080000141800082
:104b180018c0b3000001be000400be00bdee0700cf
:104b28000000e000010035000044eb000804e0004c
:104b380008003200d11680000010200000806000bc
:104b48000000e00003003a004000200042ff070098
:104b5800070507002448800035488000104380007e
:104b68002143800018c0b3000001be000400be004d
:104b7800aaee07000000e00001003c000044eb0042
:104b88000804e000030032008000200032ff070024
:104b98006200070064488000754880003043800048
:104ba8004143800018c0b3000001be000400be00ed
:104bb8009aee07000000e00001003c000044eb0012
:104bc8000804e000030032009000200022ff0700e4
:104bd8005200070044488000554880003043800058
:104be8004143800018c0b3000001be000400be00ad
:104bf8008aee07000000e00001003c000044eb00e2
:104c08000804e00003003200a000200012ff0700a3
:104c1800420007004f0478000080fa0000000600f8
:104c28000000fa00881f7800e0488000f148800002
:104c380018c0b3006011b80076ee07000000e0006d
:104c4800010035000044eb000804e00006003200d3
:104c5800e0488000f148800001f0a2002049880067
:104c680031498800030037006000b80020498800f7
:104c780031498800244980003549800090418000ee
:104c8800a141800018c0b3000001be000400be00ae
:104c980062ee07000000e00001003c000044eb0069
:104ca8000804e0000a00320010498000e50f5000b7
:104cb80004003400190007002229ef0050002000ea
:104cc800e5fe0700104980000000e8001049880050
:104cd800e4488000f54880001047800021478000a4
:104ce80018c0b3000001be000400be004bee070070
:104cf8000000e00001003c000044eb000804e00074
:104d0800030032000500070060002000d2fe070003
:104d18004f0478000080fa00000006000000fa0046
:104d28000900070010002000804b88007229ef005e
:104d38003429ef007629ef00b0002000c6fe0700f6
:104d48000080fa00000006000000fa00da21ef00f7
:104d5800dc22ef00c841a900d621ef00d821ef00de
:104d6800d422a90030002000e0538800e002a90006
:104d7800e0c2a90030002000f0538800cfe2a9006b
:104d880030002000d0538800c902a9009c29ef00f8
:104d98009a29ef009829ef006000b8009046880033
:104da800a14688006000b8007046880081468800e7
:104db8000080fa00000006000400fa0010079800be
:104dc8000000eb00000f78009e009000f01f20000c
:104dd800808f5000020034001000200015003700ba
:104de8001e00900000004000000f78009e00780030
:104df80000c02f0000804000000f7800f00720005e
:104e0800203b88001e007800103b880040042400e6
:104e1800003b880050052000303b8800a00a200095
:104e2800303b8800000000000000000061e7a80097
:104e38000000eb000080fa00000006000600fa00ff
:104e480010079800210798000000eb00000f780079
:104e58009e009000f01f2000808f50000200340058
:104e680010002000190037001e00900000004000cc
:104e7800000f78009e00780000c02f0000804000de
:104e8800000f7800f00720001000880091018800ca
:104e98002e009000200088001e0078000000880086
:104ea8000208bb0040002400003b88005005200099
:104eb800303b8800a00a2000303b8800000000003a
:104ec8000000000061e7a8000000eb000080fa0085
:104ed800000006000400fa00100798000000eb002c
:104ee800000f78009e009000f01f2000808f500077
:104ef800020034000000eb000f0037001e00900095
:104f080000004000000f78009e00780000c02f00cd
:104f180000804000000f7800f0c7b30032e0b7000f
:104f28001e007800000088001002ba00000000008f
:104f380000000000400080000080fa000000060029
:104f48000600fa00200798000040eb00004f7800a8
:104f58000000eb00100798002e0090006f00600022
:104f6800100798001e009000e90f500005003c0053
:104f78001e009000004078000043b000004f780009
:104f8800040037001e009000004078007043b00015
:104f9800004f78001e4078000080fa0000000600ec
:104fa8000200fa00000f78001e0078008000400020
:104fb80080a5200000804000110020000108780032
:104fc8001e00780080004000809d20000080400086
:104fd8008000eb00010878001e0078000000e00067
:104fe800030032008f20a8008720a80002003700a5
:104ff8008d40a8008540a8000080fa000000060047
:105008000400fa00000f7800110798001e009000b5
:10501800e10f500009003400a00120000efe070037
:105028001e0090008000400040a420000080400046
:105038008000eb0001087800710037001e00900026
:105048008000400080a5200000804000100078000b
:105058000000e000090032001e0090000000e0009f
:105068000300320080022000fbfd070064003700c7
:1050780070022000f8fd0700610037001e00900054
:1050880080004000c0a5200000804000100078008b
:105098000000e00059003a001e0090008000400027
:1050a800c0a5200000804000110020000108780001
:1050b8001e0090008000400000a4200000804000f6
:1050c8008000eb0001087800320037001e009000d5
:1050d80080004000809d2000008040009001780002
:1050e8001e0090008000400000a4200000804000c6
:1050f800100078001e004000104178009e009000cb
:10510800200320000088b9000000780083004000d8
:10511800c09d200000804000024878001e009000da
:1051280080004000809d20000080400090007800b2
:1051380000032000808f50000b003c001e009000f0
:1051480080004000809d2000008040001000780012
:105158008000e8001e00900000014000809d2000b3
:1051680000004100010878001e0090008000400007
:1051780000a4200000804000100078008000e800b3
:105188001e0090000001400000a420000000410023
:10519800010878001e0090008000400000a4200054
:1051a80000804000100078001e0040001040780089
:1051b8000004e000c5ff3a001e0090008000400097
:1051c800809d200000804000900078001e00900024
:1051d80000014000409d20000000410001087800c7
:1051e8001e00900080004000c0a520000080400004
:1051f8008000eb0001087800010037000000000083
:105208000080fa00000006000600fa00889fbe0031
:10521800008fbe00220798002e009000e10f50007a
:1052280009003400a00120008bfd07002e0090002b
:105238008000400040a42000008040008000eb0077
:1052480001087800b00137002e009000800040006f
:1052580040a42000008040008000eb000108780096
:10526800c1a420002e0090004200dd000081400013
:105278006000b8000089be002e0090008000400049
:1052880040a52000008040008000eb000108780065
:105298002e0090006700b90080007800609c200014
:1052a8000080400001c2b3000148780018c0b30074
:1052b8006011b8001e00be00d6ec07000000e00038
:1052c800010035000044eb000804e0000a00320049
:1052d8001e00be0001f0a200008fbe002e0090004c
:1052e8006700b90080007800609c200000804000c2
:1052f800d1c2b3000148780018c0b300f2ff230000
:10530800c36124001e00be00c4ec07000000e000da
:1053180001003c000044eb000804e0000a003200f1
:10532800f0ff2300c1612400008fbe002e00900012
:105338006700b90080007800609c20000080400071
:10534800f1c3b3000148780002002000a3472400fd
:105358001e00be006dec0700c3a420002e019000c3
:105368004211dd00028141000089be002e0090003c
:105378008000400040a42000008040001000780019
:105388008000e8002e0090000001400040a42000aa
:1053980000004100010878005b0037002e009000f3
:1053a8008000400040a420000080400010007800e9
:1053b800e50f500012003a002e0090006700b90077
:1053c80080007800b09c200000804000e1c2b3005b
:1053d800014878002e0090008000400040a4200082
:1053e80000804000100078008000e8002e00900047
:1053f8000001400040a4200000004100010878009e
:10540800c1a420002e0090004200dd000080400072
:105418001000be0083ec0700800078002e0090008a
:105428000001400040a5200000004100010878006c
:105438002e0090008000400040a420000080400022
:10544800900178002e0090008000400040a52000c8
:105458000080400010007800004078000043b00051
:10546800004178002e0090006700b9000000780025
:1054780083004000609c20000080400002487800c3
:105488002e0090008000400040a4200000804000d2
:10549800100078008000e8002e0090000001400015
:1054a80040a420000000410001087800c1a42000a9
:1054b8002e0090004200dd00008040001004be0075
:1054c8002e0090008000400040a520000080400091
:1054d80010007800cf80de008eec07000001be00cf
:1054e8000800be00abeb07000200200003122400f6
:1054f800e0ec0700c3a420002e0190004211dd005b
:10550800028141000089be002e009000800040000a
:1055180040a420000080400010007800e80f5000f0
:105528009eff34002e00900080004000c0a520009f
:1055380000804000100078000000e000f1003a0010
:105548002e00900080004000c0a520000080400090
:1055580011002000010878002e0090008000400013
:10556800a0a9200000804000110020000108780058
:10557800c00037002e0090008000400040a42000aa
:1055880000804000100178002e0090006700b900ec
:105598000000780082004000609c200000804000ed
:1055a8009040780000c3b30080cf500047003a0015
:1055b8002e00900080004000a0a92000008040003c
:1055c800100078000000e000400032002e0090003b
:1055d8008000400080a42000008040001000780077
:1055e8000000e0002d0032002e00900080004000f6
:1055f800809d20000080400010017800ae009000df
:10560800200320000088b9000000780082004000d4
:10561800c09d20000080400001c2b300014878000e
:105628002e00900080004000809d200000804000f7
:105638009000780000032000808f50000b003c0091
:105648002e00900080004000809d200000804000d7
:10565800100078008000e8002e0090000001400053
:10566800809d200000004100010878002e00900075
:105678008000400040a42000008040001000780016
:105688008000e8002e0090000001400040a42000a7
:105698000000410001087800430037002e00900008
:1056a8008000400040a420000080400010007800e6
:1056b8008000e8002e0090000001400040a4200077
:1056c8000000410001087800370037002e009000e4
:1056d80080004000809d20000080400090017800fc
:1056e8002e0090008000400040a420000080400070
:1056f800100178002e0090006700b90000007800c3
:1057080082004000609c200000804000104178002a
:10571800ae009000200320000088b9000000780047
:1057280083004000c09d20000080400002487800af
:105738002e00900080004000809d200000804000e6
